:020000040800F2
:1000000000000320D16F0008237000083170000841
:10001000377000083D7000084370000800000000C1
:10002000000000000000000000000000497000080F
:100030005770000800000000657000087370000829
:10004000217000082170000821700008217000084C
:10005000217000082170000821700008217000083C
:10006000217000082170000821700008217000082C
:10007000217000082170000821700008217000081C
:10008000217000082170000821700008217000080C
:100090002170000821700008217000080D4F000831
:1000A00021700008217000082170000821700008EC
:1000B00021700008E9480008495000082170000834
:1000C00021700008217000082170000821700008CC
:1000D00021700008217000082170000821700008BC
:1000E000BD4F000821700008217000082170000831
:1000F000217000082170000821700008217000089C
:10010000217000082170000821700008217000088B
:10011000217000082170000821700008217000087B
:10012000217000082170000821700008217000086B
:10013000217000082170000821700008217000085B
:10014000217000082170000821700008217000084B
:10015000217000082170000821700008217000083B
:10016000217000082170000821700008217000082B
:10017000217000082170000821700008217000081B
:10018000217000082170000821700008217000080B
:1001900021700008217000082170000821700008FB
:0C01A00021700008217000082170000888
:1001B00010B5054C237833B9044B13B10448AFF3A1
:1001C00000800123237010BDCC020020000000003D
:1001D000909E020808B5034B1BB103490348AFF3D7
:1001E000008008BD00000000D0020020909E0208A0
:1001F00001F0FF01102A2BDB10F0070F08D010F8D8
:10020000013B013A8B422DD010F0070F42B3F6D1DB
:10021000F0B441EA012141EA014122F007047FF0F4
:1002200000070023F0E80256083C85EA010586EA4B
:10023000010685FA47F5A3FA87F586FA47F6A5FA87
:1002400087F68EB9EED1F0BC01F0FF0102F0070293
:1002500032B110F8013B013A83EA010313B1F8D13E
:100260000020704701387047002D06BF354603381F
:10027000073815F0010F07D1013015F4807F02BF58
:10028000013015F4C03F0130F0BC0138704700BFA9
:1002900010F8012B11F8013B012A28BF9A42F7D030
:1002A000D01A7047034613F8012B002AFBD1181A05
:1002B0000138704781F0004102E000BF83F0004345
:1002C00030B54FEA41044FEA430594EA050F08BFF1
:1002D00090EA020F1FBF54EA000C55EA020C7FEAB5
:1002E000645C7FEA655C00F0E2804FEA5454D4EB32
:1002F0005555B8BF6D420CDD2C4480EA020281EAFC
:10030000030382EA000083EA010180EA020281EA33
:100310000303362D88BF30BD11F0004F4FEA013185
:100320004FF4801C4CEA113102D0404261EB410194
:1003300013F0004F4FEA03334CEA133302D052421A
:1003400063EB430394EA050F00F0A780A4F10104D6
:10035000D5F1200E0DDB02FA0EFC22FA05F2801810
:1003600041F1000103FA0EF2801843FA05F35941F6
:100370000EE0A5F120050EF1200E012A03FA0EFC75
:1003800028BF4CF0020C43FA05F3C01851EBE3719F
:1003900001F0004507D54FF0000EDCF1000C7EEBBC
:1003A00000006EEB0101B1F5801F1BD3B1F5001FFA
:1003B0000CD349085FEA30004FEA3C0C04F1010419
:1003C0004FEA445212F5800F80F09A80BCF1004F42
:1003D00008BF5FEA500C50F1000041EB045141EAC4
:1003E000050130BD5FEA4C0C404141EB010111F4C5
:1003F000801FA4F10104E9D191F0000F04BF014670
:100400000020B1FA81F308BF2033A3F10B03B3F14D
:1004100020020CDA0C3208DD02F1140CC2F10C02DD
:1004200001FA0CF021FA02F10CE002F11402D8BF3B
:10043000C2F1200C01FA02F120FA0CFCDCBF41EA07
:100440000C019040E41AA2BF01EB0451294330BDD6
:100450006FEA04041F3C1CDA0C340EDC04F11404B3
:10046000C4F1200220FA04F001FA02F340EA03008A
:1004700021FA04F345EA030130BDC4F10C04C4F1D0
:10048000200220FA02F001FA04F340EA03002946B0
:1004900030BD21FA04F0294630BD94F0000F83F4FA
:1004A000801306BF81F480110134013D4EE77FEADD
:1004B000645C18BF7FEA655C29D094EA050F08BF29
:1004C00090EA020F05D054EA000C04BF194610460A
:1004D00030BD91EA030F1EBF0021002030BD5FEA4E
:1004E000545C05D14000494128BF41F0004130BD76
:1004F00014F580043CBF01F5801130BD01F00045CA
:1005000045F0FE4141F470014FF0000030BD7FEA3C
:10051000645C1ABF194610467FEA655C1CBF0B4637
:10052000024650EA013406BF52EA033591EA030F4E
:1005300041F4002130BD00BF90F0000F04BF002146
:10054000704730B54FF4806404F132044FF0000579
:100550004FF0000150E700BF90F0000F04BF0021F2
:10056000704730B54FF4806404F1320410F0004558
:1005700048BF40424FF000013EE700BF42004FEA53
:10058000E2014FEA31014FEA02701FBF12F07F43D0
:1005900093F07F4F81F06051704792F0000F14BFCD
:1005A00093F07F4F704730B54FF4607401F0004511
:1005B00021F0004120E700BF50EA010208BF704768
:1005C00030B54FF000050AE050EA010208BF70475D
:1005D00030B511F0004502D5404261EB41014FF4C6
:1005E000806404F132045FEA915C3FF4DCAE4FF0CA
:1005F00003025FEADC0C18BF03325FEADC0C18BFB1
:10060000033202EBDC02C2F1200300FA03FC20FA01
:1006100002F001FA03FE40EA0E0021FA02F114444E
:10062000C1E600BF70B54FF0FF0C4CF4E06C1CEA63
:1006300011541DBF1CEA135594EA0C0F95EA0C0FD8
:1006400000F0DEF82C4481EA030621EA4C5123EA4B
:100650004C5350EA013518BF52EA033541F480117A
:1006600043F4801338D0A0FB02CE4FF00005E1FB2D
:1006700002E506F00042E0FB03E54FF00006E1FB77
:1006800003569CF0000F18BF4EF0010EA4F1FF04BA
:10069000B6F5007F64F5407404D25FEA4E0E6D41FA
:1006A00046EB060642EAC62141EA55514FEAC5200B
:1006B00040EA5E504FEACE2EB4F1FD0C88BFBCF587
:1006C000E06F1ED8BEF1004F08BF5FEA500E50F138
:1006D000000041EB045170BD06F0004646EA0101FE
:1006E00040EA020081EA0301B4EB5C04C2BFD4EB30
:1006F0000C0541EA045170BD41F480114FF0000E29
:10070000013C00F3AB8014F1360FDEBF002001F096
:10071000004170BDC4F10004203C35DA0C341BDC10
:1007200004F11404C4F1200500FA05F320FA04F0E2
:1007300001FA05F240EA020001F0004221F0004116
:1007400010EBD37021FA04F642EB06015EEA430E89
:1007500008BF20EAD37070BDC4F10C04C4F12005B9
:1007600000FA04F320FA05F001FA04F240EA02006C
:1007700001F0004110EBD37041F100015EEA430E3D
:1007800008BF20EAD37070BDC4F1200500FA05F25D
:100790004EEA020E20FA04F301FA05F243EA0203DC
:1007A00021FA04F001F0004121FA04F220EA0200EB
:1007B00000EBD3705EEA430E08BF20EAD37070BD31
:1007C00094F0000F0FD101F00046400041EB010111
:1007D00011F4801F08BF013CF7D041EA060195F0F3
:1007E000000F18BF704703F00046520043EB0303AD
:1007F00013F4801F08BF013DF7D043EA060370479A
:1008000094EA0C0F0CEA135518BF95EA0C0F0CD0A4
:1008100050EA410618BF52EA4306D1D181EA0301EA
:1008200001F000414FF0000070BD50EA410606BFE4
:100830001046194652EA430619D094EA0C0F02D129
:1008400050EA013613D195EA0C0F05D152EA03366E
:100850001CBF104619460AD181EA030101F000418C
:1008600041F0FE4141F470014FF0000070BD41F0D5
:10087000FE4141F4780170BD70B54FF0FF0C4CF4AF
:10088000E06C1CEA11541DBF1CEA135594EA0C0FCE
:1008900095EA0C0F00F0A7F8A4EB050481EA030E1B
:1008A00052EA03354FEA013100F088804FEA033302
:1008B0004FF0805545EA131343EA12634FEA0222D0
:1008C00045EA111545EA10654FEA00260EF0004191
:1008D0009D4208BF964244F1FD0404F5407402D2E3
:1008E0005B084FEA3202B61A65EB03055B084FEA74
:1008F00032024FF480104FF4002CB6EB020E75EB71
:10090000030E22BFB61A754640EA0C005B084FEA98
:100910003202B6EB020E75EB030E22BFB61A754615
:1009200040EA5C005B084FEA3202B6EB020E75EB60
:10093000030E22BFB61A754640EA9C005B084FEAD8
:100940003202B6EB020E75EB030E22BFB61A7546E5
:1009500040EADC0055EA060E18D04FEA051545EAD4
:1009600016754FEA06164FEAC30343EA52734FEA7D
:10097000C2025FEA1C1CC0D111F4801F0BD141EAF6
:1009800000014FF000004FF0004CB6E711F4801F5B
:1009900004BF01430020B4F1FD0C88BFBCF5E06F3B
:1009A0003FF6AFAEB5EB030C04BFB6EB020C5FEA4B
:1009B000500C50F1000041EB045170BD0EF0004EA0
:1009C0004EEA113114EB5C04C2BFD4EB0C0541EAD2
:1009D000045170BD41F480114FF0000E013C90E6CF
:1009E00045EA060E8DE60CEA135594EA0C0F08BF93
:1009F00095EA0C0F3FF43BAF94EA0C0F0AD150EA92
:100A000001347FF434AF95EA0C0F7FF425AF104624
:100A100019462CE795EA0C0F06D152EA03353FF44C
:100A2000FDAE1046194622E750EA410618BF52EAC9
:100A300043067FF4C5AE50EA41047FF40DAF52EA9D
:100A400043057FF4EBAE12E74FF0FF3C06E000BF3A
:100A50004FF0010C02E000BF4FF0010C4DF804CD47
:100A60004FEA410C7FEA6C5C4FEA430C18BF7FEA07
:100A70006C5C1BD001B050EA410C0CBF52EA430C35
:100A800091EA030F02BF90EA020F0020704710F1B5
:100A9000000F91EA030F58BF994208BF90422CBF44
:100AA000D8176FEAE37040F0010070474FEA410C3D
:100AB0007FEA6C5C02D150EA013C07D14FEA430C5B
:100AC0007FEA6C5CD6D152EA033CD3D05DF8040BCC
:100AD000704700BF8446104662468C4619466346FE
:100AE00000E000BF01B5FFF7B7FF002848BF10F1D5
:100AF000000F01BD4DF808EDFFF7F4FF0CBF01201A
:100B000000205DF808FB00BF4DF808EDFFF7EAFF95
:100B100034BF012000205DF808FB00BF4DF808ED50
:100B2000FFF7E0FF94BF012000205DF808FB00BF45
:100B30004DF808EDFFF7CEFF94BF012000205DF8CF
:100B400008FB00BF4DF808EDFFF7C4FF34BF0120DC
:100B500000205DF808FB00BF4FEA410C7FEA6C5CA7
:100B600002D150EA013C0AD14FEA430C7FEA6C5CA7
:100B700002D152EA033C02D14FF0000070474FF01F
:100B8000010070474FEA410212F5001215D211D54B
:100B90006FF47873B3EB625212D94FEAC12343F07A
:100BA000004343EA505311F0004F23FA02F018BFFC
:100BB000404270474FF00000704750EA013005D1C5
:100BC00011F0004008BF6FF0004070474FF0000088
:100BD000704700BF4A0011D212F5001211D20DD594
:100BE0006FF47873B3EB62520ED44FEAC12343F033
:100BF000004343EA505323FA02F070474FF00000DD
:100C0000704750EA013002D14FF0FF3070474FF08B
:100C1000000070474FEA4102B2F1E04324BFB3F550
:100C2000001CDCF1FE5C0DD901F0004C4FEAC00263
:100C30004CEA5070B2F1004F40EB830008BF20F047
:100C40000100704711F0804F21D113F13872BCBF01
:100C500001F00040704741F480114FEA5252C2F156
:100C60001802C2F1200C10FA0CF320FA02F018BF9F
:100C700040F001004FEAC1234FEAD32303FA0CFCF2
:100C800040EA0C0023FA02F34FEA4303CCE77FEA81
:100C9000625307D150EA01331EBF4FF0FE4040F4CB
:100CA0004000704701F0004040F0FE4040F400007A
:100CB000704700BF53B94AB9002908BF00281CBFBC
:100CC0004FF0FF314FF0FF3000F07AB9ADF1080C72
:100CD0006DE904CE00F006F8DDF804E0DDE902235A
:100CE00004B070472DE9F0478C460D460446089E37
:100CF000002B51D18A4217466DD9B2FA82FEBEF15D
:100D0000000F0BD0CEF1200C01FA0EF520FA0CFCEE
:100D100002FA0EF74CEA050C00FA0EF44FEA174AF5
:100D2000250CBCFBFAF81FFA87F90AFB18CC45EA38
:100D30000C4508FB09F3AB420AD9ED1908F1FF3263
:100D400080F02381AB4240F22081A8F102083D44AB
:100D5000ED1AA4B2B5FBFAF00AFB105544EA0544BB
:100D600000FB09F9A14509D9E41900F1FF3380F02E
:100D70000A81A14540F2078102383C44A4EB0904F2
:100D800040EA08400021002E61D024FA0EF400232E
:100D900034607360BDE8F0878B4207D9002E54D0D1
:100DA000002186E821000846BDE8F087B3FA83F108
:100DB000002940F08E80AB4202D3824200F2FA80DA
:100DC000841A65EB03050120AC46002E3FD086E86F
:100DD0001010BDE8F08712B90127B7FBF2F7B7FA98
:100DE00087FEBEF1000F34D1EB1B3A0C1FFA87FCD3
:100DF0000121B3FBF2F8250C02FB183345EA034549
:100E00000CFB08F3AB4207D9ED1908F1FF3002D211
:100E1000AB4200F2D1808046ED1AA3B2B5FBF2F0EE
:100E200002FB105543EA05440CFB00FCA44507D91E
:100E3000E41900F1FF3302D2A44500F2B88018464D
:100E4000A4EB0C0440EA08409DE731463046BDE87B
:100E5000F087CEF1200405FA0EF307FA0EF720FA18
:100E600004F83A0C25FA04F448EA0308B4FBF2F15A
:100E70004FEA184502FB11441FFA87FC45EA044576
:100E800001FB0CF3AB4200FA0EF409D9ED1901F1A4
:100E9000FF3080F08A80AB4240F2878002393D44C7
:100EA000EB1A1FFA88F5B3FBF2F002FB103345EAA8
:100EB000034500FB0CF3AB4207D9ED1900F1FF38F5
:100EC0006FD2AB426DD902383D44EB1A40EA014182
:100ED0008FE7C1F1200722FA07F88B4005FA01F4E9
:100EE00048EA030320FA07FE4FEA134CFD404EEA9E
:100EF000040EB5FBFCF94FEA1E440CFB19551FFA12
:100F000083F844EA054509FB08F4AC4202FA01F211
:100F100000FA01FA08D9ED1809F1FF3043D2AC42CA
:100F200041D9A9F102091D442D1B1FFA8EFEB5FB04
:100F3000FCF00CFB10554EEA054400FB08F8A045F8
:100F400007D9E41800F1FF3529D2A04527D9023886
:100F50001C4440EA0940A4EB0804A0FB02894C456C
:100F6000C6464D4615D312D056B1BAEB0E0364EB0C
:100F7000050404FA07F7CB401F43CC403760746088
:100F80000021BDE8F0871846F8E69046E0E6C24545
:100F9000EAD2B8EB020E69EB03050138E4E7284614
:100FA000D7E7404691E78146BEE7014678E7023839
:100FB0003C4445E7084608E7A8F102083D442BE712
:100FC000704700BF80B582B000AF87ED010AC7ED62
:100FD000000AD7ED000A97ED010A06F069FEF0EE6F
:100FE000407AB0EE670A0837BD4680BD80B582B052
:100FF00000AF87ED010A97ED010A1FF049FEF0EE00
:10100000407AB0EE670A0837BD4680BD80B584B02F
:1010100000AFF860B9607A607B68002B01D10023D3
:1010200005E07A68B968F86822F016FB03461846AE
:101030001037BD4680BD000090B585B000AF786028
:101040007B6803F500534FF480621A807B6803F5D8
:101050000053023301221A707B6803F500530E33EC
:1010600000221A707B6803F500530F3300221A70B8
:101070007B6803F50053103300221A707B6803F578
:10108000A733143318460CF069FD7B6803F5A733CA
:101090002C3300221A607B6803F5A733303300221B
:1010A0001A807B6803F5A733323339491A460B4659
:1010B00003CB106051601B8813817B6803F5B43348
:1010C0003C3300221A700023FB60FB68B3F5806F8D
:1010D00035DAFB6807EE903AF8EEE77A77EEA77A12
:1010E00017EE900AFFF74AFA27A3D3E90023FFF788
:1010F00099FA03460C46184621464FF00002254B4C
:10110000FFF7BAFB03460C4644EC173BB0EE470A28
:10111000F0EE670A1FF074FD54EC103B18462146B0
:10112000FFF778FD01467A68FB6803F604439B00ED
:10113000134404331960FB680133FB60C5E70023E7
:101140007B817B89192B17DC00233B813B89FF2B9B
:101150000EDC7A893B89796812020A44134403F54C
:10116000A7333C3350221A703B8901333B81EDE7B2
:101170007B8901337B81E4E77B6818461437BD46E1
:1011800090BD00BFAFF30080182D4454FB210940EF
:10119000A89E02080000904080B582B000AF786041
:1011A0003960174A164B1B889BB223F001039BB290
:1011B0001380144B1B681A04114B5B6A1344124AC8
:1011C00013600F4A0E4B9B8A9BB243F001039BB204
:1011D00093820B4A0A4B1B889BB243F001039BB2DC
:1011E0001380084B00221A603968786800F0D8FA3A
:1011F0003968786800F0E8FC00BF0837BD4680BD5C
:1012000000080040140D0020180D002080B582B0A9
:1012100000AF78603960174A164B1B889BB223F0E9
:1012200001039BB21380144B1B681A04114B5B6AB9
:101230001344124A13600F4A0E4B9B8A9BB243F031
:1012400001039BB293820B4A0A4B1B889BB243F06B
:1012500001039BB21380084B00221A60396878683A
:1012600000F09EFA3968786800F00AF800BF083785
:10127000BD4680BD00080040140D0020180D002060
:1012800090B595B002AFF860B9600023A7F846307A
:101290000023A7F840300023FB870123BB87BB8FC7
:1012A000FF2B00F31181FA8FBB8F04339A4276DA59
:1012B000FB8FFF2B73DCFB8F9B00BA681344D3EDCD
:1012C000007AFB8FFA6803F604039B00134404338F
:1012D00093ED007AF0EE470AB0EE670AFFF772FE70
:1012E000F0EE406A9FED747AC6EE877AB7EE007A28
:1012F00077EE677A9FED717A67EE877AFCEEE77A90
:10130000C7ED017ABB88A7F84430B7F844301D2BED
:101310001BDCB7F846300133A7F84630B7F8463043
:10132000C82B12DD664B1B889BB201339AB2644B0B
:101330001A80644B1B78DBB21A46FB68134403F532
:1013400000530E3300221A7003E2FB6803F5B43336
:101350003C331B781A46FB8FB7F84410C8B2F968C3
:1013600012020A44134403F5A7333C3302461A70B1
:10137000FB8F012B0FD1FB6803F5B4333C331B7893
:10138000B7F84420D1B2FA681B02134403F5A7331F
:101390003C330A461A70FB8F0133FB8783E7002337
:1013A000A7F84230B7F84230A7F84430BB8F043B6F
:1013B0009BB27B87B7F93A20BB8F04339A423BDC60
:1013C000B7F93A30002B30DBB7F93A30FF2B2CDC81
:1013D000BA8FB7F93A30D31A002BB8BF5B42C3F1CA
:1013E0000403012202FA03F37B86B7F842207B8EC6
:1013F0001344A7F84230FB6803F5B4333C331B7841
:101400001A46B7F93A30F96812020A44134403F550
:10141000A7333C331B789BB27A8E12FB03F39AB24C
:10142000B7F844301344A7F84430B7F93A309BB2C8
:1014300001339BB27B87BDE7B7F84420B7F8423051
:10144000B2FBF3F3A7F84430B7F840305B0007F184
:1014500048021344B7F8442023F8342CB7F840303E
:1014600001335A4203F0030302F0030258BF534210
:10147000A7F84030BB8F032B19DDFB6803F5B433AD
:101480003C331B781C46BB8F1A1FB7F840305B00FB
:1014900007F148010B4433F8343CD8B2F968230211
:1014A0000B44134403F5A7333C3302461A70BB8F39
:1014B0000133BB87F3E600BF000080470000A04275
:1014C000320D0020000D00200121F86801F01EF807
:1014D000FB6803F5B4333C331B7801339E4A82FB2F
:1014E0000312D110DA178A1A1A2101FB02F29A1A92
:1014F000D2B2FB6803F5B4333C331A7001233B8747
:101500003B8FB3F5A07F00F324813B8F013B934ACF
:1015100082FB03125211DB17D31A03F00103002BD5
:1015200014BF01230023DBB287F83130D723FB86B9
:101530000023BB86BB8E192B00F3AF80BB8E5B00F4
:101540009BB2C3F13F039BB25B01FB85FB6803F5D4
:10155000B4333C331B781A46BB8E13447E4A82FB5D
:101560000312D110DA178A1A1A2101FB02F29A1A11
:101570001346BB85BB8E5B000333BB62BB8EC3F1DE
:101580001A0213469B0013440C3B7B623A8FBB6AE2
:101590009A427EDD3A8FBB6A03F580739A4278DA0D
:1015A000B7F92C20398FBB6ACB1AF96812020A44AA
:1015B000134403F5A7333C331B789AB27B6A9BB282
:1015C00013449BB27B84B7F92C20398FBB6ACB1AAA
:1015D000013BF96812020A44134403F5A7333C3374
:1015E0001B789AB27B6A9BB213449BB23B84FB8EFE
:1015F000002B4EDDFA8EB7F922309A4204DAFA8EC9
:10160000B7F920309A4244DBFB8E1A46920013440D
:101610001B0198B23B8F5A1E504B83FB021359118A
:10162000D317C91A0B469B000B441B01D11A8BB26E
:101630000344FB83FA8EB7F922309A4215DDFA8E05
:10164000B7F920309A4210DD97F83110FB8BFA6819
:101650004FF4874000FB01F10B4403F500530833BE
:101660005B00134400229A800FE097F83110FB8B47
:10167000FA684FF4874000FB01F10B4403F5005377
:1016800008335B001344FA8D9A80FB8E013BFB8686
:10169000ADE7BB8E0133BB864CE7FB8E002B29DD0B
:1016A000FB8E1A46920013441B0198B23B8F5A1EC0
:1016B0002A4B83FB02135911D317C91A0B469B00FF
:1016C0000B441B01D11A8BB20344BB8397F8311032
:1016D000BB8BFA684FF4874000FB01F10B4403F524
:1016E000005308335B00134400229A80FB8E013BB9
:1016F000FB86D2E73A8F1A4BA3FB021399090B46DC
:101700009B000B441B01D31A9BB2002B1DD1154B20
:101710005B68154A13603B8F503B99B23B8F013B8E
:1017200098B297F831304FF4074202FB03F303F508
:1017300080431033FA68134404330193D723009392
:1017400003460022094802F00DFA3B8F01333B8724
:10175000D6E64C37BD4690BD4FECC44E6766666614
:10176000CDCCCCCCA0640240100D0020480D002050
:1017700090B583B000AF78607868FEF7EDFE034661
:101780000C4644EC103B1FF0F3F9B0EE407AF0EE5B
:10179000607AB0EE470AF0EE670A0C37BD4690BD9E
:1017A00090B59BB000AF786039600023A7F84E3049
:1017B0007B6803F500531B881846FEF7BDFE034601
:1017C0000C4644EC103B1FF0BFF954EC103B18469C
:1017D0002146FFF7FFF90346A7F84C3000237B664C
:1017E0007B6803F500531B881A467B6E9A422BDDFB
:1017F000B7F84C30C3F120027B6E93FAA3F363FA7F
:1018000002F3A7F84E30B7F84E207B6E9A4217DDF0
:101810007B6E9B003A6813441B68BB647B6E9B0025
:101820003A681344B7F84E20920039680A441268A7
:101830001A60B7F84E309B003A681344BA6C1A60CD
:101840007B6E01337B66CBE701233B667B6803F548
:1018500000531B881A463B6E9A4240F3AE813B6EA2
:10186000012B4CD10023FB657B6803F500531B88DB
:101870001A46FB6D9A4240F39C81FA6D3B6E13440D
:101880007B647B6C9B003A6813441B683B647B6CF5
:101890009B003A681344FA6D920039680A4492ED4D
:1018A000007AD7ED107A77EE677AC3ED007A7A681E
:1018B0007B6C03F604039B00134404334FF00002D7
:1018C0001A60FB6D9B003A681344FA6D9200396808
:1018D0000A4492ED007AD7ED107A77EE277AC3EDBD
:1018E000007A7A68FB6D03F604039B00134404330B
:1018F0004FF000021A60FB6D0233FB65B4E77B68B2
:1019000003F500531B885B089BB21A463B6E9A4254
:1019100040F097800123A7F85A30B7F85A307A6818
:1019200002F500521288520892B2934280F241812D
:10193000B7F85A309A023B6E5B0092FBF3F31846FD
:10194000FFF716FF54EC103B18462146FFF742F90B
:101950000346FB87FB8F7A6803F604439B0013441E
:1019600004331B68BB63FB8F03F580737A6803F64F
:1019700004439B00134404331B687B63B7F85A206D
:101980003B6E13443B633B6B9B003A68134493EDFF
:10199000007AD7ED0D7A27EE277A7A683B6B03F64B
:1019A00004039B0013440433D3ED006AD7ED0E7A91
:1019B00066EEA77A77EE677AB7F85A309B003A68F6
:1019C0001344B7F85A20920039680A4492ED007A1D
:1019D00077EE277AC3ED007A7A683B6B03F604034F
:1019E0009B001344043393ED007AD7ED0D7A27EE74
:1019F000277A3B6B9B003A681344D3ED006AD7ED1E
:101A00000E7A66EEA77A77EE277AB7F85A30B7F8EB
:101A10005A20796802F6040292000A44043292EDD8
:101A2000007A77EE277A7A6803F604039B00134462
:101A30000433C3ED007AB7F85A300133A7F85A30AF
:101A40006BE700237B657A6D3B6E9A4280F2B18032
:101A50007B6D9A023B6E5B0092FBF3F31846FFF737
:101A600087FE54EC103B18462146FFF78BF80346DF
:101A7000FB627A68FB6A03F604439B001344043359
:101A80001B68BB62FB6A03F580737A6803F6044344
:101A90009B00134404331B687B627B6D3B657B6852
:101AA00003F500531B881A463B6D9A427DDD3A6D63
:101AB0003B6E13443B623B6D9B003A6813441B68CA
:101AC000FB617A683B6D03F604039B001344043307
:101AD0001B68BB613B6A9B003A6813441B687B61CF
:101AE0007A683B6A03F604039B00134404331B68C3
:101AF0003B6197ED097AD7ED057A27EE277AD7ED86
:101B00000A6AD7ED047A66EEA77A77EE677AC7EDB0
:101B1000037A97ED097AD7ED047A27EE277AD7ED85
:101B20000A6AD7ED057A66EEA77A77EE277AC7EDCF
:101B3000027A3B6A9B003A68134497ED077AD7ED27
:101B4000037A77EE677AC3ED007A97ED067AD7EDE0
:101B5000027A77EE677A7A683B6A03F604039B00A1
:101B600013440433C3ED007A3B6D9B003A68134481
:101B700097ED077AD7ED037A77EE277AC3ED007AEF
:101B800097ED067AD7ED027A77EE277A7A683B6D81
:101B900003F604039B0013440433C3ED007A3B6E49
:101BA0005B003A6D13443B6579E77B6D01337B65E0
:101BB00049E73B6E5B003B6648E6786800F0F6FC60
:101BC00000BF6C37BD4690BDB0B52DED028BC0B0E7
:101BD00006AFF860B960FB6803F5005304330022D8
:101BE0007A8507F12A021146184600F0D4FD002339
:101BF000A7F8E6304FF6FF73A7F8E4300023A7F804
:101C0000E230FB6803F5A7332C3300221A6001236E
:101C1000A7F8E030B7F8E030B3F5A07F00F36B82AF
:101C20001F23A7F8DE30B7F8E0309B00BA681344F2
:101C3000D3ED007AB7F8E030FA6803F604039B00AE
:101C40001344043393ED007AF0EE470AB0EE670ACE
:101C5000FFF7B8F987ED340AB7F9E430032B67DCF6
:101C6000D7ED347A9FED877AF4EEC77AF1EE10FA69
:101C70005EDDB7F9E430B3F1FF3F06D0B7F8E020FE
:101C8000B7F9E23001339A4206DDB7F9E4309BB28E
:101C900001339BB2A7F8E430B7F8E030A7F8E230A0
:101CA000B7F9E430FA6803F5274318335B001344AF
:101CB0005B88A7F8DE30FB6803F500530433B7F9FF
:101CC000E4201146184600F08BFD03461B88002BCC
:101CD0000FD0FB6803F5A7332C331B6807EE903A4F
:101CE000B8EE677AD7ED347AB4EEE77AF1EE10FA0F
:101CF00001D5012300E00023002B1CD0FB6803F575
:101D000000530433B7F9E4201146184600F068FD8B
:101D10000246B7F8E0301380D7ED347AFCEEE77A6C
:101D200017EE902AFB6803F5A7332C331A6002E004
:101D30000023A7F8E23097ED347ADFED536AC7EE5F
:101D4000267AB7EE007A77EE677A9FED507A67EEE3
:101D5000877AC7ED0B7A4E4B3B6307F1300207F1F0
:101D60002C031146184600F04AFD0346D3ED007AD5
:101D7000FCEEE77AC7ED017ABB88A7F8CE30B7F85A
:101D8000E030013B434A82FB03125211DB17D31AA6
:101D900003F00103002B14BF01230023DBB287F8FB
:101DA000CD300023C7F8D830D7F8D830D72B77DC20
:101DB000D7F8D8309BB21A46920013441B0198B250
:101DC000B7F8E0305A1E334B83FB02135911D31777
:101DD000C91A0B469B000B441B01D11A8BB203445A
:101DE000A7F8C830B7F8CE20D7F8D8309A4232DCFE
:101DF000B7F9E6309BB201339BB2A7F8E630B7F9EA
:101E0000E63042F21072934212DD234B1B889BB2E4
:101E100001339AB2204B1A80204B1B78DBB21A4652
:101E2000FB68134403F500530E3300221A702EE3AF
:101E300097F8CD10B7F8C830FA684FF4874000FB28
:101E400001F10B4403F5005308335B001344B7F86A
:101E5000DE209A8010E097F8CD10B7F8C830FA6805
:101E60004FF4874000FB01F10B4403F500530833A6
:101E70005B00134400229A80D7F8D8300133C7F8AA
:101E8000D83091E700504347000000490000574315
:101E90000000574367666666320D0020000D002083
:101EA000B7F8E020D44BA3FB021399090B469B0023
:101EB0000B441B01D31A9BB2002B40F01681B7F8DC
:101EC000E030F02B40F3F5800121F86800F01EFBB4
:101ED000002387F8D73097F8D730042B00F3E98038
:101EE000FB6803F50053043397F8D72011461846D2
:101EF00000F076FC03461B88002B0CBF0123002357
:101F0000DBB2002B40F0D480FB6803F500530433B0
:101F100097F8D7201146184600F062FC03461B884C
:101F200007EE903AB8EE678AFB6803F50053043376
:101F30000021184600F054FC03461B8807EE903A37
:101F4000F8EEE77A88EE277A17EE100AFEF716FB0E
:101F500003460C4644EC103B1EF00AFE54EC103BCA
:101F600018462146FEF736FE0346A7F8CA3007F1A9
:101F70006403B7F8CA20A149184605F037FE07F1F7
:101F80004C0307F164019E4A184600F051FCFB68BF
:101F900003F50053043397F8D7201146184600F094
:101FA0001FFC03461B881946F86800F07DFAF0EE26
:101FB000407A07F17C030022B0EE670A8F49184689
:101FC00005F00AFD07F1340307F17C0207F14C012B
:101FD000184600F094FB07F1100307F13401894A19
:101FE000184600F025FC07F1340318460BF0D7FD26
:101FF00007F17C0318460BF0D2FD07F14C0318469D
:102000000BF0CDFD07F1640318460BF0C8FD97F8FF
:10201000D73001339BB21A46920013449B009DB205
:1020200097F8CD304FF4074202FB03F303F58043EA
:102030001033FA6813441C1D07F1100207F19403D2
:10204000114618460CF0A4F897F8D730FA6803F553
:10205000274318335B0013445B88C7F8AC30002378
:10206000C7F8B03007F1B003049307F1AC03039352
:10207000654B029307F194030193009450232A4681
:102080000021624802F005F807F1940318460BF0AE
:1020900086FD5F4B5B685F4A136007F110031846CB
:1020A0000BF07DFD97F8D730013387F8D73012E772
:1020B00000BFB7F8E030503B99B2B7F8E030013BD1
:1020C00098B297F8CD304FF4074202FB03F303F5C3
:1020D00080431033FA68134404330193D7230093E9
:1020E00003460022494801F03DFDB7F8E0300133D6
:1020F000A7F8E0308EE5FB6803F5005302331B7848
:10210000002B0DD0FB6803F5005304330021184663
:1021100000F066FB03461B88002B01DD012300E075
:102120000023002B00F0B381FB6803F50053043358
:102130000021184600F054FB03461B881946F86836
:1021400000F0B2F9F0EE407A334BC3ED007A324B37
:10215000D3ED007AB2EE047AC7EE876AB0EE660A73
:10216000FEF744FFF0EE407AC7ED2D7A4FF0824340
:10217000C7F8B83007F1B80207F1B40311461846A2
:1021800000F06DFB0346D3ED007AFCEEE77AC7ED75
:10219000017ABB88A7F8C630B7F8C640FB6803F5DC
:1021A000005304330021184600F01AFB03461B8835
:1021B000E31A002BB8BF5B42012BCCBF01230023E5
:1021C000DBB2002B2CD0B7F8C630144AD26A02FB1F
:1021D00003F4FB6803F5005304330021184600F0B4
:1021E000FFFA03461B88B4FBF3F39AB2FB6803F5CE
:1021F000A73330331A801BE0CDCCCCCC10000020AC
:10220000B49E0208B89E0208500D0020480D002020
:10221000A0640240100D00201C0D002000040040AE
:102220009F4BDB6A9AB2FB6803F5A73330331A8001
:10223000FB6803F5005304330021184600F0D0FA80
:1022400003461B8803F18043013B9B00BA6813449B
:102250001B681846FEF792F903460C469FED8E1B4D
:1022600044EC103B1EF0BAFD55EC104BFB6803F537
:10227000005304330021184600F0B2FA03461B88CD
:10228000013BFA6803F604039B00134404331B6804
:102290001846FEF773F902460B469FED7F1B43EC91
:1022A000102B1EF09BFD53EC102B20462946FEF709
:1022B00007F803460C4644EC173BB0EE470AF0EE35
:1022C000670A1EF003FF54EC103B18462146FEF748
:1022D00059FC0346C7F8C030FB6803F500530433CC
:1022E0000021184600F07CFA03461B8801339B004E
:1022F000BA6813441B681846FEF740F903460C46BB
:102300009FED651B44EC103B1EF068FD55EC104B37
:10231000FB6803F5005304330021184600F060FA0F
:1023200003461B880133FA6803F604039B00134439
:1023300004331B681846FEF721F902460B469FED51
:10234000561B43EC102B1EF049FD53EC102B20467E
:102350002946FDF7B5FF03460C4644EC173BB0EEAB
:10236000470AF0EE670A1EF0B1FE54EC103B184627
:102370002146FEF707FC0346C7F8BC30D7F8BC304F
:1023800007EE903AB8EEE77AD7F8C03007EE903A09
:10239000F8EEE76A434BD3ED007A37EEA76AB7F859
:1023A000C63007EE903AF8EEE77A66EE277A76EED8
:1023B000A77AB4EEE77AF1EE10FACCBF012300233E
:1023C000DBB2002B0CD0FB6803F5A73330331B883E
:1023D000013B9AB2FB6803F5A73330331A8030E033
:1023E000D7F8C03007EE903AB8EEE77AD7F8BC30AD
:1023F00007EE903AF8EEE76A2A4BD3ED007A37EE13
:10240000A76AB7F8C63007EE903AF8EEE77A66EEBC
:10241000277A76EEA77AB4EEE77AF1EE10FACCBF1F
:1024200001230023DBB2002B0BD0FB6803F5A7339D
:1024300030331B8801339AB2FB6803F5A73330337E
:102440001A80FB6803F5A73330331B88002B14DD9B
:10245000FB6803F5A73330331B881A4641F26F73CC
:102460009A420ADC0E4BDA6AFB6803F5A733303375
:102470001B889A4201D0012300E00023002B06D0E4
:10248000074AFB6803F5A73330331B88D362E8376C
:10249000BD46BDEC028BB0BD000000000000004056
:1024A000000400401C0D002080B483B000AF7860B1
:1024B0000B467B80134B1B6807EE903AB8EE677AA9
:1024C0007B8807EE903AF8EEE77A27EE277A0E4BF4
:1024D0001B8D9BB201331A460B4BDB6A013303FBA6
:1024E00002F3DB0207EE903AF8EE677AC7EE276A4E
:1024F000F0EE667AB0EE670A0C37BD465DF8047BF5
:10250000704700BF180000200004004080B483B072
:1025100000AF78600B46FB70FB78002B0AD01F4B96
:102520001B78DBB21A467B68134403F500530E3365
:1025300000221A701A4B1B7883F00103DBB2002BC8
:1025400025D07B6803F500530E331B7883F001031D
:10255000DBB2002B09D17B6803F500530F331B78E6
:1025600083F00103DBB2002B11D00D4B01221A7056
:102570000C4B00221A807B6803F500530E331B7846
:10258000002B01D0012200E00022074B1A7000BF8F
:102590000C37BD465DF8047B704700BF000D00207E
:1025A000F90C0020F20C0020FF0C002080B5ACB02C
:1025B00004AF786001217868FFF776FFF0EE407A8B
:1025C00007F150030122B0EE670A4249184605F0B0
:1025D00003FA07F1380307F150013F4A184600F0AB
:1025E00027F940F23F117868FFF75EFFF0EE407A7E
:1025F00007F168030122B0EE670A3649184605F074
:10260000EBF907F1200307F1680207F138011846DA
:1026100000F075F807F1080307F120012F4A18466A
:1026200000F006F907F1200318460BF0B8FA07F19D
:10263000680318460BF0B3FA07F1380318460BF09D
:10264000AEFA07F1500318460BF0A9FA7B6803F5C0
:10265000A733143307F108021946104600F018F9A1
:102660000346002B2DD007F1080207F18003114625
:1026700018460BF08DFD4FF6FF73C7F89830002316
:10268000C7F89C3007F1800207F19C03029307F121
:1026900098030193124B00931346DF2278211148CF
:1026A00001F0B3FC07F1800318460BF078FA7B6861
:1026B00003F5A733143307F10802114618460BF04F
:1026C00074FA07F1080318460BF069FA00BFA03747
:1026D000BD4680BD10000020BC9E0208C09E0208BE
:1026E000500D0020480D002080B483B000AF78600A
:1026F0007B6818460C37BD465DF8047B704790B583
:1027000087B000AFF860B9607A60B8680BF07DFA06
:10271000044678680BF079FA034623447B61B86875
:102720000BF077FA02467B699A4208D278680BF080
:1027300070FA02467B699A4201D3012300E000232C
:10274000FB74FB7C002B0AD0BA68002178680BF080
:10275000EDFB03461846FFF7C7FF034608E079681C
:10276000B8680BF01FFC03461846FFF7BDFF034691
:102770001946F8680BF0F9F9F8681C37BD4690BDAA
:1027800080B483B000AF7860052318460C37BD468F
:102790005DF8047B704790B583B000AF7860396016
:1027A000786800F086F804467868FFF7E9FF03468A
:1027B0003A681946204600F088F800BF0C37BD463D
:1027C00090BD80B483B000AF786039603B685B0037
:1027D0007A68134418460C37BD465DF8047B704791
:1027E00080B582B000AF786039607B683968184680
:1027F000FFF7E7FF034618460837BD4680BD80B4A3
:1028000083B000AF786039603B6893ED007A7B68F5
:10281000D3ED007AB4EEE77AF1EE10FA01D53B6819
:1028200000E07B6818460C37BD465DF8047B7047B6
:1028300080B584B000AFF860B9607A607968B86834
:102840000BF0CAFB03461846FFF74EFF0346194636
:10285000F8680BF08AF9F8681037BD4680BD80B47F
:1028600083B000AF786039607B6893ED007A3B6895
:10287000D3ED007AB4EEE77AF1EE10FA01D53B68B9
:1028800000E07B6818460C37BD465DF8047B704756
:1028900080B582B000AF786039603968786800F040
:1028A00028F8034683F00103DBB218460837BD461B
:1028B00080BD80B582B000AF7860786800F04EF8D7
:1028C000034618460837BD4680BD80B584B000AFCA
:1028D000F860B9607A60F86800F04DF803467A68ED
:1028E000B968184600F052F8034618461037BD463E
:1028F00080BDB0B582B000AF7860396078680BF009
:1029000084F9044638680BF080F903469C4215D1DF
:1029100078680BF008FC044638680BF004FC0546A8
:1029200078680BF072F903461A4629462046FEF7EE
:102930006DFB0346002B01D1012300E00023184664
:102940000837BD46B0BD80B483B000AF78607B6807
:1029500018460C37BD465DF8047B704780B582B0E1
:1029600000AF78607B681846FFF7EDFF0346184616
:102970000837BD4680BD80B483B000AF78607B6807
:1029800018460C37BD465DF8047B704780B487B0AD
:1029900000AFF860B9607A607B681B887B82BB6897
:1029A0007B617B69002B09D0FB687A8A1A807B697E
:1029B000013B7B61FB680233FB60F2E7FB68184672
:1029C0001C37BD465DF8047B7047000080B483B0BF
:1029D00000AF0346FB71094997F907305B0997F986
:1029E000072002F01F02012000FA02F241F8232022
:1029F00000BF0C37BD465DF8047B704700E100E086
:102A000080B483B000AF03463960FB7197F907309B
:102A1000002B0BDA0D49FB7903F00F03043B3A68F6
:102A2000D2B21201D2B20B441A7609E0084997F9E2
:102A300007303A68D2B21201D2B20B4483F80023B5
:102A400000BF0C37BD465DF8047B704700ED00E029
:102A500000E100E080B400AF5F4A5F4B1B6B43F0C6
:102A6000040313635C4A5C4B1B6B43F00803136362
:102A7000594A594B1B6B43F020031363564A564B7C
:102A80005B6C43F480135364544A544B1B6843F00B
:102A900080631360514A514B9B6843F0806393609D
:102AA0004F4A4F4B1B6843F0100313604C4A4C4B8A
:102AB0009B6843F010039360484A484B1B6843F0FF
:102AC00080731360454A454BDB6843F08073D360E5
:102AD000444A444B1B6843F400431360414A414B52
:102AE0009B6843F4404393603E4A3E4B1B6A43F06D
:102AF000A04313623B4A3B4B1B6843F40033136013
:102B0000384A384B9B6843F440339360354A354B21
:102B10005B6A43F005035362324A324B1B6843F44D
:102B2000002313602F4A2F4B9B6843F4402393608C
:102B30002C4A2C4B5B6A43F0500353622A4A2A4BBF
:102B40001B889BB243F400739BB21380264A264B2A
:102B50001B889BB243F480739BB21380224A224BA2
:102B60001B889BB243F008039BB213801E4A1E4B86
:102B70001B889BB243F004039BB213801A4A1A4B82
:102B80001B889BB243F040039BB21380124A124B46
:102B90001B6B43F480031363144A144B1B6843F00C
:102BA00060631360114A114B1B6843F400531360B8
:102BB0000E4A0E4B1B6843F4006313600B4A0B4B29
:102BC0001B6843F040031360084B094A9A6000BF3A
:102BD000BD465DF8047B704700380240000C02409F
:102BE000000802400014024000500140A06402406E
:102BF0000C50014080B400AF784A784B1B6C43F016
:102C0000010313644FF080424FF080439B889BB2D6
:102C100043F040039BB293804FF0804313221A8508
:102C20004FF080433122DA624FF0804331225A6301
:102C30004FF080424FF080431B8C9BB243F0010366
:102C40009BB213844FF080424FF080431B8B9BB2AA
:102C500043F060039BB213834FF080424FF08043F8
:102C60001B889BB243F001039BB213805B4A5B4B12
:102C70001B6B43F001031363584A584B1B6B43F023
:102C800004031363554A554B5B6C43F480735364E0
:102C9000534A534B1B6843F0C0031360514A514BD6
:102CA0001B6843F4406313604F4A4F4B5B6843F427
:102CB000807353604C4B4FF48012DA624A4A4A4B9D
:102CC0005B6B43F00D035363474A474B5B6B43F029
:102CD000A0035363444A444BDB6843F44063D3602E
:102CE000414A414B1B6943F4403313613E4A3E4B1A
:102CF0009B6843F4806393603B4A3B4B9B6843F083
:102D000080539360384A384B9B6843F0C0639360AC
:102D1000354A354B9B6843F480739360324A324B9B
:102D20009B6843F4007393602C4A2C4B1B6B43F459
:102D3000800313632D4A2D4B1B6823F0C0031360DF
:102D40002A4A2A4B1B6843F400331360274A274B57
:102D50001B6843F400631360244A244B1B6843F44C
:102D600000531360214A214B1B6823F40073136046
:102D70001E4A1E4B1B6843F4806313601B4A1B4BA7
:102D80001B6843F480731360184A184B1B6823F0C8
:102D9000C0031360154A154B5B6843F0080353608A
:102DA000124B134A9A60114B124ADA600F4A0F4BCA
:102DB0001B6823F0606313600C4A0C4B1B6843F0E4
:102DC00001031360084A084B9B6843F001039360BA
:102DD00000BFBD465DF8047B704700BF003802406D
:102DE0000008024000000240002001401064024040
:102DF0004C200140200D002080B500AF164A164B34
:102E00001B6C43F002031364144B32221A85134BDC
:102E10004FF49672DA62114A104B9B899BB243F0D1
:102E200001039BB293811D20FFF7D0FD00211D20DF
:102E3000FFF7E6FD094A094B1B889BB243F00103EB
:102E40009BB21380054A054B9B8A9BB243F001035A
:102E50009BB2938200BF80BD003802400004004056
:102E600080B500AF0E4A0E4B1B6C43F00403136495
:102E70000C4B0A221A850B4B4FF6FF72DA62094A95
:102E8000084B9B899BB243F001039BB293811E20A8
:102E9000FFF79CFD00211E20FFF7B2FD00BF80BDA3
:102EA000003802400008004080B500AF4B4A4B4B51
:102EB0001B6B43F001031363484A484B1B6B43F001
:102EC00010031363454A454B5B6C43F480435364E2
:102ED000434A434BDB6843F48043D360414A414B50
:102EE000DB6843F48033D3603E4A3E4BDB6843F4F7
:102EF0008023D3603B4A3B4BDB6843F48013D360B1
:102F0000384A384BDB6843F48003D360364A364B8B
:102F1000DB68D360354A354BDB6843F08003D36010
:102F2000324A324B1B6843F0800313602E4A2E4B0B
:102F30001B6943F0040313612C4A2C4BDB6843F4F8
:102F40008073D360294A294B1B6843F48073136054
:102F5000254A254B1B6943F040031361234A234B49
:102F6000DB6843F40073D360204A204B1B6843F4B2
:102F7000007313601C4A1C4B1B6943F4806313618C
:102F80001A4A1A4BDB6843F48063D360174A174B25
:102F90001B6843F480631360134A134B1B6943F4AB
:102FA00080431361114A114BDB6843F40063D36023
:102FB0000E4A0E4B1B6843F4006313600321172075
:102FC000FFF71EFD1720FFF701FD03212820FFF763
:102FD00017FD2820FFF7FAFC00BF80BD0038024033
:102FE000000002400010024000380140003C014057
:102FF00080B483B000AF78607B6800221A707B6871
:10300000F0225A807B684FF4A0729A807B68134A42
:10301000083392E8030083E803007B68104A10330A
:1030200092E8030083E803007B680E4A183392E8B5
:10303000030083E803007B680B4A203392E8030017
:1030400083E803007B68002283F8A8267B68184683
:103050000C37BD465DF8047B704700BFC89E020870
:10306000D09E0208D89E0208E09E020880B5FCB0FF
:1030700000AF3B1D1860E54AE44B5B8B9BB243F409
:1030800080539BB253833B1D44F62061186800F0C7
:10309000C9FBDE4ADD4B1B8B9BB243F480539BB2D2
:1030A00013833B1D44F62061186800F0BBFB07F159
:1030B0000B0301221A7007F10B023B1D1146186821
:1030C00000F0C8FB3B1D4CF25031186800F0AAFB21
:1030D00007F11803CE4A92E8030083E8030007F1E2
:1030E0002003184601F0E4F807F1200307F1180265
:1030F00007F10C0006CA01F01CF907F10C023B1D98
:103100001146186800F040FB07F10C03184601F067
:1031100031F907F12003184601F0D6F807F1300322
:10312000BC4A92E8030083E8030007F1380318461D
:1031300001F0BEF807F1380307F1300207F124006F
:1031400006CA01F0F6F807F124023B1D1146186883
:1031500000F01AFB07F12403184601F00BF907F100
:103160003803184601F0B0F807F14803AA4A92E87C
:10317000030083E8030007F15003184601F098F8B4
:1031800007F1500307F1480207F13C0006CA01F0BD
:10319000D0F807F13C023B1D1146186800F0F4FA24
:1031A00007F13C03184601F0E5F807F15003184613
:1031B00001F08AF807F16003984A92E8030083E877
:1031C000030007F16803184601F072F807F168037D
:1031D00007F1600207F1540006CA01F0AAF807F1EE
:1031E00054023B1D1146186800F0CEFA07F1540353
:1031F000184601F0BFF807F16803184601F064F8BB
:1032000007F17803864A92E8030083E8030007F198
:103210008003184601F04CF807F1800307F17802AB
:1032200007F16C0006CA01F084F807F16C023B1D3F
:103230001146186800F0A8FA07F16C03184601F06F
:1032400099F807F18003184601F03EF807F1900362
:10325000744A92E8030083E8030007F198031846D4
:1032600001F026F807F1980307F1900207F18400B6
:1032700006CA01F05EF807F184023B1D114618688A
:1032800000F082FA07F18403184601F073F807F1A1
:103290009803184601F018F807F1A803624A92E86B
:1032A000030083E8030007F1B003184601F000F8BB
:1032B00007F1B00307F1A80207F19C0006CA01F06C
:1032C00038F807F19C023B1D1146186800F05CFAC3
:1032D00007F19C03184601F04DF807F1B0031846BA
:1032E00000F0F2FF07F1C003504A92E8030083E8C0
:1032F000030007F1C803184600F0DAFF07F1C8031E
:1033000007F1C00207F1B40006CA01F012F807F194
:10331000B4023B1D1146186800F036FA07F1B403F9
:10332000184601F027F807F1C803184600F0CCFF53
:1033300007F1D8033E4A92E8030083E8030007F14F
:10334000E003184600F0B4FF07F1E00307F1D802EC
:1033500007F1CC0006CA00F0ECFF07F1CC023B1DE0
:103360001146186800F010FA07F1CC03184601F076
:1033700001F807F1E003184600F0A6FF07F1F0039B
:103380002C4A92E8030083E8030007F1F80318468B
:1033900000F08EFF07F1F80307F1F00207F1E400F7
:1033A00006CA00F0C6FF07F1E4023B1D114618688B
:1033B00000F0EAF907F1E403184600F0DBFF07F13B
:1033C000F803184600F080FF1B4A07F5847392E863
:1033D000030083E8030007F58873184600F068FFD0
:1033E00007F5887307F1FC0007F5847206CA00F040
:1033F000A0FF07F1FC023B1D1146186800F0C4F95C
:1034000007F1FC03184600F0B5FF17E0000C02407E
:10341000E89E0208F09E0208F89E0208009F02083B
:10342000089F0208109F0208189F0208209F0208A8
:10343000289F0208309F0208389F020807F588730A
:10344000184600F041FFC64A07F5907392E8030062
:1034500083E8030007F59473184600F029FF07F589
:10346000947307F58A7007F5907206CA00F061FF41
:1034700007F58A723B1D1146186800F085F907F5BB
:103480008A73184600F076FF07F59473184600F02B
:103490001BFFB44A07F59C7392E8030083E803001E
:1034A00007F5A073184600F003FF07F5A07307F5B2
:1034B000967007F59C7206CA00F03BFF07F59672FE
:1034C0003B1D1146186800F05FF907F59673184622
:1034D00000F050FF07F5A073184600F0F5FEA24A71
:1034E00007F5A87392E8030083E8030007F5AC73BF
:1034F000184600F0DDFE07F5AC7307F5A27007F57E
:10350000A87206CA00F015FF07F5A2723B1D11460E
:10351000186800F039F907F5A273184600F02AFF81
:1035200007F5AC73184600F0CFFE904A07F5B47368
:1035300092E8030083E8030007F5B873184600F02B
:10354000B7FE07F5B87307F5AE7007F5B47206CA93
:1035500000F0EFFE07F5AE723B1D1146186800F053
:1035600013F907F5AE73184600F004FF07F5B873BA
:10357000184600F0A9FE7E4A07F5C07392E80300E2
:1035800083E8030007F5C473184600F091FE07F5C1
:10359000C47307F5BA7007F5C07206CA00F0C9FE19
:1035A00007F5BA723B1D1146186800F0EDF807F5F3
:1035B000BA73184600F0DEFE07F5C473184600F033
:1035C00083FE6C4A07F5CC7392E8030083E803009E
:1035D00007F5D073184600F06BFE07F5D07307F5BA
:1035E000C67007F5CC7206CA00F0A3FE07F5C672D6
:1035F0003B1D1146186800F0C7F807F5C67318465A
:1036000000F0B8FE07F5D073184600F05DFE5A4A88
:1036100007F5D87392E8030083E8030007F5DC732D
:10362000184600F045FE07F5DC7307F5D27007F584
:10363000D87206CA00F07DFE07F5D2723B1D114616
:10364000186800F0A1F807F5D273184600F092FE52
:1036500007F5DC73184600F037FE484A07F5E473B7
:1036600092E8030083E8030007F5E873184600F0CA
:103670001FFE07F5E87307F5DE7007F5E47206CA6A
:1036800000F057FE07F5DE723B1D1146186800F08A
:103690007BF807F5DE73184600F06CFE07F5E8735B
:1036A000184600F011FE364A07F5F07392E8030061
:1036B00083E8030007F5F473184600F0F9FD07F5F9
:1036C000F47307F5EA7007F5F07206CA00F031FEF0
:1036D00007F5EA723B1D1146186800F055F807F52A
:1036E000EA73184600F046FE07F5F473184600F03A
:1036F000EBFD112387F8EB3107F2EB123B1D11466E
:10370000186800F0A7F83B1D1E49186800F08AF8F9
:10371000292387F8EC3107F5F6723B1D114618682E
:1037200000F098F82C2387F8ED3107F2ED123B1DDD
:103730001146186800F08EF83B1D0321186800F050
:103740002BF90023A7F8EE3107F5F7723B1D114660
:10375000186800F079F900BF07F5F877BD4680BD1D
:10376000409F0208489F0208509F0208589F020885
:10377000609F0208689F0208709F0208789F0208F5
:10378000809F020840420F0090B585B000AF78607E
:103790003960214B5B68002B06D1204B1B899BB203
:1037A00003F00203002B01D1012300E00023002BD2
:1037B00000D0EEE70021386800F0F7FD0346194617
:1037C000786800F047F8164A154B1B8B9BB243F400
:1037D00000539BB213830123FB73FC7B386800F01A
:1037E000F3FD03469C4234BF01230023DBB2002BD0
:1037F0000ED0FB7B1946386800F0D7FD03461B78D6
:103800001946786800F0C4FCFB7B0133FB73E4E7E6
:1038100000BF1437BD4690BDA06402400050014077
:10382000000C024080B483B000AF786039603B6820
:10383000002B14BF01230023DBB2002B03D03B6815
:10384000013B3B60F3E700BF0C37BD465DF8047BEE
:103850007047000080B582B000AF78603960114BCE
:103860005B68002B06D1104B1B899BB203F002034F
:10387000002B01D1012300E00023002B00D0EEE754
:103880000A4A0A4B5B8B9BB243F400539BB25383AF
:103890003B681B781946786800F07AFC00BF08374F
:1038A000BD4680BDA064024000500140000C0240B3
:1038B00080B582B000AF78603960094A084B1B8B35
:1038C0009BB243F400539BB213833B681B781946A9
:1038D000786800F05DFC00BF0837BD4680BD00BFC2
:1038E000000C024080B582B000AF786039600D4AAC
:1038F0000C4B1B8B9BB243F400539BB213833B686E
:103900001B881B12DBB21946786800F041FC3B684B
:103910001B88DBB21946786800F03AFC00BF083714
:10392000BD4680BD000C024080B586B000AFF86097
:10393000084611461A4603467B810B463B811346D7
:10394000FB802A23BB7507F116031946F868FFF7B9
:1039500081FF07F10A031946F868FFF7C3FFBB1D93
:103960001946F868FFF7BEFF2B23FB7507F1170315
:103970001946F868FFF76EFF07F108031946F86863
:10398000FFF7B0FF07F12001F868FFF7ABFF00BFBA
:103990001837BD4680BD000080B584B000AF7860A8
:1039A0000B46FB703623FB7207F10B031946786850
:1039B000FFF750FFFB78032B2AD801A252F823F01F
:1039C000D1390008E1390008F1390008013A00084E
:1039D00058233B7307F10C0319467868FFF768FF1B
:1039E00088237B7307F10D0319467868FFF760FFA2
:1039F0002823BB7307F10E0319467868FFF758FFB9
:103A0000E823FB7307F10F0319467868FFF750FFAF
:103A10007B68FA781A70FB78002B02D0FB78012BB8
:103A200007D17B68F0225A807B684FF4A0729A809D
:103A300006E07B684FF4A0725A807B68F0229A807F
:103A400000BF1037BD4680BD80B584B002AF78603E
:103A500039607B685B88013B99B27B689B88013B3E
:103A60009BB23A68019200930B46002200217868CD
:103A700000F004F800BF0837BD4680BD80B58AB0AD
:103A800002AFF860084611461A4603467B810B4692
:103A90003B811346FB80FA887B89D31A0133398D29
:103AA0003A898A1A013202FB03F3FB61F8883A89EA
:103AB00079893B8D00930346F868FFF735FF2C2387
:103AC000BB7507F116031946F868FFF7C3FE224AD3
:103AD000214B1B8B9BB243F400539BB213830123F6
:103AE000FB7507F117031946F86800F01FFBFB6927
:103AF0004FF6FF72934228BF13469BB23B8307F1F8
:103B000018031A46F96AF86800F08AFBFB69B3F5F6
:103B1000803F1CD3114B5B68002B06D1104B1B89D7
:103B20009BB203F00203002B01D1012300E000232C
:103B3000002B00D0EEE7FB699BB201339BB27B8385
:103B400007F11A031A46F96AF86800F069FB00BF2A
:103B50002037BD4680BD00BF000C0240A06402407B
:103B60000050014080B588B002AFF86008461146A9
:103B70001A4603467B810B463B811346FB80FA883D
:103B80007B89D31A0133398C3A898A1A013202FBB4
:103B900003F37B61F8883A8979893B8C009303466B
:103BA000F868FFF7C1FE2C23BB7407F11203194616
:103BB000F868FFF74FFE194A184B1B8B9BB243F472
:103BC00000539BB213830123FB7407F113031946BF
:103BD000F86800F0ABFA124B4FF47412DA60114A35
:103BE000104B1B6843F4806313600E4A7B6953607B
:103BF0000C4A7B6AD3600B4A0A4B1B6843F00103F3
:103C00001360094A084B9B889BB243F002039BB2A6
:103C1000938000BF1837BD4680BD00BF000C024036
:103C200000640240A06402400050014080B588B0AA
:103C300002AFF8607B600B467B8113463B8178893D
:103C40003A8979893B8900930346F868FFF76CFE4F
:103C50002C23FB7507F117031946F868FFF7FAFDE7
:103C60007968F868FFF73EFE00BF1837BD4680BD93
:103C700080B58AB002AFF860084611461A4603467E
:103C80007B810B463B811346FB807B89FA68528817
:103C9000934203DBFB685B88013B7B81FB88FA680E
:103CA0005288934203DBFB685B88013BFB803B89C6
:103CB000FA689288934203DBFB689B88013B3B8157
:103CC0003B8DFA689288934203DBFB689B88013B3B
:103CD0003B857A89FB889A4205DD7B89BB83FB881B
:103CE0007B81BB8BFB803A893B8D9A4205DD3B890A
:103CF000BB833B8D3B81BB8B3B85FA887B89D31A89
:103D00009BB27B833A8D3B89D31A9BB23B83B7F935
:103D10001A30002B03D0B7F91830002B10D1FB6AF2
:103D20001B689BB2BB82F8883A89798907F1140332
:103D300001933B8D00930346F868FFF79FFE46E032
:103D4000B7F91A20B7F918309A4206DDB7F91A30D8
:103D5000DA0F13445B101BB206E0B7F918305B4270
:103D6000DA0F13445B101BB2FB83FB6A1B689BB228
:103D7000FB8207F116033A897989F868FFF756FF45
:103D80007A89FB889A4203D13A893B8D9A421DD0A9
:103D9000B7F91E20B7F91A305B429A4207DDFA8B59
:103DA0003B8BD31A9BB2FB837B8901337B81B7F9B1
:103DB0001E20B7F918309A42D7DAFA8B7B8B13445E
:103DC0009BB2FB833B8901333B81CEE700BF2037A9
:103DD000BD4680BD90B589B002AFF8600846114677
:103DE0001A4603467B810B463B811346FB717B8958
:103DF000BA6A12781344FA685288934207DDBB6AA4
:103E00005B789AB23B8913443B8100237B8100237A
:103E10007B820023BB82BB8ABA6A527893424CDA17
:103E2000BB6A5A68FB79203BB96A497801FB03F108
:103E3000BB8A0B445B0013441B883B820023FB823C
:103E4000FB8ABA6A1278934233DA3A8AFB8A02FA18
:103E500003F303F40043002B12D0FB6893F8A83659
:103E60001C467A8AFB6A1B6898B2FB684FF4D071D3
:103E700001FB04F10A441432014623F8121011E048
:103E8000FB6893F8A8361C467A8A3B6B1B6898B28D
:103E9000FB684FF4D07101FB04F10A44143201466F
:103EA00023F812107B8A01337B82FB8A0133FB8269
:103EB000C6E7BB8A0133BB82ADE7224B5B68002BB0
:103EC00006D1214B1B899BB203F00203002B01D1C9
:103ED000012300E00023002B00D0EEE7BB6A1B7833
:103EE0009AB27B8913449BB2013B9CB2BB6A5B785C
:103EF0009AB23B8913449BB2013B9BB2FA6892F899
:103F0000A82611464FF4507202FB01F22832F968DC
:103F10000A44388979890192009323460246F86859
:103F2000FFF720FEFB6893F8A836012B14BF01238E
:103F30000023DBB21A46FB6883F8A82600BF1C37B3
:103F4000BD4690BDA06402400050014080B487B0DF
:103F500000AFF860084611461A4603467B810B46BF
:103F60003B811346FB800023BB82BB8ABA6A52782E
:103F7000934244DA3A89BB8A13449BB2FA8812FB13
:103F800003F39AB27B8913447B82BB6A5A6897F821
:103F90002430203BB96A497801FB03F1BB8A0B440A
:103FA0005B0013441B883B820023FB82FB8ABA6AB6
:103FB000127893421FDA3A8AFB8A02FA03F303F477
:103FC0000043002B08D07B8A5B003A6A1344FA6AEC
:103FD000126892B21A8007E07B8A5B003A6A134447
:103FE0003A6B126892B21A807B8A01337B82FB8A19
:103FF0000133FB82DAE7BB8A0133BB82B5E700BF3E
:104000001C37BD465DF8047B704780B58CB004AFAB
:10401000F8607B600B467B8113463B817B68FB61CC
:10402000F86909F0EDFD03467B61F86909F0EAFDE6
:1040300003463B6107F1100207F1140311461846CD
:1040400000F0D2F90346002B1FD007F114031846E5
:1040500000F0F2F9B861BB6918783A8979893B6B4D
:104060000293FB6A0193BB6A00930346F868FFF76B
:10407000B1FEBB6A1B789AB27B8913447B8107F13E
:104080001403184600F0C8F9D4E700BF2037BD4636
:1040900080BD90B58FB006AFF860084611461A464D
:1040A00003467B810B463B811346FB807B6BFB61A8
:1040B000F86909F0A5FD03467B61F86909F0A2FDE6
:1040C00003463B6107F1100207F11403114618463D
:1040D00000F08AF90346002B24D007F11403184698
:1040E00000F0AAF9B861BB691B78FC883889798926
:1040F0003A6C0492FA6B0392BA6B029201933B6B97
:10410000009323460246F868FFF720FFBB6B1B783D
:104110009AB27B8913447B8107F11403184600F09F
:104120007BF9CFE700BF2437BD4690BD80B483B094
:1041300000AF78603960154A144B1B889BB223F09E
:1041400040039BB213803B681B78012B08D10F4AB8
:104150000E4B1B889BB243F400639BB2138007E0B5
:104160000A4A0A4B1B889BB223F400639BB213805C
:10417000064A064B1B889BB243F040039BB2138058
:1041800000BF0C37BD465DF8047B7047005001400E
:1041900080B584B000AF78600B46FB701E4B5B6847
:1041A000002B06D11D4B1B899BB203F00203002B91
:1041B00001D1012300E00023002B00D0EEE7174BD4
:1041C0001B889BB203F40063002B14BF0123002360
:1041D000DBB2002B07D00023FB7307F10F03194656
:1041E0007868FFF7A3FF0D4BFA7892B29A810A4BD9
:1041F0005B68002B06D1094B1B899BB203F00203BD
:10420000002B01D1012300E00023002B00D0EEE7BA
:1042100000BF1037BD4680BDA06402400050014081
:1042200080B485B000AFF860B9607A601D4B5B6800
:10423000002B06D11C4B1B899BB203F00203002B01
:1042400001D1012300E00023002B00D0EEE7BB6882
:104250001A88FB68DA80154B4FF47412DA60114A41
:10426000104B1B6823F4806313600E4A7B681B8825
:1042700053600C4AFB680633D3600A4A094B1B683B
:1042800043F001031360084A074B9B889BB243F03D
:1042900002039BB2938000BF1437BD465DF8047BD8
:1042A000704700BFA064024000500140006402401B
:1042B00080B582B000AF7860786800F0C9F87B689C
:1042C00018460837BD4680BD80B582B000AF786023
:1042D000786800F0C8F87B6818460837BD4680BD8E
:1042E00080B483B000AF78607B681B6818460C37D9
:1042F000BD465DF8047B704780B483B000AF786042
:104300007B685B6818460C37BD465DF8047B7047D8
:1043100090B583B000AF78607868FFF7E1FF04469E
:104320007868FFF7E9FF0346234418460C37BD467B
:1043300090BDB0B586B000AFF860381D80E80600CB
:104340003B60FB683968184600F0A4F83B1D18462E
:10435000FFF7C6FF04463B1D1846FFF7D9FF02468C
:104360002B462146F86800F0BDF8FB681846183760
:10437000BD46B0BDB0B582B000AF78607B681C6848
:104380007B685D687B68184600F0DAF803461A46D9
:104390002946204600F0DFF87B68184600F089F8CF
:1043A0007B6818460837BD46B0BD80B483B000AF07
:1043B000786039607B681A683B68134418460C378C
:1043C000BD465DF8047B704780B483B000AF786071
:1043D0007B685B681A467B681B68D31A18460C37E3
:1043E000BD465DF8047B704790B583B000AF786040
:1043F0003960786800F0BDF803461C68386800F042
:10440000B8F803461B689C4214BF01230023DBB2AB
:1044100018460C37BD4690BD80B483B000AF7860BD
:104420007B681B685A1C7B681A607B6818460C37CF
:10443000BD465DF8047B704780B483B000AF786000
:104440007B681B6818460C37BD465DF8047B7047D7
:1044500080B483B000AF78607B6818460C37BD46E7
:104460005DF8047B704780B483B000AF78607B68F0
:1044700018460C37BD465DF8047B704780B582B0A6
:1044800000AF78607868FFF71FFF7B681846083731
:10449000BD4680BD80B582B000AF786039607B6872
:1044A0003968184600F070F87B6818460837BD4632
:1044B00080BD80B582B000AF78607B6819687B688A
:1044C0009B681A467B681B68D31A1A46786800F006
:1044D00072F87B681846FFF7D1FF7B6818460837EB
:1044E000BD4680BD90B587B000AFF860B9607A6016
:1044F0003B707968B86800F071F803467B61FB682F
:104500007969184600F07EF80246FB681A60FB687D
:104510001A687B691A44FB689A60FB681C68FB6830
:10452000184600F00DF8034622467968B86800F096
:104530007DF80246FB685A6000BF1C37BD4690BD3F
:1045400080B483B000AF78607B6818460C37BD46F6
:104550005DF8047B704780B584B000AFF860B96047
:104560007A60B968F86800F072F800BF1037BD468D
:1045700080BD80B483B000AF78607B6818460C378C
:10458000BD465DF8047B704780B582B000AF7860AF
:1045900039603968786800F067F87B6800221A6033
:1045A0007B6800225A607B6800229A607B6818460C
:1045B0000837BD4680BD80B584B000AFF860B960F3
:1045C0007A60BB68002B05D0FB687A68B96818462A
:1045D00000F058F800BF1037BD4680BDB0B584B0BC
:1045E00000AF786039607C683B1D184600F059F8D0
:1045F0002A463968204600F05EF803461846103710
:10460000BD46B0BD80B582B000AF786039603B6810
:10461000002B06D07B683968184600F05BF803462B
:1046200000E0002318460837BD4680BD80B584B041
:1046300000AFF860B9607A603B607A68B968F86882
:1046400000F057F8034618461037BD4680BD80B5C8
:1046500082B000AF786039603968786800F05BF844
:1046600000BF0837BD4680BD80B582B000AF78601E
:1046700039603968786800F059F87B68184608375F
:10468000BD4680BD80B584B000AFF860B9607A6087
:104690007A68B968F86800F055F800BF1037BD4671
:1046A00080BD80B483B000AF786018460C37BD463B
:1046B0005DF8047B704780B485B000AFF860B960E6
:1046C0003A71BA68FB68D31A18461437BD465DF8CC
:1046D000047B704780B582B000AF786039600022FB
:1046E0003968786800F03BF8034618460837BD463D
:1046F00080BD80B586B000AFF860B9607A600123F4
:10470000FB757A68B968F86800F045F80346184602
:104710001837BD4680BD80B483B000AF7860396083
:1047200000BF0C37BD465DF8047B704780B483B092
:1047300000AF786039607B6818460C37BD465DF87D
:10474000047B704780B584B000AFF860B9607A60D0
:10475000B86803F08AFA00BF1037BD4680BD80B547
:1047600084B000AFF860B9607A60F86800F023F8B0
:104770000246BB689A4234BF01230023DBB2002B00
:1047800001D010F04EFDB86803F076FA03461846E3
:104790001037BD4680BD80B584B000AFF860B96009
:1047A0007A607A68B968F86800F011F8034618462C
:1047B0001037BD4680BD80B483B000AF78604FF045
:1047C000FF3318460C37BD465DF8047B704790B543
:1047D00085B000AFF860B9607A60F86800F00FF853
:1047E0000446B86800F00BF803467A68194620467C
:1047F00000F010F8034618461437BD4690BD80B44B
:1048000083B000AF78607B6818460C37BD465DF812
:10481000047B7047B0B584B000AFF860B9607A60CF
:10482000F86800F013F80446B86800F00FF8054681
:10483000786800F016F803461A462946204600F02C
:104840001BF8034618461037BD46B0BD80B483B090
:1048500000AF78607B6818460C37BD465DF8047B76
:10486000704780B483B000AF78607B6818460C371F
:10487000BD465DF8047B704780B586B000AFF86038
:10488000B9607A600123FB757A68B968F86800F04E
:1048900005F8034618461837BD4680BD80B586B07A
:1048A00000AFF860B9607A60BA68FB68D31A7B61C0
:1048B0007B69002B05D07B691A46F96878681EF081
:1048C000E5FE7B697A68134418461837BD4680BDFB
:1048D00080B483B000AF786039603B6818460C370D
:1048E000BD465DF8047B704790B583B000AF934A36
:1048F000924B1B8A9BB223F001039BB21382904B15
:104900001B78012B04D08E4B1B78022B40F08D803E
:104910008C4B03F500531A888B4B1B889BB29A4231
:1049200006D18A4B1B78DBB2002B01D0012300E0BB
:104930000023002B0DD0864B1B78DBB21A46814B2F
:10494000134403F500530E3301221A707F4B0022EB
:104950001A707E4B1B78DBB2002B00F0BE82794BC5
:1049600003F5005310331B78002B2BD1784B1B78A9
:10497000DBB21846744B1B889BB21946754B1B88DB
:104980009BB21A46734B9B889BB21344714A12899F
:1049900092B213446F4A928992B2134407EE903A4E
:1049A000B8EEE77AF1EE006AC7EE267A9FED6A7AF2
:1049B00077EE677A634A83020B449B001344C3ED8E
:1049C000007A2AE0624B1B78DBB218465E4B1B88EC
:1049D0009BB219465F4B5B889BB21A465D4BDB88E6
:1049E0009BB213445B4A528992B21344594AD2890A
:1049F00092B2134407EE903AB8EEE77AF1EE006A0D
:104A0000C7EE267A9FED547A77EE677A4D4A830295
:104A10000B449B001344C3ED007A4B4B1B889BB2A5
:104A200001339AB2484B1A8057E2454B1B78032B4F
:104A300040F0D680474B1B889AB2464B9B889BB26E
:104A400013449AB2434B1B899BB213449AB2414B15
:104A50009B899BB213449AB2404B1A803B4B1B7804
:104A6000DBB283F00103DBB2002B1DD03C4B1B8873
:104A70009BB2B3F5005F17DA384B1B889BB2B3F5D6
:104A8000005F11DB374B1B78DBB283F00103DBB235
:104A9000002B07D1334B5B78DBB283F00103DBB231
:104AA000002B01D0012300E00023002B1AD0274B5C
:104AB00001221A702B4B1B78DBB2002B01D0012294
:104AC00000E00022224B1A701F4B00221A80204B5C
:104AD0001B78DBB21946244801F013FA0346184646
:104AE00001F022FA194B1B78DBB2002B72D0184B65
:104AF0001B78DBB21946144B1B889BB21C46174B24
:104B00001B8898B2194A0B469B000B449B01234417
:104B1000014622F813100C4B1B889BB2002B27DD9B
:104B20000F4B1B889BB2B3F5005F21DA0B4B1B8840
:104B30009BB2B3F5005F1BDB01231AE000040040C9
:104B40000D000020F4130020F20C0020F90C0020CE
:104B5000FF0C0020200D002000E0FF44EC0C0020A2
:104B6000EE0C0020080D0020380D0020E802002087
:104B70000023002B10D0974B1B78DBB219469648C8
:104B800001F0BFF90246954B1B889BB27B603B1D31
:104B90001946104601F0E1F9904B1B889BB240F298
:104BA0003F1293420CBF01230023DBB2002B0AD03B
:104BB0008B4B00221A70874B1B78DBB21A46894B4D
:104BC0000121995406E0854B1B889BB201339AB2B0
:104BD000824B1A80844B1B889AB2844B1A807CE1EA
:104BE000834B1B78002B40F07881824B1B889AB254
:104BF000804B9B889BB213449AB27E4B1B899BB21D
:104C000013449AB27B4B9B899BB213449AB2764B66
:104C10001A80784B5B889AB2764BDB889BB2134440
:104C20009AB2744B5B899BB213449AB2714BDB8985
:104C30009BB213449AB2704B1A80694B1B78DBB25B
:104C400083F00103DBB2002B2ED06C4B1B78DBB260
:104C500083F00103DBB2002B07D15E4B1B78DAB285
:104C6000674B1B78DBB29A421ED0664B1B78DBB2D7
:104C7000002B17D1644B1B889BB21A46634B1B88D1
:104C80009A4211DD594B1B889BB21A465F4B5B88D9
:104C90009A4209DA544B1B889BB21A465B4B5B88DD
:104CA0009A4201DB012300E00023002B54D04C4B3F
:104CB00001221A70534B1B78DBB2002B14D0474BE8
:104CC00000221A80434B1B78DBB21A46504B00215E
:104CD00023F812103F4B1B78DBB21A464D4B4FF6B0
:104CE000FF7123F8121037E03A4B1B78DBB21946FC
:104CF0003A4B1B889AB2454B1B88D31A9BB21AB207
:104D0000434B23F81120334B1B78DBB21A46404B40
:104D100033F812301BB29BB2DB0BDBB2002B10D08E
:104D20002C4B1B78DBB21A461946394B33F811303D
:104D30001BB29BB203F5A0739BB219B2344B23F89C
:104D40001210244B1B78DBB21A46304B1B88013BF8
:104D500099B2304B23F81210214B1B78DBB2002B99
:104D60000DD01C4B1B78DBB21A462A4B33F812309D
:104D70009BB240F23F12934201D1012300E0002395
:104D8000002B10D0134B1B78DBB2012B14BF012377
:104D90000023DBB21A460F4B1A701B4B00221A80FD
:104DA0000F4B00221A700E4B1B78DBB2002B0FD179
:104DB000124B1B78DBB283F00103DBB2002B07D16F
:104DC000044B1B78DAB20E4B1B78DBB29A4223D02D
:104DD000012322E0FF0C0020380D0020F20C0020FF
:104DE000F90C0020080D0020EC0C0020EE0C002037
:104DF0000D000020200D0020F00C0020FA0C0020F7
:104E0000000D0020FC0C0020F60C002014000020F7
:104E1000040D00200C0D00200023002B5DD0314B31
:104E20001B78DBB21946304B1B889BB21C462F4BBC
:104E30001B8898B22E4A0B469B000B449B012344CF
:104E4000014622F81310274B1B78DBB21946264B7C
:104E50001B889BB21C46274B1B8898B2264A0B46E0
:104E60009B000B449B012344014622F813101F4B67
:104E70001B889AB2214B1A801B4B1B889BB240F2B5
:104E80003F1293420CBF01230023DBB2002B03D05F
:104E9000154B00221A8006E0134B1B889BB201338E
:104EA0009AB2114B1A80164B1B78DBB2002B0CD038
:104EB0000C4B1B78DBB2134A32F8132092B201324A
:104EC00091B2104A22F8131007E00F4B1B889BB2D7
:104ED00001339AB20C4B1A80FFE700BF0C37BD4676
:104EE00090BD00BFFF0C0020F20C0020EC0C002055
:104EF000E8020020F00C0020E8070020EE0C002063
:104F0000F90C00200C0D0020F60C002080B400AF3E
:104F1000254B1B6903F08003002B0CBF01230023EA
:104F2000DBB2002B02D0214B01221A70204B1B78E0
:104F30005BB2002B0DD11F4B1B6903F48073002B58
:104F400007D11C4B1B6903F40073002B01D0012314
:104F500000E00023002B02D0154B01221A70144BE5
:104F60001B785BB2002B0DD1124B1B6903F400734D
:104F7000002B07D10F4B1B6903F48073002B01D06A
:104F8000012300E00023002B02D0094BFF221A70FE
:104F9000094A094B5B6943F46073536100BFBD4626
:104FA0005DF8047B704700BF00000240FB0C00204E
:104FB000020D002000100240003C014080B400AF10
:104FC0001E4B1B785BB2002B0DD11D4B1B6903F4EC
:104FD0008063002B07D11A4B1B6903F40063002B7D
:104FE00001D0012300E00023002B02D0134B01224B
:104FF0001A70124B1B785BB2002B0DD1104B1B6942
:1050000003F40063002B07D10D4B1B6903F480638D
:10501000002B01D0012300E00023002B02D0074B1E
:10502000FF221A70074A074B5B6943F440635361E0
:1050300000BFBD465DF8047B704700BF010D002036
:1050400000100240003C014080B400AF084A084B09
:105050001B8A9BB223F001039BB21382054B1B6892
:105060000133044A136000BFBD465DF8047B7047FE
:1050700000080040140D002080B582B000AF344A13
:10508000334B1B889BB223F001039BB21380002398
:10509000FB80BB1D19462F48FEF7D6FC2E4B1B7814
:1050A000012B0AD0022B0FD0002B14D12B4B002246
:1050B0001A702A4B04225A700DE0284B00221A70F5
:1050C000264B05225A7006E0244B00221A70234B0F
:1050D00006225A7000BF214802F00EF9204B002230
:1050E0001A70204B00221A701F4B00221A800021D8
:1050F0001E4B0A461A801E4B0A461A801D4B03F5AA
:1051000000530F3300221A701A4B03F500530F336C
:105110001A78184B03F500530E331A700E4B1B7898
:10512000012B02D14FF4806201E04FF40072114B69
:1051300003F500531A80064A054B1B889BB243F0C7
:1051400001039BB2138000BF0837BD4680BD00BF7E
:1051500000040040480D00200D0000201000002039
:10516000FA0C0020F90C0020EE0C0020F20C0020BC
:10517000F60C0020F413002080B588B000AFF86072
:10518000B960FB681B889BB207EE903AB8EEE77AED
:10519000264BD3ED007A27EE277A254B1B881BB2CE
:1051A00007EE903AF8EEE77A37EE277ADFED216ADC
:1051B000C7EE267AB6EE007A37EEC77A1E4B1B781A
:1051C0005BB207EE903AF8EEE76AB2EE006AC6EE1E
:1051D000267A67EE277AB6EE007A77EE877A9FED29
:1051E000177A67EE877AC7ED057A154BBB6107F131
:1051F000180207F1140311461846FDF700FB02469A
:105200004FF07E53FB6107F11C0319461046FDF772
:1052100026FB0346D3ED007AFCEEE77AC7ED017A70
:10522000BB889BB218462037BD4680BD08000020D1
:1052300004000020000080460C00002000005743BE
:105240000000564300000000B0B5CCB004AF01F040
:1052500017FF01F04BFFFDF703FEFDF7FBFBFDF72A
:10526000C9FCFDF721FE3D48FDF700FFFDF7C4FD39
:10527000FFF702FF3A4802F03FF800213948FDF7F6
:10528000AFFA03461A88384B1A80354802F02EFAD6
:10529000364B1B78012B03D0344B1B78022B3AD1B1
:1052A00000213348FDF732F9314B03F500530E333B
:1052B0001B78002B07D12E4B03F500530F331B78BF
:1052C000002B00F085852A4B03F500530E331B7825
:1052D000002B01D0002200E00122264B1A70234B44
:1052E0001B78012B0BD1234B1B78DBB21B03204A0D
:1052F000134419461E48FBF74FFF00F069BD1D4BD4
:105300001B78DBB21B031A4A134419461848FBF7F3
:105310007DFF00F05DBD154B1B78032B40F08181B4
:10532000154B1B78DBB283F00103DBB2002B0BD0F3
:10533000124B1B78DBB2002B04D1104B5B78DBB235
:10534000002B01D0012300E00023002B29D00B4BC0
:105350001B78DBB2002B13D0002212E0480D002096
:1053600010000020F8330020347C01200D000020C4
:10537000F4130020000D0020FA0C0020080D00207E
:105380000122B74B1A70B74B01221A70B64B00229C
:105390001A803B4600221A803B461946B348FEF766
:1053A00053FBB04B1B78DBB2002B3FF466AFAE4B28
:1053B0001B889BB21846FBF7CFF8A5A3D3E90023BF
:1053C000FBF730F903460C4625461C46A44B1B78D8
:1053D000DBB21946A64800F094FD034600211846AA
:1053E00000F0CCFD03461B681846FBF7B5F80246F3
:1053F0000B4620462946FBF73FFA03460C46184663
:10540000214695A3D3E90023FAF758FF03460C463B
:1054100018462146FBF7FEFB0246964B1A60904B5E
:105420001B78DBB21946924800F06BFD0346002161
:10543000184600F0A3FD03461B68C7F818318D4BD2
:105440001B681846FBF79AF803460C4644EC103BE1
:105450001BF036FB54EC103B18462146FBF7DAFBF9
:1054600007EE100ADFED847A67EE277A9FED837AE4
:1054700077EE877AFDEEE77A17EE903AC7F81431A7
:10548000774B1B78DBB21A46774B1B889BB21946C9
:1054900013469B0013449B010B445B00784A1A445B
:1054A000784B1B78DBB299B2BB1C1980BB1C194628
:1054B0001046FFF761FE0346C7F810316A4B1B88A0
:1054C0009BB2002B0CBF01230023DBB2002B09D0C1
:1054D000D7F810319AB26C4B1A80D7F814319AB2BF
:1054E0006A4B1A80D7F8143198B2D7F810319CB2B1
:1054F000D7F814319DB2644B1B889BB23A1D4FF410
:10550000FC6111603A1D019200932B462246014630
:105510005648FEF7ADFBD7F810319AB25A4B1A80B5
:10552000D7F814319AB2594B1A804F4B1B889BB253
:1055300001339AB24C4B1A804B4B1B889BB2B3F58C
:10554000A07F0CBF01230023DBB2002B3FF495AEFC
:10555000444B00221A70424B1B78DBB21A464C4B6C
:10556000002199543E4B1B78DBB21946404800F0AD
:10557000C8FC03460021184600F000FD03461B68E6
:10558000002B0CBF01230023DBB2002B04D0414AC7
:10559000404BDB6A3233D362314B1B78DBB21946A6
:1055A000334800F0AEFC03460021184600F0E6FC4C
:1055B00003461B68632BD4BF01230023DBB2002BFF
:1055C00005D0344A334BDB6A1E3BD36219E0244BCF
:1055D0001B78DBB21946264800F093FC03460021F5
:1055E000184600F0CBFC03461B68C72BD4BF012331
:1055F0000023DBB2002B04D0264A264BDB6A0A3B91
:10560000D362174B1B78DBB21946194800F079FCBE
:1056100003460021184600F0B1FC02460023136047
:105620002BE61D4B1B78002B7FF427AE0D4B1B7810
:10563000DBB283F00103DBB2002B31D0174B1B78B8
:10564000DBB2002B2CD001232BE000BFAFF3008096
:10565000182D4454FB211940CDCCCCCCCCCCDC3F14
:10566000000D0020FA0C0020F40C0020480D002052
:10567000380D0020440D002000008C420000204323
:10568000E8020020FD0C0020E80C0020EA0C0020BD
:10569000080D0020000400400D000020F90C00203F
:1056A0000023002B0AD0884B1B78DAB2874B1A7084
:1056B000874B01221A70874B00221A80844B1B787B
:1056C000DBB2002B17D0814B1B78DAB27E4B1B78F4
:1056D000DBB29A420DD17C4B1B78DBB21A467E4B73
:1056E00033F812309BB21A467A4B1B889BB29A420F
:1056F00001DB012300E00023002B3FF4BEAD774A1D
:10570000764B9B8A9BB243F001039BB29382734A10
:10571000724B1B889BB243F001039BB21380704B0A
:1057200000221A606B4B1B8899B26A4B1B889BB294
:105730001A2B04DD674B1B889BB2FA2B01DD0B2073
:1057400000E00020634B1B889CB2624B1B889BB21D
:105750001A2B01DCCD2300E0D72307F10A02002534
:10576000158007F10A0201920093234602465D4824
:10577000FEF784F9554B1B78DBB21A465A4B33F8C7
:1057800012301BB21A46534B1B889BB21A44574B1C
:1057900083FB0213D911D317C91A0B469B000B4484
:1057A0009B01D11A0B46A7F80E31484B1B78DBB290
:1057B0001946B7F80E210B469B000B449B0113447E
:1057C0005B004B4A1A444B4B1B78DBB299B207F192
:1057D0000C03198007F10C0319461046FFF7CCFCA7
:1057E0000346A7F80C31394B1B78DBB21946B7F8E2
:1057F0000E210B469B000B449B0113445B003E4A69
:105800001A443E4B1B78DBB299B207F10E031980A4
:1058100007F10E0319461046FFF7AEFC0346A7F842
:105820000A312C4B1B889BB2002B0CBF0123002399
:10583000DBB2002B0DD0324AB7F80C311380314A5D
:10584000B7F80A311380304B00221A702F4B002218
:105850001A802D4B1B78DBB283F00103DBB2002BE7
:1058600013D01A4B1B78DBB21846B7F80E2120492B
:1058700003469B0003449B01134431F813309BB251
:10588000B3F5005F01DA012300E00023002B02D012
:105890001D4B01221A701C4B1B78DBB2002B37D03A
:1058A0000A4B1B78DBB21846B7F80E2110490346A5
:1058B0009B0003449B01134431F813309BB2B3F5B2
:1058C000005F25DB012324E0FF0C0020000D0020F9
:1058D000FA0C0020F40C00200C0D00200008004001
:1058E000140D0020480D0020040D00206766666638
:1058F000E8020020FD0C0020E8070020FE0C00203C
:10590000E80C0020EA0C0020F80C0020300D0020EC
:105910000023002B4ED0514B1B889BB2002BCCBFD9
:1059200001230023DBB2002B3CD04D4BD3ED007A9A
:10593000B2EE0E7A27EE877A4A4B1B889BB21A4644
:10594000464B1B889BB2D31A07EE903AF8EEE77AE3
:1059500077EEA76A444B1B8D9BB2013307EE903A5A
:10596000F8EEE77A66EEA76A3F4BDB6A013307EE93
:10597000903AF8EE677A26EEA76A3C4B1B6807EE72
:10598000903AF8EE677AC6EE276AB7EE006AC6EE7E
:10599000267A37EE277AF3EE006AC7EE267A304B86
:1059A000C3ED007A2F4B1B889AB22C4B1A80304BD8
:1059B00000221A702B4B1B889BB203F00303002BB1
:1059C0000CBF01230023DBB2002B0DD0254B1B881D
:1059D00099B207F1100345F28A221A8007F11003E9
:1059E0006B222448FEF722F91E4B1B889BB2042B26
:1059F000D4BF01230023DBB2002B3FD00023C7F824
:105A00001C311D4B1B785BB25A00D7F81C319A42EF
:105A1000CCBF01230023DBB2002B2FD0114B1B88FE
:105A200099B2D7F81C31D72202FB03F2124B1B7834
:105A30005BB25B0092FBF3F39AB207F1120345F2FB
:105A40008A20188007F112030A48FEF7EFF8D7F80A
:105A50001C310133C7F81C31D3E700BF300D0020E3
:105A6000340D0020F40C0020000400401800002039
:105A7000F80C0020480D00200C000020BD4B1B88B6
:105A800098B2BC4B1B889CB2BB4B1B889BB207F1E6
:105A900014024FF4FC611160B7F80C1107F1140205
:105AA0000192009323460A460146B448FEF7E0F807
:105AB000B04B1B8898B2AF4B1B889CB2B04B1B8875
:105AC0009BB207F1180240F21D511160B7F80A119C
:105AD00007F118020192009323460A460146A7489F
