:020000040800F2
:1000000000000320513D0008A33D0008B13D000859
:10001000B73D0008BD3D0008C33D000800000000DA
:10002000000000000000000000000000C93D0008C2
:10003000D73D000800000000E53D0008F33D000842
:10004000A13D0008A13D0008A13D0008A13D000818
:10005000A13D0008A13D0008A13D0008A13D000808
:10006000A13D0008A13D0008A13D0008350E000893
:10007000490E00085D0E0008710E0008850E00088C
:10008000990E0008AD0E0008A13D0008A13D000832
:10009000A13D0008A13D0008A13D0008D12E0008A7
:1000A000A13D0008A13D0008A13D0008A13D0008B8
:1000B000A13D0008552A0008C92F0008A13D0008ED
:1000C000A13D0008A13D0008A13D0008A13D000898
:1000D000A13D0008A13D0008A13D0008A13D000888
:1000E000A13D0008A13D0008A13D0008A13D000878
:1000F000A13D0008A13D0008A13D0008C10E000877
:10010000A13D0008A13D0008A13D0008A13D000857
:10011000A13D0008A13D0008A13D0008A13D000847
:10012000D50E0008E90E0008FD0E0008110F0008AA
:10013000250F0008A13D0008A13D0008A13D0008D1
:10014000A13D0008A13D0008A13D0008A13D000817
:10015000390F00084D0F0008610F0008A13D00088D
:10016000A13D0008A13D0008A13D0008A13D0008F7
:10017000A13D0008A13D0008A13D0008A13D0008E7
:10018000A13D0008A13D0008A13D0008A13D0008D7
:10019000A13D0008A13D0008A13D0008A13D0008C7
:0C01A000A13D0008A13D0008A13D0008A1
:1001B00010B5054C237833B9044B13B10448AFF3A1
:1001C00000800123237010BD840000200000000087
:1001D000A067000808B5034B1BB103490348AFF300
:1001E000008008BD0000000088000020A067000813
:1001F00081F0004102E000BF83F0004330B54FEAD8
:1002000041044FEA430594EA050F08BF90EA020F44
:100210001FBF54EA000C55EA020C7FEA645C7FEAD7
:10022000655C00F0E2804FEA5454D4EB5555B8BFFA
:100230006D420CDD2C4480EA020281EA030382EA6B
:10024000000083EA010180EA020281EA0303362DFD
:1002500088BF30BD11F0004F4FEA01314FF4801CD0
:100260004CEA113102D0404261EB410113F0004FE2
:100270004FEA03334CEA133302D0524263EB430399
:1002800094EA050F00F0A780A4F10104D5F1200E37
:100290000DDB02FA0EFC22FA05F2801841F1000192
:1002A00003FA0EF2801843FA05F359410EE0A5F166
:1002B00020050EF1200E012A03FA0EFC28BF4CF097
:1002C000020C43FA05F3C01851EBE37101F000454D
:1002D00007D54FF0000EDCF1000C7EEB00006EEB5A
:1002E0000101B1F5801F1BD3B1F5001F0CD34908E4
:1002F0005FEA30004FEA3C0C04F101044FEA44523B
:1003000012F5800F80F09A80BCF1004F08BF5FEAC1
:10031000500C50F1000041EB045141EA050130BDA1
:100320005FEA4C0C404141EB010111F4801FA4F144
:100330000104E9D191F0000F04BF01460020B1FA99
:1003400081F308BF2033A3F10B03B3F120020CDAD1
:100350000C3208DD02F1140CC2F10C0201FA0CF0AF
:1003600021FA02F10CE002F11402D8BFC2F1200C14
:1003700001FA02F120FA0CFCDCBF41EA0C019040CA
:10038000E41AA2BF01EB0451294330BD6FEA040413
:100390001F3C1CDA0C340EDC04F11404C4F12002FE
:1003A00020FA04F001FA02F340EA030021FA04F310
:1003B00045EA030130BDC4F10C04C4F1200220FA67
:1003C00002F001FA04F340EA0300294630BD21FAA5
:1003D00004F0294630BD94F0000F83F4801306BF6B
:1003E00081F480110134013D4EE77FEA645C18BF5F
:1003F0007FEA655C29D094EA050F08BF90EA020FF6
:1004000005D054EA000C04BF1946104630BD91EAED
:10041000030F1EBF0021002030BD5FEA545C05D1F0
:100420004000494128BF41F0004130BD14F580042F
:100430003CBF01F5801130BD01F0004545F0FE41A3
:1004400041F470014FF0000030BD7FEA645C1ABFD8
:10045000194610467FEA655C1CBF0B46024650EA0F
:10046000013406BF52EA033591EA030F41F400213B
:1004700030BD00BF90F0000F04BF0021704730B5C1
:100480004FF4806404F132044FF000054FF0000196
:1004900050E700BF90F0000F04BF0021704730B557
:1004A0004FF4806404F1320410F0004548BF40422C
:1004B0004FF000013EE700BF42004FEAE2014FEA81
:1004C00031014FEA02701FBF12F07F4393F07F4F5C
:1004D00081F06051704792F0000F14BF93F07F4F8E
:1004E000704730B54FF4607401F0004521F00041D1
:1004F00020E700BF50EA010208BF704730B54FF057
:1005000000050AE050EA010208BF704730B511F05B
:10051000004502D5404261EB41014FF4806404F193
:1005200032045FEA915C3FF4DCAE4FF003025FEA15
:10053000DC0C18BF03325FEADC0C18BF033202EB9D
:10054000DC02C2F1200300FA03FC20FA02F001FAF7
:1005500003FE40EA0E0021FA02F11444C1E600BF96
:1005600070B54FF0FF0C4CF4E06C1CEA11541DBF49
:100570001CEA135594EA0C0F95EA0C0F00F0DEF814
:100580002C4481EA030621EA4C5123EA4C5350EAF9
:10059000013518BF52EA033541F4801143F480134A
:1005A00038D0A0FB02CE4FF00005E1FB02E506F0DB
:1005B0000042E0FB03E54FF00006E1FB03569CF030
:1005C000000F18BF4EF0010EA4F1FF04B6F5007F36
:1005D00064F5407404D25FEA4E0E6D4146EB0606A8
:1005E00042EAC62141EA55514FEAC52040EA5E5031
:1005F0004FEACE2EB4F1FD0C88BFBCF5E06F1ED8DB
:10060000BEF1004F08BF5FEA500E50F1000041EB11
:10061000045170BD06F0004646EA010140EA0200BE
:1006200081EA0301B4EB5C04C2BFD4EB0C0541EAE0
:10063000045170BD41F480114FF0000E013C00F3F5
:10064000AB8014F1360FDEBF002001F0004170BD19
:10065000C4F10004203C35DA0C341BDC04F1140432
:10066000C4F1200500FA05F320FA04F001FA05F2BE
:1006700040EA020001F0004221F0004110EBD3708B
:1006800021FA04F642EB06015EEA430E08BF20EAB7
:10069000D37070BDC4F10C04C4F1200500FA04F35A
:1006A00020FA05F001FA04F240EA020001F00041EC
:1006B00010EBD37041F100015EEA430E08BF20EA5F
:1006C000D37070BDC4F1200500FA05F24EEA020EA7
:1006D00020FA04F301FA05F243EA020321FA04F0D6
:1006E00001F0004121FA04F220EA020000EBD3708D
:1006F0005EEA430E08BF20EAD37070BD94F0000F8D
:100700000FD101F00046400041EB010111F4801FC0
:1007100008BF013CF7D041EA060195F0000F18BF71
:10072000704703F00046520043EB030313F4801FAD
:1007300008BF013DF7D043EA0603704794EA0C0F67
:100740000CEA135518BF95EA0C0F0CD050EA41067D
:1007500018BF52EA4306D1D181EA030101F00041FA
:100760004FF0000070BD50EA410606BF1046194622
:1007700052EA430619D094EA0C0F02D150EA01362E
:1007800013D195EA0C0F05D152EA03361CBF10466F
:1007900019460AD181EA030101F0004141F0FE410E
:1007A00041F470014FF0000070BD41F0FE4141F492
:1007B000780170BD70B54FF0FF0C4CF4E06C1CEA92
:1007C00011541DBF1CEA135594EA0C0F95EA0C0F47
:1007D00000F0A7F8A4EB050481EA030E52EA033502
:1007E0004FEA013100F088804FEA03334FF0805523
:1007F00045EA131343EA12634FEA022245EA111550
:1008000045EA10654FEA00260EF000419D4208BF00
:10081000964244F1FD0404F5407402D25B084FEAAD
:100820003202B61A65EB03055B084FEA32024FF459
:1008300080104FF4002CB6EB020E75EB030E22BFB6
:10084000B61A754640EA0C005B084FEA3202B6EB76
:10085000020E75EB030E22BFB61A754640EA5C0025
:100860005B084FEA3202B6EB020E75EB030E22BFB5
:10087000B61A754640EA9C005B084FEA3202B6EBB6
:10088000020E75EB030E22BFB61A754640EADC0075
:1008900055EA060E18D04FEA051545EA16754FEAD7
:1008A00006164FEAC30343EA52734FEAC2025FEAF5
:1008B0001C1CC0D111F4801F0BD141EA00014FF084
:1008C00000004FF0004CB6E711F4801F04BF014355
:1008D0000020B4F1FD0C88BFBCF5E06F3FF6AFAE71
:1008E000B5EB030C04BFB6EB020C5FEA500C50F101
:1008F000000041EB045170BD0EF0004E4EEA113184
:1009000014EB5C04C2BFD4EB0C0541EA045170BD8A
:1009100041F480114FF0000E013C90E645EA060ECE
:100920008DE60CEA135594EA0C0F08BF95EA0C0FFC
:100930003FF43BAF94EA0C0F0AD150EA01347FF444
:1009400034AF95EA0C0F7FF425AF104619462CE71B
:1009500095EA0C0F06D152EA03353FF4FDAE10467E
:10096000194622E750EA410618BF52EA43067FF4CF
:10097000C5AE50EA41047FF40DAF52EA43057FF45F
:10098000EBAE12E74FF0FF3C06E000BF4FF0010C6A
:1009900002E000BF4FF0010C4DF804CD4FEA410CCE
:1009A0007FEA6C5C4FEA430C18BF7FEA6C5C1BD09B
:1009B00001B050EA410C0CBF52EA430C91EA030F1C
:1009C00002BF90EA020F0020704710F1000F91EA79
:1009D000030F58BF994208BF90422CBFD8176FEA47
:1009E000E37040F0010070474FEA410C7FEA6C5C15
:1009F00002D150EA013C07D14FEA430C7FEA6C5C1C
:100A0000D6D152EA033CD3D05DF8040B704700BF47
:100A10008446104662468C461946634600E000BF95
:100A200001B5FFF7B7FF002848BF10F1000F01BD67
:100A30004DF808EDFFF7F4FF0CBF012000205DF832
:100A400008FB00BF4DF808EDFFF7EAFF34BF0120B7
:100A500000205DF808FB00BF4DF808EDFFF7E0FF50
:100A600094BF012000205DF808FB00BF4DF808EDA1
:100A7000FFF7CEFF94BF012000205DF808FB00BF08
:100A80004DF808EDFFF7C4FF34BF012000205DF8EA
:100A900008FB00BF4FEA410C7FEA6C5C02D150EAD0
:100AA000013C0AD14FEA430C7FEA6C5C02D152EA66
:100AB000033C02D14FF0000070474FF00100704737
:100AC0004FEA410212F5001215D211D56FF4787376
:100AD000B3EB625212D94FEAC12343F0004343EA19
:100AE000505311F0004F23FA02F018BF40427047F4
:100AF0004FF00000704750EA013005D111F000407E
:100B000008BF6FF0004070474FF00000704700BF13
:100B10004A0011D212F5001211D20DD56FF478737C
:100B2000B3EB62520ED44FEAC12343F0004343EAD1
:100B3000505323FA02F070474FF00000704750EA1C
:100B4000013002D14FF0FF3070474FF00000704786
:100B50004FEA4102B2F1E04324BFB3F5001CDCF1DF
:100B6000FE5C0DD901F0004C4FEAC0024CEA507017
:100B7000B2F1004F40EB830008BF20F00100704746
:100B800011F0804F21D113F13872BCBF01F0004049
:100B9000704741F480114FEA5252C2F11802C2F17B
:100BA000200C10FA0CF320FA02F018BF40F00100FC
:100BB0004FEAC1234FEAD32303FA0CFC40EA0C00AE
:100BC00023FA02F34FEA4303CCE77FEA625307D1EB
:100BD00050EA01331EBF4FF0FE4040F44000704722
:100BE00001F0004040F0FE4040F40000704700BFBC
:100BF00080B485B000AF786039607B68184A934252
:100C00000AD8184BFB607A68174B1344174AA2FBAB
:100C100003231B09BB6009E0154BFB607A68154B89
:100C20001344124AA2FB03231B09BB60BB68032BBE
:100C300005D9FB680433FB60BB68043BBB60FB6801
:100C40003A6802F03D020C48B968014409788A40CC
:100C50001A6000BF1437BD465DF8047B704700BFC3
:100C60000F64024008600240F09FFDBFABAAAAAA31
:100C700008640240F09BFDBF5868000880B487B04C
:100C800000AF7860396000237B6100233B61002363
:100C9000FB607B681B4A93420AD81B4B3B617A6816
:100CA0001A4B13441A4AA2FB03231B097B6109E078
:100CB000184B3B617A68184B1344154AA2FB032377
:100CC0001B097B617B69032B05D93B6904333B61BD
:100CD0007B69043B7B613B691B68FB600F4A7B6956
:100CE00013441B781A46FB68D340FB60FB6803F093
:100CF0003D03FB60FB6818461C37BD465DF8047B6E
:100D0000704700BF0F64024000600240F09FFDBFCB
:100D1000ABAAAAAA00640240F09BFDBF5868000875
:100D200080B483B000AF786000BF0C37BD465DF87B
:100D3000047B704780B483B000AF786000BF0C378D
:100D4000BD465DF8047B704780B483B000AF786027
:100D500000BF0C37BD465DF8047B704780B483B09C
:100D600000AF786000BF0C37BD465DF8047B70476C
:100D700080B483B000AF786000BF0C37BD465DF82B
:100D8000047B704780B584B000AF78603D217868FF
:100D9000FFF774FF0346FB813D217868FFF728FFCA
:100DA000FB8903F02003002B08D07B681B6803F04D
:100DB0001003002B02D07868FFF7B2FFFB8903F025
:100DC0001003002B08D07B681B6803F00803002B7E
:100DD00002D07868FFF7AEFFFB8903F00803002B11
:100DE00008D07B681B6803F00403002B02D07868EE
:100DF000FFF7AAFFFB8903F00403002B08D07B68F0
:100E00001B6803F00203002B02D07868FFF7A6FFEF
:100E1000FB8903F00103002B08D07B685B6903F0BA
:100E20008003002B02D07868FFF7A2FF00BF1037C5
:100E3000BD4680BD80B500AF0248FFF7A3FF00BFED
:100E400080BD00BF1060024080B500AF0248FFF7D0
:100E500099FF00BF80BD00BF2860024080B500AF91
:100E60000248FFF78FFF00BF80BD00BF4060024017
:100E700080B500AF0248FFF785FF00BF80BD00BF0F
:100E80005860024080B500AF0248FFF77BFF00BF0B
:100E900080BD00BF7060024080B500AF0248FFF720
:100EA00071FF00BF80BD00BF8860024080B500AF09
:100EB0000248FFF767FF00BF80BD00BFA06002408F
:100EC00080B500AF0248FFF75DFF00BF80BD00BFE7
:100ED000B860024080B500AF0248FFF753FF00BF83
:100EE00080BD00BF1064024080B500AF0248FFF72C
:100EF00049FF00BF80BD00BF2864024080B500AF3D
:100F00000248FFF73FFF00BF80BD00BF40640240C2
:100F100080B500AF0248FFF735FF00BF80BD00BFBE
:100F20005864024080B500AF0248FFF72BFF00BFB6
:100F300080BD00BF7064024080B500AF0248FFF77B
:100F400021FF00BF80BD00BF8864024080B500AFB4
:100F50000248FFF717FF00BF80BD00BFA06402403A
:100F600080B500AF0248FFF70DFF00BF80BD00BF96
:100F7000B864024080B483B000AF78607B68002220
:100F80001A707B68F0225A807B684FF4A0729A80B6
:100F90007B68083300221A605A609A607B680722D7
:100FA0001A727B680A225A727B681C4ADA607B6874
:100FB000143300221A605A609A607B680B221A75FB
:100FC0007B6812225A757B68154A9A617B682033C8
:100FD00000221A605A609A607B68102283F82020F1
:100FE0007B681A2283F821207B680E4A5A627B684C
:100FF00003F12C027B681A617B6803F1B8027B68FD
:10100000DA617B6803F511727B689A627B68184627
:101010000C37BD465DF8047B704700BF5C68000874
:10102000C86F0008247D000880B5FCB000AF3B1DF0
:101030001860E54AE44B5B8B9BB243F480539BB250
:1010400053833B1D44F62061186800F0BBFBDE4A69
:10105000DD4B1B8B9BB243F480539BB213833B1D30
:1010600044F62061186800F0ADFB07F10F03012280
:101070001A7007F10F023B1D1146186800F0BAFB09
:101080003B1D4CF25031186800F09CFB07F11C032B
:10109000CE4A92E8030083E8030007F124031846D0
:1010A00000F02AFF07F1240307F11C0207F11000EA
:1010B00006CA00F062FF07F110023B1D11461868D6
:1010C00000F032FB07F11003184600F077FF07F13C
:1010D0002403184600F01CFF07F13403BC4A92E8D1
:1010E000030083E8030007F13C03184600F004FF07
:1010F00007F13C0307F1340207F1280006CA00F0AB
:101100003CFF07F128023B1D1146186800F00CFB5C
:1011100007F12803184600F051FF07F13C03184679
:1011200000F0F6FE07F14C03AA4A92E8030083E8B8
:10113000030007F15403184600F0DEFE07F15403E4
:1011400007F14C0207F1400006CA00F016FF07F154
:1011500040023B1D1146186800F0E6FA07F1400313
:10116000184600F02BFF07F15403184600F0D0FE9C
:1011700007F16403984A92E8030083E8030007F14B
:101180006C03184600F0B8FE07F16C0307F1640227
:1011900007F1580006CA00F0F0FE07F158023B1DA7
:1011A0001146186800F0C0FA07F15803184600F01D
:1011B00005FF07F16C03184600F0AAFE07F17C0357
:1011C000864A92E8030083E8030007F18403184687
:1011D00000F092FE07F1840307F17C0207F1700032
:1011E00006CA00F0CAFE07F170023B1D11461868DE
:1011F00000F09AFA07F17003184600F0DFFE07F1DD
:101200008403184600F084FE07F19403744A92E8C0
:10121000030083E8030007F19C03184600F06CFE0E
:1012200007F19C0307F1940207F1880006CA00F059
:10123000A4FE07F188023B1D1146186800F074FAFD
:1012400007F18803184600F0B9FE07F19C03184621
:1012500000F05EFE07F1AC03624A92E8030083E807
:10126000030007F1B403184600F046FE07F1B4038B
:1012700007F1AC0207F1A00006CA00F07EFE07F1FC
:10128000A0023B1D1146186800F04EFA07F1A003BA
:10129000184600F093FE07F1B403184600F038FE3C
:1012A00007F1C403504A92E8030083E8030007F102
:1012B000CC03184600F020FE07F1CC0307F1C4026E
:1012C00007F1B80006CA00F058FE07F1B8023B1D4E
:1012D0001146186800F028FA07F1B803184600F024
:1012E0006DFE07F1CC03184600F012FE07F1DC0397
:1012F0003E4A92E8030083E8030007F1E40318463E
:1013000000F0FAFD07F1E40307F1DC0207F1D00079
:1013100006CA00F032FE07F1D0023B1D11461868E4
:1013200000F002FA07F1D003184600F047FE07F17B
:10133000E403184600F0ECFD2D4A07F1F40392E8AF
:10134000030083E8030007F1FC03184600F0D4FD16
:1013500007F1FC0307F1E80007F1F40206CA00F008
:101360000CFE07F1E8023B1D1146186800F0DCF99D
:1013700007F1E803184600F021FE07F1FC031846C8
:1013800000F0C6FD1B4A07F5867392E8030083E868
:10139000030007F58A73184600F0AEFD07F58A735F
:1013A00007F5807007F5867206CA00F0E6FD07F5BE
:1013B00080723B1D1146186800F0B6F907F580737E
:1013C000184600F0FBFD17E0000C0240B86700086B
:1013D000C0670008C8670008D0670008D867000821
:1013E000E0670008E8670008F0670008F867000891
:1013F000006800080868000807F58A73184600F0BE
:1014000087FDBF4A07F5927392E8030083E8030063
:1014100007F59673184600F06FFD07F5967307F50C
:101420008C7007F5927206CA00F0A7FD07F58C7262
:101430003B1D1146186800F077F907F58C731846C4
:1014400000F0BCFD07F59673184600F061FDAD4A4B
:1014500007F59E7392E8030083E8030007F5A27383
:10146000184600F049FD07F5A27307F5987007F5D7
:101470009E7206CA00F081FD07F598723B1D114669
:10148000186800F051F907F59873184600F096FDBA
:1014900007F5A273184600F03BFD9B4A07F5AA73B7
:1014A00092E8030083E8030007F5AE73184600F0E6
:1014B00023FD07F5AE7307F5A47007F5AA7206CAF7
:1014C00000F05BFD07F5A4723B1D1146186800F0A3
:1014D0002BF907F5A473184600F070FD07F5AE73FD
:1014E000184600F015FD894A07F5B67392E8030027
:1014F00083E8030007F5BA73184600F0FDFC07F512
:10150000BA7307F5B07007F5B67206CA00F035FD7C
:1015100007F5B0723B1D1146186800F005F907F594
:10152000B073184600F04AFD07F5BA73184600F08C
:10153000EFFC774A07F5C27392E8030083E80300E3
:1015400007F5C673184600F0D7FC07F5C67307F514
:10155000BC7007F5C27206CA00F00FFD07F5BC7239
:101560003B1D1146186800F0DFF807F5BC731846FC
:1015700000F024FD07F5C673184600F0C9FC654A63
:1015800007F5CE7392E8030083E8030007F5D273F2
:10159000184600F0B1FC07F5D27307F5C87007F5DF
:1015A000CE7206CA00F0E9FC07F5C8723B1D114671
:1015B000186800F0B9F807F5C873184600F0FEFC8B
:1015C00007F5D273184600F0A3FC534A07F5DA7307
:1015D00092E8030083E8030007F5DE73184600F085
:1015E0008BFC07F5DE7307F5D47007F5DA7206CACF
:1015F00000F0C3FC07F5D4723B1D1146186800F0DB
:1016000093F807F5D473184600F0D8FC07F5DE739D
:10161000184600F07DFC414A07F5E67392E80300A6
:1016200083E8030007F5EA73184600F065FC07F548
:10163000EA7307F5E07007F5E67206CA00F09DFC54
:1016400007F5E0723B1D1146186800F06DF807F5CC
:10165000E073184600F0B2FC07F5EA73184600F094
:1016600057FC2F4A07F5F27392E8030083E8030062
:1016700007F5F673184600F03FFC07F5F67307F51B
:10168000EC7007F5F27206CA00F077FC07F5EC7211
:101690003B1D1146186800F047F807F5EC73184633
:1016A00000F08CFC07F5F673184600F031FC1123AE
:1016B00087F8ED3107F2ED123B1D1146186800F076
:1016C00099F83B1D1749186800F07CF8292387F822
:1016D000EE3107F5F7723B1D1146186800F08AF8E5
:1016E0002C2387F8EF3107F2EF123B1D11461868E3
:1016F00000F080F800BF07F5F877BD4680BD00BF59
:1017000010680008186800082068000828680008A9
:101710003068000838680008406800084868000819
:101720005068000840420F0090B585B000AF786067
:101730003960214B5B68002B06D1204B1B899BB283
:1017400003F00203002B01D1012300E00023002B52
:1017500000D0EEE70021386800F04BFC0346194644
:10176000786800F047F8164A154B1B8B9BB243F480
:1017700000539BB213830123FB73FC7B386800F09A
:1017800047FC03469C4234BF01230023DBB2002BFD
:101790000ED0FB7B1946386800F02BFC03461B7803
:1017A0001946786800F018FBFB7B0133FB73E4E714
:1017B00000BF1437BD4690BDA064024000500140F8
:1017C000000C024080B483B000AF786039603B68A1
:1017D000002B14BF01230023DBB2002B03D03B6896
:1017E000013B3B60F3E700BF0C37BD465DF8047B6F
:1017F0007047000080B582B000AF78603960114B4F
:101800005B68002B06D1104B1B899BB203F00203CF
:10181000002B01D1012300E00023002B00D0EEE7D4
:101820000A4A0A4B5B8B9BB243F400539BB253832F
:101830003B681B781946786800F0CEFA00BF08377D
:10184000BD4680BDA064024000500140000C024033
:1018500080B582B000AF78603960094A084B1B8BB5
:101860009BB243F400539BB213833B681B78194629
:10187000786800F0B1FA00BF0837BD4680BD00BFF0
:10188000000C024080B582B000AF786039600D4A2C
:101890000C4B1B8B9BB243F400539BB213833B68EE
:1018A0001B881B12DBB21946786800F095FA3B687A
:1018B0001B88DBB21946786800F08EFA00BF083743
:1018C000BD4680BD000C024080B586B000AFF86018
:1018D000084611461A4603467B810B463B81134658
:1018E000FB802A23BB7507F116031946F868FFF73A
:1018F00081FF07F10A031946F868FFF7C3FFBB1D14
:101900001946F868FFF7BEFF2B23FB7507F1170395
:101910001946F868FFF76EFF07F108031946F868E3
:10192000FFF7B0FF07F12001F868FFF7ABFF00BF3A
:101930001837BD4680BD000080B584B000AF786028
:101940000B46FB703623FB7207F10B0319467868D0
:10195000FFF750FFFB78032B2AD801A252F823F09F
:10196000711900088119000891190008A1190008CF
:1019700058233B7307F10C0319467868FFF768FF9B
:1019800088237B7307F10D0319467868FFF760FF22
:101990002823BB7307F10E0319467868FFF758FF39
:1019A000E823FB7307F10F0319467868FFF750FF30
:1019B0007B68FA781A70FB78002B02D0FB78012B39
:1019C00007D17B68F0225A807B684FF4A0729A801E
:1019D00006E07B684FF4A0725A807B68F0229A8000
:1019E00000BF1037BD4680BD80B584B002AF7860BF
:1019F00039607B685B88013B99B27B689B88013BBF
:101A00009BB23A68019200930B460022002178684D
:101A100000F004F800BF0837BD4680BD80B58AB02D
:101A200002AFF860084611461A4603467B810B4612
:101A30003B811346FB80FA887B89D31A0133398DA9
:101A40003A898A1A013202FB03F3FB61F8883A896A
:101A500079893B8D00930346F868FFF735FF2C2307
:101A6000BB7507F116031946F868FFF7C3FE224A53
:101A7000214B1B8B9BB243F400539BB21383012376
:101A8000FB7507F117031946F86800F073F9FB6955
:101A90004FF6FF72934228BF13469BB23B8307F178
:101AA00018031A46F96AF86800F0DEF9FB69B3F525
:101AB000803F1CD3114B5B68002B06D1104B1B8958
:101AC0009BB203F00203002B01D1012300E00023AD
:101AD000002B00D0EEE7FB699BB201339BB27B8306
:101AE00007F11A031A46F96AF86800F0BDF900BF59
:101AF0002037BD4680BD00BF000C0240A0640240FC
:101B00000050014080B588B002AFF8600846114629
:101B10001A4603467B810B463B811346FB80FA88BD
:101B20007B89D31A0133398C3A898A1A013202FB34
:101B300003F37B61F8883A8979893B8C00930346EB
:101B4000F868FFF7C1FE2C23BB7407F11203194696
:101B5000F868FFF74FFE194A184B1B8B9BB243F4F2
:101B600000539BB213830123FB7407F1130319463F
:101B7000F86800F0FFF8124B4FF47412DA60114A63
:101B8000104B1B6843F4806313600E4A7B695360FB
:101B90000C4A7B6AD3600B4A0A4B1B6843F0010373
:101BA0001360094A084B9B889BB243F002039BB227
:101BB000938000BF1837BD4680BD00BF000C0240B7
:101BC00000640240A06402400050014080B588B02B
:101BD00002AFF8607B600B467B8113463B817889BE
:101BE0003A8979893B8900930346F868FFF76CFED0
:101BF0002C23FB7507F117031946F868FFF7FAFD68
:101C00007968F868FFF73EFE00BF1837BD4680BD13
:101C100080B58AB002AFF860084611461A460346FE
:101C20007B810B463B811346FB807B89FA68528897
:101C3000934203DBFB685B88013B7B81FB88FA688E
:101C40005288934203DBFB685B88013BFB803B8946
:101C5000FA689288934203DBFB689B88013B3B81D7
:101C60003B8DFA689288934203DBFB689B88013BBB
:101C70003B857A89FB889A4205DD7B89BB83FB889B
:101C80007B81BB8BFB803A893B8D9A4205DD3B898A
:101C9000BB833B8D3B81BB8B3B85FA887B89D31A09
:101CA0009BB27B833A8D3B89D31A9BB23B83B7F9B6
:101CB0001A30002B03D0B7F91830002B10D1FB6A73
:101CC0001B689BB2BB82F8883A89798907F11403B3
:101CD00001933B8D00930346F868FFF79FFE46E0B3
:101CE000B7F91A20B7F918309A4206DDB7F91A3059
:101CF000DA0F13445B101BB206E0B7F918305B42F1
:101D0000DA0F13445B101BB2FB83FB6A1B689BB2A8
:101D1000FB8207F116033A897989F868FFF756FFC5
:101D20007A89FB889A4203D13A893B8D9A421DD029
:101D3000B7F91E20B7F91A305B429A4207DDFA8BD9
:101D40003B8BD31A9BB2FB837B8901337B81B7F931
:101D50001E20B7F918309A42D7DAFA8B7B8B1344DE
:101D60009BB2FB833B8901333B81CEE700BF203729
:101D7000BD4680BD80B483B000AF78603960154A3D
:101D8000144B1B889BB223F040039BB213803B682B
:101D90001B78012B08D10F4A0E4B1B889BB243F4D2
:101DA00000639BB2138007E00A4A0A4B1B889BB270
:101DB00023F400639BB21380064A064B1B889BB238
:101DC00043F040039BB2138000BF0C37BD465DF863
:101DD000047B70470050014080B584B000AF78604C
:101DE0000B46FB701E4B5B68002B06D11D4B1B89FD
:101DF0009BB203F00203002B01D1012300E000237A
:101E0000002B00D0EEE7174B1B889BB203F4006356
:101E1000002B14BF01230023DBB2002B07D00023CB
:101E2000FB7307F10F0319467868FFF7A3FF0D4B0B
:101E3000FA7892B29A810A4B5B68002B06D1094B63
:101E40001B899BB203F00203002B01D1012300E0A8
:101E50000023002B00D0EEE700BF1037BD4680BD49
:101E6000A06402400050014080B485B000AFF8602B
:101E7000B9607A601D4B5B68002B06D11C4B1B8937
:101E80009BB203F00203002B01D1012300E00023E9
:101E9000002B00D0EEE7BB681A88FB68DA80154B90
:101EA0004FF47412DA60114A104B1B6823F48063FC
:101EB00013600E4A7B681B8853600C4AFB6806332C
:101EC000D3600A4A094B1B6843F001031360084AB8
:101ED000074B9B889BB243F002039BB2938000BFE9
:101EE0001437BD465DF8047B704700BFA064024014
:101EF000005001400064024080B582B000AF7860BD
:101F0000786800F095F87B6818460837BD4680BDB4
:101F100080B582B000AF7860786800F094F87B6894
:101F200018460837BD4680BD80B483B000AF7860E6
:101F30007B681B6818460C37BD465DF8047B70470C
:101F400080B483B000AF78607B685B6818460C375C
:101F5000BD465DF8047B704790B583B000AF7860F4
:101F60007868FFF7E1FF04467868FFF7E9FF03466A
:101F7000234418460C37BD4690BDB0B586B000AFBF
:101F8000F860381D80E806003B60FB683968184639
:101F900000F070F83B1D1846FFF7C6FF04463B1DD6
:101FA0001846FFF7D9FF02462B462146F86800F095
:101FB00089F8FB6818461837BD46B0BDB0B582B089
:101FC00000AF78607B681C687B685D687B6818463A
:101FD00000F0A6F803461A462946204600F0ABF862
:101FE0007B68184600F055F87B6818460837BD46F0
:101FF000B0BD80B483B000AF786039607B681A6888
:102000003B68134418460C37BD465DF8047B7047A7
:1020100080B483B000AF78607B685B681A467B68E9
:102020001B68D31A18460C37BD465DF8047B704711
:1020300080B483B000AF78607B6818460C37BD462B
:102040005DF8047B704780B483B000AF78607B6834
:1020500018460C37BD465DF8047B704780B582B0EA
:1020600000AF78607868FFF753FF7B681846083741
:10207000BD4680BD80B582B000AF786039607B68B6
:102080003968184600F065F87B6818460837BD4681
:1020900080BD80B582B000AF78607B6819687B68CE
:1020A0009B681A467B681B68D31A1A46786800F04A
:1020B00067F87B681846FFF7D1FF7B68184608373A
:1020C000BD4680BD90B587B000AFF860B9607A605A
:1020D0003B707968B86800F066F803467B61FB687E
:1020E0007969184600F073F80246FB681A60FB68CD
:1020F0001A687B691A44FB689A60FB681C68FB6875
:10210000184600F00DF8034622467968B86800F0DA
:1021100072F80246FB685A6000BF1C37BD4690BD8E
:1021200080B483B000AF78607B6818460C37BD463A
:102130005DF8047B704780B584B000AFF860B9608B
:102140007A60B968F86800F067F800BF1037BD46DC
:1021500080BD80B582B000AF78603960396878683A
:1021600000F067F87B6800221A607B6800225A60E2
:102170007B6800229A607B6818460837BD4680BDA0
:1021800080B584B000AFF860B9607A60BB68002B9E
:1021900005D0FB687A68B968184600F058F800BFA7
:1021A0001037BD4680BDB0B584B000AF78603960EF
:1021B0007C683B1D184600F059F82A4639682046CD
:1021C00000F05EF8034618461037BD46B0BD80B536
:1021D00082B000AF786039603B68002B06D07B6826
:1021E0003968184600F05BF8034600E00023184603
:1021F0000837BD4680BD80B584B000AFF860B960D7
:102200007A603B607A68B968F86800F057F803466E
:1022100018461037BD4680BD80B582B000AF7860EB
:1022200039603968786800F05BF800BF0837BD4650
:1022300080BD80B582B000AF786039603968786859
:1022400000F059F87B6818460837BD4680BD80B558
:1022500084B000AFF860B9607A607A68B968F868ED
:1022600000F055F800BF1037BD4680BD80B483B084
:1022700000AF786018460C37BD465DF8047B7047A8
:1022800080B485B000AFF860B9603A71BA68FB6895
:10229000D31A18461437BD465DF8047B704780B5E5
:1022A00082B000AF7860396000223968786800F049
:1022B0003BF8034618460837BD4680BD80B586B05A
:1022C00000AFF860B9607A600123FB757A68B9687D
:1022D000F86800F045F8034618461837BD4680BD3B
:1022E00080B483B000AF7860396000BF0C37BD4662
:1022F0005DF8047B704780B483B000AF78603960CC
:102300007B6818460C37BD465DF8047B704780B586
:1023100084B000AFF860B9607A60B86801F09EFEE2
:1023200000BF1037BD4680BD80B584B000AFF860F7
:10233000B9607A60F86800F023F80246BB689A42F8
:1023400034BF01230023DBB2002B01D001F0A2FE39
:10235000B86801F085FE034618461037BD4680BDBB
:1023600080B584B000AFF860B9607A607A68B96807
:10237000F86800F011F8034618461037BD4680BDD6
:1023800080B483B000AF78604FF0FF3318460C374D
:10239000BD465DF8047B704790B585B000AFF8602E
:1023A000B9607A60F86800F00FF80446B86800F089
:1023B0000BF803467A681946204600F010F80346E9
:1023C00018461437BD4690BD80B483B000AF786026
:1023D0007B6818460C37BD465DF8047B7047B0B586
:1023E00084B000AFF860B9607A60F86800F013F864
:1023F0000446B86800F00FF80546786800F016F853
:1024000003461A462946204600F01BF803461846A4
:102410001037BD46B0BD80B483B000AF78607B6834
:1024200018460C37BD465DF8047B704780B483B016
:1024300000AF78607B6818460C37BD465DF8047BBA
:10244000704780B586B000AFF860B9607A6001234C
:10245000FB757A68B968F86800F005F80346184615
:102460001837BD4680BD80B586B000AFF860B96052
:102470007A60BA68FB68D31A7B617B69002B05D050
:102480007B691A46F968786804F04EF87B697A68C7
:10249000134418461837BD4680BD000080B483B091
:1024A00000AF0346FB71094997F907305B0997F9BB
:1024B000072002F01F02012000FA02F241F8232057
:1024C00000BF0C37BD465DF8047B704700E100E0BB
:1024D00080B483B000AF03463960FB7197F90730D1
:1024E000002B0BDA0D49FB7903F00F03043B3A682C
:1024F000D2B21201D2B20B441A7609E0084997F918
:1025000007303A68D2B21201D2B20B4483F80023EA
:1025100000BF0C37BD465DF8047B704700ED00E05E
:1025200000E100E080B400AF5F4A5F4B1B6B43F0FB
:10253000040313635C4A5C4B1B6B43F00803136397
:10254000594A594B1B6B43F020031363564A564BB1
:102550005B6C43F480135364544A544B1B6843F040
:1025600080631360514A514B9B6843F080639360D2
:102570004F4A4F4B1B6843F0100313604C4A4C4BBF
:102580009B6843F010039360484A484B1B6843F034
:1025900080731360454A454BDB6843F08073D3601A
:1025A000444A444B1B6843F400431360414A414B87
:1025B0009B6843F4404393603E4A3E4B1B6A43F0A2
:1025C000A04313623B4A3B4B1B6843F40033136048
:1025D000384A384B9B6843F440339360354A354B57
:1025E0005B6A43F005035362324A324B1B6843F483
:1025F000002313602F4A2F4B9B6843F440239360C2
:102600002C4A2C4B5B6A43F0500353622A4A2A4BF4
:102610001B889BB243F400739BB21380264A264B5F
:102620001B889BB243F480739BB21380224A224BD7
:102630001B889BB243F008039BB213801E4A1E4BBB
:102640001B889BB243F004039BB213801A4A1A4BB7
:102650001B889BB243F040039BB21380124A124B7B
:102660001B6B43F480031363144A144B1B6843F041
:1026700060631360114A114B1B6843F400531360ED
:102680000E4A0E4B1B6843F4006313600B4A0B4B5E
:102690001B6843F040031360084B094A9A6000BF6F
:1026A000BD465DF8047B704700380240000C0240D4
:1026B000000802400014024000500140A0640240A3
:1026C0000C50014080B400AF784A784B1B6C43F04B
:1026D000010313644FF080424FF080439B889BB20C
:1026E00043F040039BB293804FF0804313221A853E
:1026F0004FF080436322DA624FF0804331225A6305
:102700004FF080424FF080431B8C9BB243F001039B
:102710009BB213844FF080424FF080431B8B9BB2DF
:1027200043F060039BB213834FF080424FF080432D
:102730001B889BB243F001039BB213805B4A5B4B47
:102740001B6B43F001031363584A584B1B6B43F058
:1027500004031363554A554B5B6C43F48073536415
:10276000534A534B1B6843F0C0031360514A514B0B
:102770001B6843F4406313604F4A4F4B5B6843F45C
:10278000807353604C4B4FF48012DA624A4A4A4BD2
:102790005B6B43F00D035363474A474B5B6B43F05E
:1027A000A0035363444A444BDB6843F44063D36063
:1027B000414A414B1B6943F4403313613E4A3E4B4F
:1027C0009B6843F4806393603B4A3B4B9B6843F0B8
:1027D00080539360384A384B9B6843F0C0639360E2
:1027E000354A354B9B6843F480739360324A324BD1
:1027F0009B6843F4007393602C4A2C4B1B6B43F48F
:10280000800313632D4A2D4B1B6823F0C003136014
:102810002A4A2A4B1B6843F400331360274A274B8C
:102820001B6843F400631360244A244B1B6843F481
:1028300000531360214A214B1B6823F4007313607B
:102840001E4A1E4B1B6843F4806313601B4A1B4BDC
:102850001B6843F480731360184A184B1B6823F0FD
:10286000C0031360154A154B5B6843F008035360BF
:10287000124B134A9A60114B124ADA600F4A0F4BFF
:102880001B6823F0606313600C4A0C4B1B6843F019
:1028900001031360084A084B9B6843F001039360EF
:1028A00000BFBD465DF8047B704700BF00380240A2
:1028B0000008024000000240002001401064024075
:1028C0004C200140A000002080B500AF164A164BF6
:1028D0001B6C43F002031364144B4FF4FA721A8515
:1028E000124B0A22DA62114A104B9B899BB243F0C9
:1028F00001039BB293811D20FFF7D0FD00211D2015
:10290000FFF7E6FD094A094B1B889BB243F0010320
:102910009BB21380054A054B9B8A9BB243F001038F
:102920009BB2938200BF80BD00380240000400408B
:1029300080B500AF0E4A0E4B1B6C43F004031364CA
:102940000C4B0A221A850B4B4FF6FF72DA62094ACA
:10295000084B9B899BB243F001039BB293811E20DD
:10296000FFF79CFD00211E20FFF7B2FD00BF80BDD8
:10297000003802400008004080B500AF304A304BBC
:102980001B6B43F0010313632D4A2D4B1B6B43F06C
:10299000100313632A4A2A4B5B6C43F4804353644D
:1029A000284A284BDB6843F48043D360264A264BF1
:1029B000DB6843F48033D360234A234BDB6843F462
:1029C0008023D360214A214BDB68D360204A204B0F
:1029D000DB6843F08003D3601D4A1D4B1B6843F046
:1029E00080031360194A194B1B6943F004031361F8
:1029F000174A174BDB6843F48073D360144A144BB7
:102A00001B6843F480731360104A104B1B6943F03A
:102A1000400313610E4A0E4BDB6843F40073D3602E
:102A20000B4A0B4B1B6843F4007313600321172000
:102A3000FFF74EFD1720FFF731FD00BF80BD00BF3F
:102A400000380240000002400010024000380140FF
:102A5000003C014090B482B000AF8A4A894B1B8A87
:102A60009BB223F001039BB21382874B1B78DBB22E
:102A7000002B4DD0854B1B889BB2B3F5806F0CBFEC
:102A800001230023DBB2002B09D0814B1B78DBB282
:102A90001A46804B012199547F4B00221A707E4BBD
:102AA0001B78DBB2002B00F0F181794B1B78DBB295
:102AB0001846764B1B889BB21946784B1B889BB2F5
:102AC0001A46764B9B889BB21344744A128992B281
:102AD0001344724A928992B2134407EE903AB8EEC8
:102AE000E77AF1EE006AC7EE267A9FED6D7A77EE0F
:102AF000677A6C4A83020B449B001344C3ED007A4F
:102B0000624B1B889BB201339AB2604B1A80BDE1C5
:102B1000624B1B889BB21A46604B9B889BB2134446
:102B20005E4A128992B213445C4A928992B213446B
:102B300007EE903AF8EEE77AF1EE006A87EEA67AB1
:102B4000DFED596AC7EE267A9FED587A27EE877A2D
:102B5000574B1B78DBB207EE903AF8EEE77A77EE48
:102B6000677AFCEEE77AC7ED017ABB889AB2514BDF
:102B70001A804A4B5B889BB21A46484BDB889BB253
:102B80001344464A528992B21344444AD28992B2BB
:102B9000134407EE903AF8EEE77AF1EE006A87EE1A
:102BA000A67ADFED416AC7EE267A9FED407A27EEDE
:102BB000877A414B1B78DBB207EE903AF8EEE77A62
:102BC00077EE677AFCEEE77AC7ED017ABB889AB2B6
:102BD0003A4B1A80304B1B78DBB283F00103DBB237
:102BE000002B2ED0364B1B78DBB283F00103DBB217
:102BF000002B07D1264B1B78DAB2324B1B78DBB2A5
:102C00009A421ED0304B1B78DBB2002B17D12F4BD2
:102C10001B889BB21A462E4B1B889A4211DD2D4B06
:102C20001B889BB21A462A4B5B889A4209DA214BD1
:102C30001B889BB21A46264B5B889A4201DB012314
:102C400000E00023002B00F08380134B01221A7058
:102C50001D4B1B78DBB2002B42D00C4B00221A809C
:102C60000B4B1B78DBB21A461B4B002123F81210CA
:102C7000074B1B78DBB21A46184B4FF6FF7123F84F
:102C8000121065E000040040D21A0020BA1A002099
:102C9000C21A0020C81A0020C01A0020A00000207C
:102CA00000E0FF44D41A002000008045000070437B
:102CB00000000020B41A002001000020B81A0020F3
:102CC000C11A0020C31A0020D11A0020BE1A002009
:102CD00004000020B61A0020C41A0020CC1A0020DC
:102CE0006D4B1B78DBB219466C4B1B889AB26C4B50
:102CF0001B88D31A9BB21AB26A4B23F81120664B79
:102D00001B78DBB21A46674B33F812301BB29BB20A
:102D1000DB0BDBB2002B10D05F4B1B78DBB21A460B
:102D20001946604B33F811301BB29BB203F5A07308
:102D30009BB219B25B4B23F81210574B1B78DBB2D6
:102D40001A46574B1B88013B99B2574B23F8121078
:102D5000564B1B78DBB2002B0DD04F4B1B78DBB2F0
:102D60001A46514B33F812309BB240F23F12934255
:102D700001D1012300E00023002B10D0464B1B782B
:102D8000DBB2012B14BF01230023DBB21A46424BF6
:102D90001A70474B00221A80444B00221A70434B92
:102DA0001B78DBB2002B0FD1424B1B78DBB283F0D8
:102DB0000103DBB2002B07D1374B1B78DAB23E4B55
:102DC0001B78DBB29A4201D0012300E00023002BE4
:102DD0005CD0314B1B78DBB21946304B1B889BB261
:102DE0001C46364B1B8898B2354A0B469B000B4459
:102DF0009B012344014622F81310274B1B78DBB2BA
:102E00001946264B1B889BB21C462E4B1B8898B23A
:102E10002D4A0B469B000B449B012344014622F89C
:102E20001310264B1B889AB2284B1A801B4B1B8809
:102E30009BB240F23F1293420CBF01230023DBB24E
:102E4000002B03D0154B00221A8006E0134B1B8881
:102E50009BB201339AB2114B1A80144B1B78DBB230
:102E6000002B0CD00C4B1B78DBB20F4A32F813202E
:102E700092B2013291B20C4A22F8131006E00C4BC8
:102E80001B889BB201339AB2094B1A8000BF0837E6
:102E9000BD4690BC704700BFC21A0020BA1A00207D
:102EA00004000020C41A0020CC1A0020C01A002000
:102EB000BE1A0020C11A0020C31A0020B41A002034
:102EC000B0100020B81A0020B0150020B61A00205B
:102ED00080B400AF354B1B6903F08003002B0CBF9F
:102EE00001230023DBB2002B02D0314B01221A70E8
:102EF000304B1B6903F48073002B0CBF01230023AC
:102F0000DBB2002B08D02C4B1B881BB29BB20133C9
:102F10009BB21AB2284B1A80264B1B6903F400732C
:102F2000002B0CBF01230023DBB2002B08D0234B66
:102F30001B881BB29BB201339BB21AB21F4B1A8083
:102F40001D4B1B881BB2012B04DC1C4B1B881BB2C6
:102F5000012B01DD012300E00023002B1BD0164BC9
:102F60001B881AB2154B1B881BB29A4201DD012344
:102F700001E04FF0FF339AB2114B1B881BB29BB29A
:102F800013449BB21AB20E4B1A800B4B00221A80CC
:102F90000A4B00221A800B4A0A4B5B6943F46073A8
:102FA000536100BFBD465DF8047B704700000240DE
:102FB000D01A002000100240E0A20220E2A202206B
:102FC000E4A20220003C014080B400AF084A084B54
:102FD0001B8A9BB223F001039BB21382054B1B6833
:102FE0000133044A136000BFBD465DF8047B70479F
:102FF00000080040D8A2022090B583B000AF0023A3
:103000007B607B68B3F5806F32DA7B6807EE903ABD
:10301000F8EEE77A77EEA77A17EE900AFDF74CFA0A
:1030200017A3D3E90023FDF79BFA03460C46184685
:1030300021464FF00002104BFDF7BCFB03460C4647
:1030400044EC173BB0EE470AF0EE670A01F0B4F922
:1030500054EC103B18462146FDF77AFD0146074A1D
:103060007B689B00134419607B6801337B60C8E771
:1030700000BF0C37BD4690BD00009040B00000205E
:10308000182D4454FB21094080B582B000AF154A89
:10309000144B1B889BB223F001039BB213800023C7
:1030A000FB80BB1D19461048FEF79EFC0F4B00220B
:1030B0001A700F4B00221A700E4B00221A8000214A
:1030C0000D4B0A461A800D4B0A461A80054A054BDD
:1030D0001B889BB243F001039BB2138000BF0837EB
:1030E000BD4680BD00040040E8A20220C11A0020B5
:1030F000C01A0020B61A0020BA1A0020BE1A0020FA
:1031000090B583B000AF78607868FDF7C3F90346E7
:103110000C4644EC103B01F009F9B0EE407AF0EEB9
:10312000607AB0EE470AF0EE670A0C37BD4690BDF4
:10313000B0B582B000AF87ED010A38607868FDF75E
:10314000BBF904460D463868FDF7A4F902460B4664
:1031500043EC112B45EC104B01F076F9B0EE407AC0
:10316000F0EE607AB0EE470AF0EE670A0837BD4627
:10317000B0BD0000B0B5A8B002AF7860964A964BDB
:103180009B8A9BB243F001039BB29382924A924B7B
:103190001B889BB243F001039BB213808F4B00222C
:1031A0001A6000237B670023C7F89430D7F8943067
:1031B000B3F5806F2ADAD7F89430162293FAA3F386
:1031C00063FA02F37B677A6FD7F894309A4217DD7F
:1031D000D7F894309B007A6813441B683B67D7F894
:1031E00094309B007A6813447A6F920079680A449D
:1031F00012681A607B6F9B007A6813443A6F1A60FA
:10320000D7F894300133C7F89430CFE70123C7F8DB
:103210009030D7F89030B3F5806F80F2A081D7F866
:103220009030012B4CD10023C7F88C30D7F88C306C
:10323000B3F5806F80F28D81D7F88C20D7F890306D
:103240001344FB66FB6E9B007A6813441B68BB66E5
:10325000FB6E9B007A681344D7F88C209200796843
:103260000A4492ED007AD7ED1A7A77EE677AC3EDC9
:10327000007A5B4AFB6E9B0013444FF000021A6019
:10328000D7F88C309B007A681344D7F88C209200D2
:1032900079680A4492ED007AD7ED1A7A77EE277AA8
:1032A000C3ED007A4E4AD7F88C309B0013444FF0A0
:1032B00000021A60D7F88C300233C7F88C30B5E7BB
:1032C000D7F89030B3F5007F40F08E800123A7F847
:1032D0008A30B7F88A30B3F5A07F00F33A81B7F8A7
:1032E0008A309A02D7F890305B0092FBF3F31846CD
:1032F000FFF706FF54EC103B18462146FDF708FC8B
:103300000346A7F86630B7F86630364A9B00134488
:103310001B683B66B7F8663003F58073314A9B0043
:1033200013441B68FB65B7F88A20D7F89030134424
:10333000BB65BB6D9B007A68134493ED007AD7EDB3
:10334000177A27EE277A264ABB6D9B001344D3EDEC
:10335000006AD7ED187A66EEA77A77EE677AB7F843
:103360008A309B007A681344B7F88A209200796803
:103370000A4492ED007A77EE277AC3ED007A184A74
:10338000BB6D9B00134493ED007AD7ED177A27EEBF
:10339000277ABB6D9B007A681344D3ED006AD7EDA2
:1033A000187A66EEA77A77EE277AB7F88A30B7F8F8
:1033B0008A200B4992000A4492ED007A77EE277A30
:1033C000074A9B001344C3ED007AB7F88A300133F3
:1033D000A7F88A307DE700BF00080040D8A202208D
:1033E000D43A0020B00000200023C7F88430D7F87A
:1033F0008420D7F890309A4280F2AB80D7F884309E
:103400009A02D7F890305B0092FBF3F31846FFF76F
:1034100077FE54EC103B18462146FDF751FB03465E
:103420007B65C74A7B6D9B0013441B683B657B6DC6
:1034300003F58073C24A9B0013441B68FB64D7F8F2
:103440008430C7F88030D7F88030B3F5806F7ADAEF
:10345000D7F88020D7F890301344BB64D7F8803079
:103460009B007A6813441B687B64B64AD7F88030A7
:103470009B0013441B683B64BB6C9B007A6813443D
:103480001B68FB63AF4ABB6C9B0013441B68BB63A8
:1034900097ED137AD7ED0F7A27EE277AD7ED146AD6
:1034A000D7ED0E7A66EEA77A77EE677AC7ED0D7ADA
:1034B00097ED137AD7ED0E7A27EE277AD7ED146AB7
:1034C000D7ED0F7A66EEA77A77EE277AC7ED0C7AFA
:1034D000BB6C9B007A68134497ED117AD7ED0D7A97
:1034E00077EE677AC3ED007A97ED107AD7ED0C7A14
:1034F00077EE677A934ABB6C9B001344C3ED007A66
:10350000D7F880309B007A68134497ED117AD7ED95
:103510000D7A77EE277AC3ED007A97ED107AD7ED22
:103520000C7A77EE277A874AD7F880309B001344CD
:10353000C3ED007AD7F890305B00D7F880201344B1
:10354000C7F880307FE7D7F884300133C7F884307C
:103550004DE7D7F890305B00C7F8903059E601236B
:10356000A7F87E30B7F87E404FF400733B614FF40C
:10357000A0737B6107F1140207F11003114618468E
:1035800000F09FFB03461B689C42D4BF012300232D
:10359000DBB2002B00F0EA80B7F87E309B007A683F
:1035A0001344D3ED007A0220B0EE670AFFF7C0FDA6
:1035B00055EC104BB7F87E30624A9B001344D3EDB4
:1035C000007A0220B0EE670AFFF7B2FD53EC102B31
:1035D00020462946FCF712FE03460C4644EC173BF6
:1035E000B0EE470AF0EE670A01F0A6F854EC103B83
:1035F00018462146FDF7ACFA0346FB6297ED0B7ABD
:10360000DFED516AC7EE267AB7EE007A77EE677A79
:103610009FED4E7A67EE877AC7ED067A4C4BFB61D9
:1036200007F11C0207F118031146184600F030FBA1
:103630000346D3ED007AFCEEE77AC7ED007A3B88CB
:103640007B85B7F87E30013B424A82FB0312921120
:10365000DB17D31A03F00103002B14BF012300234F
:10366000DBB287F829300023BB67BB6FEF2B37DC59
:10367000BB6F9BB21A46920013445B0198B2B7F835
:103680007E305A1E334B83FB02139911D317C91A8C
:103690000B469B000B445B01D11A8BB20344FB84A5
:1036A00097F82920FB8C788DB96F884201DD0024C2
:1036B00000E01F2428494FF4164000FB02F2134497
:1036C000224621F813207B8D092B05DCB7F87E30CC
:1036D000642B01DD01233B62BB6F0133BB67C4E791
:1036E000B7F87E201D4BA3FB0213D9090B469B00A4
:1036F0000B445B01D31A9BB2002B1BD1184B5B68A8
:10370000184A1360B7F87E30A03B99B2B7F87E3004
:10371000013B98B297F829304FF4963202FB03F33D
:103720000D4A13440193EF230093034600220E48F1
:10373000FEF7E8F9B7F87E300133A7F87E3011E7DD
:10374000B0000020D43A00200000004900006F4380
:1037500000006F4367666666D44A0020CDCCCCCCAF
:10376000A0640240D4A20220E8A20220094A094B28
:103770001B889BB223F001039BB21380064B1B688E
:103780001A04044B5B6A1344044A136000BF983761
:10379000BD46B0BD00080040D8A20220DCA2022035
:1037A00090B58DB002AF00F02BFB00F05FFBFFF790
:1037B000BFF8FEF7B7FEFEF785FFFFF7DDF8FFF76E
:1037C0001BFC6B48FDF730FC03216948FEF7B4F899
:1037D0000023BB803B1D19466548FEF705F9FFF73E
:1037E00073F8644B1B881BB2002B14BF012300230A
:1037F000DBB2002B1AD05F4B1B881BB25B001A4652
:103800005D4BDB6A1344002B14BF01230023DBB2A2
:10381000002B08D0574B1B881BB25900564A564BF9
:10382000DB6A0B44D362534B00221A80534B1B7844
:10383000DBB2002B0CD0514B00221A70504B1B787E
:10384000DBB283F00103DAB24D4B1A70FFF71CFCB8
:103850004B4B1B78DBB2002B50D04A4B1B78DBB2B2
:1038600083F00103DBB2002B11D0474B1B78DBB296
:1038700083F00103DBB2002B07D1434B5B78DBB253
:1038800083F00103DBB2002B01D0012300E0002311
:10389000002B10D03B4B01221A703C4B00221A80A7
:1038A000394B1B78DBB2002B01D0012200E0002253
:1038B000374B1A7095E7344B1B78DBB2002B03D0E3
:1038C000344B00221A7008E02F4B5B78DBB2002BE0
:1038D00000F0D8812F4B01221A702E4B1B78DBB2DF
:1038E0001B032D4A13441846FFF744FC294B1B7851
:1038F000DBB21A46244B0021995472E7274B1B7800
:10390000DBB283F00103DBB2002B06D01D4B1B782A
:10391000DBB2002B01D0012300E00023002B0AD0F2
:103920001B4B1B78DAB21B4B1A701C4B01221A700E
:103930001B4B00221A80194B1B78DBB2002B33D0B3
:10394000144B1B78DAB2124B1B78DBB29A420DD1C2
:103950000F4B1B78DBB21A46124B33F812309BB276
:103960001A460F4B1B889BB29A421DDB01231CE0B9
:10397000E8A20220E4A2022000040040D01A0020A5
:10398000D21A0020C01A0020C81A0020BA1A00203B
:10399000C21A0020C31A0020D41A0020C11A002025
:1039A000BC1A0020CC1A00200023002B3FF419AFD2
:1039B000A44AA44B9B8A9BB243F001039BB293821F
:1039C000A04AA04B1B889BB243F001039BB213801B
:1039D0009D4B00221A609D4B1B8899B29B4B1B8804
:1039E0009AB20023FB80BB1D0193EF230093134683
:1039F00000229748FEF712F8964B1B78DBB21A4666
:103A0000954B33F812301BB21A46904B1B889BB271
:103A10001A44924B83FB0213D911D317C91A0B46D0
:103A20009B000B449B01D11A0B46FB84874B1B88E0
:103A30009BB2002B0CBF01230023DBB2002B1FD055
:103A4000844B1B78DBB21846FA8C854903469B00F1
:103A500003449B01134431F813309AB2814B1A800E
:103A60007C4B1B78DBB21846FA8C7F4903469B00DF
:103A700003449B01134431F813309AB27B4B1A80F4
:103A8000724B1B889CB2734B1B78DBB21846FA8CC6
:103A9000734903469B0003449B01134431F81330E0
:103AA00099B26A4B1B8898B26E4B1B889BB24FF43D
:103AB000FC62BA6007F108020192009303460A46CD
:103AC00021466348FEF7A4F8604B1B889CB2614B0B
:103AD0001B78DBB21846FA8C634903469B0003440B
:103AE0009B01134431F8133099B2584B1B8898B29C
:103AF0005E4B1B889BB240F21D52FA6007F10C022C
:103B00000192009303460A4621465148FEF780F889
:103B1000504B1B78DBB21846FA8C514903469B0088
:103B200003449B01134431F813309AB24D4B1A8071
:103B3000484B1B78DBB21846FA8C4B4903469B0076
:103B400003449B01134431F813309AB2474B1A8057
:103B50003E4B1B889BB240F23F1293420CBF0123A5
:103B60000023DBB2002B01D001233B62374B1B88C3
:103B70009BB201339AB2354B1A80344B1B889BB2EF
:103B8000B3F5A07F0CBF01230023DBB2002B02D0D2
:103B9000374B00221A702D4B1B889BB21A46354BAF
:103BA0001B8804339A420CBF01230023DBB2002B95
:103BB0003CD0304B19882F4B5B88043B98B22D4B7F
:103BC0001C882C4B5B8804339BB24FF6E0723A6141
:103BD00007F1100201920093234602461C48FEF7AB
:103BE00017F8244B1B88043B7B610023BB6107F162
:103BF000180207F114031146184600F076F8034640
:103C00001B6899B21B4B58881A4B1B8804339CB213
:103C1000184B5B884FF6E072FA6107F11C020192C3
:103C20000093234602460A48FDF7F2FF054A054B7A
:103C30001B889BB223F001039BB21380024B1B68CD
:103C40001A0419E000080040D8A20220BC1A002083
:103C5000E8A20220C31A0020C41A00206766666624
:103C6000B0100020B01A0020B0150020B21A0020B9
:103C7000C11A002004000020034B5B6A1344034A6E
:103C80001360AEE500BFACE500080040DCA20220F6
:103C900080B483B000AF786039603B6893ED007A00
:103CA0007B68D3ED007AB4EEE77AF1EE10FA01D535
:103CB0003B6800E07B6818460C37BD465DF8047B26
:103CC000704780B483B000AF786039603B681A6891
:103CD0007B681B689A4201DA3B6800E07B68184603
:103CE0000C37BD465DF8047B704780B483B000AFED
:103CF000786039607B681A683B681B689A4201DA11
:103D00003B6800E07B6818460C37BD465DF8047BD5
:103D10007047000080B582B000AF786039607B6882
:103D2000012B07D13B684FF6FF72934202D1034843
:103D3000FDF720F900BF0837BD4680BDE8A202208C
:103D400080B500AF4FF6FF710120FFF7E3FF80BDA4
:103D5000DFF834D0002103E00C4B5B5843500431B2
:103D60000B480C4B42189A42F6D30B4A02E0002350
:103D700042F8043B094B9A42F9D300F041F802F0B3
:103D80009FFBFFF70DFD7047000003208C93000898
:103D900000000020840000208400002020A90220D0
:103DA000FEE780B400AF00BFBD465DF8047B7047FE
:103DB00080B400AFFEE780B400AFFEE780B400AF90
:103DC000FEE780B400AFFEE780B400AF00BFBD46A1
:103DD0005DF8047B704780B400AF00BFBD465DF85E
:103DE000047B704780B400AF00BFBD465DF8047B24
:103DF000704780B400AF00BFBD465DF8047B7047DC
:103E000080B500AF164A164BD3F8883043F47003E0
:103E1000C2F88830134A134B1B6843F00103136048
:103E2000104B00229A600F4A0E4B1B6823F08473DC
:103E300023F4803313600B4B0B4A5A60094A094B39
:103E40001B6823F480231360064B0022DA6000F025
:103E500089F8034B4FF000629A6000BF80BD00BF3D
:103E600000ED00E0003802401030002480B487B03C
:103E700000AF00233B6100237B610223FB60002332
:103E8000BB6002237B60324B9B6803F00C033B61F9
:103E90003B69042B07D0082B09D0002B3DD12D4BBB
:103EA0002D4A1A603DE02B4B2C4A1A6039E0284B12
:103EB0005B689B0D03F00103BB60254B5B6803F05F
:103EC0003F037B60BB68002B0CD0244A7B68B2FBAD
:103ED000F3F31F4A52689209C2F3080202FB03F38C
:103EE0007B610BE01C4A7B68B2FBF3F3184A526813
:103EF0009209C2F3080202FB03F37B61144B5B6877
:103F00001B0C03F0030301335B00FB607A69FB6861
:103F1000B2FBF3F30F4A136003E00E4B0E4A1A6034
:103F200000BF0B4B9B681B0903F00F030C4AD35CCB
:103F3000DBB23B61074B1A683B6922FA03F3054A7F
:103F4000136000BF1C37BD465DF8047B704700BF9F
:103F500000380240080000200024F40000127A001B
:103F60000C00002080B483B000AF00237B600023EE
:103F70003B60364A354B1B6843F480331360334B48
:103F80001B6803F400333B607B6801337B603B6854
:103F9000002B03D17B68B3F5A06FF0D12B4B1B68CE
:103FA00003F40033002B02D001233B6001E0002327
:103FB0003B603B68012B02D1244B254A5A60234ABF
:103FC000224B1B6C43F080531364224A214B1B6825
:103FD00043F4404313601D4A1C4B9B6893601B4A8B
:103FE0001A4B9B6843F400439360184A174B9B6835
:103FF00043F4A0539360154A144B1B6843F080733D
:10400000136000BF114B1B6803F00073002BF9D045
:10401000114B40F205721A600C4A0C4B9B6823F05E
:1040200003039360094A094B9B6843F002039360C2
:1040300000BF064B9B6803F00C03082BF9D100BFAF
:104040000C37BD465DF8047B704700BF0038024066
:10405000085A400700700040003C024002F05CBA81
:1040600010B5002814BF04460124204602F04CFA83
:1040700030B900F007F808B902F015FA8047F4E704
:1040800010BD0000024B1868BFF35B8F704700BF84
:104090006CA8022008B502F006FA0000244B1A684A
:1040A000D0075CBF01221A60224B1A68D1075CBF9F
:1040B00001221A60204B1A68D2075CBF01221A60E5
:1040C0001E4B1A68D0075CBF01221A601C4B1A688D
:1040D000D1075CBF01221A601A4B1A68D2075CBF75
:1040E00001221A60184B1A68D0075CBF01221A60BF
:1040F000164B1A68D1075CBF01221A60144B1A686C
:10410000D2075CBF01221A60124B1A68D0075CBF4D
:1041100001221A60104B1A68D1075CBF01221A6095
:104120000E4B1A68D2075CBF01221A60704700BFAD
:104130009CA8022098A8022094A8022090A80220FF
:104140008CA8022088A8022084A8022080A802202F
:104150007CA8022078A8022074A8022070A802205F
:10416000184B1A68D1075CBF01221A60164B1A68F7
:10417000D2075CBF01221A60144B1A68D0075CBFDB
:1041800001221A60124B1A68D1075CBF01221A6023
:10419000104B1A68D2075CBF01221A600E4B1A68D6
:1041A000D0075CBF01221A600C4B1A68D1075CBFB4
:1041B00001221A600A4B1A68D2075CBF01221A60FA
:1041C000704700BFBCA80220B8A80220B4A80220F3
:1041D000B0A80220ACA80220A8A80220A4A802200F
:1041E000A0A80220244B1A68D0075CBF01221A60E5
:1041F000224B1A68D1075CBF01221A60204B1A6853
:10420000D2075CBF01221A601E4B1A68D0075CBF40
:1042100001221A601C4B1A68D1075CBF01221A6088
:104220001A4B1A68D2075CBF01221A60184B1A6831
:10423000D0075CBF01221A60164B1A68D1075CBF19
:1042400001221A60144B1A68D2075CBF01221A605F
:10425000124B1A68D0075CBF01221A60104B1A6813
:10426000D1075CBF01221A600E4B1A68D2075CBFEF
:1042700001221A60704700BFECA80220E8A80220C3
:10428000E4A80220E0A80220DCA80220D8A802208E
:10429000D4A80220D0A80220CCA80220C8A80220BE
:1042A000C4A80220C0A80220184B1A68D1075CBF1E
:1042B00001221A60164B1A68D2075CBF01221A60ED
:1042C000144B1A68D0075CBF01221A60124B1A689F
:1042D000D1075CBF01221A60104B1A68D2075CBF7D
:1042E00001221A600E4B1A68D0075CBF01221A60C7
:1042F0000C4B1A68D1075CBF01221A600A4B1A687E
:10430000D2075CBF01221A60704700BF0CA90220CF
:1043100008A9022004A9022000A90220FCA802206A
:10432000F8A80220F4A80220F0A8022051EC100BFB
:10433000F8B5C1F30A55A5F2FF34132C0B460F460E
:1043400017DC002C09DA013401F0004303D143F0FB
:104350007F5343F44013002128E0164A22411142C2
:1043600000D180B14FF4002323413B4423EA0203F0
:10437000F1E7332C0ADDB4F5806F04D110EE102A7A
:104380000B46FBF73BFF41EC100BF8BDA5F21342C7
:104390004FF0FF35D5402842F5D0C4F13304012257
:1043A000A240121828BF013322EA05010846194627
:1043B000E9E700BFFFFF0F001FB551EC100B204ACB
:1043C00021F00043934207DC9FED1B1B002001F00E
:1043D000FFFD51EC100B07E01A4A934209DD10EE85
:1043E000102A0B46FBF708FF41EC100B05B05DF8F7
:1043F00004FB684600F010FF00F0030001289DED6B
:10440000021B9DED000B04D0022805D070B90120DD
:10441000DDE701F0A5F9DCE7012001F0D9FD53EC5F
:10442000102B10EE100A03F10041DDE701F098F9BE
:10443000F5E700BFAFF300800000000000000000BF
:10444000FB21E93FFFFFEF7F2DE9F04F2DED048BBE
:104450008DB057EC106B55EC114B00F0C9F9AE4B19
:10446000B0EE408AF0EE608A93F90090B9F1FF3F18
:1044700098465FD022462B4620462946FCF70AFB89
:104480008346002856D132463B4630463946FCF733
:1044900001FB0190E8B10022002320462946FCF7E9
:1044A000C7FA002846D0012302939C4B03939C4BF0
:1044B000CDF828B00022B9F1020FCDE90467CDE9AB
:1044C0000645CDE9082333D002A801F0D1FE48BB50
:1044D0005EE04FF0000A4FF0000B52465B4630465C
:1044E0003946FCF7A5FA4BEC19AB002855D05246DB
:1044F0005B4620462946FCF79BFA804618B3012309
:104500000293864B0393019B0A93CDE90467CDE99F
:104510000645CDE908ABB9F1000FD5D0804B00229C
:10452000CDE908230A9B1BB101F0C4FF0A9B03607D
:104530009DED088BB0EE480AF0EE680A0DB0BDECB8
:10454000048BBDE8F08F45EC104B01F002FE002813
:10455000F0D052465B4620462946FCF773FA002805
:10456000E8D0012302936D4B03936B4BCDF8288069
:1045700093F90030CDE90467CDE9064513B9CDE9DB
:1045800008ABA1E767490020CDE90801022B9BD1C8
:1045900001F090FF21230360C4E7B0EE480AF0EE7B
:1045A000680A01F0D6FD0190002840F08A8047ECAF
:1045B000106B01F0CEFD002800F0838045EC104B1D
:1045C00001F0C7FD00287CD053EC182B18EE100A20
:1045D0001946FCF75FFA98F90090504BB0B10122F0
:1045E0000393019B02920A93CDE90467CDE9064546
:1045F000B9F1000FC3D052465B4650465946FCF70E
:10460000D9F8B9F1020FCDE90801C0E703220292FF
:1046100003930A90CDE90467CDE90645B9F1000F8F
:104620002CD1414B4FF06042CDE908233046524631
:104630005B463946FCF706FA002866D000223B4B61
:1046400020462946FBF78CFF04460D4645EC104BEF
:1046500001F01AFE204653EC102B2946FCF7E8F92E
:1046600020B9334B4FF06042CDE9082398F9003070
:10467000022B4AD101F01EFF22238CE72D4B002292
:10468000CDE90823304652465B463946FCF7DAF955
:104690000028EBD00022254B20462946FBF760FF7F
:1046A00004460D4645EC104B01F0EEFD204653EC60
:1046B000102B2946FCF7BCF90028D7D10022194B52
:1046C000D2E70022002351EC180BFCF7B1F90028C7
:1046D0003FF430AF47EC106B01F03BFD00283FF496
:1046E00029AF45EC104B01F034FD00283FF422AF18
:1046F00004230293094B039300230A93CDE9046733
:10470000CDE906458DED089BB0E702A801F0B0FDAC
:1047100000287FF407AFADE71C000020E8900008F8
:104720000000F03F0000F0FFFFFFEF470000E03F18
:10473000FFFFEFC70000F07F2DE9F0432DED028B66
:104740008BB055EC104B00F059FF264BB0EE408A71
:10475000F0EE608A93F90060731C2AD022462B4643
:1047600020462946FCF796F9074610BB4FF0000893
:104770004FF0000942464B4620462946FCF762F9B5
:10478000B8B101230093184B01930897CDE9044574
:10479000CDE90245B6B9CDE90689684601F068FD64
:1047A000D0B1089B1BB101F085FE089B03609DED15
:1047B000068BB0EE480AF0EE680A0BB0BDEC028B37
:1047C000BDE8F08342464B4640464946FBF7F2FFC0
:1047D000022ECDE90601E0D101F06CFE2123036039
:1047E000DFE700BF1C000020EC9000080000000084
:1047F0002DE9F04F91B08DED001B9DE8040257ECC0
:10480000106B29F0004858EA020310EE10AA3D464A
:1048100000F0BD84784B27F000449C4209DC03D1B2
:104820003EB9A0450DDC01E0984502DC98450ED16B
:104830006AB104F1404404F5801454EA0A0300F01C
:10484000A6846E4811B0BDE8F04F01F015BD002DF3
:1048500053DA6B4B98454DDCA3F1547398454CDD0E
:104860004FEA2853A3F2FF33142B26DDC3F13403A0
:1048700022FA03F101FA03F39A423ED101F0010159
:10488000C1F1020B002A5BD15B4B984524D104F1A6
:10489000404303F5801353EA0A0300F07884594B30
:1048A0009C422DDDB9F1000F80F2758400200021BB
:1048B00041EC100B11B0BDE8F08F002A3ED1C3F1DE
:1048C000140348FA03F101FA03F3984540F06B84AE
:1048D00001F00101C1F1020B4B4B984518D1B9F120
:1048E000000F80F25C84484932463B460020FBF7CB
:1048F00061FFDDE74FF0020BC4E74FF0000BC1E7AB
:10490000B9F1000FD2DA9DE8090003F10041CFE7C9
:10491000B9F1804F06D132463B4610461946FBF7A7
:104920001FFEC5E7394B99450AD1002D08DB47EC3E
:10493000106B11B0BDE8F04F00F060BE4FF0000BFF
:1049400047EC106B01F0FEFB51EC100BBAF1000FBD
:1049500027D124B12C4B25F040429A4221D1B9F104
:10496000000F05DA02460B4600202749FBF722FF1D
:10497000002D9DDA04F1404404F5801454EA0B0341
:1049800008D102460B4610461946FBF735FC024695
:104990000B46ACE7BBF1010F8AD101F10043194688
:1049A00086E7ED0F6B1E0D935BEA030302D13246DF
:1049B0003B46E8E7164B984540F3FE8003F104734D
:1049C00098450ADD0F4B9C420DDCB9F1000FBFF694
:1049D0006DAF07A3D3E900239FE70E4B9C42F4DDA4
:1049E000094B9C4218DDB9F1000FF2DC5EE700BF15
:1049F0009C7500883CE4377E0000F07FF090000852
:104A0000FFFF3F43FFFFEF3F0000F03F0000E03FAC
:104A10000000E041FEFFEF3F0022634BFBF7ECFBA1
:104A200055A3D3E9002304460D46FBF799FD54A393
:104A3000D3E9002306460F4620462946FBF790FDA2
:104A40000022CDE90201594B20462946FBF788FD9B
:104A500002460B464CA1D1E90001FBF7CDFB2246F3
:104A60002B46FBF77DFD02460B4600205049FBF725
:104A7000C3FB22462B468046894620462946FBF743
:104A80006FFD02460B4640464946FBF769FD40A3D1
:104A9000D3E90023FBF764FD02460B46DDE9020182
:104AA000FBF7AAFB02460B4604460D463046394644
:104AB000FBF7A4FB0020CDE9040132463B46FBF79F
:104AC0009BFB02460B4620462946FBF795FB0D9AB9
:104AD0000BF1FF33134306460F4640F0EB819FED89
:104AE0002E7BDDE90045002422462B46DDE900014E
:104AF0008DED027BFBF780FBDDE90423FBF730FD46
:104B0000DDE900238046894630463946FBF728FD1B
:104B100002460B4640464946FBF770FB22462B46B1
:104B200080468946DDE90401FBF71AFD0B46044681
:104B30000D46024649464046CDE90045FBF75EFB7F
:104B40001C4B994206460F468B4640F3F78201F113
:104B50003F4303F5E003034300F0EA8110A3D3E9E8
:104B60000023DDE90201FBF7FBFC0DA3D3E90023E1
:104B7000D5E600BFAFF30080000000604715F73FA7
:104B800044DF5DF80BAE543E555555555555D53F50
:104B9000FE822B654715F73F000000000000F0BFC4
:104BA0009C7500883CE4377E0000F03F0000D03F59
:104BB0000000E03FFFFF8F40B4F5801F4FF0000280
:104BC00005DAD34BFBF7CCFC6FF034020C4623150F
:104BD000A3F2FF3313440793CE4BC4F3130444F002
:104BE0007F559C4245F4401508DDCB4B9C4240F379
:104BF0005E81079B01330793A5F580154FF0000AEE
:104C00004FEACA030C930C9AC44B134493ED007BF8
:104C1000294653EC172B8DED0A7BCDE90801FBF7F4
:104C2000EBFADDE90A2306460F46DDE90801FBF74A
:104C3000E5FA02460B460020B949FBF7BBFDCDE97A
:104C40000E0102460B4630463946FBF789FCCDE99A
:104C50000401DDE90434CDE9023400230293DDE9E7
:104C600002896D1045F0005505F50025002205EB81
:104C70008A434046494614461D46FBF771FC0246EE
:104C80000B4630463946FBF7B7FADDE90A230646FC
:104C90000F4620462946FBF7AFFA02460B46DDE9F0
:104CA0000801FBF7A9FA42464B46FBF759FC0246BE
:104CB0000B4630463946FBF79FFADDE90E23FBF73A
:104CC0004FFCDDE90423CDE9080110461946FBF746
:104CD00047FC7BA3D3E9002304460D46FBF740FCC9
:104CE00079A3D3E90023FBF789FA22462B46FBF789
:104CF00037FC77A3D3E90023FBF780FA22462B4643
:104D0000FBF72EFC74A3D3E90023FBF777FA2246C6
:104D10002B46FBF725FC72A3D3E90023FBF76EFAC1
:104D200022462B46FBF71CFC6FA3D3E90023FBF7BD
:104D300065FA224606460F462B4620462946FBF7D3
:104D40000FFC02460B4630463946FBF709FC42464B
:104D500004460D464B46DDE90401FBF74FFADDE959
:104D60000823FBF7FDFB22462B46FBF747FA42469A
:104D700006460F464B4640464946FBF7F1FB0022EC
:104D8000684BCDE90A01FBF739FA32463B46FBF79F
:104D900035FA02980D46044602460B4640464946FF
:104DA000FBF7DEFB0022804689465E4B2046294603
:104DB000FBF722FADDE90A23FBF71EFA02460B464F
:104DC00030463946FBF718FADDE90423FBF7C8FB48
:104DD000224606460F462B46DDE90801FBF7C0FBDD
:104DE00002460B4630463946FBF708FA06460F46A0
:104DF00002460B4640464946FBF700FA02983CA3A0
:104E0000D3E9002304460D46FBF7AAFB4246CDE951
:104E100008014B4620462946FBF7EEF902460B46B1
:104E200030463946FBF7E8F933A3D3E90023FBF713
:104E300097FB33A3D3E9002306460F4620462946B5
:104E4000FBF78EFB02460B4630463946FBF7D6F998
:104E50000C9A354B1344D3E90023FBF7CFF90446F2
:104E600007980D46FBF716FB0C9A304B1344D3E919
:104E7000008906460F4622462B46DDE90801FBF76E
:104E8000BDF942464B46FBF7B9F932463B46FBF7C4
:104E9000B5F9029832463B46CDE90401FBF7ACF97F
:104EA00042464B46FBF7A8F9DDE9082307E64FF039
:104EB000010AA5E69FED147B13E600BFAFF3008067
:104EC000EF4E454A287ECA3F65DBC9934A86CD3FEF
:104ED00001411DA96074D13F4D268F515555D53FD5
:104EE000FFAB6FDBB66DDB3F033333333333E33F6D
:104EF000000000E009C7EE3FFD033ADC09C7EE3FC2
:104F0000F5015B14E02F3EBE000000000000F03F02
:104F1000000040438E98030079B60B00F89000081B
:104F20000000F03F000008401891000808910008B8
:104F3000B6A3D3E9002340464946FBF75FF9224672
:104F4000CDE904012B4630463946FBF755F90246B8
:104F50000B46DDE90401FBF793FD00287FF4FEAD6D
:104F6000A54A2BF00043934240F30C811B154FF4EC
:104F7000801AA3F2FE334AFA03F35B44C3F30A52E6
:104F80009E4EA2F2FF321641C3F3130A002023EA19
:104F90000601C2F114024AF4801A4AFA02FABBF17D
:104FA000000F02460B4620462946B8BFCAF1000A48
:104FB000FBF722F9CDE9000142464B46DDE900014D
:104FC000FBF71CF900207AA3D3E9002304460D4621
:104FD000FBF7C6FADDE9002306460F4620462946C0
:104FE000FBF70AF902460B4640464946FBF704F92F
:104FF00071A3D3E90023FBF7B3FA71A3D3E900232C
:105000008046894620462946FBF7AAFA02460B4607
:1050100040464946FBF7F2F804460D4602460B4669
:1050200030463946FBF7EAF832463B468046894629
:10503000FBF7E2F802460B4620462946FBF7DCF870
:10504000424606460F464B4640464946FBF788FA1D
:105050005DA3D3E9002304460D46FBF781FA5CA368
:10506000D3E90023FBF7C8F822462B46FBF778FA72
:1050700059A3D3E90023FBF7C1F822462B46FBF7DF
:105080006FFA57A3D3E90023FBF7B6F822462B4665
:10509000FBF766FA54A3D3E90023FBF7AFF82246E7
:1050A0002B46FBF75DFA02460B4640464946FBF7A6
:1050B000A3F804460D4602460B4640464946FBF718
:1050C0004FFA0022CDE900014FF0804320462946E7
:1050D000FBF792F802460B46DDE90001FBF76AFB9D
:1050E000324604460D463B4640464946FBF738FAF1
:1050F00032463B46FBF782F802460B4620462946DD
:10510000FBF77AF842464B46FBF776F802460B4629
:1051100000203B49FBF770F801EB0A54B4F5801FFF
:1051200002460B4631DA504643EC102B01F034F9BD
:1051300051EC100BDDE90223FFF7F1BB314B21F0FD
:1051400000469E427FF70CAF2F4B0B4403430BD01E
:1051500027A3D3E90023DDE90201FBF701FA24A329
:10516000D3E90023FFF7DBBB22462B46FBF744F8CD
:1051700002460B4640464946FBF76EFC00283FF4CA
:10518000EFAEE5E74FF0000A16E72146D2E7002030
:105190001B49FFF78DBBDDE90001FFF789BB3046F6
:1051A0003946FFF785BB9346FFF796BBAFF3008008
:1051B00000000000432EE63FEF39FAFE422EE63FA4
:1051C000396CA80C615C20BED0A4BE726937663E03
:1051D000F16BD2C541BDBB3E2CDE25AF6A56113FF7
:1051E00093BDBE166CC1663F3E5555555555C53FDE
:1051F00059F3F8C21F6EA5010000E03FFFFF0F004A
:105200000000F03FFFCB904000346F3FFE822B65E3
:105210004715973C000000002DE9F04F57EC106B4C
:10522000C34B8DB027F0004898450446049707DC2F
:105230000022002384ED000BC0E90223002527E0B3
:10524000BC4B984575DC049BBB4D002B10EE100A3F
:10525000A9A3D3E90023394636DDFAF7CDFFA845E7
:1052600006460F4618D0A6A3D3E90023FAF7C4FFD9
:1052700002460B46C4E9002330463946FAF7BCFF24
:105280009FA3D3E90023FAF7B7FFC4E90201012580
:1052900028460DB0BDE8F08F9BA3D3E90023FAF7B1
:1052A000ABFF9BA3D3E9002306460F46FAF7A4FF02
:1052B00002460B46C4E9002330463946FAF79CFF04
:1052C00093A3D3E90023DEE7FAF798FFA845064643
:1052D0000F4616D08AA3D3E90023FAF78FFF0246C0
:1052E0000B46C4E9002330463946FAF785FF84A30C
:1052F000D3E90023FAF782FF4FF0FF35C4E902013A
:10530000C6E781A3D3E90023FAF778FF80A3D3E9A6
:10531000002306460F46FAF771FF02460B46C4E922
:10532000002330463946FAF767FF79A3D3E9002313
:10533000E0E7824B984500F3D08000F003FF57EC84
:10534000106B10EE100A74A3D3E900233946FBF763
:1053500007F900227A4BFAF751FFFBF7B1FB05463C
:10536000FBF798F864A3D3E90023CDE90201FBF72A
:10537000F7F802460B4630463946FAF73DFF60A380
:10538000D3E9002382468B46DDE90201FBF7E8F80A
:105390001F2D06460F462ADC6A1E6A4B53F8223040
:1053A000984524D032463B4650465946FAF724FFEA
:1053B000C4E90001D4E90089504642464B465946AB
:1053C000FAF71AFF3B463246FAF716FF049B002B0A
:1053D000C4E90201BFF65CAF09F100436360C4F8A1
:1053E0000080A06001F10043E3606D4250E7324667
:1053F0003B4650465946FAF7FFFE4FEA2852C1F3A2
:105400000A53D31A102BC4E900010592D2DD3EA342
:10541000D3E90023DDE90201FBF7A2F806460F46B7
:1054200002460B4650465946FAF7E6FE02460B4640
:105430008046894650465946FAF7DEFE32463B46DC
:10544000FAF7DAFE32A3D3E9002306460F46DDE978
:105450000201FBF785F832463B46FAF7CDFE0246DD
:105460000B4606460F4640464946FAF7C5FE059AE2
:10547000C1F30A53D31A312BC4E900012ADD28A352
:10548000D3E90023DDE90201FBF76AF806460F467F
:1054900002460B4640464946FAF7AEFE02460B4628
:1054A00082468B4640464946FAF7A6FE32463B46C0
:1054B000FAF7A2FE1CA3D3E9002306460F46DDE956
:1054C0000201FBF74DF832463B46FAF795FE0646D9
:1054D0000F4667E7C246CB466CE71B4B984535DD68
:1054E00010EE102A3B4630463946FAF785FEC4E9ED
:1054F0000201C4E90001A1E600004054FB21F93F8C
:105500003163621A61B4D03D0000601A61B4D03DCD
:105510007370032E8A19A33B83C8C96D305FE43FC3
:105520000000002E8A19A33BC14920259A837B39AC
:10553000FB21E93F7BD90240FB21F93FFB213941A7
:105540000000E03F28910008FFFFEF7F4FEA285559
:10555000A5F21645A8EB055130460F46FBF7B0FA09
:10556000FAF798FF02460B4630463946CDE9062346
:10557000FAF742FE00221F4BFAF7F2FF0F460646EB
:10558000FBF79EFAFAF786FF02460B46304639468D
:10559000CDE90823FAF730FE0022164BFAF7E0FFB8
:1055A000CDE90A010DF130094FF00308002600276C
:1055B00032463B4679E9020108F1FF3AFBF738FA37
:1055C000B0B90D4B0193022300932A46434621466E
:1055D00006A800F0ADF9049B002B0546BFF658AEB7
:1055E000636803F100436360E36803F10043FBE693
:1055F000D046DDE700007041A89100082DE9F04198
:1056000055EC104B544EAE4310EE100A2B462A4672
:10561000214613D110EE102A2B4610EE100A29460F
:10562000FAF79EFF02460B4620462946FAF7E6FDAA
:1056300004460D4645EC104BBDE8F081002D10DC12
:1056400025F000463043F5D05DB110EE102A2B4610
:1056500020462946FAF7D0FD02460B46FBF7AAF88A
:10566000E6E71B150CD1002A6DD00020D6026ED5BE
:10567000441E1B1BC0F1200421FA04F42243814084
:10568000A3F2FF33C2F31302DD0742F4801242BFDC
:10569000520002EBD17249005810002502EBD17381
:1056A0001A44490016232C464FF40016A7199742B6
:1056B000DEBFD21BBC19AD195200013B02EBD17207
:1056C0004FEA56064FEA4101F0D14FF0200E9C46BA
:1056D0004FF00046A24206EB0C0702DC12D18F42CB
:1056E00010D8002F07EB060C34DABCF1000F31DBC9
:1056F00004F10108121B8F4288BF02F1FF32C91B5F
:105700003344444602EBD177BEF1010E3A444FEAEE
:1057100041014FEA5606DDD10A4306D05C1C13BF97
:1057200001330135734623F001036A105B08E90772
:1057300002F17F5202F5001248BF43F0004302EB32
:1057400000551C4676E7CA0A153B49058BE752000F
:1057500001308BE7A046CDE70000F07F000000009D
:105760002DE9F04F59EC108B29F0004785B0B7F1C7
:10577000795F8DED001B07DA10EE100A4946FBF742
:105780009FF9002800F0AA8042464B464046494611
:10579000FAF7E6FE59A3D3E9002304460D46FAF7CB
:1057A000DFFE58A3D3E90023FAF728FD22462B4653
:1057B000FAF7D6FE55A3D3E90023FAF71DFD2246DA
:1057C0002B46FAF7CDFE53A3D3E90023FAF716FDD3
:1057D00022462B46FAF7C4FE50A3D3E90023FAF77A
:1057E0000BFD22462B46FAF7BBFE4EA3D3E900235E
:1057F000FAF704FD2B462246FAF7B2FE3A4B9F42D7
:1058000082468B462CDC0022384B20462946FAF78C
:10581000A7FE524606460F465B4620462946FAF743
:105820009FFEDDE9002304460D4640464946FAF74F
:1058300097FE02460B4620462946FAF7DDFC024653
:105840000B4630463946FAF7D7FC0B462849024644
:105850000020FAF7D1FC41EC100B05B0BDE8F08F49
:10586000244B23499F42D7BFA7F50013224F0022A4
:105870001646D4BF1F46002632463B460020FAF7A4
:10588000BBFC0022CDE90201184B20462946FAF75D
:1058900067FE32463B46FAF7AFFC524606460F46D5
:1058A0005B4620462946FAF75BFEDDE90023044605
:1058B0000D4640464946FAF753FE02460B4620463F
:1058C0002946FAF799FC02460B4630463946FAF764
:1058D00093FC02460B46DDE90201BAE700200449C9
:1058E000B9E700BFAFF300803233D33F0000E03FA1
:1058F0000000F03F0000E93F0000D23FD43888BEEE
:10590000E9FAA8BDC4B1B4BD9EEE213EAD529C8063
:105910004F7E923E9015CB19A001FA3E7751C116E9
:105920006CC1563F4C5555555555A53F00000000DC
:105930002DE9F04F2DED028BADF5197DD41E0693A8
:105940000291C34BA499099053F821300093069B10
:10595000013B0493182394FBF3F46FF0170324EA3C
:10596000E47404FB033303EB020A009B049A9FEDEB
:10597000B48B03EB0208A59BA71A20AE03EB8709A3
:105980000025454513DD9FEDAE8B0DF5E07B002630
:10599000009B9E4232DC099B0393069B9D1920AB22
:1059A00003EBC503089359EC188B00271FE0EF4267
:1059B00007D459F82500FAF76DFDE6E80201013534
:1059C000DFE751EC180BF8E70899039D71E9022312
:1059D0000891F5E802010395FAF7C2FD02460B466D
:1059E00040464946FAF70AFC013780468946049B3F
:1059F0009F42E9DDEBE802890136C9E7009B009F81
:105A00000CAA02EB83030B93A59B03EB84030A937D
:105A100098AB07F1005B03EBC7030BF1FF3B53E9C6
:105A200028894FEACB030893089A98AB1344A3F153
:105A3000980B0026BB1B002B77DC49EC108B5046E3
:105A400000F0AAFC55EC104B00224FF07F5310EEF3
:105A5000100A2946FAF784FD41EC100B00F084FB94
:105A6000002251EC100B7B4BFAF77AFD02460B46F5
:105A700020462946FAF7C0FB0D460446FBF720F8FE
:105A80000390FAF707FD02460B4620462946FAF72F
:105A9000B3FBBAF1000F804689466BDD7A1E0CAB72
:105AA000CAF1180153F82200039C40FA01F31C4488
:105AB0008B40C01A0CAB039443F82200CAF11703C1
:105AC00040FA03FBBBF1000F62DD039B00220133B0
:105AD000039314466FF07F41974200F38980BAF137
