:020000040800F2
:100000000000032089320008DB320008E9320008D2
:10001000EF320008F5320008FB3200080000000053
:100020000000000000000000000000000133000894
:100030000F330008000000001D3300082B330008B8
:10004000D9320008D9320008D9320008D932000864
:10005000D9320008D9320008D9320008D932000854
:10006000D9320008D9320008D9320008F50D00084D
:10007000090E00081D0E0008310E0008450E00088C
:10008000590E00086D0E0008D9320008D932000858
:10009000D9320008D9320008D9320008D932000814
:1000A000D9320008D9320008D9320008D932000804
:1000B000D932000829280008352B0008D932000859
:1000C000D9320008D9320008D9320008D9320008E4
:1000D000D9320008D9320008D9320008D9320008D4
:1000E000D9320008D9320008D9320008D9320008C4
:1000F000D9320008D9320008D9320008810E000830
:10010000D9320008D9320008D9320008D9320008A3
:10011000D9320008D9320008D9320008D932000893
:10012000950E0008A90E0008BD0E0008D10E0008AB
:10013000E50E0008D9320008D9320008D93200088B
:10014000D9320008D9320008D9320008D932000863
:10015000F90E00080D0F0008210F0008D932000821
:10016000D9320008D9320008D9320008D932000843
:10017000D9320008D9320008D9320008D932000833
:10018000D9320008D9320008D9320008D932000823
:10019000D9320008D9320008D9320008D932000813
:0C01A000D9320008D9320008D93200081A
:1001B00010B5054C237833B9044B13B10448AFF3A1
:1001C00000800123237010BD80000020000000008B
:1001D000D85C000808B5034B1BB103490348AFF3D3
:1001E000008008BD0000000084000020D85C0008EA
:1001F00081F0004102E000BF83F0004330B54FEAD8
:1002000041044FEA430594EA050F08BF90EA020F44
:100210001FBF54EA000C55EA020C7FEA645C7FEAD7
:10022000655C00F0E2804FEA5454D4EB5555B8BFFA
:100230006D420CDD2C4480EA020281EA030382EA6B
:10024000000083EA010180EA020281EA0303362DFD
:1002500088BF30BD11F0004F4FEA01314FF4801CD0
:100260004CEA113102D0404261EB410113F0004FE2
:100270004FEA03334CEA133302D0524263EB430399
:1002800094EA050F00F0A780A4F10104D5F1200E37
:100290000DDB02FA0EFC22FA05F2801841F1000192
:1002A00003FA0EF2801843FA05F359410EE0A5F166
:1002B00020050EF1200E012A03FA0EFC28BF4CF097
:1002C000020C43FA05F3C01851EBE37101F000454D
:1002D00007D54FF0000EDCF1000C7EEB00006EEB5A
:1002E0000101B1F5801F1BD3B1F5001F0CD34908E4
:1002F0005FEA30004FEA3C0C04F101044FEA44523B
:1003000012F5800F80F09A80BCF1004F08BF5FEAC1
:10031000500C50F1000041EB045141EA050130BDA1
:100320005FEA4C0C404141EB010111F4801FA4F144
:100330000104E9D191F0000F04BF01460020B1FA99
:1003400081F308BF2033A3F10B03B3F120020CDAD1
:100350000C3208DD02F1140CC2F10C0201FA0CF0AF
:1003600021FA02F10CE002F11402D8BFC2F1200C14
:1003700001FA02F120FA0CFCDCBF41EA0C019040CA
:10038000E41AA2BF01EB0451294330BD6FEA040413
:100390001F3C1CDA0C340EDC04F11404C4F12002FE
:1003A00020FA04F001FA02F340EA030021FA04F310
:1003B00045EA030130BDC4F10C04C4F1200220FA67
:1003C00002F001FA04F340EA0300294630BD21FAA5
:1003D00004F0294630BD94F0000F83F4801306BF6B
:1003E00081F480110134013D4EE77FEA645C18BF5F
:1003F0007FEA655C29D094EA050F08BF90EA020FF6
:1004000005D054EA000C04BF1946104630BD91EAED
:10041000030F1EBF0021002030BD5FEA545C05D1F0
:100420004000494128BF41F0004130BD14F580042F
:100430003CBF01F5801130BD01F0004545F0FE41A3
:1004400041F470014FF0000030BD7FEA645C1ABFD8
:10045000194610467FEA655C1CBF0B46024650EA0F
:10046000013406BF52EA033591EA030F41F400213B
:1004700030BD00BF90F0000F04BF0021704730B5C1
:100480004FF4806404F132044FF000054FF0000196
:1004900050E700BF90F0000F04BF0021704730B557
:1004A0004FF4806404F1320410F0004548BF40422C
:1004B0004FF000013EE700BF42004FEAE2014FEA81
:1004C00031014FEA02701FBF12F07F4393F07F4F5C
:1004D00081F06051704792F0000F14BF93F07F4F8E
:1004E000704730B54FF4607401F0004521F00041D1
:1004F00020E700BF50EA010208BF704730B54FF057
:1005000000050AE050EA010208BF704730B511F05B
:10051000004502D5404261EB41014FF4806404F193
:1005200032045FEA915C3FF4DCAE4FF003025FEA15
:10053000DC0C18BF03325FEADC0C18BF033202EB9D
:10054000DC02C2F1200300FA03FC20FA02F001FAF7
:1005500003FE40EA0E0021FA02F11444C1E600BF96
:1005600070B54FF0FF0C4CF4E06C1CEA11541DBF49
:100570001CEA135594EA0C0F95EA0C0F00F0DEF814
:100580002C4481EA030621EA4C5123EA4C5350EAF9
:10059000013518BF52EA033541F4801143F480134A
:1005A00038D0A0FB02CE4FF00005E1FB02E506F0DB
:1005B0000042E0FB03E54FF00006E1FB03569CF030
:1005C000000F18BF4EF0010EA4F1FF04B6F5007F36
:1005D00064F5407404D25FEA4E0E6D4146EB0606A8
:1005E00042EAC62141EA55514FEAC52040EA5E5031
:1005F0004FEACE2EB4F1FD0C88BFBCF5E06F1ED8DB
:10060000BEF1004F08BF5FEA500E50F1000041EB11
:10061000045170BD06F0004646EA010140EA0200BE
:1006200081EA0301B4EB5C04C2BFD4EB0C0541EAE0
:10063000045170BD41F480114FF0000E013C00F3F5
:10064000AB8014F1360FDEBF002001F0004170BD19
:10065000C4F10004203C35DA0C341BDC04F1140432
:10066000C4F1200500FA05F320FA04F001FA05F2BE
:1006700040EA020001F0004221F0004110EBD3708B
:1006800021FA04F642EB06015EEA430E08BF20EAB7
:10069000D37070BDC4F10C04C4F1200500FA04F35A
:1006A00020FA05F001FA04F240EA020001F00041EC
:1006B00010EBD37041F100015EEA430E08BF20EA5F
:1006C000D37070BDC4F1200500FA05F24EEA020EA7
:1006D00020FA04F301FA05F243EA020321FA04F0D6
:1006E00001F0004121FA04F220EA020000EBD3708D
:1006F0005EEA430E08BF20EAD37070BD94F0000F8D
:100700000FD101F00046400041EB010111F4801FC0
:1007100008BF013CF7D041EA060195F0000F18BF71
:10072000704703F00046520043EB030313F4801FAD
:1007300008BF013DF7D043EA0603704794EA0C0F67
:100740000CEA135518BF95EA0C0F0CD050EA41067D
:1007500018BF52EA4306D1D181EA030101F00041FA
:100760004FF0000070BD50EA410606BF1046194622
:1007700052EA430619D094EA0C0F02D150EA01362E
:1007800013D195EA0C0F05D152EA03361CBF10466F
:1007900019460AD181EA030101F0004141F0FE410E
:1007A00041F470014FF0000070BD41F0FE4141F492
:1007B000780170BD70B54FF0FF0C4CF4E06C1CEA92
:1007C00011541DBF1CEA135594EA0C0F95EA0C0F47
:1007D00000F0A7F8A4EB050481EA030E52EA033502
:1007E0004FEA013100F088804FEA03334FF0805523
:1007F00045EA131343EA12634FEA022245EA111550
:1008000045EA10654FEA00260EF000419D4208BF00
:10081000964244F1FD0404F5407402D25B084FEAAD
:100820003202B61A65EB03055B084FEA32024FF459
:1008300080104FF4002CB6EB020E75EB030E22BFB6
:10084000B61A754640EA0C005B084FEA3202B6EB76
:10085000020E75EB030E22BFB61A754640EA5C0025
:100860005B084FEA3202B6EB020E75EB030E22BFB5
:10087000B61A754640EA9C005B084FEA3202B6EBB6
:10088000020E75EB030E22BFB61A754640EADC0075
:1008900055EA060E18D04FEA051545EA16754FEAD7
:1008A00006164FEAC30343EA52734FEAC2025FEAF5
:1008B0001C1CC0D111F4801F0BD141EA00014FF084
:1008C00000004FF0004CB6E711F4801F04BF014355
:1008D0000020B4F1FD0C88BFBCF5E06F3FF6AFAE71
:1008E000B5EB030C04BFB6EB020C5FEA500C50F101
:1008F000000041EB045170BD0EF0004E4EEA113184
:1009000014EB5C04C2BFD4EB0C0541EA045170BD8A
:1009100041F480114FF0000E013C90E645EA060ECE
:100920008DE60CEA135594EA0C0F08BF95EA0C0FFC
:100930003FF43BAF94EA0C0F0AD150EA01347FF444
:1009400034AF95EA0C0F7FF425AF104619462CE71B
:1009500095EA0C0F06D152EA03353FF4FDAE10467E
:10096000194622E750EA410618BF52EA43067FF4CF
:10097000C5AE50EA41047FF40DAF52EA43057FF45F
:10098000EBAE12E74FF0FF3C06E000BF4FF0010C6A
:1009900002E000BF4FF0010C4DF804CD4FEA410CCE
:1009A0007FEA6C5C4FEA430C18BF7FEA6C5C1BD09B
:1009B00001B050EA410C0CBF52EA430C91EA030F1C
:1009C00002BF90EA020F0020704710F1000F91EA79
:1009D000030F58BF994208BF90422CBFD8176FEA47
:1009E000E37040F0010070474FEA410C7FEA6C5C15
:1009F00002D150EA013C07D14FEA430C7FEA6C5C1C
:100A0000D6D152EA033CD3D05DF8040B704700BF47
:100A10008446104662468C461946634600E000BF95
:100A200001B5FFF7B7FF002848BF10F1000F01BD67
:100A30004DF808EDFFF7F4FF0CBF012000205DF832
:100A400008FB00BF4DF808EDFFF7EAFF34BF0120B7
:100A500000205DF808FB00BF4DF808EDFFF7E0FF50
:100A600094BF012000205DF808FB00BF4DF808EDA1
:100A7000FFF7CEFF94BF012000205DF808FB00BF08
:100A80004DF808EDFFF7C4FF34BF012000205DF8EA
:100A900008FB00BF4FEA410C7FEA6C5C02D150EAD0
:100AA000013C0AD14FEA430C7FEA6C5C02D152EA66
:100AB000033C02D14FF0000070474FF00100704737
:100AC0004FEA410212F5001215D211D56FF4787376
:100AD000B3EB625212D94FEAC12343F0004343EA19
:100AE000505311F0004F23FA02F018BF40427047F4
:100AF0004FF00000704750EA013005D111F000407E
:100B000008BF6FF0004070474FF00000704700BF13
:100B10004FEA4102B2F1E04324BFB3F5001CDCF11F
:100B2000FE5C0DD901F0004C4FEAC0024CEA507057
:100B3000B2F1004F40EB830008BF20F00100704786
:100B400011F0804F21D113F13872BCBF01F0004089
:100B5000704741F480114FEA5252C2F11802C2F1BB
:100B6000200C10FA0CF320FA02F018BF40F001003C
:100B70004FEAC1234FEAD32303FA0CFC40EA0C00EE
:100B800023FA02F34FEA4303CCE77FEA625307D12B
:100B900050EA01331EBF4FF0FE4040F44000704762
:100BA00001F0004040F0FE4040F40000704700BFFC
:100BB00080B485B000AF786039607B68184A934292
:100BC0000AD8184BFB607A68174B1344174AA2FBEC
:100BD00003231B09BB6009E0154BFB607A68154BCA
:100BE0001344124AA2FB03231B09BB60BB68032BFF
:100BF00005D9FB680433FB60BB68043BBB60FB6842
:100C00003A6802F03D020C48B968014409788A400C
:100C10001A6000BF1437BD465DF8047B704700BF03
:100C20000F64024008600240F09FFDBFABAAAAAA71
:100C300008640240F09BFDBFA85D000880B487B047
:100C400000AF7860396000237B6100233B610023A3
:100C5000FB607B681B4A93420AD81B4B3B617A6856
:100C60001A4B13441A4AA2FB03231B097B6109E0B8
:100C7000184B3B617A68184B1344154AA2FB0323B7
:100C80001B097B617B69032B05D93B6904333B61FD
:100C90007B69043B7B613B691B68FB600F4A7B6996
:100CA00013441B781A46FB68D340FB60FB6803F0D3
:100CB0003D03FB60FB6818461C37BD465DF8047BAE
:100CC000704700BF0F64024000600240F09FFDBF0C
:100CD000ABAAAAAA00640240F09BFDBFA85D000871
:100CE00080B483B000AF786000BF0C37BD465DF8BC
:100CF000047B704780B483B000AF786000BF0C37CE
:100D0000BD465DF8047B704780B483B000AF786067
:100D100000BF0C37BD465DF8047B704780B483B0DC
:100D200000AF786000BF0C37BD465DF8047B7047AC
:100D300080B483B000AF786000BF0C37BD465DF86B
:100D4000047B704780B584B000AF78603D2178683F
:100D5000FFF774FF0346FB813D217868FFF728FF0A
:100D6000FB8903F02003002B08D07B681B6803F08D
:100D70001003002B02D07868FFF7B2FFFB8903F065
:100D80001003002B08D07B681B6803F00803002BBE
:100D900002D07868FFF7AEFFFB8903F00803002B51
:100DA00008D07B681B6803F00403002B02D078682E
:100DB000FFF7AAFFFB8903F00403002B08D07B6830
:100DC0001B6803F00203002B02D07868FFF7A6FF30
:100DD000FB8903F00103002B08D07B685B6903F0FB
:100DE0008003002B02D07868FFF7A2FF00BF103706
:100DF000BD4680BD80B500AF0248FFF7A3FF00BF2E
:100E000080BD00BF1060024080B500AF0248FFF710
:100E100099FF00BF80BD00BF2860024080B500AFD1
:100E20000248FFF78FFF00BF80BD00BF4060024057
:100E300080B500AF0248FFF785FF00BF80BD00BF4F
:100E40005860024080B500AF0248FFF77BFF00BF4B
:100E500080BD00BF7060024080B500AF0248FFF760
:100E600071FF00BF80BD00BF8860024080B500AF49
:100E70000248FFF767FF00BF80BD00BFA0600240CF
:100E800080B500AF0248FFF75DFF00BF80BD00BF27
:100E9000B860024080B500AF0248FFF753FF00BFC3
:100EA00080BD00BF1064024080B500AF0248FFF76C
:100EB00049FF00BF80BD00BF2864024080B500AF7D
:100EC0000248FFF73FFF00BF80BD00BF4064024003
:100ED00080B500AF0248FFF735FF00BF80BD00BFFF
:100EE0005864024080B500AF0248FFF72BFF00BFF7
:100EF00080BD00BF7064024080B500AF0248FFF7BC
:100F000021FF00BF80BD00BF8864024080B500AFF4
:100F10000248FFF717FF00BF80BD00BFA06402407A
:100F200080B500AF0248FFF70DFF00BF80BD00BFD6
:100F3000B864024080B5FAB000AF3B1D1860E54AC6
:100F4000E44B5B8B9BB243F480539BB253833B1DBA
:100F500044F62061186800F0A5FBDE4ADD4B1B8BD0
:100F60009BB243F480539BB213833B1D44F6206134
:100F7000186800F097FB3B1D0121186800F0AAFBE0
:100F80003B1D4CF25031186800F08CFB07F1140344
:100F9000D14A92E8030083E8030007F11C031846D6
:100FA00000F0C2FE07F11C0307F1140207F108006C
:100FB00006CA00F0FAFE07F108023B1D1146186848
:100FC00000F024FB07F10803184600F00FFF07F1BB
:100FD0001C03184600F0B4FE07F12C03BF4A92E848
:100FE000030083E8030007F13403184600F09CFE79
:100FF00007F1340307F12C0207F1200006CA00F0C4
:10100000D4FE07F120023B1D1146186800F0FEFADD
:1010100007F12003184600F0E9FE07F134031846F3
:1010200000F08EFE07F14403AD4A92E8030083E826
:10103000030007F14C03184600F076FE07F14C035D
:1010400007F1440207F1380006CA00F0AEFE07F1CE
:1010500038023B1D1146186800F0D8FA07F1380332
:10106000184600F0C3FE07F14C03184600F068FE76
:1010700007F15C039B4A92E8030083E8030007F151
:101080006403184600F050FE07F1640307F15C02A8
:1010900007F1500006CA00F088FE07F150023B1D20
:1010A0001146186800F0B2FA07F15003184600F034
:1010B0009DFE07F16403184600F042FE07F1740339
:1010C000894A92E8030083E8030007F17C0318468D
:1010D00000F02AFE07F17C0307F1740207F16800B3
:1010E00006CA00F062FE07F168023B1D114618684F
:1010F00000F08CFA07F16803184600F077FE07F15C
:101100007C03184600F01CFE07F18C03774A92E836
:10111000030083E8030007F19403184600F004FE7F
:1011200007F1940307F18C0207F1800006CA00F072
:101130003CFE07F180023B1D1146186800F066FA7C
:1011400007F18003184600F051FE07F1940318469A
:1011500000F0F6FD07F1A403654A92E8030083E876
:10116000030007F1AC03184600F0DEFD07F1AC0305
:1011700007F1A40207F1980006CA00F016FE07F175
:1011800098023B1D1146186800F040FA07F19803D9
:10119000184600F02BFE07F1AC03184600F0D0FD16
:1011A00007F1BC03534A92E8030083E8030007F108
:1011B000C403184600F0B8FD07F1C40307F1BC02F0
:1011C00007F1B00006CA00F0F0FD07F1B0023B1DC8
:1011D0001146186800F01AFA07F1B003184600F03B
:1011E00005FE07F1C403184600F0AAFD07F1D40379
:1011F000414A92E8030083E8030007F1DC03184644
:1012000000F092FD07F1DC0307F1D40207F1C800FA
:1012100006CA00F0CAFD07F1C8023B1D1146186856
:1012200000F0F4F907F1C803184600F0DFFD07F1FC
:10123000DC03184600F084FD304A07F1EC0392E825
:10124000030083E8030007F1F403184600F06CFD87
:1012500007F1F40307F1E00007F1EC0206CA00F021
:10126000A4FD07F1E0023B1D1146186800F0CEF91D
:1012700007F1E003184600F0B9FD07F1F403184642
:1012800000F05EFD1E4A07F5827392E8030083E8D2
:10129000030007F58673184600F046FD07F58673D0
:1012A00007F1F80007F5827206CA00F07EFD07F12B
:1012B000F8023B1D1146186800F0A8F907F1F80381
:1012C000184600F093FD07F58673184600F038FDC8
:1012D00018E000BF000C0240F05C0008F85C000859
:1012E000005D0008085D0008105D0008185D00083A
:1012F000205D0008285D0008305D0008385D0008AA
:10130000405D0008B74A07F58E7392E8030083E852
:10131000030007F59273184600F006FD07F5927377
:1013200007F5887007F58E7206CA00F03EFD07F5D6
:1013300088723B1D1146186800F068F907F588733C
:10134000184600F053FD07F59273184600F0F8FCBC
:10135000A54A07F59A7392E8030083E8030007F5AE
:101360009E73184600F0E0FC07F59E7307F5947035
:1013700007F59A7206CA00F018FD07F594723B1D36
:101380001146186800F042F907F59473184600F00A
:101390002DFD07F59E73184600F0D2FC934A07F521
:1013A000A67392E8030083E8030007F5AA731846C2
:1013B00000F0BAFC07F5AA7307F5A07007F5A6724E
:1013C00006CA00F0F2FC07F5A0723B1D1146186832
:1013D00000F01CF907F5A073184600F007FD07F5AB
:1013E000AA73184600F0ACFC814A07F5B27392E884
:1013F000030083E8030007F5B673184600F094FC79
:1014000007F5B67307F5AC7007F5B27206CA00F0BF
:10141000CCFC07F5AC723B1D1146186800F0F6F8DD
:1014200007F5AC73184600F0E1FC07F5B6731846F3
:1014300000F086FC6F4A07F5BE7392E8030083E86C
:10144000030007F5C273184600F06EFC07F5C2737F
:1014500007F5B87007F5BE7206CA00F0A6FC07F5DE
:10146000B8723B1D1146186800F0D0F807F5B87344
:10147000184600F0BBFC07F5C273184600F060FC8C
:101480005D4A07F5CA7392E8030083E8030007F595
:10149000CE73184600F048FC07F5CE7307F5C4700C
:1014A00007F5CA7206CA00F080FC07F5C4723B1D3E
:1014B0001146186800F0AAF807F5C473184600F042
:1014C00095FC07F5CE73184600F03AFC4B4A07F539
:1014D000D67392E8030083E8030007F5DA73184631
:1014E00000F022FC07F5DA7307F5D07007F5D67225
:1014F00006CA00F05AFC07F5D0723B1D1146186869
:1015000000F084F807F5D073184600F06FFC07F57B
:10151000DA73184600F014FC394A07F5E27392E8D2
:10152000030083E8030007F5E673184600F0FCFBB0
:1015300007F5E67307F5DC7007F5E27206CA00F0FE
:1015400034FC07F5DC723B1D1146186800F05EF8AC
:1015500007F5DC73184600F049FC07F5E6731846FA
:1015600000F0EEFB274A07F5EE7392E8030083E8EC
:10157000030007F5F273184600F0D6FB07F5F27387
:1015800007F5E87007F5EE7206CA00F00EFC07F5E5
:10159000E8723B1D1146186800F038F807F5E8734B
:1015A000184600F023FC07F5F273184600F0C8FB5C
:1015B0003B1D1121186800F08DF83B1D1249186879
:1015C00000F070F83B1D2921186800F083F83B1DDE
:1015D0002C21186800F07EF800BF07F5F477BD46AF
:1015E00080BD00BF485D0008505D0008585D0008E0
:1015F000605D0008685D0008705D0008785D0008A7
:10160000805D0008885D000840420F0090B585B0FD
:1016100000AF786039600021386800F002FC0346B2
:101620001B781946786800F055F81C4A1B4B1B8B39
:101630009BB243F400539BB21383194A184B5B8B44
:101640009BB243F004039BB253830123FB73FC7BE7
:10165000386800F0F5FB03469C4234BF01230023A9
:10166000DBB2002B0ED0FB7B1946386800F0D9FBAB
:1016700003461B781946786800F0EEFAFB7B0133CD
:10168000FB73E4E7064A064B1B8B9BB243F0040353
:101690009BB2138300BF1437BD4690BD000C0240BF
:1016A0000008024080B483B000AF786039603B68C6
:1016B000002B14BF01230023DBB2002B03D03B68B7
:1016C000013B3B60F3E700BF0C37BD465DF8047B90
:1016D0007047000080B582B000AF78600B46FB70A9
:1016E000104A104B5B8B9BB243F400539BB2538365
:1016F0000D4A0D4B5B8B9BB243F004039BB25383AB
:10170000FB781946786800F0A7FA074A064B1B8B4E
:101710009BB243F004039BB2138300BF0837BD465E
:1017200080BD00BF000C02400008024080B582B0BE
:1017300000AF78600B46FB70104A104B1B8B9BB2BE
:1017400043F400539BB213830D4A0D4B5B8B9BB24A
:1017500043F004039BB25383FB781946786800F08A
:101760007BFA074A064B1B8B9BB243F004039BB2E8
:10177000138300BF0837BD4680BD00BF000C024088
:101780000008024080B582B000AF78600B467B80D5
:10179000144A144B1B8B9BB243F400539BB213832C
:1017A000114A114B5B8B9BB243F004039BB25383F2
:1017B0007B881B12DBB21946786800F04DFA7B88F3
:1017C000DBB21946786800F047FA074A064B1B8BD4
:1017D0009BB243F004039BB2138300BF0837BD469E
:1017E00080BD00BF000C02400008024080B584B0FC
:1017F00000AFF860084611461A4603467B810B4647
:101800003B811346FB802A21F868FFF763FF7B8941
:101810001946F868FFF7B6FFFB881946F868FFF726
:10182000B1FF2B21F868FFF755FF3B891946F8688F
:10183000FFF7A8FF3B8B1946F868FFF7A3FF00BF2F
:101840001037BD4680BD000080B582B000AF786023
:101850000B46FB7036217868FFF73CFFFB78032BC3
:101860001AD801A252F823F079180008811800084C
:10187000891800089118000858217868FFF756FF6A
:1018800088217868FFF752FF28217868FFF74EFF1C
:10189000E8217868FFF74AFF7B68FA781A70FB78CE
:1018A000002B02D0FB78012B07D17B68F0225A80F5
:1018B0007B684FF4A0729A8006E07B684FF4A072B8
:1018C0005A807B68F0229A8000BF0837BD4680BDF1
:1018D00080B584B002AF786039607B685B88013B7B
:1018E00099B27B689B88013B9BB23A680192009356
:1018F0000B4600220021786800F004F800BF08378A
:10190000BD4680BD80B588B002AFF860084611467C
:101910001A4603467B810B463B811346FB80F888C1
:101920003A8979893B8C00930346F868FFF75EFF9C
:101930002C21F868FFF7CEFEFA887B89D31A013391
:10194000398C3A898A1A013202FB03F37B613B4AE4
:101950003A4B5B8B9BB243F004039BB25383384AF0
:10196000374B1B8B9BB243F400539BB21383012173
:10197000F86800F03FF97B6A19887B694FF6FF72BF
:10198000934228BF13469BB21A46F86800F08AF9C2
:101990002C4B5B68002B11D12B4B5B68002B0DD1BE
:1019A0002A4B1B899BB203F00303002B06D0274B65
:1019B0001B899BB203F08003002B01D0012300E0C0
:1019C0000023002B00D0E3E77B69B3F5803F25D3EC
:1019D0007B6A19887B699BB201339BB21A46F8680F
:1019E00000F060F9174B5B68002B11D1164B5B6858
:1019F000002B0DD1154B1B899BB203F00303002B69
:101A000006D0124B1B899BB203F08003002B01D040
:101A1000012300E00023002B00D0E3E7074A074B37
:101A20001B8B9BB243F004039BB213830021F86825
:101A300000F0E0F800BF1837BD4680BD0008024046
:101A4000000C024088640240A06402400050014043
:101A500080B586B002AFF8607B600B467B81134691
:101A60003B8178893A8979893B8900930346F868F4
:101A7000FFF7BCFE2C21F868FFF72CFE7B681B8863
:101A80001946F868FFF77EFE00BF1037BD4680BDDF
:101A900080B58AB002AFF860084611461A46034680
:101AA0007B810B463B811346FB807B89FA68528819
:101AB000934203DBFB685B88013B7B81FB88FA6810
:101AC0005288934203DBFB685B88013BFB803B89C8
:101AD000FA689288934203DBFB689B88013B3B8159
:101AE0003B8DFA689288934203DBFB689B88013B3D
:101AF0003B857A89FB889A4205DD7B89BB83FB881D
:101B00007B81BB8BFB803A893B8D9A4205DD3B890B
:101B1000BB833B8D3B81BB8B3B85FA887B89D31A8A
:101B20009BB27B833A8D3B89D31A9BB23B83B7F937
:101B30001A30002B03D0B7F91830002B10D1FB6AF4
:101B40001B689BB2BB82F8883A89798907F1140334
:101B500001933B8D00930346F868FFF7D3FE46E000
:101B6000B7F91A20B7F918309A4206DDB7F91A30DA
:101B7000DA0F13445B101BB206E0B7F918305B4272
:101B8000DA0F13445B101BB2FB83FB6A1B689BB22A
:101B9000FB8207F116033A897989F868FFF758FF45
:101BA0007A89FB889A4203D13A893B8D9A421DD0AB
:101BB000B7F91E20B7F91A305B429A4207DDFA8B5B
:101BC0003B8BD31A9BB2FB837B8901337B81B7F9B3
:101BD0001E20B7F918309A42D7DAFA8B7B8B134460
:101BE0009BB2FB833B8901333B81CEE700BF2037AB
:101BF000BD4680BD80B483B000AF78600B46FB70FB
:101C0000144A144B1B889BB223F040039BB21380F1
:101C1000FB78012B08D10F4A0E4B1B889BB243F473
:101C200000639BB2138007E00A4A0A4B1B889BB2F1
:101C300023F400639BB21380064A064B1B889BB2B9
:101C400043F040039BB2138000BF0C37BD465DF8E4
:101C5000047B70470050014080B483B000AF7860CF
:101C60000B46FB700E4BFA7892B29A810C4B1B8993
:101C70009BB203F00303002B06D0094B1B899BB2D8
:101C800003F08003002B01D0012300E00023002B90
:101C900000D0EBE700BF0C37BD465DF8047B704712
:101CA0000050014080B483B000AF78600B467B8069
:101CB00013463B80194B5B68002B14BF01230023A4
:101CC000DBB2002B01D0002322E07B687A88DA8027
:101CD000134B4FF47412DA60104A104B1B6823F454
:101CE000806313600D4A3B8853600C4A7B6806335F
:101CF000D3600A4A094B1B6843F001031360094A89
:101D0000084B9B889BB243F002039BB29380012354
:101D100018460C37BD465DF8047B7047A06402404E
:101D2000006402400050014080B582B000AF78608E
:101D3000786800F095F87B6818460837BD4680BD86
:101D400080B582B000AF7860786800F094F87B6866
:101D500018460837BD4680BD80B483B000AF7860B8
:101D60007B681B6818460C37BD465DF8047B7047DE
:101D700080B483B000AF78607B685B6818460C372E
:101D8000BD465DF8047B704790B583B000AF7860C6
:101D90007868FFF7E1FF04467868FFF7E9FF03463C
:101DA000234418460C37BD4690BDB0B586B000AF91
:101DB000F860381D80E806003B60FB68396818460B
:101DC00000F070F83B1D1846FFF7C6FF04463B1DA8
:101DD0001846FFF7D9FF02462B462146F86800F067
:101DE00089F8FB6818461837BD46B0BDB0B582B05B
:101DF00000AF78607B681C687B685D687B6818460C
:101E000000F0A6F803461A462946204600F0ABF833
:101E10007B68184600F055F87B6818460837BD46C1
:101E2000B0BD80B483B000AF786039607B681A6859
:101E30003B68134418460C37BD465DF8047B704779
:101E400080B483B000AF78607B685B681A467B68BB
:101E50001B68D31A18460C37BD465DF8047B7047E3
:101E600080B483B000AF78607B6818460C37BD46FD
:101E70005DF8047B704780B483B000AF78607B6806
:101E800018460C37BD465DF8047B704780B582B0BC
:101E900000AF78607868FFF753FF7B681846083713
:101EA000BD4680BD80B582B000AF786039607B6888
:101EB0003968184600F065F87B6818460837BD4653
:101EC00080BD80B582B000AF78607B6819687B68A0
:101ED0009B681A467B681B68D31A1A46786800F01C
:101EE00067F87B681846FFF7D1FF7B68184608370C
:101EF000BD4680BD90B587B000AFF860B9607A602C
:101F00003B707968B86800F066F803467B61FB684F
:101F10007969184600F073F80246FB681A60FB689E
:101F20001A687B691A44FB689A60FB681C68FB6846
:101F3000184600F00DF8034622467968B86800F0AC
:101F400072F80246FB685A6000BF1C37BD4690BD60
:101F500080B483B000AF78607B6818460C37BD460C
:101F60005DF8047B704780B584B000AFF860B9605D
:101F70007A60B968F86800F067F800BF1037BD46AE
:101F800080BD80B582B000AF78603960396878680C
:101F900000F067F87B6800221A607B6800225A60B4
:101FA0007B6800229A607B6818460837BD4680BD72
:101FB00080B584B000AFF860B9607A60BB68002B70
:101FC00005D0FB687A68B968184600F058F800BF79
:101FD0001037BD4680BDB0B584B000AF78603960C1
:101FE0007C683B1D184600F059F82A46396820469F
:101FF00000F05EF8034618461037BD46B0BD80B508
:1020000082B000AF786039603B68002B06D07B68F7
:102010003968184600F05BF8034600E000231846D4
:102020000837BD4680BD80B584B000AFF860B960A8
:102030007A603B607A68B968F86800F057F8034640
:1020400018461037BD4680BD80B582B000AF7860BD
:1020500039603968786800F05BF800BF0837BD4622
:1020600080BD80B582B000AF78603960396878682B
:1020700000F059F87B6818460837BD4680BD80B52A
:1020800084B000AFF860B9607A607A68B968F868BF
:1020900000F055F800BF1037BD4680BD80B483B056
:1020A00000AF786018460C37BD465DF8047B70477A
:1020B00080B485B000AFF860B9603A71BA68FB6867
:1020C000D31A18461437BD465DF8047B704780B5B7
:1020D00082B000AF7860396000223968786800F01B
:1020E0003BF8034618460837BD4680BD80B586B02C
:1020F00000AFF860B9607A600123FB757A68B9684F
:10210000F86800F045F8034618461837BD4680BD0C
:1021100080B483B000AF7860396000BF0C37BD4633
:102120005DF8047B704780B483B000AF786039609D
:102130007B6818460C37BD465DF8047B704780B558
:1021400084B000AFF860B9607A60B86801F022FA34
:1021500000BF1037BD4680BD80B584B000AFF860C9
:10216000B9607A60F86800F023F80246BB689A42CA
:1021700034BF01230023DBB2002B01D001F026FA8B
:10218000B86801F009FA034618461037BD4680BD0D
:1021900080B584B000AFF860B9607A607A68B968D9
:1021A000F86800F011F8034618461037BD4680BDA8
:1021B00080B483B000AF78604FF0FF3318460C371F
:1021C000BD465DF8047B704790B585B000AFF86000
:1021D000B9607A60F86800F00FF80446B86800F05B
:1021E0000BF803467A681946204600F010F80346BB
:1021F00018461437BD4690BD80B483B000AF7860F8
:102200007B6818460C37BD465DF8047B7047B0B557
:1022100084B000AFF860B9607A60F86800F013F835
:102220000446B86800F00FF80546786800F016F824
:1022300003461A462946204600F01BF80346184676
:102240001037BD46B0BD80B483B000AF78607B6806
:1022500018460C37BD465DF8047B704780B483B0E8
:1022600000AF78607B6818460C37BD465DF8047B8C
:10227000704780B586B000AFF860B9607A6001231E
:10228000FB757A68B968F86800F005F803461846E7
:102290001837BD4680BD80B586B000AFF860B96024
:1022A0007A60BA68FB68D31A7B617B69002B05D022
:1022B0007B691A46F968786803F0D2FB7B697A6813
:1022C000134418461837BD4680BD000080B483B063
:1022D00000AF0346FB71094997F907305B0997F98D
:1022E000072002F01F02012000FA02F241F8232029
:1022F00000BF0C37BD465DF8047B704700E100E08D
:1023000080B483B000AF03463960FB7197F90730A2
:10231000002B0BDA0D49FB7903F00F03043B3A68FD
:10232000D2B21201D2B20B441A7609E0084997F9E9
:1023300007303A68D2B21201D2B20B4483F80023BC
:1023400000BF0C37BD465DF8047B704700ED00E030
:1023500000E100E080B400AF5F4A5F4B1B6B43F0CD
:10236000040313635C4A5C4B1B6B43F00803136369
:10237000594A594B1B6B43F020031363564A564B83
:102380005B6C43F480135364544A544B1B6843F012
:1023900080631360514A514B9B6843F080639360A4
:1023A0004F4A4F4B1B6843F0100313604C4A4C4B91
:1023B0009B6843F010039360484A484B1B6843F006
:1023C00080731360454A454BDB6843F08073D360EC
:1023D000444A444B1B6843F400431360414A414B59
:1023E0009B6843F4404393603E4A3E4B1B6A43F074
:1023F000A04313623B4A3B4B1B6843F4003313601A
:10240000384A384B9B6843F440339360354A354B28
:102410005B6A43F005035362324A324B1B6843F454
:10242000002313602F4A2F4B9B6843F44023936093
:102430002C4A2C4B5B6A43F0500353622A4A2A4BC6
:102440001B889BB243F400739BB21380264A264B31
:102450001B889BB243F480739BB21380224A224BA9
:102460001B889BB243F008039BB213801E4A1E4B8D
:102470001B889BB243F004039BB213801A4A1A4B89
:102480001B889BB243F040039BB21380124A124B4D
:102490001B6B43F480031363144A144B1B6843F013
:1024A00060631360114A114B1B6843F400531360BF
:1024B0000E4A0E4B1B6843F4006313600B4A0B4B30
:1024C0001B6843F040031360084B094A9A6000BF41
:1024D000BD465DF8047B704700380240000C0240A6
:1024E000000802400014024000500140A064024075
:1024F0000C50014080B400AF784A784B1B6C43F01D
:10250000010313644FF080424FF080439B889BB2DD
:1025100043F040039BB293804FF0804313221A850F
:102520004FF080436322DA624FF0804331225A63D6
:102530004FF080424FF080431B8C9BB243F001036D
:102540009BB213844FF080424FF080431B8B9BB2B1
:1025500043F060039BB213834FF080424FF08043FF
:102560001B889BB243F001039BB213805B4A5B4B19
:102570001B6B43F001031363584A584B1B6B43F02A
:1025800004031363554A554B5B6C43F480735364E7
:10259000534A534B1B6843F0C0031360514A514BDD
:1025A0001B6843F4406313604F4A4F4B5B6843F42E
:1025B000807353604C4B4FF48012DA624A4A4A4BA4
:1025C0005B6B43F00D035363474A474B5B6B43F030
:1025D000A0035363444A444BDB6843F44063D36035
:1025E000414A414B1B6943F4403313613E4A3E4B21
:1025F0009B6843F4806393603B4A3B4B9B6843F08A
:1026000080539360384A384B9B6843F0C0639360B3
:10261000354A354B9B6843F480739360324A324BA2
:102620009B6843F4007393602C4A2C4B1B6B43F460
:10263000800313632D4A2D4B1B6823F0C0031360E6
:102640002A4A2A4B1B6843F400331360274A274B5E
:102650001B6843F400631360244A244B1B6843F453
:1026600000531360214A214B1B6823F4007313604D
:102670001E4A1E4B1B6843F4806313601B4A1B4BAE
:102680001B6843F480731360184A184B1B6823F0CF
:10269000C0031360154A154B5B6843F00803536091
:1026A000124B134A9A60114B124ADA600F4A0F4BD1
:1026B0001B6823F0606313600C4A0C4B1B6843F0EB
:1026C00001031360084A084B9B6843F001039360C1
:1026D00000BFBD465DF8047B704700BF0038024074
:1026E0000008024000000240002001401064024047
:1026F0004C2001409C00002080B500AF164A164BCC
:102700001B6C43F002031364144B4FF47A721A8566
:10271000124B1E22DA62114A104B9B899BB243F086
:1027200001039BB293811D20FFF7D0FD00211D20E6
:10273000FFF7E6FD094A094B1B889BB243F00103F2
:102740009BB21380054A054B9B8A9BB243F0010361
:102750009BB2938200BF80BD00380240000400405D
:1027600080B500AF164A164B1B6C43F0040313648C
:10277000144B0A221A85134B4FF6FF72DA62114A84
:10278000104B9B899BB243F001039BB293811E20A7
:10279000FFF79CFD00211E20FFF7B2FD094A094BFF
:1027A0001B889BB243F001039BB21380054A054B83
:1027B0009B8A9BB243F001039BB2938200BF80BD12
:1027C000003802400008004080B483B000AF786059
:1027D0007B6800221A707B68F0225A807B684FF475
:1027E000A0729A807B680D4A083392E8030083E860
:1027F00003007B680A4A103392E8030083E8030071
:102800007B68084A183392E8030083E803007B687A
:1028100018460C37BD465DF8047B7047905D000894
:10282000985D0008A05D000880B483B000AF974BAE
:102830001B8A9BB203F00103002B14BF012300236A
:10284000DBB2002B00F06681904A904B1B8A9BB252
:1028500023F001039BB213828D4B1B889BB21A4657
:102860008B4B9B889BB21344894A128992B21344C2
:10287000874A928992B2134407EE903AF8EEE77ACB
:10288000F1EE006A87EEA67ADFED826AC7EE267A5D
:102890009FED817A67EE877AB3EE0E7A77EEC77A8C
:1028A000FCEEE77AC7ED017ABB889AB27B4B1A80BF
:1028B000774B5B889BB21A46754BDB889BB21344FF
:1028C000734A528992B21344714AD28992B2134424
:1028D00007EE903AF8EEE77AF1EE006A87EEA67A14
:1028E000DFED6C6AC7EE267A9FED6B7A67EE877A2A
:1028F000B3EE0E7A77EEC77AFCEEE77AC7ED017A8F
:10290000BB889AB2664B1A80664B1B78DBB283F0A9
:102910000103DBB2002B07D1634B1B78DAB2634BA8
:102920001B78DBB29A4219D0614B1B78DBB283F083
:102930000103DBB2002B11D05E4B1B889BB21A4601
:102940005D4B5B889A4209DA544B1B889BB21A464E
:10295000594B5B889A4201DB012300E00023002BE6
:1029600034D0534B01221A704F4B1B78DBB21946FF
:10297000524B1B889AB2504B1B88D31A9BB21AB287
:102980004F4B23F81120484B1B78DBB21A464C4BB7
:1029900033F912309BB2DB0BDBB2002B0FD0424B72
:1029A0001B78DBB21A461946454B33F911309BB2FE
:1029B00003F5A0739BB219B2414B23F812103E4BA2
:1029C0001B88013B9BB21AB23E4B1A80384B1B78D6
:1029D000DBB2002B0ED0394B1B889BB21A46324B10
:1029E0001B78DBB21946364B33F911309A4201D1CC
:1029F000012300E00023002B21D02D4B00221A7070
:102A0000294B1B78DBB2012B14BF01230023DBB25F
:102A10001A46254B1A70244B1B78DBB2002B01D1D0
:102A2000294B00E0294B2A4A13601F4B1B78DBB26D
:102A3000002B01D1274B00E0274B284A1360244B81
:102A40001A681E4B1B889BB25B001344134A128802
:102A500092B21A80214B1A68184B1B889BB25B00FC
:102A600013440F4A128892B21A80144B1B889BB2EF
:102A700040F23F1293420CBF01230023DBB2002B34
:102A80002ED00E4B00221A8031E000BF000400401F
:102A90009C0000200000804500007043AC00002036
:102AA000B0000020D00A0020D10A0020D20A002065
:102AB000CC0A0020AE00002000000020C40A002044
:102AC000D40A0020CE0A0020B400002034030020E5
:102AD000B40A0020B405002034080020B80A002001
:102AE0000F4B1B889BB201339AB20D4B1A800D4BD2
:102AF0001B78DBB2002B08D00B4B1B881BB29BB2A0
:102B000001339BB21AB2084B1A80084B1B889AB249
:102B1000074B1A8000BF0C37BD465DF8047B704739
:102B2000C40A0020CC0A0020CE0A0020AC000020FD
:102B3000AE00002080B400AF0E4B1B8A9BB203F0A6
:102B40000103002B14BF01230023DBB2002B0CD0A8
:102B5000084A084B1B8A9BB223F001039BB21382E5
:102B6000054B1B680133044A136000BFBD465DF886
:102B7000047B704700080040D80A0020B0B582B03E
:102B800000AF87ED010A38607868FDF795FC0446D0
:102B90000D463868FDF77EFC02460B4643EC112BD0
:102BA00045EC104B00F0ECFEB0EE407AF0EE607AAF
:102BB000B0EE470AF0EE670A0837BD46B0BD000028
:102BC000B0B59CB002AF0723FB640023BB64924BFB
:102BD00000221A6000237B667B6E7F2B17DC7B6EE6
:102BE0003F2B02DC4FF07E5201E04FF000028B4998
:102BF0007B6E9B000B441A60894A7B6E9B001344DA
:102C00004FF000021A607B6E01337B66E4E7854A71
:102C1000844B1B889BB223F001039BB213800023DB
:102C20003B663B6E7F2B26DCFB6CC3F120023B6EC8
:102C300093FAA3F363FA02F3BB64BA6C3B6E9A4255
:102C400015DD764A3B6E9B0013441B687B64734A18
:102C5000BB6C9B0013441A6870493B6E9B000B448D
:102C60001A606E4ABB6C9B0013447A6C1A603B6E10
:102C700001333B66D5E70123FB65FB6D7F2B00F33A
:102C8000D3800023BB65BA6DFB6D9A4280F2BA8097
:102C9000B86DFDF7FFFB5EA3D3E90023FDF760FCF1
:102CA00003460C4625461C46F86DFDF7F3FB02462D
:102CB0000B4620462946FDF77DFD03460C46184687
:102CC0002146FDF725FF03463B64386CFDF7F4FB16
:102CD00003460C4644EC103B00F0C6FD54EC103BA0
:102CE00018462146FDF714FF0346FB63386CFDF7D9
:102CF000E3FB03460C4644EC103B00F0F9FD54ECBA
:102D0000103B18462146FDF703FF0346BB63BB6D2E
:102D10007B657B6D7F2B71DC7A6DFB6D13447B6370
:102D20003E4A7B6D9B0013441B683B633C4A7B6DB2
:102D30009B0013441B68FB62384A7B6B9B00134467
:102D40001B68BB62364A7B6B9B0013441B687B622B
:102D500097ED0F7AD7ED0A7A27EE277AD7ED0E6A2C
:102D6000D7ED097A66EEA77A77EE677AC7ED087A2B
:102D700097ED0F7AD7ED097A27EE277AD7ED0E6A0D
:102D8000D7ED0A7A66EEA77A77EE277AC7ED077A4B
:102D900097ED0C7AD7ED087A77EE677A1F4A7B6B4E
:102DA0009B001344C3ED007A97ED0B7AD7ED077AB9
:102DB00077EE677A1A4A7B6B9B001344C3ED007A67
:102DC00097ED0C7AD7ED087A77EE277A134A7B6D68
:102DD0009B001344C3ED007A97ED0B7AD7ED077A89
:102DE00077EE277A0E4A7B6D9B001344C3ED007A81
:102DF000FB6D5B007A6D13447B658AE7BB6D013325
:102E0000BB6540E7FB6D5B00FB6536E7AFF3008019
:102E1000182D4454FB210940D80A0020000B002043
:102E2000000D0020000800400523BB6101233B6525
:102E30003B6D402B60DC3B6D013BBA6902FB03F349
:102E40007B612F4A3B6D9B001344D3ED007A022037
:102E5000B0EE670AFFF792FE55EC104B294A3B6D26
:102E60009B001344D3ED007A0220B0EE670AFFF70F
:102E700085FE53EC102B20462946FDF7BFF903468B
:102E80000C4644EC173BB0EE470AF0EE670A00F040
:102E9000EFFE54EC103B18462146FDF739FE034681
:102EA0003B6197ED047ADFED186AC7EE267AB7EE3C
:102EB000007A77EE677A9FED157A67EE877AFDEEF6
:102EC000E77A17EE903AFB607A69BB691344BB60FE
:102ED0007B6999B2FB689AB2BB6898B21F23FB80EA
:102EE000BB1D0193EF23009303460948FEF70AFD3B
:102EF0003B6D01333B659BE700BF6837BD46B0BD06
:102F0000000B0020000D00200000804200006F43F5
:102F1000E00A002090B58BB002AF00F00DFA00F08F
:102F200041FAFFF717FAFFF7E5FA3948FEF702F81A
:102F300003213748FEF788FC0023FB80BB1D1946A0
:102F40003348FEF7C5FCFFF70BFCFFF739FE314AAB
:102F5000304B1B889BB223F001039BB213802E4B96
:102F60001B681A042B4B5B6A13442C4A13602C4BCE
:102F70002C4A1A602C4B2D4A1A60FFF7BDFB2C4BD4
:102F80001B78DBB283F00103DBB2002B06D0294BA8
:102F90001B78DBB2002B01D0012300E00023002BC3
:102FA0001ED0234B01221A70234B00221A80234B80
:102FB0001B78DAB2224B1A70214B1B78DBB2002B44
:102FC00001D1184B00E01F4B1F4A13601C4B1B78AC
:102FD000DBB2002B01D1154B00E01C4B1C4A1360E7
:102FE000134B1B78DBB2002BC9D0154B1B78DAB220
:102FF000124B1B78DBB29A4208D1164B1B881BB2CE
:103000001A460D4B1B889BB29A4225DB012324E014
:10301000E00A002000080040D80A0020DC0A002056
:10302000B40A0020B4000020B80A0020B405002033
:10303000D00A0020CC0A0020C60A0020D10A0020B5
:10304000D20A002034030020BC0A002034080020EB
:10305000C00A0020CE0A00200023002B8FD0714B25
:103060001B78DBB21A46704B33F912309AB26F4BB1
:103070001B889BB21344FB83FB8BB3F5A07F03DB60
:10308000FB8BA3F5A073FB83684B1B889BB2002BC3
:103090000CBF01230023DBB2002B11D0644B1A6854
:1030A000FB8B5B0013441B889AB2624B1A80624B05
:1030B0001A68FB8B5B0013441B889AB25F4B1A8023
:1030C0005A4B1B8899B2594B1B889AB20023BB609C
:1030D00007F108030193EF23009313460022584899
:1030E000FEF7D6FC514B1B8899B2514B1A68FB8BEB
:1030F0005B0013441B8898B24C4B1B889CB24D4B11
:103100001B889BB24FF4FC62FA6007F10C0201923B
:103110000093234602464A48FEF7BAFC434B1B88FD
:1031200099B2454B1A68FB8B5B0013441B8898B21D
:103130003E4B1B889CB2414B1B889BB240F21D52F8
:103140003A6107F1100201920093234602463C487F
:10315000FEF79EFC364B1A68FB8B5B0013441B8802
:103160009AB2344B1A80344B1A68FB8B5B001344C1
:103170001B889AB2314B1A802C4B1B889BB20133AF
:103180009AB22A4B1A80294B1B889BB2B3F5A07FB9
:103190000CBF01230023DBB2002B02D0294B0022FD
:1031A0001A70224B1B889BB21A46274B1B8804338C
:1031B0009A420CBF01230023DBB2002B3FF4DFAEA9
:1031C000214B1988204B5B88043B98B21E4B1C880E
:1031D0001D4B5B8804339BB24FF6E0727A6107F1B6
:1031E000140201920093234602461548FEF750FC54
:1031F000154B1B88043B99B2134B5888124B1B8804
:1032000004339CB2104B5B884FF6E072BA6107F151
:10321000180201920093234602460948FEF738FC43
:10322000ADE600BFD20A0020D40A0020C60A002062
:10323000BC0A0020C80A0020C00A0020CA0A0020D8
:10324000E00A0020D00A00200000002080B582B0F3
:1032500000AF786039607B68012B07D13B684FF67F
:10326000FF72934202D10348FFF7AEFA00BF08375E
:10327000BD4680BDE00A002080B500AF4FF6FF716B
:103280000120FFF7E3FF80BDDFF834D0002103E029
:103290000C4B5B58435004310B480C4B42189A427C
:1032A000F6D30B4A02E0002342F8043B094B9A4252
:1032B000F9D300F041F802F09FFBFFF72BFE7047B7
:1032C00000000320DC8800080000002080000020AF
:1032D00080000020B40F0020FEE780B400AF00BFE4
:1032E000BD465DF8047B704780B400AFFEE780B454
:1032F00000AFFEE780B400AFFEE780B400AFFEE7AA
:1033000080B400AF00BFBD465DF8047B704780B459
:1033100000AF00BFBD465DF8047B704780B400AFCE
:1033200000BFBD465DF8047B704780B400AF00BFAE
:10333000BD465DF8047B704780B500AF164A164B5A
:10334000D3F8883043F47003C2F88830134A134B23
:103350001B6843F001031360104B00229A600F4A70
:103360000E4B1B6823F0847323F4803313600B4BE4
:103370000B4A5A60094A094B1B6823F480231360E7
:10338000064B0022DA6000F089F8034B4FF0006230
:103390009A6000BF80BD00BF00ED00E00038024031
:1033A0001030002480B487B000AF00233B610023BD
:1033B0007B610223FB600023BB6002237B60324BF6
:1033C0009B6803F00C033B613B69042B07D0082B7F
:1033D00009D0002B3DD12D4B2D4A1A603DE02B4BDF
:1033E0002C4A1A6039E0284B5B689B0D03F00103FF
:1033F000BB60254B5B6803F03F037B60BB68002B21
:103400000CD0244A7B68B2FBF3F31F4A526892093E
:10341000C2F3080202FB03F37B610BE01C4A7B68EA
:10342000B2FBF3F3184A52689209C2F3080202FB96
:1034300003F37B61144B5B681B0C03F00303013344
:103440005B00FB607A69FB68B2FBF3F30F4A136021
:1034500003E00E4B0E4A1A6000BF0B4B9B681B0922
:1034600003F00F030C4AD35CDBB23B61074B1A68D5
:103470003B6922FA03F3054A136000BF1C37BD46BF
:103480005DF8047B704700BF003802400400002054
:103490000024F40000127A000800002080B483B0F9
:1034A00000AF00237B6000233B60364A354B1B682E
:1034B00043F480331360334B1B6803F400333B60E9
:1034C0007B6801337B603B68002B03D17B68B3F5DD
:1034D000A06FF0D12B4B1B6803F40033002B02D0FC
:1034E00001233B6001E000233B603B68012B02D1DC
:1034F000244B254A5A60234A224B1B6C43F08053CD
:103500001364224A214B1B6843F4404313601D4A55
:103510001C4B9B6893601B4A1A4B9B6843F4004307
:103520009360184A174B9B6843F4A0539360154A65
:10353000144B1B6843F08073136000BF114B1B6872
:1035400003F00073002BF9D0114B40F205721A60A2
:103550000C4A0C4B9B6823F003039360094A094B08
:103560009B6843F00203936000BF064B9B6803F027
:103570000C03082BF9D100BF0C37BD465DF8047B66
:10358000704700BF00380240085A400700700040F2
:10359000003C024002F05CBA10B5002814BF04469B
:1035A0000124204602F04CFA30B900F007F808B9BF
:1035B00002F015FA8047F4E710BD0000024B1868CE
:1035C000BFF35B8F704700BF000F002008B502F00B
:1035D00006FA0000244B1A68D0075CBF01221A606B
:1035E000224B1A68D1075CBF01221A60204B1A686F
:1035F000D2075CBF01221A601E4B1A68D0075CBF5D
:1036000001221A601C4B1A68D1075CBF01221A60A4
:103610001A4B1A68D2075CBF01221A60184B1A684D
:10362000D0075CBF01221A60164B1A68D1075CBF35
:1036300001221A60144B1A68D2075CBF01221A607B
:10364000124B1A68D0075CBF01221A60104B1A682F
:10365000D1075CBF01221A600E4B1A68D2075CBF0B
:1036600001221A60704700BF300F00202C0F00208D
:10367000280F0020240F0020200F00201C0F002006
:10368000180F0020140F0020100F00200C0F002036
:10369000080F0020040F0020184B1A68D1075CBFE8
:1036A00001221A60164B1A68D2075CBF01221A6009
:1036B000144B1A68D0075CBF01221A60124B1A68BB
:1036C000D1075CBF01221A60104B1A68D2075CBF99
:1036D00001221A600E4B1A68D0075CBF01221A60E3
:1036E0000C4B1A68D1075CBF01221A600A4B1A689A
:1036F000D2075CBF01221A60704700BF500F002044
:103700004C0F0020480F0020440F0020400F0020E5
:103710003C0F0020380F0020340F0020244B1A6883
:10372000D0075CBF01221A60224B1A68D1075CBF28
:1037300001221A60204B1A68D2075CBF01221A606E
:103740001E4B1A68D0075CBF01221A601C4B1A6816
:10375000D1075CBF01221A601A4B1A68D2075CBFFE
:1037600001221A60184B1A68D0075CBF01221A6048
:10377000164B1A68D1075CBF01221A60144B1A68F5
:10378000D2075CBF01221A60124B1A68D0075CBFD7
:1037900001221A60104B1A68D1075CBF01221A601F
:1037A0000E4B1A68D2075CBF01221A60704700BF37
:1037B000800F00207C0F0020780F0020740F002065
:1037C000700F00206C0F0020680F0020640F002095
:1037D000600F00205C0F0020580F0020540F0020C5
:1037E000184B1A68D1075CBF01221A60164B1A6881
:1037F000D2075CBF01221A60144B1A68D0075CBF65
:1038000001221A60124B1A68D1075CBF01221A60AC
:10381000104B1A68D2075CBF01221A600E4B1A685F
:10382000D0075CBF01221A600C4B1A68D1075CBF3D
:1038300001221A600A4B1A68D2075CBF01221A6083
:10384000704700BFA00F00209C0F0020980F0020A1
:10385000940F0020900F00208C0F0020880F002074
:10386000840F0020000000001FB551EC100B1E4A11
:1038700021F00043934206DC9FED191B01F00CFA86
:1038800051EC100B07E0194A934209DD10EE102AA3
:103890000B46FCF7B1FC41EC100B05B05DF804FBE6
:1038A000684600F055FF00F0030001289DED021B63
:1038B0009DED000B07D002280ED00028DED001209D
:1038C00001F022FEDCE701F01FFE53EC102B10EE9E
:1038D000100A03F10041DEE701F0DEF9F5E700BF71
:1038E0000000000000000000FB21E93FFFFFEF7F28
:1038F0001FB551EC100B204A21F00043934207DC26
:103900009FED1B1B002001F0FFFD51EC100B07E0A9
:103910001A4A934209DD10EE102A0B46FCF76CFCA4
:1039200041EC100B05B05DF804FB684600F010FF99
:1039300000F0030001289DED021B9DED000B04D05B
:10394000022805D070B90120DDE701F0A5F9DCE718
:10395000012001F0D9FD53EC102B10EE100A03F1F9
:103960000041DDE701F098F9F5E700BFAFF3008013
:103970000000000000000000FB21E93FFFFFEF7F97
:103980002DE9F04F2DED048B8DB057EC106B55ECFD
:10399000114B00F0C9F9AE4BB0EE408AF0EE608AF0
:1039A00093F90090B9F1FF3F98465FD022462B462D
:1039B00020462946FDF76EF88346002856D1324648
:1039C0003B4630463946FDF765F80190E8B10022E4
:1039D000002320462946FDF72BF8002846D0012376
:1039E00002939C4B03939C4BCDF828B00022B9F175
:1039F000020FCDE90467CDE90645CDE9082333D0B0
:103A000002A801F0D1FE48BB5EE04FF0000A4FF083
:103A1000000B52465B4630463946FDF709F84BEC41
:103A200019AB002855D052465B4620462946FCF784
:103A3000FFFF804618B301230293864B0393019B3B
:103A40000A93CDE90467CDE90645CDE908ABB9F1A4
:103A5000000FD5D0804B0022CDE908230A9B1BB173
:103A600001F0C4FF0A9B03609DED088BB0EE480A8D
:103A7000F0EE680A0DB0BDEC048BBDE8F08F45ECAC
:103A8000104B01F002FE0028F0D052465B46204663
:103A90002946FCF7D7FF0028E8D0012302936D4B9D
:103AA00003936B4BCDF8288093F90030CDE9046780
:103AB000CDE9064513B9CDE908ABA1E76749002078
:103AC000CDE90801022B9BD101F090FF2123036077
:103AD000C4E7B0EE480AF0EE680A01F0D6FD0190A6
:103AE000002840F08A8047EC106B01F0CEFD0028E2
:103AF00000F0838045EC104B01F0C7FD00287CD01E
:103B000053EC182B18EE100A1946FCF7C3FF98F96E
:103B10000090504BB0B101220393019B02920A9393
:103B2000CDE90467CDE90645B9F1000FC3D052468F
:103B30005B4650465946FCF73DFEB9F1020FCDE910
:103B40000801C0E70322029203930A90CDE90467BB
:103B5000CDE90645B9F1000F2CD1414B4FF0604241
:103B6000CDE90823304652465B463946FCF76AFFEA
:103B7000002866D000223B4B20462946FCF7F0FC8B
:103B800004460D4645EC104B01F01AFE204653EC5E
:103B9000102B2946FCF74CFF20B9334B4FF0604205
:103BA000CDE9082398F90030022B4AD101F01EFF1D
:103BB00022238CE72D4B0022CDE9082330465246C4
:103BC0005B463946FCF73EFF0028EBD00022254B30
:103BD00020462946FCF7C4FC04460D4645EC104B34
:103BE00001F0EEFD204653EC102B2946FCF720FF98
:103BF0000028D7D10022194BD2E70022002351EC34
:103C0000180BFCF715FF00283FF430AF47EC106BA2
:103C100001F03BFD00283FF429AF45EC104B01F0CB
:103C200034FD00283FF422AF04230293094B039391
:103C300000230A93CDE90467CDE906458DED089B85
:103C4000B0E702A801F0B0FD00287FF407AFADE7B0
:103C500018000020388600080000F03F0000F0FF48
:103C6000FFFFEF470000E03FFFFFEFC70000F07FDE
:103C70002DE9F0432DED028B8BB055EC104B00F08D
:103C800059FF264BB0EE408AF0EE608A93F900604F
:103C9000731C2AD022462B4620462946FCF7FAFE02
:103CA000074610BB4FF000084FF0000942464B4654
:103CB00020462946FCF7C6FEB8B101230093184BF5
:103CC00001930897CDE90445CDE90245B6B9CDE9A0
:103CD0000689684601F068FDD0B1089B1BB101F070
:103CE00085FE089B03609DED068BB0EE480AF0EE62
:103CF000680A0BB0BDEC028BBDE8F08342464B4630
:103D000040464946FCF756FD022ECDE90601E0D1BA
:103D100001F06CFE21230360DFE700BF18000020E4
:103D20003C860008000000002DE9F04F91B08DEDB9
:103D3000001B9DE8040257EC106B29F0004858EA7C
:103D4000020310EE10AA3D4600F0BD84784B27F028
:103D500000449C4209DC03D13EB9A0450DDC01E0E2
:103D6000984502DC98450ED16AB104F1404404F54F
:103D7000801454EA0A0300F0A6846E4811B0BDE82E
:103D8000F04F01F015BD002D53DA6B4B98454DDC1B
:103D9000A3F1547398454CDD4FEA2853A3F2FF3347
:103DA000142B26DDC3F1340322FA03F101FA03F3E5
:103DB0009A423ED101F00101C1F1020B002A5BD110
:103DC0005B4B984524D104F1404303F5801353EA3B
:103DD0000A0300F07884594B9C422DDDB9F1000FA5
:103DE00080F275840020002141EC100B11B0BDE879
:103DF000F08F002A3ED1C3F1140348FA03F101FA0F
:103E000003F3984540F06B8401F00101C1F1020B0E
:103E10004B4B984518D1B9F1000F80F25C844849AA
:103E200032463B460020FCF7C5FCDDE74FF0020BB5
:103E3000C4E74FF0000BC1E7B9F1000FD2DA9DE8FB
:103E4000090003F10041CFE7B9F1804F06D13246B6
:103E50003B4610461946FCF783FBC5E7394B9945AD
:103E60000AD1002D08DB47EC106B11B0BDE8F04F14
:103E700000F060BE4FF0000B47EC106B01F0FEFB52
:103E800051EC100BBAF1000F27D124B12C4B25F0C7
:103E900040429A4221D1B9F1000F05DA02460B46A1
:103EA00000202749FCF786FC002D9DDA04F14044F0
:103EB00004F5801454EA0B0308D102460B46104661
:103EC0001946FCF799F902460B46ACE7BBF1010F26
:103ED0008AD101F10043194686E7ED0F6B1E0D9361
:103EE0005BEA030302D132463B46E8E7164B9845AE
:103EF00040F3FE8003F1047398450ADD0F4B9C42AA
:103F00000DDCB9F1000FBFF66DAF07A3D3E90023B5
:103F10009FE70E4B9C42F4DD094B9C4218DDB9F142
:103F2000000FF2DC5EE700BF9C7500883CE4377E42
:103F30000000F07F40860008FFFF3F43FFFFEF3F98
:103F40000000F03F0000E03F0000E041FEFFEF3FD7
:103F50000022634BFCF750F955A3D3E90023044634
:103F60000D46FCF7FDFA54A3D3E9002306460F469D
:103F700020462946FCF7F4FA0022CDE90201594B0C
:103F800020462946FCF7ECFA02460B464CA1D1E943
:103F90000001FCF731F922462B46FCF7E1FA024614
:103FA0000B4600205049FCF727F922462B46804655
:103FB000894620462946FCF7D3FA02460B4640467E
:103FC0004946FCF7CDFA40A3D3E90023FCF7C8FA31
:103FD00002460B46DDE90201FCF70EF902460B46EC
:103FE00004460D4630463946FCF708F90020CDE975
:103FF000040132463B46FCF7FFF802460B462046DA
:104000002946FCF7F9F80D9A0BF1FF3313430646E6
:104010000F4640F0EB819FED2E7BDDE9004500244B
:1040200022462B46DDE900018DED027BFCF7E4F82A
:10403000DDE90423FCF794FADDE900238046894694
:1040400030463946FCF78CFA02460B464046494654
:10405000FCF7D4F822462B4680468946DDE9040168
:10406000FCF77EFA0B4604460D460246494640469A
:10407000CDE90045FCF7C2F81C4B994206460F46B5
:104080008B4640F3F78201F13F4303F5E00303431E
:1040900000F0EA8110A3D3E90023DDE90201FCF777
:1040A0005FFA0DA3D3E90023D5E600BFAFF300808C
:1040B000000000604715F73F44DF5DF80BAE543E4B
:1040C000555555555555D53FFE822B654715F73F3C
:1040D000000000000000F0BF9C7500883CE4377EC3
:1040E0000000F03F0000D03F0000E03FFFFF8F40A6
:1040F000B4F5801F4FF0000205DAD34BFCF730FA1D
:104100006FF034020C462315A3F2FF3313440793D8
:10411000CE4BC4F3130444F07F559C4245F4401544
:1041200008DDCB4B9C4240F35E81079B0133079334
:10413000A5F580154FF0000A4FEACA030C930C9ABC
:10414000C44B134493ED007B294653EC172B8DEDA4
:104150000A7BCDE90801FCF74FF8DDE90A230646A2
:104160000F46DDE90801FCF749F802460B4600203E
:10417000B949FCF71FFBCDE90E0102460B4630465C
:104180003946FCF7EDF9CDE90401DDE90434CDE968
:10419000023400230293DDE902896D1045F00055D9
:1041A00005F50025002205EB8A43404649461446A2
:1041B0001D46FCF7D5F902460B4630463946FCF75A
:1041C0001BF8DDE90A2306460F4620462946FCF780
:1041D00013F802460B46DDE90801FCF70DF84246EC
:1041E0004B46FCF7BDF902460B4630463946FCF714
:1041F00003F8DDE90E23FCF7B3F9DDE90423CDE98B
:10420000080110461946FCF7ABF97BA3D3E900235C
:1042100004460D46FCF7A4F979A3D3E90023FBF784
:10422000EDFF22462B46FCF79BF977A3D3E9002349
:10423000FBF7E4FF22462B46FCF792F974A3D3E97F
:104240000023FBF7DBFF22462B46FCF789F972A31C
:10425000D3E90023FBF7D2FF22462B46FCF780F977
:104260006FA3D3E90023FBF7C9FF224606460F469A
:104270002B4620462946FCF773F902460B4630468A
:104280003946FCF76DF9424604460D464B46DDE9DA
:104290000401FBF7B3FFDDE90823FCF761F92246CF
:1042A0002B46FBF7ABFF424606460F464B464046C1
:1042B0004946FCF755F90022684BCDE90A01FBF7A6
:1042C0009DFF32463B46FBF799FF02980D46044698
:1042D00002460B4640464946FCF742F9002280461A
:1042E00089465E4B20462946FBF786FFDDE90A2317
:1042F000FBF782FF02460B4630463946FBF77CFF50
:10430000DDE90423FCF72CF9224606460F462B462E
:10431000DDE90801FCF724F902460B463046394630
:10432000FBF76CFF06460F4602460B4640464946E1
:10433000FBF764FF02983CA3D3E9002304460D4633
:10434000FCF70EF94246CDE908014B4620462946C6
:10435000FBF752FF02460B4630463946FBF74CFF4F
:1043600033A3D3E90023FCF7FBF833A3D3E90023FD
:1043700006460F4620462946FCF7F2F802460B4651
:1043800030463946FBF73AFF0C9A354B1344D3E9D4
:104390000023FBF733FF044607980D46FCF77AF835
:1043A0000C9A304B1344D3E9008906460F46224647
:1043B0002B46DDE90801FBF721FF42464B46FBF7A0
:1043C0001DFF32463B46FBF719FF029832463B463B
:1043D000CDE90401FBF710FF42464B46FBF70CFF0B
:1043E000DDE9082307E64FF0010AA5E69FED147BFF
:1043F00013E600BFAFF30080EF4E454A287ECA3F68
:1044000065DBC9934A86CD3F01411DA96074D13F48
:104410004D268F515555D53FFFAB6FDBB66DDB3F5A
:10442000033333333333E33F000000E009C7EE3F8B
:10443000FD033ADC09C7EE3FF5015B14E02F3EBEF9
:10444000000000000000F03F000040438E98030091
:1044500079B60B00488600080000F03F00000840D5
:104460006886000858860008B6A3D3E900234046B2
:104470004946FBF7C3FE2246CDE904012B463046F0
:104480003946FBF7B9FE02460B46DDE90401FCF7AD
:10449000F7FA00287FF4FEADA54A2BF000439342C3
:1044A00040F30C811B154FF4801AA3F2FE334AFA35
:1044B00003F35B44C3F30A529E4EA2F2FF3216414D
:1044C000C3F3130A002023EA0601C2F114024AF4DE
:1044D000801A4AFA02FABBF1000F02460B46204648
:1044E0002946B8BFCAF1000AFBF786FECDE90001F4
:1044F00042464B46DDE90001FBF780FE00207AA32F
:10450000D3E9002304460D46FCF72AF8DDE9002331
:1045100006460F4620462946FBF76EFE02460B462E
:1045200040464946FBF768FE71A3D3E90023FCF738
:1045300017F871A3D3E9002380468946204629460F
:10454000FCF70EF802460B4640464946FBF756FE7E
:1045500004460D4602460B4630463946FBF74EFEF2
:1045600032463B4680468946FBF746FE02460B46EE
:1045700020462946FBF740FE424606460F464B467C
:1045800040464946FBF7ECFF5DA3D3E90023044610
:104590000D46FBF7E5FF5CA3D3E90023FBF72CFEF8
:1045A00022462B46FBF7DCFF59A3D3E90023FBF798
:1045B00025FE22462B46FBF7D3FF57A3D3E9002362
:1045C000FBF71AFE22462B46FBF7CAFF54A3D3E99A
:1045D0000023FBF713FE22462B46FBF7C1FF0246E2
:1045E0000B4640464946FBF707FE04460D46024689
:1045F0000B4640464946FBF7B3FF0022CDE90001D8
:104600004FF0804320462946FBF7F6FD02460B4655
:10461000DDE90001FCF7CEF8324604460D463B4684
:1046200040464946FBF79CFF32463B46FBF7E6FD1A
:1046300002460B4620462946FBF7DEFD42464B4626
:10464000FBF7DAFD02460B4600203B49FBF7D4FDA1
:1046500001EB0A54B4F5801F02460B4631DA50468E
:1046600043EC102B01F034F951EC100BDDE902237F
:10467000FFF7F1BB314B21F000469E427FF70CAFB4
:104680002F4B0B4403430BD027A3D3E90023DDE9D1
:104690000201FBF765FF24A3D3E90023FFF7DBBB8F
:1046A00022462B46FBF7A8FD02460B4640464946EC
:1046B000FCF7D2F900283FF4EFAEE5E74FF0000A2F
:1046C00016E72146D2E700201B49FFF78DBBDDE945
:1046D0000001FFF789BB30463946FFF785BB93469B
:1046E000FFF796BBAFF3008000000000432EE63FCB
:1046F000EF39FAFE422EE63F396CA80C615C20BE11
:10470000D0A4BE726937663EF16BD2C541BDBB3ED7
:104710002CDE25AF6A56113F93BDBE166CC1663FB5
:104720003E5555555555C53F59F3F8C21F6EA50165
:104730000000E03FFFFF0F000000F03FFFCB904084
:1047400000346F3FFE822B654715973C0000000048
:104750002DE9F04F57EC106BC34B8DB027F000489C
:1047600098450446049707DC0022002384ED000BE3
:10477000C0E90223002527E0BC4B984575DC049B6B
:10478000BB4D002B10EE100AA9A3D3E90023394634
:1047900036DDFBF731FDA84506460F4618D0A6A327
:1047A000D3E90023FBF728FD02460B46C4E90023AA
:1047B00030463946FBF720FD9FA3D3E90023FBF7E2
:1047C0001BFDC4E90201012528460DB0BDE8F08FAC
:1047D0009BA3D3E90023FBF70FFD9BA3D3E90023A1
:1047E00006460F46FBF708FD02460B46C4E90023C8
:1047F00030463946FBF700FD93A3D3E90023DEE7FB
:10480000FBF7FCFCA84506460F4616D08AA3D3E961
:104810000023FBF7F3FC02460B46C4E900233046B5
:104820003946FBF7E9FC84A3D3E90023FBF7E6FC58
:104830004FF0FF35C4E90201C6E781A3D3E90023A5
:10484000FBF7DCFC80A3D3E9002306460F46FBF709
:10485000D5FC02460B46C4E9002330463946FBF737
:10486000CBFC79A3D3E90023E0E7824B984500F322
:10487000D08000F003FF57EC106B10EE100A74A309
:10488000D3E900233946FBF76BFE00227A4BFBF796
:10489000B5FCFCF715F90546FBF7FCFD64A3D3E96D
:1048A0000023CDE90201FBF75BFE02460B463046D2
:1048B0003946FBF7A1FC60A3D3E9002382468B466F
:1048C000DDE90201FBF74CFE1F2D06460F462ADCF0
:1048D0006A1E6A4B53F82230984524D032463B4634
:1048E00050465946FBF788FCC4E90001D4E9008929
:1048F000504642464B465946FBF77EFC3B46324605
:10490000FBF77AFC049B002BC4E90201BFF65CAF05
:1049100009F100436360C4F80080A06001F1004326
:10492000E3606D4250E732463B4650465946FBF73E
:1049300063FC4FEA2852C1F30A53D31A102BC4E97F
:1049400000010592D2DD3EA3D3E90023DDE9020197
:10495000FBF706FE06460F4602460B4650465946F2
:10496000FBF74AFC02460B468046894650465946AC
:10497000FBF742FC32463B46FBF73EFC32A3D3E951
:10498000002306460F46DDE90201FBF7E9FD32464A
:104990003B46FBF731FC02460B4606460F464046B7
:1049A0004946FBF729FC059AC1F30A53D31A312B68
:1049B000C4E900012ADD28A3D3E90023DDE90201CF
:1049C000FBF7CEFD06460F4602460B4640464946DB
:1049D000FBF712FC02460B4682468B464046494690
:1049E000FBF70AFC32463B46FBF706FC1CA3D3E967
:1049F000002306460F46DDE90201FBF7B1FD324612
:104A00003B46FBF7F9FB06460F4667E7C246CB4637
:104A10006CE71B4B984535DD10EE102A3B463046BF
:104A20003946FBF7E9FBC4E90201C4E90001A1E64C
:104A300000004054FB21F93F3163621A61B4D03D5C
:104A40000000601A61B4D03D7370032E8A19A33B35
:104A500083C8C96D305FE43F0000002E8A19A33B74
:104A6000C14920259A837B39FB21E93F7BD902404C
:104A7000FB21F93FFB2139410000E03F7886000827
:104A8000FFFFEF7F4FEA2855A5F21645A8EB055129
:104A900030460F46FCF714F8FBF7FCFC02460B46C9
:104AA00030463946CDE90623FBF7A6FB00221F4B13
:104AB000FBF756FD0F460646FCF702F8FBF7EAFC4B
:104AC00002460B4630463946CDE90823FBF794FBF6
:104AD0000022164BFBF744FDCDE90A010DF1300928
:104AE0004FF003080026002732463B4679E90201D1
:104AF00008F1FF3AFBF79CFFB0B90D4B019302237D
:104B000000932A464346214606A800F0ADF9049BCF
:104B1000002B0546BFF658AE636803F1004363609F
:104B2000E36803F10043FBE6D046DDE70000704197
:104B3000F88600082DE9F04155EC104B544EAE4379
:104B400010EE100A2B462A46214613D110EE102AE9
:104B50002B4610EE100A2946FBF702FD02460B46D3
:104B600020462946FBF74AFB04460D4645EC104B10
:104B7000BDE8F081002D10DC25F000463043F5D073
:104B80005DB110EE102A2B4620462946FBF734FB78
:104B900002460B46FBF70EFEE6E71B150CD1002A7A
:104BA0006DD00020D6026ED5441E1B1BC0F1200420
:104BB00021FA04F422438140A3F2FF33C2F313022B
:104BC000DD0742F4801242BF520002EBD17249006D
:104BD0005810002502EBD1731A44490016232C46C5
:104BE0004FF40016A7199742DEBFD21BBC19AD19AE
:104BF0005200013B02EBD1724FEA56064FEA4101E7
:104C0000F0D14FF0200E9C464FF00046A24206EB3A
:104C10000C0702DC12D18F4210D8002F07EB060CD4
:104C200034DABCF1000F31DB04F10108121B8F42B2
:104C300088BF02F1FF32C91B3344444602EBD177EF
:104C4000BEF1010E3A444FEA41014FEA5606DDD16A
:104C50000A4306D05C1C13BF01330135734623F0B1
:104C600001036A105B08E90702F17F5202F50012A6
:104C700048BF43F0004302EB00551C4676E7CA0AE2
:104C8000153B49058BE7520001308BE7A046CDE785
:104C90000000F07F000000002DE9F04F59EC108B70
:104CA00029F0004785B0B7F1795F8DED001B07DA79
:104CB00010EE100A4946FBF703FF002800F0AA8017
:104CC00042464B4640464946FBF74AFC59A3D3E9C6
:104CD000002304460D46FBF743FC58A3D3E9002309
:104CE000FBF78CFA22462B46FBF73AFC55A3D3E997
:104CF0000023FBF781FA22462B46FBF731FC53A336
:104D0000D3E90023FBF77AFA22462B46FBF728FC6F
:104D100050A3D3E90023FBF76FFA22462B46FBF79B
:104D20001FFC4EA3D3E90023FBF768FA2B4622466B
:104D3000FBF716FC3A4B9F4282468B462CDC002246
:104D4000384B20462946FBF70BFC524606460F46D9
:104D50005B4620462946FBF703FCDDE900230446B9
:104D60000D4640464946FBF7FBFB02460B462046F4
:104D70002946FBF741FA02460B4630463946FBF717
:104D80003BFA0B46284902460020FBF735FA41EC76
:104D9000100B05B0BDE8F08F244B23499F42D7BFCD
:104DA000A7F50013224F00221646D4BF1F46002647
:104DB00032463B460020FBF71FFA0022CDE90201F4
:104DC000184B20462946FBF7CBFB32463B46FBF708
:104DD00013FA524606460F465B4620462946FBF725
:104DE000BFFBDDE9002304460D4640464946FBF77C
:104DF000B7FB02460B4620462946FBF7FDF9024663
:104E00000B4630463946FBF7F7F902460B46DDE91B
:104E10000201BAE700200449B9E700BFAFF3008000
:104E20003233D33F0000E03F0000F03F0000E93F95
:104E30000000D23FD43888BEE9FAA8BDC4B1B4BDE1
:104E40009EEE213EAD529C804F7E923E9015CB1936
:104E5000A001FA3E7751C1166CC1563F4C555555CD
:104E60005555A53F000000002DE9F04F2DED028BB8
:104E7000ADF5197DD41E06930291C34BA4990990F8
:104E800053F821300093069B013B0493182394FBB5
:104E9000F3F46FF0170324EAE47404FB033303EB29
:104EA000020A009B049A9FEDB48B03EB0208A59BBA
:104EB000A71A20AE03EB87090025454513DD9FEDBA
:104EC000AE8B0DF5E07B0026009B9E4232DC099BF9
:104ED0000393069B9D1920AB03EBC503089359EC84
:104EE000188B00271FE0EF4207D459F82500FBF785
:104EF000D1FAE6E802010135DFE751EC180BF8E7DB
:104F00000899039D71E902230891F5E802010395D0
:104F1000FBF726FB02460B4640464946FBF76EF977
:104F2000013780468946049B9F42E9DDEBE8028910
:104F30000136C9E7009B009F0CAA02EB83030B9389
:104F4000A59B03EB84030A9398AB07F1005B03EB8B
:104F5000C7030BF1FF3B53E928894FEACB030893C2
:104F6000089A98AB1344A3F1980B0026BB1B002BA7
:104F700077DC49EC108B504600F0AAFC55EC104B46
:104F800000224FF07F5310EE100A2946FBF7E8FA93
:104F900041EC100B00F084FB002251EC100B7B4B1A
:104FA000FBF7DEFA02460B4620462946FBF724F9BA
:104FB0000D460446FBF784FD0390FBF76BFA0246AF
:104FC0000B4620462946FBF717F9BAF1000F804639
:104FD00089466BDD7A1E0CABCAF1180153F822002A
:104FE000039C40FA01F31C448B40C01A0CAB0394A1
:104FF00043F82200CAF1170340FA03FBBBF1000F8C
:1050000062DD039B00220133039314466FF07F415E
:10501000974200F38980BAF1000F07DDBAF1010F62
:1050200000F09680BAF1020F00F09C80BBF1020FF5
:105030004AD142464B4600205549FBF7DDF88046F1
:105040008946002C40D050469FED4D0B00F040FCAF
:105050004046494653EC102BFBF7CEF88046894674
:1050600032E000224B4B40464946FBF779FAFBF70A
:1050700027FDFBF70FFA0022474B04460D46FBF7CE
:105080006FFA02460B4640464946FBF7B5F8FBF778
:1050900017FD0CAB294643F826007BE90223204686
:1050A000FBF7ACF80136804689465FE706D17B1EE8
:1050B0000CAA52F823004FEAE05B9FE70022374B2F
:1050C000FBF7D4FC68BB83460022002340464946D8
:1050D000FBF7AEFC002800F0C1807C1E23460022B6
:1050E00000998B425CDA002A40F08B8001246FF03B
:1050F000030202FB04F30B99CB58002B56D0089BFC
:1051000098AA1344A3F1900B069BDD1920AB03EB87
:10511000C505E3197E1C0393039B9E4248DD1F4691
:1051200012E74FF0020B6CE70CAB53F822304CB98E
:105130002BB10CA8C3F1807340F822300123013257
:105140001C4665E70CA8CB1A40F822302346F6E748
:105150007A1E0CAB53F82230C3F316030CA941F8A6
:10516000223063E77A1E0CAB53F82230C3F31503E9
:10517000F4E700BFAFF30080000000000000000073
:10518000000000000000F03F4088000800002040C0
:105190000000F03F0000703E000070410000E03F62
:1051A0000CA951F82310013B0A4399E70134A0E709
:1051B0000A9B53F82600FBF76DF9E5E80201099B0D
:1051C00008951C4600274FF000084FF00009049B8B
:1051D0009F4203DDEBE8028901369DE7089971E9FA
:1051E00002230891F4E80201FBF7BAF902460B46E4
:1051F00040464946FBF702F8013780468946E6E714
:10520000013C0CABAAF1180A53F82430002BF7D05C
:1052100050469FEDB50B00F05BFBE50098AB03EB50
:10522000050957EC106BA9F19809A046B8F1000FD9
:105230004DDA9FEDAF8B0DF5907A0023049357461E
:10524000049BB4EB030976D4AB4B1E4670AB03EB67
:10525000C9098DED068B4FF000085EE0CAF1000031
:1052600049EC108B00F034FB55EC104B0022A34BA3
:1052700010EE100A2946FBF7F9FBF8B10022A04B0B
:1052800020462946FBF76CF9FBF71AFC0646FBF7AC
:1052900001F90022994BFBF763F90B4602462946B8
:1052A0002046FAF7A9FFFBF70BFC7C1C0CAB0AF1BC
:1052B000180A43F8270043F82460A9E72046294646
:1052C000FBF7FEFB0CAB3C4643F82700A0E70CAB1A
:1052D00053F82800FBF7DEF832463B46FBF740F96F
:1052E000002269E90201864B30463946FBF738F95E
:1052F00008F1FF3806460F4698E7F9E80223F6E87A
:105300000201FBF72DF902460B46DDE90601FAF72B
:1053100075FFCDE9060108F10108009B984502DC04
:10532000049B9845E9DD049B9DED067B0133AAECC7
:10533000027B049384E7A49B032B5DD8DFE803F092
:105340004B26260298AB1D44A5F59C752E46A24619
:10535000BAF1000F6EDC2E46A246BAF1010F00F33F
:105360008A8000200021012C00F3A680BBF1000FF1
:1053700040F0A880DDE94823029CC4E90023DDE970
:105380004A23C4E90401C4E9022335E0083548ABE7
:105390001D44264600200021002E3CDABBF1000F00
:1053A0003FD0024601F10043029DC5E900230246B9
:1053B0000B46DDE94801FAF71FFF4AAE0125AC4272
:1053C00032DABBF1000F02D001F100431946029B13
:1053D000C3E9020110E098AB1D44A5F59C750020BF
:1053E0000021002C11DABBF1000F02D001F10043C3
:1053F0001946029BC3E90001039B03F007000DF56A
:10540000197DBDEC028BBDE8F08F75E90223FAF738
:10541000F5FE013CE5E775E90223FAF7EFFE013EF0
:10542000BAE702460B46BFE7F6E80223FAF7E6FEC4
:105430000135C4E716ED027B56E9048953EC172BBE
:10544000404649468DED007BFAF7D8FECDE90401D0
:1054500002460B4640464946FAF7CEFEDDE90023F8
:10546000FAF7CCFE9DED047B66E902010AF1FF3AF2
:1054700006ED027B6CE716ED027B56E9048953ECDE
:10548000172B404649468DED007BFAF7B7FECDE974
:10549000040102460B4640464946FAF7ADFEDDE9F7
:1054A0000023FAF7ABFE9DED047B66E902010AF1E9
:1054B000FF3A06ED027B50E775E90223FAF79EFEFC
:1054C000013C50E7029A3B6813607B68106103F16E
:1054D00000435360BB689360FB6803F10043D360F3
:1054E00001F10043536187E7000000000000F03F36
:1054F000000000000000000000880008000070416B
:105500000000703E000000002DE9F04F55EC104BFC
:1055100085B025F00043B3F1795F8DED001B02905B
:1055200006DA10EE100A2946FBF7CAFA002851D015
:1055300022462B4620462946FBF712F882468B4628
:1055400002460B4620462946FBF70AF841A3D3E959
:1055500000238046894650465946FBF701F83FA391
:10556000D3E90023FAF748FE52465B46FAF7F8FF04
:105570003CA3D3E90023FAF741FE52465B46FAF713
:10558000EFFF3AA3D3E90023FAF736FE52465B4613
:10559000FAF7E6FF37A3D3E90023FAF72FFE029BC1
:1055A00006460F46DBB902460B4650465946FAF707
:1055B000D7FF25A3D3E90023FAF71EFE42464B4648
:1055C000FAF7CEFF02460B4620462946FAF716FEAA
:1055D00004460D4645EC104B05B0BDE8F08F0022A7
:1055E0001B4BDDE90001FAF7BBFF3246CDE90201B2
:1055F0003B4640464946FAF7B3FF02460B46DDE913
:105600000201FAF7F9FD52465B46FAF7A9FFDDE918
:105610000023FAF7F1FD0CA3D3E9002306460F4659
:1056200040464946FAF79CFF02460B46304639464B
:10563000FAF7E4FD02460B4620462946FAF7DCFD60
:10564000C6E700BFAFF30080495555555555C53FD6
:105650000000E03F7CD5CF5A3AD9E53DEB9C2B8A40
:10566000E6E55A3E7DFEB157E31DC73ED561C1193F
:10567000A0012A3FA6F810111111813F53EC102B05
:1056800023F0004343EC102B704710EE903A43F0A8
:10569000004000F58010C00F7047000000000000BF
:1056A00051EC100B2DE9F041C1F30A57A7F2FF3678
:1056B000132E10EE108A0C4610EE105A35DC002E18
:1056C00017DA35A3D3E90023FAF798FD0022002367
:1056D000FBF7D6F950B1002C5ADA24F0004353EA14
:1056E00008032F4B4FF0000518BF1C4621462846E3
:1056F00025E02C4F374101EA070303431FD026A3BF
:10570000D3E90023FAF77AFD00220023FBF7B8F96A
:105710000028EBD0002CBEBF4FF4801343FA06F6EE
:10572000A41924EA07040025E0E7332E0BDDB6F5C3
:10573000806F04D110EE102A0B46FAF75FFD41ECA2
:10574000100BBDE8F081A7F213474FF0FF3323FAA7
:1057500007F73842F3D010A3D3E90023FAF74EFD40
:1057600000220023FBF78CF90028BFD0002C02DABE
:10577000142E03D1013425EA0705B7E70123C6F14A
:10578000340603FA06F63544A84588BFE418F2E764
:1057900000252C46AAE700BF9C7500883CE4377EB4
:1057A0000000F0BFFFFF0F00002070470000000066
:1057B0009FED010B704700BF000000000000F87F64
:1057C000F7B551EC100BC1F30A54A4F2FF36132EB7
:1057D00010EE107A0B4602464FEAD17558DC002EC7
:1057E0002BDA21F00042024323D0C1F3130202431B
:1057F00051421143090B5B0C01F400215B0441EAA7
:105800000307314B03EBC5033946D3E9006710EEBC
:10581000100A32463B46FAF7F1FCCDE900013B465F
:105820003246DDE90001FAF7E7FC21F0004343EAE4
:10583000C57141EC100B03B0F0BD244C344101EABA
:1058400004070743F5D0610803EA010002430BD0C7
:1058500023EA01014FF48023132E43FA06F30CBF11
:105860004FF0004200220B431946174B03EBC505CE
:10587000D5E9004510462B462246FAF7BFFCCDE994
:10588000000122462B46DDE90001FAF7B5FCD0E71E
:10589000332E08DDB6F5806FCBD110EE102A0B4603
:1058A000FAF7ACFCC5E7A4F213464FF0FF34F4401E
:1058B0002042BED061080F421FBF4FF0804227EA4E
:1058C000010132410A43CFE750880008FFFF0F0073
:1058D00070B555EC104BC5F30A5206462B46B2B9CB
:1058E00025F0004323433CD00022334B294610EEE1
:1058F000100AFAF735FE314A964204460D460B4629
:1059000013DA29A3D3E90023FAF72AFE0AE040F2CA
:10591000FF718A420CD110EE102A2B4620462946F0
:10592000FAF76CFC04460D461BE0C1F30A52363A06
:10593000324440F2FE718A420BDD45EC114B9FED83
:105940001C0B00F03FF81AA3D3E9002351EC100B15
:10595000DAE7002A08DD23F0FF4323F4E00343EAFB
:10596000025545EC104B70BD12F1350F0DDA4CF2BB
:1059700050339E4245EC114BE1DC9FED0B0B00F0E8
:1059800021F809A3D3E90023E0E723F0FF433632EF
:1059900023F4E00343EA0255204629460022084B3F
:1059A000B2E700BFAFF3008059F3F8C21F6EA50144
:1059B0009C7500883CE4377E00005043B03CFFFFFC
:1059C0000000903C53EC102B11EE900A23F00041A4
:1059D00000F0004041EA000343EC102B704708B58B
:1059E000062000F03BF9012000F074F9014B186823
:1059F000704700BF1C00002070B50D4E0D4CA41B5D
:105A0000A4100025A54209D10B4E0C4C00F064F9FE
:105A1000A41BA4100025A54205D170BD56F8253061
:105A200098470135EEE756F8253098470135F2E7FB
:105A3000C0880008C0880008C0880008D88800080E
:105A4000024B0146186800F073B800BF1C0000202C
:105A5000024B0146186800F01DB800BF1C00002072
:105A6000884210B501EB020303D8421E99420CD1C3
:105A700010BD9842F9D28118D21AD34200D110BD7C
:105A800013F8014D01F8014DF7E711F8014B02F849
:105A9000014FEBE738B50546002945D051F8043CE5
:105AA0000C1F002BB8BFE41800F0F4F81F4A13686D
:105AB000104633B9636014602846BDE8384000F0F2
:105AC000EAB8A3420CD921686218934204BF1A684D
:105AD0005B68636004BF521822600460ECE7134601
