:020000040800F2
:10000000000003209D350008EF350008FD3500088D
:1000100003360008093600080F360008000000000B
:10002000000000000000000000000000153600087D
:100030002336000800000000313600083F36000873
:10004000ED350008ED350008ED350008ED35000808
:10005000ED350008ED350008ED350008ED350008F8
:10006000ED350008ED350008ED350008F50D000808
:10007000090E00081D0E0008310E0008450E00088C
:10008000590E00086D0E0008ED350008ED3500082A
:10009000ED350008ED350008ED350008ED350008B8
:1000A000ED350008ED350008ED350008ED350008A8
:1000B000ED350008092800086D2C0008ED35000812
:1000C000ED350008ED350008ED350008ED35000888
:1000D000ED350008ED350008ED350008ED35000878
:1000E000ED350008ED350008ED350008ED35000868
:1000F000ED350008ED350008ED350008810E0008EB
:10010000ED350008ED350008ED350008ED35000847
:10011000ED350008ED350008ED350008ED35000837
:10012000950E0008A90E0008BD0E0008D10E0008AB
:10013000E50E0008ED350008ED350008ED35000846
:10014000ED350008ED350008ED350008ED35000807
:10015000F90E00080D0F0008210F0008ED3500080A
:10016000ED350008ED350008ED350008ED350008E7
:10017000ED350008ED350008ED350008ED350008D7
:10018000ED350008ED350008ED350008ED350008C7
:10019000ED350008ED350008ED350008ED350008B7
:0C01A000ED350008ED350008ED350008D5
:1001B00010B5054C237833B9044B13B10448AFF3A1
:1001C00000800123237010BD840000200000000087
:1001D000F05F000808B5034B1BB103490348AFF3B8
:1001E000008008BD0000000088000020F05F0008CB
:1001F00081F0004102E000BF83F0004330B54FEAD8
:1002000041044FEA430594EA050F08BF90EA020F44
:100210001FBF54EA000C55EA020C7FEA645C7FEAD7
:10022000655C00F0E2804FEA5454D4EB5555B8BFFA
:100230006D420CDD2C4480EA020281EA030382EA6B
:10024000000083EA010180EA020281EA0303362DFD
:1002500088BF30BD11F0004F4FEA01314FF4801CD0
:100260004CEA113102D0404261EB410113F0004FE2
:100270004FEA03334CEA133302D0524263EB430399
:1002800094EA050F00F0A780A4F10104D5F1200E37
:100290000DDB02FA0EFC22FA05F2801841F1000192
:1002A00003FA0EF2801843FA05F359410EE0A5F166
:1002B00020050EF1200E012A03FA0EFC28BF4CF097
:1002C000020C43FA05F3C01851EBE37101F000454D
:1002D00007D54FF0000EDCF1000C7EEB00006EEB5A
:1002E0000101B1F5801F1BD3B1F5001F0CD34908E4
:1002F0005FEA30004FEA3C0C04F101044FEA44523B
:1003000012F5800F80F09A80BCF1004F08BF5FEAC1
:10031000500C50F1000041EB045141EA050130BDA1
:100320005FEA4C0C404141EB010111F4801FA4F144
:100330000104E9D191F0000F04BF01460020B1FA99
:1003400081F308BF2033A3F10B03B3F120020CDAD1
:100350000C3208DD02F1140CC2F10C0201FA0CF0AF
:1003600021FA02F10CE002F11402D8BFC2F1200C14
:1003700001FA02F120FA0CFCDCBF41EA0C019040CA
:10038000E41AA2BF01EB0451294330BD6FEA040413
:100390001F3C1CDA0C340EDC04F11404C4F12002FE
:1003A00020FA04F001FA02F340EA030021FA04F310
:1003B00045EA030130BDC4F10C04C4F1200220FA67
:1003C00002F001FA04F340EA0300294630BD21FAA5
:1003D00004F0294630BD94F0000F83F4801306BF6B
:1003E00081F480110134013D4EE77FEA645C18BF5F
:1003F0007FEA655C29D094EA050F08BF90EA020FF6
:1004000005D054EA000C04BF1946104630BD91EAED
:10041000030F1EBF0021002030BD5FEA545C05D1F0
:100420004000494128BF41F0004130BD14F580042F
:100430003CBF01F5801130BD01F0004545F0FE41A3
:1004400041F470014FF0000030BD7FEA645C1ABFD8
:10045000194610467FEA655C1CBF0B46024650EA0F
:10046000013406BF52EA033591EA030F41F400213B
:1004700030BD00BF90F0000F04BF0021704730B5C1
:100480004FF4806404F132044FF000054FF0000196
:1004900050E700BF90F0000F04BF0021704730B557
:1004A0004FF4806404F1320410F0004548BF40422C
:1004B0004FF000013EE700BF42004FEAE2014FEA81
:1004C00031014FEA02701FBF12F07F4393F07F4F5C
:1004D00081F06051704792F0000F14BF93F07F4F8E
:1004E000704730B54FF4607401F0004521F00041D1
:1004F00020E700BF50EA010208BF704730B54FF057
:1005000000050AE050EA010208BF704730B511F05B
:10051000004502D5404261EB41014FF4806404F193
:1005200032045FEA915C3FF4DCAE4FF003025FEA15
:10053000DC0C18BF03325FEADC0C18BF033202EB9D
:10054000DC02C2F1200300FA03FC20FA02F001FAF7
:1005500003FE40EA0E0021FA02F11444C1E600BF96
:1005600070B54FF0FF0C4CF4E06C1CEA11541DBF49
:100570001CEA135594EA0C0F95EA0C0F00F0DEF814
:100580002C4481EA030621EA4C5123EA4C5350EAF9
:10059000013518BF52EA033541F4801143F480134A
:1005A00038D0A0FB02CE4FF00005E1FB02E506F0DB
:1005B0000042E0FB03E54FF00006E1FB03569CF030
:1005C000000F18BF4EF0010EA4F1FF04B6F5007F36
:1005D00064F5407404D25FEA4E0E6D4146EB0606A8
:1005E00042EAC62141EA55514FEAC52040EA5E5031
:1005F0004FEACE2EB4F1FD0C88BFBCF5E06F1ED8DB
:10060000BEF1004F08BF5FEA500E50F1000041EB11
:10061000045170BD06F0004646EA010140EA0200BE
:1006200081EA0301B4EB5C04C2BFD4EB0C0541EAE0
:10063000045170BD41F480114FF0000E013C00F3F5
:10064000AB8014F1360FDEBF002001F0004170BD19
:10065000C4F10004203C35DA0C341BDC04F1140432
:10066000C4F1200500FA05F320FA04F001FA05F2BE
:1006700040EA020001F0004221F0004110EBD3708B
:1006800021FA04F642EB06015EEA430E08BF20EAB7
:10069000D37070BDC4F10C04C4F1200500FA04F35A
:1006A00020FA05F001FA04F240EA020001F00041EC
:1006B00010EBD37041F100015EEA430E08BF20EA5F
:1006C000D37070BDC4F1200500FA05F24EEA020EA7
:1006D00020FA04F301FA05F243EA020321FA04F0D6
:1006E00001F0004121FA04F220EA020000EBD3708D
:1006F0005EEA430E08BF20EAD37070BD94F0000F8D
:100700000FD101F00046400041EB010111F4801FC0
:1007100008BF013CF7D041EA060195F0000F18BF71
:10072000704703F00046520043EB030313F4801FAD
:1007300008BF013DF7D043EA0603704794EA0C0F67
:100740000CEA135518BF95EA0C0F0CD050EA41067D
:1007500018BF52EA4306D1D181EA030101F00041FA
:100760004FF0000070BD50EA410606BF1046194622
:1007700052EA430619D094EA0C0F02D150EA01362E
:1007800013D195EA0C0F05D152EA03361CBF10466F
:1007900019460AD181EA030101F0004141F0FE410E
:1007A00041F470014FF0000070BD41F0FE4141F492
:1007B000780170BD70B54FF0FF0C4CF4E06C1CEA92
:1007C00011541DBF1CEA135594EA0C0F95EA0C0F47
:1007D00000F0A7F8A4EB050481EA030E52EA033502
:1007E0004FEA013100F088804FEA03334FF0805523
:1007F00045EA131343EA12634FEA022245EA111550
:1008000045EA10654FEA00260EF000419D4208BF00
:10081000964244F1FD0404F5407402D25B084FEAAD
:100820003202B61A65EB03055B084FEA32024FF459
:1008300080104FF4002CB6EB020E75EB030E22BFB6
:10084000B61A754640EA0C005B084FEA3202B6EB76
:10085000020E75EB030E22BFB61A754640EA5C0025
:100860005B084FEA3202B6EB020E75EB030E22BFB5
:10087000B61A754640EA9C005B084FEA3202B6EBB6
:10088000020E75EB030E22BFB61A754640EADC0075
:1008900055EA060E18D04FEA051545EA16754FEAD7
:1008A00006164FEAC30343EA52734FEAC2025FEAF5
:1008B0001C1CC0D111F4801F0BD141EA00014FF084
:1008C00000004FF0004CB6E711F4801F04BF014355
:1008D0000020B4F1FD0C88BFBCF5E06F3FF6AFAE71
:1008E000B5EB030C04BFB6EB020C5FEA500C50F101
:1008F000000041EB045170BD0EF0004E4EEA113184
:1009000014EB5C04C2BFD4EB0C0541EA045170BD8A
:1009100041F480114FF0000E013C90E645EA060ECE
:100920008DE60CEA135594EA0C0F08BF95EA0C0FFC
:100930003FF43BAF94EA0C0F0AD150EA01347FF444
:1009400034AF95EA0C0F7FF425AF104619462CE71B
:1009500095EA0C0F06D152EA03353FF4FDAE10467E
:10096000194622E750EA410618BF52EA43067FF4CF
:10097000C5AE50EA41047FF40DAF52EA43057FF45F
:10098000EBAE12E74FF0FF3C06E000BF4FF0010C6A
:1009900002E000BF4FF0010C4DF804CD4FEA410CCE
:1009A0007FEA6C5C4FEA430C18BF7FEA6C5C1BD09B
:1009B00001B050EA410C0CBF52EA430C91EA030F1C
:1009C00002BF90EA020F0020704710F1000F91EA79
:1009D000030F58BF994208BF90422CBFD8176FEA47
:1009E000E37040F0010070474FEA410C7FEA6C5C15
:1009F00002D150EA013C07D14FEA430C7FEA6C5C1C
:100A0000D6D152EA033CD3D05DF8040B704700BF47
:100A10008446104662468C461946634600E000BF95
:100A200001B5FFF7B7FF002848BF10F1000F01BD67
:100A30004DF808EDFFF7F4FF0CBF012000205DF832
:100A400008FB00BF4DF808EDFFF7EAFF34BF0120B7
:100A500000205DF808FB00BF4DF808EDFFF7E0FF50
:100A600094BF012000205DF808FB00BF4DF808EDA1
:100A7000FFF7CEFF94BF012000205DF808FB00BF08
:100A80004DF808EDFFF7C4FF34BF012000205DF8EA
:100A900008FB00BF4FEA410C7FEA6C5C02D150EAD0
:100AA000013C0AD14FEA430C7FEA6C5C02D152EA66
:100AB000033C02D14FF0000070474FF00100704737
:100AC0004FEA410212F5001215D211D56FF4787376
:100AD000B3EB625212D94FEAC12343F0004343EA19
:100AE000505311F0004F23FA02F018BF40427047F4
:100AF0004FF00000704750EA013005D111F000407E
:100B000008BF6FF0004070474FF00000704700BF13
:100B10004FEA4102B2F1E04324BFB3F5001CDCF11F
:100B2000FE5C0DD901F0004C4FEAC0024CEA507057
:100B3000B2F1004F40EB830008BF20F00100704786
:100B400011F0804F21D113F13872BCBF01F0004089
:100B5000704741F480114FEA5252C2F11802C2F1BB
:100B6000200C10FA0CF320FA02F018BF40F001003C
:100B70004FEAC1234FEAD32303FA0CFC40EA0C00EE
:100B800023FA02F34FEA4303CCE77FEA625307D12B
:100B900050EA01331EBF4FF0FE4040F44000704762
:100BA00001F0004040F0FE4040F40000704700BFFC
:100BB00080B485B000AF786039607B68184A934292
:100BC0000AD8184BFB607A68174B1344174AA2FBEC
:100BD00003231B09BB6009E0154BFB607A68154BCA
:100BE0001344124AA2FB03231B09BB60BB68032BFF
:100BF00005D9FB680433FB60BB68043BBB60FB6842
:100C00003A6802F03D020C48B968014409788A400C
:100C10001A6000BF1437BD465DF8047B704700BF03
:100C20000F64024008600240F09FFDBFABAAAAAA71
:100C300008640240F09BFDBFC060000880B487B02C
:100C400000AF7860396000237B6100233B610023A3
:100C5000FB607B681B4A93420AD81B4B3B617A6856
:100C60001A4B13441A4AA2FB03231B097B6109E0B8
:100C7000184B3B617A68184B1344154AA2FB0323B7
:100C80001B097B617B69032B05D93B6904333B61FD
:100C90007B69043B7B613B691B68FB600F4A7B6996
:100CA00013441B781A46FB68D340FB60FB6803F0D3
:100CB0003D03FB60FB6818461C37BD465DF8047BAE
:100CC000704700BF0F64024000600240F09FFDBF0C
:100CD000ABAAAAAA00640240F09BFDBFC060000856
:100CE00080B483B000AF786000BF0C37BD465DF8BC
:100CF000047B704780B483B000AF786000BF0C37CE
:100D0000BD465DF8047B704780B483B000AF786067
:100D100000BF0C37BD465DF8047B704780B483B0DC
:100D200000AF786000BF0C37BD465DF8047B7047AC
:100D300080B483B000AF786000BF0C37BD465DF86B
:100D4000047B704780B584B000AF78603D2178683F
:100D5000FFF774FF0346FB813D217868FFF728FF0A
:100D6000FB8903F02003002B08D07B681B6803F08D
:100D70001003002B02D07868FFF7B2FFFB8903F065
:100D80001003002B08D07B681B6803F00803002BBE
:100D900002D07868FFF7AEFFFB8903F00803002B51
:100DA00008D07B681B6803F00403002B02D078682E
:100DB000FFF7AAFFFB8903F00403002B08D07B6830
:100DC0001B6803F00203002B02D07868FFF7A6FF30
:100DD000FB8903F00103002B08D07B685B6903F0FB
:100DE0008003002B02D07868FFF7A2FF00BF103706
:100DF000BD4680BD80B500AF0248FFF7A3FF00BF2E
:100E000080BD00BF1060024080B500AF0248FFF710
:100E100099FF00BF80BD00BF2860024080B500AFD1
:100E20000248FFF78FFF00BF80BD00BF4060024057
:100E300080B500AF0248FFF785FF00BF80BD00BF4F
:100E40005860024080B500AF0248FFF77BFF00BF4B
:100E500080BD00BF7060024080B500AF0248FFF760
:100E600071FF00BF80BD00BF8860024080B500AF49
:100E70000248FFF767FF00BF80BD00BFA0600240CF
:100E800080B500AF0248FFF75DFF00BF80BD00BF27
:100E9000B860024080B500AF0248FFF753FF00BFC3
:100EA00080BD00BF1064024080B500AF0248FFF76C
:100EB00049FF00BF80BD00BF2864024080B500AF7D
:100EC0000248FFF73FFF00BF80BD00BF4064024003
:100ED00080B500AF0248FFF735FF00BF80BD00BFFF
:100EE0005864024080B500AF0248FFF72BFF00BFF7
:100EF00080BD00BF7064024080B500AF0248FFF7BC
:100F000021FF00BF80BD00BF8864024080B500AFF4
:100F10000248FFF717FF00BF80BD00BFA06402407A
:100F200080B500AF0248FFF70DFF00BF80BD00BFD6
:100F3000B864024080B5FAB000AF3B1D1860E54AC6
:100F4000E44B5B8B9BB243F480539BB253833B1DBA
:100F500044F62061186800F0A5FBDE4ADD4B1B8BD0
:100F60009BB243F480539BB213833B1D44F6206134
:100F7000186800F097FB3B1D0121186800F0AAFBE0
:100F80003B1D4CF25031186800F08CFB07F1140344
:100F9000D14A92E8030083E8030007F11C031846D6
:100FA00000F0C2FE07F11C0307F1140207F108006C
:100FB00006CA00F0FAFE07F108023B1D1146186848
:100FC00000F024FB07F10803184600F00FFF07F1BB
:100FD0001C03184600F0B4FE07F12C03BF4A92E848
:100FE000030083E8030007F13403184600F09CFE79
:100FF00007F1340307F12C0207F1200006CA00F0C4
:10100000D4FE07F120023B1D1146186800F0FEFADD
:1010100007F12003184600F0E9FE07F134031846F3
:1010200000F08EFE07F14403AD4A92E8030083E826
:10103000030007F14C03184600F076FE07F14C035D
:1010400007F1440207F1380006CA00F0AEFE07F1CE
:1010500038023B1D1146186800F0D8FA07F1380332
:10106000184600F0C3FE07F14C03184600F068FE76
:1010700007F15C039B4A92E8030083E8030007F151
:101080006403184600F050FE07F1640307F15C02A8
:1010900007F1500006CA00F088FE07F150023B1D20
:1010A0001146186800F0B2FA07F15003184600F034
:1010B0009DFE07F16403184600F042FE07F1740339
:1010C000894A92E8030083E8030007F17C0318468D
:1010D00000F02AFE07F17C0307F1740207F16800B3
:1010E00006CA00F062FE07F168023B1D114618684F
:1010F00000F08CFA07F16803184600F077FE07F15C
:101100007C03184600F01CFE07F18C03774A92E836
:10111000030083E8030007F19403184600F004FE7F
:1011200007F1940307F18C0207F1800006CA00F072
:101130003CFE07F180023B1D1146186800F066FA7C
:1011400007F18003184600F051FE07F1940318469A
:1011500000F0F6FD07F1A403654A92E8030083E876
:10116000030007F1AC03184600F0DEFD07F1AC0305
:1011700007F1A40207F1980006CA00F016FE07F175
:1011800098023B1D1146186800F040FA07F19803D9
:10119000184600F02BFE07F1AC03184600F0D0FD16
:1011A00007F1BC03534A92E8030083E8030007F108
:1011B000C403184600F0B8FD07F1C40307F1BC02F0
:1011C00007F1B00006CA00F0F0FD07F1B0023B1DC8
:1011D0001146186800F01AFA07F1B003184600F03B
:1011E00005FE07F1C403184600F0AAFD07F1D40379
:1011F000414A92E8030083E8030007F1DC03184644
:1012000000F092FD07F1DC0307F1D40207F1C800FA
:1012100006CA00F0CAFD07F1C8023B1D1146186856
:1012200000F0F4F907F1C803184600F0DFFD07F1FC
:10123000DC03184600F084FD304A07F1EC0392E825
:10124000030083E8030007F1F403184600F06CFD87
:1012500007F1F40307F1E00007F1EC0206CA00F021
:10126000A4FD07F1E0023B1D1146186800F0CEF91D
:1012700007F1E003184600F0B9FD07F1F403184642
:1012800000F05EFD1E4A07F5827392E8030083E8D2
:10129000030007F58673184600F046FD07F58673D0
:1012A00007F1F80007F5827206CA00F07EFD07F12B
:1012B000F8023B1D1146186800F0A8F907F1F80381
:1012C000184600F093FD07F58673184600F038FDC8
:1012D00018E000BF000C0240086000081060000821
:1012E00018600008206000082860000830600008CE
:1012F000386000084060000848600008506000083E
:1013000058600008B74A07F58E7392E8030083E837
:10131000030007F59273184600F006FD07F5927377
:1013200007F5887007F58E7206CA00F03EFD07F5D6
:1013300088723B1D1146186800F068F907F588733C
:10134000184600F053FD07F59273184600F0F8FCBC
:10135000A54A07F59A7392E8030083E8030007F5AE
:101360009E73184600F0E0FC07F59E7307F5947035
:1013700007F59A7206CA00F018FD07F594723B1D36
:101380001146186800F042F907F59473184600F00A
:101390002DFD07F59E73184600F0D2FC934A07F521
:1013A000A67392E8030083E8030007F5AA731846C2
:1013B00000F0BAFC07F5AA7307F5A07007F5A6724E
:1013C00006CA00F0F2FC07F5A0723B1D1146186832
:1013D00000F01CF907F5A073184600F007FD07F5AB
:1013E000AA73184600F0ACFC814A07F5B27392E884
:1013F000030083E8030007F5B673184600F094FC79
:1014000007F5B67307F5AC7007F5B27206CA00F0BF
:10141000CCFC07F5AC723B1D1146186800F0F6F8DD
:1014200007F5AC73184600F0E1FC07F5B6731846F3
:1014300000F086FC6F4A07F5BE7392E8030083E86C
:10144000030007F5C273184600F06EFC07F5C2737F
:1014500007F5B87007F5BE7206CA00F0A6FC07F5DE
:10146000B8723B1D1146186800F0D0F807F5B87344
:10147000184600F0BBFC07F5C273184600F060FC8C
:101480005D4A07F5CA7392E8030083E8030007F595
:10149000CE73184600F048FC07F5CE7307F5C4700C
:1014A00007F5CA7206CA00F080FC07F5C4723B1D3E
:1014B0001146186800F0AAF807F5C473184600F042
:1014C00095FC07F5CE73184600F03AFC4B4A07F539
:1014D000D67392E8030083E8030007F5DA73184631
:1014E00000F022FC07F5DA7307F5D07007F5D67225
:1014F00006CA00F05AFC07F5D0723B1D1146186869
:1015000000F084F807F5D073184600F06FFC07F57B
:10151000DA73184600F014FC394A07F5E27392E8D2
:10152000030083E8030007F5E673184600F0FCFBB0
:1015300007F5E67307F5DC7007F5E27206CA00F0FE
:1015400034FC07F5DC723B1D1146186800F05EF8AC
:1015500007F5DC73184600F049FC07F5E6731846FA
:1015600000F0EEFB274A07F5EE7392E8030083E8EC
:10157000030007F5F273184600F0D6FB07F5F27387
:1015800007F5E87007F5EE7206CA00F00EFC07F5E5
:10159000E8723B1D1146186800F038F807F5E8734B
:1015A000184600F023FC07F5F273184600F0C8FB5C
:1015B0003B1D1121186800F08DF83B1D1249186879
:1015C00000F070F83B1D2921186800F083F83B1DDE
:1015D0002C21186800F07EF800BF07F5F477BD46AF
:1015E00080BD00BF6060000868600008706000088F
:1015F000786000088060000888600008906000083B
:1016000098600008A060000840420F0090B585B0C7
:1016100000AF786039600021386800F002FC0346B2
:101620001B781946786800F055F81C4A1B4B1B8B39
:101630009BB243F400539BB21383194A184B5B8B44
:101640009BB243F004039BB253830123FB73FC7BE7
:10165000386800F0F5FB03469C4234BF01230023A9
:10166000DBB2002B0ED0FB7B1946386800F0D9FBAB
:1016700003461B781946786800F0EEFAFB7B0133CD
:10168000FB73E4E7064A064B1B8B9BB243F0040353
:101690009BB2138300BF1437BD4690BD000C0240BF
:1016A0000008024080B483B000AF786039603B68C6
:1016B000002B14BF01230023DBB2002B03D03B68B7
:1016C000013B3B60F3E700BF0C37BD465DF8047B90
:1016D0007047000080B582B000AF78600B46FB70A9
:1016E000104A104B5B8B9BB243F400539BB2538365
:1016F0000D4A0D4B5B8B9BB243F004039BB25383AB
:10170000FB781946786800F0A7FA074A064B1B8B4E
:101710009BB243F004039BB2138300BF0837BD465E
:1017200080BD00BF000C02400008024080B582B0BE
:1017300000AF78600B46FB70104A104B1B8B9BB2BE
:1017400043F400539BB213830D4A0D4B5B8B9BB24A
:1017500043F004039BB25383FB781946786800F08A
:101760007BFA074A064B1B8B9BB243F004039BB2E8
:10177000138300BF0837BD4680BD00BF000C024088
:101780000008024080B582B000AF78600B467B80D5
:10179000144A144B1B8B9BB243F400539BB213832C
:1017A000114A114B5B8B9BB243F004039BB25383F2
:1017B0007B881B12DBB21946786800F04DFA7B88F3
:1017C000DBB21946786800F047FA074A064B1B8BD4
:1017D0009BB243F004039BB2138300BF0837BD469E
:1017E00080BD00BF000C02400008024080B584B0FC
:1017F00000AFF860084611461A4603467B810B4647
:101800003B811346FB802A21F868FFF763FF7B8941
:101810001946F868FFF7B6FFFB881946F868FFF726
:10182000B1FF2B21F868FFF755FF3B891946F8688F
:10183000FFF7A8FF3B8B1946F868FFF7A3FF00BF2F
:101840001037BD4680BD000080B582B000AF786023
:101850000B46FB7036217868FFF73CFFFB78032BC3
:101860001AD801A252F823F079180008811800084C
:10187000891800089118000858217868FFF756FF6A
:1018800088217868FFF752FF28217868FFF74EFF1C
:10189000E8217868FFF74AFF7B68FA781A70FB78CE
:1018A000002B02D0FB78012B07D17B68F0225A80F5
:1018B0007B684FF4A0729A8006E07B684FF4A072B8
:1018C0005A807B68F0229A8000BF0837BD4680BDF1
:1018D00080B584B002AF786039607B685B88013B7B
:1018E00099B27B689B88013B9BB23A680192009356
:1018F0000B4600220021786800F004F800BF08378A
:10190000BD4680BD80B588B002AFF860084611467C
:101910001A4603467B810B463B811346FB80F888C1
:101920003A8979893B8C00930346F868FFF75EFF9C
:101930002C21F868FFF7CEFEFA887B89D31A013391
:10194000398C3A898A1A013202FB03F37B613B4AE4
:101950003A4B5B8B9BB243F004039BB25383384AF0
:10196000374B1B8B9BB243F400539BB21383012173
:10197000F86800F03FF97B6A19887B694FF6FF72BF
:10198000934228BF13469BB21A46F86800F08AF9C2
:101990002C4B5B68002B11D12B4B5B68002B0DD1BE
:1019A0002A4B1B899BB203F00303002B06D0274B65
:1019B0001B899BB203F08003002B01D0012300E0C0
:1019C0000023002B00D0E3E77B69B3F5803F25D3EC
:1019D0007B6A19887B699BB201339BB21A46F8680F
:1019E00000F060F9174B5B68002B11D1164B5B6858
:1019F000002B0DD1154B1B899BB203F00303002B69
:101A000006D0124B1B899BB203F08003002B01D040
:101A1000012300E00023002B00D0E3E7074A074B37
:101A20001B8B9BB243F004039BB213830021F86825
:101A300000F0E0F800BF1837BD4680BD0008024046
:101A4000000C024088640240A06402400050014043
:101A500080B586B002AFF8607B600B467B81134691
:101A60003B8178893A8979893B8900930346F868F4
:101A7000FFF7BCFE2C21F868FFF72CFE7B681B8863
:101A80001946F868FFF77EFE00BF1037BD4680BDDF
:101A900080B58AB002AFF860084611461A46034680
:101AA0007B810B463B811346FB807B89FA68528819
:101AB000934203DBFB685B88013B7B81FB88FA6810
:101AC0005288934203DBFB685B88013BFB803B89C8
:101AD000FA689288934203DBFB689B88013B3B8159
:101AE0003B8DFA689288934203DBFB689B88013B3D
:101AF0003B857A89FB889A4205DD7B89BB83FB881D
:101B00007B81BB8BFB803A893B8D9A4205DD3B890B
:101B1000BB833B8D3B81BB8B3B85FA887B89D31A8A
:101B20009BB27B833A8D3B89D31A9BB23B83B7F937
:101B30001A30002B03D0B7F91830002B10D1FB6AF4
:101B40001B689BB2BB82F8883A89798907F1140334
:101B500001933B8D00930346F868FFF7D3FE46E000
:101B6000B7F91A20B7F918309A4206DDB7F91A30DA
:101B7000DA0F13445B101BB206E0B7F918305B4272
:101B8000DA0F13445B101BB2FB83FB6A1B689BB22A
:101B9000FB8207F116033A897989F868FFF758FF45
:101BA0007A89FB889A4203D13A893B8D9A421DD0AB
:101BB000B7F91E20B7F91A305B429A4207DDFA8B5B
:101BC0003B8BD31A9BB2FB837B8901337B81B7F9B3
:101BD0001E20B7F918309A42D7DAFA8B7B8B134460
:101BE0009BB2FB833B8901333B81CEE700BF2037AB
:101BF000BD4680BD80B483B000AF78600B46FB70FB
:101C0000144A144B1B889BB223F040039BB21380F1
:101C1000FB78012B08D10F4A0E4B1B889BB243F473
:101C200000639BB2138007E00A4A0A4B1B889BB2F1
:101C300023F400639BB21380064A064B1B889BB2B9
:101C400043F040039BB2138000BF0C37BD465DF8E4
:101C5000047B70470050014080B483B000AF7860CF
:101C60000B46FB700E4BFA7892B29A810C4B1B8993
:101C70009BB203F00303002B06D0094B1B899BB2D8
:101C800003F08003002B01D0012300E00023002B90
:101C900000D0EBE700BF0C37BD465DF8047B704712
:101CA0000050014080B483B000AF78600B467B8069
:101CB00013463B80194B5B68002B14BF01230023A4
:101CC000DBB2002B01D0002322E07B687A88DA8027
:101CD000134B4FF47412DA60104A104B1B6823F454
:101CE000806313600D4A3B8853600C4A7B6806335F
:101CF000D3600A4A094B1B6843F001031360094A89
:101D0000084B9B889BB243F002039BB29380012354
:101D100018460C37BD465DF8047B7047A06402404E
:101D2000006402400050014080B582B000AF78608E
:101D3000786800F095F87B6818460837BD4680BD86
:101D400080B582B000AF7860786800F094F87B6866
:101D500018460837BD4680BD80B483B000AF7860B8
:101D60007B681B6818460C37BD465DF8047B7047DE
:101D700080B483B000AF78607B685B6818460C372E
:101D8000BD465DF8047B704790B583B000AF7860C6
:101D90007868FFF7E1FF04467868FFF7E9FF03463C
:101DA000234418460C37BD4690BDB0B586B000AF91
:101DB000F860381D80E806003B60FB68396818460B
:101DC00000F070F83B1D1846FFF7C6FF04463B1DA8
:101DD0001846FFF7D9FF02462B462146F86800F067
:101DE00089F8FB6818461837BD46B0BDB0B582B05B
:101DF00000AF78607B681C687B685D687B6818460C
:101E000000F0A6F803461A462946204600F0ABF833
:101E10007B68184600F055F87B6818460837BD46C1
:101E2000B0BD80B483B000AF786039607B681A6859
:101E30003B68134418460C37BD465DF8047B704779
:101E400080B483B000AF78607B685B681A467B68BB
:101E50001B68D31A18460C37BD465DF8047B7047E3
:101E600080B483B000AF78607B6818460C37BD46FD
:101E70005DF8047B704780B483B000AF78607B6806
:101E800018460C37BD465DF8047B704780B582B0BC
:101E900000AF78607868FFF753FF7B681846083713
:101EA000BD4680BD80B582B000AF786039607B6888
:101EB0003968184600F065F87B6818460837BD4653
:101EC00080BD80B582B000AF78607B6819687B68A0
:101ED0009B681A467B681B68D31A1A46786800F01C
:101EE00067F87B681846FFF7D1FF7B68184608370C
:101EF000BD4680BD90B587B000AFF860B9607A602C
:101F00003B707968B86800F066F803467B61FB684F
:101F10007969184600F073F80246FB681A60FB689E
:101F20001A687B691A44FB689A60FB681C68FB6846
:101F3000184600F00DF8034622467968B86800F0AC
:101F400072F80246FB685A6000BF1C37BD4690BD60
:101F500080B483B000AF78607B6818460C37BD460C
:101F60005DF8047B704780B584B000AFF860B9605D
:101F70007A60B968F86800F067F800BF1037BD46AE
:101F800080BD80B582B000AF78603960396878680C
:101F900000F067F87B6800221A607B6800225A60B4
:101FA0007B6800229A607B6818460837BD4680BD72
:101FB00080B584B000AFF860B9607A60BB68002B70
:101FC00005D0FB687A68B968184600F058F800BF79
:101FD0001037BD4680BDB0B584B000AF78603960C1
:101FE0007C683B1D184600F059F82A46396820469F
:101FF00000F05EF8034618461037BD46B0BD80B508
:1020000082B000AF786039603B68002B06D07B68F7
:102010003968184600F05BF8034600E000231846D4
:102020000837BD4680BD80B584B000AFF860B960A8
:102030007A603B607A68B968F86800F057F8034640
:1020400018461037BD4680BD80B582B000AF7860BD
:1020500039603968786800F05BF800BF0837BD4622
:1020600080BD80B582B000AF78603960396878682B
:1020700000F059F87B6818460837BD4680BD80B52A
:1020800084B000AFF860B9607A607A68B968F868BF
:1020900000F055F800BF1037BD4680BD80B483B056
:1020A00000AF786018460C37BD465DF8047B70477A
:1020B00080B485B000AFF860B9603A71BA68FB6867
:1020C000D31A18461437BD465DF8047B704780B5B7
:1020D00082B000AF7860396000223968786800F01B
:1020E0003BF8034618460837BD4680BD80B586B02C
:1020F00000AFF860B9607A600123FB757A68B9684F
:10210000F86800F045F8034618461837BD4680BD0C
:1021100080B483B000AF7860396000BF0C37BD4633
:102120005DF8047B704780B483B000AF786039609D
:102130007B6818460C37BD465DF8047B704780B558
:1021400084B000AFF860B9607A60B86801F0ACFBA9
:1021500000BF1037BD4680BD80B584B000AFF860C9
:10216000B9607A60F86800F023F80246BB689A42CA
:1021700034BF01230023DBB2002B01D001F0B0FB00
:10218000B86801F093FB034618461037BD4680BD82
:1021900080B584B000AFF860B9607A607A68B968D9
:1021A000F86800F011F8034618461037BD4680BDA8
:1021B00080B483B000AF78604FF0FF3318460C371F
:1021C000BD465DF8047B704790B585B000AFF86000
:1021D000B9607A60F86800F00FF80446B86800F05B
:1021E0000BF803467A681946204600F010F80346BB
:1021F00018461437BD4690BD80B483B000AF7860F8
:102200007B6818460C37BD465DF8047B7047B0B557
:1022100084B000AFF860B9607A60F86800F013F835
:102220000446B86800F00FF80546786800F016F824
:1022300003461A462946204600F01BF80346184676
:102240001037BD46B0BD80B483B000AF78607B6806
:1022500018460C37BD465DF8047B704780B483B0E8
:1022600000AF78607B6818460C37BD465DF8047B8C
:10227000704780B586B000AFF860B9607A6001231E
:10228000FB757A68B968F86800F005F803461846E7
:102290001837BD4680BD80B586B000AFF860B96024
:1022A0007A60BA68FB68D31A7B617B69002B05D022
:1022B0007B691A46F968786803F05EFD7B697A6885
:1022C000134418461837BD4680BD000080B483B063
:1022D00000AF0346FB71094997F907305B0997F98D
:1022E000072002F01F02012000FA02F241F8232029
:1022F00000BF0C37BD465DF8047B704700E100E08D
:1023000080B483B000AF03463960FB7197F90730A2
:10231000002B0BDA0D49FB7903F00F03043B3A68FD
:10232000D2B21201D2B20B441A7609E0084997F9E9
:1023300007303A68D2B21201D2B20B4483F80023BC
:1023400000BF0C37BD465DF8047B704700ED00E030
:1023500000E100E080B400AF5F4A5F4B1B6B43F0CD
:10236000040313635C4A5C4B1B6B43F00803136369
:10237000594A594B1B6B43F020031363564A564B83
:102380005B6C43F480135364544A544B1B6843F012
:1023900080631360514A514B9B6843F080639360A4
:1023A0004F4A4F4B1B6843F0100313604C4A4C4B91
:1023B0009B6843F010039360484A484B1B6843F006
:1023C00080731360454A454BDB6843F08073D360EC
:1023D000444A444B1B6843F400431360414A414B59
:1023E0009B6843F4404393603E4A3E4B1B6A43F074
:1023F000A04313623B4A3B4B1B6843F4003313601A
:10240000384A384B9B6843F440339360354A354B28
:102410005B6A43F005035362324A324B1B6843F454
:10242000002313602F4A2F4B9B6843F44023936093
:102430002C4A2C4B5B6A43F0500353622A4A2A4BC6
:102440001B889BB243F400739BB21380264A264B31
:102450001B889BB243F480739BB21380224A224BA9
:102460001B889BB243F008039BB213801E4A1E4B8D
:102470001B889BB243F004039BB213801A4A1A4B89
:102480001B889BB243F040039BB21380124A124B4D
:102490001B6B43F480031363144A144B1B6843F013
:1024A00060631360114A114B1B6843F400531360BF
:1024B0000E4A0E4B1B6843F4006313600B4A0B4B30
:1024C0001B6843F040031360084B094A9A6000BF41
:1024D000BD465DF8047B704700380240000C0240A6
:1024E000000802400014024000500140A064024075
:1024F0000C50014080B400AF784A784B1B6C43F01D
:10250000010313644FF080424FF080439B889BB2DD
:1025100043F040039BB293804FF0804313221A850F
:102520004FF080436322DA624FF0804331225A63D6
:102530004FF080424FF080431B8C9BB243F001036D
:102540009BB213844FF080424FF080431B8B9BB2B1
:1025500043F060039BB213834FF080424FF08043FF
:102560001B889BB243F001039BB213805B4A5B4B19
:102570001B6B43F001031363584A584B1B6B43F02A
:1025800004031363554A554B5B6C43F480735364E7
:10259000534A534B1B6843F0C0031360514A514BDD
:1025A0001B6843F4406313604F4A4F4B5B6843F42E
:1025B000807353604C4B4FF48012DA624A4A4A4BA4
:1025C0005B6B43F00D035363474A474B5B6B43F030
:1025D000A0035363444A444BDB6843F44063D36035
:1025E000414A414B1B6943F4403313613E4A3E4B21
:1025F0009B6843F4806393603B4A3B4B9B6843F08A
:1026000080539360384A384B9B6843F0C0639360B3
:10261000354A354B9B6843F480739360324A324BA2
:102620009B6843F4007393602C4A2C4B1B6B43F460
:10263000800313632D4A2D4B1B6823F0C0031360E6
:102640002A4A2A4B1B6843F400331360274A274B5E
:102650001B6843F400631360244A244B1B6843F453
:1026600000531360214A214B1B6823F4007313604D
:102670001E4A1E4B1B6843F4806313601B4A1B4BAE
:102680001B6843F480731360184A184B1B6823F0CF
:10269000C0031360154A154B5B6843F00803536091
:1026A000124B134A9A60114B124ADA600F4A0F4BD1
:1026B0001B6823F0606313600C4A0C4B1B6843F0EB
:1026C00001031360084A084B9B6843F001039360C1
:1026D00000BFBD465DF8047B704700BF0038024074
:1026E0000008024000000240002001401064024047
:1026F0004C200140A000002080B500AF164A164BC8
:102700001B6C43F002031364144B4FF47A721A8566
:10271000124B1E22DA62114A104B9B899BB243F086
:1027200001039BB293811D20FFF7D0FD00211D20E6
:10273000FFF7E6FD094A094B1B889BB243F00103F2
:102740009BB21380054A054B9B8A9BB243F0010361
:102750009BB2938200BF80BD00380240000400405D
:1027600080B500AF0E4A0E4B1B6C43F0040313649C
:102770000C4B0A221A850B4B4FF6FF72DA62094A9C
:10278000084B9B899BB243F001039BB293811E20AF
:10279000FFF79CFD00211E20FFF7B2FD00BF80BDAA
:1027A000003802400008004080B483B000AF786079
:1027B0007B6800221A707B68F0225A807B684FF495
:1027C000A0729A807B680D4A083392E8030083E880
:1027D00003007B680A4A103392E8030083E8030091
:1027E0007B68084A183392E8030083E803007B689B
:1027F00018460C37BD465DF8047B7047A86000089A
:10280000B0600008B860000880B483B000AF914A9F
:10281000904B1B8A9BB223F001039BB213828E4B19
:102820001B78DBB2002B56D08C4B1B889BB2B3F5C8
:10283000007F0CBF01230023DBB2002B09D0884BA3
:102840001B78DBB21A46874B01219954864B002234
:102850001A70854B1B78DBB2002B00F0E181834BB3
:102860001B889BB21A46814B9B889BB213447F4ABC
:10287000128992B213447D4A928992B2134407EEB0
:10288000903AB8EEE77AF1EE006AC7EE267A9FED4D
:10289000787A77EE677AFDEEE77AC7ED017ABB8842
:1028A0001AB2744B1A80744B1A686C4B1B889BB21B
:1028B0009B0013446F4A128812B207EE902AF8EE7A
:1028C000E77AC3ED007A654B1B889BB201339AB25D
:1028D000624B1A80A4E1654B1B889BB21A46634B7E
:1028E0009B889BB21344614A128992B213445F4A97
:1028F000928992B2134407EE903AF8EEE77AF1EE3D
:10290000006A87EEA67ADFED5D6AC7EE267A9FED54
:102910005C7A27EE877A5B4B1B7807EE903AF8EEED
:10292000E77A77EE677AFDEEE77AC7ED017ABB8842
:102930001AB2504B1A804D4B5B889BB21A464B4BD8
:10294000DB889BB21344494A528992B21344474AE6
:10295000D28992B2134407EE903AF8EEE77AF1EE9C
:10296000006A87EEA67ADFED456AC7EE267A9FED0C
:10297000447A27EE877A444B1B7807EE903AF8EEBC
:10298000E77A77EE677AFDEEE77AC7ED017ABB88E2
:102990001AB23E4B1A80344B1B78DBB283F0010332
:1029A000DBB2002B2ED03A4B1B78DBB283F0010355
:1029B000DBB2002B07D12A4B1B78DAB2354B1B78E0
:1029C000DBB29A421ED0344B1B78DBB2002B17D1FE
:1029D000324B1B889BB21A46314B1B889A4211DD41
:1029E000304B1B881BB21A462D4B5B889A4209DA82
:1029F000204B1B881BB21A46294B5B889A4201DB8D
:102A0000012300E00023002B00F08B80164B0122F5
:102A10001A70134B1B78DBB2002B01D1224B00E064
:102A2000224B234A13601C4B1B78DBB2002B43D094
:102A30000A4B00221A800A4B1B78DBB21A461D4B48
:102A4000002123F812101A4B1B684FF6FF721A80F0
:102A500067E000BF0004004002000020C81A002008
:102A6000DD1A0020E81A0020D01A0020A000002063
:102A700000E0FF44B0100020EC2A00200000804558
:102A8000000070430000002001000020B41000206E
:102A9000DC1A0020DE1A002014330020E01A002087
:102AA00004000020B2100020D81A0020DA1A0020FA
:102AB000D41A0020E41A00205C4B1B78DBB21946C4
:102AC0005B4B1B889AB25B4B1B88D31A9BB21AB222
:102AD000594B23F81120554B1B78DBB21A46564B45
:102AE00033F812301BB29BB2DB0BDBB2002B10D0E1
:102AF0004E4B1B78DBB21A4619464F4B33F8113058
:102B00001BB29BB203F5A0739BB219B24A4B23F8D8
:102B100012104A4B1B68474A1288013A92B212B20D
:102B20001A80474B1B78DBB2002B09D0434B1B6844
:102B30001B881BB240F23F12934201D1012300E0F7
:102B40000023002B24D0394B1B78DBB2012B14BFA0
:102B500001230023DBB21A46344B1A70334B1B7827
:102B6000DBB2002B01D1374B00E0374B374A136003
:102B70002E4B1B78DBB2002B01D1354B00E0354BDF
:102B8000354A1360354B00221A802D4B00221A70F3
:102B90002E4B1A68264B1B889BB25B001344304AAD
:102BA000128812B21A802C4B1A68214B1B889BB2D8
:102BB0005B0013442B4A128812B21A801C4B1B88EC
:102BC0009BB240F23F1293420CBF01230023DBB2C1
:102BD000002B03D0164B00221A8006E0144B1B88F2
:102BE0009BB201339AB2124B1A80154B1B78DBB2A1
:102BF000002B09D0114B1B681A8812B292B2013215
:102C000092B212B21A8006E0144B1B889BB20133B9
:102C10009AB2124B1A80124B1B881AB2124B1A80AE
:102C200000BF0C37BD465DF8047B7047DD1A0020FD
:102C3000C81A002004000020E41A0020D41A002042
:102C4000D01A0020B810002038130020B81A002035
:102C5000B815002038180020BC1A0020E01A002007
:102C6000B0100020B4100020B210002080B400AFDB
:102C7000084A084B1B8A9BB223F001039BB21382C4
:102C8000054B1B680133044A136000BFBD465DF865
:102C9000047B704700080040F03200200000000074
:102CA00090B583B000AF00237B607B68B3F5806F85
:102CB00032DA7B6807EE903AF8EEE77A77EEA77A99
:102CC00017EE900AFDF7F8FB17A3D3E90023FDF7F1
:102CD00047FC03460C46184621464FF00002104BB5
:102CE000FDF768FD03460C4644EC173BB0EE470A7F
:102CF000F0EE670A00F088FF54EC103B18462146BE
:102D0000FDF706FF0146074A7B689B0013441960E4
:102D10007B6801337B60C8E700BF0C37BD4690BDC0
:102D200000009040B0000020182D4454FB210940C1
:102D300090B583B000AF78607868FDF7ABFB0346D1
:102D40000C4644EC103B00F017FFB0EE407AF0EE7A
:102D5000607AB0EE470AF0EE670A0C37BD4690BDC8
:102D6000B0B582B000AF87ED010A38607868FDF732
:102D7000A3FB04460D463868FDF78CFB02460B4664
:102D800043EC112B45EC104B00F086FFB0EE407A7F
:102D9000F0EE607AB0EE470AF0EE670A0837BD46FB
:102DA000B0BD0000B0B5A0B002AF78600923FB65EC
:102DB0000023BB6500237B677B6FB3F5007F24DABC
:102DC0007B6F172293FAA3F363FA02F3BB65BA6D24
:102DD0007B6F9A4215DD7B6F9B007A6813441B68FA
:102DE0007B657B6F9B007A681344BA6D92007968AB
:102DF0000A4412681A60BB6D9B007A6813447A6DAE
:102E00001A607B6F01337B67D6E701233B673B6F1B
:102E1000B3F5007F80F2EC803B6F012B42D10023A1
:102E2000FB66FB6EB3F5007F80F2DE80FA6E3B6FCF
:102E300013443B653B6D9B007A6813441B68FB643D
:102E40003B6D9B007A681344FA6E920079680A44DD
:102E500092ED007AD7ED137A77EE677AC3ED007AB8
:102E6000A24A3B6D9B0013444FF000021A60FB6EB8
:102E70009B007A681344FA6E920079680A4492EDD6
:102E8000007AD7ED137A77EE277AC3ED007A974A66
:102E9000FB6E9B0013444FF000021A60FB6E02337E
:102EA000FB66BEE70023BB66BA6E3B6F9A4280F2B8
:102EB0009B80BB6E9A023B6F5B0092FBF3F318465C
:102EC000FFF736FF54EC103B18462146FDF7F8FD9E
:102ED0000346BB64864ABB6C9B0013441B687B643F
:102EE000BB6C03F58073824A9B0013441B683B64F0
:102EF000BB6E7B667B6EB3F5007F71DA7A6E3B6FDB
:102F00001344FB637B6E9B007A6813441B68BB63AE
:102F1000764A7B6E9B0013441B687B63FB6B9B00B4
:102F20007A6813441B683B63704AFB6B9B00134435
:102F30001B68FB6297ED107AD7ED0C7A27EE277AA3
:102F4000D7ED116AD7ED0B7A66EEA77A77EE677A3E
:102F5000C7ED0A7A97ED107AD7ED0B7A27EE277A2C
:102F6000D7ED116AD7ED0C7A66EEA77A77EE277A5D
:102F7000C7ED097AFB6B9B007A68134497ED0E7AD4
:102F8000D7ED0A7A77EE677AC3ED007A97ED0D7A7E
:102F9000D7ED097A77EE677A544AFB6B9B001344AE
:102FA000C3ED007A7B6E9B007A68134497ED0E7A2E
:102FB000D7ED0A7A77EE277AC3ED007A97ED0D7A8E
:102FC000D7ED097A77EE277A484A7B6E9B00134447
:102FD000C3ED007A3B6F5B007A6E13447B6689E732
:102FE000BB6E0133BB665FE73B6F5B003B670EE781
:102FF00001233B6201233B663B6EB3F5807F70DCAF
:103000003B6E013BFB613B6E9B007A681344D3ED42
:10301000007A0220B0EE670AFFF7A2FE55EC104BD3
:10302000324A3B6E9B001344D3ED007A0220B0EE8F
:10303000670AFFF795FE53EC102B20462946FDF753
:10304000DDF803460C4644EC173BB0EE470AF0EEC1
:10305000670A00F099FF54EC103B18462146FDF733
:1030600057FD0346BB6197ED067ADFED226AC7EE96
:10307000267AB7EE007A77EE677A9FED1F7A67EED1
:10308000877AFDEEE77A17EE903A7B61FB690133B0
:103090003B61FB6999B27B699AB23B6998B21F2385
:1030A000BB8107F10C030193EF2300930346134800
:1030B000FEF728FCFB6999B23B6998B27B699BB229
:1030C000013B9BB20022FA8107F10E0201920093AC
:1030D000034600220948FEF715FC3B6E01333B66B0
:1030E0008AE700BF7837BD46B0BD00BFF02A002098
:1030F000B00000200000804800006F43F432002040
:1031000090B58DB002AF00F0A1FA00F0D5FAFFF74C
:1031100027FBFFF71FF9FFF7EDF9FFF7C1FD654842
:10312000FDF708FF03216348FEF78EFB0023FB80B9
:10313000BB1D19465F48FEF7CBFB5F4B5F4A1A6029
:103140005F4B604A1A60FFF7D7FA5F4B1B78DBB220
:10315000002B5CD05D4B1B78DBB283F00103DBB24C
:10316000002B11D05A4B1B78DBB283F00103DBB28A
:10317000002B07D1564B5B78DBB283F00103DBB247
:10318000002B01D0012300E00023002B1AD04F4B6D
:1031900001221A704F4B00221A804D4B1B78DBB274
:1031A000002B01D0012200E000224B4B1A704A4B49
:1031B0001B78DBB2002B01D1484B00E0484B494A59
:1031C0001360C2E7424B1B78DBB2002B03D0464BA7
:1031D00000221A7008E03E4B5B78DBB2002B00F057
:1031E0009381414B01221A703F4B1B78DBB2002BBD
:1031F00001D13A4B00E03A4B1846FFF7D3FD3A4B6A
:103200001B78DBB21A46324B002199549DE7374BAD
:103210001B78DBB283F00103DBB2002B06D02B4B13
:103220001B78DBB2002B01D0012300E00023002B30
:103230001ED0294B1B78DAB22B4B1A702B4B012274
:103240001A702B4B00221A80274B1B78DBB2002B05
:1032500001D11A4B00E0274B274A1360224B1B7801
:10326000DBB2002B01D1174B00E0244B244A136042
:103270001E4B1B78DBB2002B48D01B4B1B78DAB2FD
:10328000154B1B78DBB29A4212D1134B1B78DBB281
:10329000002B04D11B4B1B881BB21A4603E01A4BB0
:1032A0001B881BB21A46124B1B889BB29A422DDB1D
:1032B00001232CE0F4320020B81A0020B8100020BE
:1032C000BC1A0020B815002002000020D01A0020EF
:1032D000E81A0020C81A0020DD1A0020EC1A00208D
:1032E000EC220020EC2A0020DE1A0020DC1A00204C
:1032F000CA1A002038130020C01A002038180020F5
:10330000C41A0020D81A0020DA1A00200023002B4B
:103310003FF41BAF7D4B1B78DBB21A467C4B33F876
:1033200012301BB21A467B4B1B889BB21A447A4B55
:1033300083FB0213D911D317C91A0B469B000B4408
:103340009B01D11A0B46FB84724B1B889BB2002B4E
:103350000CBF01230023DBB2002B13D06F4B1A6884
:10336000FB8C5B0013441B881BB29AB26C4B1A8017
:103370006C4B1A68FB8C5B0013441B881BB29AB21F
:10338000694B1A80634B1B8899B2624B1B889AB2B7
:103390000023BB6007F108030193EF23009313465A
:1033A00000226248FEF774FB5A4B1B8899B25B4BB4
:1033B0001A68FB8C5B0013441B881BB298B2554BF8
:1033C0001B889CB2564B1B889BB24FF4FC62FA6080
:1033D00007F10C0201920093234602465348FEF780
:1033E00057FB4C4B1B8899B24E4B1A68FB8C5B0009
:1033F00013441B881BB298B2464B1B889CB24A4BA5
:103400001B889BB240F21D523A6107F110020192F3
:103410000093234602464548FEF73AFB3F4B1A68A5
:10342000FB8C5B0013441B881BB29AB23C4B1A8086
:103430003C4B1A68FB8C5B0013441B881BB29AB28E
:10344000394B1A80334B1B889BB201339AB2314BF4
:103450001A80304B1B889BB2B3F5A07F0CBF0123B1
:103460000023DBB2002B02D0314B00221A70294B13
:103470001B889BB21A462F4B1B8804339A420CBF01
:1034800001230023DBB2002B3FF45FAE294B1988E8
:10349000284B5B88043B98B2264B1C88254B5B88E5
:1034A00004339BB24FF6E0727A6107F11402019285
:1034B0000093234602461D48FEF7EAFA1D4B1B887F
:1034C000043BBB610023FB6107F11C0207F11803F9
:1034D0001146184600F030F803461B6899B2154BA8
:1034E0005888144B1B8804339CB2124B5B884FF6F0
:1034F000E0723A6207F120020192009323460246ED
:103500000A48FEF7C5FA20E600BF1EE6DE1A0020D4
:10351000E41A0020CA1A002067666666C01A0020F6
:10352000CC1A0020C41A0020CE1A0020F432002049
:10353000DC1A00200400002080B483B000AF786063
:1035400039607B681A683B681B689A4201DA3B68FD
:1035500000E07B6818460C37BD465DF8047B704779
:1035600080B582B000AF786039607B68012B07D1ED
:103570003B684FF6FF72934202D10348FFF714F9FC
:1035800000BF0837BD4680BDF432002080B500AFD3
:103590004FF6FF710120FFF7E3FF80BDDFF834D065
:1035A000002103E00C4B5B58435004310B480C4B9B
:1035B00042189A42F6D30B4A02E0002342F8043B39
:1035C000094B9A42F9D300F041F802F0A1FBFFF752
:1035D00097FD704700000320F48B000800000020D6
:1035E0008400002084000020CC330020FEE780B45B
:1035F00000AF00BFBD465DF8047B704780B400AFEC
:10360000FEE780B400AFFEE780B400AFFEE780B411
:1036100000AFFEE780B400AF00BFBD465DF8047B9D
:10362000704780B400AF00BFBD465DF8047B7047B3
:1036300080B400AF00BFBD465DF8047B704780B426
:1036400000AF00BFBD465DF8047B704780B500AF9A
:10365000164A164BD3F8883043F47003C2F888300A
:10366000134A134B1B6843F001031360104B0022F5
:103670009A600F4A0E4B1B6823F0847323F4803347
:1036800013600B4B0B4A5A60094A094B1B6823F421
:1036900080231360064B0022DA6000F089F8034BA8
:1036A0004FF000629A6000BF80BD00BF00ED00E0F7
:1036B000003802401030002480B487B000AF0023EF
:1036C0003B6100237B610223FB600023BB6002237C
:1036D0007B60324B9B6803F00C033B613B69042B1E
:1036E00007D0082B09D0002B3DD12D4B2D4A1A6055
:1036F0003DE02B4B2C4A1A6039E0284B5B689B0D50
:1037000003F00103BB60254B5B6803F03F037B6064
:10371000BB68002B0CD0244A7B68B2FBF3F31F4A32
:1037200052689209C2F3080202FB03F37B610BE0CB
:103730001C4A7B68B2FBF3F3184A52689209C2F341
:10374000080202FB03F37B61144B5B681B0C03F064
:10375000030301335B00FB607A69FB68B2FBF3F3A0
:103760000F4A136003E00E4B0E4A1A6000BF0B4B6A
:103770009B681B0903F00F030C4AD35CDBB23B616F
:10378000074B1A683B6922FA03F3054A136000BF2E
:103790001C37BD465DF8047B704700BF003802400F
:1037A000080000200024F40000127A000C00002021
:1037B00080B483B000AF00237B6000233B60364AB7
:1037C000354B1B6843F480331360334B1B6803F4A1
:1037D00000333B607B6801337B603B68002B03D187
:1037E0007B68B3F5A06FF0D12B4B1B6803F400335B
:1037F000002B02D001233B6001E000233B603B68CB
:10380000012B02D1244B254A5A60234A224B1B6CC0
:1038100043F080531364224A214B1B6843F4404316
:1038200013601D4A1C4B9B6893601B4A1A4B9B6894
:1038300043F400439360184A174B9B6843F4A0532A
:103840009360154A144B1B6843F08073136000BFEC
:10385000114B1B6803F00073002BF9D0114B40F2A1
:1038600005721A600C4A0C4B9B6823F003039360AB
:10387000094A094B9B6843F00203936000BF064B63
:103880009B6803F00C03082BF9D100BF0C37BD4631
:103890005DF8047B704700BF00380240085A4007BB
:1038A00000700040003C024002F05EBA10B50028F3
:1038B00014BF04460124204602F04EFA30B900F04D
:1038C00007F808B902F017FA8047F4E710BD0000C6
:1038D000024B1868BFF35B8F704700BF183300209E
:1038E00008B502F008FA0000244B1A68D0075CBF44
:1038F00001221A60224B1A68D1075CBF01221A60AC
:10390000204B1A68D2075CBF01221A601E4B1A684E
:10391000D0075CBF01221A601C4B1A68D1075CBF3C
:1039200001221A601A4B1A68D2075CBF01221A6082
:10393000184B1A68D0075CBF01221A60164B1A6830
:10394000D1075CBF01221A60144B1A68D2075CBF12
:1039500001221A60124B1A68D0075CBF01221A605C
:10396000104B1A68D1075CBF01221A600E4B1A680F
:10397000D2075CBF01221A60704700BF48330020A5
:1039800044330020403300203C33002038330020F3
:1039900034330020303300202C3300202833002023
:1039A00024330020203300201C330020184B1A68D9
:1039B000D1075CBF01221A60164B1A68D2075CBFA0
:1039C00001221A60144B1A68D0075CBF01221A60EA
:1039D000124B1A68D1075CBF01221A60104B1A689B
:1039E000D2075CBF01221A600E4B1A68D0075CBF79
:1039F00001221A600C4B1A68D1075CBF01221A60C1
:103A00000A4B1A68D2075CBF01221A60704700BFD8
:103A10006833002064330020603300205C330020D2
:103A20005833002054330020503300204C33002002
:103A3000244B1A68D0075CBF01221A60224B1A6817
:103A4000D1075CBF01221A60204B1A68D2075CBF05
:103A500001221A601E4B1A68D0075CBF01221A604F
:103A60001C4B1A68D1075CBF01221A601A4B1A68F6
:103A7000D2075CBF01221A60184B1A68D0075CBFDE
:103A800001221A60164B1A68D1075CBF01221A6026
:103A9000144B1A68D2075CBF01221A60124B1A68D5
:103AA000D0075CBF01221A60104B1A68D1075CBFB7
:103AB00001221A600E4B1A68D2075CBF01221A60FD
:103AC000704700BF983300209433002090330020CB
:103AD0008C33002088330020843300208033002082
:103AE0007C330020783300207433002070330020B2
:103AF0006C330020184B1A68D1075CBF01221A6092
:103B0000164B1A68D2075CBF01221A60144B1A6860
:103B1000D0075CBF01221A60124B1A68D1075CBF44
:103B200001221A60104B1A68D2075CBF01221A608A
:103B30000E4B1A68D0075CBF01221A600C4B1A6842
:103B4000D1075CBF01221A600A4B1A68D2075CBF1A
:103B500001221A60704700BFB8330020B433002040
:103B6000B0330020AC330020A8330020A433002061
:103B7000A03300209C33002051EC100BF8B5C1F3AA
:103B80000A55A5F2FF34132C0B460F4617DC002C08
:103B900009DA013401F0004303D143F07F5343F4C9
:103BA0004013002128E0164A2241114200D180B181
:103BB0004FF4002323413B4423EA0203F1E7332C73
:103BC0000ADDB4F5806F04D110EE102A0B46FCF725
:103BD00015FB41EC100BF8BDA5F213424FF0FF3579
:103BE000D5402842F5D0C4F133040122A240121876
:103BF00028BF013322EA050108461946E9E700BF5C
:103C0000FFFF0F00000000001FB551EC100B204A11
:103C100021F00043934207DC9FED1B1B002001F0C5
:103C2000FFFD51EC100B07E01A4A934209DD10EE3C
:103C3000102A0B46FCF7E0FA41EC100B05B05DF8DA
:103C400004FB684600F010FF00F0030001289DED22
:103C5000021B9DED000B04D0022805D070B9012095
:103C6000DDE701F0A5F9DCE7012001F0D9FD53EC17
:103C7000102B10EE100A03F10041DDE701F098F976
:103C8000F5E700BFAFF30080000000000000000077
:103C9000FB21E93FFFFFEF7F2DE9F04F2DED048B76
:103CA0008DB057EC106B55EC114B00F0C9F9AE4BD1
:103CB000B0EE408AF0EE608A93F90090B9F1FF3FD0
:103CC00098465FD022462B4620462946FCF7E2FE66
:103CD0008346002856D132463B4630463946FCF7EB
:103CE000D9FE0190E8B10022002320462946FCF7C6
:103CF0009FFE002846D0012302939C4B03939C4BCC
:103D0000CDF828B00022B9F1020FCDE90467CDE962
:103D10000645CDE9082333D002A801F0D1FE48BB07
:103D20005EE04FF0000A4FF0000B52465B46304613
:103D30003946FCF77DFE4BEC19AB002855D05246B6
:103D40005B4620462946FCF773FE804618B30123E4
:103D50000293864B0393019B0A93CDE90467CDE957
:103D60000645CDE908ABB9F1000FD5D0804B002254
:103D7000CDE908230A9B1BB101F0C4FF0A9B036035
:103D80009DED088BB0EE480AF0EE680A0DB0BDEC70
:103D9000048BBDE8F08F45EC104B01F002FE0028CB
:103DA000F0D052465B4620462946FCF74BFE0028E1
:103DB000E8D0012302936D4B03936B4BCDF8288021
:103DC00093F90030CDE90467CDE9064513B9CDE993
:103DD00008ABA1E767490020CDE90801022B9BD180
:103DE00001F090FF21230360C4E7B0EE480AF0EE33
:103DF000680A01F0D6FD0190002840F08A8047EC67
:103E0000106B01F0CEFD002800F0838045EC104BD4
:103E100001F0C7FD00287CD053EC182B18EE100AD7
:103E20001946FCF737FE98F90090504BB0B10122CB
:103E30000393019B02920A93CDE90467CDE90645FD
:103E4000B9F1000FC3D052465B4650465946FCF7C5
:103E5000B1FCB9F1020FCDE90801C0E703220292DB
:103E600003930A90CDE90467CDE90645B9F1000F47
:103E70002CD1414B4FF06042CDE9082330465246E9
:103E80005B463946FCF7DEFD002866D000223B4B3E
:103E900020462946FCF764FB04460D4645EC104BD2
:103EA00001F01AFE204653EC102B2946FCF7C0FD0A
:103EB00020B9334B4FF06042CDE9082398F9003028
:103EC000022B4AD101F01EFF22238CE72D4B00224A
:103ED000CDE90823304652465B463946FCF7B2FD31
:103EE0000028EBD00022254B20462946FCF738FB62
:103EF00004460D4645EC104B01F0EEFD204653EC18
:103F0000102B2946FCF794FD0028D7D10022194B2D
:103F1000D2E70022002351EC180BFCF789FD0028A2
:103F20003FF430AF47EC106B01F03BFD00283FF44D
:103F300029AF45EC104B01F034FD00283FF422AFCF
:103F400004230293094B039300230A93CDE90467EA
:103F5000CDE906458DED089BB0E702A801F0B0FD64
:103F600000287FF407AFADE71C000020508900084F
:103F70000000F03F0000F0FFFFFFEF470000E03FD0
:103F8000FFFFEFC70000F07F2DE9F0432DED028B1E
:103F90008BB055EC104B00F059FF264BB0EE408A29
:103FA000F0EE608A93F90060731C2AD022462B46FB
:103FB00020462946FCF76EFD074610BB4FF000086F
:103FC0004FF0000942464B4620462946FCF73AFD91
:103FD000B8B101230093184B01930897CDE904452C
:103FE000CDE90245B6B9CDE90689684601F068FD1C
:103FF000D0B1089B1BB101F085FE089B03609DEDCD
:10400000068BB0EE480AF0EE680A0BB0BDEC028BEE
:10401000BDE8F08342464B4640464946FCF7CAFBA2
:10402000022ECDE90601E0D101F06CFE21230360F0
:10403000DFE700BF1C0000205489000800000000DA
:104040002DE9F04F91B08DED001B9DE8040257EC77
:10405000106B29F0004858EA020310EE10AA3D4602
:1040600000F0BD84784B27F000449C4209DC03D16A
:104070003EB9A0450DDC01E0984502DC98450ED123
:104080006AB104F1404404F5801454EA0A0300F0D4
:10409000A6846E4811B0BDE8F04F01F015BD002DAB
:1040A00053DA6B4B98454DDCA3F1547398454CDDC6
:1040B0004FEA2853A3F2FF33142B26DDC3F1340358
:1040C00022FA03F101FA03F39A423ED101F0010111
:1040D000C1F1020B002A5BD15B4B984524D104F15E
:1040E000404303F5801353EA0A0300F07884594BE8
:1040F0009C422DDDB9F1000F80F275840020002173
:1041000041EC100B11B0BDE8F08F002A3ED1C3F195
:10411000140348FA03F101FA03F3984540F06B8465
:1041200001F00101C1F1020B4B4B984518D1B9F1D7
:10413000000F80F25C84484932463B460020FCF781
:1041400039FBDDE74FF0020BC4E74FF0000BC1E78E
:10415000B9F1000FD2DA9DE8090003F10041CFE781
:10416000B9F1804F06D132463B4610461946FCF75E
:10417000F7F9C5E7394B99450AD1002D08DB47EC23
:10418000106B11B0BDE8F04F00F060BE4FF0000BB7
:1041900047EC106B01F0FEFB51EC100BBAF1000F75
:1041A00027D124B12C4B25F040429A4221D1B9F1BC
:1041B000000F05DA02460B4600202749FCF7FAFA01
:1041C000002D9DDA04F1404404F5801454EA0B03F9
:1041D00008D102460B4610461946FCF70DF8024678
:1041E0000B46ACE7BBF1010F8AD101F10043194640
:1041F00086E7ED0F6B1E0D935BEA030302D1324697
:104200003B46E8E7164B984540F3FE8003F1047304
:1042100098450ADD0F4B9C420DDCB9F1000FBFF64B
:104220006DAF07A3D3E900239FE70E4B9C42F4DD5B
:10423000094B9C4218DDB9F1000FF2DC5EE700BFCC
:104240009C7500883CE4377E0000F07F58890008A8
:10425000FFFF3F43FFFFEF3F0000F03F0000E03F64
:104260000000E041FEFFEF3F0022634BFBF7C4FF7D
:1042700055A3D3E9002304460D46FCF771F954A376
:10428000D3E9002306460F4620462946FCF768F985
:104290000022CDE90201594B20462946FCF760F97E
:1042A00002460B464CA1D1E90001FBF7A5FF2246CF
:1042B0002B46FCF755F902460B4600205049FBF708
:1042C0009BFF22462B468046894620462946FCF71E
:1042D00047F902460B4640464946FCF741F940A3E0
:1042E000D3E90023FCF73CF902460B46DDE9020165
:1042F000FBF782FF02460B4604460D463046394620
:10430000FBF77CFF0020CDE9040132463B46FBF77A
:1043100073FF02460B4620462946FBF76DFF0D9AB8
:104320000BF1FF33134306460F4640F0EB819FED40
:104330002E7BDDE90045002422462B46DDE9000105
:104340008DED027BFBF758FFDDE90423FCF708F94C
:10435000DDE900238046894630463946FCF700F9FE
:1043600002460B4640464946FBF748FF22462B468D
:1043700080468946DDE90401FCF7F2F80B46044665
:104380000D46024649464046CDE90045FBF736FF5B
:104390001C4B994206460F468B4640F3F78201F1CB
:1043A0003F4303F5E003034300F0EA8110A3D3E9A0
:1043B0000023DDE90201FCF7D3F80DA3D3E90023C4
:1043C000D5E600BFAFF30080000000604715F73F5F
:1043D00044DF5DF80BAE543E555555555555D53F08
:1043E000FE822B654715F73F000000000000F0BF7C
:1043F0009C7500883CE4377E0000F03F0000D03F11
:104400000000E03FFFFF8F40B4F5801F4FF0000237
:1044100005DAD34BFCF7A4F86FF034020C462315F1
:10442000A3F2FF3313440793CE4BC4F3130444F0B9
:104430007F559C4245F4401508DDCB4B9C4240F330
:104440005E81079B01330793A5F580154FF0000AA5
:104450004FEACA030C930C9AC44B134493ED007BB0
:10446000294653EC172B8DED0A7BCDE90801FBF7AC
:10447000C3FEDDE90A2306460F46DDE90801FBF726
:10448000BDFE02460B460020B949FCF793F9CDE981
:104490000E0102460B4630463946FCF761F8CDE97D
:1044A0000401DDE90434CDE9023400230293DDE99F
:1044B00002896D1045F0005505F50025002205EB39
:1044C0008A434046494614461D46FCF749F80246D1
:1044D0000B4630463946FBF78FFEDDE90A230646D8
:1044E0000F4620462946FBF787FE02460B46DDE9CC
:1044F0000801FBF781FE42464B46FCF731F80246C5
:104500000B4630463946FBF777FEDDE90E23FCF714
:1045100027F8DDE90423CDE9080110461946FCF728
:104520001FF87BA3D3E9002304460D46FCF718F8D7
:1045300079A3D3E90023FBF761FE22462B46FCF763
:104540000FF877A3D3E90023FBF758FE22462B464A
:10455000FCF706F874A3D3E90023FBF74FFE2246CD
:104560002B46FBF7FDFF72A3D3E90023FBF746FEC2
:1045700022462B46FBF7F4FF6FA3D3E90023FBF79A
:104580003DFE224606460F462B4620462946FBF7AF
:10459000E7FF02460B4630463946FBF7E1FF42464D
:1045A00004460D464B46DDE90401FBF727FEDDE935
:1045B0000823FBF7D5FF22462B46FBF71FFE42469A
:1045C00006460F464B4640464946FBF7C9FF0022C8
:1045D000684BCDE90A01FBF711FE32463B46FBF77B
:1045E0000DFE02980D46044602460B4640464946DB
:1045F000FBF7B6FF0022804689465E4B20462946DF
:10460000FBF7FAFDDDE90A23FBF7F6FD02460B4650
:1046100030463946FBF7F0FDDDE90423FBF7A0FF48
:10462000224606460F462B46DDE90801FBF798FFB8
:1046300002460B4630463946FBF7E0FD06460F467C
:1046400002460B4640464946FBF7D8FD02983CA37C
:10465000D3E9002304460D46FBF782FF4246CDE92D
:1046600008014B4620462946FBF7C6FD02460B468D
:1046700030463946FBF7C0FD33A3D3E90023FBF7EF
:104680006FFF33A3D3E9002306460F462046294691
:10469000FBF766FF02460B4630463946FBF7AEFD98
:1046A0000C9A354B1344D3E90023FBF7A7FD0446CE
:1046B00007980D46FBF7EEFE0C9A304B1344D3E9F6
:1046C000008906460F4622462B46DDE90801FBF726
:1046D00095FD42464B46FBF791FD32463B46FBF7C4
:1046E0008DFD029832463B46CDE90401FBF784FD7F
:1046F00042464B46FBF780FDDDE9082307E64FF015
:10470000010AA5E69FED147B13E600BFAFF300801E
:10471000EF4E454A287ECA3F65DBC9934A86CD3FA6
:1047200001411DA96074D13F4D268F515555D53F8C
:10473000FFAB6FDBB66DDB3F033333333333E33F24
:10474000000000E009C7EE3FFD033ADC09C7EE3F79
:10475000F5015B14E02F3EBE000000000000F03FBA
:10476000000040438E98030079B60B006089000872
:104770000000F03F000008408089000870890008B0
:10478000B6A3D3E9002340464946FBF737FD22464E
:10479000CDE904012B4630463946FBF72DFD024694
:1047A0000B46DDE90401FCF76BF900287FF4FEAD50
:1047B000A54A2BF00043934240F30C811B154FF4A4
:1047C000801AA3F2FE334AFA03F35B44C3F30A529E
:1047D0009E4EA2F2FF321641C3F3130A002023EAD1
:1047E0000601C2F114024AF4801A4AFA02FABBF135
:1047F000000F02460B4620462946B8BFCAF1000A00
:10480000FBF7FAFCCDE9000142464B46DDE9000129
:10481000FBF7F4FC00207AA3D3E9002304460D46FD
:10482000FBF79EFEDDE9002306460F46204629469B
:10483000FBF7E2FC02460B4640464946FBF7DCFC30
:1048400071A3D3E90023FBF78BFE71A3D3E9002307
:104850008046894620462946FBF782FE02460B46E3
:1048600040464946FBF7CAFC04460D4602460B4645
:1048700030463946FBF7C2FC32463B468046894605
:10488000FBF7BAFC02460B4620462946FBF7B4FC70
:10489000424606460F464B4640464946FBF760FEF9
:1048A0005DA3D3E9002304460D46FBF759FE5CA344
:1048B000D3E90023FBF7A0FC22462B46FBF750FE72
:1048C00059A3D3E90023FBF799FC22462B46FBF7BB
:1048D00047FE57A3D3E90023FBF78EFC22462B4665
:1048E000FBF73EFE54A3D3E90023FBF787FC2246E7
:1048F0002B46FBF735FE02460B4640464946FBF782
:104900007BFC04460D4602460B4640464946FBF7F3
:1049100027FE0022CDE900014FF0804320462946C2
:10492000FBF76AFC02460B46DDE90001FBF742FF9C
:10493000324604460D463B4640464946FBF710FECC
:1049400032463B46FBF75AFC02460B4620462946B8
:10495000FBF752FC42464B46FBF74EFC02460B4629
:1049600000203B49FBF748FC01EB0A54B4F5801FDB
:1049700002460B4631DA504643EC102B01F034F975
:1049800051EC100BDDE90223FFF7F1BB314B21F0B5
:1049900000469E427FF70CAF2F4B0B4403430BD0D6
:1049A00027A3D3E90023DDE90201FBF7D9FD24A306
:1049B000D3E90023FFF7DBBB22462B46FBF71CFCA9
:1049C00002460B4640464946FCF746F800283FF4AD
:1049D000EFAEE5E74FF0000A16E72146D2E70020E8
:1049E0001B49FFF78DBBDDE90001FFF789BB3046AE
:1049F0003946FFF785BB9346FFF796BBAFF30080C0
:104A000000000000432EE63FEF39FAFE422EE63F5B
:104A1000396CA80C615C20BED0A4BE726937663EBA
:104A2000F16BD2C541BDBB3E2CDE25AF6A56113FAE
:104A300093BDBE166CC1663F3E5555555555C53F95
:104A400059F3F8C21F6EA5010000E03FFFFF0F0001
:104A50000000F03FFFCB904000346F3FFE822B659B
:104A60004715973C000000002DE9F04F57EC106B04
:104A7000C34B8DB027F0004898450446049707DCE7
:104A80000022002384ED000BC0E90223002527E06B
:104A9000BC4B984575DC049BBB4D002B10EE100AF7
:104AA000A9A3D3E90023394636DDFBF7A5FBA845CA
:104AB00006460F4618D0A6A3D3E90023FBF79CFBBC
:104AC00002460B46C4E9002330463946FBF794FB07
:104AD0009FA3D3E90023FBF78FFBC4E90201012563
:104AE00028460DB0BDE8F08F9BA3D3E90023FBF768
:104AF00083FB9BA3D3E9002306460F46FBF77CFB11
:104B000002460B46C4E9002330463946FBF774FBE6
:104B100093A3D3E90023DEE7FBF770FBA845064625
:104B20000F4616D08AA3D3E90023FBF767FB0246A2
:104B30000B46C4E9002330463946FBF75DFB84A3EE
:104B4000D3E90023FBF75AFB4FF0FF35C4E902011C
:104B5000C6E781A3D3E90023FBF750FB80A3D3E989
:104B6000002306460F46FBF749FB02460B46C4E905
:104B7000002330463946FBF73FFB79A3D3E90023F6
:104B8000E0E7824B984500F3D08000F003FF57EC3C
:104B9000106B10EE100A74A3D3E900233946FBF71B
:104BA000DFFC00227A4BFBF729FBFBF789FF054668
:104BB000FBF770FC64A3D3E90023CDE90201FBF706
:104BC000CFFC02460B4630463946FBF715FB60A387
:104BD000D3E9002382468B46DDE90201FBF7C0FCE6
:104BE0001F2D06460F462ADC6A1E6A4B53F82230F8
:104BF000984524D032463B4650465946FBF7FCFACE
:104C0000C4E90001D4E90089504642464B46594662
:104C1000FBF7F2FA3B463246FBF7EEFA049B002B19
:104C2000C4E90201BFF65CAF09F100436360C4F858
:104C30000080A06001F10043E3606D4250E732461E
:104C40003B4650465946FBF7D7FA4FEA2852C1F384
:104C50000A53D31A102BC4E900010592D2DD3EA3FA
:104C6000D3E90023DDE90201FBF77AFC06460F4693
:104C700002460B4650465946FBF7BEFA02460B4623
:104C80008046894650465946FBF7B6FA32463B46BF
:104C9000FBF7B2FA32A3D3E9002306460F46DDE95B
:104CA0000201FBF75DFC32463B46FBF7A5FA0246E4
:104CB0000B4606460F4640464946FBF79DFA059AC5
:104CC000C1F30A53D31A312BC4E900012ADD28A30A
:104CD000D3E90023DDE90201FBF742FC06460F465B
:104CE00002460B4640464946FBF786FA02460B460B
:104CF00082468B4640464946FBF77EFA32463B46A3
:104D0000FBF77AFA1CA3D3E9002306460F46DDE938
:104D10000201FBF725FC32463B46FBF76DFA0646DF
:104D20000F4667E7C246CB466CE71B4B984535DD1F
:104D300010EE102A3B4630463946FBF75DFAC4E9CF
:104D40000201C4E90001A1E600004054FB21F93F43
:104D50003163621A61B4D03D0000601A61B4D03D85
:104D60007370032E8A19A33B83C8C96D305FE43F7B
:104D70000000002E8A19A33BC14920259A837B3964
:104D8000FB21E93F7BD90240FB21F93FFB2139415F
:104D90000000E03F90890008FFFFEF7F4FEA2855B1
:104DA000A5F21645A8EB055130460F46FBF788FEE5
:104DB000FBF770FB02460B4630463946CDE9062329
:104DC000FBF71AFA00221F4BFBF7CAFB0F460646F9
:104DD000FBF776FEFBF75EFB02460B463046394694
:104DE000CDE90823FBF708FA0022164BFBF7B8FBC6
:104DF000CDE90A010DF130094FF003080026002724
:104E000032463B4679E9020108F1FF3AFBF710FE12
:104E1000B0B90D4B0193022300932A464346214625
:104E200006A800F0ADF9049B002B0546BFF658AE6E
:104E3000636803F100436360E36803F10043FBE64A
:104E4000D046DDE700007041108A00082DE9F041EE
:104E500055EC104B544EAE4310EE100A2B462A462A
:104E6000214613D110EE102A2B4610EE100A2946C7
:104E7000FBF776FB02460B4620462946FBF7BEF9B8
:104E800004460D4645EC104BBDE8F081002D10DCCA
:104E900025F000463043F5D05DB110EE102A2B46C8
:104EA00020462946FBF7A8F902460B46FBF782FC91
:104EB000E6E71B150CD1002A6DD00020D6026ED576
:104EC000441E1B1BC0F1200421FA04F4224381403C
:104ED000A3F2FF33C2F31302DD0742F4801242BF94
:104EE000520002EBD17249005810002502EBD17339
:104EF0001A44490016232C464FF40016A71997426E
:104F0000DEBFD21BBC19AD195200013B02EBD172BE
:104F10004FEA56064FEA4101F0D14FF0200E9C4671
:104F20004FF00046A24206EB0C0702DC12D18F4282
:104F300010D8002F07EB060C34DABCF1000F31DB80
:104F400004F10108121B8F4288BF02F1FF32C91B16
:104F50003344444602EBD177BEF1010E3A444FEAA6
:104F600041014FEA5606DDD10A4306D05C1C13BF4F
:104F700001330135734623F001036A105B08E9072A
:104F800002F17F5202F5001248BF43F0004302EBEA
:104F900000551C4676E7CA0A153B49058BE75200C7
:104FA00001308BE7A046CDE70000F07F0000000055
:104FB0002DE9F04F59EC108B29F0004785B0B7F17F
:104FC000795F8DED001B07DA10EE100A4946FBF7FA
:104FD00077FD002800F0AA8042464B4640464946ED
:104FE000FBF7BEFA59A3D3E9002304460D46FBF7AD
:104FF000B7FA58A3D3E90023FBF700F922462B4662
:10500000FBF7AEFA55A3D3E90023FBF7F5F82246E8
:105010002B46FBF7A5FA53A3D3E90023FBF7EEF8E1
:1050200022462B46FBF79CFA50A3D3E90023FBF75B
:10503000E3F822462B46FBF793FA4EA3D3E900236D
:10504000FBF7DCF82B462246FBF78AFA3A4B9F42E5
:1050500082468B462CDC0022384B20462946FBF743
:105060007FFA524606460F465B4620462946FBF726
:1050700077FADDE9002304460D4640464946FBF732
:105080006FFA02460B4620462946FBF7B5F8024662
:105090000B4630463946FBF7AFF80B462849024627
:1050A0000020FBF7A9F841EC100B05B0BDE8F08F2C
:1050B000244B23499F42D7BFA7F50013224F00225C
:1050C0001646D4BF1F46002632463B460020FBF75B
:1050D00093F80022CDE90201184B20462946FBF740
:1050E0003FFA32463B46FBF787F8524606460F46E4
:1050F0005B4620462946FBF733FADDE900230446E8
:105100000D4640464946FBF72BFA02460B46204621
:105110002946FBF771F802460B4630463946FBF745
:105120006BF802460B46DDE90201BAE700200449AC
:10513000B9E700BFAFF300803233D33F0000E03F58
:105140000000F03F0000E93F0000D23FD43888BEA5
:10515000E9FAA8BDC4B1B4BD9EEE213EAD529C801B
:105160004F7E923E9015CB19A001FA3E7751C116A1
:105170006CC1563F4C5555555555A53F0000000094
:105180002DE9F04F2DED028BADF5197DD41E069360
:105190000291C34BA499099053F821300093069BC8
:1051A000013B0493182394FBF3F46FF0170324EAF4
:1051B000E47404FB033303EB020A009B049A9FEDA3
:1051C000B48B03EB0208A59BA71A20AE03EB87095B
:1051D0000025454513DD9FEDAE8B0DF5E07B0026E8
:1051E000009B9E4232DC099B0393069B9D1920ABDA
:1051F00003EBC503089359EC188B00271FE0EF421F
:1052000007D459F82500FBF745F9E6E80201013516
:10521000DFE751EC180BF8E70899039D71E90223C9
:105220000891F5E802010395FBF79AF902460B464F
:1052300040464946FAF7E2FF013780468946049B1B
:105240009F42E9DDEBE802890136C9E7009B009F38
:105250000CAA02EB83030B93A59B03EB84030A9335
:1052600098AB07F1005B03EBC7030BF1FF3B53E97E
:1052700028894FEACB030893089A98AB1344A3F10B
:10528000980B0026BB1B002B77DC49EC108B50469B
:1052900000F0AAFC55EC104B00224FF07F5310EEAB
:1052A000100A2946FBF75CF941EC100B00F084FB77
:1052B000002251EC100B7B4BFBF752F902460B46D8
:1052C00020462946FAF798FF0D460446FBF7F8FBFF
:1052D0000390FBF7DFF802460B4620462946FAF713
:1052E0008BFFBAF1000F804689466BDD7A1E0CAB4E
:1052F000CAF1180153F82200039C40FA01F31C4440
:105300008B40C01A0CAB039443F82200CAF1170378
:1053100040FA03FBBBF1000F62DD039B0022013367
:10532000039314466FF07F41974200F38980BAF1EE
:10533000000F07DDBAF1010F00F09680BAF1020FFD
:1053400000F09C80BBF1020F4AD142464B46002040
:105350005549FAF751FF80468946002C40D0504607
:105360009FED4D0B00F040FC4046494653EC102B9E
:10537000FAF742FF8046894632E000224B4B404616
:105380004946FBF7EDF8FBF79BFBFBF783F80022A0
:10539000474B04460D46FBF7E3F802460B464046F2
:1053A0004946FAF729FFFBF78BFB0CAB294643F87C
:1053B00026007BE902232046FAF720FF01368046CB
:1053C00089465FE706D17B1E0CAA52F823004FEAFC
:1053D000E05B9FE70022374BFBF748FB68BB834647
:1053E0000022002340464946FBF722FB002800F03C
:1053F000C1807C1E2346002200998B425CDA002A81
:1054000040F08B8001246FF0030202FB04F30B9940
:10541000CB58002B56D0089B98AA1344A3F1900BAD
:10542000069BDD1920AB03EBC505E3197E1C039336
:10543000039B9E4248DD1F4612E74FF0020B6CE7CC
:105440000CAB53F822304CB92BB10CA8C3F18073CC
:1054500040F82230012301321C4665E70CA8CB1A24
:1054600040F822302346F6E77A1E0CAB53F8223080
:10547000C3F316030CA941F8223063E77A1E0CAB84
:1054800053F82230C3F31503F4E700BFAFF30080F5
:105490000000000000000000000000000000F03FDD
:1054A000588B0008000020400000F03F0000703ED4
:1054B000000070410000E03F0CA951F82310013BAF
:1054C0000A4399E70134A0E70A9B53F82600FAF74C
:1054D000E1FFE5E80201099B08951C4600274FF013
:1054E00000084FF00009049B9F4203DDEBE80289AE
:1054F00001369DE7089971E902230891F4E8020159
:10550000FBF72EF802460B4640464946FAF776FE70
:10551000013780468946E6E7013C0CABAAF1180A40
:1055200053F82430002BF7D050469FEDB50B00F018
:105530005BFBE50098AB03EB050957EC106BA9F199
:105540009809A046B8F1000F4DDA9FEDAF8B0DF52D
:10555000907A002304935746049BB4EB030976D456
:10556000AB4B1E4670AB03EBC9098DED068B4FF0BC
:1055700000085EE0CAF1000049EC108B00F034FB3B
:1055800055EC104B0022A34B10EE100A2946FBF7F6
:105590006DFAF8B10022A04B20462946FAF7E0FF49
:1055A000FBF78EFA0646FAF775FF0022994BFAF7D9
:1055B000D7FF0B46024629462046FAF71DFEFBF7A9
:1055C0007FFA7C1C0CAB0AF1180A43F8270043F859
:1055D0002460A9E720462946FBF772FA0CAB3C464B
:1055E00043F82700A0E70CAB53F82800FAF752FF66
:1055F00032463B46FAF7B4FF002269E90201864BC6
:1056000030463946FAF7ACFF08F1FF3806460F4638
:1056100098E7F9E80223F6E80201FAF7A1FF02464B
:105620000B46DDE90601FAF7E9FDCDE9060108F1CF
:105630000108009B984502DC049B9845E9DD049B2A
:105640009DED067B0133AAEC027B049384E7A49BC7
:10565000032B5DD8DFE803F04B26260298AB1D44F0
:10566000A5F59C752E46A246BAF1000F6EDC2E46BB
:10567000A246BAF1010F00F38A8000200021012C1C
:1056800000F3A680BBF1000F40F0A880DDE94823BD
:10569000029CC4E90023DDE94A23C4E90401C4E90A
:1056A000022335E0083548AB1D4426460020002182
:1056B000002E3CDABBF1000F3FD0024601F100435F
:1056C000029DC5E9002302460B46DDE94801FAF7D1
:1056D00093FD4AAE0125AC4232DABBF1000F02D095
:1056E00001F100431946029BC3E9020110E098ABA7
:1056F0001D44A5F59C7500200021002C11DABBF19A
:10570000000F02D001F100431946029BC3E90001DA
:10571000039B03F007000DF5197DBDEC028BBDE87E
:10572000F08F75E90223FAF769FD013CE5E775E9B9
:105730000223FAF763FD013EBAE702460B46BFE7D4
:10574000F6E80223FAF75AFD0135C4E716ED027BAD
:1057500056E9048953EC172B404649468DED007BF2
:10576000FAF74CFDCDE9040102460B464046494696
:10577000FAF742FDDDE90023FAF740FD9DED047BD9
:1057800066E902010AF1FF3A06ED027B6CE716EDCD
:10579000027B56E9048953EC172B404649468DEDB0
:1057A000007BFAF72BFDCDE9040102460B4640468B
:1057B0004946FAF721FDDDE90023FAF71FFD9DEDCB
:1057C000047B66E902010AF1FF3A06ED027B50E72D
:1057D00075E90223FAF712FD013C50E7029A3B6893
:1057E00013607B68106103F100435360BB689360F2
:1057F000FB6803F10043D36001F10043536187E785
:10580000000000000000F03F000000000000000069
:10581000188B0008000070410000703E000000007E
:105820002DE9F04F55EC104B85B025F00043B3F156
:10583000795F8DED001B029006DA10EE100A294602
:10584000FBF73EF9002851D022462B462046294638
:10585000FAF786FE82468B4602460B4620462946CC
:10586000FAF77EFE41A3D3E90023804689465046DD
:105870005946FAF775FE3FA3D3E90023FAF7BCFCBB
:1058800052465B46FAF76CFE3CA3D3E90023FAF7D5
:10589000B5FC52465B46FAF763FE3AA3D3E9002310
:1058A000FAF7AAFC52465B46FAF75AFE37A3D3E949
:1058B0000023FAF7A3FC029B06460F46DBB902461B
:1058C0000B4650465946FAF74BFE25A3D3E9002371
:1058D000FAF792FC42464B46FAF742FE02460B4666
:1058E00020462946FAF78AFC04460D4645EC104B43
:1058F00005B0BDE8F08F00221B4BDDE90001FAF78F
:105900002FFE3246CDE902013B4640464946FAF7B2
:1059100027FE02460B46DDE90201FAF76DFC52460E
:105920005B46FAF71DFEDDE90023FAF765FC0CA3E0
:10593000D3E9002306460F4640464946FAF710FED3
:1059400002460B4630463946FAF758FC02460B46EB
:1059500020462946FAF750FCC6E700BFAFF30080A7
:10596000495555555555C53F0000E03F7CD5CF5AA8
:105970003AD9E53DEB9C2B8AE6E55A3E7DFEB157D0
:10598000E31DC73ED561C119A0012A3FA6F8101139
:105990001111813F53EC102B23F0004343EC102BEB
:1059A000704710EE903A43F0004000F58010C00FB1
:1059B000704700000000000051EC100B2DE9F04191
:1059C000C1F30A57A7F2FF36132E10EE108A0C46C9
:1059D00010EE105A35DC002E17DA35A3D3E9002378
:1059E000FAF70CFC00220023FBF74AF850B1002C18
:1059F0005ADA24F0004353EA08032F4B4FF0000516
:105A000018BF1C462146284625E02C4F374101EAA5
:105A1000070303431FD026A3D3E90023FAF7EEFBC5
:105A200000220023FBF72CF80028EBD0002CBEBF8F
:105A30004FF4801343FA06F6A41924EA070400255C
:105A4000E0E7332E0BDDB6F5806F04D110EE102A9F
:105A50000B46FAF7D3FB41EC100BBDE8F081A7F23F
:105A600013474FF0FF3323FA07F73842F3D010A360
:105A7000D3E90023FAF7C2FB00220023FBF700F86A
:105A80000028BFD0002C02DA142E03D1013425EAFD
:105A90000705B7E70123C6F1340603FA06F63544D5
:105AA000A84588BFE418F2E700252C46AAE700BF06
:105AB0009C7500883CE4377E0000F0BFFFFF0F00BC
:105AC00000207047000000009FED010B704700BFF1
:105AD000000000000000F87FF7B551EC100BC1F397
