:020000040800F2
:1000000000000320293700087B37000889370008E3
:100010008F370008953700089B3700080000000064
:10002000000000000000000000000000A1370008F0
:10003000AF37000800000000BD370008CB370008CC
:1000400079370008793700087937000879370008D0
:1000500079370008793700087937000879370008C0
:10006000793700087937000879370008F50D00085E
:10007000090E00081D0E0008310E0008450E00088C
:10008000590E00086D0E000879370008793700080E
:10009000793700087937000879370008112D0008F2
:1000A0007937000879370008793700087937000870
:1000B00079370008D5280008552D00087937000841
:1000C0007937000879370008793700087937000850
:1000D0007937000879370008793700087937000840
:1000E0007937000879370008793700087937000830
:1000F000793700087937000879370008810E000841
:10010000793700087937000879370008793700080F
:1001100079370008793700087937000879370008FF
:10012000950E0008A90E0008BD0E0008D10E0008AB
:10013000E50E00087937000879370008793700089C
:1001400079370008793700087937000879370008CF
:10015000F90E00080D0F0008210F0008793700087C
:1001600079370008793700087937000879370008AF
:10017000793700087937000879370008793700089F
:10018000793700087937000879370008793700088F
:10019000793700087937000879370008793700087F
:0C01A0007937000879370008793700082B
:1001B00010B5054C237833B9044B13B10448AFF3A1
:1001C00000800123237010BD840000200000000087
:1001D0007861000808B5034B1BB103490348AFF32E
:1001E000008008BD00000000880000207861000841
:1001F00081F0004102E000BF83F0004330B54FEAD8
:1002000041044FEA430594EA050F08BF90EA020F44
:100210001FBF54EA000C55EA020C7FEA645C7FEAD7
:10022000655C00F0E2804FEA5454D4EB5555B8BFFA
:100230006D420CDD2C4480EA020281EA030382EA6B
:10024000000083EA010180EA020281EA0303362DFD
:1002500088BF30BD11F0004F4FEA01314FF4801CD0
:100260004CEA113102D0404261EB410113F0004FE2
:100270004FEA03334CEA133302D0524263EB430399
:1002800094EA050F00F0A780A4F10104D5F1200E37
:100290000DDB02FA0EFC22FA05F2801841F1000192
:1002A00003FA0EF2801843FA05F359410EE0A5F166
:1002B00020050EF1200E012A03FA0EFC28BF4CF097
:1002C000020C43FA05F3C01851EBE37101F000454D
:1002D00007D54FF0000EDCF1000C7EEB00006EEB5A
:1002E0000101B1F5801F1BD3B1F5001F0CD34908E4
:1002F0005FEA30004FEA3C0C04F101044FEA44523B
:1003000012F5800F80F09A80BCF1004F08BF5FEAC1
:10031000500C50F1000041EB045141EA050130BDA1
:100320005FEA4C0C404141EB010111F4801FA4F144
:100330000104E9D191F0000F04BF01460020B1FA99
:1003400081F308BF2033A3F10B03B3F120020CDAD1
:100350000C3208DD02F1140CC2F10C0201FA0CF0AF
:1003600021FA02F10CE002F11402D8BFC2F1200C14
:1003700001FA02F120FA0CFCDCBF41EA0C019040CA
:10038000E41AA2BF01EB0451294330BD6FEA040413
:100390001F3C1CDA0C340EDC04F11404C4F12002FE
:1003A00020FA04F001FA02F340EA030021FA04F310
:1003B00045EA030130BDC4F10C04C4F1200220FA67
:1003C00002F001FA04F340EA0300294630BD21FAA5
:1003D00004F0294630BD94F0000F83F4801306BF6B
:1003E00081F480110134013D4EE77FEA645C18BF5F
:1003F0007FEA655C29D094EA050F08BF90EA020FF6
:1004000005D054EA000C04BF1946104630BD91EAED
:10041000030F1EBF0021002030BD5FEA545C05D1F0
:100420004000494128BF41F0004130BD14F580042F
:100430003CBF01F5801130BD01F0004545F0FE41A3
:1004400041F470014FF0000030BD7FEA645C1ABFD8
:10045000194610467FEA655C1CBF0B46024650EA0F
:10046000013406BF52EA033591EA030F41F400213B
:1004700030BD00BF90F0000F04BF0021704730B5C1
:100480004FF4806404F132044FF000054FF0000196
:1004900050E700BF90F0000F04BF0021704730B557
:1004A0004FF4806404F1320410F0004548BF40422C
:1004B0004FF000013EE700BF42004FEAE2014FEA81
:1004C00031014FEA02701FBF12F07F4393F07F4F5C
:1004D00081F06051704792F0000F14BF93F07F4F8E
:1004E000704730B54FF4607401F0004521F00041D1
:1004F00020E700BF50EA010208BF704730B54FF057
:1005000000050AE050EA010208BF704730B511F05B
:10051000004502D5404261EB41014FF4806404F193
:1005200032045FEA915C3FF4DCAE4FF003025FEA15
:10053000DC0C18BF03325FEADC0C18BF033202EB9D
:10054000DC02C2F1200300FA03FC20FA02F001FAF7
:1005500003FE40EA0E0021FA02F11444C1E600BF96
:1005600070B54FF0FF0C4CF4E06C1CEA11541DBF49
:100570001CEA135594EA0C0F95EA0C0F00F0DEF814
:100580002C4481EA030621EA4C5123EA4C5350EAF9
:10059000013518BF52EA033541F4801143F480134A
:1005A00038D0A0FB02CE4FF00005E1FB02E506F0DB
:1005B0000042E0FB03E54FF00006E1FB03569CF030
:1005C000000F18BF4EF0010EA4F1FF04B6F5007F36
:1005D00064F5407404D25FEA4E0E6D4146EB0606A8
:1005E00042EAC62141EA55514FEAC52040EA5E5031
:1005F0004FEACE2EB4F1FD0C88BFBCF5E06F1ED8DB
:10060000BEF1004F08BF5FEA500E50F1000041EB11
:10061000045170BD06F0004646EA010140EA0200BE
:1006200081EA0301B4EB5C04C2BFD4EB0C0541EAE0
:10063000045170BD41F480114FF0000E013C00F3F5
:10064000AB8014F1360FDEBF002001F0004170BD19
:10065000C4F10004203C35DA0C341BDC04F1140432
:10066000C4F1200500FA05F320FA04F001FA05F2BE
:1006700040EA020001F0004221F0004110EBD3708B
:1006800021FA04F642EB06015EEA430E08BF20EAB7
:10069000D37070BDC4F10C04C4F1200500FA04F35A
:1006A00020FA05F001FA04F240EA020001F00041EC
:1006B00010EBD37041F100015EEA430E08BF20EA5F
:1006C000D37070BDC4F1200500FA05F24EEA020EA7
:1006D00020FA04F301FA05F243EA020321FA04F0D6
:1006E00001F0004121FA04F220EA020000EBD3708D
:1006F0005EEA430E08BF20EAD37070BD94F0000F8D
:100700000FD101F00046400041EB010111F4801FC0
:1007100008BF013CF7D041EA060195F0000F18BF71
:10072000704703F00046520043EB030313F4801FAD
:1007300008BF013DF7D043EA0603704794EA0C0F67
:100740000CEA135518BF95EA0C0F0CD050EA41067D
:1007500018BF52EA4306D1D181EA030101F00041FA
:100760004FF0000070BD50EA410606BF1046194622
:1007700052EA430619D094EA0C0F02D150EA01362E
:1007800013D195EA0C0F05D152EA03361CBF10466F
:1007900019460AD181EA030101F0004141F0FE410E
:1007A00041F470014FF0000070BD41F0FE4141F492
:1007B000780170BD70B54FF0FF0C4CF4E06C1CEA92
:1007C00011541DBF1CEA135594EA0C0F95EA0C0F47
:1007D00000F0A7F8A4EB050481EA030E52EA033502
:1007E0004FEA013100F088804FEA03334FF0805523
:1007F00045EA131343EA12634FEA022245EA111550
:1008000045EA10654FEA00260EF000419D4208BF00
:10081000964244F1FD0404F5407402D25B084FEAAD
:100820003202B61A65EB03055B084FEA32024FF459
:1008300080104FF4002CB6EB020E75EB030E22BFB6
:10084000B61A754640EA0C005B084FEA3202B6EB76
:10085000020E75EB030E22BFB61A754640EA5C0025
:100860005B084FEA3202B6EB020E75EB030E22BFB5
:10087000B61A754640EA9C005B084FEA3202B6EBB6
:10088000020E75EB030E22BFB61A754640EADC0075
:1008900055EA060E18D04FEA051545EA16754FEAD7
:1008A00006164FEAC30343EA52734FEAC2025FEAF5
:1008B0001C1CC0D111F4801F0BD141EA00014FF084
:1008C00000004FF0004CB6E711F4801F04BF014355
:1008D0000020B4F1FD0C88BFBCF5E06F3FF6AFAE71
:1008E000B5EB030C04BFB6EB020C5FEA500C50F101
:1008F000000041EB045170BD0EF0004E4EEA113184
:1009000014EB5C04C2BFD4EB0C0541EA045170BD8A
:1009100041F480114FF0000E013C90E645EA060ECE
:100920008DE60CEA135594EA0C0F08BF95EA0C0FFC
:100930003FF43BAF94EA0C0F0AD150EA01347FF444
:1009400034AF95EA0C0F7FF425AF104619462CE71B
:1009500095EA0C0F06D152EA03353FF4FDAE10467E
:10096000194622E750EA410618BF52EA43067FF4CF
:10097000C5AE50EA41047FF40DAF52EA43057FF45F
:10098000EBAE12E74FF0FF3C06E000BF4FF0010C6A
:1009900002E000BF4FF0010C4DF804CD4FEA410CCE
:1009A0007FEA6C5C4FEA430C18BF7FEA6C5C1BD09B
:1009B00001B050EA410C0CBF52EA430C91EA030F1C
:1009C00002BF90EA020F0020704710F1000F91EA79
:1009D000030F58BF994208BF90422CBFD8176FEA47
:1009E000E37040F0010070474FEA410C7FEA6C5C15
:1009F00002D150EA013C07D14FEA430C7FEA6C5C1C
:100A0000D6D152EA033CD3D05DF8040B704700BF47
:100A10008446104662468C461946634600E000BF95
:100A200001B5FFF7B7FF002848BF10F1000F01BD67
:100A30004DF808EDFFF7F4FF0CBF012000205DF832
:100A400008FB00BF4DF808EDFFF7EAFF34BF0120B7
:100A500000205DF808FB00BF4DF808EDFFF7E0FF50
:100A600094BF012000205DF808FB00BF4DF808EDA1
:100A7000FFF7CEFF94BF012000205DF808FB00BF08
:100A80004DF808EDFFF7C4FF34BF012000205DF8EA
:100A900008FB00BF4FEA410C7FEA6C5C02D150EAD0
:100AA000013C0AD14FEA430C7FEA6C5C02D152EA66
:100AB000033C02D14FF0000070474FF00100704737
:100AC0004FEA410212F5001215D211D56FF4787376
:100AD000B3EB625212D94FEAC12343F0004343EA19
:100AE000505311F0004F23FA02F018BF40427047F4
:100AF0004FF00000704750EA013005D111F000407E
:100B000008BF6FF0004070474FF00000704700BF13
:100B10004FEA4102B2F1E04324BFB3F5001CDCF11F
:100B2000FE5C0DD901F0004C4FEAC0024CEA507057
:100B3000B2F1004F40EB830008BF20F00100704786
:100B400011F0804F21D113F13872BCBF01F0004089
:100B5000704741F480114FEA5252C2F11802C2F1BB
:100B6000200C10FA0CF320FA02F018BF40F001003C
:100B70004FEAC1234FEAD32303FA0CFC40EA0C00EE
:100B800023FA02F34FEA4303CCE77FEA625307D12B
:100B900050EA01331EBF4FF0FE4040F44000704762
:100BA00001F0004040F0FE4040F40000704700BFFC
:100BB00080B485B000AF786039607B68184A934292
:100BC0000AD8184BFB607A68174B1344174AA2FBEC
:100BD00003231B09BB6009E0154BFB607A68154BCA
:100BE0001344124AA2FB03231B09BB60BB68032BFF
:100BF00005D9FB680433FB60BB68043BBB60FB6842
:100C00003A6802F03D020C48B968014409788A400C
:100C10001A6000BF1437BD465DF8047B704700BF03
:100C20000F64024008600240F09FFDBFABAAAAAA71
:100C300008640240F09BFDBF4862000880B487B0A2
:100C400000AF7860396000237B6100233B610023A3
:100C5000FB607B681B4A93420AD81B4B3B617A6856
:100C60001A4B13441A4AA2FB03231B097B6109E0B8
:100C7000184B3B617A68184B1344154AA2FB0323B7
:100C80001B097B617B69032B05D93B6904333B61FD
:100C90007B69043B7B613B691B68FB600F4A7B6996
:100CA00013441B781A46FB68D340FB60FB6803F0D3
:100CB0003D03FB60FB6818461C37BD465DF8047BAE
:100CC000704700BF0F64024000600240F09FFDBF0C
:100CD000ABAAAAAA00640240F09BFDBF48620008CC
:100CE00080B483B000AF786000BF0C37BD465DF8BC
:100CF000047B704780B483B000AF786000BF0C37CE
:100D0000BD465DF8047B704780B483B000AF786067
:100D100000BF0C37BD465DF8047B704780B483B0DC
:100D200000AF786000BF0C37BD465DF8047B7047AC
:100D300080B483B000AF786000BF0C37BD465DF86B
:100D4000047B704780B584B000AF78603D2178683F
:100D5000FFF774FF0346FB813D217868FFF728FF0A
:100D6000FB8903F02003002B08D07B681B6803F08D
:100D70001003002B02D07868FFF7B2FFFB8903F065
:100D80001003002B08D07B681B6803F00803002BBE
:100D900002D07868FFF7AEFFFB8903F00803002B51
:100DA00008D07B681B6803F00403002B02D078682E
:100DB000FFF7AAFFFB8903F00403002B08D07B6830
:100DC0001B6803F00203002B02D07868FFF7A6FF30
:100DD000FB8903F00103002B08D07B685B6903F0FB
:100DE0008003002B02D07868FFF7A2FF00BF103706
:100DF000BD4680BD80B500AF0248FFF7A3FF00BF2E
:100E000080BD00BF1060024080B500AF0248FFF710
:100E100099FF00BF80BD00BF2860024080B500AFD1
:100E20000248FFF78FFF00BF80BD00BF4060024057
:100E300080B500AF0248FFF785FF00BF80BD00BF4F
:100E40005860024080B500AF0248FFF77BFF00BF4B
:100E500080BD00BF7060024080B500AF0248FFF760
:100E600071FF00BF80BD00BF8860024080B500AF49
:100E70000248FFF767FF00BF80BD00BFA0600240CF
:100E800080B500AF0248FFF75DFF00BF80BD00BF27
:100E9000B860024080B500AF0248FFF753FF00BFC3
:100EA00080BD00BF1064024080B500AF0248FFF76C
:100EB00049FF00BF80BD00BF2864024080B500AF7D
:100EC0000248FFF73FFF00BF80BD00BF4064024003
:100ED00080B500AF0248FFF735FF00BF80BD00BFFF
:100EE0005864024080B500AF0248FFF72BFF00BFF7
:100EF00080BD00BF7064024080B500AF0248FFF7BC
:100F000021FF00BF80BD00BF8864024080B500AFF4
:100F10000248FFF717FF00BF80BD00BFA06402407A
:100F200080B500AF0248FFF70DFF00BF80BD00BFD6
:100F3000B864024080B5FAB000AF3B1D1860E54AC6
:100F4000E44B5B8B9BB243F480539BB253833B1DBA
:100F500044F62061186800F0A5FBDE4ADD4B1B8BD0
:100F60009BB243F480539BB213833B1D44F6206134
:100F7000186800F097FB3B1D0121186800F0AAFBE0
:100F80003B1D4CF25031186800F08CFB07F1140344
:100F9000D14A92E8030083E8030007F11C031846D6
:100FA00000F0ECFE07F11C0307F1140207F1080042
:100FB00006CA00F024FF07F108023B1D114618681D
:100FC00000F024FB07F10803184600F039FF07F191
:100FD0001C03184600F0DEFE07F12C03BF4A92E81E
:100FE000030083E8030007F13403184600F0C6FE4F
:100FF00007F1340307F12C0207F1200006CA00F0C4
:10100000FEFE07F120023B1D1146186800F0FEFAB3
:1010100007F12003184600F013FF07F134031846C8
:1010200000F0B8FE07F14403AD4A92E8030083E8FC
:10103000030007F14C03184600F0A0FE07F14C0333
:1010400007F1440207F1380006CA00F0D8FE07F1A4
:1010500038023B1D1146186800F0D8FA07F1380332
:10106000184600F0EDFE07F14C03184600F092FE22
:1010700007F15C039B4A92E8030083E8030007F151
:101080006403184600F07AFE07F1640307F15C027E
:1010900007F1500006CA00F0B2FE07F150023B1DF6
:1010A0001146186800F0B2FA07F15003184600F034
:1010B000C7FE07F16403184600F06CFE07F17403E5
:1010C000894A92E8030083E8030007F17C0318468D
:1010D00000F054FE07F17C0307F1740207F1680089
:1010E00006CA00F08CFE07F168023B1D1146186825
:1010F00000F08CFA07F16803184600F0A1FE07F132
:101100007C03184600F046FE07F18C03774A92E80C
:10111000030083E8030007F19403184600F02EFE55
:1011200007F1940307F18C0207F1800006CA00F072
:1011300066FE07F180023B1D1146186800F066FA52
:1011400007F18003184600F07BFE07F19403184670
:1011500000F020FE07F1A403654A92E8030083E84B
:10116000030007F1AC03184600F008FE07F1AC03DA
:1011700007F1A40207F1980006CA00F040FE07F14B
:1011800098023B1D1146186800F040FA07F19803D9
:10119000184600F055FE07F1AC03184600F0FAFDC2
:1011A00007F1BC03534A92E8030083E8030007F108
:1011B000C403184600F0E2FD07F1C40307F1BC02C6
:1011C00007F1B00006CA00F01AFE07F1B0023B1D9D
:1011D0001146186800F01AFA07F1B003184600F03B
:1011E0002FFE07F1C403184600F0D4FD07F1D40325
:1011F000414A92E8030083E8030007F1DC03184644
:1012000000F0BCFD07F1DC0307F1D40207F1C800D0
:1012100006CA00F0F4FD07F1C8023B1D114618682C
:1012200000F0F4F907F1C803184600F009FE07F1D1
:10123000DC03184600F0AEFD304A07F1EC0392E8FB
:10124000030083E8030007F1F403184600F096FD5D
:1012500007F1F40307F1E00007F1EC0206CA00F021
:10126000CEFD07F1E0023B1D1146186800F0CEF9F3
:1012700007F1E003184600F0E3FD07F1F403184618
:1012800000F088FD1E4A07F5827392E8030083E8A8
:10129000030007F58673184600F070FD07F58673A6
:1012A00007F1F80007F5827206CA00F0A8FD07F101
:1012B000F8023B1D1146186800F0A8F907F1F80381
:1012C000184600F0BDFD07F58673184600F062FD74
:1012D00018E000BF000C024090610008986100080F
:1012E000A0610008A8610008B0610008B8610008AA
:1012F000C0610008C8610008D0610008D86100081A
:10130000E0610008B74A07F58E7392E8030083E8AE
:10131000030007F59273184600F030FD07F592734D
:1013200007F5887007F58E7206CA00F068FD07F5AC
:1013300088723B1D1146186800F068F907F588733C
:10134000184600F07DFD07F59273184600F022FD67
:10135000A54A07F59A7392E8030083E8030007F5AE
:101360009E73184600F00AFD07F59E7307F594700A
:1013700007F59A7206CA00F042FD07F594723B1D0C
:101380001146186800F042F907F59473184600F00A
:1013900057FD07F59E73184600F0FCFC934A07F5CD
:1013A000A67392E8030083E8030007F5AA731846C2
:1013B00000F0E4FC07F5AA7307F5A07007F5A67224
:1013C00006CA00F01CFD07F5A0723B1D1146186807
:1013D00000F01CF907F5A073184600F031FD07F581
:1013E000AA73184600F0D6FC814A07F5B27392E85A
:1013F000030083E8030007F5B673184600F0BEFC4F
:1014000007F5B67307F5AC7007F5B27206CA00F0BF
:10141000F6FC07F5AC723B1D1146186800F0F6F8B3
:1014200007F5AC73184600F00BFD07F5B6731846C8
:1014300000F0B0FC6F4A07F5BE7392E8030083E842
:10144000030007F5C273184600F098FC07F5C27355
:1014500007F5B87007F5BE7206CA00F0D0FC07F5B4
:10146000B8723B1D1146186800F0D0F807F5B87344
:10147000184600F0E5FC07F5C273184600F08AFC38
:101480005D4A07F5CA7392E8030083E8030007F595
:10149000CE73184600F072FC07F5CE7307F5C470E2
:1014A00007F5CA7206CA00F0AAFC07F5C4723B1D14
:1014B0001146186800F0AAF807F5C473184600F042
:1014C000BFFC07F5CE73184600F064FC4B4A07F5E5
:1014D000D67392E8030083E8030007F5DA73184631
:1014E00000F04CFC07F5DA7307F5D07007F5D672FB
:1014F00006CA00F084FC07F5D0723B1D114618683F
:1015000000F084F807F5D073184600F099FC07F551
:10151000DA73184600F03EFC394A07F5E27392E8A8
:10152000030083E8030007F5E673184600F026FC85
:1015300007F5E67307F5DC7007F5E27206CA00F0FE
:101540005EFC07F5DC723B1D1146186800F05EF882
:1015500007F5DC73184600F073FC07F5E6731846D0
:1015600000F018FC274A07F5EE7392E8030083E8C1
:10157000030007F5F273184600F000FC07F5F2735C
:1015800007F5E87007F5EE7206CA00F038FC07F5BB
:10159000E8723B1D1146186800F038F807F5E8734B
:1015A000184600F04DFC07F5F273184600F0F2FB08
:1015B0003B1D1121186800F08DF83B1D1249186879
:1015C00000F070F83B1D2921186800F083F83B1DDE
:1015D0002C21186800F07EF800BF07F5F477BD46AF
:1015E00080BD00BFE8610008F0610008F8610008F4
:1015F0000062000808620008106200081862000813
:10160000206200082862000840420F0090B585B0B3
:1016100000AF786039600021386800F02CFC034688
:101620001B781946786800F055F81C4A1B4B1B8B39
:101630009BB243F400539BB21383194A184B5B8B44
:101640009BB243F004039BB253830123FB73FC7BE7
:10165000386800F01FFC03469C4234BF012300237E
:10166000DBB2002B0ED0FB7B1946386800F003FC80
:1016700003461B781946786800F018FBFB7B0133A2
:10168000FB73E4E7064A064B1B8B9BB243F0040353
:101690009BB2138300BF1437BD4690BD000C0240BF
:1016A0000008024080B483B000AF786039603B68C6
:1016B000002B14BF01230023DBB2002B03D03B68B7
:1016C000013B3B60F3E700BF0C37BD465DF8047B90
:1016D0007047000080B582B000AF78600B46FB70A9
:1016E000104A104B5B8B9BB243F400539BB2538365
:1016F0000D4A0D4B5B8B9BB243F004039BB25383AB
:10170000FB781946786800F0D1FA074A064B1B8B24
:101710009BB243F004039BB2138300BF0837BD465E
:1017200080BD00BF000C02400008024080B582B0BE
:1017300000AF78600B46FB70104A104B1B8B9BB2BE
:1017400043F400539BB213830D4A0D4B5B8B9BB24A
:1017500043F004039BB25383FB781946786800F08A
:10176000A5FA074A064B1B8B9BB243F004039BB2BE
:10177000138300BF0837BD4680BD00BF000C024088
:101780000008024080B582B000AF78600B467B80D5
:10179000144A144B1B8B9BB243F400539BB213832C
:1017A000114A114B5B8B9BB243F004039BB25383F2
:1017B0007B881B12DBB21946786800F077FA7B88C9
:1017C000DBB21946786800F071FA074A064B1B8BAA
:1017D0009BB243F004039BB2138300BF0837BD469E
:1017E00080BD00BF000C02400008024080B584B0FC
:1017F00000AFF860084611461A4603467B810B4647
:101800003B811346FB802A21F868FFF763FF7B8941
:101810001946F868FFF7B6FFFB881946F868FFF726
:10182000B1FF2B21F868FFF755FF3B891946F8688F
:10183000FFF7A8FF3B8B1946F868FFF7A3FF00BF2F
:101840001037BD4680BD000080B582B000AF786023
:101850000B46FB7036217868FFF73CFFFB78032BC3
:101860001AD801A252F823F079180008811800084C
:10187000891800089118000858217868FFF756FF6A
:1018800088217868FFF752FF28217868FFF74EFF1C
:10189000E8217868FFF74AFF7B68FA781A70FB78CE
:1018A000002B02D0FB78012B07D17B68F0225A80F5
:1018B0007B684FF4A0729A8006E07B684FF4A072B8
:1018C0005A807B68F0229A8000BF0837BD4680BDF1
:1018D00080B584B002AF786039607B685B88013B7B
:1018E00099B27B689B88013B9BB23A680192009356
:1018F0000B4600220021786800F004F800BF08378A
:10190000BD4680BD80B588B002AFF860084611467C
:101910001A4603467B810B463B811346FB80F888C1
:101920003A8979893B8C00930346F868FFF75EFF9C
:101930002C21F868FFF7CEFEFA887B89D31A013391
:10194000398C3A898A1A013202FB03F37B614D4AD2
:101950004C4B5B8B9BB243F004039BB253834A4ACC
:10196000494B1B8B9BB243F400539BB21383012161
:10197000F86800F069F97B6A19887B694FF6FF7295
:10198000934228BF13469BB21A46F86800F0B4F998
:101990003E4A3E4B9B8A9BB243F001039BB293822B
:1019A0003A4A3A4B1B889BB243F001039BB2138027
:1019B000374B00221A60374B5B68002B11D1364B36
:1019C0005B68002B0DD1354B1B899BB203F00303E1
:1019D000002B06D0314B1B899BB203F08003002BF8
:1019E00001D0012300E00023002B00D0E3E7274AC9
:1019F000264B1B889BB223F001039BB21380244B20
:101A00001B681A04214B5B6A1344254A13607B69E7
:101A1000B3F5803F25D37B6A19887B699BB201337C
:101A20009BB21A46F86800F067F91A4B5B68002B06
:101A300011D1194B5B68002B0DD1184B1B899BB240
:101A400003F00303002B06D0144B1B899BB203F059
:101A50008003002B01D0012300E00023002B00D0E5
:101A6000E3E7084A074B1B8B9BB243F004039BB28E
:101A700013830021F86800F0E7F800BF1837BD466F
:101A800080BD00BF00080240000C0240000800407A
:101A9000D832002088640240A06402400050014017
:101AA000DC32002080B586B002AFF8607B600B4668
:101AB0007B8113463B8178893A8979893B890093F8
:101AC0000346F868FFF792FE2C21F868FFF702FE44
:101AD0007B681B881946F868FFF754FE00BF103773
:101AE000BD4680BD80B58AB002AFF8600846114699
:101AF0001A4603467B810B463B811346FB807B895C
:101B0000FA685288934203DBFB685B88013B7B8168
:101B1000FB88FA685288934203DBFB685B88013BD1
:101B2000FB803B89FA689288934203DBFB689B88C1
:101B3000013B3B813B8DFA689288934203DBFB6853
:101B40009B88013B3B857A89FB889A4205DD7B892E
:101B5000BB83FB887B81BB8BFB803A893B8D9A42A0
:101B600005DD3B89BB833B8D3B81BB8B3B85FA8885
:101B70007B89D31A9BB27B833A8D3B89D31A9BB264
:101B80003B83B7F91A30002B03D0B7F91830002B7C
:101B900010D1FB6A1B689BB2BB82F8883A897989AD
:101BA00007F1140301933B8D00930346F868FFF798
:101BB000A9FE46E0B7F91A20B7F918309A4206DDB7
:101BC000B7F91A30DA0F13445B101BB206E0B7F90D
:101BD00018305B42DA0F13445B101BB2FB83FB6AC5
:101BE0001B689BB2FB8207F116033A897989F86872
:101BF000FFF758FF7A89FB889A4203D13A893B8DD7
:101C00009A421DD0B7F91E20B7F91A305B429A42AA
:101C100007DDFA8B3B8BD31A9BB2FB837B890133A5
:101C20007B81B7F91E20B7F918309A42D7DAFA8BC0
:101C30007B8B13449BB2FB833B8901333B81CEE713
:101C400000BF2037BD4680BD80B483B000AF786050
:101C50000B46FB70144A144B1B889BB223F04003C5
:101C60009BB21380FB78012B08D10F4A0E4B1B88C7
:101C70009BB243F400639BB2138007E00A4A0A4B0D
:101C80001B889BB223F400639BB21380064A064B69
:101C90001B889BB243F040039BB2138000BF0C37FC
:101CA000BD465DF8047B70470050014080B483B0AE
:101CB00000AF78600B46FB700E4BFA7892B29A81B7
:101CC0000C4B1B899BB203F00303002B06D0094B7E
:101CD0001B899BB203F08003002B01D0012300E09D
:101CE0000023002B00D0EBE700BF0C37BD465DF8AA
:101CF000047B70470050014080B483B000AF78602F
:101D00000B467B8013463B80194B5B68002B14BF4E
:101D100001230023DBB2002B01D0002322E07B68EB
:101D20007A88DA80134B4FF47412DA60104A104B41
:101D30001B6823F4806313600D4A3B8853600C4A90
:101D40007B680633D3600A4A094B1B6843F00103E2
:101D50001360094A084B9B889BB243F002039BB275
:101D60009380012318460C37BD465DF8047B70470D
:101D7000A0640240006402400050014080B582B07F
:101D800000AF7860786800F095F87B6818460837EF
:101D9000BD4680BD80B582B000AF7860786800F045
:101DA00094F87B6818460837BD4680BD80B483B080
:101DB00000AF78607B681B6818460C37BD465DF83D
:101DC000047B704780B483B000AF78607B685B6849
:101DD00018460C37BD465DF8047B704790B583B05C
:101DE00000AF78607868FFF7E1FF04467868FFF796
:101DF000E9FF0346234418460C37BD4690BDB0B5F5
:101E000086B000AFF860381D80E806003B60FB68D4
:101E10003968184600F070F83B1D1846FFF7C6FFFA
:101E200004463B1D1846FFF7D9FF02462B462146C4
:101E3000F86800F089F8FB6818461837BD46B0BD51
:101E4000B0B582B000AF78607B681C687B685D6865
:101E50007B68184600F0A6F803461A462946204635
:101E600000F0ABF87B68184600F055F87B68184620
:101E70000837BD46B0BD80B483B000AF786039602C
:101E80007B681A683B68134418460C37BD465DF8FA
:101E9000047B704780B483B000AF78607B685B6878
:101EA0001A467B681B68D31A18460C37BD465DF886
:101EB000047B704780B483B000AF78607B681846BD
:101EC0000C37BD465DF8047B704780B483B000AF2B
:101ED00078607B6818460C37BD465DF8047B704718
:101EE00080B582B000AF78607868FFF753FF7B68F9
:101EF00018460837BD4680BD80B582B000AF786017
:101F000039607B683968184600F065F87B681846C8
:101F10000837BD4680BD80B582B000AF78607B6871
:101F200019687B689B681A467B681B68D31A1A4637
:101F3000786800F067F87B681846FFF7D1FF7B6888
:101F400018460837BD4680BD90B587B000AFF86031
:101F5000B9607A603B707968B86800F066F803464B
:101F60007B61FB687969184600F073F80246FB68EC
:101F70001A60FB681A687B691A44FB689A60FB6800
:101F80001C68FB68184600F00DF803462246796885
:101F9000B86800F072F80246FB685A6000BF1C3750
:101FA000BD4690BD80B483B000AF78607B681846B2
:101FB0000C37BD465DF8047B704780B584B000AF38
:101FC000F860B9607A60B968F86800F067F800BF37
:101FD0001037BD4680BD80B582B000AF78603960F3
:101FE0003968786800F067F87B6800221A607B68BF
:101FF00000225A607B6800229A607B681846083786
:10200000BD4680BD80B584B000AFF860B9607A602D
:10201000BB68002B05D0FB687A68B968184600F0E9
:1020200058F800BF1037BD4680BDB0B584B000AFD2
:10203000786039607C683B1D184600F059F82A46E4
:102040003968204600F05EF8034618461037BD4652
:10205000B0BD80B582B000AF786039603B68002BBE
:1020600006D07B683968184600F05BF8034600E04C
:10207000002318460837BD4680BD80B584B000AF48
:10208000F860B9607A603B607A68B968F86800F017
:1020900057F8034618461037BD4680BD80B582B05C
:1020A00000AF786039603968786800F05BF800BF8D
:1020B0000837BD4680BD80B582B000AF786039601A
:1020C0003968786800F059F87B6818460837BD46CB
:1020D00080BD80B584B000AFF860B9607A607A687E
:1020E000B968F86800F055F800BF1037BD4680BDEC
:1020F00080B483B000AF786018460C37BD465DF8F9
:10210000047B704780B485B000AFF860B9603A7165
:10211000BA68FB68D31A18461437BD465DF8047BCD
:10212000704780B582B000AF7860396000223968AE
:10213000786800F03BF8034618460837BD4680BD76
:1021400080B586B000AFF860B9607A600123FB7596
:102150007A68B968F86800F045F8034618461837F9
:10216000BD4680BD80B483B000AF7860396000BFE9
:102170000C37BD465DF8047B704780B483B000AF78
:10218000786039607B6818460C37BD465DF8047B83
:10219000704780B584B000AFF860B9607A60B86805
:1021A00001F048FC00BF1037BD4680BD80B584B04B
:1021B00000AFF860B9607A60F86800F023F8024672
:1021C000BB689A4234BF01230023DBB2002B01D04D
:1021D00001F04CFCB86801F02FFC0346184610379C
:1021E000BD4680BD80B584B000AFF860B9607A604C
:1021F0007A68B968F86800F011F803461846103795
:10220000BD4680BD80B483B000AF78604FF0FF332F
:1022100018460C37BD465DF8047B704790B585B015
:1022200000AFF860B9607A60F86800F00FF8044613
:10223000B86800F00BF803467A681946204600F0AB
:1022400010F8034618461437BD4690BD80B483B0DD
:1022500000AF78607B6818460C37BD465DF8047B9C
:102260007047B0B584B000AFF860B9607A60F868C4
:1022700000F013F80446B86800F00FF805467868D7
:1022800000F016F803461A462946204600F01BF8CF
:10229000034618461037BD46B0BD80B483B000AFCA
:1022A00078607B6818460C37BD465DF8047B704744
:1022B00080B483B000AF78607B6818460C37BD46A9
:1022C0005DF8047B704780B586B000AFF860B960F8
:1022D0007A600123FB757A68B968F86800F005F840
:1022E000034618461837BD4680BD80B586B000AF9E
:1022F000F860B9607A60BA68FB68D31A7B617B6961
:10230000002B05D07B691A46F968786803F0F8FD60
:102310007B697A68134418461837BD4680BD0000B3
:1023200080B483B000AF0346FB71094997F90730C9
:102330005B0997F9072002F01F02012000FA02F260
:1023400041F8232000BF0C37BD465DF8047B704781
:1023500000E100E080B483B000AF03463960FB7158
:1023600097F90730002B0BDA0D49FB7903F00F03C7
:10237000043B3A68D2B21201D2B20B441A7609E099
:10238000084997F907303A68D2B21201D2B20B4429
:1023900083F8002300BF0C37BD465DF8047B70470F
:1023A00000ED00E000E100E080B400AF5F4A5F4B69
:1023B0001B6B43F0040313635C4A5C4B1B6B43F0E1
:1023C00008031363594A594B1B6B43F020031363F3
:1023D000564A564B5B6C43F480135364544A544B37
:1023E0001B6843F080631360514A514B9B6843F074
:1023F000806393604F4A4F4B1B6843F01003136098
:102400004C4A4C4B9B6843F010039360484A484B3E
:102410001B6843F080731360454A454BDB6843F00B
:102420008073D360444A444B1B6843F400431360F9
:10243000414A414B9B6843F4404393603E4A3E4BC4
:102440001B6A43F0A04313623B4A3B4B1B6843F4B7
:1024500000331360384A384B9B6843F44033936031
:10246000354A354B5B6A43F005035362324A324BBF
:102470001B6843F4002313602F4A2F4B9B6843F4DF
:10248000402393602C4A2C4B5B6A43F05003536209
:102490002A4A2A4B1B889BB243F400739BB21380D9
:1024A000264A264B1B889BB243F480739BB2138051
:1024B000224A224B1B889BB243F008039BB2138035
:1024C0001E4A1E4B1B889BB243F004039BB2138031
:1024D0001A4A1A4B1B889BB243F040039BB21380ED
:1024E000124A124B1B6B43F480031363144A144BC0
:1024F0001B6843F060631360114A114B1B6843F47F
:10250000005313600E4A0E4B1B6843F400631360C4
:102510000B4A0B4B1B6843F040031360084B094AFE
:102520009A6000BFBD465DF8047B704700380240EA
:10253000000C02400008024000140240005001401C
:10254000A06402400C50014080B400AF784A784B40
:102550001B6C43F0010313644FF080424FF0804343
:102560009B889BB243F040039BB293804FF0804323
:1025700013221A854FF080436322DA624FF08043C2
:1025800031225A634FF080424FF080431B8C9BB244
:1025900043F001039BB213844FF080424FF080431D
:1025A0001B8B9BB243F060039BB213834FF08042BE
:1025B0004FF080431B889BB243F001039BB2138012
:1025C0005B4A5B4B1B6B43F001031363584A584B48
:1025D0001B6B43F004031363554A554B5B6C43F488
:1025E00080735364534A534B1B6843F0C00313601A
:1025F000514A514B1B6843F4406313604F4A4F4BA1
:102600005B6843F4807353604C4B4FF48012DA6282
:102610004A4A4A4B5B6B43F00D035363474A474BAF
:102620005B6B43F0A0035363444A444BDB6843F4C1
:102630004063D360414A414B1B6943F4403313610B
:102640003E4A3E4B9B6843F4806393603B4A3B4B5E
:102650009B6843F080539360384A384B9B6843F043
:10266000C0639360354A354B9B6843F48073936035
:10267000324A324B9B6843F4007393602C4A2C4BD4
:102680001B6B43F4800313632D4A2D4B1B6823F00F
:10269000C00313602A4A2A4B1B6843F400331360BB
:1026A000274A274B1B6843F400631360244A244BDA
:1026B0001B6843F400531360214A214B1B6823F429
:1026C000007313601E4A1E4B1B6843F48063136043
:1026D0001B4A1B4B1B6843F480731360184A184B4A
:1026E0001B6823F0C0031360154A154B5B6843F069
:1026F00008035360124B134A9A60114B124ADA6076
:102700000F4A0F4B1B6823F0606313600C4A0C4B9D
:102710001B6843F001031360084A084B9B6843F0B1
:102720000103936000BFBD465DF8047B704700BFA6
:102730000038024000080240000002400020014032
:10274000106402404C200140A000002080B500AF82
:10275000164A164B1B6C43F002031364144B4FF4E0
:102760007A721A85124B1E22DA62114A104B9B892B
:102770009BB243F001039BB293811D20FFF7D0FD74
:1027800000211D20FFF7E6FD094A094B1B889BB27B
:1027900043F001039BB21380054A054B9B8A9BB211
:1027A00043F001039BB2938200BF80BD003802401A
:1027B0000004004080B500AF0E4A0E4B1B6C43F086
:1027C000040313640C4B0A221A850B4B4FF6FF725D
:1027D000DA62094A084B9B899BB243F001039BB222
:1027E00093811E20FFF79CFD00211E20FFF7B2FD04
:1027F00000BF80BD003802400008004080B500AF37
:10280000184A184B1B6B43F001031363154A154B11
:102810005B6C43F480435364134A134B1B6823F4EB
:1028200040431360104A104BDB6843F48043D3608D
:102830000E4A0E4B1B6913610D4A0D4BDB6843F0CA
:102840008003D3600A4A0A4B1B6843F0800313607D
:1028500003211720FFF77EFD1720FFF761FD00BF62
:1028600080BD00BF00380240000002400038014037
:10287000003C014080B483B000AF78607B680022E8
:102880001A707B68F0225A807B684FF4A0729A809D
:102890007B680D4A083392E8030083E803007B68F5
:1028A0000A4A103392E8030083E803007B68084A71
:1028B000183392E8030083E803007B6818460C375E
:1028C000BD465DF8047B704730620008386200083E
:1028D0004062000890B482B000AF894A884B1B8ADE
:1028E0009BB223F001039BB21382864B1B78DBB2B1
:1028F000002B4DD0844B1B889BB2B3F5007F0CBFDF
:1029000001230023DBB2002B09D0804B1B78DBB204
:102910001A467F4B012199547E4B00221A707D4B41
:102920001B78DBB2002B00F0D581784B1B78DBB233
:102930001846754B1B889BB21946774B1B889BB278
:102940001A46754B9B889BB21344734A128992B204
:102950001344714A928992B2134407EE903AB8EE4A
:10296000E77AF1EE006AC7EE267A9FED6C7A77EE91
:10297000677A6B4A43020B449B001344C3ED007A11
:10298000614B1B889BB201339AB25F4B1A80A1E165
:10299000614B1B889BB21A465F4B9B889BB21344CA
:1029A0005D4A128992B213445B4A928992B21344EF
:1029B00007EE903AF8EEE77AF1EE006A87EEA67A33
:1029C000DFED586AC7EE267A9FED577A27EE877AB1
:1029D000564B1B7807EE903AF8EEE77A77EE677A77
:1029E000FCEEE77AC7ED017ABB889AB2504B1A80A9
:1029F000494B5B889BB21A46474BDB889BB213441A
:102A0000454A528992B21344434AD28992B213443E
:102A100007EE903AF8EEE77AF1EE006A87EEA67AD2
:102A2000DFED406AC7EE267A9FED3F7A27EE877A80
:102A3000404B1B7807EE903AF8EEE77A77EE677A2C
:102A4000FCEEE77AC7ED017ABB889AB23A4B1A805E
:102A5000304B1B78DBB283F00103DBB2002B2ED0AE
:102A6000364B1B78DBB283F00103DBB2002B07D1BE
:102A7000264B1B78DAB2324B1B78DBB29A421ED05F
:102A8000304B1B78DBB2002B17D12F4B1B889BB22E
:102A90001A462E4B1B889A4211DD2D4B1B889BB288
:102AA0001A462A4B5B889A4209DA214B1B889BB253
:102AB0001A46264B5B889A4201DB012300E0002383
:102AC000002B00F08380134B01221A701D4B1B78E2
:102AD000DBB2002B42D00C4B00221A800B4B1B7830
:102AE000DBB21A461B4B002123F81210074B1B7850
:102AF000DBB21A46184B4FF6FF7123F8121065E04F
:102B00000004004002000020C01A0020BE1A00206D
:102B1000CC1A0020BC1A0020A000002000E0FF44D6
:102B2000D81A0020000080450000704300000020FB
:102B3000B010002001000020B4100020BD1A0020B9
:102B4000BF1A0020D51A0020C41A0020040000205B
:102B5000B2100020C81A0020D01A0020604B1B7849
:102B6000DBB219465F4B1B889AB25F4B1B88D31AA6
:102B70009BB21AB25D4B23F81120594B1B78DBB284
:102B80001A465A4B33F812301BB29BB2DB0BDBB246
:102B9000002B10D0524B1B78DBB21A461946534B10
:102BA00033F811301BB29BB203F5A0739BB219B27C
:102BB0004E4B23F812104A4B1B78DBB21A464A4B95
:102BC0001B88013B99B24A4B23F81210494B1B78E2
:102BD000DBB2002B0DD0424B1B78DBB21A46444BC4
:102BE00033F812309BB240F23F12934201D10123DD
:102BF00000E00023002B10D0394B1B78DBB2012BF7
:102C000014BF01230023DBB21A46354B1A703A4B2E
:102C100000221A80374B00221A70314B1B78DBB22E
:102C20001946304B1B889BB21C46344B1B8898B20C
:102C3000334A0B469B000B449B012344014622F878
:102C40001310274B1B78DBB21946264B1B889BB20F
:102C50001C462C4B1B8898B22B4A0B469B000B44FE
:102C60009B012344014622F813101E4B1B889BB284
:102C700040F23F1293420CBF01230023DBB2002B32
:102C800003D0184B00221A8006E0164B1B889BB21B
:102C900001339AB2134B1A80164B1B78DBB2002B10
:102CA0000CD00F4B1B78DBB2114A32F8132092B2D2
:102CB000013291B20E4A22F8131006E00E4B1B8827
:102CC0009BB201339AB20C4B1A800C4B1B889AB200
:102CD0000E4B1A8000BF0837BD4690BC704700BF3E
:102CE000BE1A0020C01A002004000020C81A0020CC
:102CF000D01A0020BC1A0020C41A0020B0100020F6
:102D0000B8100020B4100020B8150020B210002028
:102D100080B400AF0C4B1B6903F08003002B0CBF89
:102D200001230023DBB2002B02D0084B01221A70D2
:102D3000074A074B5B6943F08003536100BFBD4600
:102D40005DF8047B704700BF00000240D41A0020E9
:102D5000003C014080B400AF084A084B1B8A9BB27C
:102D600023F001039BB21382054B1B680133044A15
:102D7000136000BFBD465DF8047B7047000800404B
:102D8000D83200200000000090B583B000AF0023CF
:102D90007B607B68B3F5806F32DA7B6807EE903A30
:102DA000F8EEE77A77EEA77A17EE900AFDF784FB44
:102DB00017A3D3E90023FDF7D3FB03460C461846BF
:102DC00021464FF00002104BFDF7F4FC03460C4681
:102DD00044EC173BB0EE470AF0EE670A00F0D8FF6C
:102DE00054EC103B18462146FDF792FE0146074A77
:102DF0007B689B00134419607B6801337B60C8E7E4
:102E000000BF0C37BD4690BD00009040B0000020D0
:102E1000182D4454FB21094080B582B000AF154AFB
:102E2000144B1B889BB223F001039BB21380002339
:102E3000FB80BB1D19461048FEF74AFD0F4B0022D0
:102E40001A700F4B00221A700E4B00221A800021BC
:102E50000D4B0A461A800D4B0A461A80054A054B4F
:102E60001B889BB243F001039BB2138000BF08375D
:102E7000BD4680BD00040040E0320020BD1A0020A5
:102E8000BC1A0020B2100020C01A0020C41A002072
:102E900090B583B000AF78607868FDF7FBFA034621
:102EA0000C4644EC103B00F02DFFB0EE407AF0EE03
:102EB000607AB0EE470AF0EE670A0C37BD4690BD67
:102EC000B0B582B000AF87ED010A38607868FDF7D1
:102ED000F3FA04460D463868FDF7DCFA02460B4665
:102EE00043EC112B45EC104B00F09AFFB0EE407A0A
:102EF000F0EE607AB0EE470AF0EE670A0837BD469A
:102F0000B0BD0000B0B59EB002AF786000237B6515
:102F10000023FB66FB6EB3F5007F24DAFB6E1722FD
:102F200093FAA3F363FA02F37B657A6DFB6E9A4220
:102F300015DDFB6E9B007A6813441B683B65FB6ED6
:102F40009B007A6813447A6D920079680A4412688B
:102F50001A607B6D9B007A6813443A6D1A60FB6EB1
:102F60000133FB66D6E70123BB66BB6EB3F5007F7A
:102F700080F2EC80BB6E012B42D100237B667B6E1E
:102F8000B3F5007F80F2DE807A6EBB6E1344FB6483
:102F9000FB6C9B007A6813441B68BB64FB6C9B0052
:102FA0007A6813447A6E920079680A4492ED007A46
:102FB000D7ED127A77EE677AC3ED007AAF4AFB6CF1
:102FC0009B0013444FF000021A607B6E9B007A68EE
:102FD00013447A6E920079680A4492ED007AD7ED34
:102FE000127A77EE277AC3ED007AA44A7B6E9B00B3
:102FF00013444FF000021A607B6E02337B66BEE71B
:1030000000233B663A6EBB6E9A4280F29B803B6E19
:103010009A02BB6E5B0092FBF3F31846FFF738FF92
:1030200054EC103B18462146FDF74AFD03467B64ED
:10303000934A7B6C9B0013441B683B647B6C03F5D9
:1030400080738F4A9B0013441B68FB633B6EFB65D8
:10305000FB6DB3F5007F71DAFA6DBB6E1344BB6391
:10306000FB6D9B007A6813441B687B63834AFB6D8E
:103070009B0013441B683B63BB6B9B007A68134443
:103080001B68FB627D4ABB6B9B0013441B68BB62E1
:1030900097ED0F7AD7ED0B7A27EE277AD7ED106AE6
:1030A000D7ED0A7A66EEA77A77EE677AC7ED097AE6
:1030B00097ED0F7AD7ED0A7A27EE277AD7ED106AC7
:1030C000D7ED0B7A66EEA77A77EE277AC7ED087A06
:1030D000BB6B9B007A68134497ED0D7AD7ED097AA4
:1030E00077EE677AC3ED007A97ED0C7AD7ED087A20
:1030F00077EE677A614ABB6B9B001344C3ED007A9D
:10310000FB6D9B007A68134497ED0D7AD7ED097A31
:1031100077EE277AC3ED007A97ED0C7AD7ED087A2F
:1031200077EE277A554AFB6D9B001344C3ED007A76
:10313000BB6E5B00FA6D1344FB6589E73B6E0133A0
:103140003B665FE7BB6E5B00BB660EE74D4BFB610A
:103150000123A7F85A30B7F85A30B3F5807F00F34F
:103160008880B7F85A30013B07EE903AF8EEE77ADC
:10317000B7EE047A67EE877AFCEEE77AC7ED007A5D
:103180003B887B83B7F85A309B007A681344D3EDB1
:10319000007A0220B0EE670AFFF792FE55EC104B62
:1031A000B7F85A30354A9B001344D3ED007A022019
:1031B000B0EE670AFFF784FE53EC102B2046294639
:1031C000FDF71CF803460C4644EC173BB0EE470AEB
:1031D000F0EE670A00F09CFF54EC103B18462146C5
:1031E000FDF796FC03467B6197ED057ADFED266AD5
:1031F000C7EE267AB7EE007A77EE677A9FED237AEC
:1032000067EE877AFCEEE77AC7ED007A3B887B822F
:103210007B8B07EE903AF8EEE77AB7EE047A77EE1A
:10322000877AFCEEE77AC7ED007A3B883B82002381
:10323000BB813A8A798B07F10C0301937B8A009357
:10324000134600221248FEF75DFB1F23FB81388ADC
:103250007A8A798B07F10E030193EF2300930346DB
:103260000B48FEF74FFBB7F85A300133A7F85A3036
:1032700071E700BF7037BD46B0BD00BFD82A00203F
:10328000B00000200000A03F0000804800006F4315
:10329000E032002090B58DB002AF00F09DFA00F052
:1032A000D1FAFFF787FAFFF77FF8FFF74DF9FFF73D
:1032B000A5FAFFF769FD5948FDF73CFE0321574881
:1032C000FEF7C2FA0023FB80BB1D19465348FEF7E8
:1032D000FFFAFFF73BFA524B1B78DBB2002B0CD006
:1032E0004F4B00221A704F4B1B78DBB283F0010367
:1032F000DAB24C4B1A70FFF78FFD4A4B1B78DBB2EA
:10330000002B50D0484B1B78DBB283F00103DBB2BB
:10331000002B11D0454B1B78DBB283F00103DBB2ED
:10332000002B07D1414B5B78DBB283F00103DBB2AA
:10333000002B01D0012300E00023002B10D03A4BDA
:1033400001221A703A4B00221A80384B1B78DBB2EC
:10335000002B01D0012200E00022364B1A70BAE7A0
:10336000324B1B78DBB2002B03D0334B00221A7098
:1033700008E02E4B5B78DBB2002B00F08B812E4BEC
:1033800001221A702C4B1B78DBB2DB022B4A134450
:103390001846FFF7B7FD284B1B78DBB21A46234BC4
:1033A0000021995497E7264B1B78DBB283F0010389
:1033B000DBB2002B06D01C4B1B78DBB2002B01D0FC
:1033C000012300E00023002B0AD01A4B1B78DAB24D
:1033D000194B1A701A4B01221A701A4B00221A80CC
:1033E000174B1B78DBB2002B30D0134B1B78DAB2B3
:1033F000104B1B78DBB29A420DD10E4B1B78DBB21F
:103400001A46114B33F812309BB21A460D4B1B88EB
:103410009BB29A421ADB012319E000BFE032002080
:10342000D41A002002000020BC1A0020CC1A002070
:10343000C01A0020BE1A0020BF1A0020D81A00208F
:10344000BD1A0020C21A0020D01A00200023002B31
:103450003FF441AF904B1B78DBB21A468F4B33F8E9
:1034600012301BB21A468E4B1B889BB21A448D4BEE
:1034700083FB0213D911D317C91A0B469B000B44C7
:103480009B01D11A0B46FB84854B1B889BB2002BFA
:103490000CBF01230023DBB2002B1FD07E4B1B7817
:1034A000DBB21846FA8C804903469B0003449B011B
:1034B000134431F813309AB27C4B1A80764B1B7848
:1034C000DBB21846FA8C7A4903469B0003449B0101
:1034D000134431F813309AB2764B1A80704B1B8824
:1034E00099B26F4B1B889AB20023BB6007F10803A7
:1034F0000193EF230093134600226F48FEF7F2FA80
:10350000674B1B889CB2644B1B78DBB21846FA8C65
:10351000654903469B0003449B01134431F8133073
:1035200099B25F4B1B8898B2604B1B889BB24FF4DB
:10353000FC62FA6007F10C020192009303460A460E
:1035400021465D48FEF7CEFA554B1B889CB2524B84
:103550001B78DBB21846FA8C554903469B0003449E
:103560009B01134431F8133099B24D4B1B8898B22C
:10357000504B1B889BB240F21D523A6107F110027A
:103580000192009303460A4621464B48FEF7AAFAE9
:10359000414B1B78DBB21846FA8C434903469B002B
:1035A00003449B01134431F813309AB23F4B1A8005
:1035B000394B1B78DBB21846FA8C3D4903469B0019
:1035C00003449B01134431F813309AB2394B1A80EB
:1035D000334B1B889BB201339AB2314B1A80304B6C
:1035E0001B889BB2B3F5A07F0CBF01230023DBB285
:1035F000002B02D0314B00221A70294B1B889BB242
:103600001A462F4B1B8804339A420CBF0123002318
:10361000DBB2002B3FF45FAE294B1988284B5B8847
:10362000043B98B2264B1C88254B5B8804339BB225
:103630004FF6E0727A6107F114020192009323467B
:1036400002461D48FEF74EFA1D4B1B88043BBB612A
:103650000023FB6107F11C0207F11803114618460D
:1036600000F030F803461B6899B2154B5888144B8C
:103670001B8804339CB2124B5B884FF6E0723A62AF
:1036800007F1200201920093234602460A48FEF702
:1036900029FA20E600BF1EE6BF1A0020C81A002043
:1036A000C21A002067666666B8100020B81A0020AB
:1036B000B8150020BA1A0020E0320020BD1A002000
:1036C0000400002080B483B000AF786039607B686C
:1036D0001A683B681B689A4201DA3B6800E07B6825
:1036E00018460C37BD465DF8047B704780B582B044
:1036F00000AF786039607B68012B07D13B684FF6DB
:10370000FF72934202D10348FFF7B4F800BF0837B5
:10371000BD4680BDE032002080B500AF4FF6FF719E
:103720000120FFF7E3FF80BDDFF834D0002103E084
:103730000C4B5B58435004310B480C4B42189A42D7
:10374000F6D30B4A02E0002342F8043B094B9A42AD
:10375000F9D300F041F802F09FFBFFF79BFD7047A3
:10376000000003207C8D0008000000208400002061
:1037700084000020B4330020FEE780B400AF00BF17
:10378000BD465DF8047B704780B400AFFEE780B4AF
:1037900000AFFEE780B400AFFEE780B400AFFEE705
:1037A00080B400AF00BFBD465DF8047B704780B4B5
:1037B00000AF00BFBD465DF8047B704780B400AF2A
:1037C00000BFBD465DF8047B704780B400AF00BF0A
:1037D000BD465DF8047B704780B500AF164A164BB6
:1037E000D3F8883043F47003C2F88830134A134B7F
:1037F0001B6843F001031360104B00229A600F4ACC
:103800000E4B1B6823F0847323F4803313600B4B3F
:103810000B4A5A60094A094B1B6823F48023136042
:10382000064B0022DA6000F089F8034B4FF000628B
:103830009A6000BF80BD00BF00ED00E0003802408C
:103840001030002480B487B000AF00233B61002318
:103850007B610223FB600023BB6002237B60324B51
:103860009B6803F00C033B613B69042B07D0082BDA
:1038700009D0002B3DD12D4B2D4A1A603DE02B4B3A
:103880002C4A1A6039E0284B5B689B0D03F001035A
:10389000BB60254B5B6803F03F037B60BB68002B7C
:1038A0000CD0244A7B68B2FBF3F31F4A526892099A
:1038B000C2F3080202FB03F37B610BE01C4A7B6846
:1038C000B2FBF3F3184A52689209C2F3080202FBF2
:1038D00003F37B61144B5B681B0C03F003030133A0
:1038E0005B00FB607A69FB68B2FBF3F30F4A13607D
:1038F00003E00E4B0E4A1A6000BF0B4B9B681B097E
:1039000003F00F030C4AD35CDBB23B61074B1A6830
:103910003B6922FA03F3054A136000BF1C37BD461A
:103920005DF8047B704700BF0038024008000020AB
:103930000024F40000127A000C00002080B483B050
:1039400000AF00237B6000233B60364A354B1B6889
:1039500043F480331360334B1B6803F400333B6044
:103960007B6801337B603B68002B03D17B68B3F538
:10397000A06FF0D12B4B1B6803F40033002B02D057
:1039800001233B6001E000233B603B68012B02D137
:10399000244B254A5A60234A224B1B6C43F0805328
:1039A0001364224A214B1B6843F4404313601D4AB1
:1039B0001C4B9B6893601B4A1A4B9B6843F4004363
:1039C0009360184A174B9B6843F4A0539360154AC1
:1039D000144B1B6843F08073136000BF114B1B68CE
:1039E00003F00073002BF9D0114B40F205721A60FE
:1039F0000C4A0C4B9B6823F003039360094A094B64
:103A00009B6843F00203936000BF064B9B6803F082
:103A10000C03082BF9D100BF0C37BD465DF8047BC1
:103A2000704700BF00380240085A4007007000404D
:103A3000003C024002F05CBA10B5002814BF0446F6
:103A40000124204602F04CFA30B900F007F808B91A
:103A500002F015FA8047F4E710BD0000024B186829
:103A6000BFF35B8F704700BF0033002008B502F042
:103A700006FA0000244B1A68D0075CBF01221A60C6
:103A8000224B1A68D1075CBF01221A60204B1A68CA
:103A9000D2075CBF01221A601E4B1A68D0075CBFB8
:103AA00001221A601C4B1A68D1075CBF01221A6000
:103AB0001A4B1A68D2075CBF01221A60184B1A68A9
:103AC000D0075CBF01221A60164B1A68D1075CBF91
:103AD00001221A60144B1A68D2075CBF01221A60D7
:103AE000124B1A68D0075CBF01221A60104B1A688B
:103AF000D1075CBF01221A600E4B1A68D2075CBF67
:103B000001221A60704700BF303300202C330020A0
:103B10002833002024330020203300201C330020D1
:103B20001833002014330020103300200C33002001
:103B30000833002004330020184B1A68D1075CBFFB
:103B400001221A60164B1A68D2075CBF01221A6064
:103B5000144B1A68D0075CBF01221A60124B1A6816
:103B6000D1075CBF01221A60104B1A68D2075CBFF4
:103B700001221A600E4B1A68D0075CBF01221A603E
:103B80000C4B1A68D1075CBF01221A600A4B1A68F5
:103B9000D2075CBF01221A60704700BF503300207B
:103BA0004C330020483300204433002040330020B1
:103BB0003C3300203833002034330020244B1A6873
:103BC000D0075CBF01221A60224B1A68D1075CBF84
:103BD00001221A60204B1A68D2075CBF01221A60CA
:103BE0001E4B1A68D0075CBF01221A601C4B1A6872
:103BF000D1075CBF01221A601A4B1A68D2075CBF5A
:103C000001221A60184B1A68D0075CBF01221A60A3
:103C1000164B1A68D1075CBF01221A60144B1A6850
:103C2000D2075CBF01221A60124B1A68D0075CBF32
:103C300001221A60104B1A68D1075CBF01221A607A
:103C40000E4B1A68D2075CBF01221A60704700BF92
:103C5000803300207C330020783300207433002030
:103C6000703300206C330020683300206433002060
:103C7000603300205C330020583300205433002090
:103C8000184B1A68D1075CBF01221A60164B1A68DC
:103C9000D2075CBF01221A60144B1A68D0075CBFC0
:103CA00001221A60124B1A68D1075CBF01221A6008
:103CB000104B1A68D2075CBF01221A600E4B1A68BB
:103CC000D0075CBF01221A600C4B1A68D1075CBF99
:103CD00001221A600A4B1A68D2075CBF01221A60DF
:103CE000704700BFA03300209C3300209833002091
:103CF00094330020903300208C3300208833002040
:103D00008433002051EC100BF8B5C1F30A55A5F22D
:103D1000FF34132C0B460F4617DC002C09DA013454
:103D200001F0004303D143F07F5343F440130021DB
:103D300028E0164A2241114200D180B14FF40023FD
:103D400023413B4423EA0203F1E7332C0ADDB4F5B7
:103D5000806F04D110EE102A0B46FCF74FFA41ECAD
:103D6000100BF8BDA5F213424FF0FF35D5402842A5
:103D7000F5D0C4F133040122A240121828BF013348
:103D800022EA050108461946E9E700BFFFFF0F00D8
:103D90001FB551EC100B204A21F00043934207DC81
:103DA0009FED1B1B002001F0FFFD51EC100B07E005
:103DB0001A4A934209DD10EE102A0B46FCF71CFA52
:103DC00041EC100B05B05DF804FB684600F010FFF5
:103DD00000F0030001289DED021B9DED000B04D0B7
:103DE000022805D070B90120DDE701F0A5F9DCE774
:103DF000012001F0D9FD53EC102B10EE100A03F155
:103E00000041DDE701F098F9F5E700BFAFF300806E
:103E10000000000000000000FB21E93FFFFFEF7FF2
:103E20002DE9F04F2DED048B8DB057EC106B55EC58
:103E3000114B00F0C9F9AE4BB0EE408AF0EE608A4B
:103E400093F90090B9F1FF3F98465FD022462B4688
:103E500020462946FCF71EFE8346002856D13246EE
:103E60003B4630463946FCF715FE0190E8B100228A
:103E7000002320462946FCF7DBFD002846D001231D
:103E800002939C4B03939C4BCDF828B00022B9F1D0
:103E9000020FCDE90467CDE90645CDE9082333D00B
:103EA00002A801F0D1FE48BB5EE04FF0000A4FF0DF
:103EB000000B52465B4630463946FCF7B9FD4BECE9
:103EC00019AB002855D052465B4620462946FCF7E0
:103ED000AFFD804618B301230293864B0393019BE9
:103EE0000A93CDE90467CDE90645CDE908ABB9F100
:103EF000000FD5D0804B0022CDE908230A9B1BB1CF
:103F000001F0C4FF0A9B03609DED088BB0EE480AE8
:103F1000F0EE680A0DB0BDEC048BBDE8F08F45EC07
:103F2000104B01F002FE0028F0D052465B462046BE
:103F30002946FCF787FD0028E8D0012302936D4B4A
:103F400003936B4BCDF8288093F90030CDE90467DB
:103F5000CDE9064513B9CDE908ABA1E767490020D3
:103F6000CDE90801022B9BD101F090FF21230360D2
:103F7000C4E7B0EE480AF0EE680A01F0D6FD019001
:103F8000002840F08A8047EC106B01F0CEFD00283D
:103F900000F0838045EC104B01F0C7FD00287CD079
:103FA00053EC182B18EE100A1946FCF773FD98F91C
:103FB0000090504BB0B101220393019B02920A93EF
:103FC000CDE90467CDE90645B9F1000FC3D05246EB
:103FD0005B4650465946FCF7EDFBB9F1020FCDE9BF
:103FE0000801C0E70322029203930A90CDE9046717
:103FF000CDE90645B9F1000F2CD1414B4FF060429D
:10400000CDE90823304652465B463946FCF71AFD97
:10401000002866D000223B4B20462946FCF7A0FA38
:1040200004460D4645EC104B01F01AFE204653ECB9
:10403000102B2946FCF7FCFC20B9334B4FF06042B3
:10404000CDE9082398F90030022B4AD101F01EFF78
:1040500022238CE72D4B0022CDE90823304652461F
:104060005B463946FCF7EEFC0028EBD00022254BDE
:1040700020462946FCF774FA04460D4645EC104BE1
:1040800001F0EEFD204653EC102B2946FCF7D0FC46
:104090000028D7D10022194BD2E70022002351EC8F
:1040A000180BFCF7C5FC00283FF430AF47EC106B51
:1040B00001F03BFD00283FF429AF45EC104B01F027
:1040C00034FD00283FF422AF04230293094B0393ED
:1040D00000230A93CDE90467CDE906458DED089BE1
:1040E000B0E702A801F0B0FD00287FF407AFADE70C
:1040F0001C000020D88A00080000F03F0000F0FFFC
:10410000FFFFEF470000E03FFFFFEFC70000F07F39
:104110002DE9F0432DED028B8BB055EC104B00F0E8
:1041200059FF264BB0EE408AF0EE608A93F90060AA
:10413000731C2AD022462B4620462946FCF7AAFCAF
:10414000074610BB4FF000084FF0000942464B46AF
:1041500020462946FCF776FCB8B101230093184BA2
:1041600001930897CDE90445CDE90245B6B9CDE9FB
:104170000689684601F068FDD0B1089B1BB101F0CB
:1041800085FE089B03609DED068BB0EE480AF0EEBD
:10419000680A0BB0BDEC028BBDE8F08342464B468B
:1041A00040464946FCF706FB022ECDE90601E0D168
:1041B00001F06CFE21230360DFE700BF1C0000203C
:1041C000DC8A0008000000002DE9F04F91B08DED71
:1041D000001B9DE8040257EC106B29F0004858EAD8
:1041E000020310EE10AA3D4600F0BD84784B27F084
:1041F00000449C4209DC03D13EB9A0450DDC01E03E
:10420000984502DC98450ED16AB104F1404404F5AA
:10421000801454EA0A0300F0A6846E4811B0BDE889
:10422000F04F01F015BD002D53DA6B4B98454DDC76
:10423000A3F1547398454CDD4FEA2853A3F2FF33A2
:10424000142B26DDC3F1340322FA03F101FA03F340
:104250009A423ED101F00101C1F1020B002A5BD16B
:104260005B4B984524D104F1404303F5801353EA96
:104270000A0300F07884594B9C422DDDB9F1000F00
:1042800080F275840020002141EC100B11B0BDE8D4
:10429000F08F002A3ED1C3F1140348FA03F101FA6A
:1042A00003F3984540F06B8401F00101C1F1020B6A
:1042B0004B4B984518D1B9F1000F80F25C84484906
:1042C00032463B460020FCF775FADDE74FF0020B63
:1042D000C4E74FF0000BC1E7B9F1000FD2DA9DE857
:1042E000090003F10041CFE7B9F1804F06D1324612
:1042F0003B4610461946FCF733F9C5E7394B99455B
:104300000AD1002D08DB47EC106B11B0BDE8F04F6F
:1043100000F060BE4FF0000B47EC106B01F0FEFBAD
:1043200051EC100BBAF1000F27D124B12C4B25F022
:1043300040429A4221D1B9F1000F05DA02460B46FC
:1043400000202749FCF736FA002D9DDA04F140449D
:1043500004F5801454EA0B0308D102460B461046BC
:104360001946FBF749FF02460B46ACE7BBF1010FCC
:104370008AD101F10043194686E7ED0F6B1E0D93BC
:104380005BEA030302D132463B46E8E7164B984509
:1043900040F3FE8003F1047398450ADD0F4B9C4205
:1043A0000DDCB9F1000FBFF66DAF07A3D3E9002311
:1043B0009FE70E4B9C42F4DD094B9C4218DDB9F19E
:1043C000000FF2DC5EE700BF9C7500883CE4377E9E
:1043D0000000F07FE08A0008FFFF3F43FFFFEF3F50
:1043E0000000F03F0000E03F0000E041FEFFEF3F33
:1043F0000022634BFBF700FF55A3D3E900230446DB
:104400000D46FCF7ADF854A3D3E9002306460F464A
:1044100020462946FCF7A4F80022CDE90201594BB9
:1044200020462946FCF79CF802460B464CA1D1E9F0
:104430000001FBF7E1FE22462B46FCF791F802460D
:104440000B4600205049FBF7D7FE22462B468046FC
:10445000894620462946FCF783F802460B4640462B
:104460004946FCF77DF840A3D3E90023FCF778F830
:1044700002460B46DDE90201FBF7BEFE02460B4693
:1044800004460D4630463946FBF7B8FE0020CDE91C
:10449000040132463B46FBF7AFFE02460B46204680
:1044A0002946FBF7A9FE0D9A0BF1FF33134306468D
:1044B0000F4640F0EB819FED2E7BDDE900450024A7
:1044C00022462B46DDE900018DED027BFBF794FED1
:1044D000DDE90423FCF744F8DDE900238046894642
:1044E00030463946FCF73CF802460B464046494602
:1044F000FBF784FE22462B4680468946DDE904010F
:10450000FCF72EF80B4604460D4602464946404647
:10451000CDE90045FBF772FE1C4B994206460F465B
:104520008B4640F3F78201F13F4303F5E003034379
:1045300000F0EA8110A3D3E90023DDE90201FCF7D2
:104540000FF80DA3D3E90023D5E600BFAFF3008039
:10455000000000604715F73F44DF5DF80BAE543EA6
:10456000555555555555D53FFE822B654715F73F97
:10457000000000000000F0BF9C7500883CE4377E1E
:104580000000F03F0000D03F0000E03FFFFF8F4001
:10459000B4F5801F4FF0000205DAD34BFBF7E0FFC4
:1045A0006FF034020C462315A3F2FF331344079334
:1045B000CE4BC4F3130444F07F559C4245F44015A0
:1045C00008DDCB4B9C4240F35E81079B0133079390
:1045D000A5F580154FF0000A4FEACA030C930C9A18
:1045E000C44B134493ED007B294653EC172B8DED00
:1045F0000A7BCDE90801FBF7FFFDDDE90A2306464A
:104600000F46DDE90801FBF7F9FD02460B460020E5
:10461000B949FCF7CFF8CDE90E0102460B4630460A
:104620003946FBF79DFFCDE90401DDE90434CDE90E
:10463000023400230293DDE902896D1045F0005534
:1046400005F50025002205EB8A43404649461446FD
:104650001D46FBF785FF02460B4630463946FBF701
:10466000CBFDDDE90A2306460F4620462946FBF727
:10467000C3FD02460B46DDE90801FBF7BDFD4246DE
:104680004B46FBF76DFF02460B4630463946FBF7BB
:10469000B3FDDDE90E23FBF763FFDDE90423CDE97C
:1046A000080110461946FBF75BFF7BA3D3E9002303
:1046B00004460D46FBF754FF79A3D3E90023FBF72B
:1046C0009DFD22462B46FBF74BFF77A3D3E9002342
:1046D000FBF794FD22462B46FBF742FF74A3D3E978
:1046E0000023FBF78BFD22462B46FBF739FF72A315
:1046F000D3E90023FBF782FD22462B46FBF730FF70
:104700006FA3D3E90023FBF779FD224606460F4647
:104710002B4620462946FBF723FF02460B46304630
:104720003946FBF71DFF424604460D464B46DDE980
:104730000401FBF763FDDDE90823FBF711FF2246C7
:104740002B46FBF75BFD424606460F464B4640466E
:104750004946FBF705FF0022684BCDE90A01FBF74C
:104760004DFD32463B46FBF749FD02980D46044697
:1047700002460B4640464946FBF7F2FE00228046C1
:1047800089465E4B20462946FBF736FDDDE90A23C4
:10479000FBF732FD02460B4630463946FBF72CFD4F
:1047A000DDE90423FBF7DCFE224606460F462B46D6
:1047B000DDE90801FBF7D4FE02460B4630463946D8
:1047C000FBF71CFD06460F4602460B46404649468F
:1047D000FBF714FD02983CA3D3E9002304460D46E1
:1047E000FBF7BEFE4246CDE908014B46204629466E
:1047F000FBF702FD02460B4630463946FBF7FCFC50
:1048000033A3D3E90023FBF7ABFE33A3D3E90023A3
:1048100006460F4620462946FBF7A2FE02460B46F7
:1048200030463946FBF7EAFC0C9A354B1344D3E982
:104830000023FBF7E3FC044607980D46FBF72AFE2E
:104840000C9A304B1344D3E9008906460F462246A2
:104850002B46DDE90801FBF7D1FC42464B46FBF74E
:10486000CDFC32463B46FBF7C9FC029832463B463C
:10487000CDE90401FBF7C0FC42464B46FBF7BCFC0C
:10488000DDE9082307E64FF0010AA5E69FED147B5A
:1048900013E600BFAFF30080EF4E454A287ECA3FC3
:1048A00065DBC9934A86CD3F01411DA96074D13FA4
:1048B0004D268F515555D53FFFAB6FDBB66DDB3FB6
:1048C000033333333333E33F000000E009C7EE3FE7
:1048D000FD033ADC09C7EE3FF5015B14E02F3EBE55
:1048E000000000000000F03F000040438E980300ED
:1048F00079B60B00E88A00080000F03F000008408D
:10490000088B0008F88A0008B6A3D3E900234046C4
:104910004946FBF773FC2246CDE904012B4630469D
:104920003946FBF769FC02460B46DDE90401FCF75A
:10493000A7F800287FF4FEADA54A2BF00043934270
:1049400040F30C811B154FF4801AA3F2FE334AFA90
:1049500003F35B44C3F30A529E4EA2F2FF321641A8
:10496000C3F3130A002023EA0601C2F114024AF439
:10497000801A4AFA02FABBF1000F02460B462046A3
:104980002946B8BFCAF1000AFBF736FCCDE90001A1
:1049900042464B46DDE90001FBF730FC00207AA3DC
:1049A000D3E9002304460D46FBF7DAFDDDE90023D9
:1049B00006460F4620462946FBF71EFC02460B46DC
:1049C00040464946FBF718FC71A3D3E90023FBF7E7
:1049D000C7FD71A3D3E900238046894620462946B6
:1049E000FBF7BEFD02460B4640464946FBF706FC78
:1049F00004460D4602460B4630463946FBF7FEFBA1
:104A000032463B4680468946FBF7F6FB02460B469C
:104A100020462946FBF7F0FB424606460F464B462A
:104A200040464946FBF79CFD5DA3D3E900230446BD
:104A30000D46FBF795FD5CA3D3E90023FBF7DCFBF8
:104A400022462B46FBF78CFD59A3D3E90023FBF745
:104A5000D5FB22462B46FBF783FD57A3D3E9002362
:104A6000FBF7CAFB22462B46FBF77AFD54A3D3E99A
:104A70000023FBF7C3FB22462B46FBF771FD0246E2
:104A80000B4640464946FBF7B7FB04460D46024637
:104A90000B4640464946FBF763FD0022CDE9000185
:104AA0004FF0804320462946FBF7A6FB02460B4603
:104AB000DDE90001FBF77EFE324604460D463B462B
:104AC00040464946FBF74CFD32463B46FBF796FB1A
:104AD00002460B4620462946FBF78EFB42464B46D4
:104AE000FBF78AFB02460B4600203B49FBF784FBA1
:104AF00001EB0A54B4F5801F02460B4631DA5046EA
:104B000043EC102B01F034F951EC100BDDE90223DA
:104B1000FFF7F1BB314B21F000469E427FF70CAF0F
:104B20002F4B0B4403430BD027A3D3E90023DDE92C
:104B30000201FBF715FD24A3D3E90023FFF7DBBB3C
:104B400022462B46FBF758FB02460B464046494699
:104B5000FBF782FF00283FF4EFAEE5E74FF0000AD5
:104B600016E72146D2E700201B49FFF78DBBDDE9A0
:104B70000001FFF789BB30463946FFF785BB9346F6
:104B8000FFF796BBAFF3008000000000432EE63F26
:104B9000EF39FAFE422EE63F396CA80C615C20BE6C
:104BA000D0A4BE726937663EF16BD2C541BDBB3E33
:104BB0002CDE25AF6A56113F93BDBE166CC1663F11
:104BC0003E5555555555C53F59F3F8C21F6EA501C1
:104BD0000000E03FFFFF0F000000F03FFFCB9040E0
:104BE00000346F3FFE822B654715973C00000000A4
:104BF0002DE9F04F57EC106BC34B8DB027F00048F8
:104C000098450446049707DC0022002384ED000B3E
:104C1000C0E90223002527E0BC4B984575DC049BC6
:104C2000BB4D002B10EE100AA9A3D3E9002339468F
:104C300036DDFBF7E1FAA84506460F4618D0A6A3D5
:104C4000D3E90023FBF7D8FA02460B46C4E9002358
:104C500030463946FBF7D0FA9FA3D3E90023FBF790
:104C6000CBFAC4E90201012528460DB0BDE8F08F5A
:104C70009BA3D3E90023FBF7BFFA9BA3D3E900234F
:104C800006460F46FBF7B8FA02460B46C4E9002376
:104C900030463946FBF7B0FA93A3D3E90023DEE7A9
:104CA000FBF7ACFAA84506460F4616D08AA3D3E90F
:104CB0000023FBF7A3FA02460B46C4E90023304663
:104CC0003946FBF799FA84A3D3E90023FBF796FA58
:104CD0004FF0FF35C4E90201C6E781A3D3E9002301
:104CE000FBF78CFA80A3D3E9002306460F46FBF7B7
:104CF00085FA02460B46C4E9002330463946FBF7E5
:104D00007BFA79A3D3E90023E0E7824B984500F3CF
:104D1000D08000F003FF57EC106B10EE100A74A364
:104D2000D3E900233946FBF71BFC00227A4BFBF743
:104D300065FAFBF7C5FE0546FBF7ACFB64A3D3E9B8
:104D40000023CDE90201FBF70BFC02460B4630467F
:104D50003946FBF751FA60A3D3E9002382468B461C
:104D6000DDE90201FBF7FCFB1F2D06460F462ADC9E
:104D70006A1E6A4B53F82230984524D032463B468F
:104D800050465946FBF738FAC4E90001D4E90089D6
:104D9000504642464B465946FBF72EFA3B463246B2
:104DA000FBF72AFA049B002BC4E90201BFF65CAFB3
:104DB00009F100436360C4F80080A06001F1004382
:104DC000E3606D4250E732463B4650465946FBF79A
:104DD00013FA4FEA2852C1F30A53D31A102BC4E92D
:104DE00000010592D2DD3EA3D3E90023DDE90201F3
:104DF000FBF7B6FB06460F4602460B4650465946A1
:104E0000FBF7FAF902460B4680468946504659465A
:104E1000FBF7F2F932463B46FBF7EEF932A3D3E952
:104E2000002306460F46DDE90201FBF799FB3246F7
:104E30003B46FBF7E1F902460B4606460F46404665
:104E40004946FBF7D9F9059AC1F30A53D31A312B16
:104E5000C4E900012ADD28A3D3E90023DDE902012A
:104E6000FBF77EFB06460F4602460B464046494688
:104E7000FBF7C2F902460B4682468B46404649463E
:104E8000FBF7BAF932463B46FBF7B6F91CA3D3E968
:104E9000002306460F46DDE90201FBF761FB3246BF
:104EA0003B46FBF7A9F906460F4667E7C246CB46E5
:104EB0006CE71B4B984535DD10EE102A3B4630461B
:104EC0003946FBF799F9C4E90201C4E90001A1E6FA
:104ED00000004054FB21F93F3163621A61B4D03DB8
:104EE0000000601A61B4D03D7370032E8A19A33B91
:104EF00083C8C96D305FE43F0000002E8A19A33BD0
:104F0000C14920259A837B39FB21E93F7BD90240A7
:104F1000FB21F93FFB2139410000E03F188B0008DD
:104F2000FFFFEF7F4FEA2855A5F21645A8EB055184
:104F300030460F46FBF7C4FDFBF7ACFA02460B46C2
:104F400030463946CDE90623FBF756F900221F4BC0
:104F5000FBF706FB0F460646FBF7B2FDFBF79AFA96
:104F600002460B4630463946CDE90823FBF744F9A3
:104F70000022164BFBF7F4FACDE90A010DF13009D6
:104F80004FF003080026002732463B4679E902012C
:104F900008F1FF3AFBF74CFDB0B90D4B019302232A
:104FA00000932A464346214606A800F0ADF9049B2B
:104FB000002B0546BFF658AE636803F100436360FB
:104FC000E36803F10043FBE6D046DDE700007041F3
:104FD000988B00082DE9F04155EC104B544EAE4330
:104FE00010EE100A2B462A46214613D110EE102A45
:104FF0002B4610EE100A2946FBF7B2FA02460B4682
:1050000020462946FBF7FAF804460D4645EC104BBE
:10501000BDE8F081002D10DC25F000463043F5D0CE
:105020005DB110EE102A2B4620462946FBF7E4F826
:1050300002460B46FBF7BEFBE6E71B150CD1002A28
:105040006DD00020D6026ED5441E1B1BC0F120047B
:1050500021FA04F422438140A3F2FF33C2F3130286
:10506000DD0742F4801242BF520002EBD1724900C8
:105070005810002502EBD1731A44490016232C4620
:105080004FF40016A7199742DEBFD21BBC19AD1909
:105090005200013B02EBD1724FEA56064FEA410142
:1050A000F0D14FF0200E9C464FF00046A24206EB96
:1050B0000C0702DC12D18F4210D8002F07EB060C30
:1050C00034DABCF1000F31DB04F10108121B8F420E
:1050D00088BF02F1FF32C91B3344444602EBD1774B
:1050E000BEF1010E3A444FEA41014FEA5606DDD1C6
:1050F0000A4306D05C1C13BF01330135734623F00D
:1051000001036A105B08E90702F17F5202F5001201
:1051100048BF43F0004302EB00551C4676E7CA0A3D
:10512000153B49058BE7520001308BE7A046CDE7E0
:105130000000F07F000000002DE9F04F59EC108BCB
:1051400029F0004785B0B7F1795F8DED001B07DAD4
:1051500010EE100A4946FBF7B3FC002800F0AA80C5
:1051600042464B4640464946FBF7FAF959A3D3E974
:10517000002304460D46FBF7F3F958A3D3E90023B7
:10518000FBF73CF822462B46FBF7EAF955A3D3E997
:105190000023FBF731F822462B46FBF7E1F953A336
:1051A000D3E90023FBF72AF822462B46FBF7D8F970
:1051B00050A3D3E90023FBF71FF822462B46FBF749
:1051C000CFF94EA3D3E90023FBF718F82B4622466C
:1051D000FBF7C6F93A4B9F4282468B462CDC0022F5
:1051E000384B20462946FBF7BBF9524606460F4688
:1051F0005B4620462946FBF7B3F9DDE90023044668
:105200000D4640464946FBF7ABF902460B462046A1
:105210002946FAF7F1FF02460B4630463946FAF7BF
:10522000EBFF0B46284902460020FAF7E5FF41EC68
:10523000100B05B0BDE8F08F244B23499F42D7BF28
:10524000A7F50013224F00221646D4BF1F460026A2
:1052500032463B460020FAF7CFFF0022CDE902019B
:10526000184B20462946FBF77BF932463B46FAF7B6
:10527000C3FF524606460F465B4620462946FBF7CB
:105280006FF9DDE9002304460D4640464946FBF729
:1052900067F902460B4620462946FAF7ADFF02465B
:1052A0000B4630463946FAF7A7FF02460B46DDE9C2
:1052B0000201BAE700200449B9E700BFAFF300805C
:1052C0003233D33F0000E03F0000F03F0000E93FF1
:1052D0000000D23FD43888BEE9FAA8BDC4B1B4BD3D
:1052E0009EEE213EAD529C804F7E923E9015CB1992
:1052F000A001FA3E7751C1166CC1563F4C55555529
:105300005555A53F000000002DE9F04F2DED028B13
:10531000ADF5197DD41E06930291C34BA499099053
:1053200053F821300093069B013B0493182394FB10
:10533000F3F46FF0170324EAE47404FB033303EB84
:10534000020A009B049A9FEDB48B03EB0208A59B15
:10535000A71A20AE03EB87090025454513DD9FED15
:10536000AE8B0DF5E07B0026009B9E4232DC099B54
:105370000393069B9D1920AB03EBC503089359ECDF
:10538000188B00271FE0EF4207D459F82500FBF7E0
:1053900081F8E6E802010135DFE751EC180BF8E788
:1053A0000899039D71E902230891F5E8020103952C
:1053B000FBF7D6F802460B4640464946FAF71EFF71
:1053C000013780468946049B9F42E9DDEBE802896C
:1053D0000136C9E7009B009F0CAA02EB83030B93E5
:1053E000A59B03EB84030A9398AB07F1005B03EBE7
:1053F000C7030BF1FF3B53E928894FEACB0308931E
:10540000089A98AB1344A3F1980B0026BB1B002B02
:1054100077DC49EC108B504600F0AAFC55EC104BA1
:1054200000224FF07F5310EE100A2946FBF798F840
:1054300041EC100B00F084FB002251EC100B7B4B75
:10544000FBF78EF802460B4620462946FAF7D4FEB3
:105450000D460446FBF734FB0390FBF71BF80246AE
:105460000B4620462946FAF7C7FEBAF1000F8046E0
:1054700089466BDD7A1E0CABCAF1180153F8220085
:10548000039C40FA01F31C448B40C01A0CAB0394FC
:1054900043F82200CAF1170340FA03FBBBF1000FE7
:1054A00062DD039B00220133039314466FF07F41BA
:1054B000974200F38980BAF1000F07DDBAF1010FBE
:1054C00000F09680BAF1020F00F09C80BBF1020F51
:1054D0004AD142464B4600205549FAF78DFE804698
:1054E0008946002C40D050469FED4D0B00F040FC0B
:1054F0004046494653EC102BFAF77EFE804689461B
:1055000032E000224B4B40464946FBF729F8FBF7B7
:10551000D7FAFAF7BFFF0022474B04460D46FBF7C8
:105520001FF802460B4640464946FAF765FEFBF770
:10553000C7FA0CAB294643F826007BE90223204634
:10554000FAF75CFE0136804689465FE706D17B1E8E
:105550000CAA52F823004FEAE05B9FE70022374B8A
:10556000FBF784FA68BB8346002200234046494685
:10557000FBF75EFA002800F0C1807C1E2346002263
:1055800000998B425CDA002A40F08B8001246FF096
:10559000030202FB04F30B99CB58002B56D0089B57
:1055A00098AA1344A3F1900B069BDD1920AB03EBE3
:1055B000C505E3197E1C0393039B9E4248DD1F46ED
:1055C00012E74FF0020B6CE70CAB53F822304CB9EA
:1055D0002BB10CA8C3F1807340F8223001230132B3
:1055E0001C4665E70CA8CB1A40F822302346F6E7A4
:1055F0007A1E0CAB53F82230C3F316030CA941F802
:10560000223063E77A1E0CAB53F82230C3F3150344
:10561000F4E700BFAFF300800000000000000000CE
:10562000000000000000F03FE08C00080000204077
:105630000000F03F0000703E000070410000E03FBD
:105640000CA951F82310013B0A4399E70134A0E764
:105650000A9B53F82600FAF71DFFE5E80201099BB3
:1056600008951C4600274FF000084FF00009049BE6
:105670009F4203DDEBE8028901369DE7089971E955
:1056800002230891F4E80201FAF76AFF02460B468A
:1056900040464946FAF7B2FD013780468946E6E7BB
:1056A000013C0CABAAF1180A53F82430002BF7D0B8
:1056B00050469FEDB50B00F05BFBE50098AB03EBAC
:1056C000050957EC106BA9F19809A046B8F1000F35
:1056D0004DDA9FEDAF8B0DF5907A0023049357467A
:1056E000049BB4EB030976D4AB4B1E4670AB03EBC3
:1056F000C9098DED068B4FF000085EE0CAF100008D
:1057000049EC108B00F034FB55EC104B0022A34BFE
:1057100010EE100A2946FBF7A9F9F8B10022A04BB8
:1057200020462946FAF71CFFFBF7CAF90646FAF7A6
:10573000B1FE0022994BFAF713FF0B4602462946A9
:105740002046FAF759FDFBF7BBF97C1C0CAB0AF1BC
:10575000180A43F8270043F82460A9E720462946A1
:10576000FBF7AEF90CAB3C4643F82700A0E70CABC7
:1057700053F82800FAF78EFE32463B46FAF7F0FE61
:10578000002269E90201864B30463946FAF7E8FE05
:1057900008F1FF3806460F4698E7F9E80223F6E8D5
:1057A0000201FAF7DDFE02460B46DDE90601FAF7D3
:1057B00025FDCDE9060108F10108009B984502DCB2
:1057C000049B9845E9DD049B9DED067B0133AAEC23
:1057D000027B049384E7A49B032B5DD8DFE803F0EE
:1057E0004B26260298AB1D44A5F59C752E46A24675
:1057F000BAF1000F6EDC2E46A246BAF1010F00F39B
:105800008A8000200021012C00F3A680BBF1000F4C
:1058100040F0A880DDE94823029CC4E90023DDE9CB
:105820004A23C4E90401C4E9022335E0083548AB42
:105830001D44264600200021002E3CDABBF1000F5B
:105840003FD0024601F10043029DC5E90023024614
:105850000B46DDE94801FAF7CFFC4AAE0125AC4220
:1058600032DABBF1000F02D001F100431946029B6E
:10587000C3E9020110E098AB1D44A5F59C7500201A
:105880000021002C11DABBF1000F02D001F100431E
:105890001946029BC3E90001039B03F007000DF5C5
:1058A000197DBDEC028BBDE8F08F75E90223FAF794
:1058B000A5FC013CE5E775E90223FAF79FFC013EF0
:1058C000BAE702460B46BFE7F6E80223FAF796FC72
:1058D0000135C4E716ED027B56E9048953EC172B1A
:1058E000404649468DED007BFAF788FCCDE904017E
:1058F00002460B4640464946FAF77EFCDDE90023A6
:10590000FAF77CFC9DED047B66E902010AF1FF3A9F
:1059100006ED027B6CE716ED027B56E9048953EC39
:10592000172B404649468DED007BFAF767FCCDE921
:10593000040102460B4640464946FAF75DFCDDE9A4
:105940000023FAF75BFC9DED047B66E902010AF196
:10595000FF3A06ED027B50E775E90223FAF74EFCA9
:10596000013C50E7029A3B6813607B68106103F1C9
:1059700000435360BB689360FB6803F10043D3604E
:1059800001F10043536187E7000000000000F03F91
:105990000000000000000000A08C00080000704122
:1059A0000000703E000000002DE9F04F55EC104B58
:1059B00085B025F00043B3F1795F8DED001B0290B7
:1059C00006DA10EE100A2946FBF77AF8002851D0C3
:1059D00022462B4620462946FAF7C2FD82468B46D0
:1059E00002460B4620462946FAF7BAFD41A3D3E901
:1059F00000238046894650465946FAF7B1FD3FA339
:105A0000D3E90023FAF7F8FB52465B46FAF7A8FD04
:105A10003CA3D3E90023FAF7F1FB52465B46FAF7C1
:105A20009FFD3AA3D3E90023FAF7E6FB52465B4613
:105A3000FAF796FD37A3D3E90023FAF7DFFB029BC1
:105A400006460F46DBB902460B4650465946FAF762
:105A500087FD25A3D3E90023FAF7CEFB42464B4648
:105A6000FAF77EFD02460B4620462946FAF7C6FBAA
:105A700004460D4645EC104B05B0BDE8F08F002202
:105A80001B4BDDE90001FAF76BFD3246CDE902015F
:105A90003B4640464946FAF763FD02460B46DDE9C0
:105AA0000201FAF7A9FB52465B46FAF759FDDDE918
:105AB0000023FAF7A1FB0CA3D3E9002306460F4607
:105AC00040464946FAF74CFD02460B4630463946F9
:105AD000FAF794FB02460B4620462946FAF78CFB60
