:020000040800F2
:100000000000032085580008D7580008E55800086C
:10001000EB580008F1580008F758000800000000ED
:10002000000000000000000000000000FD58000873
:100030000B59000800000000195900082759000852
:10004000D5580008D5580008D5580008D5580008DC
:10005000D5580008D5580008D5580008D5580008CC
:10006000D5580008D5580008D5580008D5580008BC
:10007000D5580008D5580008D5580008D5580008AC
:10008000D5580008D5580008D5580008D55800089C
:10009000D5580008D5580008D5580008814C0008EC
:1000A000D5580008D5580008D5580008D55800087C
:1000B000D558000875480008BD4D0008D5580008FF
:1000C000D5580008D5580008D5580008D55800085C
:1000D000D5580008D5580008D5580008D55800084C
:1000E000314D0008D5580008D5580008D5580008EB
:1000F000D5580008D5580008D5580008D55800082C
:10010000D5580008D5580008D5580008D55800081B
:10011000D5580008D5580008D5580008D55800080B
:10012000D5580008D5580008D5580008D5580008FB
:10013000D5580008D5580008D5580008D5580008EB
:10014000D5580008D5580008D5580008D5580008DB
:10015000D5580008D5580008D5580008D5580008CB
:10016000D5580008D5580008D5580008D5580008BB
:10017000D5580008D5580008D5580008D5580008AB
:10018000D5580008D5580008D5580008D55800089B
:10019000D5580008D5580008D5580008D55800088B
:0C01A000D5580008D5580008D5580008B4
:1001B00010B5054C237833B9044B13B10448AFF3A1
:1001C00000800123237010BDC40200200000000045
:1001D0008881020808B5034B1BB103490348AFF3FC
:1001E000008008BD00000000C802002088810208CD
:1001F00001F0FF01102A2BDB10F0070F08D010F8D8
:10020000013B013A8B422DD010F0070F42B3F6D1DB
:10021000F0B441EA012141EA014122F007047FF0F4
:1002200000070023F0E80256083C85EA010586EA4B
:10023000010685FA47F5A3FA87F586FA47F6A5FA87
:1002400087F68EB9EED1F0BC01F0FF0102F0070293
:1002500032B110F8013B013A83EA010313B1F8D13E
:100260000020704701387047002D06BF354603381F
:10027000073815F0010F07D1013015F4807F02BF58
:10028000013015F4C03F0130F0BC0138704700BFA9
:1002900010F8012B11F8013B012A28BF9A42F7D030
:1002A000D01A7047034613F8012B002AFBD1181A05
:1002B0000138704781F0004102E000BF83F0004345
:1002C00030B54FEA41044FEA430594EA050F08BFF1
:1002D00090EA020F1FBF54EA000C55EA020C7FEAB5
:1002E000645C7FEA655C00F0E2804FEA5454D4EB32
:1002F0005555B8BF6D420CDD2C4480EA020281EAFC
:10030000030382EA000083EA010180EA020281EA33
:100310000303362D88BF30BD11F0004F4FEA013185
:100320004FF4801C4CEA113102D0404261EB410194
:1003300013F0004F4FEA03334CEA133302D052421A
:1003400063EB430394EA050F00F0A780A4F10104D6
:10035000D5F1200E0DDB02FA0EFC22FA05F2801810
:1003600041F1000103FA0EF2801843FA05F35941F6
:100370000EE0A5F120050EF1200E012A03FA0EFC75
:1003800028BF4CF0020C43FA05F3C01851EBE3719F
:1003900001F0004507D54FF0000EDCF1000C7EEBBC
:1003A00000006EEB0101B1F5801F1BD3B1F5001FFA
:1003B0000CD349085FEA30004FEA3C0C04F1010419
:1003C0004FEA445212F5800F80F09A80BCF1004F42
:1003D00008BF5FEA500C50F1000041EB045141EAC4
:1003E000050130BD5FEA4C0C404141EB010111F4C5
:1003F000801FA4F10104E9D191F0000F04BF014670
:100400000020B1FA81F308BF2033A3F10B03B3F14D
:1004100020020CDA0C3208DD02F1140CC2F10C02DD
:1004200001FA0CF021FA02F10CE002F11402D8BF3B
:10043000C2F1200C01FA02F120FA0CFCDCBF41EA07
:100440000C019040E41AA2BF01EB0451294330BDD6
:100450006FEA04041F3C1CDA0C340EDC04F11404B3
:10046000C4F1200220FA04F001FA02F340EA03008A
:1004700021FA04F345EA030130BDC4F10C04C4F1D0
:10048000200220FA02F001FA04F340EA03002946B0
:1004900030BD21FA04F0294630BD94F0000F83F4FA
:1004A000801306BF81F480110134013D4EE77FEADD
:1004B000645C18BF7FEA655C29D094EA050F08BF29
:1004C00090EA020F05D054EA000C04BF194610460A
:1004D00030BD91EA030F1EBF0021002030BD5FEA4E
:1004E000545C05D14000494128BF41F0004130BD76
:1004F00014F580043CBF01F5801130BD01F00045CA
:1005000045F0FE4141F470014FF0000030BD7FEA3C
:10051000645C1ABF194610467FEA655C1CBF0B4637
:10052000024650EA013406BF52EA033591EA030F4E
:1005300041F4002130BD00BF90F0000F04BF002146
:10054000704730B54FF4806404F132044FF0000579
:100550004FF0000150E700BF90F0000F04BF0021F2
:10056000704730B54FF4806404F1320410F0004558
:1005700048BF40424FF000013EE700BF42004FEA53
:10058000E2014FEA31014FEA02701FBF12F07F43D0
:1005900093F07F4F81F06051704792F0000F14BFCD
:1005A00093F07F4F704730B54FF4607401F0004511
:1005B00021F0004120E700BF50EA010208BF704768
:1005C00030B54FF000050AE050EA010208BF70475D
:1005D00030B511F0004502D5404261EB41014FF4C6
:1005E000806404F132045FEA915C3FF4DCAE4FF0CA
:1005F00003025FEADC0C18BF03325FEADC0C18BFB1
:10060000033202EBDC02C2F1200300FA03FC20FA01
:1006100002F001FA03FE40EA0E0021FA02F114444E
:10062000C1E600BF70B54FF0FF0C4CF4E06C1CEA63
:1006300011541DBF1CEA135594EA0C0F95EA0C0FD8
:1006400000F0DEF82C4481EA030621EA4C5123EA4B
:100650004C5350EA013518BF52EA033541F480117A
:1006600043F4801338D0A0FB02CE4FF00005E1FB2D
:1006700002E506F00042E0FB03E54FF00006E1FB77
:1006800003569CF0000F18BF4EF0010EA4F1FF04BA
:10069000B6F5007F64F5407404D25FEA4E0E6D41FA
:1006A00046EB060642EAC62141EA55514FEAC5200B
:1006B00040EA5E504FEACE2EB4F1FD0C88BFBCF587
:1006C000E06F1ED8BEF1004F08BF5FEA500E50F138
:1006D000000041EB045170BD06F0004646EA0101FE
:1006E00040EA020081EA0301B4EB5C04C2BFD4EB30
:1006F0000C0541EA045170BD41F480114FF0000E29
:10070000013C00F3AB8014F1360FDEBF002001F096
:10071000004170BDC4F10004203C35DA0C341BDC10
:1007200004F11404C4F1200500FA05F320FA04F0E2
:1007300001FA05F240EA020001F0004221F0004116
:1007400010EBD37021FA04F642EB06015EEA430E89
:1007500008BF20EAD37070BDC4F10C04C4F12005B9
:1007600000FA04F320FA05F001FA04F240EA02006C
:1007700001F0004110EBD37041F100015EEA430E3D
:1007800008BF20EAD37070BDC4F1200500FA05F25D
:100790004EEA020E20FA04F301FA05F243EA0203DC
:1007A00021FA04F001F0004121FA04F220EA0200EB
:1007B00000EBD3705EEA430E08BF20EAD37070BD31
:1007C00094F0000F0FD101F00046400041EB010111
:1007D00011F4801F08BF013CF7D041EA060195F0F3
:1007E000000F18BF704703F00046520043EB0303AD
:1007F00013F4801F08BF013DF7D043EA060370479A
:1008000094EA0C0F0CEA135518BF95EA0C0F0CD0A4
:1008100050EA410618BF52EA4306D1D181EA0301EA
:1008200001F000414FF0000070BD50EA410606BFE4
:100830001046194652EA430619D094EA0C0F02D129
:1008400050EA013613D195EA0C0F05D152EA03366E
:100850001CBF104619460AD181EA030101F000418C
:1008600041F0FE4141F470014FF0000070BD41F0D5
:10087000FE4141F4780170BD70B54FF0FF0C4CF4AF
:10088000E06C1CEA11541DBF1CEA135594EA0C0FCE
:1008900095EA0C0F00F0A7F8A4EB050481EA030E1B
:1008A00052EA03354FEA013100F088804FEA033302
:1008B0004FF0805545EA131343EA12634FEA0222D0
:1008C00045EA111545EA10654FEA00260EF0004191
:1008D0009D4208BF964244F1FD0404F5407402D2E3
:1008E0005B084FEA3202B61A65EB03055B084FEA74
:1008F00032024FF480104FF4002CB6EB020E75EB71
:10090000030E22BFB61A754640EA0C005B084FEA98
:100910003202B6EB020E75EB030E22BFB61A754615
:1009200040EA5C005B084FEA3202B6EB020E75EB60
:10093000030E22BFB61A754640EA9C005B084FEAD8
:100940003202B6EB020E75EB030E22BFB61A7546E5
:1009500040EADC0055EA060E18D04FEA051545EAD4
:1009600016754FEA06164FEAC30343EA52734FEA7D
:10097000C2025FEA1C1CC0D111F4801F0BD141EAF6
:1009800000014FF000004FF0004CB6E711F4801F5B
:1009900004BF01430020B4F1FD0C88BFBCF5E06F3B
:1009A0003FF6AFAEB5EB030C04BFB6EB020C5FEA4B
:1009B000500C50F1000041EB045170BD0EF0004EA0
:1009C0004EEA113114EB5C04C2BFD4EB0C0541EAD2
:1009D000045170BD41F480114FF0000E013C90E6CF
:1009E00045EA060E8DE60CEA135594EA0C0F08BF93
:1009F00095EA0C0F3FF43BAF94EA0C0F0AD150EA92
:100A000001347FF434AF95EA0C0F7FF425AF104624
:100A100019462CE795EA0C0F06D152EA03353FF44C
:100A2000FDAE1046194622E750EA410618BF52EAC9
:100A300043067FF4C5AE50EA41047FF40DAF52EA9D
:100A400043057FF4EBAE12E74FF0FF3C06E000BF3A
:100A50004FF0010C02E000BF4FF0010C4DF804CD47
:100A60004FEA410C7FEA6C5C4FEA430C18BF7FEA07
:100A70006C5C1BD001B050EA410C0CBF52EA430C35
:100A800091EA030F02BF90EA020F0020704710F1B5
:100A9000000F91EA030F58BF994208BF90422CBF44
:100AA000D8176FEAE37040F0010070474FEA410C3D
:100AB0007FEA6C5C02D150EA013C07D14FEA430C5B
:100AC0007FEA6C5CD6D152EA033CD3D05DF8040BCC
:100AD000704700BF8446104662468C4619466346FE
:100AE00000E000BF01B5FFF7B7FF002848BF10F1D5
:100AF000000F01BD4DF808EDFFF7F4FF0CBF01201A
:100B000000205DF808FB00BF4DF808EDFFF7EAFF95
:100B100034BF012000205DF808FB00BF4DF808ED50
:100B2000FFF7E0FF94BF012000205DF808FB00BF45
:100B30004DF808EDFFF7CEFF94BF012000205DF8CF
:100B400008FB00BF4DF808EDFFF7C4FF34BF0120DC
:100B500000205DF808FB00BF4FEA410C7FEA6C5CA7
:100B600002D150EA013C0AD14FEA430C7FEA6C5CA7
:100B700002D152EA033C02D14FF0000070474FF01F
:100B8000010070474FEA410212F5001215D211D54B
:100B90006FF47873B3EB625212D94FEAC12343F07A
:100BA000004343EA505311F0004F23FA02F018BFFC
:100BB000404270474FF00000704750EA013005D1C5
:100BC00011F0004008BF6FF0004070474FF0000088
:100BD000704700BF4A0011D212F5001211D20DD594
:100BE0006FF47873B3EB62520ED44FEAC12343F033
:100BF000004343EA505323FA02F070474FF00000DD
:100C0000704750EA013002D14FF0FF3070474FF08B
:100C1000000070474FEA4102B2F1E04324BFB3F550
:100C2000001CDCF1FE5C0DD901F0004C4FEAC00263
:100C30004CEA5070B2F1004F40EB830008BF20F047
:100C40000100704711F0804F21D113F13872BCBF01
:100C500001F00040704741F480114FEA5252C2F156
:100C60001802C2F1200C10FA0CF320FA02F018BF9F
:100C700040F001004FEAC1234FEAD32303FA0CFCF2
:100C800040EA0C0023FA02F34FEA4303CCE77FEA81
:100C9000625307D150EA01331EBF4FF0FE4040F4CB
:100CA0004000704701F0004040F0FE4040F400007A
:100CB000704700BF53B94AB9002908BF00281CBFBC
:100CC0004FF0FF314FF0FF3000F07AB9ADF1080C72
:100CD0006DE904CE00F006F8DDF804E0DDE902235A
:100CE00004B070472DE9F0478C460D460446089E37
:100CF000002B51D18A4217466DD9B2FA82FEBEF15D
:100D0000000F0BD0CEF1200C01FA0EF520FA0CFCEE
:100D100002FA0EF74CEA050C00FA0EF44FEA174AF5
:100D2000250CBCFBFAF81FFA87F90AFB18CC45EA38
:100D30000C4508FB09F3AB420AD9ED1908F1FF3263
:100D400080F02381AB4240F22081A8F102083D44AB
:100D5000ED1AA4B2B5FBFAF00AFB105544EA0544BB
:100D600000FB09F9A14509D9E41900F1FF3380F02E
:100D70000A81A14540F2078102383C44A4EB0904F2
:100D800040EA08400021002E61D024FA0EF400232E
:100D900034607360BDE8F0878B4207D9002E54D0D1
:100DA000002186E821000846BDE8F087B3FA83F108
:100DB000002940F08E80AB4202D3824200F2FA80DA
:100DC000841A65EB03050120AC46002E3FD086E86F
:100DD0001010BDE8F08712B90127B7FBF2F7B7FA98
:100DE00087FEBEF1000F34D1EB1B3A0C1FFA87FCD3
:100DF0000121B3FBF2F8250C02FB183345EA034549
:100E00000CFB08F3AB4207D9ED1908F1FF3002D211
:100E1000AB4200F2D1808046ED1AA3B2B5FBF2F0EE
:100E200002FB105543EA05440CFB00FCA44507D91E
:100E3000E41900F1FF3302D2A44500F2B88018464D
:100E4000A4EB0C0440EA08409DE731463046BDE87B
:100E5000F087CEF1200405FA0EF307FA0EF720FA18
:100E600004F83A0C25FA04F448EA0308B4FBF2F15A
:100E70004FEA184502FB11441FFA87FC45EA044576
:100E800001FB0CF3AB4200FA0EF409D9ED1901F1A4
:100E9000FF3080F08A80AB4240F2878002393D44C7
:100EA000EB1A1FFA88F5B3FBF2F002FB103345EAA8
:100EB000034500FB0CF3AB4207D9ED1900F1FF38F5
:100EC0006FD2AB426DD902383D44EB1A40EA014182
:100ED0008FE7C1F1200722FA07F88B4005FA01F4E9
:100EE00048EA030320FA07FE4FEA134CFD404EEA9E
:100EF000040EB5FBFCF94FEA1E440CFB19551FFA12
:100F000083F844EA054509FB08F4AC4202FA01F211
:100F100000FA01FA08D9ED1809F1FF3043D2AC42CA
:100F200041D9A9F102091D442D1B1FFA8EFEB5FB04
:100F3000FCF00CFB10554EEA054400FB08F8A045F8
:100F400007D9E41800F1FF3529D2A04527D9023886
:100F50001C4440EA0940A4EB0804A0FB02894C456C
:100F6000C6464D4615D312D056B1BAEB0E0364EB0C
:100F7000050404FA07F7CB401F43CC403760746088
:100F80000021BDE8F0871846F8E69046E0E6C24545
:100F9000EAD2B8EB020E69EB03050138E4E7284614
:100FA000D7E7404691E78146BEE7014678E7023839
:100FB0003C4445E7084608E7A8F102083D442BE712
:100FC000704700BF80B582B000AF87ED010A97ED92
:100FD000010A1EF07DF8F0EE407AB0EE670A08379D
:100FE000BD4680BD0000000090B585B000AF7860C0
:100FF0007B6803F500534FF480621A807B6803F529
:101000000053023301221A707B6803F5A7331033B3
:1010100000221A607B6803F5A733143300221A807C
:101020007B6803F5A733163337491A460B4603CBC3
:10103000106051601B8813817B6803F5B433203343
:1010400000221A700023FB60FB68B3F5806F34DA6E
:10105000FB6807EE903AF8EEE77A77EEA77A17EE9C
:10106000900AFFF78BFA26A3D3E90023FFF7DAFAF9
:1010700003460C46184621464FF00002234BFFF76B
:10108000FBFB03460C4644EC173BB0EE470AF0EE80
:10109000670A1DF0D5FF54EC103B18462146FFF7B8
:1010A000B9FD01467A68FB6803F604439B001344CC
:1010B0001960FB680133FB60C6E700237B817B89F5
:1010C000192B17DC00233B813B89FF2B0EDC7A892F
:1010D0003B89796812020A44134403F5A73320338D
:1010E00050221A703B8901333B81EDE77B89013344
:1010F0007B81E4E77B6818461437BD4690BD00BF8E
:10110000182D4454FB210940A081020800009040A2
:1011100080B582B000AF78603960174A164B9B8A61
:101120009BB243F001039BB29382134A124B1B887C
:101130009BB243F001039BB21380104B00221A6054
:101140003968786800F028FB3968786800F028FD75
:10115000094A094B1B889BB223F001039BB2138001
:10116000064B1B681A04044B5B6A1344044A136061
:1011700000BF0837BD4680BD00080040100D0020AC
:10118000140D002080B582B000AF78603960174A36
:10119000164B9B8A9BB243F001039BB29382134A86
:1011A000124B1B889BB243F001039BB21380104B80
:1011B00000221A603968786800F0EEFA39687868B9
:1011C00000F07CF8094A094B1B889BB223F001030D
:1011D0009BB21380064B1B681A04044B5B6A1344D2
:1011E000044A136000BF0837BD4680BD00080040B8
:1011F000100D0020140D0020B0B582B000AF87EDB7
:10120000010A38607868FFF7B9F904460D46386876
:10121000FFF7A2F902460B4643EC112B45EC104BAD
:101220001DF0FCFFB0EE407AF0EE607AB0EE470AB7
:10123000F0EE670A0837BD46B0BDB0B584B000AF68
:10124000F860B9607A607B681B889B00BA681344B9
:10125000D3ED007A0220B0EE670AFFF7CDFF55EC20
:10126000104B7B681B88FA6803F604039B00134449
:10127000D3ED007A0220B0EE670AFFF7BDFF53EC12
:10128000102B20462946FFF71BF803460C4644EC7A
:10129000173BB0EE470AF0EE670A1EF037F954EC40
:1012A000103B18462146FFF7B5FC034607EE903A7F
:1012B000B0EE670A1037BD46B0BD000090B595B0DE
:1012C00002AFF860B9600023A7F8423000237B83A7
:1012D0000123A7F84030B7F84030FF2B00F3E88037
:1012E0007B8B1A46B7F8403004339A4249DA7B8B3D
:1012F000FF2B46DC07F11A031A46B968F868FFF7B6
:101300009CFFF0EE406A9FED687AC6EE877AB7EEF2
:10131000007A77EE677A9FED657A67EE877AFCEE62
:10132000E77AC7ED017ABB88A7F84630FB6803F57A
:10133000B43320331B787A8B1046B7F84620D1B2ED
:10134000FA681B021344034403F5A73320330A460B
:101350001A707B8B012B0FD1FB6803F5B43320335C
:101360001B78B7F84620D1B2FA681B02134403F584
:10137000A73320330A461A707B8B01339BB27B83E1
:10138000AEE70023A7F84430B7F84430A7F846305A
:10139000B7F84030043B9BB2FB87B7F93E20B7F863
:1013A000403004339A423CDCB7F93E30002B31DB4D
:1013B000B7F93E30FF2B2DDCB7F84020B7F93E30AF
:1013C000D31A002BB8BF5B42C3F10403012202FA17
:1013D00003F3FB86B7F84420FB8E1344A7F8443090
:1013E000FB6803F5B43320331B781A46B7F93E3057
:1013F000F96812020A44134403F5A73320331B781B
:101400009BB2FA8E12FB03F39AB2B7F8463013443C
:10141000A7F84630B7F93E309BB201339BB2FB8749
:10142000BBE7B7F84620B7F84430B2FBF3F3A7F8B0
:101430004630B7F842305B0007F148021344B7F872
:10144000462023F8382CB7F8423001335A4203F0D3
:10145000030302F0030258BF5342A7F84230B7F823
:101460004030032B1ADDFB6803F5B43320331B78BF
:101470001C46B7F840301A1FB7F842305B0007F13E
:1014800048010B4433F8383CD8B2F96823020B44C6
:10149000134403F5A733203302461A70B7F84030DF
:1014A0000133A7F8403016E7000080470000A04253
:1014B000FB6803F5B43320331B780133A44A82FB65
:1014C0000312D110DA178A1A1A2101FB02F29A1AB2
:1014D000D2B2FB6803F5B43320331A700123BB8703
:1014E000BB8FB3F5A07F00F32F81BB8F013B994ADF
:1014F00082FB03125211DB17D31A03F00103002BF6
:1015000014BF01230023DBB287F83530D7237B8754
:10151000002387F8343000233B873B8F192B00F3DF
:10152000B9803B8F5B009BB2C3F13F039BB25B0171
:101530007B86FB6803F5B43320331B781A463B8F58
:101540001344834A82FB0312D110DA178A1A1A2134
:1015500001FB02F29A1A13463B863B8F5B00033372
:10156000FB623B8FC3F11A0213469B0013440C3BF2
:10157000BB62BA8FFB6A9A4240F38880BA8FFB6ADB
:1015800003F580739A4280F28180B7F93020B98FD9
:10159000FB6ACB1AF96812020A44134403F5A73315
:1015A00020331B789AB2BB6A9BB213449BB2FB8474
:1015B000B7F93020B98FFB6ACB1A013BF9681202E8
:1015C0000A44134403F5A73320331B789AB2BB6A4D
:1015D0009BB213449BB2BB84B7F92430D52B03DCF8
:1015E000B7F92630D52B01DD01233B627B8F002B21
:1015F0004CDD7A8FB7F926309A4204DA7A8FB7F940
:1016000024309A4242DB7B8F1A46920013441B011E
:1016100098B2BB8F5A1E4F4B83FB02135911D3173D
:10162000C91A0B469B000B441B01D11A8BB2034411
:10163000FB837A8FB7F926309A4214DD7A8FB7F997
:1016400024309A420FDD97F83510FB8BFA684FF47F
:10165000874000FB01F10B4403F5005308330021E0
:1016600022F813100EE097F83510FB8BFA684FF450
:10167000874000FB01F10B4403F500530833798EDA
:1016800022F813107B8F013B7B87AFE73B8F013341
:101690003B8742E77B8F002B28DD7B8F1A46920029
:1016A00013441B0198B2BB8F5A1E2A4B83FB0213B3
:1016B0005911D317C91A0B469B000B441B01D11AB1
:1016C0008BB20344BB8397F83510BB8BFA684FF499
:1016D000874000FB01F10B4403F500530833002160
:1016E00022F813107B8F013B7B87D3E7BA8F1A4B0D
:1016F000A3FB021399090B469B000B441B01D31A51
:101700009BB2002B1CD1154B5B68154A1360BB8F35
:10171000503B99B2BB8F013B98B297F835304FF4EC
:10172000074202FB03F303F580431033FA681344C6
:101730000193D7230093034600220A4802F0E4F9FC
:10174000BB8F0133BB87CBE600BF4C37BD4690BD96
:101750004FECC44E67666666CDCCCCCCA06402402C
:101760000C0D0020380D002090B583B000AF7860DC
:101770007868FEF7F1FE03460C4644EC103B1DF082
:1017800017FCB0EE407AF0EE607AB0EE470AF0EE69
:10179000670A0C37BD4690BD90B59BB000AF78602E
:1017A00039600023A7F84E307B6803F500531B888F
:1017B0001846FEF7C1FE03460C4644EC103B1DF0F4
:1017C000E3FB54EC103B18462146FFF703FA0346AF
:1017D000A7F84C3000237B667B6803F500531B8819
:1017E0001A467B6E9A422BDDB7F84C30C3F12002CB
:1017F0007B6E93FAA3F363FA02F3A7F84E30B7F8BF
:101800004E207B6E9A4217DD7B6E9B003A68134434
:101810001B68BB647B6E9B003A681344B7F84E208C
:10182000920039680A4412681A60B7F84E309B007B
:101830003A681344BA6C1A607B6E01337B66CBE75F
:1018400001233B667B6803F500531B881A463B6EF9
:101850009A4240F3A0813B6E012B4AD10023FB65E5
:101860007B6803F500531B881A46FB6D9A4240F3D0
:101870008E81FA6D3B6E13447B647B6C9B003A68EF
:1018800013441B683B647B6C9B003A681344FA6DFD
:10189000920039680A4492ED007AD7ED107A77EE1B
:1018A000677AC3ED007A7A687B6C03F604039B00C9
:1018B00013444FF000021A60FB6D9B003A6813441A
:1018C000FA6D920039680A4492ED007AD7ED107AE9
:1018D00077EE277AC3ED007A7A68FB6D03F604038E
:1018E0009B0013444FF000021A60FB6D0233FB654E
:1018F000B6E77B6803F500531B885B089BB21A466A
:101900003B6E9A4240F091800123A7F85A30B7F815
:101910005A307A6802F500521288520892B2934205
:1019200080F23581B7F85A309A023B6E5B0092FB29
:10193000F3F31846FFF718FF54EC103B1846214606
:10194000FFF748F90346FB87FB8F7A6803F60443E9
:101950009B0013441B68BB63FB8F03F580737A689D
:1019600003F604439B0013441B687B63B7F85A20BB
:101970003B6E13443B633B6B9B003A68134493ED0F
:10198000007AD7ED0D7A27EE277A7A683B6B03F65B
:1019900004039B001344D3ED006AD7ED0E7A66EE84
:1019A000A77A77EE677AB7F85A309B003A68134403
:1019B000B7F85A20920039680A4492ED007A77EE1F
:1019C000277AC3ED007A7A683B6B03F604039B0029
:1019D000134493ED007AD7ED0D7A27EE277A3B6B0F
:1019E0009B003A681344D3ED006AD7ED0E7A66EE99
:1019F000A77A77EE277AB7F85A30B7F85A2079687D
:101A000002F6040292000A4492ED007A77EE277AF9
:101A10007A6803F604039B001344C3ED007AB7F819
:101A20005A300133A7F85A3071E700237B657A6D8D
:101A30003B6E9A4280F2AB807B6D9A023B6E5B00FC
:101A400092FBF3F31846FFF78FFE54EC103B184659
:101A50002146FFF797F80346FB627A68FB6A03F6B4
:101A600004439B0013441B68BB62FB6A03F580734D
:101A70007A6803F604439B0013441B687B627B6D0A
:101A80003B657B6803F500531B881A463B6D9A4201
:101A900079DD3A6D3B6E13443B623B6D9B003A68C7
:101AA00013441B68FB617A683B6D03F604039B00DB
:101AB00013441B68BB613B6A9B003A6813441B6874
:101AC0007B617A683B6A03F604039B0013441B683E
:101AD0003B6197ED097AD7ED057A27EE277AD7EDA6
:101AE0000A6AD7ED047A66EEA77A77EE677AC7EDD1
:101AF000037A97ED097AD7ED047A27EE277AD7EDA6
:101B00000A6AD7ED057A66EEA77A77EE277AC7EDEF
:101B1000027A3B6A9B003A68134497ED077AD7ED47
:101B2000037A77EE677AC3ED007A97ED067AD7ED00
:101B3000027A77EE677A7A683B6A03F604039B00C1
:101B40001344C3ED007A3B6D9B003A68134497ED54
:101B5000077AD7ED037A77EE277AC3ED007A97ED0F
:101B6000067AD7ED027A77EE277A7A683B6D03F62C
:101B700004039B001344C3ED007A3B6E5B003A6D97
:101B800013443B657DE77B6D01337B654FE73B6E1F
:101B90005B003B6656E600BF6C37BD4690BD00005B
:101BA000B0B52DED028BE6B006AF07F10C0318605F
:101BB00007F10803196007F10C031B6803F50053D4
:101BC000043307F142020021118007F1420211465D
:101BD000184600F0EEFD0023A7F87E314FF6FF73A4
:101BE000A7F87C310023A7F87A3107F10C031B68B2
:101BF00003F5A733103300221A6007F10C0301210B
:101C0000186800F04DFDF0EE407AB0EE670AFFF77D
:101C1000D9F9F0EE407AFCEEE77AC7ED017ABB889D
:101C20009AB207F17403D849184604F07BF907F11A
:101C30005C0307F17401D54A184600F0D0FD07F1A6
:101C40000C0340F23F11186800F02AFDF0EE407AD4
:101C5000FCEEE77AC7ED017ABB889AB207F18C03F4
:101C6000C949184604F05EF907F1440307F18C02F4
:101C700007F15C01184600F050FD07F1280307F159
:101C80004401C34A184600F0AAFD07F14403184670
:101C90000AF01BFA07F18C0318460AF016FA07F14E
:101CA0005C0318460AF011FA07F1740318460AF0AB
:101CB0000CFA07F1280207F1A403114618460AF0AE
:101CC00005FD4FF6FF73C7F8BC300023C7F8C030DE
:101CD00007F1A40207F1C003029307F1BC030193CB
:101CE000AC4B00931346DF228221AB4802F05FF930
:101CF00007F1A40318460AF0E8F90123A7F87831A0
:101D0000B7F87831B3F5A07F00F3A1821F23A7F8BD
:101D10007631B7F878319B0007F108021268134456
:101D2000D3ED007A0220B0EE670AFFF765FA55ECB2
:101D3000104BB7F8783107F10C02126803F6040370
:101D40009B001344D3ED007A0220B0EE670AFFF740
:101D500053FA53EC102B20462946FEF7B1FA0346FE
:101D60000C4644EC173BB0EE470AF0EE670A1DF054
:101D7000CDFB54EC103B18462146FEF74BFF0346C3
:101D8000C7F86831B7F97C31032B71DCD7ED5A7A8B
:101D90009FED827AF4EEC77AF1EE10FA68DDB7F9BA
:101DA0007C31B3F1FF3F06D0B7F87821B7F97A312B
:101DB00001339A4206DDB7F97C319BB201339BB205
:101DC000A7F87C31B7F87831A7F87A31B7F97C31C8
:101DD00007F10C02126803F5274308335B00134434
:101DE000DB88A7F8763107F10C031B6803F5005375
:101DF0000433B7F97C211146184600F016FD03465E
:101E00001B88002B11D007F10C031B6803F5A733C7
:101E100010331B6807EE903AB8EE677AD7ED5A7A1E
:101E2000B4EEE77AF1EE10FA01D5012300E00023C9
:101E3000002B20D007F10C031B6803F5005304337B
:101E4000B7F97C211146184600F0EFFC0246B7F8BE
:101E500078311380D7ED5A7AFCEEE77A17EE902AA4
:101E600007F10C031B6803F5A73310331A6002E077
:101E70000023A7F87A3197ED5A7ADFED496AC7EE69
:101E8000267AB7EE007A77EE677A9FED467A67EEAC
:101E9000877AC7ED317A444BC7F8C83007F1C802DA
:101EA00007F1C4031146184600F0CEFC0346D3EDFB
:101EB000007AFCEEE77AC7ED017ABB88A7F86631B5
:101EC000B7F87831013B394A82FB03125211DB1714
:101ED000D31A03F00103002B14BF01230023DBB24C
:101EE00087F865310023C7F87031D7F87031D72BE8
:101EF00078DCD7F870319BB21A46920013441B016C
:101F000098B2B7F878315A1E284B83FB0213591147
:101F1000D317C91A0B469B000B441B01D11A8BB275
:101F20000344A7F86031B7F86621D7F870319A42B8
:101F300040DCB7F97E319BB201339BB2A7F87E310A
:101F4000B7F97E3142F21072934208DD184B1B88BC
:101F50009BB201339AB2164B1A8000248CE397F897
:101F60006511B7F8603107F10C0212684FF4874031
:101F700000FB01F10B4403F500530833B7F8761169
:101F800022F8131028E000BF087C0120AC81020871
:101F9000B0810208400D0020380D0020005043475A
:101FA000000000490000574300005743676666661B
:101FB0002E0D002097F86511B7F8603107F10C027B
:101FC00012684FF4874000FB01F10B4403F5005306
:101FD0000833002122F81310D7F870310133C7F805
:101FE000703182E7B7F87821A54BA3FB021399095A
:101FF0000B469B000B441B01D31A9BB2002B40F0F5
:102000002081B7F87831F02B40F3FD80002387F86A
:102010006F3197F86F31042B00F3F58007F10C0353
:102020001B6803F50053043397F86F2111461846D7
:1020300000F0FBFB03461B88002B0CBF0123002391
:10204000DBB2002B40F0DE8007F10C031B6803F5C8
:102050000053043397F86F211146184600F0E5FB52
:1020600003461B8807EE903AB8EE678A07F10C0327
:102070001B6803F5005304330021184600F0D5FB1C
:1020800003461B8807EE903AF8EEE77A88EE277A47
:1020900017EE100AFEF772FA03460C4644EC103BAA
:1020A0001CF086FF54EC103B18462146FEF792FDCB
:1020B0000346A7F8623107F1FC03B7F862217149C2
:1020C000184603F02FFF07F1E40307F1FC016E4A05
:1020D000184600F084FB07F10C031B6803F500535E
:1020E000043397F86F211146184600F09EFB034613
:1020F0001A8807F10C031146186800F0D1FAF0EEC7
:10210000407A07F58A73B0EE670A5E49184603F015
:10211000BFFE07F1CC0307F58A7207F1E401184608
:1021200000F0FBFA07F1100307F1CC01574A1846FB
:1021300000F055FB07F1CC03184609F0C6FF07F580
:102140008A73184609F0C1FF07F1E403184609F045
:10215000BCFF07F1FC03184609F0B7FF97F86F3191
:1021600001339BB21A46920013449B009DB297F82C
:10217000653107F10C024FF4074101FB03F303F54E
:10218000804310331268D41807F1100207F59673D4
:10219000114618460AF09AFA97F86F3107F10C02C7
:1021A000126803F5274308335B001344DB88C7F844
:1021B00044310023C7F8483107F5A473049307F5A9
:1021C000A2730393324B029307F596730193009425
:1021D00050232A4600212F4801F02DFF07F5967362
:1021E000184609F072FF2C4B5B682C4A136007F10C
:1021F0001003184609F069FF97F86F31013387F82B
:102200006F3106E700BFB7F87831503B98B2B7F8A6
:102210007831013B9CB297F8653107F10C024FF41D
:10222000074101FB03F303F58043103312681344A5
:102230000193D7230093234600220146154801F05D
:1022400063FCB7F878310133A7F8783158E507F126
:102250000C031B6803F5005302331B78002B1FD0BF
:1022600007F10C031B6803F50053043300211846E3
:1022700000F0DBFA03461B88002B11DD012310E080
:10228000CDCCCCCC087C0120B8810208BC810208EE
:10229000400D0020380D0020A06402400C0D0020ED
:1022A0000023002B00F0E78107F10C031B6803F506
:1022B000005304330021184600F0B7FA03461A8889
:1022C00007F10C031146186800F0EAF9F0EE407AC5
:1022D000AF4BC3ED007AAE4BD3ED007AB2EE047A89
:1022E000C7EE876AB0EE660AFEF76CFEF0EE407A43
:1022F000C7ED537AA74BC7F8503107F5A87207F519
:10230000A6731146184600F0B8FA0346D3ED007ADA
:10231000FCEEE77AC7ED017ABB88A7F85E31B7F823
:102320005E4107F10C031B6803F5005304330021E1
:10233000184600F07AFA03461B88E31A002BB8BF50
:102340005B42012BCCBF01230023DBB2002B1CD04E
:10235000B7F85E31904AD26A02FB03F407F10C032E
:102360001B6803F5005304330021184600F05DFAA2
:1023700003461B88B4FBF3F39AB207F10C031B6806
:1023800003F5A73314331A8009E0834BDB6A9AB252
:1023900007F10C031B6803F5A73314331A8007F108
:1023A0000C031B6803F5005304330021184600F0AA
:1023B0003CFA03461B8803F18043013B9B0007F175
:1023C0000802126813441B681846FEF7D7F8034644
:1023D0000C469FED6D1B44EC103B1CF01FFF55ECB1
:1023E000104B07F10C031B6803F500530433002165
:1023F000184600F01AFA03461B88013B07F10C024D
:10240000126803F604039B0013441B681846FEF78A
:10241000B5F802460B469FED5C1B43EC102B1CF0FD
:10242000FDFE53EC102B20462946FDF749FF0346DD
:102430000C4644EC173BB0EE470AF0EE670A1DF07D
:1024400065F854EC103B18462146FEF79BFB03460B
:10245000C7F8583107F10C031B6803F50053043328
:102460000021184600F0E1F903461B8801339B0068
:1024700007F10802126813441B681846FEF77EF83D
:1024800003460C469FED401B44EC103B1CF0C6FE7F
:1024900055EC104B07F10C031B6803F50053043394
:1024A0000021184600F0C1F903461B88013307F1EB
:1024B0000C02126803F604039B0013441B681846C1
:1024C000FEF75CF802460B469FED2F1B43EC102BEA
:1024D0001CF0A4FE53EC102B20462946FDF7F0FE1D
:1024E00003460C4644EC173BB0EE470AF0EE670A91
:1024F0001DF00CF854EC103B18462146FEF742FB49
:102500000346C7F85431D7F8543107EE903AB8EE85
:10251000E77AD7F8583107EE903AF8EEE76A1C4BA5
:10252000D3ED007A37EEA76AB7F85E3107EE903A3E
:10253000F8EEE77A66EE277A76EEA77AB4EEE77AD7
:10254000F1EE10FACCBF01230023DBB2002B27D021
:10255000D7F85421D7F85831D31A1A460F4B1A60BE
:1025600007F10C031B6803F5A73314331B88013BE9
:102570009AB207F10C031B6803F5A73314331A80D2
:102580004BE000BFAFF300800000000000000040FF
:10259000180D00200000404100040040080D0020FC
:1025A000D7F8583107EE903AB8EEE77AD7F85431B9
:1025B00007EE903AF8EEE76A364BD3ED007A37EE45
:1025C000A76AB7F85E3107EE903AF8EEE77A66EE62
:1025D000277A76EEA77AB4EEE77AF1EE10FACCBF5E
:1025E00001230023DBB2002B17D0D7F85821D7F8EE
:1025F0005431D31A1A46284B1A6007F10C031B6892
:1026000003F5A73314331B8801339AB207F10C0387
:102610001B6803F5A73314331A8007F10C031B68FA
:1026200003F5A73314331B88002B18DD07F10C03C7
:102630001B6803F5A73314331B881A4641F26F73E6
:102640009A420CDC154BDA6A07F10C031B6803F5A0
:10265000A73314331B889A4201D0012300E00023E2
:10266000002B08D00D4A07F10C031B6803F5A733B4
:1026700014331B88D362012407F12803184609F09C
:1026800024FD012C00BF07F5C077BD46BDEC028BD1
:10269000B0BD00BF180D0020080D00200004004050
:1026A00080B483B000AF78600B467B80134B1B680F
:1026B00007EE903AB8EE677A7B8807EE903AF8EE2C
:1026C000E77A27EE277A0E4B1B8D9BB201331A4611
:1026D0000B4BDB6A013303FB02F3DB0207EE903A9C
:1026E000F8EE677AC7EE276AF0EE667AB0EE670A10
:1026F0000C37BD465DF8047B704700BF100000201A
:102700000004004080B483B000AF78607B68184656
:102710000C37BD465DF8047B704790B587B000AFBD
:10272000F860B9607A60B86809F0FFFC0446786820
:1027300009F0FBFC034623447B61B86809F0F9FC0F
:1027400002467B699A4208D2786809F0F2FC024698
:102750007B699A4201D3012300E00023FB74FB7CD8
:10276000002B0AD0BA680021786809F083FE03467E
:102770001846FFF7C7FF034608E07968B86809F014
:10278000B5FE03461846FFF7BDFF03461946F86835
:1027900009F081FCF8681C37BD4690BD80B483B059
:1027A00000AF7860052318460C37BD465DF8047B02
:1027B000704790B583B000AF78603960786800F0FA
:1027C00075F804467868FFF7E9FF03463A6819464A
:1027D000204600F077F800BF0C37BD4690BD80B5AD
:1027E00084B000AFF860B9607A607968B86809F0C1
:1027F00097FE03461846FFF785FF03461946F8681B
:1028000009F049FCF8681037BD4680BD80B483B03C
:1028100000AF786039603B685B007A681344184603
:102820000C37BD465DF8047B704780B582B000AFC1
:10283000786039607B6839681846FFF7E7FF034620
:1028400018460837BD4680BD80B483B000AF7860BD
:1028500039603B6893ED007A7B68D3ED007AB4EE83
:10286000E77AF1EE10FA01D53B6800E07B68184684
:102870000C37BD465DF8047B704780B483B000AF71
:10288000786039607B6893ED007A3B68D3ED007A1D
:10289000B4EEE77AF1EE10FA01D53B6800E07B6810
:1028A00018460C37BD465DF8047B704780B582B092
:1028B00000AF7860786800F024F8034618460837BF
:1028C000BD4680BD80B584B000AFF860B9607A6065
:1028D000F86800F023F803467A68B968184600F0F3
:1028E00028F8034618461037BD4680BD80B483B033
:1028F00000AF78607B6818460C37BD465DF8047BF6
:10290000704780B582B000AF78607B681846FFF7EB
:10291000EDFF034618460837BD4680BD80B483B03E
:1029200000AF78607B6818460C37BD465DF8047BC5
:10293000704780B487B000AFF860B9607A607B6898
:102940001B887B82BB687B617B69002B09D0FB689D
:102950007A8A1A807B69013B7B61FB680233FB60EA
:10296000F2E7FB6818461C37BD465DF8047B7047EC
:1029700080B483B000AF0346FB71094997F9073073
:102980005B0997F9072002F01F02012000FA02F20A
:1029900041F8232000BF0C37BD465DF8047B70472B
:1029A00000E100E080B483B000AF03463960FB7102
:1029B00097F90730002B0BDA0D49FB7903F00F0371
:1029C000043B3A68D2B21201D2B20B441A7609E043
:1029D000084997F907303A68D2B21201D2B20B44D3
:1029E00083F8002300BF0C37BD465DF8047B7047B9
:1029F00000ED00E000E100E080B400AF5F4A5F4B13
:102A00001B6B43F0040313635C4A5C4B1B6B43F08A
:102A100008031363594A594B1B6B43F0200313639C
:102A2000564A564B5B6C43F480135364544A544BE0
:102A30001B6843F080631360514A514B9B6843F01D
:102A4000806393604F4A4F4B1B6843F01003136041
:102A50004C4A4C4B9B6843F010039360484A484BE8
:102A60001B6843F080731360454A454BDB6843F0B5
:102A70008073D360444A444B1B6843F400431360A3
:102A8000414A414B9B6843F4404393603E4A3E4B6E
:102A90001B6A43F0A04313623B4A3B4B1B6843F461
:102AA00000331360384A384B9B6843F440339360DB
:102AB000354A354B5B6A43F005035362324A324B69
:102AC0001B6843F4002313602F4A2F4B9B6843F489
:102AD000402393602C4A2C4B5B6A43F050035362B3
:102AE0002A4A2A4B1B889BB243F400739BB2138083
:102AF000264A264B1B889BB243F480739BB21380FB
:102B0000224A224B1B889BB243F008039BB21380DE
:102B10001E4A1E4B1B889BB243F004039BB21380DA
:102B20001A4A1A4B1B889BB243F040039BB2138096
:102B3000124A124B1B6B43F480031363144A144B69
:102B40001B6843F060631360114A114B1B6843F428
:102B5000005313600E4A0E4B1B6843F4006313606E
:102B60000B4A0B4B1B6843F040031360084B094AA8
:102B70009A6000BFBD465DF8047B70470038024094
:102B8000000C0240000802400014024000500140C6
:102B9000A06402400C50014080B400AF784A784BEA
:102BA0001B6C43F0010313644FF080424FF08043ED
:102BB0009B889BB243F040039BB293804FF08043CD
:102BC00013221A854FF080433122DA624FF080439E
:102BD00031225A634FF080424FF080431B8C9BB2EE
:102BE00043F001039BB213844FF080424FF08043C7
:102BF0001B8B9BB243F060039BB213834FF0804268
:102C00004FF080431B889BB243F001039BB21380BB
:102C10005B4A5B4B1B6B43F001031363584A584BF1
:102C20001B6B43F004031363554A554B5B6C43F431
:102C300080735364534A534B1B6843F0C0031360C3
:102C4000514A514B1B6843F4406313604F4A4F4B4A
:102C50005B6843F4807353604C4B4FF48012DA622C
:102C60004A4A4A4B5B6B43F00D035363474A474B59
:102C70005B6B43F0A0035363444A444BDB6843F46B
:102C80004063D360414A414B1B6943F440331361B5
:102C90003E4A3E4B9B6843F4806393603B4A3B4B08
:102CA0009B6843F080539360384A384B9B6843F0ED
:102CB000C0639360354A354B9B6843F480739360DF
:102CC000324A324B9B6843F4007393602C4A2C4B7E
:102CD0001B6B43F4800313632D4A2D4B1B6823F0B9
:102CE000C00313602A4A2A4B1B6843F40033136065
:102CF000274A274B1B6843F400631360244A244B84
:102D00001B6843F400531360214A214B1B6823F4D2
:102D1000007313601E4A1E4B1B6843F480631360EC
:102D20001B4A1B4B1B6843F480731360184A184BF3
:102D30001B6823F0C0031360154A154B5B6843F012
:102D400008035360124B134A9A60114B124ADA601F
:102D50000F4A0F4B1B6823F0606313600C4A0C4B47
:102D60001B6843F001031360084A084B9B6843F05B
:102D70000103936000BFBD465DF8047B704700BF50
:102D800000380240000802400000024000200140DC
:102D9000106402404C2001401C0D002080B500AFA3
:102DA000164A164B1B6C43F002031364144B322279
:102DB0001A85134B4FF49672DA62114A104B9B89B5
:102DC0009BB243F001039BB293811D20FFF7D0FD1E
:102DD00000211D20FFF7E6FD094A094B1B889BB225
:102DE00043F001039BB21380054A054B9B8A9BB2BB
:102DF00043F001039BB2938200BF80BD00380240C4
:102E00000004004080B500AF0E4A0E4B1B6C43F02F
:102E1000040313640C4B0A221A850B4B4FF6FF7206
:102E2000DA62094A084B9B899BB243F001039BB2CB
:102E300093811E20FFF79CFD00211E20FFF7B2FDAD
:102E400000BF80BD003802400008004080B500AFE0
:102E50004B4A4B4B1B6B43F001031363484A484BEF
:102E60001B6B43F010031363454A454B5B6C43F403
:102E700080435364434A434BDB6843F48043D3604D
:102E8000414A414BDB6843F48033D3603E4A3E4BBA
:102E9000DB6843F48023D3603B4A3B4BDB6843F45D
:102EA0008013D360384A384BDB6843F48003D36027
:102EB000364A364BDB68D360354A354BDB6843F026
:102EC0008003D360324A324B1B6843F080031360A7
:102ED0002E4A2E4B1B6943F0040313612C4A2C4BE2
:102EE000DB6843F48073D360294A294B1B6843F4A1
:102EF00080731360254A254B1B6943F0400313611F
:102F0000234A234BDB6843F40073D360204A204BF1
:102F10001B6843F4007313601C4A1C4B1B6943F489
:102F2000806313611A4A1A4BDB6843F48063D360F1
:102F3000174A174B1B6843F480631360134A134B03
:102F40001B6943F480431361114A114BDB6843F45E
:102F50000063D3600E4A0E4B1B6843F4006313609A
:102F600003211720FFF71EFD1720FFF701FD0321A6
:102F70002820FFF717FD2820FFF7FAFC00BF80BDCF
:102F800000380240000002400010024000380140BA
:102F9000003C014080B483B000AF78607B680022C1
:102FA0001A707B68F0225A807B684FF4A0729A8076
:102FB0007B68134A083392E8030083E803007B68C8
:102FC000104A103392E8030083E803007B680E4A3E
:102FD000183392E8030083E803007B680B4A203330
:102FE00092E8030083E803007B68002283F8A826A8
:102FF0007B6818460C37BD465DF8047B704700BF00
:10300000C0810208C8810208D0810208D881020864
:1030100080B5FCB000AF3B1D1860E54AE44B5B8B0C
:103020009BB243F480539BB253833B1D44F6206113
:10303000186800F0C9FBDE4ADD4B1B8B9BB243F4E2
:1030400080539BB213833B1D44F62061186800F047
:10305000BBFB07F10B0301221A7007F10B023B1DAA
:103060001146186800F0C8FB3B1D4CF2503118683F
:1030700000F0AAFB07F11803CE4A92E8030083E8A8
:10308000030007F12003184601F0E4F807F12003DC
:1030900007F1180207F10C0006CA01F01CF907F14C
:1030A0000C023B1D1146186800F040FB07F10C03B1
:1030B000184601F031F907F12003184601F0D6F85F
:1030C00007F13003BC4A92E8030083E8030007F1EC
:1030D0003803184601F0BEF807F1380307F1300253
:1030E00007F1240006CA01F0F6F807F124023B1D9F
:1030F0001146186800F01AFB07F12403184601F086
:103100000BF907F13803184601F0B0F807F148034E
:10311000AA4A92E8030083E8030007F15003184627
:1031200001F098F807F1500307F1480207F13C005D
:1031300006CA01F0D0F807F13C023B1D11461868A1
:1031400000F0F4FA07F13C03184601F0E5F807F146
:103150005003184601F08AF807F16003984A92E894
:10316000030083E8030007F16803184601F072F8D2
:1031700007F1680307F1600207F1540006CA01F085
:10318000AAF807F154023B1D1146186800F0CEFA68
:1031900007F15403184601F0BFF807F16803184619
:1031A00001F064F807F17803864A92E8030083E8A7
:1031B000030007F18003184601F04CF807F1800383
:1031C00007F1780207F16C0006CA01F084F807F1F4
:1031D0006C023B1D1146186800F0A8FA07F16C0359
:1031E000184601F099F807F18003184601F03EF8FF
:1031F00007F19003744A92E8030083E8030007F1A3
:103200009803184601F026F807F1980307F1900299
:1032100007F1840006CA01F05EF807F184023B1D45
:103220001146186800F082FA07F18403184601F08D
:1032300073F807F19803184601F018F807F1A8038E
:10324000624A92E8030083E8030007F1B0031846DE
:1032500001F000F807F1B00307F1A80207F19C00A4
:1032600006CA01F038F807F19C023B1D11461868A8
:1032700000F05CFA07F19C03184601F04DF807F1E5
:10328000B003184600F0F2FF07F1C003504A92E87D
:10329000030083E8030007F1C803184600F0DAFFD3
:1032A00007F1C80307F1C00207F1B40006CA01F034
:1032B00012F807F1B4023B1D1146186800F036FA07
:1032C00007F1B403184601F027F807F1C8031846C0
:1032D00000F0CCFF07F1D8033E4A92E8030083E8F0
:1032E000030007F1E003184600F0B4FF07F1E00324
:1032F00007F1D80207F1CC0006CA00F0ECFF07F195
:10330000CC023B1D1146186800F010FA07F1CC03FF
:10331000184601F001F807F1E003184600F0A6FF97
:1033200007F1F0032C4A92E8030083E8030007F159
:10333000F803184600F08EFF07F1F80307F1F002DA
:1033400007F1E40006CA00F0C6FF07F1E4023B1DE6
:103350001146186800F0EAF907F1E403184600F096
:10336000DBFF07F1F803184600F080FF1B4A07F562
:10337000847392E8030083E8030007F58873184616
:1033800000F068FF07F5887307F1FC0007F5847209
:1033900006CA00F0A0FF07F1FC023B1D11461868A9
:1033A00000F0C4F907F1FC03184600F0B5FF17E080
:1033B000000C0240E0810208E8810208F081020866
:1033C000F8810208008202080882020810820208BE
:1033D000188202082082020828820208308202082D
:1033E00007F58873184600F041FFC64A07F5907349
:1033F00092E8030083E8030007F59473184600F091
:1034000029FF07F5947307F58A7007F5907206CACD
:1034100000F061FF07F58A723B1D1146186800F045
:1034200085F907F58A73184600F076FF07F594735F
:10343000184600F01BFFB44A07F59C7392E803009E
:1034400083E8030007F5A073184600F003FF07F5B3
:10345000A07307F5967007F59C7206CA00F03BFF53
:1034600007F596723B1D1146186800F05FF907F5E5
:103470009673184600F050FF07F5A073184600F049
:10348000F5FEA24A07F5A87392E8030083E803005B
:1034900007F5AC73184600F0DDFE07F5AC7307F5D1
:1034A000A27007F5A87206CA00F015FF07F5A27210
:1034B0003B1D1146186800F039F907F5A27318464C
:1034C00000F02AFF07F5AC73184600F0CFFE904AD3
:1034D00007F5B47392E8030083E8030007F5B873B7
:1034E000184600F0B7FE07F5B87307F5AE7007F59C
:1034F000B47206CA00F0EFFE07F5AE723B1D11462E
:10350000186800F013F907F5AE73184600F004FFD1
:1035100007F5B873184600F0A9FE7E4A07F5C07398
:1035200092E8030083E8030007F5C473184600F02F
:1035300091FE07F5C47307F5BA7007F5C07206CAA5
:1035400000F0C9FE07F5BA723B1D1146186800F07D
:10355000EDF807F5BA73184600F0DEFE07F5C47300
:10356000184600F083FE6C4A07F5CC7392E803001E
:1035700083E8030007F5D073184600F06BFE07F5EB
:10358000D07307F5C67007F5CC7206CA00F0A3FE2B
:1035900007F5C6723B1D1146186800F0C7F807F51D
:1035A000C673184600F0B8FE07F5D073184600F051
:1035B0005DFE5A4A07F5D87392E8030083E80300DA
:1035C00007F5DC73184600F045FE07F5DC7307F5D8
:1035D000D27007F5D87206CA00F07DFE07F5D272E8
:1035E0003B1D1146186800F0A1F807F5D273184684
:1035F00000F092FE07F5DC73184600F037FE484AEB
:1036000007F5E47392E8030083E8030007F5E87325
:10361000184600F01FFE07F5E87307F5DE7007F5A2
:10362000E47206CA00F057FE07F5DE723B1D114634
:10363000186800F07BF807F5DE73184600F06CFEA2
:1036400007F5E873184600F011FE364A07F5F073E7
:1036500092E8030083E8030007F5F473184600F0CE
:10366000F9FD07F5F47307F5EA7007F5F07206CA7D
:1036700000F031FE07F5EA723B1D1146186800F0B4
:1036800055F807F5EA73184600F046FE07F5F4739F
:10369000184600F0EBFD112387F8EB3107F2EB122F
:1036A0003B1D1146186800F0A7F83B1D1E4918681D
:1036B00000F08AF8292387F8EC3107F5F6723B1DF4
:1036C0001146186800F098F82C2387F8ED3107F2BE
:1036D000ED123B1D1146186800F08EF83B1D0321CA
:1036E000186800F02BF90023A7F8EE3107F5F77200
:1036F0003B1D1146186800F079F900BF07F5F8770F
:10370000BD4680BD38820208408202084882020815
:103710005082020858820208608202086882020809
:10372000708202087882020840420F0090B585B08E
:1037300000AF78603960214B5B68002B06D1204BCD
:103740001B899BB203F00203002B01D1012300E08F
:103750000023002B00D0EEE70021386800F0F7FDD1
:1037600003461946786800F047F8164A154B1B8B3C
:103770009BB243F400539BB213830123FB73FC7B86
:10378000386800F0F3FD03469C4234BF0123002358
:10379000DBB2002B0ED0FB7B1946386800F0D7FD5A
:1037A00003461B781946786800F0C4FCFB7B0133A4
:1037B000FB73E4E700BF1437BD4690BDA064024030
:1037C00000500140000C024080B483B000AF78602C
:1037D00039603B68002B14BF01230023DBB2002BB0
:1037E00003D03B68013B3B60F3E700BF0C37BD46AD
:1037F0005DF8047B7047000080B582B000AF786050
:103800003960114B5B68002B06D1104B1B899BB2B2
:1038100003F00203002B01D1012300E00023002B61
:1038200000D0EEE70A4A0A4B5B8B9BB243F400538D
:103830009BB253833B681B781946786800F07AFC8A
:1038400000BF0837BD4680BDA06402400050014063
:10385000000C024080B582B000AF78603960094A40
:10386000084B1B8B9BB243F400539BB213833B6802
:103870001B781946786800F05DFC00BF0837BD462C
:1038800080BD00BF000C024080B582B000AF786000
:1038900039600D4A0C4B1B8B9BB243F400539BB217
:1038A00013833B681B881B12DBB21946786800F053
:1038B00041FC3B681B88DBB21946786800F03AFC93
:1038C00000BF0837BD4680BD000C024080B586B001
:1038D00000AFF860084611461A4603467B810B4646
:1038E0003B811346FB802A23BB7507F1160319465B
:1038F000F868FFF781FF07F10A031946F868FFF738
:10390000C3FFBB1D1946F868FFF7BEFF2B23FB75ED
:1039100007F117031946F868FFF76EFF07F1080370
:103920001946F868FFF7B0FF07F12001F868FFF7C4
:10393000ABFF00BF1837BD4680BD000080B584B026
:1039400000AF78600B46FB703623FB7207F10B0368
:1039500019467868FFF750FFFB78032B2AD801A29D
:1039600052F823F0753900088539000895390008A8
:10397000A539000858233B7307F10C0319467868F2
:10398000FFF768FF88237B7307F10D0319467868FA
:10399000FFF760FF2823BB7307F10E031946786811
:1039A000FFF758FFE823FB7307F10F031946786808
:1039B000FFF750FF7B68FA781A70FB78002B02D073
:1039C000FB78012B07D17B68F0225A807B684FF48B
:1039D000A0729A8006E07B684FF4A0725A807B68E0
:1039E000F0229A8000BF1037BD4680BD80B584B0FC
:1039F00002AF786039607B685B88013B99B27B6875
:103A00009B88013B9BB23A68019200930B460022CF
:103A10000021786800F004F800BF0837BD4680BD7B
:103A200080B58AB002AFF860084611461A460346D0
:103A30007B810B463B811346FB80FA887B89D31A36
:103A40000133398D3A898A1A013202FB03F3FB6193
:103A5000F8883A8979893B8D00930346F868FFF727
:103A600035FF2C23BB7507F116031946F868FFF7DD
:103A7000C3FE224A214B1B8B9BB243F400539BB2E3
:103A800013830123FB7507F117031946F86800F04B
:103A90001FFBFB694FF6FF72934228BF13469BB290
:103AA0003B8307F118031A46F96AF86800F08AFBAD
:103AB000FB69B3F5803F1CD3114B5B68002B06D12B
:103AC000104B1B899BB203F00203002B01D1012391
:103AD00000E00023002B00D0EEE7FB699BB201332E
:103AE0009BB27B8307F11A031A46F96AF86800F063
:103AF00069FB00BF2037BD4680BD00BF000C0240FF
:103B0000A06402400050014080B588B002AFF86068
:103B1000084611461A4603467B810B463B811346F5
:103B2000FB80FA887B89D31A0133398C3A898A1A47
:103B3000013202FB03F37B61F8883A8979893B8C77
:103B400000930346F868FFF7C1FE2C23BB7407F10E
:103B500012031946F868FFF74FFE194A184B1B8BE2
:103B60009BB243F400539BB213830123FB7407F110
:103B700013031946F86800F0ABFA124B4FF47412B5
:103B8000DA60114A104B1B6843F4806313600E4ADD
:103B90007B6953600C4A7B6AD3600B4A0A4B1B68F3
:103BA00043F001031360094A084B9B889BB243F022
:103BB00002039BB2938000BF1837BD4680BD00BF93
:103BC000000C024000640240A0640240005001402A
:103BD00080B588B002AFF8607B600B467B811346EE
:103BE0003B8178893A8979893B8900930346F86853
:103BF000FFF76CFE2C23FB7507F117031946F868D5
:103C0000FFF7FAFD7968F868FFF73EFE00BF183746
:103C1000BD4680BD80B58AB002AFF8600846114647
:103C20001A4603467B810B463B811346FB807B890A
:103C3000FA685288934203DBFB685B88013B7B8117
:103C4000FB88FA685288934203DBFB685B88013B80
:103C5000FB803B89FA689288934203DBFB689B8870
:103C6000013B3B813B8DFA689288934203DBFB6802
:103C70009B88013B3B857A89FB889A4205DD7B89DD
:103C8000BB83FB887B81BB8BFB803A893B8D9A424F
:103C900005DD3B89BB833B8D3B81BB8B3B85FA8834
:103CA0007B89D31A9BB27B833A8D3B89D31A9BB213
:103CB0003B83B7F91A30002B03D0B7F91830002B2B
:103CC00010D1FB6A1B689BB2BB82F8883A8979895C
:103CD00007F1140301933B8D00930346F868FFF747
:103CE0009FFE46E0B7F91A20B7F918309A4206DD70
:103CF000B7F91A30DA0F13445B101BB206E0B7F9BC
:103D000018305B42DA0F13445B101BB2FB83FB6A73
:103D10001B689BB2FB8207F116033A897989F86820
:103D2000FFF756FF7A89FB889A4203D13A893B8D87
:103D30009A421DD0B7F91E20B7F91A305B429A4259
:103D400007DDFA8B3B8BD31A9BB2FB837B89013354
:103D50007B81B7F91E20B7F918309A42D7DAFA8B6F
:103D60007B8B13449BB2FB833B8901333B81CEE7C2
:103D700000BF2037BD4680BD90B589B002AFF86066
:103D8000084611461A4603467B810B463B81134683
:103D9000FB717B89BA6A12781344FA68528893429D
:103DA00007DDBB6A5B789AB23B8913443B810023F1
:103DB0007B8100237B820023BB82BB8ABA6A527854
:103DC00093424CDABB6A5A68FB79203BB96A49785E
:103DD00001FB03F1BB8A0B445B0013441B883B824D
:103DE0000023FB82FB8ABA6A1278934233DA3A8A5A
:103DF000FB8A02FA03F303F40043002B12D0FB68A2
:103E000093F8A8361C467A8AFB6A1B6898B2FB684E
:103E10004FF4D07101FB04F10A441432014623F837
:103E2000121011E0FB6893F8A8361C467A8A3B6BA7
:103E30001B6898B2FB684FF4D07101FB04F10A448F
:103E40001432014623F812107B8A01337B82FB8AED
:103E50000133FB82C6E7BB8A0133BB82ADE7224B4D
:103E60005B68002B06D1214B1B899BB203F0020338
:103E7000002B01D1012300E00023002B00D0EEE74E
:103E8000BB6A1B789AB27B8913449BB2013B9CB2FC
:103E9000BB6A5B789AB23B8913449BB2013B9BB2ED
:103EA000FA6892F8A82611464FF4507202FB01F20C
:103EB0002832F9680A4438897989019200932346A7
:103EC0000246F868FFF720FEFB6893F8A836012B3E
:103ED00014BF01230023DBB21A46FB6883F8A8262F
:103EE00000BF1C37BD4690BDA06402400050014099
:103EF00080B487B000AFF860084611461A46034602
:103F00007B810B463B811346FB800023BB82BB8A2F
:103F1000BA6A5278934244DA3A89BB8A13449BB214
:103F2000FA8812FB03F39AB27B8913447B82BB6A43
:103F30005A6897F82430203BB96A497801FB03F1AD
:103F4000BB8A0B445B0013441B883B820023FB822B
:103F5000FB8ABA6A127893421FDA3A8AFB8A02FA1B
:103F600003F303F40043002B08D07B8A5B003A6A1A
:103F70001344FA6A126892B21A8007E07B8A5B00E7
:103F80003A6A13443A6B126892B21A807B8A013300
:103F90007B82FB8A0133FB82DAE7BB8A0133BB8277
:103FA000B5E700BF1C37BD465DF8047B704780B5A0
:103FB0008CB004AFF8607B600B467B8113463B817D
:103FC0007B68FB61F86908F0ABF803467B61F86930
:103FD00008F0A8F803463B6107F1100207F114034B
:103FE0001146184600F0D2F90346002B1FD007F106
:103FF0001403184600F0F2F9B861BB6918783A89E1
:1040000079893B6B0293FB6A0193BB6A0093034679
:10401000F868FFF7B1FEBB6A1B789AB27B8913443C
:104020007B8107F11403184600F0C8F9D4E700BFFC
:104030002037BD4680BD90B58FB006AFF86008460A
:1040400011461A4603467B810B463B811346FB8093
:104050007B6BFB61F86908F063F803467B61F869E4
:1040600008F060F803463B6107F1100207F1140302
:104070001146184600F08AF90346002B24D007F1B8
:104080001403184600F0AAF9B861BB691B78FC88D4
:10409000388979893A6C0492FA6B0392BA6B02926E
:1040A00001933B6B009323460246F868FFF720FF1D
:1040B000BB6B1B789AB27B8913447B8107F1140395
:1040C000184600F07BF9CFE700BF2437BD4690BD0E
:1040D00080B483B000AF78603960154A144B1B88F8
:1040E0009BB223F040039BB213803B681B78012BEB
:1040F00008D10F4A0E4B1B889BB243F400639BB25E
:10410000138007E00A4A0A4B1B889BB223F4006322
:104110009BB21380064A064B1B889BB243F04003B8
:104120009BB2138000BF0C37BD465DF8047B70471F
:104130000050014080B584B000AF78600B46FB7042
:104140001E4B5B68002B06D11D4B1B899BB203F0F5
:104150000203002B01D1012300E00023002B00D03B
:10416000EEE7174B1B889BB203F40063002B14BFD0
:1041700001230023DBB2002B07D00023FB7307F1E0
:104180000F0319467868FFF7A3FF0D4BFA7892B238
:104190009A810A4B5B68002B06D1094B1B899BB2A5
:1041A00003F00203002B01D1012300E00023002BC8
:1041B00000D0EEE700BF1037BD4680BDA0640240CE
:1041C0000050014080B485B000AFF860B9607A60FB
:1041D0001D4B5B68002B06D11C4B1B899BB203F067
:1041E0000203002B01D1012300E00023002B00D0AB
:1041F000EEE7BB681A88FB68DA80154B4FF474123F
:10420000DA60114A104B1B6823F4806313600E4A76
:104210007B681B8853600C4AFB680633D3600A4AEC
:10422000094B1B6843F001031360084A074B9B8846
:104230009BB243F002039BB2938000BF1437BD468C
:104240005DF8047B704700BFA0640240005001404D
:104250000064024080B582B000AF7860786800F0FA
:10426000C9F87B6818460837BD4680BD80B582B066
:1042700000AF7860786800F0C8F87B6818460837A7
:10428000BD4680BD80B483B000AF78607B681B689A
:1042900018460C37BD465DF8047B704780B483B088
:1042A00000AF78607B685B6818460C37BD465DF8E8
:1042B000047B704790B583B000AF78607868FFF7F3
:1042C000E1FF04467868FFF7E9FF034623441846F8
:1042D0000C37BD4690BDB0B586B000AFF860381D54
:1042E00080E806003B60FB683968184600F0A4F8D7
:1042F0003B1D1846FFF7C6FF04463B1D1846FFF757
:10430000D9FF02462B462146F86800F0BDF8FB684D
:1043100018461837BD46B0BDB0B582B000AF786062
:104320007B681C687B685D687B68184600F0DAF87B
:1043300003461A462946204600F0DFF87B681846F7
:1043400000F089F87B6818460837BD46B0BD80B4D8
:1043500083B000AF786039607B681A683B681344AB
:1043600018460C37BD465DF8047B704780B483B0B7
:1043700000AF78607B685B681A467B681B68D31A5D
:1043800018460C37BD465DF8047B704790B583B086
:1043900000AF78603960786800F0BDF803461C68AB
:1043A000386800F0B8F803461B689C4214BF01232C
:1043B0000023DBB218460C37BD4690BD80B483B0F5
:1043C00000AF78607B681B685A1C7B681A607B684A
:1043D00018460C37BD465DF8047B704780B483B047
:1043E00000AF78607B681B6818460C37BD465DF8E7
:1043F000047B704780B483B000AF78607B68184658
:104400000C37BD465DF8047B704780B483B000AFC5
:1044100078607B6818460C37BD465DF8047B7047B2
:1044200080B582B000AF78607868FFF71FFF7B68C7
:1044300018460837BD4680BD80B582B000AF7860B1
:1044400039607B683968184600F070F87B68184658
:104450000837BD4680BD80B582B000AF78607B680C
:1044600019687B689B681A467B681B68D31A1A46D2
:10447000786800F072F87B681846FFF7D1FF7B6818
:1044800018460837BD4680BD90B587B000AFF860CC
:10449000B9607A603B707968B86800F071F80346DB
:1044A0007B61FB687969184600F07EF80246FB687C
:1044B0001A60FB681A687B691A44FB689A60FB689B
:1044C0001C68FB68184600F00DF803462246796820
:1044D000B86800F07DF80246FB685A6000BF1C37E0
:1044E000BD4690BD80B483B000AF78607B6818464D
:1044F0000C37BD465DF8047B704780B584B000AFD3
:10450000F860B9607A60B968F86800F072F800BFC6
:104510001037BD4680BD80B483B000AF78607B6843
:1045200018460C37BD465DF8047B704780B582B0F5
:1045300000AF786039603968786800F067F87B68A8
:1045400000221A607B6800225A607B6800229A6011
:104550007B6818460837BD4680BD80B584B000AF83
:10456000F860B9607A60BB68002B05D0FB687A6898
:10457000B968184600F058F800BF1037BD4680BD36
:10458000B0B584B000AF786039607C683B1D1846D8
:1045900000F059F82A463968204600F05EF80346D4
:1045A00018461037BD46B0BD80B582B000AF786008
:1045B00039603B68002B06D07B683968184600F0EC
:1045C0005BF8034600E0002318460837BD4680BD6F
:1045D00080B584B000AFF860B9607A603B607A68FB
:1045E000B968F86800F057F8034618461037BD461A
:1045F00080BD80B582B000AF786039603968786876
:1046000000F05BF800BF0837BD4680BD80B582B0C2
:1046100000AF786039603968786800F059F87B68D5
:1046200018460837BD4680BD80B584B000AFF8603D
:10463000B9607A607A68B968F86800F055F800BF28
:104640001037BD4680BD80B483B000AF7860184697
:104650000C37BD465DF8047B704780B485B000AF71
:10466000F860B9603A71BA68FB68D31A1846143713
:10467000BD465DF8047B704780B582B000AF7860BE
:10468000396000223968786800F03BF80346184624
:104690000837BD4680BD80B586B000AFF860B96010
:1046A0007A600123FB757A68B968F86800F045F80C
:1046B000034618461837BD4680BD80B483B000AFAE
:1046C0007860396000BF0C37BD465DF8047B7047E9
:1046D00080B483B000AF786039607B6818460C37CF
:1046E000BD465DF8047B704780B584B000AFF860CC
:1046F000B9607A60B86801F075FD00BF1037BD463B
:1047000080BD80B584B000AFF860B9607A60F868A9
:1047100000F023F80246BB689A4234BF012300230D
:10472000DBB2002B01D00EF0E0FFB86801F05CFDB9
:10473000034618461037BD4680BD80B584B000AF33
:10474000F860B9607A607A68B968F86800F011F8C2
:10475000034618461037BD4680BD80B483B000AF15
:1047600078604FF0FF3318460C37BD465DF8047B88
:10477000704790B585B000AFF860B9607A60F868AE
:1047800000F00FF80446B86800F00BF803467A68AA
:104790001946204600F010F8034618461437BD4667
:1047A00090BD80B483B000AF78607B6818460C374A
:1047B000BD465DF8047B7047B0B584B000AFF860CB
:1047C000B9607A60F86800F013F80446B86800F041
:1047D0000FF80546786800F016F803461A46294691
:1047E000204600F01BF8034618461037BD46B0BD02
:1047F00080B483B000AF78607B6818460C37BD4644
:104800005DF8047B704780B483B000AF78607B684C
:1048100018460C37BD465DF8047B704780B586B0FE
:1048200000AFF860B9607A600123FB757A68B968F7
:10483000F86800F005F8034618461837BD4680BDF5
:1048400080B586B000AFF860B9607A60BA68FB687E
:10485000D31A7B617B69002B05D07B691A46F96806
:1048600078681DF08DF87B697A681344184618370C
:10487000BD4680BD90B400AF9A4A9A4B1B8A9BB24A
:1048800023F001039BB21382974B1B78012B03D0BB
:10489000954B1B78022B55D1944B03F500531A8886
:1048A000934B1B889BB29A4206D1924B1B78DBB28A
:1048B000002B01D0012300E00023002B09D08E4BF8
:1048C0001B78DBB21A468D4B01219954894B00228B
:1048D0001A70884B1B78DBB2002B00F0B581864B39
:1048E0001B78DBB21846824B1B889BB21946844B5F
:1048F0001B889BB21A46824B9B889BB21344804A0A
:10490000128992B213447E4A928992B2134407EEFE
:10491000903AB8EEE77AF1EE006AC7EE267A9FED9C
:10492000797A77EE677A714A83020B449B001344CD
:10493000C3ED007A6E4B1B889BB201339AB26C4B6D
:104940001A8081E1684B1B78002B40F07D816C4B15
:104950001B889AB26A4B9B889BB213449AB2684BED
:104960001B899BB213449AB2654B9B899BB213443B
:104970009AB2654B1A80624B5B889AB2604BDB88B7
:104980009BB213449AB25E4B5B899BB213449AB2BA
:104990005B4BDB899BB213449AB25C4B1A80554B3C
:1049A0001B78DBB283F00103DBB2002B2ED0584B17
:1049B0001B78DBB283F00103DBB2002B07D14E4B37
:1049C0001B78DAB2534B1B78DBB29A421ED0524BA3
:1049D0001B78DBB2002B17D1504B1B889BB21A46B9
:1049E0004F4B1B889A4211DD4E4B1B889BB21A46D7
:1049F0004B4B5B889A4209DA434B1B889BB21A46A1
:104A0000474B5B889A4201DB012300E00023002B27
:104A100054D0384B01221A703F4B1B78DBB2002B6D
:104A200014D0334B00221A80334B1B78DBB21A466A
:104A30003D4B002123F812102F4B1B78DBB21A4696
:104A40003A4B4FF6FF7123F8121037E02A4B1B78D0
:104A5000DBB21946264B1B889AB2314B1B88D31AFE
:104A60009BB21AB2304B23F81120234B1B78DBB2D8
:104A70001A462D4B33F812301BB29BB2DB0BDBB264
:104A8000002B10D01C4B1B78DBB21A461946264B64
:104A900033F811301BB29BB203F5A0739BB219B26D
:104AA000214B23F81210144B1B78DBB21A461C4B17
:104AB0001B88013B99B21D4B23F812100D4B1B783C
:104AC000DBB2002B34D00C4B1B78DBB21A46174BF1
:104AD00033F812309BB240F23F12934228D10123A7
:104AE00027E000BF000400400A000020E41300207B
:104AF000EA0C0020F10C0020F70C0020000D002033
:104B00001C0D002000E0FF44E40C0020E80C002015
:104B1000F20C0020F80C0020F40C0020EE0C002019
:104B20000C000020E60C0020FC0C0020040D0020EE
:104B30000023002B10D0464B1B78DBB2012B14BF97
:104B400001230023DBB21A46414B1A70414B00226D
:104B50001A80414B00221A703F4B1B78DBB2002BAE
:104B60000FD13E4B1B78DBB283F00103DBB2002B8D
:104B700007D1374B1B78DAB2394B1B78DBB29A423C
:104B800001D0012300E00023002B5DD0304B1B78C7
:104B9000DBB21946334B1B889BB21C46324B1B8839
:104BA00098B2324A0B469B000B449B0123440146BA
:104BB00022F81310264B1B78DBB21946294B1B88B1
:104BC0009BB21C462A4B1B8898B22A4A0B469B0074
:104BD0000B449B012344014622F81310224B1B88EF
:104BE0009AB2254B1A801F4B1B889BB240F23F1292
:104BF00093420CBF01230023DBB2002B03D0194BDF
:104C000000221A8006E0174B1B889BB201339AB230
:104C1000144B1A80104B1B78DBB2002B0CD00C4BC2
:104C20001B78DBB2154A32F8132092B2013291B2EE
:104C3000124A22F8131007E0064B1B889BB201337F
:104C40009AB2044B1A80FFE700BFBD4690BC704784
:104C5000F70C0020EE0C0020F10C0020F20C0020DC
:104C6000F80C0020EA0C0020E40C0020E0020020F8
:104C7000E80C0020E0070020E60C0020040D0020D6
:104C800080B400AF254B1B6903F08003002B0CBFE1
:104C900001230023DBB2002B02D0214B01221A702A
:104CA000204B1B785BB2002B0DD11F4B1B6903F40B
:104CB0008073002B07D11C4B1B6903F40073002B7E
:104CC00001D0012300E00023002B02D0154B01226C
:104CD0001A70144B1B785BB2002B0DD1124B1B6961
:104CE00003F40073002B07D10F4B1B6903F480738F
:104CF000002B01D0012300E00023002B02D0094B40
:104D0000FF221A70094A094B5B6943F460735361CF
:104D100000BFBD465DF8047B704700BF0000024045
:104D2000F30C0020FA0C002000100240003C01406F
:104D300080B400AF1E4B1B785BB2002B0DD11D4B16
:104D40001B6903F48063002B07D11A4B1B6903F422
:104D50000063002B01D0012300E00023002B02D0D0
:104D6000134B01221A70124B1B785BB2002B0DD132
:104D7000104B1B6903F40063002B07D10D4B1B691B
:104D800003F48063002B01D0012300E00023002BFB
:104D900002D0074BFF221A70074A074B5B6943F4A6
:104DA0004063536100BFBD465DF8047B704700BFA0
:104DB000F90C002000100240003C014080B400AF1C
:104DC000084A084B1B8A9BB223F001039BB2138253
:104DD000054B1B680133044A136000BFBD465DF8F4
:104DE000047B704700080040100D002080B582B0A1
:104DF00000AF1D4A1C4B1B889BB223F001039BB2E2
:104E000013800023FB80BB1D19461848FEF7EEFDFA
:104E1000174800F0CBFE174B00221A70164B0022E9
:104E20001A70164B00221A800021154B0A461A8070
:104E3000144B0A461A80144B1B78012B02D14FF4F5
:104E4000806201E04FF40072104B03F500531A80AA
:104E5000054A054B1B889BB243F001039BB21380AC
:104E600000BF0837BD4680BD00040040380D00205B
:104E7000087C0120F20C0020F10C0020E60C002040
:104E8000EA0C0020EE0C00200A000020E4130020B1
:104E900080B588B000AFF860B960FB681B889BB232
:104EA00007EE903AB8EEE77A264BD3ED007A27EE7C
:104EB000277A254B1B881BB207EE903AF8EEE77A6B
:104EC00037EE277ADFED216AC7EE267AB6EE007A52
:104ED00037EEC77A1E4B1B785BB207EE903AF8EEBE
:104EE000E76AB2EE006AC6EE267A67EE277AB6EE79
:104EF000007A77EE877A9FED177A67EE877AC7EDAB
:104F0000057A154BBB6107F1180207F1140311462E
:104F10001846FDF799FC02464FF07E53FB6107F1FE
:104F20001C0319461046FDF7A8FC0346D3ED007A92
:104F3000FCEEE77AC7ED017ABB889BB218462037B2
:104F4000BD4680BD04000020000000200000804617
:104F5000080000200000574300005643B0B5C8B019
:104F600004AF00F0E7FC00F01BFDFDF74BFFFDF781
:104F700043FDFDF711FEFDF769FF7648FEF748F89F
:104F8000FDF70CFFFFF732FF734800F00FFE002122
:104F90007248FDF74AFC03461A88714B1A806E4826
:104FA00000F0EEFF6F4B1B78012B03D06D4B1B788D
:104FB000022B60D16C4B1B78DBB283F00103DBB2B8
:104FC000002B11D0694B1B78DBB283F00103DBB2FD
:104FD000002B07D1654B5B78DBB283F00103DBB2BA
:104FE000002B01D0012300E00023002B10D05E4BEA
:104FF00001221A705E4B00221A805C4B1B78DBB2D8
:10500000002B01D0012200E000225A4B1A70E3E38A
:10501000564B1B78DBB2002B03D0574B00221A7083
:1050200008E0524B5B78DBB2002B00F0D483524B8C
:1050300001221A704B4B1B78012B0AD14E4B1B7867
:10504000DBB21B034D4A134419464C48FCF760F889
:1050500009E0494B1B78DBB21B03484A134419464D
:105060004648FCF78FF8444B1B78DBB21A463F4B9F
:1050700000219954B0E33B4B1B78002B87D1404B68
:105080001B78DBB283F00103DBB2002B06D0364B7A
:105090001B78DBB2002B01D0012300E00023002BA2
:1050A0000AD0344B1B78DAB2334B1A70344B0122DE
:1050B0001A70344B00221A80314B1B78DBB2002B64
:1050C00017D02D4B1B78DAB22A4B1B78DBB29A42F1
:1050D0000DD1284B1B78DBB21A462B4B33F812301C
:1050E0009BB21A46274B1B889BB29A4201DB0123D5
:1050F00000E00023002B3FF44AAF244A234B9B8A55
:105100009BB243F001039BB29382204A1F4B1B8842
:105110009BB243F001039BB213801D4B00221A6027
:10512000184B1B8899B2174B1B889BB21A2B04DDB6
:10513000144B1B889BB2FA2B01DD0B2000E00020F2
:10514000104B1B889CB20F4B1B889BB21A2B21DC87
:10515000CD2320E0380D0020087C0120E83300201A
:105160000A7C01200A000020F10C0020000D002024
:10517000EA0C0020F70C0020F80C0020E4130020BB
:10518000F20C0020EC0C0020040D00200008004070
:10519000100D0020D723BA1D00251580BA1D0192DD
:1051A000009323460246A948FEF73AFCA84B1B7819
:1051B000DBB21A46A74B33F812301BB21A46A64B85
:1051C0001B889BB21A44A54B83FB0213D911D3173A
:1051D000C91A0B469B000B449B01D11A0B46A7F83A
:1051E0000A319B4B1B78DBB21946B7F80A210B46F4
:1051F0009B000B449B0113445B00994A1A44994B52
:105200001B78DBB299B207F10803198007F1080394
:1052100019461046FFF73CFE0346A7F808318C4BB1
:105220001B78DBB21946B7F80A210B469B000B44EA
:105230009B0113445B008C4A1A448C4B1B78DBB2F5
:1052400099B207F10A03198007F10A0319461046BB
:10525000FFF71EFE0346A7F806317F4B1B889BB263
:10526000002B0CBF01230023DBB2002B0DD0804AA2
:10527000B7F8083113807F4AB7F8063113807E4BA8
:1052800000221A707D4B00221A807B4B1B78DBB208
:1052900083F00103DBB2002B13D06D4B1B78DBB224
:1052A0001846B7F80A216E4903469B0003449B0148
:1052B000134431F813309BB2B3F5005F01DA0123D8
:1052C00000E00023002B02D06B4B01221A706A4BC6
:1052D0001B78DBB2002B13D05D4B1B78DBB218467A
:1052E000B7F80A215E4903469B0003449B0113441F
:1052F00031F813309BB2B3F5005F01DB012300E00E
:105300000023002B4ED05D4B1B889BB2002BCCBFE3
:1053100001230023DBB2002B3CD0594BD3ED007AA4
:10532000B2EE0E7A27EE877A4B4B1B889BB21A4659
:10533000524B1B889BB2D31A07EE903AF8EEE77AED
:1053400077EEA76A4F4B1B8D9BB2013307EE903A65
:10535000F8EEE77A66EEA76A4A4BDB6A013307EE9E
:10536000903AF8EE677A26EEA76A474B1B6807EE7D
:10537000903AF8EE677AC6EE276AB7EE006AC6EE94
:10538000267A37EE277AF3EE006AC7EE267A3C4B90
:10539000C3ED007A304B1B889AB2384B1A80364BDB
:1053A00000221A702C4B1B889BB203F00303002BC6
:1053B0000CBF01230023DBB2002B0DD0264B1B8832
:1053C00099B207F10C0345F28A221A8007F10C0307
:1053D0006B221E48FEF7FCFB1F4B1B889BB2042B65
:1053E000D4BF01230023DBB2002B51D00023C7F828
:1053F0000C31264B1B785BB25A00D7F80C319A421D
:10540000CCBF01230023DBB2002B41D0124B1B8801
:1054100099B2D7F80C31D72202FB03F21B4B1B7851
:105420005BB25B0092FBF3F39AB207F10E0345F215
:105430008A20188007F10E030448FEF7C9FBD7F84D
:105440000C310133C7F80C31D3E700BF380D002011
:10545000F80C0020FC0C0020EC0C0020676666664F
:10546000E0020020F50C0020E0070020F60C0020F0
:10547000E00C0020E20C0020F00C00202C0D00209D
:10548000300D002000040040100000200800002023
:10549000BB4B1B8898B2BA4B1B889CB2B94B1B887C
:1054A0009BB207F110024FF4FC611160B7F80811CC
:1054B00007F110020192009323460A460146B248C2
:1054C000FEF7A8FBAE4B1B8899B2AD4B1B889CB274
:1054D000AE4B1B889BB240F21D527A61B7F80601B1
:1054E00007F114020192009323460246A648FEF7F4
:1054F00091FBA44AB7F808311380A44AB7F80631E3
:1055000013809F4B1B889BB201339AB29C4B1A802D
:105510009B4B1B889BB2B3F5A07F0CBF01230023DC
:10552000DBB2002B02D09A4B00221A70944B1B88DE
:105530009BB21A46974B1B8804339A420CBF012337
:105540000023DBB2002B51D0934B1B78DBB29BB214
:105550007B8307F11A0319469048FFF799FC03462D
:10556000A7F80431B7F80431042B3FDDB7F8043154
:10557000D22B3BDC874B1988B7F80431043B98B237
:10558000844B1C88B7F8043104339BB24FF6E072A9
:10559000FA6107F11C0201920093234602467A4801
:1055A000FEF738FB7B4B1B88043B3B6200237B628E
:1055B00007F1240207F120031146184600F02AF9EA
:1055C00003461B6899B2734B1B88043398B24FF69D
:1055D000E073BB62B7F8042107F128030193B7F821
:1055E0000431009303466848FEF714FB644B1B88A4
:1055F0009BB2012B0CBF01230023DBB2002B00F078
:10560000B280674B1B785BB29AB207F15C036549C5
:10561000184600F087FC07F1440307F15C02624979
:10562000184600F0DFF807F12C0307F144015F4A48
:105630001846FDF7D4F845F28A237B670023BB6741
:1056400007F12C0207F17803029307F17403019329
:10565000574B00931346012200214B48FEF7A7FC4D
:1056600007F12C03184606F030FD07F144031846F5
:1056700006F02BFD07F15C03184606F026FD484BAB
:105680001B785BB29AB207F1AC034649184600F0AA
:1056900049FC07F1940307F1AC024649184600F0B3
:1056A000A1F807F17C0307F19401404A1846FDF781
:1056B00096F845F28A23C7F8C4300023C7F8C830EB
:1056C00007F17C0207F1C803029307F1C4030193B9
:1056D000374B00931346CD2200212B48FEF767FC81
:1056E00007F17C03184606F0F0FC07F19403184616
:1056F00006F0EBFC07F1AC03184606F0E6FC2E4B77
:10570000D3ED007A07F1E403B0EE670A25491846A5
:1057100000F0BEFB07F1CC0307F1E401274A18466D
:10572000FDF75DF84FF6FF73C7F8FC300023C7F8AC
:10573000003107F1CC0207F58073029307F1FC03F7
:1057400001931B4B009313460122FA210E48FEF7EA
:105750002EFC07F1CC03184606F0B7FC07F1E40372
:10576000184606F0B2FC164A154B1B889BB223F074
:1057700001039BB21380134B1B681A0424E000BF83
:10578000EC0C0020E00C0020380D0020E20C002082
:10579000F20C00200C000020F50C00200E00002070
:1057A00008000020087C0120808202088482020810
:1057B000400D002088820208300D00208C820208F3
:1057C00000080040100D0020044B5B6A1344044A9B
:1057D0001360FFF7DCBB00BFFFF7D9BB0008004038
:1057E000140D002080B584B000AFF860B9607A6015
:1057F000BA680021786806F047FE03461846FCF7B1
:1058000081FF03461946F86806F045FCF868103732
:10581000BD4680BD80B483B000AF786039607B68DE
:105820001A683B681B689A4201DA3B6800E07B68B3
:1058300018460C37BD465DF8047B704780B582B0D2
:1058400000AF786039607B68012B0AD13B684FF666
:10585000FF72934205D10548FDF79CFB0448FBF716
:10586000C3FB00BF0837BD4680BD00BF380D002018
:10587000E413002080B500AF4FF6FF710120FFF761
:10588000DDFF80BDDFF834D0002103E00C4B5B5816
:10589000435004310B480C4B42189A42F6D30B4A42
:1058A00002E0002342F8043B094B9A42F9D300F08E
:1058B00041F81BF009FFFFF751FB70470000032080
:1058C00098F2020800000020C4020020C402002058
:1058D000EC8C0120FEE780B400AF00BFBD465DF850
:1058E000047B704780B400AFFEE780B400AFFEE7F2
:1058F00080B400AFFEE780B400AFFEE780B400AF35
:1059000000BFBD465DF8047B704780B400AF00BFA8
:10591000BD465DF8047B704780B400AF00BFBD4654
:105920005DF8047B704780B400AF00BFBD465DF8F2
:10593000047B704780B500AF164A164BD3F8883009
:1059400043F47003C2F88830134A134B1B6843F0CA
:1059500001031360104B00229A600F4A0E4B1B6824
:1059600023F0847323F4803313600B4B0B4A5A608B
:10597000094A094B1B6823F480231360064B00225D
:10598000DA6000F089F8034B4FF000629A6000BFC4
:1059900080BD00BF00ED00E0003802401030002460
:1059A00080B487B000AF00233B6100237B610223FA
:1059B000FB600023BB6002237B60324B9B6803F0DB
:1059C0000C033B613B69042B07D0082B09D0002B4B
:1059D0003DD12D4B2D4A1A603DE02B4B2C4A1A60CD
:1059E00039E0284B5B689B0D03F00103BB60254B3E
:1059F0005B6803F03F037B60BB68002B0CD0244A3C
:105A00007B68B2FBF3F31F4A52689209C2F30802A3
:105A100002FB03F37B610BE01C4A7B68B2FBF3F3F0
:105A2000184A52689209C2F3080202FB03F37B6131
:105A3000144B5B681B0C03F0030301335B00FB603A
:105A40007A69FB68B2FBF3F30F4A136003E00E4B75
:105A50000E4A1A6000BF0B4B9B681B0903F00F0333
:105A60000C4AD35CDBB23B61074B1A683B6922FAF4
:105A700003F3054A136000BF1C37BD465DF8047B85
:105A8000704700BF00380240100000200024F400DE
:105A900000127A001400002080B483B000AF00230D
:105AA0007B6000233B60364A354B1B6843F48033F0
:105AB0001360334B1B6803F400333B607B68013396
:105AC0007B603B68002B03D17B68B3F5A06FF0D1FE
:105AD0002B4B1B6803F40033002B02D001233B60E7
