:020000040800F2
:100000000000032081530008D3530008E153000887
:10001000E7530008ED530008F35300080000000008
:10002000000000000000000000000000F95300087C
:10003000075400080000000015540008235400086D
:10004000D1530008D1530008D1530008D153000800
:10005000D1530008D1530008D1530008D1530008F0
:10006000D1530008D1530008D1530008D1530008E0
:10007000D1530008D1530008D1530008D1530008D0
:10008000D1530008D1530008D1530008D1530008C0
:10009000D1530008D1530008D153000899470008F4
:1000A000D1530008D1530008D1530008D1530008A0
:1000B000D1530008A5430008D5480008D1530008D3
:1000C000D1530008D1530008D1530008D153000880
:1000D000D1530008D1530008D1530008D153000870
:1000E00049480008D1530008D1530008D1530008F3
:1000F000D1530008D1530008D1530008D153000850
:10010000D1530008D1530008D1530008D15300083F
:10011000D1530008D1530008D1530008D15300082F
:10012000D1530008D1530008D1530008D15300081F
:10013000D1530008D1530008D1530008D15300080F
:10014000D1530008D1530008D1530008D1530008FF
:10015000D1530008D1530008D1530008D1530008EF
:10016000D1530008D1530008D1530008D1530008DF
:10017000D1530008D1530008D1530008D1530008CF
:10018000D1530008D1530008D1530008D1530008BF
:10019000D1530008D1530008D1530008D1530008AF
:0C01A000D1530008D1530008D1530008CF
:1001B00010B5054C237833B9044B13B10448AFF3A1
:1001C00000800123237010BDC40200200000000045
:1001D0000878020808B5034B1BB103490348AFF385
:1001E000008008BD00000000C80200200878020856
:1001F00001F0FF01102A2BDB10F0070F08D010F8D8
:10020000013B013A8B422DD010F0070F42B3F6D1DB
:10021000F0B441EA012141EA014122F007047FF0F4
:1002200000070023F0E80256083C85EA010586EA4B
:10023000010685FA47F5A3FA87F586FA47F6A5FA87
:1002400087F68EB9EED1F0BC01F0FF0102F0070293
:1002500032B110F8013B013A83EA010313B1F8D13E
:100260000020704701387047002D06BF354603381F
:10027000073815F0010F07D1013015F4807F02BF58
:10028000013015F4C03F0130F0BC0138704700BFA9
:1002900010F8012B11F8013B012A28BF9A42F7D030
:1002A000D01A7047034613F8012B002AFBD1181A05
:1002B0000138704781F0004102E000BF83F0004345
:1002C00030B54FEA41044FEA430594EA050F08BFF1
:1002D00090EA020F1FBF54EA000C55EA020C7FEAB5
:1002E000645C7FEA655C00F0E2804FEA5454D4EB32
:1002F0005555B8BF6D420CDD2C4480EA020281EAFC
:10030000030382EA000083EA010180EA020281EA33
:100310000303362D88BF30BD11F0004F4FEA013185
:100320004FF4801C4CEA113102D0404261EB410194
:1003300013F0004F4FEA03334CEA133302D052421A
:1003400063EB430394EA050F00F0A780A4F10104D6
:10035000D5F1200E0DDB02FA0EFC22FA05F2801810
:1003600041F1000103FA0EF2801843FA05F35941F6
:100370000EE0A5F120050EF1200E012A03FA0EFC75
:1003800028BF4CF0020C43FA05F3C01851EBE3719F
:1003900001F0004507D54FF0000EDCF1000C7EEBBC
:1003A00000006EEB0101B1F5801F1BD3B1F5001FFA
:1003B0000CD349085FEA30004FEA3C0C04F1010419
:1003C0004FEA445212F5800F80F09A80BCF1004F42
:1003D00008BF5FEA500C50F1000041EB045141EAC4
:1003E000050130BD5FEA4C0C404141EB010111F4C5
:1003F000801FA4F10104E9D191F0000F04BF014670
:100400000020B1FA81F308BF2033A3F10B03B3F14D
:1004100020020CDA0C3208DD02F1140CC2F10C02DD
:1004200001FA0CF021FA02F10CE002F11402D8BF3B
:10043000C2F1200C01FA02F120FA0CFCDCBF41EA07
:100440000C019040E41AA2BF01EB0451294330BDD6
:100450006FEA04041F3C1CDA0C340EDC04F11404B3
:10046000C4F1200220FA04F001FA02F340EA03008A
:1004700021FA04F345EA030130BDC4F10C04C4F1D0
:10048000200220FA02F001FA04F340EA03002946B0
:1004900030BD21FA04F0294630BD94F0000F83F4FA
:1004A000801306BF81F480110134013D4EE77FEADD
:1004B000645C18BF7FEA655C29D094EA050F08BF29
:1004C00090EA020F05D054EA000C04BF194610460A
:1004D00030BD91EA030F1EBF0021002030BD5FEA4E
:1004E000545C05D14000494128BF41F0004130BD76
:1004F00014F580043CBF01F5801130BD01F00045CA
:1005000045F0FE4141F470014FF0000030BD7FEA3C
:10051000645C1ABF194610467FEA655C1CBF0B4637
:10052000024650EA013406BF52EA033591EA030F4E
:1005300041F4002130BD00BF90F0000F04BF002146
:10054000704730B54FF4806404F132044FF0000579
:100550004FF0000150E700BF90F0000F04BF0021F2
:10056000704730B54FF4806404F1320410F0004558
:1005700048BF40424FF000013EE700BF42004FEA53
:10058000E2014FEA31014FEA02701FBF12F07F43D0
:1005900093F07F4F81F06051704792F0000F14BFCD
:1005A00093F07F4F704730B54FF4607401F0004511
:1005B00021F0004120E700BF50EA010208BF704768
:1005C00030B54FF000050AE050EA010208BF70475D
:1005D00030B511F0004502D5404261EB41014FF4C6
:1005E000806404F132045FEA915C3FF4DCAE4FF0CA
:1005F00003025FEADC0C18BF03325FEADC0C18BFB1
:10060000033202EBDC02C2F1200300FA03FC20FA01
:1006100002F001FA03FE40EA0E0021FA02F114444E
:10062000C1E600BF70B54FF0FF0C4CF4E06C1CEA63
:1006300011541DBF1CEA135594EA0C0F95EA0C0FD8
:1006400000F0DEF82C4481EA030621EA4C5123EA4B
:100650004C5350EA013518BF52EA033541F480117A
:1006600043F4801338D0A0FB02CE4FF00005E1FB2D
:1006700002E506F00042E0FB03E54FF00006E1FB77
:1006800003569CF0000F18BF4EF0010EA4F1FF04BA
:10069000B6F5007F64F5407404D25FEA4E0E6D41FA
:1006A00046EB060642EAC62141EA55514FEAC5200B
:1006B00040EA5E504FEACE2EB4F1FD0C88BFBCF587
:1006C000E06F1ED8BEF1004F08BF5FEA500E50F138
:1006D000000041EB045170BD06F0004646EA0101FE
:1006E00040EA020081EA0301B4EB5C04C2BFD4EB30
:1006F0000C0541EA045170BD41F480114FF0000E29
:10070000013C00F3AB8014F1360FDEBF002001F096
:10071000004170BDC4F10004203C35DA0C341BDC10
:1007200004F11404C4F1200500FA05F320FA04F0E2
:1007300001FA05F240EA020001F0004221F0004116
:1007400010EBD37021FA04F642EB06015EEA430E89
:1007500008BF20EAD37070BDC4F10C04C4F12005B9
:1007600000FA04F320FA05F001FA04F240EA02006C
:1007700001F0004110EBD37041F100015EEA430E3D
:1007800008BF20EAD37070BDC4F1200500FA05F25D
:100790004EEA020E20FA04F301FA05F243EA0203DC
:1007A00021FA04F001F0004121FA04F220EA0200EB
:1007B00000EBD3705EEA430E08BF20EAD37070BD31
:1007C00094F0000F0FD101F00046400041EB010111
:1007D00011F4801F08BF013CF7D041EA060195F0F3
:1007E000000F18BF704703F00046520043EB0303AD
:1007F00013F4801F08BF013DF7D043EA060370479A
:1008000094EA0C0F0CEA135518BF95EA0C0F0CD0A4
:1008100050EA410618BF52EA4306D1D181EA0301EA
:1008200001F000414FF0000070BD50EA410606BFE4
:100830001046194652EA430619D094EA0C0F02D129
:1008400050EA013613D195EA0C0F05D152EA03366E
:100850001CBF104619460AD181EA030101F000418C
:1008600041F0FE4141F470014FF0000070BD41F0D5
:10087000FE4141F4780170BD70B54FF0FF0C4CF4AF
:10088000E06C1CEA11541DBF1CEA135594EA0C0FCE
:1008900095EA0C0F00F0A7F8A4EB050481EA030E1B
:1008A00052EA03354FEA013100F088804FEA033302
:1008B0004FF0805545EA131343EA12634FEA0222D0
:1008C00045EA111545EA10654FEA00260EF0004191
:1008D0009D4208BF964244F1FD0404F5407402D2E3
:1008E0005B084FEA3202B61A65EB03055B084FEA74
:1008F00032024FF480104FF4002CB6EB020E75EB71
:10090000030E22BFB61A754640EA0C005B084FEA98
:100910003202B6EB020E75EB030E22BFB61A754615
:1009200040EA5C005B084FEA3202B6EB020E75EB60
:10093000030E22BFB61A754640EA9C005B084FEAD8
:100940003202B6EB020E75EB030E22BFB61A7546E5
:1009500040EADC0055EA060E18D04FEA051545EAD4
:1009600016754FEA06164FEAC30343EA52734FEA7D
:10097000C2025FEA1C1CC0D111F4801F0BD141EAF6
:1009800000014FF000004FF0004CB6E711F4801F5B
:1009900004BF01430020B4F1FD0C88BFBCF5E06F3B
:1009A0003FF6AFAEB5EB030C04BFB6EB020C5FEA4B
:1009B000500C50F1000041EB045170BD0EF0004EA0
:1009C0004EEA113114EB5C04C2BFD4EB0C0541EAD2
:1009D000045170BD41F480114FF0000E013C90E6CF
:1009E00045EA060E8DE60CEA135594EA0C0F08BF93
:1009F00095EA0C0F3FF43BAF94EA0C0F0AD150EA92
:100A000001347FF434AF95EA0C0F7FF425AF104624
:100A100019462CE795EA0C0F06D152EA03353FF44C
:100A2000FDAE1046194622E750EA410618BF52EAC9
:100A300043067FF4C5AE50EA41047FF40DAF52EA9D
:100A400043057FF4EBAE12E74FF0FF3C06E000BF3A
:100A50004FF0010C02E000BF4FF0010C4DF804CD47
:100A60004FEA410C7FEA6C5C4FEA430C18BF7FEA07
:100A70006C5C1BD001B050EA410C0CBF52EA430C35
:100A800091EA030F02BF90EA020F0020704710F1B5
:100A9000000F91EA030F58BF994208BF90422CBF44
:100AA000D8176FEAE37040F0010070474FEA410C3D
:100AB0007FEA6C5C02D150EA013C07D14FEA430C5B
:100AC0007FEA6C5CD6D152EA033CD3D05DF8040BCC
:100AD000704700BF8446104662468C4619466346FE
:100AE00000E000BF01B5FFF7B7FF002848BF10F1D5
:100AF000000F01BD4DF808EDFFF7F4FF0CBF01201A
:100B000000205DF808FB00BF4DF808EDFFF7EAFF95
:100B100034BF012000205DF808FB00BF4DF808ED50
:100B2000FFF7E0FF94BF012000205DF808FB00BF45
:100B30004DF808EDFFF7CEFF94BF012000205DF8CF
:100B400008FB00BF4DF808EDFFF7C4FF34BF0120DC
:100B500000205DF808FB00BF4FEA410C7FEA6C5CA7
:100B600002D150EA013C0AD14FEA430C7FEA6C5CA7
:100B700002D152EA033C02D14FF0000070474FF01F
:100B8000010070474FEA410212F5001215D211D54B
:100B90006FF47873B3EB625212D94FEAC12343F07A
:100BA000004343EA505311F0004F23FA02F018BFFC
:100BB000404270474FF00000704750EA013005D1C5
:100BC00011F0004008BF6FF0004070474FF0000088
:100BD000704700BF4A0011D212F5001211D20DD594
:100BE0006FF47873B3EB62520ED44FEAC12343F033
:100BF000004343EA505323FA02F070474FF00000DD
:100C0000704750EA013002D14FF0FF3070474FF08B
:100C1000000070474FEA4102B2F1E04324BFB3F550
:100C2000001CDCF1FE5C0DD901F0004C4FEAC00263
:100C30004CEA5070B2F1004F40EB830008BF20F047
:100C40000100704711F0804F21D113F13872BCBF01
:100C500001F00040704741F480114FEA5252C2F156
:100C60001802C2F1200C10FA0CF320FA02F018BF9F
:100C700040F001004FEAC1234FEAD32303FA0CFCF2
:100C800040EA0C0023FA02F34FEA4303CCE77FEA81
:100C9000625307D150EA01331EBF4FF0FE4040F4CB
:100CA0004000704701F0004040F0FE4040F400007A
:100CB000704700BF53B94AB9002908BF00281CBFBC
:100CC0004FF0FF314FF0FF3000F07AB9ADF1080C72
:100CD0006DE904CE00F006F8DDF804E0DDE902235A
:100CE00004B070472DE9F0478C460D460446089E37
:100CF000002B51D18A4217466DD9B2FA82FEBEF15D
:100D0000000F0BD0CEF1200C01FA0EF520FA0CFCEE
:100D100002FA0EF74CEA050C00FA0EF44FEA174AF5
:100D2000250CBCFBFAF81FFA87F90AFB18CC45EA38
:100D30000C4508FB09F3AB420AD9ED1908F1FF3263
:100D400080F02381AB4240F22081A8F102083D44AB
:100D5000ED1AA4B2B5FBFAF00AFB105544EA0544BB
:100D600000FB09F9A14509D9E41900F1FF3380F02E
:100D70000A81A14540F2078102383C44A4EB0904F2
:100D800040EA08400021002E61D024FA0EF400232E
:100D900034607360BDE8F0878B4207D9002E54D0D1
:100DA000002186E821000846BDE8F087B3FA83F108
:100DB000002940F08E80AB4202D3824200F2FA80DA
:100DC000841A65EB03050120AC46002E3FD086E86F
:100DD0001010BDE8F08712B90127B7FBF2F7B7FA98
:100DE00087FEBEF1000F34D1EB1B3A0C1FFA87FCD3
:100DF0000121B3FBF2F8250C02FB183345EA034549
:100E00000CFB08F3AB4207D9ED1908F1FF3002D211
:100E1000AB4200F2D1808046ED1AA3B2B5FBF2F0EE
:100E200002FB105543EA05440CFB00FCA44507D91E
:100E3000E41900F1FF3302D2A44500F2B88018464D
:100E4000A4EB0C0440EA08409DE731463046BDE87B
:100E5000F087CEF1200405FA0EF307FA0EF720FA18
:100E600004F83A0C25FA04F448EA0308B4FBF2F15A
:100E70004FEA184502FB11441FFA87FC45EA044576
:100E800001FB0CF3AB4200FA0EF409D9ED1901F1A4
:100E9000FF3080F08A80AB4240F2878002393D44C7
:100EA000EB1A1FFA88F5B3FBF2F002FB103345EAA8
:100EB000034500FB0CF3AB4207D9ED1900F1FF38F5
:100EC0006FD2AB426DD902383D44EB1A40EA014182
:100ED0008FE7C1F1200722FA07F88B4005FA01F4E9
:100EE00048EA030320FA07FE4FEA134CFD404EEA9E
:100EF000040EB5FBFCF94FEA1E440CFB19551FFA12
:100F000083F844EA054509FB08F4AC4202FA01F211
:100F100000FA01FA08D9ED1809F1FF3043D2AC42CA
:100F200041D9A9F102091D442D1B1FFA8EFEB5FB04
:100F3000FCF00CFB10554EEA054400FB08F8A045F8
:100F400007D9E41800F1FF3529D2A04527D9023886
:100F50001C4440EA0940A4EB0804A0FB02894C456C
:100F6000C6464D4615D312D056B1BAEB0E0364EB0C
:100F7000050404FA07F7CB401F43CC403760746088
:100F80000021BDE8F0871846F8E69046E0E6C24545
:100F9000EAD2B8EB020E69EB03050138E4E7284614
:100FA000D7E7404691E78146BEE7014678E7023839
:100FB0003C4445E7084608E7A8F102083D442BE712
:100FC000704700BF80B483B000AF87ED010A97ED92
:100FD000017AD7ED017AB4EE677AF1EE10FA01D713
:100FE000012300E0002318460C37BD465DF8047B62
:100FF000704780B582B000AF87ED010A97ED010A16
:101000001DF0FEFDF0EE407AB0EE670A0837BD46EF
:1010100080BD00000000000090B585B000AF786092
:101020007B6803F5005301221A707B6803F5A73330
:101030000C3300221A607B6803F5A73310330022BB
:101040001A807B6803F5A733123327491A460B46EB
:1010500003CB106051601B8813810023FB60FB6889
:10106000B3F5806F35DAFB6807EE903AF8EEE77A71
:1010700077EEA77A17EE900AFFF780FA18A3D3E964
:101080000023FFF7CFFA03460C46184621464FF0DF
:101090000002164BFFF7F0FB03460C4644EC173BEF
:1010A000B0EE470AF0EE670A1DF062FD54EC103B0B
:1010B00018462146FFF7AEFD01467A68FB6803F645
:1010C00002439B00134404331960FB680133FB6047
:1010D000C5E77B6818461437BD4690BDAFF3008066
:1010E000182D4454FB21094020780208000090404C
:1010F00090B583B000AF78607868FFF72DFA0346AB
:101100000C4644EC103B1DF0EBFCB0EE407AF0EEE8
:10111000607AB0EE470AF0EE670A0C37BD4690BD24
:10112000B0B582B000AF87ED010A38607868FFF78C
:1011300025FA04460D463868FFF70EFA02460B46BC
:1011400043EC112B45EC104B1DF080FDB0EE407AC6
:10115000F0EE607AB0EE470AF0EE670A0837BD4657
:10116000B0BD000000000000B0B52DED028BADF564
:10117000007D06AF07F10C03186007F10803196042
:10118000C84AC84B9B8A9BB243F001039BB293822F
:10119000C44AC44B1B889BB243F001039BB213802B
:1011A000C14B00221A600023C7F8B83107F10803C9
:1011B0001B68D3ED007AB0EE670AFFF703FF034622
:1011C000002B02D00123C7F8B4310023C7F8E43163
:1011D000D7F8E431B3F5806F38DAD7F8E431162266
:1011E00093FAA3F363FA02F3C7F8B831D7F8B8213A
:1011F000D7F8E4319A4223DDD7F8E4319B0007F1B8
:101200000802126813441B68C7F8B031D7F8E431FC
:101210009B0007F1080212681344D7F8B821920026
:1012200007F1080109680A4412681A60D7F8B83152
:101230009B0007F1080212681344D7F8B0211A6026
:10124000D7F8E4310133C7F8E431C1E70123C7F827
:10125000E031D7F8E031B3F5806F80F21782D7F82C
:10126000E031012B65D10023C7F8DC31D7F8DC3140
:10127000B3F5806F80F20482D7F8DC21D7F8E03133
:101280001344C7F8AC31D7F8AC319B0007F1080222
:10129000126813441B68C7F8A831D7F8AC319B001B
:1012A00007F1080212681344D7F8DC21920007F115
:1012B000080109680A4492ED007AD7ED6A7A77EE60
:1012C000677AC3ED007A07F10C031A68D7F8AC31DE
:1012D00003F602039B00134404334FF000021A602C
:1012E000D7F8DC319B0007F1080212681344D7F8E5
:1012F000DC21920007F1080109680A4492ED007AA6
:10130000D7ED6A7A77EE277AC3ED007A07F10C03FE
:101310001A68D7F8DC3103F602039B001344043348
:101320004FF000021A60D7F8DC310233C7F8DC3125
:101330009CE7D7F8E031B3F5007F40F0B780012398
:10134000A7F8DA31B7F8DA31B3F5806F80F2988117
:10135000B7F8DA319A02D7F8E0315B0092FBF3F389
:101360001846FFF7C5FE54EC103B18462146FFF720
:1013700031FC0346A7F8A631B7F8A63107F10C02F5
:10138000126803F602439B00134404331B68C7F83A
:10139000A031B7F8A63103F5807307F10C0212688B
:1013A00003F602439B00134404331B68C7F89C31C7
:1013B000B7F8DA21D7F8E0311344C7F89831D7F8F5
:1013C00098319B0007F108021268134493ED007AEC
:1013D000D7ED677A27EE277A07F10C031A68D7F85A
:1013E000983103F602039B0013440433D3ED006AE3
:1013F000D7ED687A66EEA77A77EE677AB7F8DA31D2
:101400009B0007F1080212681344B7F8DA21920032
:1014100007F1080109680A4492ED007A77EE277A0D
:10142000C3ED007A07F10C031A68D7F8983103F678
:1014300002039B001344043393ED007AD7ED677ADF
:1014400027EE277AD7F898319B0007F10802126837
:101450001344D3ED006AD7ED687A66EEA77A77EE8B
:10146000277AB7F8DA31B7F8DA2107F10C01096801
:1014700002F6020292000A44043292ED007A77EEFC
:10148000277A07F10C02126803F602039B0013444B
:101490000433C3ED007AB7F8DA310133A7F8DA3153
:1014A00050E700BF00080040100D00200023C7F8DF
:1014B000D431D7F8D421D7F8E0319A4280F2E080D5
:1014C000D7F8D4319A02D7F8E0315B0092FBF3F3FE
:1014D0001846FFF70DFE54EC103B18462146FFF767
:1014E00051FB0346C7F8943107F10C031A68D7F88B
:1014F000943103F602439B00134404331B68C7F87E
:101500009031D7F8943103F5807307F10C0212681B
:1015100003F602439B00134404331B68C7F88C3165
:10152000D7F8D431C7F8D031D7F8D031B3F5806FC0
:1015300080F2A080D7F8D021D7F8E0311344C7F863
:101540008831D7F8D0319B0007F1080212681344A4
:101550001B68C7F8843107F10C031A68D7F8D0313B
:1015600003F602039B00134404331B68C7F8803161
:10157000D7F888319B0007F10802126813441B68F2
:10158000C7F87C3107F10C031A68D7F8883103F6E5
:1015900002039B00134404331B68C7F8783197EDAE
:1015A000637AD7ED5F7A27EE277AD7ED646AD7EDB5
:1015B0005E7A66EEA77A77EE677AC7ED5D7A97ED89
:1015C000637AD7ED5E7A27EE277AD7ED646AD7ED96
:1015D0005F7A66EEA77A77EE277AC7ED5C7AD7F85E
:1015E00088319B0007F108021268134497ED617A75
:1015F000D7ED5D7A77EE677AC3ED007A97ED607A82
:10160000D7ED5C7A77EE677A07F10C031A68D7F8A2
:10161000883103F602039B0013440433C3ED007AC0
:10162000D7F8D0319B0007F108021268134497EDF8
:10163000617AD7ED5D7A77EE277AC3ED007A97ED80
:10164000607AD7ED5C7A77EE277A07F10C031A6897
:10165000D7F8D03103F602039B0013440433C3EDE3
:10166000007AD7F8E0315B00D7F8D0211344C7F8EF
:10167000D03159E7D7F8D4310133C7F8D43118E75E
:10168000D7F8E0315B00C7F8E031E2E507F10C0381
:101690001B6803F50053023307F146020021118055
:1016A00007F146021146184600F00DFE0023A7F888
:1016B000CE314FF6FF73A7F8CC310023A7F8CA311B
:1016C00007F10C031B6803F5A7330C3300221A60E3
:1016D00007F10C030121186800F06CFDF0EE407A70
:1016E000B0EE670AFFF785FCF0EE407AFCEEE77A91
:1016F000C7ED017ABB889AB207F17803DB49184637
:1017000004F08EF907F1600307F17801D84A184612
:1017100000F0EFFD07F10C0340F23F11186800F0F4
:1017200049FDF0EE407AFCEEE77AC7ED017ABB881E
:101730009AB207F19003CD49184604F071F907F108
:10174000480307F1900207F16001184600F06FFDB1
:1017500007F12C0307F14801C64A184600F0C9FDFD
:1017600007F1480318460AF022FA07F190031846D9
:101770000AF01DFA07F1600318460AF018FA07F19B
:10178000780318460AF013FA07F12C0207F1A803B0
:10179000114618460AF00CFD07F1C0034FF6FF7220
:1017A0001A6007F1C40300221A6007F1A80207F1CA
:1017B000C403029307F1C0030193AF4B0093134698
:1017C000DF228221AD4802F073F907F1A803184621
:1017D0000AF0EDF90123A7F8C831B7F8C831B3F51D
:1017E000A07F00F3A9821F23A7F8C631B7F8C8313C
:1017F0009B0007F1080212681344D3ED007A02201F
:10180000B0EE670AFFF78CFC55EC104BB7F8C83107
:1018100007F10C02126803F602039B001344043321
:10182000D3ED007A0220B0EE670AFFF779FC53ECA3
:10183000102B20462946FEF743FD03460C4644EC98
:10184000173BB0EE470AF0EE670A1DF077FB54EC49
:10185000103B18462146FFF7DDF90346C7F86C3107
:10186000B7F9CC31032B71DCD7ED5B7A9FED847A2D
:10187000F4EEC77AF1EE10FA68DDB7F9CC31B3F1C6
:10188000FF3F06D0B7F8C821B7F9CA3101339A42F1
:1018900006DDB7F9CC319BB201339BB2A7F8CC314E
:1018A000B7F8C831A7F8CA31B7F9CC3107F10C0243
:1018B000126803F5274308335B0013445B88A7F8DD
:1018C000C63107F10C031B6803F500530233B7F967
:1018D000CC211146184600F032FD03461B88002B30
:1018E00011D007F10C031B6803F5A7330C331B68F9
:1018F00007EE903AB8EE677AD7ED5B7AB4EEE77A06
:10190000F1EE10FA01D5012300E00023002B20D0D6
:1019100007F10C031B6803F500530233B7F9CC2120
:101920001146184600F00BFD0246B7F8C831138087
:10193000D7ED5B7AFCEEE77A17EE902A07F10C03FD
:101940001B6803F5A7330C331A6002E00023A7F8E5
:10195000CA3197ED5B7ADFED4B6AC7EE267AB7EEB8
:10196000007A77EE677A9FED487A67EE877A07F11B
:10197000C803C3ED007A07F1CC03444A1A6007F1AB
:10198000CC0207F1C8031146184600F0E7FC0346F5
:10199000D3ED007AFCEEE77AC7ED017ABB88A7F8B1
:1019A0006A31B7F8C831013B394A82FB0312521140
:1019B000DB17D31A03F00103002B14BF012300230C
:1019C000DBB287F869310023C7F8C031D7F8C031DE
:1019D000D72B7ADCD7F8C0319BB21A469200134459
:1019E0001B0198B2B7F8C8315A1E294B83FB02136A
:1019F0005911D317C91A0B469B000B441B01D11A6E
:101A00008BB20344A7F86431B7F86A21D7F8C03124
:101A10009A4241DCB7F9CE319BB201339BB2A7F8B1
:101A2000CE31B7F9CE3142F21072934208DD194B34
:101A30001B889BB201339AB2164B1A8000249FE395
:101A400097F86911B7F8643107F10C0212684FF486
:101A5000874000FB01F10B4403F5005304335B00A6
:101A60001344B7F8C6219A8029E000BFFC6001202A
:101A70002C78020830780208480D0020400D002024
:101A800000504347000000490000574300005743FF
:101A900067666666300D002097F86911B7F8643103
:101AA00007F10C0212684FF4874000FB01F10B4470
:101AB00003F5005304335B00134400229A80D7F8E7
:101AC000C0310133C7F8C03180E7B7F8C821A64B51
:101AD000A3FB021399090B469B000B441B01D31A6D
:101AE0009BB2002B40F02281B7F8C831F02B40F3B5
:101AF000FE80002387F8BF3197F8BF31042B00F335
:101B0000F68007F10C031B6803F50053023397F8C6
:101B1000BF211146184600F012FC03461B88002B1B
:101B20000CBF01230023DBB2002B40F0DF8007F164
:101B30000C031B6803F50053023397F8BF211146CD
:101B4000184600F0FCFB03461B8807EE903AB8EEFF
:101B5000678A07F10C031B6803F500530233002169
:101B6000184600F0ECFB03461B8807EE903AF8EEAF
:101B7000E77A88EE277A17EE100AFEF7FFFC034695
:101B80000C4644EC103B1CF0ABFF54EC103B1846E9
:101B90002146FFF71FF80346A7F8663107F5807363
:101BA000B7F866217149184603F03AFF07F1E803D8
:101BB00007F580716E4A184600F09BFB07F10C0395
:101BC0001B6803F50053023397F8BF2111461846EE
:101BD00000F0B5FB03461A8807F10C03114618689C
:101BE00000F0E8FAF0EE407A07F58C73B0EE670A81
:101BF0005E49184603F0CAFE07F1D00307F58C7260
:101C000007F1E801184600F012FB07F1140307F191
:101C1000D001584A184600F06CFB07F1D003184673
:101C200009F0C5FF07F58C73184609F0C0FF07F1EE
:101C3000E803184609F0BBFF07F58073184609F062
:101C4000B6FF97F8BF3101339BB21A469200134496
:101C50009B009DB297F8693107F10C024FF40741E0
:101C600001FB03F303F580430833126813441C1D82
:101C700007F1140207F59873114618460AF098FA0E
:101C800097F8BF3107F10C02126803F527430833B8
:101C90005B0013445B88C7F848310023C7F84C3118
:101CA00007F5A673049307F5A4730393324B0293CD
:101CB00007F598730193009450232A4600212F487A
:101CC00001F050FF07F59873184609F070FF2C4B90
:101CD0005B682C4A136007F11403184609F067FF8C
:101CE00097F8BF31013387F8BF3105E700BFB7F878
:101CF000C831503B98B2B7F8C831013B9CB297F855
:101D0000693107F10C024FF4074101FB03F303F5BE
:101D1000804308331268134404330193D72300939C
:101D2000234600220146154801F0AAFCB7F8C83145
:101D30000133A7F8C83150E507F10C031B6803F520
:101D400000531B78002B1FD007F10C031B6803F511
:101D5000005302330021184600F0F1FA03461B88B5
:101D6000002B11DD012310E0CDCCCCCCFC60012098
:101D7000387802083C780208480D0020400D002009
:101D8000A06402400C0D00200023002B00F0E7812E
:101D900007F10C031B6803F50053023300211846BA
:101DA00000F0CDFA03461A8807F10C0311461868B3
:101DB00000F000FAF0EE407AAF4BC3ED007AAE4B84
:101DC000D3ED007AB2EE047AC7EE876AB0EE660A07
:101DD000FFF70FF9F0EE407AC7ED547AA74BC7F83A
:101DE000543107F5AA7207F5A8731146184600F09A
:101DF000CEFA0346D3ED007AFCEEE77AC7ED017A1E
:101E0000BB88A7F86231B7F8624107F10C031B6881
:101E100003F5005302330021184600F090FA034600
:101E20001B88E31A002BB8BF5B42012BCCBF0123F8
:101E30000023DBB2002B1CD0B7F86231904AD26A83
:101E400002FB03F407F10C031B6803F50053023394
:101E50000021184600F073FA03461B88B4FBF3F325
:101E60009AB207F10C031B6803F5A73310331A80ED
:101E700009E0834BDB6A9AB207F10C031B6803F598
:101E8000A73310331A8007F10C031B6803F50053C6
:101E900002330021184600F052FA03461B8803F172
:101EA0008043013B9B0007F10802126813441B6842
:101EB0001846FEF763FB03460C469FED6D1B44EC92
:101EC000103B1CF0C3FE55EC104B07F10C031B68D4
:101ED00003F5005302330021184600F030FA0346A0
:101EE0001B88013B07F10C02126803F602039B00FA
:101EF000134404331B681846FEF740FB02460B46AA
:101F00009FED5B1B43EC102B1CF0A0FE53EC102B41
:101F100020462946FEF7D4F903460C4644EC173B0D
:101F2000B0EE470AF0EE670A1DF008F854EC103BDB
:101F300018462146FEF726FE0346C7F85C3107F136
:101F40000C031B6803F5005302330021184600F010
:101F5000F6F903461B8801339B0007F1080212685B
:101F600013441B681846FEF709FB03460C469FED19
:101F7000401B44EC103B1CF069FE55EC104B07F184
:101F80000C031B6803F5005302330021184600F0D0
:101F9000D6F903461B88013307F10C02126803F6D9
:101FA00002039B00134404331B681846FEF7E6FA4D
:101FB00002460B469FED2E1B43EC102B1CF046FEF9
:101FC00053EC102B20462946FEF77AF903460C46BF
:101FD00044EC173BB0EE470AF0EE670A1CF0AEFF88
:101FE00054EC103B18462146FEF7CCFD0346C7F8DB
:101FF0005831D7F8583107EE903AB8EEE77AD7F86B
:102000005C3107EE903AF8EEE76A1B4BD3ED007AAD
:1020100037EEA76AB7F8623107EE903AF8EEE77A42
:1020200066EE277A76EEA77AB4EEE77AF1EE10FA4A
:10203000CCBF01230023DBB2002B25D0D7F85821D9
:10204000D7F85C31D31A1A460E4B1A6007F10C030D
:102050001B6803F5A73310331B88013B9AB207F1C5
:102060000C031B6803F5A73310331A8049E000BF47
:1020700000000000000000401C0D00200000404156
:1020800000040040180D0020D7F85C3107EE903AAC
:10209000B8EEE77AD7F8583107EE903AF8EEE76AEB
:1020A0003E4BD3ED007A37EEA76AB7F8623107EE00
:1020B000903AF8EEE77A66EE277A76EEA77AB4EEF3
:1020C000E77AF1EE10FACCBF01230023DBB2002B3C
:1020D00017D0D7F85C21D7F85831D31A1A46304BAD
:1020E0001A6007F10C031B6803F5A73310331B8834
:1020F00001339AB207F10C031B6803F5A7331033C1
:102100001A8007F10C031B6803F5A73310331B88F3
:10211000002B18DD07F10C031B6803F5A733103300
:102120001B881A4641F26F739A420CDC1D4BDA6A27
:1021300007F10C031B6803F5A73310331B889A4281
:1021400001D0012300E00023002B08D0154A07F13D
:102150000C031B6803F5A73310331B88D362124AA4
:10216000114B1B889BB223F001039BB213800F4BD2
:102170001B681A040C4B5B6A13440D4A136001245C
:1021800007F12C03184609F012FD012C00BF07F5DA
:10219000F477BD46BDEC028BB0BD00BF1C0D002026
:1021A000180D00200004004000080040100D002021
:1021B000140D002080B483B000AF78600B467B80A4
:1021C000134B1B6807EE903AB8EE677A7B8807EEF0
:1021D000903AF8EEE77A27EE277A0E4B1B8D9BB2EA
:1021E00001331A460B4BDB6A013303FB02F3DB02BC
:1021F00007EE903AF8EE677AC7EE276AF0EE667A55
:10220000B0EE670A0C37BD465DF8047B704700BF2F
:10221000100000200004004080B483B000AF78605C
:102220007B6818460C37BD465DF8047B704790B557
:1022300087B000AFF860B9607A60B86809F0E7FC71
:102240000446786809F0E3FC034623447B61B868E0
:1022500009F0E1FC02467B699A4208D2786809F0ED
:10226000DAFC02467B699A4201D3012300E0002395
:10227000FB74FB7C002B0AD0BA680021786809F057
:102280006BFE03461846FFF7C7FF034608E0796870
:10229000B86809F09DFE03461846FFF7BDFF0346E8
:1022A0001946F86809F069FCF8681C37BD4690BD0E
:1022B00080B483B000AF7860052318460C37BD4664
:1022C0005DF8047B704790B583B000AF78603960EB
:1022D000786800F075F804467868FFF7E9FF034670
:1022E0003A681946204600F077F800BF0C37BD4623
:1022F00090BD80B584B000AFF860B9607A6079684D
:10230000B86809F07FFE03461846FFF785FF0346CD
:102310001946F86809F031FCF8681037BD4680BDF1
:1023200080B483B000AF786039603B685B007A6846
:10233000134418460C37BD465DF8047B704780B5E2
:1023400082B000AF786039607B6839681846FFF763
:10235000E7FF034618460837BD4680BD80B483B00A
:1023600000AF786039603B6893ED007A7B68D3ED0D
:10237000007AB4EEE77AF1EE10FA01D53B6800E09E
:102380007B6818460C37BD465DF8047B704780B407
:1023900083B000AF786039607B6893ED007A3B686A
:1023A000D3ED007AB4EEE77AF1EE10FA01D53B688E
:1023B00000E07B6818460C37BD465DF8047B70472B
:1023C00080B582B000AF7860786800F024F80346EA
:1023D00018460837BD4680BD80B584B000AFF860B0
:1023E000B9607A60F86800F023F803467A68B96843
:1023F000184600F028F8034618461037BD4680BD41
:1024000080B483B000AF78607B6818460C37BD4657
:102410005DF8047B704780B582B000AF78607B6860
:102420001846FFF7EDFF034618460837BD4680BD46
:1024300080B483B000AF78607B6818460C37BD4627
:102440005DF8047B704780B487B000AFF860B96076
:102450007A607B681B887B82BB687B617B69002B11
:1024600009D0FB687A8A1A807B69013B7B61FB6833
:102470000233FB60F2E7FB6818461C37BD465DF887
:10248000047B704780B483B000AF0346FB710949F9
:1024900097F907305B0997F9072002F01F02012026
:1024A00000FA02F241F8232000BF0C37BD465DF868
:1024B000047B704700E100E080B483B000AF0346C6
:1024C0003960FB7197F90730002B0BDA0D49FB7966
:1024D00003F00F03043B3A68D2B21201D2B20B44AC
:1024E0001A7609E0084997F907303A68D2B2120122
:1024F000D2B20B4483F8002300BF0C37BD465DF811
:10250000047B704700ED00E000E100E080B400AF24
:102510005F4A5F4B1B6B43F0040313635C4A5C4BE5
:102520001B6B43F008031363594A594B1B6B43F071
:1025300020031363564A564B5B6C43F48013536479
:10254000544A544B1B6843F080631360514A514B0B
:102550009B6843F0806393604F4A4F4B1B6843F086
:10256000100313604C4A4C4B9B6843F0100393607C
:10257000484A484B1B6843F080731360454A454BFB
:10258000DB6843F08073D360444A444B1B6843F4D8
:1025900000431360414A414B9B6843F440439360BE
:1025A0003E4A3E4B1B6A43F0A04313623B4A3B4BFF
:1025B0001B6843F400331360384A384B9B6843F47C
:1025C00040339360354A354B5B6A43F005035362F1
:1025D000324A324B1B6843F4002313602F4A2F4BBF
:1025E0009B6843F4402393602C4A2C4B5B6A43F076
:1025F000500353622A4A2A4B1B889BB243F4007350
:102600009BB21380264A264B1B889BB243F48073EF
:102610009BB21380224A224B1B889BB243F00803D3
:102620009BB213801E4A1E4B1B889BB243F00403CF
:102630009BB213801A4A1A4B1B889BB243F040038B
:102640009BB21380124A124B1B6B43F4800313633B
:10265000144A144B1B6843F060631360114A114B1A
:102660001B6843F4005313600E4A0E4B1B6843F47F
:10267000006313600B4A0B4B1B6843F0400313606D
:10268000084B094A9A6000BFBD465DF8047B70475D
:1026900000380240000C02400008024000140240D2
:1026A00000500140A06402400C50014080B400AFD3
:1026B000784A784B1B6C43F0010313644FF080425F
:1026C0004FF080439B889BB243F040039BB29380C2
:1026D0004FF0804313221A854FF080433122DA6293
:1026E0004FF0804331225A634FF080424FF08043D5
:1026F0001B8C9BB243F001039BB213844FF08042CA
:102700004FF080431B8B9BB243F060039BB213835B
:102710004FF080424FF080431B889BB243F001038F
:102720009BB213805B4A5B4B1B6B43F0010313634B
:10273000584A584B1B6B43F004031363554A554BDF
:102740005B6C43F480735364534A534B1B6843F0F0
:10275000C0031360514A514B1B6843F4406313603C
:102760004F4A4F4B5B6843F4807353604C4B4FF4BC
:102770008012DA624A4A4A4B5B6B43F00D035363A3
:10278000474A474B5B6B43F0A0035363444A444BB7
:10279000DB6843F44063D360414A414B1B6943F417
:1027A000403313613E4A3E4B9B6843F48063936021
:1027B0003B4A3B4B9B6843F080539360384A384B0D
:1027C0009B6843F0C0639360354A354B9B6843F484
:1027D00080739360324A324B9B6843F4007393607A
:1027E0002C4A2C4B1B6B43F4800313632D4A2D4B57
:1027F0001B6823F0C00313602A4A2A4B1B6843F46A
:1028000000331360274A274B1B6843F400631360AF
:10281000244A244B1B6843F400531360214A214B84
:102820001B6823F4007313601E4A1E4B1B6843F49D
:10283000806313601B4A1B4B1B6843F48073136057
:10284000184A184B1B6823F0C0031360154A154B38
:102850005B6843F008035360124B134A9A60114BB4
:10286000124ADA600F4A0F4B1B6823F06063136053
:102870000C4A0C4B1B6843F001031360084A084BD9
:102880009B6843F00103936000BFBD465DF8047B85
:10289000704700BF003802400008024000000240BC
:1028A00000200140106402404C200140200D002017
:1028B00080B500AF164A164B1B6C43F0020313643D
:1028C000144B32221A85134B4FF49672DA62114A76
:1028D000104B9B899BB243F001039BB293811D2057
:1028E000FFF7D0FD00211D20FFF7E6FD094A094B47
:1028F0001B889BB243F001039BB21380054A054B32
:102900009B8A9BB243F001039BB2938200BF80BDC0
:10291000003802400004004080B500AF0E4A0E4B64
:102920001B6C43F0040313640C4B0A221A850B4BF7
:102930004FF6FF72DA62094A084B9B899BB243F05B
:1029400001039BB293811E20FFF79CFD00211E20F6
:10295000FFF7B2FD00BF80BD003802400008004014
:1029600080B500AF4B4A4B4B1B6B43F00103136325
:10297000484A484B1B6B43F010031363454A454BD1
:102980005B6C43F480435364434A434BDB6843F43A
:102990008043D360414A414BDB6843F48033D360CA
:1029A0003E4A3E4BDB6843F48023D3603B4A3B4BBB
:1029B000DB6843F48013D360384A384BDB6843F458
:1029C0008003D360364A364BDB68D360354A354BDB
:1029D000DB6843F08003D360324A324B1B6843F01C
:1029E000800313602E4A2E4B1B6943F004031361CE
:1029F0002C4A2C4BDB6843F48073D360294A294B63
:102A00001B6843F480731360254A254B1B6943F010
:102A100040031361234A234BDB6843F40073D36004
:102A2000204A204B1B6843F4007313601C4A1C4B64
:102A30001B6943F4806313611A4A1A4BDB6843F441
:102A40008063D360174A174B1B6843F4806313609D
:102A5000134A134B1B6943F480431361114A114B12
:102A6000DB6843F40063D3600E4A0E4B1B6843F4EB
:102A70000063136003211720FFF71EFD1720FFF7E7
:102A800001FD03212820FFF717FD2820FFF7FAFC9E
:102A900000BF80BD0038024000000240001002402C
:102AA00000380140003C014080B483B000AF786042
:102AB0007B6800221A707B68F0225A807B684FF492
:102AC000A0729A807B68083300221A605A609A606C
:102AD000DA607B6807221A727B680A225A727B6866
:102AE000254ADA607B68183300221A605A609A60BF
:102AF000DA607B680C221A767B680C225A767B6837
:102B00001E4ADA617B68283300221A605A609A6094
:102B1000DA607B680B2283F828207B68122283F816
:102B200029207B68164ADA627B68383300221A60F3
:102B30005A609A60DA607B68102283F838207B68DC
:102B40001A2283F839207B680E4ADA637B6803F126
:102B500048027B685A617B6803F1D4027B685A6241
:102B60007B6803F518727B685A637B6818460C37DC
:102B7000BD465DF8047B70473C790208A8800208D6
:102B8000A88902080497020880B5FCB000AF3B1D7D
:102B90001860E54AE44B5B8B9BB243F480539BB2D5
:102BA00053833B1D44F62061186800F0C9FBDE4AE0
:102BB000DD4B1B8B9BB243F480539BB213833B1DB5
:102BC00044F62061186800F0BBFB07F10B030122FB
:102BD0001A7007F10B023B1D1146186800F0C8FB84
:102BE0003B1D4CF25031186800F0AAFB07F11803A6
:102BF000CE4A92E8030083E8030007F12003184659
:102C000001F0C0F807F1200307F1180207F10C00EA
:102C100006CA01F0F8F807F10C023B1D11461868CE
:102C200000F040FB07F10C03184601F00DF907F125
:102C30002003184601F0B2F807F13003BC4A92E8CD
:102C4000030083E8030007F13803184601F09AF8FF
:102C500007F1380307F1300207F1240006CA01F03A
:102C6000D2F807F124023B1D1146186800F01AFB48
:102C700007F12403184601F0E7F807F13803184676
:102C800001F08CF807F14803AA4A92E8030083E8B0
:102C9000030007F15003184601F074F807F15003E0
:102CA00007F1480207F13C0006CA01F0ACF807F151
:102CB0003C023B1D1146186800F0F4FA07F13C0392
:102CC000184601F0C1F807F15003184601F066F804
:102CD00007F16003984A92E8030083E8030007F1D4
:102CE0006803184601F04EF807F1680307F1600227
:102CF00007F1540006CA01F086F807F154023B1DA3
:102D00001146186800F0CEFA07F15403184601F096
:102D10009BF807F16803184601F040F807F17803C3
:102D2000864A92E8030083E8030007F1800318460F
:102D300001F028F807F1800307F1780207F16C0031
:102D400006CA01F060F807F16C023B1D11461868D5
:102D500000F0A8FA07F16C03184601F075F807F1C6
:102D60008003184601F01AF807F19003744A92E8BC
:102D7000030083E8030007F19803184601F002F806
:102D800007F1980307F1900207F1840006CA01F0E9
:102D90003AF807F184023B1D1146186800F082FAE8
:102DA00007F18403184601F04FF807F1980318461D
:102DB00000F0F4FF07F1A803624A92E8030083E8F9
:102DC000030007F1B003184600F0DCFF07F1B00381
:102DD00007F1A80207F19C0006CA01F014F807F1F8
:102DE0009C023B1D1146186800F05CFA07F19C0339
:102DF000184601F029F807F1B003184600F0CEFF9D
:102E000007F1C003504A92E8030083E8030007F18A
:102E1000C803184600F0B6FF07F1C80307F1C00267
:102E200007F1B40006CA00F0EEFF07F1B4023B1D43
:102E30001146186800F036FA07F1B403184601F09D
:102E400003F807F1C803184600F0A8FF07F1D803FC
:102E50003E4A92E8030083E8030007F1E0031846C6
:102E600000F090FF07F1E00307F1D80207F1CC0072
:102E700006CA00F0C8FF07F1CC023B1D11461868D6
:102E800000F010FA07F1CC03184600F0DDFF07F15F
:102E9000E003184600F082FF07F1F0032C4A92E8A5
:102EA000030083E8030007F1F803184600F06AFF07
:102EB00007F1F80307F1F00207F1E40006CA00F099
:102EC000A2FF07F1E4023B1D1146186800F0EAF981
:102ED00007F1E403184600F0B7FF07F1F8031846BE
:102EE00000F05CFF1B4A07F5847392E8030083E857
:102EF000030007F58873184600F044FF07F5887350
:102F000007F1FC0007F5847206CA00F07CFF07F1A8
:102F1000FC023B1D1146186800F0C4F907F1FC03E0
:102F2000184600F091FF17E0000C024040780208BC
:102F30004878020850780208587802086078020839
:102F400068780208707802087878020880780208A9
:102F5000887802089078020807F58873184600F010
:102F60001DFFC64A07F5907392E8030083E803004B
:102F700007F59473184600F005FF07F5947307F5FD
:102F80008A7007F5907206CA00F03DFF07F58A7255
:102F90003B1D1146186800F085F907F58A7318463D
:102FA00000F052FF07F59473184600F0F7FEB44A9C
:102FB00007F59C7392E8030083E8030007F5A0730C
:102FC000184600F0DFFE07F5A07307F5967007F5C9
:102FD0009C7206CA00F017FF07F596723B1D11465A
:102FE000186800F05FF907F59673184600F02CFF9B
:102FF00007F5A073184600F0D1FEA24A07F5A873A2
:1030000092E8030083E8030007F5AC73184600F06C
:10301000B9FE07F5AC7307F5A27007F5A87206CAEA
:1030200000F0F1FE07F5A2723B1D1146186800F092
:1030300039F907F5A273184600F006FF07F5AC73DF
:10304000184600F0ABFE904A07F5B47392E803000F
:1030500083E8030007F5B873184600F093FE07F500
:10306000B87307F5AE7007F5B47206CA00F0CBFE70
:1030700007F5AE723B1D1146186800F013F907F50D
:10308000AE73184600F0E0FE07F5B873184600F07E
:1030900085FE7E4A07F5C07392E8030083E80300CB
:1030A00007F5C473184600F06DFE07F5C47307F505
:1030B000BA7007F5C07206CA00F0A5FE07F5BA722D
:1030C0003B1D1146186800F0EDF807F5BA73184675
:1030D00000F0BAFE07F5C473184600F05FFE6C4AB4
:1030E00007F5CC7392E8030083E8030007F5D0737B
:1030F000184600F047FE07F5D07307F5C67007F5D0
:10310000CC7206CA00F07FFE07F5C6723B1D114661
:10311000186800F0C7F807F5C673184600F094FE6B
:1031200007F5D073184600F039FE5A4A07F5D873F0
:1031300092E8030083E8030007F5DC73184600F00B
:1031400021FE07F5DC7307F5D27007F5D87206CAC1
:1031500000F059FE07F5D2723B1D1146186800F0C9
:10316000A1F807F5D273184600F06EFE07F5DC7380
:10317000184600F013FE484A07F5E47392E803008E
:1031800083E8030007F5E873184600F0FBFD07F538
:10319000E87307F5DE7007F5E47206CA00F033FE47
:1031A00007F5DE723B1D1146186800F07BF807F545
:1031B000DE73184600F048FE07F5E873184600F085
:1031C000EDFD364A07F5F07392E8030083E803004B
:1031D00007F5F473184600F0D5FD07F5F47307F50D
:1031E000EA7007F5F07206CA00F00DFE07F5EA7204
:1031F0003B1D1146186800F055F807F5EA731846AC
:1032000000F022FE07F5F473184600F0C7FD112305
:1032100087F8EB3107F2EB123B1D1146186800F0FE
:10322000A7F83B1D1E49186800F08AF8292387F883
:10323000EC3107F5F6723B1D1146186800F098F85E
:103240002C2387F8ED3107F2ED123B1D114618686B
:1032500000F08EF83B1D0321186800F02BF90023C5
:10326000A7F8EE3107F5F7723B1D1146186800F01C
:1032700079F900BF07F5F877BD4680BD9878020858
:10328000A0780208A8780208B0780208B878020886
:10329000C0780208C8780208D0780208D8780208F6
:1032A00040420F0090B585B000AF78603960214B87
:1032B0005B68002B06D1204B1B899BB203F00203F5
:1032C000002B01D1012300E00023002B00D0EEE70A
:1032D0000021386800F0D3FD03461946786800F0F5
:1032E00047F8164A154B1B8B9BB243F400539BB215
:1032F00013830123FB73FC7B386800F0CFFD03468A
:103300009C4234BF01230023DBB2002B0ED0FB7B99
:103310001946386800F0B3FD03461B7819467868F3
:1033200000F0A0FCFB7B0133FB73E4E700BF143724
:10333000BD4690BDA064024000500140000C024018
:1033400080B483B000AF786039603B68002B14BF55
:1033500001230023DBB2002B03D03B68013B3B6021
:10336000F3E700BF0C37BD465DF8047B70470000F3
:1033700080B582B000AF78603960114B5B68002B7C
:1033800006D1104B1B899BB203F00203002B01D125
:10339000012300E00023002B00D0EEE70A4A0A4B8D
:1033A0005B8B9BB243F400539BB253833B681B7807
:1033B0001946786800F056FC00BF0837BD4680BD4E
:1033C000A064024000500140000C024080B582B071
:1033D00000AF78603960094A084B1B8B9BB243F4FD
:1033E00000539BB213833B681B781946786800F042
:1033F00039FC00BF0837BD4680BD00BF000C02404D
:1034000080B582B000AF786039600D4A0C4B1B8BE1
:103410009BB243F400539BB213833B681B881B127F
:10342000DBB21946786800F01DFC3B681B88DBB2F4
:103430001946786800F016FC00BF0837BD4680BD0D
:10344000000C024080B586B000AFF8600846114617
:103450001A4603467B810B463B811346FB802A2399
:10346000BB7507F116031946F868FFF781FF07F1EE
:103470000A031946F868FFF7C3FFBB1D1946F86831
:10348000FFF7BEFF2B23FB7507F117031946F868FA
:10349000FFF76EFF07F108031946F868FFF7B0FF62
:1034A00007F12001F868FFF7ABFF00BF1837BD46F2
:1034B00080BD000080B584B000AF78600B46FB7023
:1034C0003623FB7207F10B0319467868FFF750FFAC
:1034D000FB78032B2AD801A252F823F0ED34000820
:1034E000FD3400080D3500081D35000858233B73D6
:1034F00007F10C0319467868FFF768FF88237B7390
:1035000007F10D0319467868FFF760FF2823BB73A6
:1035100007F10E0319467868FFF758FFE823FB739D
:1035200007F10F0319467868FFF750FF7B68FA78B8
:103530001A70FB78002B02D0FB78012B07D17B6837
:10354000F0225A807B684FF4A0729A8006E07B6874
:103550004FF4A0725A807B68F0229A8000BF103727
:10356000BD4680BD80B584B002AF786039607B68AD
:103570005B88013B99B27B689B88013B9BB23A68B0
:10358000019200930B4600220021786800F004F8B5
:1035900000BF0837BD4680BD80B58AB002AFF86075
:1035A000084611461A4603467B810B463B8113466B
:1035B000FB80FA887B89D31A0133398D3A898A1ABC
:1035C000013202FB03F3FB61F8883A8979893B8D6C
:1035D00000930346F868FFF735FF2C23BB7507F10E
:1035E00016031946F868FFF7C3FE224A214B1B8BCE
:1035F0009BB243F400539BB213830123FB7507F185
:1036000017031946F86800F0FBFAFB694FF6FF72E2
:10361000934228BF13469BB23B8307F118031A4617
:10362000F96AF86800F066FBFB69B3F5803F1CD3CC
:10363000114B5B68002B06D1104B1B899BB203F02A
:103640000203002B01D1012300E00023002B00D056
:10365000EEE7FB699BB201339BB27B8307F11A0350
:103660001A46F96AF86800F045FB00BF2037BD46EE
:1036700080BD00BF000C0240A06402400050014029
:1036800080B588B002AFF860084611461A46034676
:103690007B810B463B811346FB80FA887B89D31ADA
:1036A0000133398C3A898A1A013202FB03F37B61B8
:1036B000F8883A8979893B8C00930346F868FFF7CC
:1036C000C1FE2C23BB7407F112031946F868FFF7FB
:1036D0004FFE194A184B1B8B9BB243F400539BB20D
:1036E00013830123FB7407F113031946F86800F0F4
:1036F00087FA124B4FF47412DA60114A104B1B68B0
:1037000043F4806313600E4A7B6953600C4A7B6A02
:10371000D3600B4A0A4B1B6843F001031360094A4C
:10372000084B9B889BB243F002039BB2938000BF7F
:103730001837BD4680BD00BF000C02400064024047
:10374000A06402400050014080B588B002AFF8602C
:103750007B600B467B8113463B8178893A89798966
:103760003B8900930346F868FFF76CFE2C23FB753A
:1037700007F117031946F868FFF7FAFD7968F8684A
:10378000FFF73EFE00BF1837BD4680BD80B58AB04A
:1037900002AFF860084611461A4603467B810B4685
:1037A0003B811346FB807B89FA685288934203DB96
:1037B000FB685B88013B7B81FB88FA6852889342F7
:1037C00003DBFB685B88013BFB803B89FA689288DE
:1037D000934203DBFB689B88013B3B813B8DFA688E
:1037E0009288934203DBFB689B88013B3B857A8987
:1037F000FB889A4205DD7B89BB83FB887B81BB8B81
:10380000FB803A893B8D9A4205DD3B89BB833B8D2A
:103810003B81BB8B3B85FA887B89D31A9BB27B8328
:103820003A8D3B89D31A9BB23B83B7F91A30002BF0
:1038300003D0B7F91830002B10D1FB6A1B689BB27C
:10384000BB82F8883A89798907F1140301933B8D8B
:1038500000930346F868FFF79FFE46E0B7F91A2089
:10386000B7F918309A4206DDB7F91A30DA0F134467
:103870005B101BB206E0B7F918305B42DA0F134455
:103880005B101BB2FB83FB6A1B689BB2FB8207F1D8
:1038900016033A897989F868FFF756FF7A89FB8819
:1038A0009A4203D13A893B8D9A421DD0B7F91E2026
:1038B000B7F91A305B429A4207DDFA8B3B8BD31A79
:1038C0009BB2FB837B8901337B81B7F91E20B7F95B
:1038D00018309A42D7DAFA8B7B8B13449BB2FB8366
:1038E0003B8901333B81CEE700BF2037BD4680BD19
:1038F00090B589B002AFF860084611461A460346F3
:103900007B810B463B811346FB717B89BA6A127837
:103910001344FA685288934207DDBB6A5B789AB217
:103920003B8913443B8100237B8100237B8200235E
:10393000BB82BB8ABA6A527893423ADABB6A5A6847
:10394000FB79203BB96A497801FB03F1BB8A0B4440
:103950005B0013441B883B820023FB82FB8ABA6A0C
:103960001278934221DA3A8AFB8A02FA03F303F4CB
:103970000043002B09D0BB6ADA687B8A5B001344E2
:10398000FA6A126892B21A8008E0BB6ADA687B8A27
:103990005B0013443A6B126892B21A807B8A01333F
:1039A0007B82FB8A0133FB82D8E7BB8A0133BB826F
:1039B000BFE7BB6A1B789AB27B8913449BB2013B79
:1039C0009CB2BB6A5B789AB23B8913449BB2013BC1
:1039D0009BB2BA6AD26838897989019200932346EA
:1039E0000246F868FFF74CFE00BF1C37BD4690BD8D
:1039F00080B487B000AFF860084611461A46034607
:103A00007B810B463B811346FB800023BB82BB8A34
:103A1000BA6A5278934244DA3A89BB8A13449BB219
:103A2000FA8812FB03F39AB27B8913447B82BB6A48
:103A30005A6897F82430203BB96A497801FB03F1B2
:103A4000BB8A0B445B0013441B883B820023FB8230
:103A5000FB8ABA6A127893421FDA3A8AFB8A02FA20
:103A600003F303F40043002B08D07B8A5B003A6A1F
:103A70001344FA6A126892B21A8007E07B8A5B00EC
:103A80003A6A13443A6B126892B21A807B8A013305
:103A90007B82FB8A0133FB82DAE7BB8A0133BB827C
:103AA000B5E700BF1C37BD465DF8047B70470000DA
:103AB00080B58CB004AFF8607B600B467B81134609
:103AC0003B817B68FB61F86908F09CF803467B61E9
:103AD000F86908F099F803463B6107F1100207F115
:103AE00014031146184600F0E9F90346002B30D0C4
:103AF00007F11403184600F009FAB861174B5B6828
:103B0000002B06D1164B1B899BB203F00203002B3E
:103B100001D1012300E00023002B00D0EEE7BB69B8
:103B200018783A8979893B6B0293FB6A0193BB6AE7
:103B300000930346F868FFF7DBFEBB6A1B789AB276
:103B40007B8913447B8107F11403184600F0CEF9FA
:103B5000C3E700BF2037BD4680BD00BFA064024060
:103B60000050014090B58FB006AFF860084611468E
:103B70001A4603467B810B463B811346FB807B6BD9
:103B8000FB61F86908F03EF803467B61F86908F0CC
:103B90003BF803463B6107F1100207F1140311469D
:103BA000184600F08BF90346002B24D007F11403CC
:103BB000184600F0ABF9B861BB691B78FC883889FE
:103BC00079893A6C0492FA6B0392BA6B0292019370
:103BD0003B6B009323460246F868FFF709FFBB6B77
:103BE0001B789AB27B8913447B8107F11403184632
:103BF00000F07CF9CFE700BF2437BD4690BD000040
:103C000080B483B000AF78603960154A144B1B88CC
:103C10009BB223F040039BB213803B681B78012BBF
:103C200008D10F4A0E4B1B889BB243F400639BB232
:103C3000138007E00A4A0A4B1B889BB223F40063F7
:103C40009BB21380064A064B1B889BB243F040038D
:103C50009BB2138000BF0C37BD465DF8047B7047F4
:103C60000050014080B584B000AF78600B46FB7017
:103C70001E4B5B68002B06D11D4B1B899BB203F0CA
:103C80000203002B01D1012300E00023002B00D010
:103C9000EEE7174B1B889BB203F40063002B14BFA5
:103CA00001230023DBB2002B07D00023FB7307F1B5
:103CB0000F0319467868FFF7A3FF0D4BFA7892B20D
:103CC0009A810A4B5B68002B06D1094B1B899BB27A
:103CD00003F00203002B01D1012300E00023002B9D
:103CE00000D0EEE700BF1037BD4680BDA0640240A3
:103CF0000050014080B485B000AFF860B9607A60D0
:103D00001D4B5B68002B06D11C4B1B899BB203F03B
:103D10000203002B01D1012300E00023002B00D07F
:103D2000EEE7BB681A88FB68DA80154B4FF4741213
:103D3000DA60114A104B1B6823F4806313600E4A4B
:103D40007B681B8853600C4AFB680633D3600A4AC1
:103D5000094B1B6843F001031360084A074B9B881B
:103D60009BB243F002039BB2938000BF1437BD4661
:103D70005DF8047B704700BFA06402400050014022
:103D80000064024080B582B000AF7860786800F0CF
:103D9000C9F87B6818460837BD4680BD80B582B03B
:103DA00000AF7860786800F0C8F87B68184608377C
:103DB000BD4680BD80B483B000AF78607B681B686F
:103DC00018460C37BD465DF8047B704780B483B05D
:103DD00000AF78607B685B6818460C37BD465DF8BD
:103DE000047B704790B583B000AF78607868FFF7C8
:103DF000E1FF04467868FFF7E9FF034623441846CD
:103E00000C37BD4690BDB0B586B000AFF860381D28
:103E100080E806003B60FB683968184600F0A4F8AB
:103E20003B1D1846FFF7C6FF04463B1D1846FFF72B
:103E3000D9FF02462B462146F86800F0BDF8FB6822
:103E400018461837BD46B0BDB0B582B000AF786037
:103E50007B681C687B685D687B68184600F0DAF850
:103E600003461A462946204600F0DFF87B681846CC
:103E700000F089F87B6818460837BD46B0BD80B4AD
:103E800083B000AF786039607B681A683B68134480
:103E900018460C37BD465DF8047B704780B483B08C
:103EA00000AF78607B685B681A467B681B68D31A32
:103EB00018460C37BD465DF8047B704790B583B05B
:103EC00000AF78603960786800F0BDF803461C6880
:103ED000386800F0B8F803461B689C4214BF012301
:103EE0000023DBB218460C37BD4690BD80B483B0CA
:103EF00000AF78607B681B685A1C7B681A607B681F
:103F000018460C37BD465DF8047B704780B483B01B
:103F100000AF78607B681B6818460C37BD465DF8BB
:103F2000047B704780B483B000AF78607B6818462C
:103F30000C37BD465DF8047B704780B483B000AF9A
:103F400078607B6818460C37BD465DF8047B704787
:103F500080B582B000AF78607868FFF71FFF7B689C
:103F600018460837BD4680BD80B582B000AF786086
:103F700039607B683968184600F070F87B6818462D
:103F80000837BD4680BD80B582B000AF78607B68E1
:103F900019687B689B681A467B681B68D31A1A46A7
:103FA000786800F072F87B681846FFF7D1FF7B68ED
:103FB00018460837BD4680BD90B587B000AFF860A1
:103FC000B9607A603B707968B86800F071F80346B0
:103FD0007B61FB687969184600F07EF80246FB6851
:103FE0001A60FB681A687B691A44FB689A60FB6870
:103FF0001C68FB68184600F00DF8034622467968F5
:10400000B86800F07DF80246FB685A6000BF1C37B4
:10401000BD4690BD80B483B000AF78607B68184621
:104020000C37BD465DF8047B704780B584B000AFA7
:10403000F860B9607A60B968F86800F072F800BF9B
:104040001037BD4680BD80B483B000AF78607B6818
:1040500018460C37BD465DF8047B704780B582B0CA
:1040600000AF786039603968786800F067F87B687D
:1040700000221A607B6800225A607B6800229A60E6
:104080007B6818460837BD4680BD80B584B000AF58
:10409000F860B9607A60BB68002B05D0FB687A686D
:1040A000B968184600F058F800BF1037BD4680BD0B
:1040B000B0B584B000AF786039607C683B1D1846AD
:1040C00000F059F82A463968204600F05EF80346A9
:1040D00018461037BD46B0BD80B582B000AF7860DD
:1040E00039603B68002B06D07B683968184600F0C1
:1040F0005BF8034600E0002318460837BD4680BD44
:1041000080B584B000AFF860B9607A603B607A68CF
:10411000B968F86800F057F8034618461037BD46EE
:1041200080BD80B582B000AF78603960396878684A
:1041300000F05BF800BF0837BD4680BD80B582B097
:1041400000AF786039603968786800F059F87B68AA
:1041500018460837BD4680BD80B584B000AFF86012
:10416000B9607A607A68B968F86800F055F800BFFD
:104170001037BD4680BD80B483B000AF786018466C
:104180000C37BD465DF8047B704780B485B000AF46
:10419000F860B9603A71BA68FB68D31A18461437E8
:1041A000BD465DF8047B704780B582B000AF786093
:1041B000396000223968786800F03BF803461846F9
:1041C0000837BD4680BD80B586B000AFF860B960E5
:1041D0007A600123FB757A68B968F86800F045F8E1
:1041E000034618461837BD4680BD80B483B000AF83
:1041F0007860396000BF0C37BD465DF8047B7047BE
:1042000080B483B000AF786039607B6818460C37A3
:10421000BD465DF8047B704780B584B000AFF860A0
:10422000B9607A60B86801F04DFD00BF1037BD4637
:1042300080BD80B584B000AFF860B9607A60F8687E
:1042400000F023F80246BB689A4234BF01230023E2
:10425000DBB2002B01D00EF0F4FFB86801F034FDA2
:10426000034618461037BD4680BD80B584B000AF08
:10427000F860B9607A607A68B968F86800F011F897
:10428000034618461037BD4680BD80B483B000AFEA
:1042900078604FF0FF3318460C37BD465DF8047B5D
:1042A000704790B585B000AFF860B9607A60F86883
:1042B00000F00FF80446B86800F00BF803467A687F
:1042C0001946204600F010F8034618461437BD463C
:1042D00090BD80B483B000AF78607B6818460C371F
:1042E000BD465DF8047B7047B0B584B000AFF860A0
:1042F000B9607A60F86800F013F80446B86800F016
:104300000FF80546786800F016F803461A46294665
:10431000204600F01BF8034618461037BD46B0BDD6
:1043200080B483B000AF78607B6818460C37BD4618
:104330005DF8047B704780B483B000AF78607B6821
:1043400018460C37BD465DF8047B704780B586B0D3
:1043500000AFF860B9607A600123FB757A68B968CC
:10436000F86800F005F8034618461837BD4680BDCA
:1043700080B586B000AFF860B9607A60BA68FB6853
:10438000D31A7B617B69002B05D07B691A46F968DB
:1043900078681CF035FE7B697A6813441846183734
:1043A000BD4680BD90B400AF944A944B1B8A9BB22B
:1043B00023F001039BB21382914B1B78DBB2002BDD
:1043C00052D0904B1B889BB2B3F5806F06D18E4BB9
:1043D0001B78DBB2002B01D0012300E00023002B6F
:1043E00009D08A4B1B78DBB21A46894B01219954BC
:1043F000854B00221A70844B1B78DBB2002B00F037
:10440000AE81824B1B78DBB218467E4B1B889BB279
:104410001946804B1B889BB21A467E4B9B889BB2E9
:1044200013447C4A128992B213447A4A928992B216
:10443000134407EE903AB8EEE77AF1EE006AC7EE61
:10444000267A9FED757A77EE677A744A83020B4479
:104450009B001344C3ED007A6A4B1B889BB2013367
:104460009AB2684B1A807AE16A4B1B889AB2694B00
:104470009B889BB213449AB2664B1B899BB2134430
:104480009AB2644B9B899BB213449AB2644B1A80D4
:10449000604B5B889AB25F4BDB889BB213449AB245
:1044A0005C4B5B899BB213449AB25A4BDB899BB23B
:1044B00013449AB25B4B1A80534B1B78DBB283F0E8
:1044C0000103DBB2002B2ED0574B1B78DBB283F0FD
:1044D0000103DBB2002B07D14C4B1B78DAB2534BF4
:1044E0001B78DBB29A421ED0514B1B78DBB2002BFB
:1044F00017D1504B1B889BB21A464F4B1B889A42D0
:1045000011DD4E4B1B889BB21A464B4B5B889A427F
:1045100009DA434B1B889BB21A46474B5B889A4289
:1045200001DB012300E00023002B54D0364B012295
:104530001A703F4B1B78DBB2002B14D0314B00229A
:104540001A80324B1B78DBB21A463D4B002123F810
:1045500012102E4B1B78DBB21A463A4B4FF6FF7106
:1045600023F8121037E0294B1B78DBB21946254B94
:104570001B889AB2304B1B88D31A9BB21AB2304BAD
:1045800023F81120214B1B78DBB21A462C4B33F851
:1045900012301BB29BB2DB0BDBB2002B10D01B4BDB
:1045A0001B78DBB21A461946254B33F811301BB283
:1045B0009BB203F5A0739BB219B2214B23F81210E2
:1045C000124B1B78DBB21A461B4B1B88013B99B27E
:1045D0001C4B23F812100C4B1B78DBB2002B33D092
:1045E0000A4B1B78DBB21A46164B33F812309BB2DB
:1045F00040F23F12934227D1012326E000040040FD
:10460000060D0020EA0C0020F00C0020F40C002025
:10461000FC0C0020200D002000E0FF44E0120020F0
:10462000E40C0020E80C0020F10C0020F50C002028
:10463000050D0020EE0C00200C000020E60C0020F0
:10464000F80C0020000D00200023002B10D0464B5A
:104650001B78DBB2012B14BF01230023DBB21A4607
:10466000414B1A70414B00221A80414B00221A70B4
:104670003F4B1B78DBB2002B0FD13E4B1B78DBB2DC
:1046800083F00103DBB2002B07D1374B1B78DAB282
:10469000394B1B78DBB29A4201D0012300E00023A2
:1046A000002B5CD0304B1B78DBB21946334B1B8898
:1046B0009BB21C46324B1B8898B2324A0B469B0079
:1046C0000B449B012344014622F81310264B1B7810
:1046D000DBB21946294B1B889BB21C462A4B1B8810
:1046E00098B22A4A0B469B000B449B012344014687
:1046F00022F81310224B1B889AB2254B1A801F4BAD
:104700001B889BB240F23F1293420CBF012300234F
:10471000DBB2002B03D0194B00221A8006E0174BA6
:104720001B889BB201339AB2144B1A80104B1B7832
:10473000DBB2002B0CD00C4B1B78DBB2154A32F8E5
:10474000132092B2013291B2124A22F8131006E0FD
:10475000064B1B889BB201339AB2044B1A8000BFF0
:10476000BD4690BC704700BFF40C0020EE0C00204A
:10477000F00C0020F10C0020F50C0020EA0C0020C9
:10478000E40C0020E0020020E80C0020E0070020FC
:10479000E60C0020000D002080B400AF254B1B6903
:1047A00003F08003002B0CBF01230023DBB2002B9E
:1047B00002D0214B01221A70204B1B785BB2002BD8
:1047C0000DD11F4B1B6903F48073002B07D11C4BC9
:1047D0001B6903F40073002B01D0012300E00023C8
:1047E000002B02D0154B01221A70144B1B785BB2C0
:1047F000002B0DD1124B1B6903F40073002B07D162
:104800000F4B1B6903F48073002B01D0012300E0E0
:104810000023002B02D0094BFF221A70094A094BD2
:104820005B6943F46073536100BFBD465DF8047B70
:10483000704700BF00000240040D0020080D00205A
:1048400000100240003C014080B400AF1E4B1B78BA
:104850005BB2002B0DD11D4B1B6903F48063002B51
:1048600007D11A4B1B6903F40063002B01D001230D
:1048700000E00023002B02D0134B01221A70124BD0
:104880001B785BB2002B0DD1104B1B6903F4006346
:10489000002B07D10D4B1B6903F48063002B01D063
:1048A000012300E00023002B02D0074BFF221A70E7
:1048B000074A074B5B6943F44063536100BFBD4641
:1048C0005DF8047B704700BF070D00200010024018
:1048D000003C014080B400AF084A084B1B8A9BB2E1
:1048E00023F001039BB21382054B1B680133044A7A
:1048F000136000BFBD465DF8047B704700080040B0
:10490000100D002080B582B000AF174A164B1B88EF
:104910009BB223F001039BB213800023FB80BB1DDD
:1049200019461248FEF71EFE114800F0BDFE114B5D
:1049300000221A70104B00221A70104B00221A80AD
:1049400000210F4B0A461A800E4B0A461A80064A6F
:10495000054B1B889BB243F001039BB2138000BF41
:104960000837BD4680BD00BF00040040400D002058
:10497000FC600120F10C0020F00C0020E60C00206F
:10498000EA0C0020EE0C002080B588B000AFF86083
:10499000B960FB681B889BB207EE903AB8EEE77AE5
:1049A000264BD3ED007A27EE277A254B1B881BB2C6
:1049B00007EE903AF8EEE77A37EE277ADFED216AD4
:1049C000C7EE267AB6EE007A37EEC77A1E4B1B7812
:1049D0005BB207EE903AF8EEE76AB2EE006AC6EE16
:1049E000267A67EE277AB6EE007A77EE877A9FED21
:1049F000177A67EE877AC7ED057A154BBB6107F129
:104A0000180207F1140311461846FDF7A7FC0246E9
:104A10004FF07E53FB6107F11C0319461046FDF76A
:104A2000B6FC0346D3ED007AFCEEE77AC7ED017AD7
:104A3000BB889BB218462037BD4680BD04000020CD
:104A400000000020000080460800002000005743BE
:104A50000000564390B5CDB004AF00F0E9FC00F083
:104A60001DFDFDF759FFFDF751FDFDF71FFEFDF799
:104A700077FF9848FEF788F8FDF71AFF07F11C0347
:104A8000184601F03BF907F11C023B1D92491846FC
:104A900007F0C0FB07F120034FF6FF721A600023F6
:104AA0007B623A1D07F12403029307F1200301936F
:104AB0008A4B009313460A220A218648FEF7F8FF24
:104AC0003B1D184607F073F807F11C03184601F068
:104AD00016F907F14003184601F010F907F14002FA
:104AE00007F128037C49184607F094FB4FF6FF7343
:104AF0007B640023BB6407F1280207F1480302939B
:104B000007F144030193764B009313460A22642174
:104B10007048FEF7CDFF07F12803184607F047F865
:104B200007F14003184601F0EAF86E4800F0BCFDBA
:104B300000216D48FDF703FC03461A886B4B1A8071
:104B4000684800F099FF6A4B1B78DBB2002B51D00C
:104B5000684B1B78DBB283F00103DBB2002B11D072
:104B6000654B1B78DBB283F00103DBB2002B07D16E
:104B7000614B5B78DBB283F00103DBB2002B01D029
:104B8000012300E00023002B10D05A4B01221A70A1
:104B90005A4B00221A80584B1B78DBB2002B01D0F5
:104BA000012200E00022564B1A70C1E7524B1B78DD
:104BB000DBB2002B03D0534B00221A7008E04E4B9F
:104BC0005B78DBB2002B00F066834E4B01221A703B
:104BD0004C4B1B78DBB21B034B4A134419464A4823
:104BE000FCF7C2FA474B1B78DBB21A46424B002156
:104BF00099549DE7454B1B78DBB283F00103DBB290
:104C0000002B06D03B4B1B78DBB2002B01D00123DD
:104C100000E00023002B0AD0394B1B78DAB2394B65
:104C20001A703A4B01221A70394B00221A80374B06
:104C30001B78DBB2002B17D0324B1B78DAB2304B2B
:104C40001B78DBB29A420DD12D4B1B78DBB21A4692
:104C5000304B33F812309BB21A462D4B1B889BB257
:104C60009A4201DB012300E00023002B3FF460AFF8
:104C7000294A294B9B8A9BB243F001039BB2938242
:104C8000254A254B1B889BB243F001039BB213803E
:104C9000224B00221A601E4B1B889BB21A2BD4BFDA
:104CA00001230023DBB2002B3AD0194B1B8899B2A9
:104CB000174B1B889AB20023A7F84C3007F14C031E
:104CC0000193CD23009313460B220248FEF764FCA8
:104CD00039E000BF400D0020E0780208580D0020A8
:104CE000480D0020FC600120E2320020FE6001201F
:104CF000060D0020F00C0020FC0C0020EA0C002027
:104D0000F40C0020F50C0020E0120020F10C002033
:104D1000EC0C0020000D002000080040100D0020C9
:104D2000A84B1B8899B2A74B1B889AB20023A7F8FF
:104D30004E3007F14E030193D72300931346002210
:104D4000A148FEF729FCA14B1B78DBB21A46A04B09
:104D500033F812301BB21A469A4B1B889BB21A4486
:104D60009C4B83FB0213D911D317C91A0B469B0026
:104D70000B449B01D11A0B46A7F81A31934B1B78B1
:104D8000DBB21946B7F81A210B469B000B449B0176
:104D900013445B00904A1A44904B1B78DBB29BB2E1
:104DA000A7F8503007F1500319461046FFF7ECFD05
:104DB0000346A7F81831854B1B78DBB21946B7F8C4
:104DC0001A210B469B000B449B0113445B00844A51
:104DD0001A44844B1B78DBB29BB2A7F8523007F120
:104DE000520319461046FFF7CFFD0346A7F81631C8
:104DF000744B1B889BB2002B0CBF01230023DBB23A
:104E0000002B0DD0784AB7F818311380774AB7F8DD
:104E100016311380764B00221A70764B00221A80CE
:104E2000734B1B7883F00103DBB2002B13D0674B6D
:104E30001B78DBB21846B7F81A21674903469B0076
:104E400003449B01134431F813309BB2B3F5005F68
:104E500001DA012300E00023002B02D0644B012281
:104E60001A70634B1B78002B13D0584B1B78DBB2A6
:104E70001846B7F81A21584903469B0003449B0182
:104E8000134431F813309BB2B3F5005F01DB01230B
:104E900000E00023002B43D0564B1B88002B37DD4E
:104EA000484B1B889BB21A46524B1B88D31A07EEFD
:104EB000903AF8EEE77A37EEA77A4F4B1B8D9BB20C
:104EC000013307EE903AF8EEE77A27EE277A4A4B5D
:104ED000DB6A013307EE903AF8EE677A67EE276AED
:104EE000464B1B6807EE903AB8EE677AC6EE877AB3
:104EF000F7EE006A86EEA77A414BD3ED007A37EEE3
:104F0000277AF0EE006AC7EE267A3D4BC3ED007AB1
:104F10002C4B1B889AB2374B1A80354B00221A70E3
:104F2000284B1B889BB203F00303002B0CBF01230B
:104F30000023DBB2002B0CD0224B1B8899B245F228
:104F40008A23A7F8543007F154036B221E48FEF75A
:104F5000FBFB1C4B1B889BB2042BD4BF01230023FB
:104F6000DBB2002B50D00023C7F81C31254B1B7837
:104F70005BB25A00D7F81C319A42CCBF0123002300
:104F8000DBB2002B40D00F4B1B8899B2D7F81C31F5
:104F9000D72202FB03F21B4B1B785BB25B0092FB38
:104FA000F3F39AB245F28A23A7F8563007F1560375
:104FB0000548FEF7C9FBD7F81C310133C7F81C318F
:104FC000D4E700BFEC0C0020400D0020F50C0020C1
:104FD000F80C002067666666E0020020F20C0020F4
:104FE000E0070020F30C0020E00C0020E20C002081
:104FF000320D0020340D002000040040100000207D
:10500000380D002008000020A44B1B8899B2A34B48
:105010001B889CB2A24B1B889BB24FF4FC62BA6502
:10502000B7F8180107F1580201920093234602468F
:105030009C48FEF7ABFB994B1B8899B2974B1B889A
:105040009CB2994B1B889BB240F21D52FA65B7F88F
:10505000160107F15C020192009323460246914833
:10506000FEF794FB8E4AB7F8183113808E4AB7F8D2
:1050700016311380894B1B889BB201339AB2874B40
:105080001A80864B1B889BB2B3F5A07F0CBF01230F
:105090000023DBB2002B02D0844B00221A707F4B1E
:1050A0001B889BB21A46824B1B8804339A420CBF62
:1050B00001230023DBB2002B52D07E4B1B78DBB2E6
:1050C0009BB2A7F8623007F1620319467A48FFF7EE
:1050D0005BFC0346A7F81431B7F81431042B3FDD0D
:1050E000B7F81431D22B3BDC714B1988B7F8143167
:1050F000043B98B26E4B1C88B7F8143104339BB252
:105100004FF6E0727A6607F164020192009323463B
:1051100002466448FEF73AFB654B1B88043BBB66BE
:105120000023FB6607F16C0207F16803114618467D
:1051300000F0EEF803461B6899B25D4B1B88043300
:1051400098B24FF6E0733B67B7F8142107F170038C
:105150000193B7F81431009303465248FEF716FB4B
:105160004E4B1B889BB2012B0CBF01230023DBB2EB
:10517000002B7FD0514B1B785BB29AB207F1A4038E
:105180004F49184600F04CFC07F18C0307F1A402CC
:105190004C49184600F0A4F807F1740307F18C019C
:1051A000494A1846FDF7A5F845F28A23C7F8BC30EE
:1051B0000023C7F8C03007F1740207F1C00302935F
:1051C00007F1BC030193414B0093134601220021D8
:1051D0003448FEF76DFC07F17403184606F0E7FC4F
:1051E00007F18C03184606F0E2FC07F1A403184609
:1051F00006F0DDFC314B1B785BB29AB207F1F40389
:105200002F49184600F00CFC07F1DC0307F1F4020B
:105210002F49184600F064F807F1C40307F1DC01D8
:10522000294A1846FDF765F845F28A23C7F80C317C
:105230000023C7F8103107F1C40207F58873029301
:1052400007F586730193214B00931346CD2200216D
:105250001448FEF72DFC07F1C403184606F0A7FC1E
:1052600007F1DC03184606F0A2FC07F1F403184628
:1052700006F09DFC174A174B1B889BB223F00103D5
:105280009BB21380144B1B681A04124B5B6A1344C5
:10529000124A13604CE400BF4AE400BFEC0C00204B
:1052A000E00C0020400D0020E20C0020F10C00205A
:1052B0000C000020F20C00200E000020080000204E
:1052C000FC600120EC780208F0780208480D00200C
:1052D000F478020800080040100D0020140D002092
:1052E00080B584B000AFF860B9607A60BA68002118
:1052F000786806F03BFE03461846FCF78DFF034630
:105300001946F86806F039FCF8681037BD4680BDCC
:1053100080B483B000AF786039607B681A683B68FE
:105320001B689A4201DA3B6800E07B6818460C373C
:10533000BD465DF8047B704780B582B000AF7860F1
:1053400039607B68012B0AD13B684FF6FF729342AC
:1053500005D10548FDF7A8FB0448FBF75DFE00BF3B
:105360000837BD4680BD00BF400D0020E012002080
:1053700080B500AF4FF6FF710120FFF7DDFF80BD64
:10538000DFF834D0002103E00C4B5B58435004316C
:105390000B480C4B42189A42F6D30B4A02E000230A
:1053A00042F8043B094B9A42F9D300F041F81BF054
:1053B000CBFCFFF74FFB704700000320F8E8020822
:1053C00000000020C4020020C4020020E07101207F
:1053D000FEE780B400AF00BFBD465DF8047B7047B8
:1053E00080B400AFFEE780B400AFFEE780B400AF4A
:1053F000FEE780B400AFFEE780B400AF00BFBD465B
:105400005DF8047B704780B400AF00BFBD465DF817
:10541000047B704780B400AF00BFBD465DF8047BDD
:10542000704780B400AF00BFBD465DF8047B704795
:1054300080B500AF164A164BD3F8883043F470039A
:10544000C2F88830134A134B1B6843F00103136002
:10545000104B00229A600F4A0E4B1B6823F0847396
:1054600023F4803313600B4B0B4A5A60094A094BF3
:105470001B6823F480231360064B0022DA6000F0DF
:1054800089F8034B4FF000629A6000BF80BD00BFF7
:1054900000ED00E0003802401030002480B487B0F6
:1054A00000AF00233B6100237B610223FB600023EC
:1054B000BB6002237B60324B9B6803F00C033B61B3
:1054C0003B69042B07D0082B09D0002B3DD12D4B75
:1054D0002D4A1A603DE02B4B2C4A1A6039E0284BCC
:1054E0005B689B0D03F00103BB60254B5B6803F019
:1054F0003F037B60BB68002B0CD0244A7B68B2FB67
:10550000F3F31F4A52689209C2F3080202FB03F345
:105510007B610BE01C4A7B68B2FBF3F3184A5268CC
:105520009209C2F3080202FB03F37B61144B5B6830
:105530001B0C03F0030301335B00FB607A69FB681B
:10554000B2FBF3F30F4A136003E00E4B0E4A1A60EE
:1055500000BF0B4B9B681B0903F00F030C4AD35C85
:10556000DBB23B61074B1A683B6922FA03F3054A39
:10557000136000BF1C37BD465DF8047B704700BF59
:1055800000380240100000200024F40000127A00CD
:105590001400002080B483B000AF00237B600023A0
:1055A0003B60364A354B1B6843F480331360334B02
:1055B0001B6803F400333B607B6801337B603B680E
:1055C000002B03D17B68B3F5A06FF0D12B4B1B6888
:1055D00003F40033002B02D001233B6001E00023E1
:1055E0003B603B68012B02D1244B254A5A60234A79
:1055F000224B1B6C43F080531364224A214B1B68DF
:1056000043F4404313601D4A1C4B9B6893601B4A44
:105610001A4B9B6843F400439360184A174B9B68EE
:1056200043F4A0539360154A144B1B6843F08073F6
:10563000136000BF114B1B6803F00073002BF9D0FF
:10564000114B40F205721A600C4A0C4B9B6823F018
:1056500003039360094A094B9B6843F0020393607C
:1056600000BF064B9B6803F00C03082BF9D100BF69
:105670000C37BD465DF8047B704700BF0038024020
:10568000085A400700700040003C024080B483B0DC
:1056900000AF786039607A683B68134318460C376E
:1056A000BD465DF8047B704780B5B4B004AF786048
:1056B00045F28A23BB8707F13C030193D82300936B
:1056C00040F23F13D8220021A448FDF765FF45F2C0
:1056D0008A23FB8707F13E030193EF23009340F2F7
:1056E0003F13EF2200219D48FDF756FF45F28A2324
:1056F000A7F8403007F140030193EF230093002304
:10570000D82200219548FDF747FF45F28A23A7F8E4
:10571000423007F142030193EF2300935A23D8222A
:105720005A218E48FDF738FF45F28A23A7F8443006
:1057300007F144030193EF230093E623D822E621E7
:105740008648FDF729FF45F28A23A7F8463007F17E
:1057500046030193EF23009340F23F13D82240F217
:105760003F117E48FDF718FF07F12403184606F0A5
:10577000FDF97B4B1B78042B27D801A252F823F0AC
:1057800095570008A3570008B1570008CB570008E9
:10579000BF57000807F124037249184606F0BFFB03
:1057A00014E007F124036F49184606F0B8FB0DE03A
:1057B00007F124036C49184606F0B1FB06E007F137
:1057C00024036A49184606F0AAFB00BF07F1240229
:1057D00007F148031146184606F0EAFC45F28A2311
:1057E0003B6600237B6607F1480207F164030293DE
:1057F00007F1600301935E4B00931346DF220A21F9
:105800005648FEF755F907F14803184606F0CFF958
:10581000584B1B78032B0BD0042B10D0002B00D03F
:1058200014E007F124034F49184606F078FB0DE019
:1058300007F124035049184606F071FB06E007F112
:1058400024034A49184606F06AFB00BF07F1240208
:1058500007F168031146184606F0AAFC45F28A23B0
:10586000C7F880300023C7F8843007F1680207F1D9
:105870008403029307F1800301933D4B0093134689
:10588000DF22F0213548FEF713F907F168031846C7
:1058900006F08DF9394B1B8D9BB2013307EE903A20
:1058A000F8EEE77A9FED367A27EE877A334BDB6A9C
:1058B000013307EE903AF8EE677A27EE277A314BFC
:1058C0001B6807EE903AF8EE677AC7EE276A07F191
:1058D0008803B0EE660A7968184600F057F807F1B9
:1058E0000C0307F18801284A1846FCF702FD07F16E
:1058F0008803184606F05BF907F10C0207F1A003D4
:105900001146184606F054FC4FF6FF73C7F8B8303E
:105910000023C7F8BC3007F1A00207F1BC030293D3
:1059200007F1B8030193124B00931346DF228C2139
:105930000A48FEF7BDF807F1A003184606F037F94C
:1059400007F10C03184606F032F907F12403184654
:1059500006F02DF900BFC037BD4680BD400D0020C8
:105960003C0D0020F8780208047902080C7902083E
:10597000480D0020090000201879020800040040AA
:1059800000401C49100000202479020880B5B8B0FE
:1059900000AFF860B96087ED010A08211020FFF719
:1059A00075FE024607F11003114618460CF040FF41
:1059B000D7ED017AB2EE047A67EE877AB0EE670A25
:1059C000FBF717FBF0EE407AFDEEE77AC7ED007AC1
:1059D0003B881AB207F1100308331146184600F04D
:1059E00099FAFB6807F11002114618460CF099FF6E
:1059F000F86806F00EF90346013B084A1946F868B4
:105A000006F0B4FA00BF07F1100318460CF068FF67
:105A100000BFF868E037BD4680BD00BF2C790208A2
:105A200080B5B8B000AFF860B9601346FB800821BC
:105A30001020FFF72BFE024607F11003114618460F
:105A40000CF0F6FEFA8807F11003083311461846E9
:105A500000F0AFFAFB6807F11002114618460CF08F
:105A600060FF07F1100318460CF03AFF00BFF8681A
:105A7000E037BD4680BD0000B0B586B000AF7860AD
:105A80007B4B1B785BB2002B0DD07A4B1B6903F468
:105A90000063002B07D0774B1B6903F48063002B56
:105AA00001D0012300E00023002B65D0724B1B784E
:105AB000012B2DD0022B3AD0002B00D05CE06F4B95
:105AC000DB6A9AB26A4B1B785BB29BB219468900BB
:105AD0000B4419468800194603460B445B009BB2F1
