:020000040800F2
:100000000000032035AE000887AE000895AE00085A
:100010009BAE0008A1AE0008A7AE000800000000DB
:10002000000000000000000000000000ADAE00086D
:10003000BBAE000800000000C9AE0008D7AE000843
:1000400085AE000885AE000885AE000885AE0008C4
:1000500085AE000885AE000885AE000885AE0008B4
:1000600085AE000885AE0008F558000885AE00088A
:1000700085AE000885AE000885AE000885AE000894
:1000800085AE000885AE000885AE000885AE000884
:1000900085AE000885AE000885AE000889590008C5
:1000A00085AE000885AE000885AE000885AE000864
:1000B00085AE0008F95100087D5B000885AE000898
:1000C00085AE000885AE000885AE000885AE000844
:1000D00085AE000885AE000885AE000885AE000834
:1000E000C95A000885AE000885AE000885AE000834
:1000F00085AE000885AE000885AE000885AE000814
:1001000085AE000885AE000885AE000885AE000803
:10011000AD5B000885AE000885AE000885AE00081E
:1001200085AE000885AE000885AE000885AE0008E3
:1001300085AE000885AE000885AE000885AE0008D3
:1001400085AE000885AE000885AE000885AE0008C3
:1001500085AE000885AE000885AE000885AE0008B3
:1001600085AE000885AE000885AE000885AE0008A3
:1001700085AE000885AE000885AE000885AE000893
:1001800085AE000885AE000885AE000885AE000883
:1001900085AE000885AE000885AE000885AE000873
:0C01A00085AE000885AE000885AE0008A2
:1001B00010B5054C237833B9044B13B10448AFF3A1
:1001C00000800123237010BDD80200200000000031
:1001D000B0E6020808B5034B1BB103490348AFF36F
:1001E000008008BD00000000DC020020B0E602082C
:1001F00001F0FF01102A2BDB10F0070F08D010F8D8
:10020000013B013A8B422DD010F0070F42B3F6D1DB
:10021000F0B441EA012141EA014122F007047FF0F4
:1002200000070023F0E80256083C85EA010586EA4B
:10023000010685FA47F5A3FA87F586FA47F6A5FA87
:1002400087F68EB9EED1F0BC01F0FF0102F0070293
:1002500032B110F8013B013A83EA010313B1F8D13E
:100260000020704701387047002D06BF354603381F
:10027000073815F0010F07D1013015F4807F02BF58
:10028000013015F4C03F0130F0BC0138704700BFA9
:1002900010F8012B11F8013B012A28BF9A42F7D030
:1002A000D01A7047034613F8012B002AFBD1181A05
:1002B0000138704781F0004102E000BF83F0004345
:1002C00030B54FEA41044FEA430594EA050F08BFF1
:1002D00090EA020F1FBF54EA000C55EA020C7FEAB5
:1002E000645C7FEA655C00F0E2804FEA5454D4EB32
:1002F0005555B8BF6D420CDD2C4480EA020281EAFC
:10030000030382EA000083EA010180EA020281EA33
:100310000303362D88BF30BD11F0004F4FEA013185
:100320004FF4801C4CEA113102D0404261EB410194
:1003300013F0004F4FEA03334CEA133302D052421A
:1003400063EB430394EA050F00F0A780A4F10104D6
:10035000D5F1200E0DDB02FA0EFC22FA05F2801810
:1003600041F1000103FA0EF2801843FA05F35941F6
:100370000EE0A5F120050EF1200E012A03FA0EFC75
:1003800028BF4CF0020C43FA05F3C01851EBE3719F
:1003900001F0004507D54FF0000EDCF1000C7EEBBC
:1003A00000006EEB0101B1F5801F1BD3B1F5001FFA
:1003B0000CD349085FEA30004FEA3C0C04F1010419
:1003C0004FEA445212F5800F80F09A80BCF1004F42
:1003D00008BF5FEA500C50F1000041EB045141EAC4
:1003E000050130BD5FEA4C0C404141EB010111F4C5
:1003F000801FA4F10104E9D191F0000F04BF014670
:100400000020B1FA81F308BF2033A3F10B03B3F14D
:1004100020020CDA0C3208DD02F1140CC2F10C02DD
:1004200001FA0CF021FA02F10CE002F11402D8BF3B
:10043000C2F1200C01FA02F120FA0CFCDCBF41EA07
:100440000C019040E41AA2BF01EB0451294330BDD6
:100450006FEA04041F3C1CDA0C340EDC04F11404B3
:10046000C4F1200220FA04F001FA02F340EA03008A
:1004700021FA04F345EA030130BDC4F10C04C4F1D0
:10048000200220FA02F001FA04F340EA03002946B0
:1004900030BD21FA04F0294630BD94F0000F83F4FA
:1004A000801306BF81F480110134013D4EE77FEADD
:1004B000645C18BF7FEA655C29D094EA050F08BF29
:1004C00090EA020F05D054EA000C04BF194610460A
:1004D00030BD91EA030F1EBF0021002030BD5FEA4E
:1004E000545C05D14000494128BF41F0004130BD76
:1004F00014F580043CBF01F5801130BD01F00045CA
:1005000045F0FE4141F470014FF0000030BD7FEA3C
:10051000645C1ABF194610467FEA655C1CBF0B4637
:10052000024650EA013406BF52EA033591EA030F4E
:1005300041F4002130BD00BF90F0000F04BF002146
:10054000704730B54FF4806404F132044FF0000579
:100550004FF0000150E700BF90F0000F04BF0021F2
:10056000704730B54FF4806404F1320410F0004558
:1005700048BF40424FF000013EE700BF42004FEA53
:10058000E2014FEA31014FEA02701FBF12F07F43D0
:1005900093F07F4F81F06051704792F0000F14BFCD
:1005A00093F07F4F704730B54FF4607401F0004511
:1005B00021F0004120E700BF50EA010208BF704768
:1005C00030B54FF000050AE050EA010208BF70475D
:1005D00030B511F0004502D5404261EB41014FF4C6
:1005E000806404F132045FEA915C3FF4DCAE4FF0CA
:1005F00003025FEADC0C18BF03325FEADC0C18BFB1
:10060000033202EBDC02C2F1200300FA03FC20FA01
:1006100002F001FA03FE40EA0E0021FA02F114444E
:10062000C1E600BF70B54FF0FF0C4CF4E06C1CEA63
:1006300011541DBF1CEA135594EA0C0F95EA0C0FD8
:1006400000F0DEF82C4481EA030621EA4C5123EA4B
:100650004C5350EA013518BF52EA033541F480117A
:1006600043F4801338D0A0FB02CE4FF00005E1FB2D
:1006700002E506F00042E0FB03E54FF00006E1FB77
:1006800003569CF0000F18BF4EF0010EA4F1FF04BA
:10069000B6F5007F64F5407404D25FEA4E0E6D41FA
:1006A00046EB060642EAC62141EA55514FEAC5200B
:1006B00040EA5E504FEACE2EB4F1FD0C88BFBCF587
:1006C000E06F1ED8BEF1004F08BF5FEA500E50F138
:1006D000000041EB045170BD06F0004646EA0101FE
:1006E00040EA020081EA0301B4EB5C04C2BFD4EB30
:1006F0000C0541EA045170BD41F480114FF0000E29
:10070000013C00F3AB8014F1360FDEBF002001F096
:10071000004170BDC4F10004203C35DA0C341BDC10
:1007200004F11404C4F1200500FA05F320FA04F0E2
:1007300001FA05F240EA020001F0004221F0004116
:1007400010EBD37021FA04F642EB06015EEA430E89
:1007500008BF20EAD37070BDC4F10C04C4F12005B9
:1007600000FA04F320FA05F001FA04F240EA02006C
:1007700001F0004110EBD37041F100015EEA430E3D
:1007800008BF20EAD37070BDC4F1200500FA05F25D
:100790004EEA020E20FA04F301FA05F243EA0203DC
:1007A00021FA04F001F0004121FA04F220EA0200EB
:1007B00000EBD3705EEA430E08BF20EAD37070BD31
:1007C00094F0000F0FD101F00046400041EB010111
:1007D00011F4801F08BF013CF7D041EA060195F0F3
:1007E000000F18BF704703F00046520043EB0303AD
:1007F00013F4801F08BF013DF7D043EA060370479A
:1008000094EA0C0F0CEA135518BF95EA0C0F0CD0A4
:1008100050EA410618BF52EA4306D1D181EA0301EA
:1008200001F000414FF0000070BD50EA410606BFE4
:100830001046194652EA430619D094EA0C0F02D129
:1008400050EA013613D195EA0C0F05D152EA03366E
:100850001CBF104619460AD181EA030101F000418C
:1008600041F0FE4141F470014FF0000070BD41F0D5
:10087000FE4141F4780170BD70B54FF0FF0C4CF4AF
:10088000E06C1CEA11541DBF1CEA135594EA0C0FCE
:1008900095EA0C0F00F0A7F8A4EB050481EA030E1B
:1008A00052EA03354FEA013100F088804FEA033302
:1008B0004FF0805545EA131343EA12634FEA0222D0
:1008C00045EA111545EA10654FEA00260EF0004191
:1008D0009D4208BF964244F1FD0404F5407402D2E3
:1008E0005B084FEA3202B61A65EB03055B084FEA74
:1008F00032024FF480104FF4002CB6EB020E75EB71
:10090000030E22BFB61A754640EA0C005B084FEA98
:100910003202B6EB020E75EB030E22BFB61A754615
:1009200040EA5C005B084FEA3202B6EB020E75EB60
:10093000030E22BFB61A754640EA9C005B084FEAD8
:100940003202B6EB020E75EB030E22BFB61A7546E5
:1009500040EADC0055EA060E18D04FEA051545EAD4
:1009600016754FEA06164FEAC30343EA52734FEA7D
:10097000C2025FEA1C1CC0D111F4801F0BD141EAF6
:1009800000014FF000004FF0004CB6E711F4801F5B
:1009900004BF01430020B4F1FD0C88BFBCF5E06F3B
:1009A0003FF6AFAEB5EB030C04BFB6EB020C5FEA4B
:1009B000500C50F1000041EB045170BD0EF0004EA0
:1009C0004EEA113114EB5C04C2BFD4EB0C0541EAD2
:1009D000045170BD41F480114FF0000E013C90E6CF
:1009E00045EA060E8DE60CEA135594EA0C0F08BF93
:1009F00095EA0C0F3FF43BAF94EA0C0F0AD150EA92
:100A000001347FF434AF95EA0C0F7FF425AF104624
:100A100019462CE795EA0C0F06D152EA03353FF44C
:100A2000FDAE1046194622E750EA410618BF52EAC9
:100A300043067FF4C5AE50EA41047FF40DAF52EA9D
:100A400043057FF4EBAE12E74FF0FF3C06E000BF3A
:100A50004FF0010C02E000BF4FF0010C4DF804CD47
:100A60004FEA410C7FEA6C5C4FEA430C18BF7FEA07
:100A70006C5C1BD001B050EA410C0CBF52EA430C35
:100A800091EA030F02BF90EA020F0020704710F1B5
:100A9000000F91EA030F58BF994208BF90422CBF44
:100AA000D8176FEAE37040F0010070474FEA410C3D
:100AB0007FEA6C5C02D150EA013C07D14FEA430C5B
:100AC0007FEA6C5CD6D152EA033CD3D05DF8040BCC
:100AD000704700BF8446104662468C4619466346FE
:100AE00000E000BF01B5FFF7B7FF002848BF10F1D5
:100AF000000F01BD4DF808EDFFF7F4FF0CBF01201A
:100B000000205DF808FB00BF4DF808EDFFF7EAFF95
:100B100034BF012000205DF808FB00BF4DF808ED50
:100B2000FFF7E0FF94BF012000205DF808FB00BF45
:100B30004DF808EDFFF7CEFF94BF012000205DF8CF
:100B400008FB00BF4DF808EDFFF7C4FF34BF0120DC
:100B500000205DF808FB00BF4FEA410C7FEA6C5CA7
:100B600002D150EA013C0AD14FEA430C7FEA6C5CA7
:100B700002D152EA033C02D14FF0000070474FF01F
:100B8000010070474FEA410212F5001215D211D54B
:100B90006FF47873B3EB625212D94FEAC12343F07A
:100BA000004343EA505311F0004F23FA02F018BFFC
:100BB000404270474FF00000704750EA013005D1C5
:100BC00011F0004008BF6FF0004070474FF0000088
:100BD000704700BF4A0011D212F5001211D20DD594
:100BE0006FF47873B3EB62520ED44FEAC12343F033
:100BF000004343EA505323FA02F070474FF00000DD
:100C0000704750EA013002D14FF0FF3070474FF08B
:100C1000000070474FEA4102B2F1E04324BFB3F550
:100C2000001CDCF1FE5C0DD901F0004C4FEAC00263
:100C30004CEA5070B2F1004F40EB830008BF20F047
:100C40000100704711F0804F21D113F13872BCBF01
:100C500001F00040704741F480114FEA5252C2F156
:100C60001802C2F1200C10FA0CF320FA02F018BF9F
:100C700040F001004FEAC1234FEAD32303FA0CFCF2
:100C800040EA0C0023FA02F34FEA4303CCE77FEA81
:100C9000625307D150EA01331EBF4FF0FE4040F4CB
:100CA0004000704701F0004040F0FE4040F400007A
:100CB000704700BF53B94AB9002908BF00281CBFBC
:100CC0004FF0FF314FF0FF3000F07AB9ADF1080C72
:100CD0006DE904CE00F006F8DDF804E0DDE902235A
:100CE00004B070472DE9F0478C460D460446089E37
:100CF000002B51D18A4217466DD9B2FA82FEBEF15D
:100D0000000F0BD0CEF1200C01FA0EF520FA0CFCEE
:100D100002FA0EF74CEA050C00FA0EF44FEA174AF5
:100D2000250CBCFBFAF81FFA87F90AFB18CC45EA38
:100D30000C4508FB09F3AB420AD9ED1908F1FF3263
:100D400080F02381AB4240F22081A8F102083D44AB
:100D5000ED1AA4B2B5FBFAF00AFB105544EA0544BB
:100D600000FB09F9A14509D9E41900F1FF3380F02E
:100D70000A81A14540F2078102383C44A4EB0904F2
:100D800040EA08400021002E61D024FA0EF400232E
:100D900034607360BDE8F0878B4207D9002E54D0D1
:100DA000002186E821000846BDE8F087B3FA83F108
:100DB000002940F08E80AB4202D3824200F2FA80DA
:100DC000841A65EB03050120AC46002E3FD086E86F
:100DD0001010BDE8F08712B90127B7FBF2F7B7FA98
:100DE00087FEBEF1000F34D1EB1B3A0C1FFA87FCD3
:100DF0000121B3FBF2F8250C02FB183345EA034549
:100E00000CFB08F3AB4207D9ED1908F1FF3002D211
:100E1000AB4200F2D1808046ED1AA3B2B5FBF2F0EE
:100E200002FB105543EA05440CFB00FCA44507D91E
:100E3000E41900F1FF3302D2A44500F2B88018464D
:100E4000A4EB0C0440EA08409DE731463046BDE87B
:100E5000F087CEF1200405FA0EF307FA0EF720FA18
:100E600004F83A0C25FA04F448EA0308B4FBF2F15A
:100E70004FEA184502FB11441FFA87FC45EA044576
:100E800001FB0CF3AB4200FA0EF409D9ED1901F1A4
:100E9000FF3080F08A80AB4240F2878002393D44C7
:100EA000EB1A1FFA88F5B3FBF2F002FB103345EAA8
:100EB000034500FB0CF3AB4207D9ED1900F1FF38F5
:100EC0006FD2AB426DD902383D44EB1A40EA014182
:100ED0008FE7C1F1200722FA07F88B4005FA01F4E9
:100EE00048EA030320FA07FE4FEA134CFD404EEA9E
:100EF000040EB5FBFCF94FEA1E440CFB19551FFA12
:100F000083F844EA054509FB08F4AC4202FA01F211
:100F100000FA01FA08D9ED1809F1FF3043D2AC42CA
:100F200041D9A9F102091D442D1B1FFA8EFEB5FB04
:100F3000FCF00CFB10554EEA054400FB08F8A045F8
:100F400007D9E41800F1FF3529D2A04527D9023886
:100F50001C4440EA0940A4EB0804A0FB02894C456C
:100F6000C6464D4615D312D056B1BAEB0E0364EB0C
:100F7000050404FA07F7CB401F43CC403760746088
:100F80000021BDE8F0871846F8E69046E0E6C24545
:100F9000EAD2B8EB020E69EB03050138E4E7284614
:100FA000D7E7404691E78146BEE7014678E7023839
:100FB0003C4445E7084608E7A8F102083D442BE712
:100FC000704700BF80B582B000AF87ED010AC7ED62
:100FD000000AD7ED000A97ED010A0BF0B3FAF0EE24
:100FE000407AB0EE670A0837BD4680BD80B582B052
:100FF00000AF87ED010A97ED010A24F059FAF0EEEF
:10100000407AB0EE670A0837BD4680BD80B584B02F
:1010100000AFF860B9607A607B68002B01D10023D3
:1010200005E07A68B968F86826F026FF0346184696
:101030001037BD4680BD000090B585B000AF786028
:101040007B6803F500534FF480621A807B6803F5D8
:101050000053023301221A707B6803F500530E33EC
:1010600000221A707B6803F500530F3300221A70B8
:101070007B6803F50053103300221A707B6803F578
:101080004053143308221A707B6803F5405315331C
:1010900007221A707B6803F580432033184611F04D
:1010A000A7F97B6803F58043383300221A607B6818
:1010B00003F580433C3300221A807B6803F58043AC
:1010C0003E3339491A460B4603CB106051601B88EA
:1010D00013817B6803F5B443483300221A70002360
:1010E000FB60FB68B3F5806F35DAFB6807EE903A7A
:1010F000F8EEE77A77EEA77A17EE900AFFF73EFA56
:1011000027A3D3E90023FFF78DFA03460C461846C0
:1011100021464FF00002254BFFF7AEFB03460C467D
:1011200044EC173BB0EE470AF0EE670A24F078F97A
:1011300054EC103B18462146FFF76CFD01467A68D7
:10114000FB6803F604039B00134404331960FB6837
:101150000133FB60C5E700237B817B89192B17DCFA
:1011600000233B813B89FF2B0EDC7A893B89796820
:1011700012020A44134403F58043483350221A7084
:101180003B8901333B81EDE77B8901337B81E4E7D8
:101190007B6818461437BD4690BD00BFAFF3008092
:1011A000182D4454FB210940C8E602080000904075
:1011B00080B582B000AF78603960174A164B1B8843
:1011C0009BB223F001039BB21380144B1B681A04DB
:1011D000114B5B6A1344124A13600F4A0E4B9B8AF1
:1011E0009BB243F001039BB293820B4A0A4B1B88CC
:1011F0009BB243F001039BB21380084B00221A609C
:101200003968786800F0CAFA3968786800F0D0FC6C
:1012100000BF0837BD4680BD00080040240D0020F7
:10122000280D002080B582B000AF78603960174A81
:10123000164B1B889BB223F001039BB21380144B07
:101240001B681A04114B5B6A1344124A13600F4A5D
:101250000E4B9B8A9BB243F001039BB293820B4AD5
:101260000A4B1B889BB243F001039BB21380084BCF
:1012700000221A603968786800F090FA3968786856
:1012800000F00AF800BF0837BD4680BD00080040E6
:10129000240D0020280D002090B595B002AFF86015
:1012A000B9600023A7F846300023A7F84030002398
:1012B000FB870123BB87BB8FFF2B00F30F81FA8FC6
:1012C000BB8F04339A4275DAFB8FFF2B72DCFB8FE6
:1012D0009B00BA681344D3ED007AFB8FFA6803F6DB
:1012E00006439B00134493ED007AF0EE470AB0EEFC
:1012F000670AFFF767FEF0EE406A9FED747AC6EE6C
:10130000877AB7EE007A77EE677A9FED717A67EEAB
:10131000877AFCEEE77AC7ED017ABB88A7F84430FC
:10132000B7F844301D2B1BDCB7F846300133A7F863
:101330004630B7F84630C82B12DD664B1B889BB28F
:1013400001339AB2634B1A80634B1B78DBB21A46A7
:10135000FB68134403F500530E3300221A70F5E1C5
:10136000FB6803F5B44348331B781A46FB8FB7F884
:101370004410C8B2F96812020A44134403F58043CA
:10138000483302461A70FB8F012B0FD1FB6803F51F
:10139000B44348331B78B7F84420D1B2FA681B0233
:1013A000134403F5804348330A461A70FB8F013318
:1013B000FB8784E70023A7F84230B7F84230A7F84C
:1013C0004430BB8F043B9BB27B87B7F93A20BB8F7D
:1013D00004339A423BDCB7F93A30002B30DBB7F9E3
:1013E0003A30FF2B2CDCBA8FB7F93A30D31A002BE6
:1013F000B8BF5B42C3F10403012202FA03F37B8608
:10140000B7F842207B8E1344A7F84230FB6803F5FF
:10141000B44348331B781A46B7F93A30F9681202D8
:101420000A44134403F5804348331B789BB27A8EF9
:1014300012FB03F39AB2B7F844301344A7F84430D0
:10144000B7F93A309BB201339BB27B87BDE7B7F85F
:101450004420B7F84230B2FBF3F3A7F84430B7F8B2
:1014600040305B0007F148021344B7F8442023F8EA
:10147000342CB7F8403001335A4203F0030302F032
:10148000030258BF5342A7F84030BB8F032B19DD2E
:10149000FB6803F5B44348331B781C46BB8F1A1F07
:1014A000B7F840305B0007F148010B4433F8343C97
:1014B000D8B2F96823020B44134403F58043483340
:1014C00002461A70BB8F0133BB87F4E600008047E9
:1014D0000000A042420D00200D0D00200121F868FF
:1014E00000F0F8FFFB6803F5B44348331B78013381
:1014F000984A82FB0312D110DA178A1A1A2101FBCB
:1015000002F29A1AD2B2FB6803F5B44348331A7058
:1015100001233B873B8FB3F5A07F00F317813B8FFF
:10152000013B8D4A82FB03125211DB17D31A03F0E1
:101530000103002B14BF01230023DBB287F83130F5
:10154000D723FB860023BB86BB8E192B00F3A98013
:10155000BB8E5B009BB2C3F13F039BB25B01FB857B
:10156000FB6803F5B44348331B781A46BB8E13441B
:10157000784A82FB0312D110DA178A1A1A2101FB6A
:1015800002F29A1A1346BB85BB8E5B000333BB6223
:10159000BB8EC3F11A0213469B0013440C3B7B62C3
:1015A0003A8FBB6A9A4278DD3A8FBB6A03F5807343
:1015B0009A4272DAB7F92C20398FBB6ACB1AF968D4
:1015C00012020A44134403F5804348331B789AB24D
:1015D0007B6A9BB213449BB27B84B7F92C20398F72
:1015E000BB6ACB1A013BF96812020A44134403F5A3
:1015F000804348331B789AB27B6A9BB213449BB2F8
:101600003B84FB8E002B48DDFA8EB7F922309A42DC
:1016100004DAFA8EB7F920309A423EDBFB8E1A4686
:10162000920013441B0198B23B8F5A1E4A4B83FB16
:1016300002135911D317C91A0B469B000B441B0107
:10164000D11A8BB20344FB83FA8EB7F922309A4247
:1016500012DDFA8EB7F920309A420DDD97F831305D
:10166000FA6803F58053063352F82320FB8B5B00A6
:10167000134400221A800CE097F83130FA6803F521
:101680008053063352F82320FB8B5B001344FA8D02
:101690001A80FB8E013BFB86B3E7BB8E0133BB8612
:1016A00052E7FB8E002B26DDFB8E1A469200134478
:1016B0001B0198B23B8F5A1E274B83FB0213591113
:1016C000D317C91A0B469B000B441B01D11A8BB2CE
:1016D0000344BB8397F83130FA6803F5805306332F
:1016E00052F82320BB8B5B00134400221A80FB8E30
:1016F000013BFB86D5E73A8F184BA3FB02139909F0
:101700000B469B000B441B01D31A9BB2002B19D133
:10171000134B5B68134A13603B8F503B99B23B8F6E
:10172000013B98B297F83130FA6803F580530633DD
:1017300052F823300193D7230093034600220A482E
:1017400002F0D2FA3B8F01333B87E3E64C37BD46CC
:1017500090BD00BF4FECC44E67666666CDCCCCCC66
:10176000A0640240200D0020600D002090B583B0E1
:1017700000AF78607868FEF7EFFE03460C4644EC55
:10178000103B23F005FEB0EE407AF0EE607AB0EE4A
:10179000470AF0EE670A0C37BD4690BD90B59BB086
:1017A00000AF786039600023A7F84E307B6803F5FE
:1017B00000531B881846FEF7BFFE03460C4644EC58
:1017C000103B23F0D1FD54EC103B18462146FFF7A7
:1017D00001FA0346A7F84C3000237B667B6803F5CB
:1017E00000531B881A467B6E9A422BDDB7F84C30AB
:1017F000C3F120027B6E93FAA3F363FA02F3A7F816
:101800004E30B7F84E207B6E9A4217DD7B6E9B0000
:101810003A6813441B68BB647B6E9B003A681344B0
:10182000B7F84E20920039680A4412681A60B7F877
:101830004E309B003A681344BA6C1A607B6E0133D9
:101840007B66CBE701233B667B6803F500531B886F
:101850001A463B6E9A4240F3A4813B6E012B4AD15B
:101860000023FB657B6803F500531B881A46FB6D5C
:101870009A4240F39281FA6D3B6E13447B647B6C19
:101880009B003A6813441B683B647B6C9B003A687E
:101890001344FA6D920039680A4492ED007AD7ED4C
:1018A000107A77EE677AC3ED007A7A687B6C03F67C
:1018B00006439B0013444FF000021A60FB6D9B002F
:1018C0003A681344FA6D920039680A4492ED007A3E
:1018D000D7ED107A77EE277AC3ED007A7A68FB6D40
:1018E00003F606439B0013444FF000021A60FB6DA1
:1018F0000233FB65B6E77B6803F500531B885B0882
:101900009BB21A463B6E9A4240F093800123A7F89F
:101910005A30B7F85A307A6802F5005212885208E5
:1019200092B2934280F23981B7F85A309A023B6EF4
:101930005B0092FBF3F31846FFF718FF54EC103BE3
:1019400018462146FFF746F90346FB87FB8F7A6866
:1019500003F604039B00134404331B68BB63FB8F33
:1019600003F580737A6803F604039B001344043381
:101970001B687B63B7F85A203B6E13443B633B6B99
:101980009B003A68134493ED007AD7ED0D7A27EE69
:10199000277A7A683B6B03F606439B001344D3ED2A
:1019A000006AD7ED0E7A66EEA77A77EE677AB7F817
:1019B0005A309B003A681344B7F85A2092003968AD
:1019C0000A4492ED007A77EE277AC3ED007A7A68BE
:1019D0003B6B03F606439B00134493ED007AD7ED6F
:1019E0000D7A27EE277A3B6B9B003A681344D3EDC0
:1019F000006AD7ED0E7A66EEA77A77EE277AB7F807
:101A00005A30B7F85A20796802F6064292000A4422
:101A100092ED007A77EE277A7A6803F606439B0008
:101A20001344C3ED007AB7F85A300133A7F85A309F
:101A30006FE700237B657A6D3B6E9A4280F2AD8042
:101A40007B6D9A023B6E5B0092FBF3F31846FFF747
:101A50008DFE54EC103B18462146FFF793F80346E1
:101A6000FB627A68FB6A03F604039B0013440433A9
:101A70001B68BB62FB6A03F580737A6803F6040394
:101A80009B00134404331B687B627B6D3B657B6862
:101A900003F500531B881A463B6D9A4279DD3A6D77
:101AA0003B6E13443B623B6D9B003A6813441B68DA
:101AB000FB617A683B6D03F606439B0013441B6889
:101AC000BB613B6A9B003A6813441B687B617A6880
:101AD0003B6A03F606439B0013441B683B6197ED8A
:101AE000097AD7ED057A27EE277AD7ED0A6AD7ED7E
:101AF000047A66EEA77A77EE677AC7ED037A97EDF8
:101B0000097AD7ED047A27EE277AD7ED0A6AD7ED5E
:101B1000057A66EEA77A77EE277AC7ED027A3B6AF6
:101B20009B003A68134497ED077AD7ED037A77EE76
:101B3000677AC3ED007A97ED067AD7ED027A77EEF1
:101B4000677A7A683B6A03F606439B001344C3ED49
:101B5000007A3B6D9B003A68134497ED077AD7ED06
:101B6000037A77EE277AC3ED007A97ED067AD7ED00
:101B7000027A77EE277A7A683B6D03F606439B007C
:101B80001344C3ED007A3B6E5B003A6D13443B6532
:101B90007DE77B6D01337B654DE73B6E5B003B660C
:101BA00052E6786800F0ECFC00BF6C37BD4690BD93
:101BB000B0B52DED028BC0B006AFF860B960FB6820
:101BC00003F50053043300227A8507F12A021146F7
:101BD000184600F0E2FD0023A7F8E6304FF6FF7349
:101BE000A7F8E4300023A7F8E230FB6803F5804350
:101BF000383300221A600123A7F8E030B7F8E0304C
:101C0000B3F5A07F00F35D821F23A7F8DE30B7F89D
:101C1000E0309B00BA681344D3ED007AB7F8E030A7
:101C2000FA6803F606439B00134493ED007AF0EE46
:101C3000470AB0EE670AFFF7C5F987ED340AB7F92E
:101C4000E430032B67DCD7ED347A9FED857AF4EE30
:101C5000C77AF1EE10FA5EDDB7F9E430B3F1FF3F79
:101C600006D0B7F8E020B7F9E23001339A4206DD3A
:101C7000B7F9E4309BB201339BB2A7F8E430B7F870
:101C8000E030A7F8E230B7F9E430FA6803F5005322
:101C90001C335B001344DB88A7F8DE30FB6803F5D8
:101CA00000530433B7F9E4201146184600F09AFDBA
:101CB00003461B88002B0FD0FB6803F580433833A5
:101CC0001B6807EE903AB8EE677AD7ED347AB4EE37
:101CD000E77AF1EE10FA01D5012300E00023002B92
:101CE0001CD0FB6803F500530433B7F9E420114618
:101CF000184600F077FD0246B7F8E0301380D7EDC4
:101D0000347AFCEEE77A17EE902AFB6803F58043FD
:101D100038331A6002E00023A7F8E23097ED347AF6
:101D2000DFED506AC7EE267AB7EE007A77EE677A73
:101D30009FED4D7A67EE877AC7ED0B7A4B4B3B638D
:101D400007F1300207F12C031146184600F059FD47
:101D50000346D3ED007AFCEEE77AC7ED017ABB8843
:101D6000A7F8CE30B7F8E030013B414A82FB0312BE
:101D70005211DB17D31A03F00103002B14BF012308
:101D80000023DBB287F8CD300023C7F8D830D7F86E
:101D9000D830D72B72DCD7F8D8309BB21A469200D5
:101DA00013441B0198B2B7F8E0305A1E304B83FB46
:101DB00002135911D317C91A0B469B000B441B0180
:101DC000D11A8BB20344A7F8C830B7F8CE20D7F8A1
:101DD000D8309A422FDCB7F9E6309BB201339BB280
:101DE000A7F8E630B7F9E63042F21072934212DDFE
:101DF000204B1B889BB201339AB21E4B1A801E4B9C
:101E00001B78DBB21A46FB68134403F500530E330C
:101E100000221A701FE397F8CD30FA6803F580535B
:101E2000063352F82320B7F8C8305B001344B7F8E4
:101E3000DE201A800DE097F8CD30FA6803F5805364
:101E4000063352F82320B7F8C8305B001344002251
:101E50001A80D7F8D8300133C7F8D83097E700BFD9
:101E6000005043470000004900005743000057431B
:101E700067666666420D00200D0D0020B7F8E02071
:101E8000D04BA3FB021399090B469B000B441B018B
:101E9000D31A9BB2002B40F00E81B7F8E030F02B44
:101EA00040F3F1800121F86800F014FB002387F86B
:101EB000D73097F8D730042B00F3E580FB6803F5A3
:101EC0000053043397F8D7201146184600F08AFCD7
:101ED00003461B88002B0CBF01230023DBB2002B21
:101EE00040F0D080FB6803F50053043397F8D72007
:101EF0001146184600F076FC03461B8807EE903A20
:101F0000B8EE678AFB6803F50053043300211846D6
:101F100000F068FC03461B8807EE903AF8EEE77A7B
:101F200088EE277A17EE100AFEF728FB03460C46C8
:101F300044EC103B23F02CFA54EC103B184621469D
:101F4000FEF748FE0346A7F8CA3007F16403B7F866
:101F5000CA209D4918460AF08DF907F14C0307F194
:101F600064019A4A184600F065FCFB6803F50053CB
:101F7000043397F8D7201146184600F033FC034687
:101F80001B881946F86800F073FAF0EE407A07F102
:101F90007C030022B0EE670A8B4918460AF060F80D
:101FA00007F1340307F17C0207F14C01184600F0F9
:101FB000A8FB07F1100307F13401854A184600F029
:101FC00039FC07F13403184610F03CFA07F17C03A2
:101FD000184610F037FA07F14C03184610F032FAA1
:101FE00007F16403184610F02DFA97F8D730013343
:101FF0009BB21A46920013449B009DB297F8CD30D5
:10200000FA6803F58053063352F8234007F11002B3
:1020100007F194031146184610F00EFD97F8D730DB
:10202000FA6803F500531C335B001344DB88C7F8E0
:10203000AC300023C7F8B03007F1B003049307F1C8
:10204000AC030393634B029307F194030193009451
:1020500050232A460021604802F075F907F19403E5
:10206000184610F0EFF95D4B5B685D4A136007F1AD
:102070001003184610F0E6F997F8D730013387F8C7
:10208000D73016E700BFB7F8E030503B99B2B7F849
:10209000E030013B98B297F8CD30FA6803F58053F1
:1020A000063352F823300193D723009303460022CE
:1020B000494801F019FEB7F8E0300133A7F8E030E5
:1020C0009CE5FB6803F5005302331B78002B0DD011
:1020D000FB6803F5005304330021184600F082FB2F
:1020E00003461B88002B01DD012300E00023002BA9
:1020F00000F0B181FB6803F500530433002118465A
:1021000000F070FB03461B881946F86800F0B0F930
:10211000F0EE407A334BC3ED007A324BD3ED007AC8
:10212000B2EE047AC7EE876AB0EE660AFEF75EFF8B
:10213000F0EE407AC7ED2D7A4FF08243C7F8B83001
:1021400007F1B80207F1B4031146184600F089FB05
:102150000346D3ED007AFCEEE77AC7ED017ABB883F
:10216000A7F8C630B7F8C640FB6803F50053043340
:102170000021184600F036FB03461B88E31A002BAB
:10218000B8BF5B42012BCCBF01230023DBB2002B85
:102190002CD0B7F8C630144AD26A02FB03F4FB68AD
:1021A00003F5005304330021184600F01BFB0346DF
:1021B0001B88B4FBF3F39AB2FB6803F580433C330E
:1021C0001A801BE0CDCCCCCC486E0020D4E60208AF
:1021D000D8E60208680D0020600D0020A0640240CF
:1021E000200D00202C0D0020000400409E4BDB6AD7
:1021F0009AB2FB6803F580433C331A80FB6803F511
:10220000005304330021184600F0ECFA03461B8803
:1022100003F18043013B9B00BA6813441B681846D6
:10222000FEF7ACF903460C469FED8D1B44EC103BCA
:1022300023F0E4F955EC104BFB6803F5005304332D
:102240000021184600F0CEFA03461B88013BFA68CD
:1022500003F606439B0013441B681846FEF78EF9ED
:1022600002460B469FED7E1B43EC102B23F0C6F974
:1022700053EC102B20462946FEF722F803460C4665
:1022800044EC173BB0EE470AF0EE670A23F02EFB52
:1022900054EC103B18462146FEF774FC0346C7F881
:1022A000C030FB6803F5005304330021184600F0EA
:1022B00099FA03461B8801339B00BA6813441B68D4
:1022C0001846FEF75BF903460C469FED651B44EC90
:1022D000103B23F093F955EC104BFB6803F50053CA
:1022E00004330021184600F07DFA03461B880133B1
:1022F000FA6803F606439B0013441B681846FEF772
:102300003DF902460B469FED561B43EC102B23F084
:1023100075F953EC102B20462946FDF7D1FF0346F3
:102320000C4644EC173BB0EE470AF0EE670A23F088
:10233000DDFA54EC103B18462146FEF723FC034619
:10234000C7F8BC30D7F8BC3007EE903AB8EEE77A61
:10235000D7F8C03007EE903AF8EEE76A434BD3ED7A
:10236000007A37EEA76AB7F8C63007EE903AF8EE73
:10237000E77A66EE277A76EEA77AB4EEE77AF1EEA0
:1023800010FACCBF01230023DBB2002B0CD0FB687A
:1023900003F580433C331B88013B9AB2FB6803F58D
:1023A00080433C331A8030E0D7F8C03007EE903AD3
:1023B000B8EEE77AD7F8BC3007EE903AF8EEE76A65
:1023C0002A4BD3ED007A37EEA76AB7F8C63007EE8E
:1023D000903AF8EEE77A66EE277A76EEA77AB4EED0
:1023E000E77AF1EE10FACCBF01230023DBB2002B19
:1023F0000BD0FB6803F580433C331B8801339AB252
:10240000FB6803F580433C331A80FB6803F5804387
:102410003C331B88002B14DDFB6803F580433C3301
:102420001B881A4641F26F739A420ADC0E4BDA6A35
:10243000FB6803F580433C331B889A4201D001239B
:1024400000E00023002B06D0074AFB6803F5804319
:102450003C331B88D362E837BD46BDEC028BB0BD70
:102460000000000000000040000400402C0D00208F
:1024700080B483B000AF78600B467B80134B1B6841
:1024800007EE903AB8EE677A7B8807EE903AF8EE5E
:10249000E77A27EE277A0E4B1B8D9BB201331A4643
:1024A0000B4BDB6A013303FB02F3DB0207EE903ACE
:1024B000F8EE677AC7EE276AF0EE667AB0EE670A42
:1024C0000C37BD465DF8047B704700BF200000203C
:1024D0000004004080B483B000AF78600B46FB700E
:1024E000FB78002B0AD0224B1B78DBB21A467B68A4
:1024F000134403F500530E3300221A701D4B1B7852
:10250000DBB283F00103DBB2002B15D07B6803F54F
:1025100000530E331B7883F00103DBB2002B09D18B
:102520007B6803F500530F331B7883F00103DBB2A4
:10253000002B01D0012300E00023002B11D00D4B14
:1025400001221A700C4B00221A807B6803F500539D
:102550000E331B78002B01D0012200E00022074B34
:102560001A7000BF0C37BD465DF8047B704700BF92
:102570000D0D0020050D0020FE0C00200C0D00208C
:1025800080B5ACB004AF786001217868FFF770FFC8
:10259000F0EE407A07F150030122B0EE670A42499B
:1025A000184609F05DFD07F1380307F150013F4A75
:1025B000184600F03FF940F23F117868FFF758FFE6
:1025C000F0EE407A07F168030122B0EE670A36495F
:1025D000184609F045FD07F1200307F1680207F1ED
:1025E0003801184600F08DF807F1080307F12001C3
:1025F0002F4A184600F01EF907F1200318460FF085
:1026000021FF07F1680318460FF01CFF07F138039C
:1026100018460FF017FF07F1500318460FF012FF8E
:102620007B6803F58043203307F108021946104602
:1026300000F030F90346002B2DD007F1080207F116
:1026400080031146184610F0F7F94FF6FF73C7F8EC
:1026500098300023C7F89C3007F1800207F19C03F3
:10266000029307F198030193124B00931346DF2264
:102670007321114801F023FE07F1800318460FF083
:10268000E1FE7B6803F58043203307F10802114621
:1026900018460FF0DDFE07F1080318460FF0D2FED2
:1026A00000BFA037BD4680BD486E0020DCE60208B2
:1026B000E0E60208680D0020600D002080B485B0BF
:1026C00000AFF860B9607A60FB6803F580431833A7
:1026D000BA681A60FB6803F580431C337A681A6095
:1026E00000BF1437BD465DF8047B704780B483B0EB
:1026F00000AF78607B6818460C37BD465DF8047BF8
:10270000704790B587B000AFF860B9607A60B8687C
:102710000FF0CEFE044678680FF0CAFE034623444D
:102720007B61B8680FF0C8FE02467B699A4208D206
:1027300078680FF0C1FE02467B699A4201D30123FB
:1027400000E00023FB74FB7C002B0AD0BA68002158
:10275000786810F03FF803461846FFF7C7FF0346B6
:1027600008E07968B86810F071F803461846FFF77A
:10277000BDFF03461946F8680FF04AFEF8681C379B
:10278000BD4690BD80B483B000AF78600523184685
:102790000C37BD465DF8047B704790B583B000AF41
:1027A00078603960786800F086F804467868FFF74A
:1027B000E9FF03463A681946204600F088F800BF52
:1027C0000C37BD4690BD80B483B000AF78603960EF
:1027D0003B685B007A68134418460C37BD465DF8C9
:1027E000047B704780B582B000AF786039607B6849
:1027F00039681846FFF7E7FF034618460837BD4615
:1028000080BD80B483B000AF786039603B6893EDE1
:10281000007A7B68D3ED007AB4EEE77AF1EE10FA35
:1028200001D53B6800E07B6818460C37BD465DF873
:10283000047B704780B584B000AFF860B9607A60FF
:102840007968B86810F01CF803461846FFF74EFF89
:1028500003461946F8680FF0DBFDF8681037BD46EF
:1028600080BD80B483B000AF786039607B6893ED41
:10287000007A3B68D3ED007AB4EEE77AF1EE10FA15
:1028800001D53B6800E07B6818460C37BD465DF813
:10289000047B704780B582B000AF786039603968DA
:1028A000786800F028F8034683F00103DBB218468D
:1028B0000837BD4680BD80B582B000AF78607868CB
:1028C00000F04EF8034618460837BD4680BD80B577
:1028D00084B000AFF860B9607A60F86800F04DF835
:1028E00003467A68B968184600F052F8034618465D
:1028F0001037BD4680BDB0B582B000AF786039609A
:1029000078680FF0D5FD044638680FF0D1FD034616
:102910009C4215D1786810F05AF80446386810F0D7
:1029200056F8054678680FF0C3FD03461A46294657
:102930002046FEF76BFB0346002B01D1012300E08C
:10294000002318460837BD46B0BD80B483B000AF41
:1029500078607B6818460C37BD465DF8047B70478D
:1029600080B582B000AF78607B681846FFF7EDFF56
:10297000034618460837BD4680BD80B483B000AF1B
:1029800078607B6818460C37BD465DF8047B70475D
:1029900080B487B000AFF860B9607A607B681B884C
:1029A0007B82BB687B617B69002B09D0FB687A8ADC
:1029B0001A807B69013B7B61FB680233FB60F2E7B5
:1029C000FB6818461C37BD465DF8047B7047000065
:1029D00080B483B000AF0346FB71094997F9073013
:1029E0005B0997F9072002F01F02012000FA02F2AA
:1029F00041F8232000BF0C37BD465DF8047B7047CB
:102A000000E100E080B483B000AF03463960FB71A1
:102A100097F90730002B0BDA0D49FB7903F00F0310
:102A2000043B3A68D2B21201D2B20B441A7609E0E2
:102A3000084997F907303A68D2B21201D2B20B4472
:102A400083F8002300BF0C37BD465DF8047B704758
:102A500000ED00E000E100E080B400AF5F4A5F4BB2
:102A60001B6B43F0040313635C4A5C4B1B6B43F02A
:102A700008031363594A594B1B6B43F0200313633C
:102A8000564A564B5B6C43F480135364544A544B80
:102A90001B6843F080631360514A514B9B6843F0BD
:102AA000806393604F4A4F4B1B6843F010031360E1
:102AB0004C4A4C4B9B6843F010039360484A484B88
:102AC0001B6843F080731360454A454BDB6843F055
:102AD0008073D360444A444B1B6843F40043136043
:102AE000414A414B9B6843F4404393603E4A3E4B0E
:102AF0001B6A43F0A04313623B4A3B4B1B6843F401
:102B000000331360384A384B9B6843F4403393607A
:102B1000354A354B5B6A43F005035362324A324B08
:102B20001B6843F4002313602F4A2F4B9B6843F428
:102B3000402393602C4A2C4B5B6A43F05003536252
:102B40002A4A2A4B1B889BB243F400739BB2138022
:102B5000264A264B1B889BB243F480739BB213809A
:102B6000224A224B1B889BB243F008039BB213807E
:102B70001E4A1E4B1B889BB243F004039BB213807A
:102B80001A4A1A4B1B889BB243F040039BB2138036
:102B9000124A124B1B6B43F480031363144A144B09
:102BA0001B6843F060631360114A114B1B6843F4C8
:102BB000005313600E4A0E4B1B6843F4006313600E
:102BC0000B4A0B4B1B6843F040031360084B094A48
:102BD0009A6000BFBD465DF8047B70470038024034
:102BE000000C024000080240001402400050014066
:102BF000A06402400C50014080B400AF784A784B8A
:102C00001B6C43F0010313644FF080424FF080438C
:102C10009B889BB243F040039BB293804FF080436C
:102C200013221A854FF080433122DA624FF080433D
:102C300031225A634FF080424FF080431B8C9BB28D
:102C400043F001039BB213844FF080424FF0804366
:102C50001B8B9BB243F060039BB213834FF0804207
:102C60004FF080431B889BB243F001039BB213805B
:102C70005B4A5B4B1B6B43F001031363584A584B91
:102C80001B6B43F004031363554A554B5B6C43F4D1
:102C900080735364534A534B1B6843F0C003136063
:102CA000514A514B1B6843F4406313604F4A4F4BEA
:102CB0005B6843F4807353604C4B4FF48012DA62CC
:102CC0004A4A4A4B5B6B43F00D035363474A474BF9
:102CD0005B6B43F0A0035363444A444BDB6843F40B
:102CE0004063D360414A414B1B6943F44033136155
:102CF0003E4A3E4B9B6843F4806393603B4A3B4BA8
:102D00009B6843F080539360384A384B9B6843F08C
:102D1000C0639360354A354B9B6843F4807393607E
:102D2000324A324B9B6843F4007393602C4A2C4B1D
:102D30001B6B43F4800313632D4A2D4B1B6823F058
:102D4000C00313602A4A2A4B1B6843F40033136004
:102D5000274A274B1B6843F400631360244A244B23
:102D60001B6843F400531360214A214B1B6823F472
:102D7000007313601E4A1E4B1B6843F4806313608C
:102D80001B4A1B4B1B6843F480731360184A184B93
:102D90001B6823F0C0031360154A154B5B6843F0B2
:102DA00008035360124B134A9A60114B124ADA60BF
:102DB0000F4A0F4B1B6823F0606313600C4A0C4BE7
:102DC0001B6843F001031360084A084B9B6843F0FB
:102DD0000103936000BFBD465DF8047B704700BFF0
:102DE000003802400008024000000240002001407C
:102DF000106402404C200140300D002080B500AF2F
:102E0000164A164B1B6C43F002031364144B322218
:102E10001A85134B4FF49672DA62114A104B9B8954
:102E20009BB243F001039BB293811D20FFF7D0FDBD
:102E300000211D20FFF7E6FD094A094B1B889BB2C4
:102E400043F001039BB21380054A054B9B8A9BB25A
:102E500043F001039BB2938200BF80BD0038024063
:102E60000004004080B500AF0E4A0E4B1B6C43F0CF
:102E7000040313640C4B0A221A850B4B4FF6FF72A6
:102E8000DA62094A084B9B899BB243F001039BB26B
:102E900093811E20FFF79CFD00211E20FFF7B2FD4D
:102EA00000BF80BD003802400008004080B400AF81
:102EB000094A094B1B6C43F008031364074B42F2A9
:102EC00010721A85054B4FF6FF72DA6200BFBD46DD
:102ED0005DF8047B704700BF00380240000C0040E2
:102EE00080B500AF6D4A6D4B1B6B43F0010313635C
:102EF0006A4A6A4B1B6B43F010031363674A674BC4
:102F00005B6C43F480435364654A654BDB6843F470
:102F10008043D360634A634BDB6843F48073D360C0
:102F2000604A604BDB6843F48033D3605D4A5D4B9D
:102F3000DB6843F48023D3605A4A5A4BDB6843F47E
:102F40008013D360574A574BDB6843F48003D36048
:102F5000554A554BDB68D360544A544B9B6843F049
:102F600080039360514A514BDB6843F08003D36088
:102F70004E4A4E4B1B6843F0800313604A4A4A4B4B
:102F8000DB6843F00403D360484A484B9B6843F036
:102F900010039360454A454BDB6843F01003D36050
:102FA000424A424B1B6843F0100313603E4A3E4BBB
:102FB0001B6943F0040313613C4A3C4B9B6843F498
:102FC00080739360394A394BDB6843F48073D36074
:102FD000364A364B1B6843F480731360324A324BD7
:102FE0001B6943F040031361304A304B9B6843F444
:102FF000007393602D4A2D4BDB6843F40073D3605C
:103000002A4A2A4B1B6843F400731360264A264B56
:103010001B6943F480631361244A244B9B6843F487
:1030200080639360214A214BDB6843F48063D36063
:103030001E4A1E4B1B6843F4806313601A4A1A4BE6
:103040001B6943F480431361184A184B9B6843F48F
:1030500000639360154A154BDB6843F40063D3604B
:10306000124A124B1B6843F40063136003210A20C9
:10307000FFF7C8FC0A20FFF7ABFC03211720FFF77E
:10308000C1FC1720FFF7A4FC03212820FFF7BAFC9E
:103090002820FFF79DFC00BF80BD00BF0038024024
:1030A000000002400010024000380140003C014096
:1030B00080B500AF214A214B1B6C43F400231364FD
:1030C0001F4A1F4B1B6843F4000313601C4A1C4B30
:1030D0005B6A43F4004353621A4A1A4B1B899BB242
:1030E00043F4B4639BB21381164A164B9B899BB27F
:1030F00023F480539BB29381124A124B9B899BB25B
:1031000043F004039BB293810E4A0E4B9B899BB202
:1031100043F020039BB2938103213420FFF772FC1C
:103120003420FFF755FC074A064B9B899BB243F4BA
:1031300000539BB2938100BF80BD00BF00380240A6
:1031400000080240004C004080B483B000AF7860BB
:103150007B6800221A707B68F0225A807B684FF4EB
:10316000A0729A807B680C4A083392E8030083E8D7
:1031700003007B68094A103392E8030083E80300E8
:103180007B68002283F898267B6818460C37BD467A
:103190005DF8047B704700BFE8E60208F0E602082D
:1031A00080B5FCB000AF3B1D1860E54AE44B5B8B7B
:1031B0009BB243F480539BB253833B1D44F6206182
:1031C000186800F0D7FBDE4ADD4B1B8B9BB243F443
:1031D00080539BB213833B1D44F62061186800F0B6
:1031E000C9FB07F10B0301221A7007F10B023B1D0B
:1031F0001146186800F0D6FB3B1D4CF250311868A0
:1032000000F0B8FB07F11803CE4A92E8030083E808
:10321000030007F12003184601F0C8F907F1200365
:1032200007F1180207F10C0006CA01F000FA07F1D5
:103230000C023B1D1146186800F040FB07F10C031F
:10324000184601F015FA07F12003184601F0BAF903
:1032500007F13003BC4A92E8030083E8030007F15A
:103260003803184601F0A2F907F1380307F13002DC
:1032700007F1240006CA01F0DAF907F124023B1D28
:103280001146186800F01AFB07F12403184601F0F4
:10329000EFF907F13803184601F094F907F14803F4
:1032A000AA4A92E8030083E8030007F15003184696
:1032B00001F07CF907F1500307F1480207F13C00E7
:1032C00006CA01F0B4F907F13C023B1D114618682B
:1032D00000F0F4FA07F13C03184601F0C9F907F1D0
:1032E0005003184601F06EF907F16003984A92E81E
:1032F000030083E8030007F16803184601F056F95C
:1033000007F1680307F1600207F1540006CA01F0F3
:103310008EF907F154023B1D1146186800F0CEFAF1
:1033200007F15403184601F0A3F907F168031846A2
:1033300001F048F907F17803864A92E8030083E830
:10334000030007F18003184601F030F907F180030C
:1033500007F1780207F16C0006CA01F068F907F17D
:103360006C023B1D1146186800F0A8FA07F16C03C7
:10337000184601F07DF907F18003184601F022F9A3
:1033800007F19003744A92E8030083E8030007F111
:103390009803184601F00AF907F1980307F1900223
:1033A00007F1840006CA01F042F907F184023B1DCF
:1033B0001146186800F082FA07F18403184601F0FC
:1033C00057F907F19803184601F0FCF807F1A80334
:1033D000624A92E8030083E8030007F1B00318464D
:1033E00001F0E4F807F1B00307F1A80207F19C002F
:1033F00006CA01F01CF907F19C023B1D1146186832
:1034000000F05CFA07F19C03184601F031F907F16E
:10341000B003184601F0D6F807F1C003504A92E80D
:10342000030083E8030007F1C803184601F0BEF863
:1034300007F1C80307F1C00207F1B40006CA01F0A2
:10344000F6F807F1B4023B1D1146186800F036FA91
:1034500007F1B403184601F00BF907F1C803184649
:1034600001F0B0F807F1D8033E4A92E8030083E880
:10347000030007F1E003184601F098F807F1E003B4
:1034800007F1D80207F1CC0006CA01F0D0F807F125
:10349000CC023B1D1146186800F010FA07F1CC036E
:1034A000184601F0E5F807F1E003184601F08AF844
:1034B00007F1F0032C4A92E8030083E8030007F1C8
:1034C000F803184601F072F807F1F80307F1F0026B
:1034D00007F1E40006CA01F0AAF807F1E4023B1D77
:1034E0001146186800F0EAF907F1E403184601F004
:1034F000BFF807F1F803184601F064F81B4A07F516
:10350000847392E8030083E8030007F58873184684
:1035100001F04CF807F5887307F1FC0007F5847299
:1035200006CA01F084F807F1FC023B1D1146186839
:1035300000F0C4F907F1FC03184601F099F817E010
:10354000000C0240F8E6020800E7020808E702085B
:1035500010E7020818E7020820E7020828E7020837
:1035600030E7020838E7020840E7020848E70208A7
:1035700007F58873184601F025F8C64A07F59073D9
:1035800092E8030083E8030007F59473184601F0FE
:103590000DF807F5947307F58A7007F5907206CA5F
:1035A00001F045F807F58A723B1D1146186800F0D6
:1035B00085F907F58A73184601F05AF807F59473F0
:1035C000184600F0FFFFB44A07F59C7392E8030029
:1035D00083E8030007F5A073184600F0E7FF07F53E
:1035E000A07307F5967007F59C7206CA01F01FF8E4
:1035F00007F596723B1D1146186800F05FF907F554
:103600009673184601F034F807F5A073184600F0D9
:10361000D9FFA24A07F5A87392E8030083E80300E4
:1036200007F5AC73184600F0C1FF07F5AC7307F55A
:10363000A27007F5A87206CA00F0F9FF07F5A2729A
:103640003B1D1146186800F039F907F5A2731846BA
:1036500001F00EF807F5AC73184600F0B3FF904A7E
:1036600007F5B47392E8030083E8030007F5B87325
:10367000184600F09BFF07F5B87307F5AE7007F525
:10368000B47206CA00F0D3FF07F5AE723B1D1146B7
:10369000186800F013F907F5AE73184600F0E8FF5C
:1036A00007F5B873184600F08DFF7E4A07F5C07322
:1036B00092E8030083E8030007F5C473184600F09E
:1036C00075FF07F5C47307F5BA7007F5C07206CA2F
:1036D00000F0ADFF07F5BA723B1D1146186800F007
:1036E000EDF807F5BA73184600F0C2FF07F5C4738A
:1036F000184600F067FF6C4A07F5CC7392E80300A8
:1037000083E8030007F5D073184600F04FFF07F574
:10371000D07307F5C67007F5CC7206CA00F087FFB4
:1037200007F5C6723B1D1146186800F0C7F807F58B
:10373000C673184600F09CFF07F5D073184600F0DA
:1037400041FF5A4A07F5D87392E8030083E8030063
:1037500007F5DC73184600F029FF07F5DC7307F561
:10376000D27007F5D87206CA00F061FF07F5D27271
:103770003B1D1146186800F0A1F807F5D2731846F2
:1037800000F076FF07F5DC73184600F01BFF484A8F
:1037900007F5E47392E8030083E8030007F5E87394
:1037A000184600F003FF07F5E87307F5DE7007F52C
:1037B000E47206CA00F03BFF07F5DE723B1D1146BE
:1037C000186800F07BF807F5DE73184600F050FF2C
:1037D00007F5E873184600F0F5FE364A07F5F07372
:1037E00092E8030083E8030007F5F473184600F03D
:1037F000DDFE07F5F47307F5EA7007F5F07206CA07
:1038000000F015FF07F5EA723B1D1146186800F03D
:1038100055F807F5EA73184600F02AFF07F5F47328
:10382000184600F0CFFE112387F8EB3107F2EB12B8
:103830003B1D1146186800F0B5F83B1D1E4918687D
:1038400000F098F8292387F8EC3107F5F6723B1D54
:103850001146186800F0A6F82C2387F8ED3107F21E
:10386000ED123B1D1146186800F09CF83B1D03212A
:10387000186800F047F90023A7F8EE3107F5F77252
:103880003B1D1146186800F095F900BF07F5F87761
:10389000BD4680BD50E7020858E7020860E702080D
:1038A00068E7020870E7020878E7020880E7020884
:1038B00088E7020890E7020840420F0090B585B003
:1038C00000AF78603960274B5B68002B11D1264B25
:1038D0005B68002B0DD1254B1B899BB203F00303C2
:1038E000002B06D0214B1B899BB203F08003002BD9
:1038F00001D0012300E00023002B00D0E3E70021EA
:10390000386800F0D0FE03461946786800F04AF89F
:10391000174A174B1B8B9BB243F400539BB2138384
:103920000123FB73FC7B386800F0CCFE03469C420D
:1039300034BF01230023DBB2002B0ED0FB7B1946E2
:10394000386800F0B0FE03461B781946786800F02E
:1039500079FDFB7B0133FB73E4E700BF1437BD4601
:1039600090BD00BF88640240A06402400050014046
:10397000000C024080B483B000AF786039603B68CF
:10398000002B14BF01230023DBB2002B03D03B68C4
:10399000013B3B60F3E700BF0C37BD465DF8047B9D
:1039A0007047000080B582B000AF78603960174B77
:1039B0005B68002B11D1164B5B68002B0DD1154BAA
:1039C0001B899BB203F00303002B06D0114B1B890C
:1039D0009BB203F08003002B01D0012300E0002301
:1039E000002B00D0E3E70C4A0B4B5B8B9BB243F4FC
:1039F00000539BB253833B681B781946786800F0EC
:103A000021FD00BF0837BD4680BD00BF886402406D
:103A1000A064024000500140000C024080B582B01A
:103A200000AF78603960094A084B1B8B9BB243F4A6
:103A300000539BB213833B681B781946786800F0EB
:103A400001FD00BF0837BD4680BD00BF000C02402D
:103A500080B582B000AF786039600D4A0C4B1B8B8B
:103A60009BB243F400539BB213833B681B881B1229
:103A7000DBB21946786800F0E5FC3B681B88DBB2D6
:103A80001946786800F0DEFC00BF0837BD4680BDEF
:103A9000000C024080B586B000AFF86008461146C1
:103AA0001A4603467B810B463B811346FB802A2343
:103AB000BB7507F116031946F868FFF773FF07F1A6
:103AC0000A031946F868FFF7C3FFBB1D1946F868DB
:103AD000FFF7BEFF2B23FB7507F117031946F868A4
:103AE000FFF760FF07F108031946F868FFF7B0FF1A
:103AF00007F12001F868FFF7ABFF00BF1837BD469C
:103B000080BD000080B584B000AF78600B46FB70CC
:103B10003623FB7207F10B0319467868FFF742FF63
:103B2000FB78032B2AD801A252F823F03D3B000872
:103B30004D3B00085D3B00086D3B000858233B737C
:103B400007F10C0319467868FFF768FF88237B7339
:103B500007F10D0319467868FFF760FF2823BB7350
:103B600007F10E0319467868FFF758FFE823FB7347
:103B700007F10F0319467868FFF750FF7B68FA7862
:103B80001A70FB78002B02D0FB78012B07D17B68E1
:103B9000F0225A807B684FF4A0729A8006E07B681E
:103BA0004FF4A0725A807B68F0229A8000BF1037D1
:103BB000BD4680BD80B584B002AF786039607B6857
:103BC0005B88013B99B27B689B88013B9BB23A685A
:103BD000019200930B4600220021786800F004F85F
:103BE00000BF0837BD4680BD80B58AB002AFF8601F
:103BF000084611461A4603467B810B463B81134615
:103C0000FB80FA887B89D31A0133398D3A898A1A65
:103C1000013202FB03F3FB61F8883A8979893B8D15
:103C200000930346F868FFF735FF2C23BB7507F1B7
:103C300016031946F868FFF7B5FE274A264B1B8B7B
:103C40009BB243F400539BB213830123FB7507F12E
:103C500017031946F86800F0C3FBFB694FF6FF72C3
:103C6000934228BF13469BB23B8307F118031A46C1
:103C7000F96AF86800F046FCFB69B3F5803F27D38A
:103C8000164B5B68002B11D1154B5B68002B0DD1D7
:103C9000144B1B899BB203F00303002B06D0114B7E
:103CA0001B899BB203F08003002B01D0012300E0AD
:103CB0000023002B00D0E3E7FB699BB201339BB2EA
:103CC0007B8307F11A031A46F96AF86800F01AFCB8
:103CD00000BF2037BD4680BD000C02408864024012
:103CE000A06402400050014080B588B002AFF86087
:103CF000084611461A4603467B810B463B81134614
:103D0000FB80FA887B89D31A0133398C3A898A1A65
:103D1000013202FB03F37B61F8883A8979893B8C95
:103D200000930346F868FFF7B5FE2C23BB7407F138
:103D300012031946F868FFF735FE194A184B1B8B1A
:103D40009BB243F400539BB213830123FB7407F12E
:103D500013031946F86800F043FB124B4FF474123A
:103D6000DA60114A104B1B6843F4806313600E4AFB
:103D70007B6953600C4A7B6AD3600B4A0A4B1B6811
:103D800043F001031360094A084B9B889BB243F040
:103D900002039BB2938000BF1837BD4680BD00BFB1
:103DA000000C024000640240A06402400050014048
:103DB00080B588B002AFF8607B600B467B8113460C
:103DC0003B8178893A8979893B8900930346F86871
:103DD000FFF760FE2C23FB7507F117031946F868FF
:103DE000FFF7E0FD7968F868FFF732FE00BF18378B
:103DF000BD4680BD80B58AB002AFF8600846114666
:103E00001A4603467B810B463B811346FB807B8928
:103E1000FA685288934203DBFB685B88013B7B8135
:103E2000FB88FA685288934203DBFB685B88013B9E
:103E3000FB803B89FA689288934203DBFB689B888E
:103E4000013B3B813B8DFA689288934203DBFB6820
:103E50009B88013B3B857A89FB889A4205DD7B89FB
:103E6000BB83FB887B81BB8BFB803A893B8D9A426D
:103E700005DD3B89BB833B8D3B81BB8B3B85FA8852
:103E80007B89D31A9BB27B833A8D3B89D31A9BB231
:103E90003B83B7F91A30002B03D0B7F91830002B49
:103EA00010D1FB6A1B689BB2BB82F8883A8979897A
:103EB00007F1140301933B8D00930346F868FFF765
:103EC00093FE46E0B7F91A20B7F918309A4206DD9A
:103ED000B7F91A30DA0F13445B101BB206E0B7F9DA
:103EE00018305B42DA0F13445B101BB2FB83FB6A92
:103EF0001B689BB2FB8207F116033A897989F8683F
:103F0000FFF756FF7A89FB889A4203D13A893B8DA5
:103F10009A421DD0B7F91E20B7F91A305B429A4277
:103F200007DDFA8B3B8BD31A9BB2FB837B89013372
:103F30007B81B7F91E20B7F918309A42D7DAFA8B8D
:103F40007B8B13449BB2FB833B8901333B81CEE7E0
:103F500000BF2037BD4680BD80B58AB002AFF86093
:103F6000084611461A4603467B810B463B811346A1
:103F7000FB807B89FA685288934203DBFB685B888D
:103F8000013B7B81FB88FA685288934203DBFB6824
:103F90005B88013BFB803B89FA689288934203DB94
:103FA000FB689B88013B3B813B8DFA68928893427A
:103FB00003DBFB689B88013B3B857A89FB889A423F
:103FC00005DD7B89FB83FB887B81FB8BFB803A894A
:103FD0003B8D9A4205DD3B89FB833B8D3B81FB8B0F
:103FE0003B85FB6A1B689BB2FB82F8883A8979891A
:103FF00007F1160301933B8900930346F868FFF726
:10400000F3FDFB6A1B689BB23B8378893A89798907
:1040100007F1180301933B8D00930346F868FFF7FF
:10402000E3FDFB6A1B689BB27B83F8883A8D798934
:1040300007F11A0301933B8D00930346F868FFF7DD
:10404000D3FDFB6A1B689BB2BB83F8883A89F98869
:1040500007F11C0301933B8D00930346F868FFF7BB
:10406000C3FD00BF2037BD4680BD000090B589B0BC
:1040700002AFF860084611461A4603467B810B469C
:104080003B811346FB717B89BA6A12781344FA6844
:104090005288934207DDBB6A5B789AB23B8913442E
:1040A0003B8100237B8100237B820023BB82BB8A70
:1040B000BA6A527893424CDABB6A5A68FB79203B61
:1040C000B96A497801FB03F1BB8A0B445B001344D6
:1040D0001B883B820023FB82FB8ABA6A12789342D8
:1040E00033DA3A8AFB8A02FA03F303F40043002B23
:1040F00012D0FB6893F898361C467A8AFB6A1B68D4
:1041000098B2FB684FF4D07101FB04F10A440C3201
:10411000014623F8121011E0FB6893F898361C460C
:104120007A8A3B6B1B6898B2FB684FF4D07101FB35
:1041300004F10A440C32014623F812107B8A013341
:104140007B82FB8A0133FB82C6E7BB8A0133BB82D9
:10415000ADE7284B5B68002B11D1274B5B68002B28
:104160000DD1264B1B899BB203F00303002B06D015
:10417000224B1B899BB203F08003002B01D001234B
:1041800000E00023002B00D0E3E7BB6A1B789AB263
:104190007B8913449BB2013B9CB2BB6A5B789AB2A9
:1041A0003B8913449BB2013B9BB2FA6892F8982674
:1041B00011464FF4507202FB01F21832F9680A44BA
:1041C000388979890192009323460246F868FFF7FF
:1041D0008BFDFB6893F89836012B14BF0123002355
:1041E000DBB21A46FB6883F8982600BF1C37BD4631
:1041F00090BD00BF88640240A064024000500140AE
:1042000080B487B000AFF860084611461A460346EE
:104210007B810B463B811346FB800023BB82BB8A1C
:10422000BA6A5278934244DA3A89BB8A13449BB201
:10423000FA8812FB03F39AB27B8913447B82BB6A30
:104240005A6897F82430203BB96A497801FB03F19A
:10425000BB8A0B445B0013441B883B820023FB8218
:10426000FB8ABA6A127893421FDA3A8AFB8A02FA08
:1042700003F303F40043002B08D07B8A5B003A6A07
:104280001344FA6A126892B21A8007E07B8A5B00D4
:104290003A6A13443A6B126892B21A807B8A0133ED
:1042A0007B82FB8A0133FB82DAE7BB8A0133BB8264
:1042B000B5E700BF1C37BD465DF8047B704780B58D
:1042C0008CB004AFF8607B600B467B8113463B816A
:1042D0007B68FB61F8690EF0E6F803467B61F869DC
:1042E0000EF0E3F803463B6107F1100207F11403F7
:1042F0001146184600F0F6F90346002B1FD007F1CF
:104300001403184600F016FAB861BB6918783A89A8
:1043100079893B6B0293FB6A0193BB6A0093034666
:10432000F868FFF7A3FEBB6A1B789AB27B89134437
:104330007B8107F11403184600F0ECF9D4E700BFC5
:104340002037BD4680BD90B58FB006AFF8600846F7
:1043500011461A4603467B810B463B811346FB8080
:104360007B6BFB61F8690EF09EF803467B61F86990
:104370000EF09BF803463B6107F1100207F11403AE
:104380001146184600F0AEF90346002B24D007F181
:104390001403184600F0CEF9B861BB691B78FC889D
:1043A000388979893A6C0492FA6B0392BA6B02925B
:1043B00001933B6B009323460246F868FFF720FF0A
:1043C000BB6B1B789AB27B8913447B8107F1140382
:1043D000184600F09FF9CFE700BF2437BD4690BDD7
:1043E00080B483B000AF78603960154A144B1B88E5
:1043F0009BB223F040039BB213803B681B78012BD8
:1044000008D10F4A0E4B1B889BB243F400639BB24A
:10441000138007E00A4A0A4B1B889BB223F400630F
:104420009BB21380064A064B1B889BB243F04003A5
:104430009BB2138000BF0C37BD465DF8047B70470C
:104440000050014080B584B000AF78600B46FB702F
:10445000294B5B68002B11D1284B5B68002B0DD1D9
:10446000274B1B899BB203F00303002B06D0244B80
:104470001B899BB203F08003002B01D0012300E0D5
:104480000023002B00D0E3E71D4B1B889BB203F4F5
:104490000063002B14BF01230023DBB2002B07D0E5
:1044A0000023FB7307F10F0319467868FFF798FFA5
:1044B000134BFA7892B29A810F4B5B68002B11D1A3
:1044C0000E4B5B68002B0DD10D4B1B899BB203F08B
:1044D0000303002B06D00A4B1B899BB203F0800319
:1044E000002B01D0012300E00023002B00D0E3E7E4
:1044F00000BF1037BD4680BD88640240A064024002
:104500000050014080B485B000AFF860B9607A60B7
:10451000224B5B68002B11D1214B5B68002B0DD126
:10452000204B1B899BB203F00303002B06D01D4BCD
:104530001B899BB203F08003002B01D0012300E014
:104540000023002B00D0E3E7BB681A88FB68DA8001
:10455000154B4FF47412DA60114A114B1B6823F4A7
:10456000806313600E4A7B681B8853600C4AFB68AB
:104570000633D3600A4A0A4B1B6843F001031360F9
:10458000084A084B9B889BB243F002039BB293807E
:1045900000BF1437BD465DF8047B70478864024055
:1045A000A0640240005001400064024080B582B027
:1045B00000AF7860786800F0C9F87B681846083763
:1045C000BD4680BD80B582B000AF7860786800F0ED
:1045D000C8F87B6818460837BD4680BD80B483B0F4
:1045E00000AF78607B681B6818460C37BD465DF8E5
:1045F000047B704780B483B000AF78607B685B68F1
:1046000018460C37BD465DF8047B704790B583B003
:1046100000AF78607868FFF7E1FF04467868FFF73D
:10462000E9FF0346234418460C37BD4690BDB0B59C
:1046300086B000AFF860381D80E806003B60FB687C
:104640003968184600F0A4F83B1D1846FFF7C6FF6E
:1046500004463B1D1846FFF7D9FF02462B4621466C
:10466000F86800F0BDF8FB6818461837BD46B0BDC5
:10467000B0B582B000AF78607B681C687B685D680D
:104680007B68184600F0DAF803461A4629462046A9
:1046900000F0DFF87B68184600F089F87B68184660
:1046A0000837BD46B0BD80B483B000AF78603960D4
:1046B0007B681A683B68134418460C37BD465DF8A2
:1046C000047B704780B483B000AF78607B685B6820
:1046D0001A467B681B68D31A18460C37BD465DF82E
:1046E000047B704790B583B000AF7860396078681C
:1046F00000F0BDF803461C68386800F0B8F80346BF
:104700001B689C4214BF01230023DBB218460C3700
:10471000BD4690BD80B483B000AF78607B681B68F5
:104720005A1C7B681A607B6818460C37BD465DF8DA
:10473000047B704780B483B000AF78607B681B68EF
:1047400018460C37BD465DF8047B704780B483B0D3
:1047500000AF78607B6818460C37BD465DF8047B77
:10476000704780B483B000AF78607B6818460C3720
:10477000BD465DF8047B704780B582B000AF7860BD
:104780007868FFF71FFF7B6818460837BD4680BD75
:1047900080B582B000AF786039607B6839681846B0
:1047A00000F070F87B6818460837BD4680BD80B5BC
:1047B00082B000AF78607B6819687B689B681A4696
:1047C0007B681B68D31A1A46786800F072F87B6819
:1047D0001846FFF7D1FF7B6818460837BD4680BDF5
:1047E00090B587B000AFF860B9607A603B707968C7
:1047F000B86800F071F803467B61FB687969184678
:1048000000F07EF80246FB681A60FB681A687B6954
:104810001A44FB689A60FB681C68FB68184600F045
:104820000DF8034622467968B86800F07DF8024624
:10483000FB685A6000BF1C37BD4690BD80B483B092
:1048400000AF78607B6818460C37BD465DF8047B86
:10485000704780B584B000AFF860B9607A60B9681D
:10486000F86800F072F800BF1037BD4680BD80B414
:1048700083B000AF78607B6818460C37BD465DF8A2
:10488000047B704780B582B000AF786039603968CA
:10489000786800F067F87B6800221A607B68002265
:1048A0005A607B6800229A607B6818460837BD46CC
:1048B00080BD80B584B000AFF860B9607A60BB6835
:1048C000002B05D0FB687A68B968184600F058F8E4
:1048D00000BF1037BD4680BDB0B584B000AF786072
:1048E00039607C683B1D184600F059F82A46396843
:1048F000204600F05EF8034618461037BD46B0BDAE
:1049000080B582B000AF786039603B68002B06D07C
:104910007B683968184600F05BF8034600E0002326
:1049200018460837BD4680BD80B584B000AFF8603A
:10493000B9607A603B607A68B968F86800F057F847
:10494000034618461037BD4680BD80B582B000AF23
:10495000786039603968786800F05BF800BF083724
:10496000BD4680BD80B582B000AF786039603968DF
:10497000786800F059F87B6818460837BD4680BD56
:1049800080B584B000AFF860B9607A607A68B968C1
:10499000F86800F055F800BF1037BD4680BD80B400
:1049A00083B000AF786018460C37BD465DF8047BD5
:1049B000704780B485B000AFF860B9603A71BA68EA
:1049C000FB68D31A18461437BD465DF8047B704760
:1049D00080B582B000AF78603960002239687868AD
:1049E00000F03BF8034618460837BD4680BD80B549
:1049F00086B000AFF860B9607A600123FB757A6811
:104A0000B968F86800F045F8034618461837BD46FF
:104A100080BD80B483B000AF7860396000BF0C37D0
:104A2000BD465DF8047B704780B483B000AF78600A
:104A300039607B6818460C37BD465DF8047B7047CB
:104A400080B584B000AFF860B9607A60B86807F0EC
:104A500057FD00BF1037BD4680BD80B584B000AFA4
:104A6000F860B9607A60F86800F023F80246BB6825
:104A70009A4234BF01230023DBB2002B01D015F092
:104A800024F8B86807F043FD034618461037BD46C2
:104A900080BD80B584B000AFF860B9607A607A6894
:104AA000B968F86800F011F8034618461037BD469B
:104AB00080BD80B483B000AF78604FF0FF331846FC
:104AC0000C37BD465DF8047B704790B585B000AFEC
:104AD000F860B9607A60F86800F00FF80446B868CA
:104AE00000F00BF803467A681946204600F010F8EB
:104AF000034618461437BD4690BD80B483B000AF5E
:104B000078607B6818460C37BD465DF8047B7047BB
:104B1000B0B584B000AFF860B9607A60F86800F0B2
:104B200013F80446B86800F00FF80546786800F0FE
:104B300016F803461A462946204600F01BF803469D
:104B400018461037BD46B0BD80B483B000AF786062
:104B50007B6818460C37BD465DF8047B704780B40F
:104B600083B000AF78607B6818460C37BD465DF8AF
:104B7000047B704780B586B000AFF860B9607A609A
:104B80000123FB757A68B968F86800F005F80346F8
:104B900018461837BD4680BD80B586B000AFF860B6
:104BA000B9607A60BA68FB68D31A7B617B69002BB5
:104BB00005D07B691A46F968786823F077F97B6934
:104BC0007A68134418461837BD4680BD80B483B058
:104BD00000AF786039603B6818460C37BD465DF819
:104BE000047B704780B483B000AF78607B68B3F516
:104BF000007F05D24FF400727B68B2FBF3F300E054
:104C0000012318460C37BD465DF8047B704780B51C
:104C100082B000AF78607B68203318460DF012FC3C
:104C20007B68043318460DF00DFC7B681846083786
:104C3000BD4680BD90B5ADF52F7D00AF3B1D186022
:104C40003B1D1B681C1D07F1140300221A7007F599
:104C5000CE73184607F074FC07F5CE7207F1140303
:104C60000433DF4918460DF019FF07F11403002241
:104C70001A7707F11403203318460DF0B9FB07F13A
:104C80001403012283F8382007F5D073184607F083
:104C900057FC07F5D07207F114033C33D14918468D
:104CA0000DF0FCFE07F11403012283F8542007F1F4
:104CB0001403583318460DF09BFB07F1140302222E
:104CC00083F8702007F5D273184607F039FC07F512
:104CD000D27207F114037433C34918460DF0DEFE97
:104CE00007F11403042283F88C2007F11403903396
:104CF00018460DF07DFB07F11403032283F8A8206A
:104D000007F5D473184607F01BFC07F5D47207F1BA
:104D10001403AC33B54918460DF0C0FE07F1140377
:104D2000062283F8C42007F11403C83318460DF097
:104D30005FFB07F11403042283F8E02007F5D67324
:104D4000184607F0FDFB07F5D67207F11403E433AC
:104D5000A74918460DF0A2FE07F11403052283F8B7
:104D6000FC2007F1140303F5807318460DF040FB97
:104D700007F11403052283F8182107F5D8731846A4
:104D800007F0DEFB07F5D87207F1140303F58E7305
:104D9000984918460DF082FE07F11403022283F8A9
:104DA000342107F1140303F59C7318460DF020FB22
:104DB00007F11403052283F8502107F5DA7318462A
:104DC00007F0BEFB07F5DA7207F1140303F5AA73C7
:104DD000894918460DF062FE07F11403032283F897
:104DE0006C2107F1140303F5B87318460DF000FBAE
:104DF00007F10C0307F114021A6007F10C030722F4
:104E00005A6007F5DC73184601F02CFF07F5DC73D8
:104E100007F10C0206CA204601F069FF07F5DC73B2
:104E2000184601F02BFF07F1140404F5C47407F1D0
:104E300014039C4204D0383C2046FFF7E8FEF6E716
:104E400007F5DA73184607F07CFB07F5D8731846A8
:104E500007F077FB07F5D673184607F072FB07F5E6
:104E6000D473184607F06DFB07F5D273184607F0A8
:104E700068FB07F5D073184607F063FB07F5CE73A0
:104E8000184607F05EFB3B1D1B6803F1100400236E
:104E900087F8C43107F52973184607F051FB07F569
:104EA000297207F5E27304334D4918460DF0F6FDFB
:104EB000002387F8E03107F5E273203318460DF040
:104EC00097FA012387F8FC3107F52A73184607F093
:104ED00037FB07F52A7207F5E2733C334149184660
:104EE0000DF0DCFD012387F8183207F5E273583323
:104EF00018460DF07DFA022387F8343207F52B733C
:104F0000184607F01DFB07F52B7207F5E2737433A3
:104F10003A4918460DF0C2FD072387F8503207F5CD
:104F2000E273903318460DF063FA032387F86C326E
:104F300007F52C73184607F003FB07F52C7207F5ED
:104F4000E273AC332E4918460DF0A8FD082387F80C
:104F5000883207F5E273C83318460DF049FA07F5B1
:104F6000E273C7F8BC310423C7F8C03107F52D73CD
:104F7000184601F077FE07F52D7307F5DE7206CAB5
:104F8000204601F0B4FE07F52D73184601F076FEB9
:104F900007F5E274E03407F5E2739C4204D0383C34
:104FA0002046FFF734FEF6E707F52C73184607F0A6
:104FB000C8FA07F52B73184607F0C3FA07F52A73EA
:104FC000184607F0BEFA07F52973184607F0B9FA34
:104FD0003B1D1B68184607F52F77BD4690BD00BFE7
:104FE00098E70208A8E70208B4E70208C0E7020849
:104FF000CCE70208D8E70208E4E70208F4E7020871
:1050000000E8020880B582B000AF78607B6818467F
:1050100001F0B6FE7B6818460837BD4680BD00002B
:10502000B0B58CB000AF78607C6807F10803184613
:1050300001F099FE07F108031946204601F0D0FE61
:1050400007F10803184601F09BFE7B68002283F8F5
:1050500028207B682C33184601F0D5FE7B68074A70
:1050600003F1600415460FCD0FC495E80F0084E8E6
:105070000F007B6818463037BD46B0BD08E802080F
:1050800080B588B000AFF860B960FB681B889BB240
:1050900007EE903AB8EEE77A264BD3ED007A27EE8A
:1050A000277A254B1B881BB207EE903AF8EEE77A79
:1050B00037EE277ADFED216AC7EE267AB6EE007A60
:1050C00037EEC77A1E4B1B785BB207EE903AF8EECC
:1050D000E76AB2EE006AC6EE267A67EE277AB6EE87
:1050E000007A77EE877A9FED177A67EE877AC7EDB9
:1050F000057A154BBB6107F1180207F1140311463D
:105100001846FDF77EFB02464FF07E53FB6107F128
:105110001C0319461046FDF7A4FB0346D3ED007AA5
:10512000FCEEE77AC7ED017ABB889BB218462037C0
:10513000BD4680BD0800002004000020000080461D
:105140000C000020000057430000564380B483B099
:1051500000AF0D4B1B881BB2C3F5005307EE903A0E
:10516000F8EEE76A094B93ED007AC6EE877AFCEE1B
:10517000E77AC7ED017ABB889BB218460C37BD466B
:105180005DF8047B704700BF040000200800002089
:1051900080B483B000AF0346FB80154B1B6807EE5D
:1051A000903AB8EE677AFB8807EE903AF8EEE77A25
:1051B00077EEA76A0F4B1B8D9BB2013307EE903A37
:1051C000F8EEE77A66EEA76A0A4BDB6A013307EE70
:1051D000903AF8EE677A66EEA77AC7EE276AF0EEA5
:1051E000667AB0EE670A0C37BD465DF8047B7047FF
:1051F000200000200004004090B583B000AF864A34
:10520000854B1B8A9BB223F001039BB21382834B15
:105210001B78012B04D0814B1B78022B40F08D8032
:105220007F4B03F500531A887E4B1B889BB29A4232
:1052300006D17D4B1B78DBB2002B01D0012300E0AF
:105240000023002B0DD0794B1B78DBB21A46744B30
:10525000134403F500530E3301221A70724B0022DF
:105260001A70714B1B78DBB2002B00F023836C4B60
:1052700003F5005310331B78002B2BD16B4B1B789D
:10528000DBB21846674B1B889BB21946684B1B88DC
:105290009BB21A46664B9B889BB21344644A1289A0
:1052A00092B21344624A928992B2134407EE903A42
:1052B000B8EEE77AF1EE006AC7EE267A9FED5D7AE6
:1052C00077EE677A564A83020B449B001344C3ED82
:1052D000007A2AE0554B1B78DBB21846514B1B88ED
:1052E0009BB21946524B5B889BB21A46504BDB88E7
:1052F0009BB213444E4A528992B213444C4AD2890B
:1053000092B2134407EE903AB8EEE77AF1EE006AF3
:10531000C7EE267A9FED477A77EE677A404A830296
:105320000B449B001344C3ED007A3E4B1B889BB299
:1053300001339AB23B4B1A80BCE2384B1B78032BEB
:1053400040F03281364B03F5005310331B78002BAD
:1053500014D1374B1B889AB2354B9B889BB21344B0
:105360009AB2334B1B899BB213449AB2304B9B8940
:105370009BB213449AB2304B1A8013E02C4B5B88DB
:105380009AB22B4BDB889BB213449AB2284B5B89B1
:105390009BB213449AB2264BDB899BB213449AB258
:1053A000254B1A80204B1B78DBB283F00103DBB264
:1053B000002B23D0214B1B889BB21A46204B1B8805
:1053C0009BB29A421ADA1C4B1B889BB21A461C4BA2
:1053D0001B889BB29A4211DB1A4B1B78DBB283F01D
:1053E0000103DBB2002B07D1164B5B78DBB283F0F5
:1053F0000103DBB2002B01D0012300E00023002BCE
:1054000030D0094B01221A700E4B1B78DBB2002BF7
:105410001AD0012219E000BF000400405C0D0020FA
:10542000FC130020FE0C0020050D00200C0D0020B8
:10543000300D002000E0FF44F80C0020FC0C0020A0
:105440000E000020180D00200022994B1A70994B75
:1054500000221A80964B1B78DBB21A46964B00212D
:1054600023F81210954B1B78DBB2002B00F09680CE
:105470008F4B1B78DBB219468E4B1B889BB21C46A8
:105480008F4B1B8898B28F4A0B469B000B449B01A5
:105490002344014622F81310864B1B889BB2002B35
:1054A00013DD894B1B889BB21A46884B1B889BB225
:1054B0009A420ADA824B1B889BB21A46834B1B889E
:1054C0009BB29A4201DB012300E00023002B49D06C
:1054D000774B1B78DBB21A46764B1B8899B2764B1A
:1054E00023F81210724B1B78DBB21A46784B01215D
:1054F00099546F4B1B78DBB21C466E4B1B889BB2DA
:105500001846FFF745FEF0EE407A724AA3001344B6
:10551000C3ED007A694B00221A70664B1B889BB260
:105520001A4640F217139A42D4BF01230023DBB27C
:10553000002B33D05F4B1B889BB21A46664BDB6A4D
:10554000013303FB02F3DB08644AA2FB03235B087D
:10555000FB80B7F90630002B20DD5F4AB7F9063033
:10556000D3621BE0534B1B889BB240F23F12934225
:105570000CBF01230023DBB2002B08D04F4B0022CD
:105580001A70554A544BDB6A1E33D36206E0494B0E
:105590001B889BB201339AB2464B1A80484B1B883A
:1055A0009AB2494B1A8085E14D4B1B78002B40F095
:1055B00081814C4B1B889AB24A4B9B889BB2134407
:1055C0009AB2484B1B899BB213449AB2454B9B89B4
:1055D0009BB213449AB23A4B1A80424B5B889AB200
:1055E000404BDB889BB213449AB23E4B5B899BB223
:1055F00013449AB23B4BDB899BB213449AB23A4BA9
:105600001A802E4B1B78DBB283F00103DBB2002B38
:105610002ED0364B1B78DBB283F00103DBB2002BBC
:1056200007D1234B1B78DAB2314B1B78DBB29A429D
:105630001ED0304B1B79022B18D02F4B1B889BB2EE
:105640001A462C4B1B889A4212DD1F4B1B889BB2BB
:105650001A46284B5B889A420ADA264B9B681B88BD
:105660009BB21A46234B5B889A4201DB012300E080
:105670000023002B7ED0114B01221A701D4B1B7989
:10568000022B3FD10B4B00221A80094B1B78DBB257
:105690001A461A4B002123F81210054B1B78DBB277
:1056A0001A46174B4FF6FF7123F8121062E000BF45
:1056B0000C0D0020FE0C0020480D0020050D0020E0
:1056C000F80C0020F4020020FC0C00200E0000204A
:1056D000180D0020540D0020000400400FEAA00E19
:1056E0005C0D0020300D0020FA0C0020060D00207B
:1056F0000D0D002010000020020D0020140D0020D0
:105700001C0D00206D4B1B78DBB219466C4B1B88BF
:105710009AB26C4B1B88D31A9BB21AB26A4B23F80D
:105720001120664B1B78DBB21A46674B33F81230F8
:105730001BB29BB2DB0BDBB2002B10D05F4B1B7894
:10574000DBB21A461946604B33F811301BB29BB2DC
:1057500003F5A0739BB219B25B4B23F81210574BA1
:105760001B78DBB21A46574B1B88013B99B2574B4B
:1057700023F81210564B1B78DBB2002B0DD04F4B89
:105780001B78DBB21A46514B33F812309BB240F211
:105790003F12934201D1012300E00023002B10D0DF
:1057A000464B1B78DBB2012B14BF01230023DBB275
:1057B0001A46424B1A70474B00221A80444B002273
:1057C0001A70434B1B78DBB2002B0FD1424B1B7876
:1057D000DBB283F00103DBB2002B07D1374B1B7820
:1057E000DAB23E4B1B78DBB29A4201D0012300E0D3
:1057F0000023002B5ED0314B1B78DBB21946304BB7
:105800001B889BB21C46364B1B8898B2354A0B4608
:105810009B000B449B012344014622F81310274BA5
:105820001B78DBB21946264B1B889BB21C462E4BBD
:105830001B8898B22D4A0B469B000B449B012344C6
:10584000014622F813101F4B9B681B889AB2284B05
:105850001A801B4B1B889BB240F23F1293420CBF35
:1058600001230023DBB2002B03D0154B00221A804A
:1058700006E0134B1B889BB201339AB2104B1A807F
:10588000134B1B78DBB2002B0CD00C4B1B78DBB21C
:105890000E4A32F8132092B2013291B20B4A22F82A
:1058A000131007E00B4B1B889BB201339AB2094BD4
:1058B0001A80FFE700BF0C37BD4690BD0C0D0020DD
:1058C000FE0C002010000020140D00201C0D0020F4
:1058D000050D0020020D0020060D00200D0D0020FA
:1058E000F80C0020F4020020FA0C0020F40700203D
:1058F000FC0C002080B400AF1F4B1B6903F01003A9
:10590000002B0CBF01230023DBB2002B07D01B4A66
:105910001A4B9B8A9BB243F001039BB29382174AB6
:10592000164B1B889BB243F001039BB21380124BB2
:105930001B6903F01003002B05D0104B5B6A642B2E
:1059400001D9012300E00023002B0AD00C4B0122D7
:105950001A700A4A094B1B889BB223F001039BB2C1
:105960001380084A074B5B6943F01003536100BF83
:10597000BD465DF8047B704700100240000C0040FB
:10598000080D0020003C014080B483B000AF464BBE
:105990005B6903F08003002B14BF01230023DBB2FB
:1059A000002B35D0414B1B6903F08003002B0CBF4B
:1059B00001230023DBB2002B07D03D4A3C4B9B8ADE
:1059C0009BB243F001039BB29382394A384B1B8848
:1059D0009BB243F001039BB21380344B1B6903F06D
:1059E0008003002B05D0324B5B6AC82B01D9012301
:1059F00000E00023002B4BD02E4B01221A702C4AC2
:105A00002B4B1B889BB223F001039BB213803FE01A
:105A1000294B1B6903F48073002B01D1022200E0A3
:105A20000022254B1B6903F40073002B0CBF0123DC
:105A30000023DBB25BB213435BB2FB711F4B1B78DD
:105A40005BB2DBB203F00F02FB791D4992000A44FE
:105A500013441B785AB2194B1A70184B1B785BB25F
:105A6000DBB203F03003002B14BF01230023DBB2B1
:105A7000002B0DD0114B1B785BB2DBB203F030036F
:105A8000102B01D1012201E04FF0FF320D4B1A70B3
:105A9000054A054B5B6943F46073536100BF0C37E3
:105AA000BD465DF8047B7047003C014000000240A9
:105AB000000C0040070D002000100240110D0020D6
:105AC000BCFE0208100D002080B483B000AF264B4E
:105AD0001B6903F48063002B01D1022200E0002245
