:020000040800F2
:1000000000000320EDB200083FB3000841B3000830
:1000100043B3000845B3000847B3000800000000E0
:1000200000000000000000000000000049B30008CC
:100030004BB30008000000004DB300084FB30008A8
:100040003DB300083DB300083DB300083DB30008D0
:100050003DB300083DB300083DB300083DB30008C0
:100060003DB300083DB30008A95B00083DB300089C
:100070003DB300083DB300083DB300083DB30008A0
:100080003DB300083DB300083DB300083DB3000890
:100090003DB300083DB300083DB300083D5C0008D7
:1000A000D15C00083DB300083DB300083DB3000833
:1000B0003DB30008A55300083DB300083DB3000858
:1000C0003DB300083DB300083DB300083DB3000850
:1000D0003DB300083DB300083DB300083DB3000840
:1000E0003DB300083DB300083DB300083DB3000830
:1000F0003DB300083DB300083DB300083DB3000820
:100100003DB300083DB300083DB300083DB300080F
:10011000015D00083DB300083DB300083DB3000891
:100120003DB300083DB300083DB300083DB30008EF
:100130003DB300083DB300083DB300083DB30008DF
:100140003DB300083DB300083DB300083DB30008CF
:100150003DB300083DB300083DB300083DB30008BF
:100160003DB300083DB300083DB300083DB30008AF
:100170003DB300083DB300083DB300083DB300089F
:100180003DB300083DB300083DB300083DB300088F
:100190003DB300083DB300083DB300083DB300087F
:0C01A0003DB300083DB300083DB300086B
:1001B00010B5054C237833B9044B13B10448AFF3A1
:1001C00000800123237010BDC80200200000000041
:1001D000B0EE020808B5034B1BB103490348AFF367
:1001E000008008BD00000000CC020020B0EE020834
:1001F00001F0FF01102A2BDB10F0070F08D010F8D8
:10020000013B013A8B422DD010F0070F42B3F6D1DB
:10021000F0B441EA012141EA014122F007047FF0F4
:1002200000070023F0E80256083C85EA010586EA4B
:10023000010685FA47F5A3FA87F586FA47F6A5FA87
:1002400087F68EB9EED1F0BC01F0FF0102F0070293
:1002500032B110F8013B013A83EA010313B1F8D13E
:100260000020704701387047002D06BF354603381F
:10027000073815F0010F07D1013015F4807F02BF58
:10028000013015F4C03F0130F0BC0138704700BFA9
:1002900010F8012B11F8013B012A28BF9A42F7D030
:1002A000D01A7047034613F8012B002AFBD1181A05
:1002B0000138704781F0004102E000BF83F0004345
:1002C00030B54FEA41044FEA430594EA050F08BFF1
:1002D00090EA020F1FBF54EA000C55EA020C7FEAB5
:1002E000645C7FEA655C00F0E2804FEA5454D4EB32
:1002F0005555B8BF6D420CDD2C4480EA020281EAFC
:10030000030382EA000083EA010180EA020281EA33
:100310000303362D88BF30BD11F0004F4FEA013185
:100320004FF4801C4CEA113102D0404261EB410194
:1003300013F0004F4FEA03334CEA133302D052421A
:1003400063EB430394EA050F00F0A780A4F10104D6
:10035000D5F1200E0DDB02FA0EFC22FA05F2801810
:1003600041F1000103FA0EF2801843FA05F35941F6
:100370000EE0A5F120050EF1200E012A03FA0EFC75
:1003800028BF4CF0020C43FA05F3C01851EBE3719F
:1003900001F0004507D54FF0000EDCF1000C7EEBBC
:1003A00000006EEB0101B1F5801F1BD3B1F5001FFA
:1003B0000CD349085FEA30004FEA3C0C04F1010419
:1003C0004FEA445212F5800F80F09A80BCF1004F42
:1003D00008BF5FEA500C50F1000041EB045141EAC4
:1003E000050130BD5FEA4C0C404141EB010111F4C5
:1003F000801FA4F10104E9D191F0000F04BF014670
:100400000020B1FA81F308BF2033A3F10B03B3F14D
:1004100020020CDA0C3208DD02F1140CC2F10C02DD
:1004200001FA0CF021FA02F10CE002F11402D8BF3B
:10043000C2F1200C01FA02F120FA0CFCDCBF41EA07
:100440000C019040E41AA2BF01EB0451294330BDD6
:100450006FEA04041F3C1CDA0C340EDC04F11404B3
:10046000C4F1200220FA04F001FA02F340EA03008A
:1004700021FA04F345EA030130BDC4F10C04C4F1D0
:10048000200220FA02F001FA04F340EA03002946B0
:1004900030BD21FA04F0294630BD94F0000F83F4FA
:1004A000801306BF81F480110134013D4EE77FEADD
:1004B000645C18BF7FEA655C29D094EA050F08BF29
:1004C00090EA020F05D054EA000C04BF194610460A
:1004D00030BD91EA030F1EBF0021002030BD5FEA4E
:1004E000545C05D14000494128BF41F0004130BD76
:1004F00014F580043CBF01F5801130BD01F00045CA
:1005000045F0FE4141F470014FF0000030BD7FEA3C
:10051000645C1ABF194610467FEA655C1CBF0B4637
:10052000024650EA013406BF52EA033591EA030F4E
:1005300041F4002130BD00BF90F0000F04BF002146
:10054000704730B54FF4806404F132044FF0000579
:100550004FF0000150E700BF90F0000F04BF0021F2
:10056000704730B54FF4806404F1320410F0004558
:1005700048BF40424FF000013EE700BF42004FEA53
:10058000E2014FEA31014FEA02701FBF12F07F43D0
:1005900093F07F4F81F06051704792F0000F14BFCD
:1005A00093F07F4F704730B54FF4607401F0004511
:1005B00021F0004120E700BF50EA010208BF704768
:1005C00030B54FF000050AE050EA010208BF70475D
:1005D00030B511F0004502D5404261EB41014FF4C6
:1005E000806404F132045FEA915C3FF4DCAE4FF0CA
:1005F00003025FEADC0C18BF03325FEADC0C18BFB1
:10060000033202EBDC02C2F1200300FA03FC20FA01
:1006100002F001FA03FE40EA0E0021FA02F114444E
:10062000C1E600BF70B54FF0FF0C4CF4E06C1CEA63
:1006300011541DBF1CEA135594EA0C0F95EA0C0FD8
:1006400000F0DEF82C4481EA030621EA4C5123EA4B
:100650004C5350EA013518BF52EA033541F480117A
:1006600043F4801338D0A0FB02CE4FF00005E1FB2D
:1006700002E506F00042E0FB03E54FF00006E1FB77
:1006800003569CF0000F18BF4EF0010EA4F1FF04BA
:10069000B6F5007F64F5407404D25FEA4E0E6D41FA
:1006A00046EB060642EAC62141EA55514FEAC5200B
:1006B00040EA5E504FEACE2EB4F1FD0C88BFBCF587
:1006C000E06F1ED8BEF1004F08BF5FEA500E50F138
:1006D000000041EB045170BD06F0004646EA0101FE
:1006E00040EA020081EA0301B4EB5C04C2BFD4EB30
:1006F0000C0541EA045170BD41F480114FF0000E29
:10070000013C00F3AB8014F1360FDEBF002001F096
:10071000004170BDC4F10004203C35DA0C341BDC10
:1007200004F11404C4F1200500FA05F320FA04F0E2
:1007300001FA05F240EA020001F0004221F0004116
:1007400010EBD37021FA04F642EB06015EEA430E89
:1007500008BF20EAD37070BDC4F10C04C4F12005B9
:1007600000FA04F320FA05F001FA04F240EA02006C
:1007700001F0004110EBD37041F100015EEA430E3D
:1007800008BF20EAD37070BDC4F1200500FA05F25D
:100790004EEA020E20FA04F301FA05F243EA0203DC
:1007A00021FA04F001F0004121FA04F220EA0200EB
:1007B00000EBD3705EEA430E08BF20EAD37070BD31
:1007C00094F0000F0FD101F00046400041EB010111
:1007D00011F4801F08BF013CF7D041EA060195F0F3
:1007E000000F18BF704703F00046520043EB0303AD
:1007F00013F4801F08BF013DF7D043EA060370479A
:1008000094EA0C0F0CEA135518BF95EA0C0F0CD0A4
:1008100050EA410618BF52EA4306D1D181EA0301EA
:1008200001F000414FF0000070BD50EA410606BFE4
:100830001046194652EA430619D094EA0C0F02D129
:1008400050EA013613D195EA0C0F05D152EA03366E
:100850001CBF104619460AD181EA030101F000418C
:1008600041F0FE4141F470014FF0000070BD41F0D5
:10087000FE4141F4780170BD70B54FF0FF0C4CF4AF
:10088000E06C1CEA11541DBF1CEA135594EA0C0FCE
:1008900095EA0C0F00F0A7F8A4EB050481EA030E1B
:1008A00052EA03354FEA013100F088804FEA033302
:1008B0004FF0805545EA131343EA12634FEA0222D0
:1008C00045EA111545EA10654FEA00260EF0004191
:1008D0009D4208BF964244F1FD0404F5407402D2E3
:1008E0005B084FEA3202B61A65EB03055B084FEA74
:1008F00032024FF480104FF4002CB6EB020E75EB71
:10090000030E22BFB61A754640EA0C005B084FEA98
:100910003202B6EB020E75EB030E22BFB61A754615
:1009200040EA5C005B084FEA3202B6EB020E75EB60
:10093000030E22BFB61A754640EA9C005B084FEAD8
:100940003202B6EB020E75EB030E22BFB61A7546E5
:1009500040EADC0055EA060E18D04FEA051545EAD4
:1009600016754FEA06164FEAC30343EA52734FEA7D
:10097000C2025FEA1C1CC0D111F4801F0BD141EAF6
:1009800000014FF000004FF0004CB6E711F4801F5B
:1009900004BF01430020B4F1FD0C88BFBCF5E06F3B
:1009A0003FF6AFAEB5EB030C04BFB6EB020C5FEA4B
:1009B000500C50F1000041EB045170BD0EF0004EA0
:1009C0004EEA113114EB5C04C2BFD4EB0C0541EAD2
:1009D000045170BD41F480114FF0000E013C90E6CF
:1009E00045EA060E8DE60CEA135594EA0C0F08BF93
:1009F00095EA0C0F3FF43BAF94EA0C0F0AD150EA92
:100A000001347FF434AF95EA0C0F7FF425AF104624
:100A100019462CE795EA0C0F06D152EA03353FF44C
:100A2000FDAE1046194622E750EA410618BF52EAC9
:100A300043067FF4C5AE50EA41047FF40DAF52EA9D
:100A400043057FF4EBAE12E74FF0FF3C06E000BF3A
:100A50004FF0010C02E000BF4FF0010C4DF804CD47
:100A60004FEA410C7FEA6C5C4FEA430C18BF7FEA07
:100A70006C5C1BD001B050EA410C0CBF52EA430C35
:100A800091EA030F02BF90EA020F0020704710F1B5
:100A9000000F91EA030F58BF994208BF90422CBF44
:100AA000D8176FEAE37040F0010070474FEA410C3D
:100AB0007FEA6C5C02D150EA013C07D14FEA430C5B
:100AC0007FEA6C5CD6D152EA033CD3D05DF8040BCC
:100AD000704700BF8446104662468C4619466346FE
:100AE00000E000BF01B5FFF7B7FF002848BF10F1D5
:100AF000000F01BD4DF808EDFFF7F4FF0CBF01201A
:100B000000205DF808FB00BF4DF808EDFFF7EAFF95
:100B100034BF012000205DF808FB00BF4DF808ED50
:100B2000FFF7E0FF94BF012000205DF808FB00BF45
:100B30004DF808EDFFF7CEFF94BF012000205DF8CF
:100B400008FB00BF4DF808EDFFF7C4FF34BF0120DC
:100B500000205DF808FB00BF4FEA410C7FEA6C5CA7
:100B600002D150EA013C0AD14FEA430C7FEA6C5CA7
:100B700002D152EA033C02D14FF0000070474FF01F
:100B8000010070474FEA410212F5001215D211D54B
:100B90006FF47873B3EB625212D94FEAC12343F07A
:100BA000004343EA505311F0004F23FA02F018BFFC
:100BB000404270474FF00000704750EA013005D1C5
:100BC00011F0004008BF6FF0004070474FF0000088
:100BD000704700BF4A0011D212F5001211D20DD594
:100BE0006FF47873B3EB62520ED44FEAC12343F033
:100BF000004343EA505323FA02F070474FF00000DD
:100C0000704750EA013002D14FF0FF3070474FF08B
:100C1000000070474FEA4102B2F1E04324BFB3F550
:100C2000001CDCF1FE5C0DD901F0004C4FEAC00263
:100C30004CEA5070B2F1004F40EB830008BF20F047
:100C40000100704711F0804F21D113F13872BCBF01
:100C500001F00040704741F480114FEA5252C2F156
:100C60001802C2F1200C10FA0CF320FA02F018BF9F
:100C700040F001004FEAC1234FEAD32303FA0CFCF2
:100C800040EA0C0023FA02F34FEA4303CCE77FEA81
:100C9000625307D150EA01331EBF4FF0FE4040F4CB
:100CA0004000704701F0004040F0FE4040F400007A
:100CB000704700BF53B94AB9002908BF00281CBFBC
:100CC0004FF0FF314FF0FF3000F07AB9ADF1080C72
:100CD0006DE904CE00F006F8DDF804E0DDE902235A
:100CE00004B070472DE9F0478C460D460446089E37
:100CF000002B51D18A4217466DD9B2FA82FEBEF15D
:100D0000000F0BD0CEF1200C01FA0EF520FA0CFCEE
:100D100002FA0EF74CEA050C00FA0EF44FEA174AF5
:100D2000250CBCFBFAF81FFA87F90AFB18CC45EA38
:100D30000C4508FB09F3AB420AD9ED1908F1FF3263
:100D400080F02381AB4240F22081A8F102083D44AB
:100D5000ED1AA4B2B5FBFAF00AFB105544EA0544BB
:100D600000FB09F9A14509D9E41900F1FF3380F02E
:100D70000A81A14540F2078102383C44A4EB0904F2
:100D800040EA08400021002E61D024FA0EF400232E
:100D900034607360BDE8F0878B4207D9002E54D0D1
:100DA000002186E821000846BDE8F087B3FA83F108
:100DB000002940F08E80AB4202D3824200F2FA80DA
:100DC000841A65EB03050120AC46002E3FD086E86F
:100DD0001010BDE8F08712B90127B7FBF2F7B7FA98
:100DE00087FEBEF1000F34D1EB1B3A0C1FFA87FCD3
:100DF0000121B3FBF2F8250C02FB183345EA034549
:100E00000CFB08F3AB4207D9ED1908F1FF3002D211
:100E1000AB4200F2D1808046ED1AA3B2B5FBF2F0EE
:100E200002FB105543EA05440CFB00FCA44507D91E
:100E3000E41900F1FF3302D2A44500F2B88018464D
:100E4000A4EB0C0440EA08409DE731463046BDE87B
:100E5000F087CEF1200405FA0EF307FA0EF720FA18
:100E600004F83A0C25FA04F448EA0308B4FBF2F15A
:100E70004FEA184502FB11441FFA87FC45EA044576
:100E800001FB0CF3AB4200FA0EF409D9ED1901F1A4
:100E9000FF3080F08A80AB4240F2878002393D44C7
:100EA000EB1A1FFA88F5B3FBF2F002FB103345EAA8
:100EB000034500FB0CF3AB4207D9ED1900F1FF38F5
:100EC0006FD2AB426DD902383D44EB1A40EA014182
:100ED0008FE7C1F1200722FA07F88B4005FA01F4E9
:100EE00048EA030320FA07FE4FEA134CFD404EEA9E
:100EF000040EB5FBFCF94FEA1E440CFB19551FFA12
:100F000083F844EA054509FB08F4AC4202FA01F211
:100F100000FA01FA08D9ED1809F1FF3043D2AC42CA
:100F200041D9A9F102091D442D1B1FFA8EFEB5FB04
:100F3000FCF00CFB10554EEA054400FB08F8A045F8
:100F400007D9E41800F1FF3529D2A04527D9023886
:100F50001C4440EA0940A4EB0804A0FB02894C456C
:100F6000C6464D4615D312D056B1BAEB0E0364EB0C
:100F7000050404FA07F7CB401F43CC403760746088
:100F80000021BDE8F0871846F8E69046E0E6C24545
:100F9000EAD2B8EB020E69EB03050138E4E7284614
:100FA000D7E7404691E78146BEE7014678E7023839
:100FB0003C4445E7084608E7A8F102083D442BE712
:100FC000704700BF80B582B000AF87ED010AC7ED62
:100FD000000AD7ED000A97ED010A0BF0B1FEF0EE22
:100FE000407AB0EE670A0837BD4680BD80B582B052
:100FF00000AF87ED010A97ED010A24F059FEF0EEEB
:10100000407AB0EE670A0837BD4680BD80B584B02F
:1010100000AFF860B9607A607B68002B01D10023D3
:1010200005E07A68B968F86827F026FB0346184699
:101030001037BD4680BD000090B585B000AF786028
:101040007B6803F500534FF480621A807B6803F5D8
:101050000053023301221A707B6803F500530E33EC
:1010600000221A707B6803F500530F3300221A70B8
:101070007B6803F50053103300221A707B6803F578
:101080004053143308221A707B6803F5405315331C
:1010900007221A707B6803F580432033184611F04D
:1010A000A5FD7B6803F58043383300221A607B6816
:1010B00003F580433C3300221A807B6803F58043AC
:1010C0003E3339491A460B4603CB106051601B88EA
:1010D00013817B6803F5B443483300221A70002360
:1010E000FB60FB68B3F5806F35DAFB6807EE903A7A
:1010F000F8EEE77A77EEA77A17EE900AFFF73EFA56
:1011000027A3D3E90023FFF78DFA03460C461846C0
:1011100021464FF00002254BFFF7AEFB03460C467D
:1011200044EC173BB0EE470AF0EE670A24F078FD76
:1011300054EC103B18462146FFF76CFD01467A68D7
:10114000FB6803F604039B00134404331960FB6837
:101150000133FB60C5E700237B817B89192B17DCFA
:1011600000233B813B89FF2B0EDC7A893B89796820
:1011700012020A44134403F58043483350221A7084
:101180003B8901333B81EDE77B8901337B81E4E7D8
:101190007B6818461437BD4690BD00BFAFF3008092
:1011A000182D4454FB210940C8EE0208000090406D
:1011B00080B582B000AF78603960174A164B1B8843
:1011C0009BB223F001039BB21380144B1B681A04DB
:1011D000114B5B6A1344124A13600F4A0E4B9B8AF1
:1011E0009BB243F001039BB293820B4A0A4B1B88CC
:1011F0009BB243F001039BB21380084B00221A609C
:101200003968786800F0CCFA3968786800F0D4FC66
:1012100000BF0837BD4680BD0040014008120020D5
:101220000C12002080B582B000AF78603960174A98
:10123000164B1B889BB223F001039BB21380144B07
:101240001B681A04114B5B6A1344124A13600F4A5D
:101250000E4B9B8A9BB243F001039BB293820B4AD5
:101260000A4B1B889BB243F001039BB21380084BCF
:1012700000221A603968786800F092FA3968786854
:1012800000F00AF800BF0837BD4680BD00400140AD
:10129000081200200C12002090B595B002AFF86043
:1012A000B9600023A7F846300023A7F84030002398
:1012B000FB870123BB87BB8FFF2B00F30F81FA8FC6
:1012C000BB8F04339A4275DAFB8FFF2B72DCFB8FE6
:1012D0009B00BA681344D3ED007AFB8FFA6803F6DB
:1012E00006439B00134493ED007AF0EE470AB0EEFC
:1012F000670AFFF767FEF0EE406A9FED747AC6EE6C
:10130000877AB7EE007A77EE677A9FED717A67EEAB
:10131000877AFCEEE77AC7ED017ABB88A7F84430FC
:10132000B7F844301D2B1BDCB7F846300133A7F863
:101330004630B7F84630C82B12DD664B1B889BB28F
:1013400001339AB2634B1A80634B1B78DBB21A46A7
:10135000FB68134403F500530E3300221A70FCE1BE
:10136000FB6803F5B44348331B781A46FB8FB7F884
:101370004410C8B2F96812020A44134403F58043CA
:10138000483302461A70FB8F012B0FD1FB6803F51F
:10139000B44348331B78B7F84420D1B2FA681B0233
:1013A000134403F5804348330A461A70FB8F013318
:1013B000FB8784E70023A7F84230B7F84230A7F84C
:1013C0004430BB8F043B9BB27B87B7F93A20BB8F7D
:1013D00004339A423BDCB7F93A30002B30DBB7F9E3
:1013E0003A30FF2B2CDCBA8FB7F93A30D31A002BE6
:1013F000B8BF5B42C3F10403012202FA03F37B8608
:10140000B7F842207B8E1344A7F84230FB6803F5FF
:10141000B44348331B781A46B7F93A30F9681202D8
:101420000A44134403F5804348331B789BB27A8EF9
:1014300012FB03F39AB2B7F844301344A7F84430D0
:10144000B7F93A309BB201339BB27B87BDE7B7F85F
:101450004420B7F84230B2FBF3F3A7F84430B7F8B2
:1014600040305B0007F148021344B7F8442023F8EA
:10147000342CB7F8403001335A4203F0030302F032
:10148000030258BF5342A7F84030BB8F032B19DD2E
:10149000FB6803F5B44348331B781C46BB8F1A1F07
:1014A000B7F840305B0007F148010B4433F8343C97
:1014B000D8B2F96823020B44134403F58043483340
:1014C00002461A70BB8F0133BB87F4E600008047E9
:1014D0000000A0422E120020FE1100200121F86819
:1014E00000F0F4FFFB6803F5B44348331B78013385
:1014F0009B4A82FB0312D110DA178A1A1A2101FBC8
:1015000002F29A1AD2B2FB6803F5B44348331A7058
:1015100001233B873B8FB3F5A07F00F31E813B8FF8
:10152000013B904A82FB03125211DB17D31A03F0DE
:101530000103002B14BF01230023DBB287F83130F5
:10154000D723FB860023BB86BB8E192B00F3B2800A
:10155000BB8E5B009BB2C3F13F039BB25B01FB857B
:10156000FB6803F5B44348331B781A46BB8E13441B
:101570007B4A82FB0312D110DA178A1A1A2101FB67
:1015800002F29A1A1346BB85BB8E5B000333BB6223
:10159000BB8EC3F11A0213469B0013440C3B7B62C3
:1015A0003A8FBB6A9A4240F381803A8FBB6A03F557
:1015B00080739A427ADAB7F92C20398FBB6ACB1A3A
:1015C000F96812020A44134403F5804348331B7838
:1015D0009AB27B6A9BB213449BB27B84B7F92C20EE
:1015E000398FBB6ACB1A013BF96812020A441344D3
:1015F00003F5804348331B789AB27B6A9BB213444D
:101600009BB23B84B7F93630002B4FDDB7F936205B
:10161000B7F922309A4205DAB7F93620B7F9203007
:101620009A4243DBFB8E1A46920013441B0198B288
:101630003B8F5A1E4B4B83FB02135911D317C91A08
:101640000B469B000B441B01D11A8BB20344FB8356
:10165000B7F93620B7F922309A4213DDB7F93620B0
:10166000B7F920309A420DDD97F83130FA6803F56A
:101670008053063352F82320FB8B5B001344002277
:101680001A800CE097F83130FA6803F5805306337E
:1016900052F82320FB8B5B001344FA8D1A80B7F9B4
:1016A00036309BB2013B9BB2FB86ABE7BB8E01336E
:1016B000BB8649E7B7F93630002B27DBFB8E1A468D
:1016C000920013441B0198B23B8F5A1E254B83FB9B
:1016D00002135911D317C91A0B469B000B441B0167
:1016E000D11A8BB20344BB8397F83130FA6803F503
:1016F0008053063352F82320BB8B5B001344002237
:101700001A80FB8E013B9BB2FB86D3E73A8F164BC8
:10171000A3FB021399090B469B000B441B01D31A30
:101720009BB2002B15D13B8F503B99B23B8F013BB5
:1017300098B297F83130FA6803F58053063352F8BF
:1017400023300193D723009303460022074802F079
:101750004DFB3B8F01333B87DCE64C37BD4690BDEC
:101760004FECC44E67666666CDCCCCCC4C120020E4
:1017700090B583B000AF78607868FEF7EDFE034661
:101780000C4644EC103B24F003FAB0EE407AF0EE45
:10179000607AB0EE470AF0EE670A0C37BD4690BD9E
:1017A00090B59BB000AF786039600023A7F84E3049
:1017B0007B6803F500531B881846FEF7BDFE034601
:1017C0000C4644EC103B24F0CFF954EC103B184687
:1017D0002146FFF7FFF90346A7F84C3000237B664C
:1017E0007B6803F500531B881A467B6E9A422BDDFB
:1017F000B7F84C30C3F120027B6E93FAA3F363FA7F
:1018000002F3A7F84E30B7F84E207B6E9A4217DDF0
:101810007B6E9B003A6813441B68BB647B6E9B0025
:101820003A681344B7F84E20920039680A441268A7
:101830001A60B7F84E309B003A681344BA6C1A60CD
:101840007B6E01337B66CBE701233B667B6803F548
:1018500000531B881A463B6E9A4240F3A4813B6EAC
:10186000012B4AD10023FB657B6803F500531B88DD
:101870001A46FB6D9A4240F39281FA6D3B6E134417
:101880007B647B6C9B003A6813441B683B647B6CF5
:101890009B003A681344FA6D920039680A4492ED4D
:1018A000007AD7ED107A77EE677AC3ED007A7A681E
:1018B0007B6C03F606439B0013444FF000021A6052
:1018C000FB6D9B003A681344FA6D920039680A4434
:1018D00092ED007AD7ED107A77EE277AC3ED007A91
:1018E0007A68FB6D03F606439B0013444FF0000239
:1018F0001A60FB6D0233FB65B6E77B6803F50053A6
:101900001B885B089BB21A463B6E9A4240F093805C
:101910000123A7F85A30B7F85A307A6802F5005216
:101920001288520892B2934280F23981B7F85A3045
:101930009A023B6E5B0092FBF3F31846FFF718FF29
:1019400054EC103B18462146FFF744F90346FB8749
:10195000FB8F7A6803F604039B00134404331B686F
:10196000BB63FB8F03F580737A6803F604039B0067
:10197000134404331B687B63B7F85A203B6E13444F
:101980003B633B6B9B003A68134493ED007AD7EDC1
:101990000D7A27EE277A7A683B6B03F606439B00A5
:1019A0001344D3ED006AD7ED0E7A66EEA77A77EE90
:1019B000677AB7F85A309B003A681344B7F85A2050
:1019C000920039680A4492ED007A77EE277AC3EDE7
:1019D000007A7A683B6B03F606439B00134493ED51
:1019E000007AD7ED0D7A27EE277A3B6B9B003A6899
:1019F0001344D3ED006AD7ED0E7A66EEA77A77EE40
:101A0000277AB7F85A30B7F85A20796802F60642B2
:101A100092000A4492ED007A77EE277A7A6803F60C
:101A200006439B001344C3ED007AB7F85A300133E4
:101A3000A7F85A306FE700237B657A6D3B6E9A42B8
:101A400080F2AD807B6D9A023B6E5B0092FBF3F3FC
:101A50001846FFF78DFE54EC103B18462146FFF761
:101A600091F80346FB627A68FB6A03F604039B0065
:101A7000134404331B68BB62FB6A03F580737A6806
:101A800003F604039B00134404331B687B627B6DE5
:101A90003B657B6803F500531B881A463B6D9A42F1
:101AA00079DD3A6D3B6E13443B623B6D9B003A68B7
:101AB00013441B68FB617A683B6D03F606439B0089
:101AC00013441B68BB613B6A9B003A6813441B6864
:101AD0007B617A683B6A03F606439B0013441B68EC
:101AE0003B6197ED097AD7ED057A27EE277AD7ED96
:101AF0000A6AD7ED047A66EEA77A77EE677AC7EDC1
:101B0000037A97ED097AD7ED047A27EE277AD7ED95
:101B10000A6AD7ED057A66EEA77A77EE277AC7EDDF
:101B2000027A3B6A9B003A68134497ED077AD7ED37
:101B3000037A77EE677AC3ED007A97ED067AD7EDF0
:101B4000027A77EE677A7A683B6A03F606439B006F
:101B50001344C3ED007A3B6D9B003A68134497ED44
:101B6000077AD7ED037A77EE277AC3ED007A97EDFF
:101B7000067AD7ED027A77EE277A7A683B6D03F61C
:101B800006439B001344C3ED007A3B6E5B003A6D45
:101B900013443B657DE77B6D01337B654DE73B6E11
:101BA0005B003B6652E6786800F0E6FC00BF6C37ED
:101BB000BD4690BD00000000B0B52DED028BC0B059
:101BC00006AFF860B960FB6803F5005304330022E8
:101BD0007A8507F12A021146184600F0DAFD002343
:101BE000A7F8E6304FF6FF73A7F8E4300023A7F814
:101BF000E230FB6803F58043383300221A6001238A
:101C0000A7F8E030B7F8E030B3F5A07F00F35982D1
:101C10001F23A7F8DE30B7F8E0309B00BA68134402
:101C2000D3ED007AB7F8E030FA6803F606439B007C
:101C3000134493ED007AF0EE470AB0EE670AFFF71F
:101C4000C1F987ED340AB7F9E430032B67DCD7ED2F
:101C5000347A9FED857AF4EEC77AF1EE10FA5EDD04
:101C6000B7F9E430B3F1FF3F06D0B7F8E020B7F999
:101C7000E23001339A4206DDB7F9E4309BB201331A
:101C80009BB2A7F8E430B7F8E030A7F8E230B7F934
:101C9000E430FA6803F500531C335B001344DB881F
:101CA000A7F8DE30FB6803F500530433B7F9E420EE
:101CB0001146184600F092FD03461B88002B0FD0FA
:101CC000FB6803F5804338331B6807EE903AB8EEA3
:101CD000677AD7ED347AB4EEE77AF1EE10FA01D5EF
:101CE000012300E00023002B1CD0FB6803F5005308
:101CF0000433B7F9E4201146184600F06FFD0246A0
:101D0000B7F8E0301380D7ED347AFCEEE77A17EEBF
:101D1000902AFB6803F5804338331A6002E0002301
:101D2000A7F8E23097ED347ADFED506AC7EE267AF5
:101D3000B7EE007A77EE677A9FED4D7A67EE877A95
:101D4000C7ED0B7A4B4B3B6307F1300207F12C03D5
:101D50001146184600F051FD0346D3ED007AFCEE23
:101D6000E77AC7ED017ABB88A7F8CE30B7F8E03044
:101D7000013B414A82FB03125211DB17D31A03F0D5
:101D80000103002B14BF01230023DBB287F8CD3001
:101D90000023C7F8D830D7F8D830D72B72DCD7F863
:101DA000D8309BB21A46920013441B0198B2B7F880
:101DB000E0305A1E304B83FB02135911D317C91A56
:101DC0000B469B000B441B01D11A8BB20344A7F8AE
:101DD000C830B7F8CE20D7F8D8309A422FDCB7F900
:101DE000E6309BB201339BB2A7F8E630B7F9E63094
:101DF00042F21072934212DD204B1B889BB20133DA
:101E00009AB21E4B1A801E4B1B78DBB21A46FB6837
:101E1000134403F500530E3300221A7017E397F8AA
:101E2000CD30FA6803F58053063352F82320B7F813
:101E3000C8305B001344B7F8DE201A800DE097F835
:101E4000CD30FA6803F58053063352F82320B7F8F3
:101E5000C8305B00134400221A80D7F8D830013311
:101E6000C7F8D83097E700BF00504347000000494B
:101E70000000574300005743676666662E12002035
:101E8000FE110020B7F8E020CE4BA3FB0213990906
:101E90000B469B000B441B01D31A9BB2002B40F056
:101EA0000A81B7F8E030F02B40F3ED800121F868AB
:101EB00000F00CFB002387F8D73097F8D730042BBD
:101EC00000F3E180FB6803F50053043397F8D72053
:101ED0001146184600F082FC03461B88002B0CBFFD
:101EE00001230023DBB2002B40F0CC80FB6803F51C
:101EF0000053043397F8D7201146184600F06EFCC3
:101F000003461B8807EE903AB8EE678AFB6803F534
:101F1000005304330021184600F060FC03461B8880
:101F200007EE903AF8EEE77A88EE277A17EE100A75
:101F3000FEF724FB03460C4644EC103B23F028FE3E
:101F400054EC103B18462146FEF744FE0346A7F822
:101F5000CA3007F16403B7F8CA209B4918460AF053
:101F6000ABFC07F14C0307F16401984A184600F0F6
:101F70005DFCFB6803F50053043397F8D720114646
:101F8000184600F02BFC03461B881946F86800F041
:101F90006BFAF0EE407A07F17C030022B0EE670A9C
:101FA000894918460AF07EFB07F1340307F17C02E9
:101FB00007F14C01184600F0A0FB07F1100307F1F0
:101FC0003401834A184600F031FC07F13403184607
:101FD00010F036FE07F17C03184610F031FE07F1D1
:101FE0004C03184610F02CFE07F16403184610F05D
:101FF00027FE97F8D73001339BB21A46920013445C
:102000009B009DB297F8CD30FA6803F580530633F4
:1020100052F8234007F1100207F1940311461846C5
:1020200011F008F997F8D730FA6803F500531C331C
:102030005B001344DB88C7F8AC300023C7F8B0302E
:1020400007F1B003049307F1AC030393614B0293D0
:1020500007F194030193009450232A4600215E481F
:1020600002F00BFA07F19403184610F0E9FD07F1AE
:102070001003184610F0E4FD97F8D730013387F8C5
:10208000D7301AE700BFB7F8E030503B99B2B7F845
:10209000E030013B98B297F8CD30FA6803F58053F1
:1020A000063352F823300193D723009303460022CE
:1020B000494801F09BFEB7F8E0300133A7F8E03063
:1020C000A0E5FB6803F5005302331B78002B0DD00D
:1020D000FB6803F5005304330021184600F07EFB33
:1020E00003461B88002B01DD012300E00023002BA9
:1020F00000F0AD81FB6803F500530433002118465E
:1021000000F06CFB03461B881946F86800F0ACF938
:10211000F0EE407A314BC3ED007A304BD3ED007ACC
:10212000B2EE047AC7EE876AB0EE660AFEF75EFF8B
:10213000F0EE407AC7ED2D7A4FF08243C7F8B83001
:1021400007F1B80207F1B4031146184600F085FB09
:102150000346D3ED007AFCEEE77AC7ED017ABB883F
:10216000A7F8C630B7F8C640FB6803F50053043340
:102170000021184600F032FB03461B88E31A002BAF
:10218000B8BF5B42012BCCBF01230023DBB2002B85
:1021900028D0B7F8C630124AD26A02FB03F4FB68B3
:1021A00003F5005304330021184600F017FB0346E3
:1021B0001B88B4FBF3F39AB2FB6803F580433C330E
:1021C0001A8017E0CDCCCCCC34730020D4EE0208BA
:1021D000D8EE0208541200204C12002010120020E9
:1021E000000400409E4BDB6A9AB2FB6803F5804313
:1021F0003C331A80FB6803F5005304330021184672
:1022000000F0ECFA03461B8803F18043013B9B007E
:10221000BA6813441B681846FEF7B0F903460C462B
:102220009FED8D1B44EC103B23F0E8FD55EC104B6B
:10223000FB6803F5005304330021184600F0CEFA82
:1022400003461B88013BFA6803F606439B001344D0
:102250001B681846FEF792F902460B469FED7E1B5F
:1022600043EC102B23F0CAFD53EC102B20462946DB
:10227000FEF726F803460C4644EC173BB0EE470A3F
:10228000F0EE670A23F032FF54EC103B184621466B
:10229000FEF778FC0346C7F8C030FB6803F500532F
:1022A00004330021184600F099FA03461B880133D5
:1022B0009B00BA6813441B681846FEF75FF9034693
:1022C0000C469FED651B44EC103B23F097FD55EC4D
:1022D000104BFB6803F5005304330021184600F04F
:1022E0007DFA03461B880133FA6803F606439B0018
:1022F00013441B681846FEF741F902460B469FED52
:10230000561B43EC102B23F079FD53EC102B204689
:102310002946FDF7D5FF03460C4644EC173BB0EECB
:10232000470AF0EE670A23F0E1FE54EC103B184632
:102330002146FEF727FC0346C7F8BC30D7F8BC306F
:1023400007EE903AB8EEE77AD7F8C03007EE903A49
:10235000F8EEE76A434BD3ED007A37EEA76AB7F899
:10236000C63007EE903AF8EEE77A66EE277A76EE18
:10237000A77AB4EEE77AF1EE10FACCBF012300237E
:10238000DBB2002B0CD0FB6803F580433C331B8889
:10239000013B9AB2FB6803F580433C331A8030E07E
:1023A000D7F8C03007EE903AB8EEE77AD7F8BC30ED
:1023B00007EE903AF8EEE76A2A4BD3ED007A37EE53
:1023C000A76AB7F8C63007EE903AF8EEE77A66EEFD
:1023D000277A76EEA77AB4EEE77AF1EE10FACCBF60
:1023E00001230023DBB2002B0BD0FB6803F58043F5
:1023F0003C331B8801339AB2FB6803F580433C33BE
:102400001A80FB6803F580433C331B88002B14DDE6
:10241000FB6803F580433C331B881A4641F26F7317
:102420009A420ADC0E4BDA6AFB6803F580433C33C0
:102430001B889A4201D0012300E00023002B06D024
:10244000074AFB6803F580433C331B88D362E837B7
:10245000BD46BDEC028BB0BD000000000000004096
:10246000000400401012002080B483B000AF7860F8
:102470000B467B80134B1B6807EE903AB8EE677AE9
:102480007B8807EE903AF8EEE77A27EE277A0E4B34
:102490001B8D9BB201331A460B4BDB6A013303FBE6
:1024A00002F3DB0207EE903AF8EE677AC7EE276A8E
:1024B000F0EE667AB0EE670A0C37BD465DF8047B35
:1024C000704700BF200000200004004080B483B0AB
:1024D00000AF78600B46FB70FB78002B0AD0224BD4
:1024E0001B78DBB21A467B68134403F500530E33A6
:1024F00000221A701D4B1B78DBB283F00103DBB2A4
:10250000002B15D07B6803F500530E331B7883F046
:102510000103DBB2002B09D17B6803F500530F33B5
:102520001B7883F00103DBB2002B01D0012300E014
:102530000023002B11D00D4B01221A700C4B0022EE
:102540001A807B6803F500530E331B78002B01D0F3
:10255000012200E00022074B1A7000BF0C37BD4675
:102560005DF8047B704700BFFE110020F9110020C8
:10257000F2110020FD11002080B5ACB004AF7860EE
:1025800001217868FFF770FFF0EE407A07F1500301
:102590000122B0EE670A424918460AF083F807F1B3
:1025A000380307F150013F4A184600F03FF940F266
:1025B0003F117868FFF758FFF0EE407A07F16803A3
:1025C0000122B0EE670A364918460AF06BF807F1A7
:1025D000200307F1680207F13801184600F08DF872
:1025E00007F1080307F120012F4A184600F01EF9F1
:1025F00007F12003184610F023FB07F16803184683
:1026000010F01EFB07F13803184610F019FB07F114
:102610005003184610F014FB7B6803F58043203309
:1026200007F108021946104600F030F90346002B66
:102630002DD007F1080207F180031146184610F06B
:10264000F9FD4FF6FF73C7F898300023C7F89C30A8
:1026500007F1800207F19C03029307F198030193AD
:10266000124B00931346DF227321114801F0C1FE83
:1026700007F18003184610F0E3FA7B6803F5804306
:10268000203307F108021146184610F0DFFA07F16F
:102690000803184610F0D4FA00BFA037BD4680BD2D
:1026A00034730020DCEE0208E0EE02085412002031
:1026B0004C12002080B485B000AFF860B9607A6039
:1026C000FB6803F580431833BA681A60FB6803F5AA
:1026D00080431C337A681A6000BF1437BD465DF82A
:1026E000047B704780B483B000AF78607B68184685
:1026F0000C37BD465DF8047B704790B587B000AFDE
:10270000F860B9607A60B86810F0D0FA044678686A
:1027100010F0CCFA034623447B61B86810F0CAFA83
:1027200002467B699A4208D2786810F0C3FA0246E2
:102730007B699A4201D3012300E00023FB74FB7CF8
:10274000002B0AD0BA680021786810F041FC0346DB
:102750001846FFF7C7FF034608E07968B86810F02D
:1027600073FC03461846FFF7BDFF03461946F86899
:1027700010F04CFAF8681C37BD4690BD80B483B0A9
:1027800000AF7860052318460C37BD465DF8047B22
:10279000704790B583B000AF78603960786800F01A
:1027A00086F804467868FFF7E9FF03463A68194659
:1027B000204600F088F800BF0C37BD4690BD80B4BD
:1027C00083B000AF786039603B685B007A6813447F
:1027D00018460C37BD465DF8047B704780B582B063
:1027E00000AF786039607B6839681846FFF7E7FF0B
:1027F000034618460837BD4680BD80B483B000AF9D
:10280000786039603B6893ED007A7B68D3ED007A9D
:10281000B4EEE77AF1EE10FA01D53B6800E07B6890
:1028200018460C37BD465DF8047B704780B584B010
:1028300000AFF860B9607A607968B86810F01EFC83
:1028400003461846FFF74EFF03461946F86810F096
:10285000DDF9F8681037BD4680BD80B483B000AFA5
:10286000786039607B6893ED007A3B68D3ED007A3D
:10287000B4EEE77AF1EE10FA01D53B6800E07B6830
:1028800018460C37BD465DF8047B704780B582B0B2
:1028900000AF786039603968786800F028F803463E
:1028A00083F00103DBB218460837BD4680BD80B512
:1028B00082B000AF7860786800F04EF803461846A2
:1028C0000837BD4680BD80B584B000AFF860B96000
:1028D0007A60F86800F04DF803467A68B9681846DF
:1028E00000F052F8034618461037BD4680BDB0B51B
:1028F00082B000AF78603960786810F0D7F904468C
:10290000386810F0D3F903469C4215D1786810F06E
:102910005CFC0446386810F058FC0546786810F0F6
:10292000C5F903461A4629462046FEF76FFB0346C3
:10293000002B01D1012300E0002318460837BD46D3
:10294000B0BD80B483B000AF78607B6818460C37A8
:10295000BD465DF8047B704780B582B000AF7860FB
:102960007B681846FFF7EDFF034618460837BD465B
:1029700080BD80B483B000AF78607B6818460C37A8
:10298000BD465DF8047B704780B487B000AFF86047
:10299000B9607A607B681B887B82BB687B617B69DE
:1029A000002B09D0FB687A8A1A807B69013B7B6126
:1029B000FB680233FB60F2E7FB6818461C37BD4634
:1029C0005DF8047B7047000080B483B000AF03461D
:1029D000FB71094997F907305B0997F9072002F065
:1029E0001F02012000FA02F241F8232000BF0C3739
:1029F000BD465DF8047B704700E100E080B483B021
:102A000000AF03463960FB7197F90730002B0BDAF2
:102A10000D49FB7903F00F03043B3A68D2B212016F
:102A2000D2B20B441A7609E0084997F907303A68A0
:102A3000D2B21201D2B20B4483F8002300BF0C378C
:102A4000BD465DF8047B704700ED00E000E100E06A
:102A500080B483B000AF00237B60364A354B1B6CDB
:102A600043F080531364344A334B1B6843F4804370
:102A70001360324A314BD3F8883043F47003C2F804
:102A800088302C4A2B4B1B6843F480331360294B4E
:102A90001B6803F40033002B0CBF01230023DBB2BF
:102AA000002B00D0F3E7234B254A5A60214A214BE3
:102AB0009B6893601F4A1F4B9B6843F400439360DD
:102AC0001C4A1C4B9B6843F4A0539360194A194B52
:102AD0001B6843F080731360164B1B6803F0007390
:102AE000002B0CBF01230023DBB2002B00D0F3E747
:102AF000144B40F205721A600E4A0E4B9B6823F08D
:102B0000030393600B4A0B4B9B6843F002039360F3
:102B1000084B9B6803F00C03082B14BF0123002310
:102B2000DBB2002B00D0F3E700BF0C37BD465DF8E9
:102B3000047B7047003802400070004000ED00E068
:102B4000085A4007003C024080B400AF624A624B22
:102B50001B6B43F0040313635F4A5F4B1B6B43F033
:102B6000080313635C4A5C4B1B6B43F02003136345
:102B7000594A594B5B6C43F480135364574A574B83
:102B80001B6843F080631360544A544B9B6843F0C6
:102B900080639360524A524B1B6843F010031360EA
:102BA0004F4A4F4B9B6843F0100393604B4A4B4B8B
:102BB0001B6843F080731360484A484BDB6843F05E
:102BC0008073D360474A474B1B6843F4004313604C
:102BD000444A444B9B6843F440439360414A414B11
:102BE0001B6A43F0A04313623E4A3E4B1B6843F40A
:102BF000003313603B4A3B4B9B6843F44033936084
:102C0000384A384B5B6A43F005035362354A354B0B
:102C10001B6843F400231360324A324B9B6843F431
:102C2000402393602F4A2F4B5B6A43F0500353625B
:102C30002D4A2D4B1B889BB243F400739BB213802B
:102C4000294A294B1B889BB243F480739BB21380A3
:102C5000254A254B1B889BB243F008039BB2138087
:102C6000214A214B1B889BB243F004039BB2138083
:102C70001D4A1D4B1B889BB243F040039BB213803F
:102C8000154A154B1B6B43F480031363174A174B0C
:102C90001B6843F060631360144A144B1B6843F4D1
:102CA00000531360114A114B1B6843F40063136017
:102CB0000E4A0E4B1B6843F0400313600B4A0B4B4C
:102CC0001B6843F400331360084B094A9A6000BF45
:102CD000BD465DF8047B704700380240000C02409E
:102CE000000802400014024000500140A06402406D
:102CF0000C50014080B400AF7D4A7D4B1B6C43F00B
:102D0000010313644FF080424FF080439B889BB2D5
:102D100043F040039BB293804FF0804313221A8507
:102D20004FF080433122DA624FF0804331225A6300
:102D30004FF080424FF080431B8C9BB243F0010365
:102D40009BB213844FF080424FF080431B8B9BB2A9
:102D500043F060039BB213834FF080424FF08043F7
:102D60001B889BB243F001039BB21380604A604B07
:102D70001B6B43F0010313635D4A5D4B1B6B43F018
:102D8000040313635A4A5A4B5B6C43F480735364D5
:102D9000584A584B1B6843F0C0031360564A564BC1
:102DA0001B6843F440631360534A534B1B6843F062
:102DB00003031360514A514B5B6843F480735360C3
:102DC0004E4B4FF40012DA624C4A4C4B5B6B43F0B3
:102DD0000D035363494A494B5B6B43F0A0035363B4
:102DE000464A464B5B6B5363444A444BDB6843F4AF
:102DF0004063D360414A414B1B6943F44033136144
:102E00003E4A3E4BDB6843F00603D3603B4A3B4BF4
:102E10009B6843F480639360384A384B9B6843F067
:102E200080539360354A354B9B6843F0C063936091
:102E3000324A324B9B6843F4807393602F4A2F4B86
:102E40009B6843F400739360294A294B1B6B43F43E
:102E5000800313632A4A2A4B1B6823F0C0031360C4
:102E6000274A274B1B6843F400631360244A244B12
:102E70001B6843F400531360214A214B1B6823F461
:102E8000007313601E4A1E4B1B6843F4806313607B
:102E90001B4A1B4B1B6843F480731360184A184B82
:102EA0001B6823F0C0031360154A154B5B6843F0A1
:102EB0000C035360124B134A9A60114B124ADA60AA
:102EC0000F4A0F4B1B6823F0606313600C4A0C4BD6
:102ED0001B6843F001031360084A084B9B6843F0EA
:102EE0000103936000BFBD465DF8047B704700BFDF
:102EF000003802400008024000000240002001406B
:102F0000706402404C2001401412002080B500AFD4
:102F1000164A164B1B6C43F002031364144B322207
:102F20001A85134B4FF49672DA62114A104B9B8943
:102F30009BB243F001039BB293811D20FFF744FD38
:102F400000211D20FFF75AFD094A094B1B889BB23F
:102F500043F001039BB21380054A054B9B8A9BB249
:102F600043F001039BB2938200BF80BD0038024052
:102F70000004004080B500AF0E4A0E4B5B6C43F47A
:102F8000803353640C4B0A221A850B4B4FF6FF72A9
:102F9000DA62094A084B9B899BB243F001039BB25A
:102FA00093811820FFF710FD02211820FFF726FD5E
:102FB00000BF80BD003802400040014080B400AF37
:102FC000094A094B1B6C43F008031364074B42F298
:102FD00010721A85054B4FF6FF72DA6200BFBD46CC
:102FE0005DF8047B704700BF00380240000C0040D1
:102FF00080B500AF824A824B1B6B43F00103136321
:103000007F4A7F4B1B6B43F0020313637C4A7C4B6C
:103010001B6B43F010031363794A794B5B6C43F4E9
:1030200080435364774A774BDB6843F48043D36033
:10303000754A754BDB6843F48073D360734A734BF6
:10304000DB68D360724A724B9B6843F080039360E5
:103050006F4A6F4BDB6843F08003D3606C4A6C4B64
:103060001B6843F080031360684A684BDB6843F0D9
:103070000103D360664A664B9B6843F0100393607C
:10308000634A634BDB6843F01003D360604A604BD4
:103090001B6843F010031360594A594B1B6B43F0F4
:1030A000100313635B4A5B4BDB6843F48023D360FC
:1030B000584A584B1B6843F400231360554A554B3C
:1030C0005B6A43F010035362524A524BDB6843F48D
:1030D0008003D3604F4A4F4B1B6843F400031360D7
:1030E0004C4A4C4B5B6A43F480535362444A444B12
:1030F0005B6C43F001035364474B00221A85464B37
:103100004FF6FF72DA62444A434B1B899BB243F08D
:1031100003039BB21381404A3F4B1B899BB243F48C
:1031200070639BB213813C4B64225A623A4A3A4B19
:103130001B889BB243F001039BB21380304A304B93
:103140001B6B43F0020313632F4A2F4BDB6843F4DE
:103150008053D3602C4A2C4B1B6843F400531360FC
:10316000294A294B1B6A43F000731362264A264BF7
:10317000DB6843F48043D360234A234B1B6843F44A
:1031800000431360204A204B1B6A43F00053136234
:103190001B4A1B4B1B6C43F0040313641F4B0022A0
:1031A0001A851E4B4FF6FF72DA621C4A1B4B1B89B5
:1031B0009BB243F003039BB21381184A174B1B8940
:1031C0009BB243F470639BB21381144B64225A6226
:1031D000124A124B1B889BB243F001039BB213802F
:1031E00004210A20FFF70AFC0A20FFF7EDFB042167
:1031F0001720FFF703FC1720FFF7E6FB00BF80BD99
:103200000038024000000240000402400038014043
:10321000003C014000100240000001400008004056
:1032200080B500AF214A214B1B6C43F4002313648B
:103230001F4A1F4B1B6843F4000313601C4A1C4BBE
:103240005B6A43F4004353621A4A1A4B1B899BB2D0
:1032500043F4B4639BB21381164A164B9B899BB20D
:1032600023F480539BB29381124A124B9B899BB2E9
:1032700043F004039BB293810E4A0E4B9B899BB291
:1032800043F020039BB2938103213420FFF7B6FB68
:103290003420FFF799FB074A064B9B899BB243F406
:1032A00000539BB2938100BF80BD00BF0038024035
:1032B00000080240004C004080B5FCB000AF3B1D50
:1032C0001860E54AE44B5B8B9BB243F480539BB29E
:1032D00053833B1D44F62061186800F0B5FBDE4ABD
:1032E000DD4B1B8B9BB243F480539BB213833B1D7E
:1032F00044F62061186800F0A7FB07F10B030122D8
:103300001A7007F10B023B1D1146186800F0B4FB60
:103310003B1D4CF25031186800F096FB07F1180382
:10332000CE4A92E8030083E8030007F12003184621
:1033300001F06CF907F1200307F1180207F10C0006
:1033400006CA01F0A4F907F10C023B1D11461868EA
:1033500000F040FB07F10C03184601F0B9F907F142
:103360002003184601F05EF907F13003BC4A92E8E9
:10337000030083E8030007F13803184601F046F91B
:1033800007F1380307F1300207F1240006CA01F003
:103390007EF907F124023B1D1146186800F01AFB64
:1033A00007F12403184601F093F907F13803184692
:1033B00001F038F907F14803AA4A92E8030083E8CC
:1033C000030007F15003184601F020F907F15003FC
:1033D00007F1480207F13C0006CA01F058F907F16D
:1033E0003C023B1D1146186800F0F4FA07F13C035B
:1033F000184601F06DF907F15003184601F012F973
:1034000007F16003984A92E8030083E8030007F19C
:103410006803184601F0FAF807F1680307F1600243
:1034200007F1540006CA01F032F907F154023B1DBE
:103430001146186800F0CEFA07F15403184601F05F
:1034400047F907F16803184601F0ECF807F1780333
:10345000864A92E8030083E8030007F180031846D8
:1034600001F0D4F807F1800307F1780207F16C004E
:1034700006CA01F00CF907F16C023B1D11461868F1
:1034800000F0A8FA07F16C03184601F021F907F1E2
:103490008003184601F0C6F807F19003744A92E8D9
:1034A000030083E8030007F19803184601F0AEF823
:1034B00007F1980307F1900207F1840006CA01F0B2
:1034C000E6F807F184023B1D1146186800F082FA05
:1034D00007F18403184601F0FBF807F1980318463A
:1034E00001F0A0F807F1A803624A92E8030083E81C
:1034F000030007F1B003184601F088F807F1B003A4
:1035000007F1A80207F19C0006CA01F0C0F807F114
:103510009C023B1D1146186800F05CFA07F19C0301
:10352000184601F0D5F807F1B003184601F07AF813
:1035300007F1C003504A92E8030083E8030007F153
:10354000C803184601F062F807F1C80307F1C0028A
:1035500007F1B40006CA01F09AF807F1B4023B1D66
:103560001146186800F036FA07F1B403184601F066
:10357000AFF807F1C803184601F054F807F1D80373
:103580003E4A92E8030083E8030007F1E00318468F
:1035900001F03CF807F1E00307F1D80207F1CC0095
:1035A00006CA01F074F807F1CC023B1D11461868F9
:1035B00000F010FA07F1CC03184601F089F807F182
:1035C000E003184601F02EF807F1F0032C4A92E8C8
:1035D000030083E8030007F1F803184601F016F82A
:1035E00007F1F80307F1F00207F1E40006CA01F061
:1035F0004EF807F1E4023B1D1146186800F0EAF9A5
:1036000007F1E403184601F063F807F1F8031846E0
:1036100001F008F81B4A07F5847392E8030083E879
:10362000030007F58873184600F0F0FF07F588736C
:1036300007F1FC0007F5847206CA01F028F807F1CB
:10364000FC023B1D1146186800F0C4F907F1FC03A9
:10365000184601F03DF817E0000C0240E8EE0208C1
:10366000F0EE0208F8EE020800EF020808EF020888
:1036700010EF020818EF020820EF020828EF0208F6
:1036800030EF020838EF020807F58873184600F09B
:10369000C9FFC64A07F5907392E8030083E8030068
:1036A00007F59473184600F0B1FF07F5947307F51A
:1036B0008A7007F5907206CA00F0E9FF07F58A7272
:1036C0003B1D1146186800F085F907F58A73184606
:1036D00000F0FEFF07F59473184600F0A3FFB44A0C
:1036E00007F59C7392E8030083E8030007F5A073D5
:1036F000184600F08BFF07F5A07307F5967007F5E5
:103700009C7206CA00F0C3FF07F596723B1D114676
:10371000186800F05FF907F59673184600F0D8FFB7
:1037200007F5A073184600F07DFFA24A07F5A873BD
:1037300092E8030083E8030007F5AC73184600F035
:1037400065FF07F5AC7307F5A27007F5A87206CA06
:1037500000F09DFF07F5A2723B1D1146186800F0AE
:1037600039F907F5A273184600F0B2FF07F5AC73FC
:10377000184600F057FF904A07F5B47392E803002B
:1037800083E8030007F5B873184600F03FFF07F51C
:10379000B87307F5AE7007F5B47206CA00F077FF8C
:1037A00007F5AE723B1D1146186800F013F907F5D6
:1037B000AE73184600F08CFF07F5B873184600F09A
:1037C00031FF7E4A07F5C07392E8030083E80300E7
:1037D00007F5C473184600F019FF07F5C47307F521
:1037E000BA7007F5C07206CA00F051FF07F5BA7249
:1037F0003B1D1146186800F0EDF807F5BA7318463E
:1038000000F066FF07F5C473184600F00BFF6C4A22
:1038100007F5CC7392E8030083E8030007F5D07343
:10382000184600F0F3FE07F5D07307F5C67007F5EC
:10383000CC7206CA00F02BFF07F5C6723B1D11467D
:10384000186800F0C7F807F5C673184600F040FF87
:1038500007F5D073184600F0E5FE5A4A07F5D8730D
:1038600092E8030083E8030007F5DC73184600F0D4
:10387000CDFE07F5DC7307F5D27007F5D87206CADE
:1038800000F005FF07F5D2723B1D1146186800F0E5
:10389000A1F807F5D273184600F01AFF07F5DC739C
:1038A000184600F0BFFE484A07F5E47392E80300AB
:1038B00083E8030007F5E873184600F0A7FE07F554
:1038C000E87307F5DE7007F5E47206CA00F0DFFE64
:1038D00007F5DE723B1D1146186800F07BF807F50E
:1038E000DE73184600F0F4FE07F5E873184600F0A2
:1038F00099FE364A07F5F07392E8030083E8030067
:1039000007F5F473184600F081FE07F5F47307F528
:10391000EA7007F5F07206CA00F0B9FE07F5EA7220
:103920003B1D1146186800F055F807F5EA73184674
:1039300000F0CEFE07F5F473184600F073FE112375
:1039400087F8EB3107F2EB123B1D1146186800F0C7
:1039500093F83B1D1E49186800F076F8292387F874
:10396000EC3107F5F6723B1D1146186800F084F83B
:103970002C2387F8ED3107F2ED123B1D1146186834
:1039800000F07AF83B1D0321186800F01FF90023AE
:10399000A7F8EE3107F5F7723B1D1146186800F0E5
:1039A00071F900BF07F5F877BD4680BD40EF02080A
:1039B00048EF020850EF020858EF020860EF0208D3
:1039C00068EF020870EF020878EF020880EF020843
:1039D00040420F0090B585B000AF7860396000219B
:1039E000386800F090FE03461946786800F044F805
:1039F000144A144B1B8B9BB243F400539BB21383AA
:103A00000123FB73FC7B386800F08CFE03469C426C
:103A100034BF01230023DBB2002B0ED0FB7B194601
:103A2000386800F070FE03461B781946786800F08D
:103A300093FDFB7B0133FB73E4E700BF1437BD4606
:103A400090BD00BF000C024080B483B000AF78602E
:103A500039603B68002B14BF01230023DBB2002B2D
:103A600003D03B68013B3B60F3E700BF0C37BD462A
:103A70005DF8047B7047000080B582B000AF7860CD
:103A80003960154B5B68002B0DD1144B1B899BB221
:103A900003F00303002B06D0104B1B899BB203F0ED
:103AA0008003002B01D0012300E00023002B00D075
:103AB000E7E70B4A0A4B5B8B9BB243F400539BB284
:103AC00053833B681B781946786800F045FD00BFBA
:103AD0000837BD4680BD00BFA064024000500140D1
:103AE000000C024080B582B000AF78603960094AAE
:103AF000084B1B8B9BB243F400539BB213833B6870
:103B00001B781946786800F027FD00BF0837BD46CE
:103B100080BD00BF000C024080B582B000AF78606D
:103B200039600D4A0C4B1B8B9BB243F400539BB284
:103B300013833B681B881B12DBB21946786800F0C0
:103B40000BFD3B681B88DBB21946786800F004FD6A
:103B500000BF0837BD4680BD000C024080B586B06E
:103B600000AFF860084611461A4603467B810B46B3
:103B70003B811346FB802A23BB7507F116031946C8
:103B8000F868FFF779FF07F10A031946F868FFF7AD
:103B9000C3FFBB1D1946F868FFF7BEFF2B23FB755B
:103BA00007F117031946F868FFF766FF07F10803E6
:103BB0001946F868FFF7B0FF07F12001F868FFF732
:103BC000ABFF00BF1837BD4680BD000080B584B094
:103BD00000AF78600B46FB703623FB7207F10B03D6
:103BE00019467868FFF748FFFB78032B2ED801A20F
:103BF00052F823F0053C0008173C0008293C000857
:103C00003B3C000858233B7307F10C0319467868C6
:103C1000FFF768FF1AE088237B7307F10D0319464D
:103C20007868FFF75FFF11E02823BB7307F10E03ED
:103C300019467868FFF756FF08E0E823FB7307F1A1
:103C40000F0319467868FFF74DFF00BF7B68FA78CD
:103C50001A70FB78002B02D0FB78012B07D17B6810
:103C6000F0225A807B684FF4A0729A8006E07B684D
:103C70004FF4A0725A807B68F0229A8000BF103700
:103C8000BD4680BD80B584B002AF786039607B6886
:103C90005B88013B99B27B689B88013B9BB23A6889
:103CA000019200930B4600220021786800F004F88E
:103CB00000BF0837BD4680BD80B588B002AFF86050
:103CC000084611461A4603467B810B463B81134644
:103CD000FB80FA887B89D31A0133398C3A898A1A96
:103CE000013202FB03F37B61F8883A8979893B8CC6
:103CF00000930346F868FFF731FF7B6A1A88FB6878
:103D0000DA802C23BB7407F112031946F868FFF719
:103D1000B3FE324A314B1B8B9BB243F400539BB230
:103D200013830123FB7407F113031946F86800F0AD
:103D3000F1FB2B4B4FF46012DA602A4A294B1B68C7
:103D400023F480631360274A7B69B3F5803F02D375
:103D50007B695B0800E07B695360224AFB6806339D
:103D6000D360204A1F4B1B6843F0010313601E4AB7
:103D70001D4B9B889BB243F002039BB293807B69EF
:103D8000B3F5803F25D3174B5B68002B0DD1164B45
:103D90001B899BB203F00303002B06D0124B1B8937
:103DA0009BB203F08003002B01D0012300E000232D
:103DB000002B00D0E7E70A4B4FF46012DA60094AA3
:103DC0007B695B085360074A064B1B6843F001039D
:103DD000136000BF1837BD4680BD00BF000C024015
:103DE00000640240A06402400050014080B588B0E9
:103DF00002AFF860084611461A4603467B810B461F
:103E00003B811346FB80FA887B89D31A0133398CB6
:103E10003A898A1A013202FB03F37B61F8883A89F6
:103E200079893B8C00930346F868FFF797FE2C23B3
:103E3000BB7407F112031946F868FFF71DFE194A13
:103E4000184B1B8B9BB243F400539BB2138301238B
:103E5000FB7407F113031946F86800F05BFB124B83
:103E60004FF46012DA60114A104B1B6843F4806310
:103E700013600E4A7B6953600C4A7B6AD3600B4A1D
:103E80000A4B1B6843F001031360094A084B9B88E7
:103E90009BB243F002039BB2938000BF1837BD462C
:103EA00080BD00BF000C024000640240A0640240DC
:103EB0000050014080B588B002AFF8607B600B46CF
:103EC0007B8113463B8178893A8979893B890093C4
:103ED0000346F868FFF742FE2C23FB7507F1170332
:103EE0001946F868FFF7C8FD7968F868FFF714FE0F
:103EF00000BF1837BD4680BD90B58BB002AFF860EB
:103F0000084611461A4603467B810B463B81134601
:103F1000FB807B891A46FB685B889A4204DBFB685E
:103F20005B88013B9BB27B81FB881A46FB685B8800
:103F30009A4204DBFB685B88013B9BB2FB803B89B8
:103F40001A46FB689B889A4204DBFB689B88013B0E
:103F50009BB23B813B8E1A46FB689B889A4204DBEE
:103F6000FB689B88013B9BB23B867B891A46FB889A
:103F70009A4206DDBA1D07F10A031146184600F001
:103F8000ECFB3B891A463B8E9A4206DD07F108039B
:103F900007F13001184600F0E0FBFA887B89D31A5C
:103FA0009BB2BB833A8E3B89D31A9BB27B83B7F912
:103FB0001C30002B03D0B7F91A30002B11D17989AE
:103FC0003889FC883B8E7A6B126892B2FA8207F1CC
:103FD00016020192009323460246F868FFF76CFE32
:103FE00048E0B7F91C20B7F91A309A4206DDB7F954
:103FF0001C30DA0F13445B101BB206E0B7F91A301D
:104000005B42DA0F13445B101BB2FB8379893A8958
:104010007B6B1B689BB23B8307F11803F868FFF7C3
:1040200049FF7A89FB889A4203D13A893B8E9A42AA
:104030001FD0B7F91E20B7F91C305B429A4208DD49
:10404000FA8B7B8BD31A9BB2FB837B8901339BB2A8
:104050007B81B7F91E20B7F91A309A42D6DAFA8B6B
:10406000BB8B13449BB2FB833B8901339BB23B81E7
:10407000CCE700BF2437BD4690BD90B589B002AFF4
:10408000F860084611461A4603467B810B463B8181
:104090001346FB807B891A46FB685B889A4204DBE7
:1040A000FB685B88013B9BB27B81FB881A46FB68FF
:1040B0005B889A4204DBFB685B88013B9BB2FB8018
:1040C0003B891A46FB689B889A4204DBFB689B8805
:1040D000013B9BB23B813B8D1A46FB689B889A4211
:1040E00004DBFB689B88013B9BB23B857B891A46BE
:1040F000FB889A4206DDBA1D07F10A0311461846ED
:1041000000F02BFB3B891A463B8D9A4206DD07F1F6
:10411000080307F12801184600F01FFB7989388948
:10412000FC883B89FA6A126892B23A8207F110025F
:104130000192009323460246F868FFF7BDFD798996
:1041400038897C893B8DFA6A126892B27A8207F1CB
:1041500012020192009323460246F868FFF7ACFD75
:104160007989388DFC883B8DFA6A126892B2BA82DE
:1041700007F114020192009323460246F868FFF704
:104180009BFDF9883889FC883B8DFA6A126892B2E7
:10419000FA8207F116020192009323460246F8685C
:1041A000FFF78AFD00BF1C37BD4690BD90B589B0B2
:1041B00002AFF860084611461A4603467B810B465B
:1041C0003B811346FB717B89BA6A12781344FA6803
:1041D0005288934207DDBB6A5B789AB23B891344ED
:1041E0003B8100237B8100237B820023BB82BB8A2F
:1041F000BA6A527893424CDABB6A5A68FB79203B20
:10420000B96A497801FB03F1BB8A0B445B00134494
:104210001B883B820023FB82FB8ABA6A1278934296
:1042200033DA3A8AFB8A02FA03F303F40043002BE1
:1042300012D0FB6893F898361C467A8AFB6A1B6892
:1042400098B2FB684FF4D07101FB04F10A440C32C0
:10425000014623F8121011E0FB6893F898361C46CB
:104260007A8A3B6B1B6898B2FB684FF4D07101FBF4
:1042700004F10A440C32014623F812107B8A013300
:104280007B82FB8A0133FB82C6E7BB8A0133BB8298
:10429000ADE7264B5B68002B0DD1254B1B899BB2EC
:1042A00003F00303002B06D0214B1B899BB203F0C4
:1042B0008003002B01D0012300E00023002B00D05D
:1042C000E7E7BB6A1B789AB27B8913449BB2013B38
:1042D0009CB2BB6A5B789AB23B8913449BB2013BA8
:1042E0009BB2FA6892F8982611464FF4507202FB7E
:1042F00001F21832F9680A443889798901920093E9
:1043000023460246F868FFF771FDFB6893F898367C
:10431000012B14BF01230023DBB21A46FB6883F88C
:10432000982600BF1C37BD4690BD00BFA064024068
:104330000050014080B487B000AFF86008461146D5
:104340001A4603467B810B463B811346FB800023C4
:10435000BB82BB8ABA6A5278934244DA3A89BB8AF2
:1043600013449BB2FA8812FB03F39AB27B8913447D
:104370007B82BB6A5A6897F82430203BB96A497837
:1043800001FB03F1BB8A0B445B0013441B883B8297
:104390000023FB82FB8ABA6A127893421FDA3A8AB8
:1043A000FB8A02FA03F303F40043002B08D07B8A54
:1043B0005B003A6A1344FA6A126892B21A8007E004
:1043C0007B8A5B003A6A13443A6B126892B21A8095
:1043D0007B8A01337B82FB8A0133FB82DAE7BB8A6B
:1043E0000133BB82B5E700BF1C37BD465DF8047BD7
:1043F000704780B58CB004AFF8607B600B467B8162
:1044000013463B817B68FB61F8690EF04AFC03466A
:104410007B61F8690EF047FC03463B6107F110022F
:1044200007F114031146184600F0B6F90346002BB5
:104430001FD007F11403184600F0D6F9B861BB6924
:1044400018783A8979893B6B0293FB6A0193BB6ABE
:1044500000930346F868FFF7A9FEBB6A1B789AB27F
:104460007B8913447B8107F11403184600F0ACF9F3
:10447000D4E700BF2037BD4680BD90B58FB006AFF2
:10448000F860084611461A4603467B810B463B817D
:104490001346FB807B6BFB61F8690EF002FC034660
:1044A0007B61F8690EF0FFFB03463B6107F11002E8
:1044B00007F114031146184600F06EF90346002B6D
:1044C00024D007F11403184600F08EF9B861BB69D7
:1044D0001B78FC88388979893A6C0492FA6B0392CC
:1044E000BA6B029201933B6B009323460246F86835
:1044F000FFF720FFBB6B1B789AB27B8913447B814B
:1045000007F11403184600F05FF9CFE700BF243726
:10451000BD4690BD80B483B000AF786039603B6821
:104520001B78012B08D10B4A0A4B1B889BB243F422
:1045300000639BB2138007E0064A064B1B889BB2C0
:1045400023F400639BB2138000BF0C37BD465DF8B7
:10455000047B70470050014080B584B000AF7860A4
:104560000B46FB70264B5B68002B0DD1254B1B893E
:104570009BB203F00303002B06D0224B1B899BB296
:1045800003F08003002B01D0012300E00023002B67
:1045900000D0E7E71B4B1B889BB203F40063002BA2
:1045A00014BF01230023DBB2002B07D00023FB72D2
:1045B00007F10B0319467868FFF7ACFF124BFB605D
:1045C000FB68FA781A700E4B5B68002B0DD10D4B0F
:1045D0001B899BB203F00303002B06D0094B1B89F8
:1045E0009BB203F08003002B01D0012300E00023E5
:1045F000002B00D0E7E700BF1037BD4680BD00BFED
:10460000A0640240005001400C50014080B582B0CF
:1046100000AF7860786800F0F3F87B6818460837D8
:10462000BD4680BD80B582B000AF7860786800F08C
:10463000F2F87B6818460837BD4680BD80B483B069
:1046400000AF78607B681B6818460C37BD465DF884
:10465000047B704780B483B000AF78607B685B6890
:1046600018460C37BD465DF8047B704790B583B0A3
:1046700000AF78607868FFF7E1FF04467868FFF7DD
:10468000E9FF0346234418460C37BD4690BDB0B53C
:1046900086B000AFF860381D80E806003B60FB681C
:1046A0003968184600F0CEF83B1D1846FFF7C6FFE4
:1046B00004463B1D1846FFF7D9FF02462B4621460C
:1046C000F86800F0E7F8FB6818461837BD46B0BD3B
:1046D000B0B582B000AF78607B681C687B685D68AD
:1046E0007B68184600F004F903461A46294620461E
:1046F00000F009F97B68184600F0B3F87B681846AB
:104700000837BD46B0BD80B483B000AF7860396073
:104710007B681A683B68134418460C37BD465DF841
:10472000047B704780B483B000AF78607B685B68BF
:104730001A467B681B68D31A18460C37BD465DF8CD
:10474000047B704780B483B000AF78607B68184604
:104750000C37BD465DF8047B704780B584B000AF70
:10476000786039607868FFF7EDFF03461B88FB81AE
:104770003868FFF7E7FF03461A887B681A8007F15D
:104780000E031846FFF7DEFF03461A883B681A80BF
:1047900000BF1037BD4680BD90B583B000AF7860D4
:1047A0003960786800F0BDF803461C68386800F08E
:1047B000B8F803461B689C4214BF01230023DBB2F8
:1047C00018460C37BD4690BD80B483B000AF78600A
:1047D0007B681B685A1C7B681A607B6818460C371C
:1047E000BD465DF8047B704780B483B000AF78604D
:1047F0007B681B6818460C37BD465DF8047B704724
:1048000080B483B000AF78607B6818460C37BD4633
:104810005DF8047B704780B483B000AF78607B683C
:1048200018460C37BD465DF8047B704780B582B0F2
:1048300000AF78607868FFF7F5FE7B6818460837A8
:10484000BD4680BD80B582B000AF786039607B68BE
:104850003968184600F070F87B6818460837BD467E
:1048600080BD80B582B000AF78607B6819687B68D6
:104870009B681A467B681B68D31A1A46786800F052
:1048800072F87B681846FFF7D1FF7B681846083737
:10489000BD4680BD90B587B000AFF860B9607A6062
:1048A0003B707968B86800F071F803467B61FB687B
:1048B0007969184600F07EF80246FB681A60FB68CA
:1048C0001A687B691A44FB689A60FB681C68FB687D
:1048D000184600F00DF8034622467968B86800F0E3
:1048E0007DF80246FB685A6000BF1C37BD4690BD8C
:1048F00080B483B000AF78607B6818460C37BD4643
:104900005DF8047B704780B584B000AFF860B96093
:104910007A60B968F86800F072F800BF1037BD46D9
:1049200080BD80B483B000AF78607B6818460C37D8
:10493000BD465DF8047B704780B582B000AF7860FB
:1049400039603968786800F067F87B6800221A607F
:104950007B6800225A607B6800229A607B68184658
:104960000837BD4680BD80B584B000AFF860B9603F
:104970007A60BB68002B05D0FB687A68B968184676
:1049800000F058F800BF1037BD4680BDB0B584B008
:1049900000AF786039607C683B1D184600F059F81C
:1049A0002A463968204600F05EF80346184610375C
:1049B000BD46B0BD80B582B000AF786039603B685D
:1049C000002B06D07B683968184600F05BF8034678
:1049D00000E0002318460837BD4680BD80B584B08E
:1049E00000AFF860B9607A603B607A68B968F868CF
:1049F00000F057F8034618461037BD4680BD80B515
:104A000082B000AF786039603968786800F05BF890
:104A100000BF0837BD4680BD80B582B000AF78606A
:104A200039603968786800F059F87B6818460837AB
:104A3000BD4680BD80B584B000AFF860B9607A60D3
:104A40007A68B968F86800F055F800BF1037BD46BD
:104A500080BD80B483B000AF786018460C37BD4687
:104A60005DF8047B704780B485B000AFF860B96032
:104A70003A71BA68FB68D31A18461437BD465DF818
:104A8000047B704780B582B000AF78603960002247
:104A90003968786800F03BF8034618460837BD4689
:104AA00080BD80B586B000AFF860B9607A60012340
:104AB000FB757A68B968F86800F045F8034618464F
:104AC0001837BD4680BD80B483B000AF78603960D0
:104AD00000BF0C37BD465DF8047B704780B483B0DF
:104AE00000AF786039607B6818460C37BD465DF8CA
:104AF000047B704780B584B000AFF860B9607A601D
:104B0000B86808F0FBF800BF1037BD4680BD80B51F
:104B100084B000AFF860B9607A60F86800F023F8FC
:104B20000246BB689A4234BF01230023DBB2002B4C
:104B300001D015F0C8FBB86808F0E7F8034618463E
:104B40001037BD4680BD80B584B000AFF860B96055
:104B50007A607A68B968F86800F011F80346184678
:104B60001037BD4680BD80B483B000AF78604FF091
:104B7000FF3318460C37BD465DF8047B704790B58F
:104B800085B000AFF860B9607A60F86800F00FF89F
:104B90000446B86800F00BF803467A6819462046C8
:104BA00000F010F8034618461437BD4690BD80B497
:104BB00083B000AF78607B6818460C37BD465DF85F
:104BC000047B7047B0B584B000AFF860B9607A601C
:104BD000F86800F013F80446B86800F00FF80546CE
:104BE000786800F016F803461A462946204600F079
:104BF0001BF8034618461037BD46B0BD80B483B0DD
:104C000000AF78607B6818460C37BD465DF8047BC2
:104C1000704780B483B000AF78607B6818460C376B
:104C2000BD465DF8047B704780B586B000AFF86084
:104C3000B9607A600123FB757A68B968F86800F09A
:104C400005F8034618461837BD4680BD80B586B0C6
:104C500000AFF860B9607A60BA68FB68D31A7B610C
:104C60007B69002B05D07B691A46F968786823F0C8
:104C70001DFD7B697A68134418461837BD4680BD10
:104C800080B483B000AF786039603B6818460C3759
:104C9000BD465DF8047B704780B483B000AF786098
:104CA0007B68B3F5007F05D24FF400727B68B2FBDE
:104CB000F3F300E0012318460C37BD465DF8047B92
:104CC000704780B582B000AF78607B6820331846AB
:104CD0000DF0B6FF7B68043318460DF0B1FF7B681A
:104CE00018460837BD4680BD80B483B000AF7860F9
:104CF0007B6800221A707B68F0225A807B684FF430
:104D0000A0729A807B680C4A083392E8030083E81B
:104D100003007B68094A103392E8030083E803002C
:104D20007B68002283F898267B6818460C37BD46BE
:104D30005DF8047B704700BF88EF020890EF02081F
:104D400090B5ADF53D7D00AF3B1D18603B1D1B6868
:104D500000229A703B1D1B681C1D07F110030022E6
:104D60001A7007F5E873184607F0E8FF07F5E872D0
:104D700007F110030433F14918460EF08DFA07F1DC
:104D8000100300221A7707F11003203318460DF0A4
:104D90002DFF07F11003012283F8382007F5EA738D
:104DA000184607F0CBFF07F5EA7207F110033C3312
:104DB000E34918460EF070FA07F11003012283F858
:104DC000542007F11003583318460DF00FFF07F178
:104DD0001003022283F8702007F5EC73184607F0E1
:104DE000ADFF07F5EC7207F110037433D54918468F
:104DF0000EF052FA07F11003042283F88C2007F119
:104E00001003903318460DF0F1FE07F11003032252
:104E100083F8A82007F5EE73184607F08FFF07F513
:104E2000EE7207F11003AC33C74918460EF034FA9E
:104E300007F11003062283F8C42007F11003C833DA
:104E400018460DF0D3FE07F11003042283F8E0208A
:104E500007F5F073184607F071FF07F5F07207F1D8
:104E60001003E433B94918460EF016FA07F110039F
:104E7000052283F8FC2007F1100303F58073184620
:104E80000DF0B4FE07F11003052283F8182107F591
:104E9000F273184607F052FF07F5F27207F110039C
:104EA00003F58E73AA4918460EF0F6F907F11003C0
:104EB000022283F8342107F1100303F59C7318468E
:104EC0000DF094FE07F11003052283F8502107F539
:104ED000F473184607F032FF07F5F47207F1100378
:104EE00003F5AA739B4918460EF0D6F907F1100393
:104EF000032283F86C2107F1100303F5B8731846F9
:104F00000DF074FE07F11003062283F8882107F5DF
:104F1000F673184607F012FF07F5F67207F1100353
:104F200003F5C6738C4918460EF0B6F907F1100365
:104F3000092283F8A42107F1100303F5D47318465E
:104F40000DF054FE07F1080307F110021A6007F193
:104F5000080308225A6007F5F873184602F09CF817
:104F600007F5F87307F1080206CA204602F0D9F8DF
:104F700007F5F873184602F09BF807F1100404F5E2
:104F8000E07407F110039C4204D0383C2046FFF740
:104F900098FEF6E707F5F673184607F0D0FE07F51A
:104FA000F473184607F0CBFE07F5F273184607F0C6
:104FB000C6FE07F5F073184607F0C1FE07F5EE735D
:104FC000184607F0BCFE07F5EC73184607F0B7FE6D
:104FD00007F5EA73184607F0B2FE07F5E8731846BE
:104FE00007F0ADFE3B1D1B6803F11004002387F89A
:104FF000FC3107F53773184607F0A0FE07F5377246
:1050000007F5FE7304334D4918460EF045F90023A9
:1050100087F8183207F5FE73203318460DF0E6FDC9
:10502000012387F8343207F53873184607F086FEF7
:1050300007F5387207F5FE733C33414918460EF008
:105040002BF9012387F8503207F5FE7358331846C1
:105050000DF0CCFD022387F86C3207F53973184642
:1050600007F06CFE07F5397207F5FE7374333B49A0
:1050700018460EF011F9072387F8883207F5FE73FA
:10508000903318460DF0B2FD032387F8A43207F5DC
:105090003A73184607F052FE07F53A7207F5FE73A9
:1050A000AC332F4918460EF0F7F8082387F8C032C2
:1050B00007F5FE73C83318460DF098FD07F5FE732B
:1050C000C7F8F4310423C7F8F83107F53B731846E5
:1050D00001F0E2FF07F53B7307F5FA7206CA2046B6
:1050E00002F01FF807F53B73184601F0E1FF07F5E2
:1050F000FE74E03407F5FE739C4204D0383C204631
:10510000FFF7DFFDF6E707F53A73184607F017FEDD
:1051100007F53973184607F012FE07F5387318467D
:1051200007F00DFE07F53773184607F008FE3B1D24
:105130001B68184607F53D77BD4690BD98EF0208FD
:10514000A8EF0208B4EF0208C0EF0208CCEF020893
:10515000D8EF0208E4EF0208F4EF020800F00208BA
:105160000CF0020880B582B000AF78607B6818460A
:1051700002F020F87B6818460837BD4680BD000065
:10518000B0B58CB000AF78607C6807F108031846B2
:1051900002F003F807F108031946204602F03AF836
:1051A00007F10803184602F005F87B68002283F82F
:1051B00028207B682C33184602F03FF87B68074AAA
:1051C00003F1600415460FCD0FC495E80F0084E885
:1051D0000F007B6818463037BD46B0BD14F002089A
:1051E00080B483B000AF78607B680A221A807B6845
:1051F00042F228325A807B680B4A5A607B68002250
:105200001A727B6804225A727B680A221A827B68AF
:1052100000221A777B6807225A777B6818460C377A
:10522000BD465DF8047B7047EA11002080B586B06A
:1052300000AF78607B681B889BB207EE903AB8EEAF
:10524000E77A274BD3ED007A27EE277A254B1B8888
:105250001BB207EE903AF8EEE77A37EE277ADFEDE9
:10526000226AC7EE267AB6EE007A37EEC77A1F4B6F
:105270001B785BB207EE903AF8EEE76AB2EE006A8E
:10528000C6EE267A67EE277AB6EE007A77EE877A50
:105290009FED177A67EE877AC7ED037A154B3B616E
:1052A00007F1100207F10C0311461846FDF7A5FAA5
:1052B00002464FF07E537B6107F1140319461046F6
:1052C000FDF7CBFA0346D3ED007AFCEEE77AC7EDA3
:1052D000007A3B889BB218461837BD4680BD00BF98
:1052E0000800002004000020000080460C00002080
:1052F000000057430000564380B483B000AF0D4B0D
:105300001B881BB2C3F5005307EE903AF8EEE76A2C
:10531000094B93ED007AC6EE877AFCEEE77AC7ED8B
:10532000017ABB889BB218460C37BD465DF8047BFA
:10533000704700BF040000200800002080B483B044
:1053400000AF0346FB80154B1B6807EE903AB8EEA2
:10535000677AFB8807EE903AF8EEE77A77EEA76A6D
:105360000F4B1B8D9BB2013307EE903AF8EEE77AB4
:1053700066EEA76A0A4BDB6A013307EE903AF8EE55
:10538000677A66EEA77AC7EE276AF0EE667AB0EE25
:10539000670A0C37BD465DF8047B7047200000208B
:1053A0000004004090B583B000AF8A4A894B1B8A45
:1053B0009BB223F001039BB21382874B1B78012B16
:1053C00004D0854B1B78022B40F0C780834B03F53C
:1053D00000531A88824B1B889BB29A4206D1814B9C
:1053E0001B78DBB2002B01D0012300E00023002B4F
:1053F0000DD07D4B1B78DBB21A46784B134403F576
:1054000000530E3301221A70764B00221A70754B2E
:105410001B78DBB2002B00F0A983704B03F500531F
:1054200010331B78002B2BD16F4B1B78DBB2184647
:105430006B4B1B889BB219466C4B1B889BB21A4660
:105440006A4BDB889BB21344684A928992B2134438
:10545000664A528A92B2134407EE903AB8EEE77A5F
:10546000F1EE006AC7EE267A9FED617A77EE677AF1
:105470005A4A83020B449B001344C3ED007A64E054
:10548000564B03F5005310331B78012B2BD1564B91
:105490001B78DBB21846524B1B889BB21946534B04
:1054A0005B889BB21A46514B1B899BB213444F4AEF
:1054B000D28992B213444D4A928A92B2134407EEB3
:1054C000903AB8EEE77AF1EE006AC7EE267A9FEDE1
:1054D000487A77EE677A414A83020B449B00134473
:1054E000C3ED007A31E03D4B03F5005310331B78D8
:1054F000022B2AD13C4B1B78DBB21846384B1B8859
:105500009BB21946394B9B889BB21A46374B5B8935
:105510009BB21344354A128A92B21344334AD28A58
:1055200092B2134407EE903AB8EEE77AF1EE006AD1
:10553000C7EE267A9FED2E7A77EE677A274A8302A6
:105540000B449B001344C3ED007A254B1B889BB290
:1055500001339AB2224B1A8008E31F4B1B78032BAE
:1055600040F062811D4B03F5005310331B78002B74
:1055700014D11E4B1B889AB21C4BDB889BB2134480
:105580009AB21A4B9B899BB213449AB2174B5B8A0F
:105590009BB213449AB2174B1A8041E00F4B03F5AC
:1055A000005310331B78012B26D1104B5B889AB225
:1055B0000E4B1B899BB213449AB20C4BDB899BB2F6
:1055C00013449AB2094B9B8A9BB213449AB2094B7B
:1055D0001A8025E00004004048120020E81800204E
:1055E000F2110020F9110020FD11002014120020FA
:1055F00000E0FF44EA1100207E4B9B889AB27D4B6D
:105600005B899BB213449AB27A4B1B8A9BB21344B8
:105610009AB2784BDB8A9BB213449AB2764B1A80CB
:10562000764B1B78DBB283F00103DBB2002B23D077
:10563000734B1B889BB21A46724B1B889BB29A42D3
:105640001ADA6D4B1B889BB21A466E4B1B889BB2B5
:105650009A4211DB6C4B1B78DBB283F00103DBB2A7
:10566000002B07D1684B5B78DBB283F00103DBB220
:10567000002B01D0012300E00023002B17D05F4B4B
:1056800001221A70604B1B78DBB2002B01D0012283
:1056900000E000225D4B1A705D4B00221A805B4BCC
:1056A0001B78DBB21A465B4B002123F81210534BD8
:1056B0001B78DBB2002B00F09680544B1B78DBB2DA
:1056C0001946534B1B889BB21C464B4B1B8898B208
:1056D000514A0B469B000B449B012344014622F890
:1056E00013104B4B1B889BB2002B13DD444B1B88C4
:1056F0009BB21A46434B1B889BB29A420ADA3E4B36
:105700001B889BB21A463F4B1B889BB29A4201DB17
:10571000012300E00023002B49D03C4B1B78DBB277
:105720001A463B4B1B8899B23A4B23F81210374B61
:105730001B78DBB21A46344B01219954334B1B784A
:10574000DBB21C46324B1B889BB21846FFF7F6FDB6
:10575000F0EE407A314AA3001344C3ED007A274BA0
:1057600000221A702A4B1B889BB21A4640F217136C
:105770009A42D4BF01230023DBB2002B33D0244B49
:105780001B889BB21A46264BDB6A013303FB02F3EC
:10579000DB08244AA2FB03235B08FB80B7F9063031
:1057A000002B20DD1E4AB7F90630D3621BE0184BF0
:1057B0001B889BB240F23F1293420CBF012300238F
:1057C000DBB2002B08D00D4B00221A70144A144B88
:1057D000DB6A1E33D36206E00D4B1B889BB201339C
:1057E0009AB20B4B1A80044B1B889AB2044B1A8056
:1057F000BCE100BF14120020EA110020F9110020C2
:10580000F01100200E0000203C120020FD110020AD
:10581000F211002030120020E4020020401200208B
:10582000000400400FEAA00E864B1B78002B40F0CE
:105830009D81854B1B889AB2834BDB889BB21344B6
:105840009AB2814B9B899BB213449AB27E4B5B8A7E
:105850009BB213449AB27D4B1A807B4B5B889AB201
:10586000794B1B899BB213449AB2774BDB899BB26D
:1058700013449AB2744B9B8A9BB213449AB2744BF2
:105880001A80714B9B889AB26F4B5B899BB2134411
:105890009AB26D4B1B8A9BB213449AB26A4BDB8A55
:1058A0009BB213449AB26B4B1A806B4B1B78DBB2E2
:1058B00083F00103DBB2002B2ED0684B1B78DBB2E8
:1058C00083F00103DBB2002B07D1654B1B78DAB202
:1058D000644B1B78DBB29A421ED0634B5B68002B93
:1058E00018D0624B1B889BB21A465F4B1B889A42AA
:1058F00012DD5F4B1B889BB21A465B4B5B889A425A
:105900000ADA594B5B681B889BB21A46564B5B8878
:105910009A4201DB012300E00023002B53D04E4BC1
:1059200001221A70504B5B68002B14D1514B00229E
:105930001A804B4B1B78DBB21A464F4B002123F8E1
:105940001210474B1B78DBB21A464C4B4FF6FF71D7
:1059500023F8121037E0424B1B78DBB21946454B57
:105960001B889AB2404B1B88D31A9BB21AB2424B87
:1059700023F811203A4B1B78DBB21A463E4B33F822
:1059800012301BB29BB2DB0BDBB2002B10D0344BBE
:105990001B78DBB21A461946374B33F811301BB26D
:1059A0009BB203F5A0739BB219B2334B23F81210CC
:1059B0002B4B1B78DBB21A462B4B1B88013B99B251
:1059C0002E4B23F81210244B1B78DBB2002B0DD08A
:1059D000234B1B78DBB21A46284B33F812309BB2AC
:1059E00040F23F12934201D1012300E00023002B3B
:1059F00010D01B4B1B78DBB2012B14BF01230023FB
:105A0000DBB21A46164B1A70184B00221A80124B42
:105A100000221A70104B1B78DBB2002B0FD10F4BFA
:105A20001B78DBB283F00103DBB2002B07D10C4BF8
:105A30001B78DAB20B4B1B78DBB29A4220D00123E1
:105A40001FE000BF4812002014120020EA110020BD
:105A5000EC110020EE110020F9110020FA110020B5
:105A6000FD110020FE110020D0730020F61100204F
:105A7000F0110020F211002000120020041200207A
:105A80000023002B72D03B4B1B78DBB219463A4BFC
:105A90001B889BB21C46394B1B8898B2384A0B4670
:105AA0009B000B449B012344014622F81310314B09
:105AB0001B78DBB21946304B1B889BB21C46314B1E
:105AC0001B8898B2304A0B469B000B449B01234431
:105AD000014622F81310274B1B78DBB21946264BE0
