:020000040800F2
:1000000000000320CD3B00081F3C00082D3C0008E9
:10001000333C0008393C00083F3C00080000000069
:10002000000000000000000000000000453C000847
:10003000533C000800000000613C00086F3C0008D1
:100040001D3C00081D3C00081D3C00081D3C00082C
:100050001D3C00081D3C00081D3C00081D3C00081C
:100060001D3C00081D3C00081D3C0008350E000822
:10007000490E00085D0E0008710E0008850E00088C
:10008000990E0008AD0E00081D3C00081D3C00083C
:100090001D3C00081D3C00081D3C0008312E0008D6
:1000A0001D3C00081D3C00081D3C00081D3C0008CC
:1000B0001D3C0008F1290008752E00081D3C0008B1
:1000C0001D3C00081D3C00081D3C00081D3C0008AC
:1000D0001D3C00081D3C00081D3C00081D3C00089C
:1000E0001D3C00081D3C00081D3C00081D3C00088C
:1000F0001D3C00081D3C00081D3C0008C10E000806
:100100001D3C00081D3C00081D3C00081D3C00086B
:100110001D3C00081D3C00081D3C00081D3C00085B
:10012000D50E0008E90E0008FD0E0008110F0008AA
:10013000250F00081D3C00081D3C00081D3C000860
:100140001D3C00081D3C00081D3C00081D3C00082B
:10015000390F00084D0F0008610F00081D3C000812
:100160001D3C00081D3C00081D3C00081D3C00080B
:100170001D3C00081D3C00081D3C00081D3C0008FB
:100180001D3C00081D3C00081D3C00081D3C0008EB
:100190001D3C00081D3C00081D3C00081D3C0008DB
:0C01A0001D3C00081D3C00081D3C000830
:1001B00010B5054C237833B9044B13B10448AFF3A1
:1001C00000800123237010BD840000200000000087
:1001D0002066000808B5034B1BB103490348AFF381
:1001E000008008BD00000000880000202066000894
:1001F00081F0004102E000BF83F0004330B54FEAD8
:1002000041044FEA430594EA050F08BF90EA020F44
:100210001FBF54EA000C55EA020C7FEA645C7FEAD7
:10022000655C00F0E2804FEA5454D4EB5555B8BFFA
:100230006D420CDD2C4480EA020281EA030382EA6B
:10024000000083EA010180EA020281EA0303362DFD
:1002500088BF30BD11F0004F4FEA01314FF4801CD0
:100260004CEA113102D0404261EB410113F0004FE2
:100270004FEA03334CEA133302D0524263EB430399
:1002800094EA050F00F0A780A4F10104D5F1200E37
:100290000DDB02FA0EFC22FA05F2801841F1000192
:1002A00003FA0EF2801843FA05F359410EE0A5F166
:1002B00020050EF1200E012A03FA0EFC28BF4CF097
:1002C000020C43FA05F3C01851EBE37101F000454D
:1002D00007D54FF0000EDCF1000C7EEB00006EEB5A
:1002E0000101B1F5801F1BD3B1F5001F0CD34908E4
:1002F0005FEA30004FEA3C0C04F101044FEA44523B
:1003000012F5800F80F09A80BCF1004F08BF5FEAC1
:10031000500C50F1000041EB045141EA050130BDA1
:100320005FEA4C0C404141EB010111F4801FA4F144
:100330000104E9D191F0000F04BF01460020B1FA99
:1003400081F308BF2033A3F10B03B3F120020CDAD1
:100350000C3208DD02F1140CC2F10C0201FA0CF0AF
:1003600021FA02F10CE002F11402D8BFC2F1200C14
:1003700001FA02F120FA0CFCDCBF41EA0C019040CA
:10038000E41AA2BF01EB0451294330BD6FEA040413
:100390001F3C1CDA0C340EDC04F11404C4F12002FE
:1003A00020FA04F001FA02F340EA030021FA04F310
:1003B00045EA030130BDC4F10C04C4F1200220FA67
:1003C00002F001FA04F340EA0300294630BD21FAA5
:1003D00004F0294630BD94F0000F83F4801306BF6B
:1003E00081F480110134013D4EE77FEA645C18BF5F
:1003F0007FEA655C29D094EA050F08BF90EA020FF6
:1004000005D054EA000C04BF1946104630BD91EAED
:10041000030F1EBF0021002030BD5FEA545C05D1F0
:100420004000494128BF41F0004130BD14F580042F
:100430003CBF01F5801130BD01F0004545F0FE41A3
:1004400041F470014FF0000030BD7FEA645C1ABFD8
:10045000194610467FEA655C1CBF0B46024650EA0F
:10046000013406BF52EA033591EA030F41F400213B
:1004700030BD00BF90F0000F04BF0021704730B5C1
:100480004FF4806404F132044FF000054FF0000196
:1004900050E700BF90F0000F04BF0021704730B557
:1004A0004FF4806404F1320410F0004548BF40422C
:1004B0004FF000013EE700BF42004FEAE2014FEA81
:1004C00031014FEA02701FBF12F07F4393F07F4F5C
:1004D00081F06051704792F0000F14BF93F07F4F8E
:1004E000704730B54FF4607401F0004521F00041D1
:1004F00020E700BF50EA010208BF704730B54FF057
:1005000000050AE050EA010208BF704730B511F05B
:10051000004502D5404261EB41014FF4806404F193
:1005200032045FEA915C3FF4DCAE4FF003025FEA15
:10053000DC0C18BF03325FEADC0C18BF033202EB9D
:10054000DC02C2F1200300FA03FC20FA02F001FAF7
:1005500003FE40EA0E0021FA02F11444C1E600BF96
:1005600070B54FF0FF0C4CF4E06C1CEA11541DBF49
:100570001CEA135594EA0C0F95EA0C0F00F0DEF814
:100580002C4481EA030621EA4C5123EA4C5350EAF9
:10059000013518BF52EA033541F4801143F480134A
:1005A00038D0A0FB02CE4FF00005E1FB02E506F0DB
:1005B0000042E0FB03E54FF00006E1FB03569CF030
:1005C000000F18BF4EF0010EA4F1FF04B6F5007F36
:1005D00064F5407404D25FEA4E0E6D4146EB0606A8
:1005E00042EAC62141EA55514FEAC52040EA5E5031
:1005F0004FEACE2EB4F1FD0C88BFBCF5E06F1ED8DB
:10060000BEF1004F08BF5FEA500E50F1000041EB11
:10061000045170BD06F0004646EA010140EA0200BE
:1006200081EA0301B4EB5C04C2BFD4EB0C0541EAE0
:10063000045170BD41F480114FF0000E013C00F3F5
:10064000AB8014F1360FDEBF002001F0004170BD19
:10065000C4F10004203C35DA0C341BDC04F1140432
:10066000C4F1200500FA05F320FA04F001FA05F2BE
:1006700040EA020001F0004221F0004110EBD3708B
:1006800021FA04F642EB06015EEA430E08BF20EAB7
:10069000D37070BDC4F10C04C4F1200500FA04F35A
:1006A00020FA05F001FA04F240EA020001F00041EC
:1006B00010EBD37041F100015EEA430E08BF20EA5F
:1006C000D37070BDC4F1200500FA05F24EEA020EA7
:1006D00020FA04F301FA05F243EA020321FA04F0D6
:1006E00001F0004121FA04F220EA020000EBD3708D
:1006F0005EEA430E08BF20EAD37070BD94F0000F8D
:100700000FD101F00046400041EB010111F4801FC0
:1007100008BF013CF7D041EA060195F0000F18BF71
:10072000704703F00046520043EB030313F4801FAD
:1007300008BF013DF7D043EA0603704794EA0C0F67
:100740000CEA135518BF95EA0C0F0CD050EA41067D
:1007500018BF52EA4306D1D181EA030101F00041FA
:100760004FF0000070BD50EA410606BF1046194622
:1007700052EA430619D094EA0C0F02D150EA01362E
:1007800013D195EA0C0F05D152EA03361CBF10466F
:1007900019460AD181EA030101F0004141F0FE410E
:1007A00041F470014FF0000070BD41F0FE4141F492
:1007B000780170BD70B54FF0FF0C4CF4E06C1CEA92
:1007C00011541DBF1CEA135594EA0C0F95EA0C0F47
:1007D00000F0A7F8A4EB050481EA030E52EA033502
:1007E0004FEA013100F088804FEA03334FF0805523
:1007F00045EA131343EA12634FEA022245EA111550
:1008000045EA10654FEA00260EF000419D4208BF00
:10081000964244F1FD0404F5407402D25B084FEAAD
:100820003202B61A65EB03055B084FEA32024FF459
:1008300080104FF4002CB6EB020E75EB030E22BFB6
:10084000B61A754640EA0C005B084FEA3202B6EB76
:10085000020E75EB030E22BFB61A754640EA5C0025
:100860005B084FEA3202B6EB020E75EB030E22BFB5
:10087000B61A754640EA9C005B084FEA3202B6EBB6
:10088000020E75EB030E22BFB61A754640EADC0075
:1008900055EA060E18D04FEA051545EA16754FEAD7
:1008A00006164FEAC30343EA52734FEAC2025FEAF5
:1008B0001C1CC0D111F4801F0BD141EA00014FF084
:1008C00000004FF0004CB6E711F4801F04BF014355
:1008D0000020B4F1FD0C88BFBCF5E06F3FF6AFAE71
:1008E000B5EB030C04BFB6EB020C5FEA500C50F101
:1008F000000041EB045170BD0EF0004E4EEA113184
:1009000014EB5C04C2BFD4EB0C0541EA045170BD8A
:1009100041F480114FF0000E013C90E645EA060ECE
:100920008DE60CEA135594EA0C0F08BF95EA0C0FFC
:100930003FF43BAF94EA0C0F0AD150EA01347FF444
:1009400034AF95EA0C0F7FF425AF104619462CE71B
:1009500095EA0C0F06D152EA03353FF4FDAE10467E
:10096000194622E750EA410618BF52EA43067FF4CF
:10097000C5AE50EA41047FF40DAF52EA43057FF45F
:10098000EBAE12E74FF0FF3C06E000BF4FF0010C6A
:1009900002E000BF4FF0010C4DF804CD4FEA410CCE
:1009A0007FEA6C5C4FEA430C18BF7FEA6C5C1BD09B
:1009B00001B050EA410C0CBF52EA430C91EA030F1C
:1009C00002BF90EA020F0020704710F1000F91EA79
:1009D000030F58BF994208BF90422CBFD8176FEA47
:1009E000E37040F0010070474FEA410C7FEA6C5C15
:1009F00002D150EA013C07D14FEA430C7FEA6C5C1C
:100A0000D6D152EA033CD3D05DF8040B704700BF47
:100A10008446104662468C461946634600E000BF95
:100A200001B5FFF7B7FF002848BF10F1000F01BD67
:100A30004DF808EDFFF7F4FF0CBF012000205DF832
:100A400008FB00BF4DF808EDFFF7EAFF34BF0120B7
:100A500000205DF808FB00BF4DF808EDFFF7E0FF50
:100A600094BF012000205DF808FB00BF4DF808EDA1
:100A7000FFF7CEFF94BF012000205DF808FB00BF08
:100A80004DF808EDFFF7C4FF34BF012000205DF8EA
:100A900008FB00BF4FEA410C7FEA6C5C02D150EAD0
:100AA000013C0AD14FEA430C7FEA6C5C02D152EA66
:100AB000033C02D14FF0000070474FF00100704737
:100AC0004FEA410212F5001215D211D56FF4787376
:100AD000B3EB625212D94FEAC12343F0004343EA19
:100AE000505311F0004F23FA02F018BF40427047F4
:100AF0004FF00000704750EA013005D111F000407E
:100B000008BF6FF0004070474FF00000704700BF13
:100B10004A0011D212F5001211D20DD56FF478737C
:100B2000B3EB62520ED44FEAC12343F0004343EAD1
:100B3000505323FA02F070474FF00000704750EA1C
:100B4000013002D14FF0FF3070474FF00000704786
:100B50004FEA4102B2F1E04324BFB3F5001CDCF1DF
:100B6000FE5C0DD901F0004C4FEAC0024CEA507017
:100B7000B2F1004F40EB830008BF20F00100704746
:100B800011F0804F21D113F13872BCBF01F0004049
:100B9000704741F480114FEA5252C2F11802C2F17B
:100BA000200C10FA0CF320FA02F018BF40F00100FC
:100BB0004FEAC1234FEAD32303FA0CFC40EA0C00AE
:100BC00023FA02F34FEA4303CCE77FEA625307D1EB
:100BD00050EA01331EBF4FF0FE4040F44000704722
:100BE00001F0004040F0FE4040F40000704700BFBC
:100BF00080B485B000AF786039607B68184A934252
:100C00000AD8184BFB607A68174B1344174AA2FBAB
:100C100003231B09BB6009E0154BFB607A68154B89
:100C20001344124AA2FB03231B09BB60BB68032BBE
:100C300005D9FB680433FB60BB68043BBB60FB6801
:100C40003A6802F03D020C48B968014409788A40CC
:100C50001A6000BF1437BD465DF8047B704700BFC3
:100C60000F64024008600240F09FFDBFABAAAAAA31
:100C700008640240F09BFDBFD866000880B487B0CE
:100C800000AF7860396000237B6100233B61002363
:100C9000FB607B681B4A93420AD81B4B3B617A6816
:100CA0001A4B13441A4AA2FB03231B097B6109E078
:100CB000184B3B617A68184B1344154AA2FB032377
:100CC0001B097B617B69032B05D93B6904333B61BD
:100CD0007B69043B7B613B691B68FB600F4A7B6956
:100CE00013441B781A46FB68D340FB60FB6803F093
:100CF0003D03FB60FB6818461C37BD465DF8047B6E
:100D0000704700BF0F64024000600240F09FFDBFCB
:100D1000ABAAAAAA00640240F09BFDBFD8660008F7
:100D200080B483B000AF786000BF0C37BD465DF87B
:100D3000047B704780B483B000AF786000BF0C378D
:100D4000BD465DF8047B704780B483B000AF786027
:100D500000BF0C37BD465DF8047B704780B483B09C
:100D600000AF786000BF0C37BD465DF8047B70476C
:100D700080B483B000AF786000BF0C37BD465DF82B
:100D8000047B704780B584B000AF78603D217868FF
:100D9000FFF774FF0346FB813D217868FFF728FFCA
:100DA000FB8903F02003002B08D07B681B6803F04D
:100DB0001003002B02D07868FFF7B2FFFB8903F025
:100DC0001003002B08D07B681B6803F00803002B7E
:100DD00002D07868FFF7AEFFFB8903F00803002B11
:100DE00008D07B681B6803F00403002B02D07868EE
:100DF000FFF7AAFFFB8903F00403002B08D07B68F0
:100E00001B6803F00203002B02D07868FFF7A6FFEF
:100E1000FB8903F00103002B08D07B685B6903F0BA
:100E20008003002B02D07868FFF7A2FF00BF1037C5
:100E3000BD4680BD80B500AF0248FFF7A3FF00BFED
:100E400080BD00BF1060024080B500AF0248FFF7D0
:100E500099FF00BF80BD00BF2860024080B500AF91
:100E60000248FFF78FFF00BF80BD00BF4060024017
:100E700080B500AF0248FFF785FF00BF80BD00BF0F
:100E80005860024080B500AF0248FFF77BFF00BF0B
:100E900080BD00BF7060024080B500AF0248FFF720
:100EA00071FF00BF80BD00BF8860024080B500AF09
:100EB0000248FFF767FF00BF80BD00BFA06002408F
:100EC00080B500AF0248FFF75DFF00BF80BD00BFE7
:100ED000B860024080B500AF0248FFF753FF00BF83
:100EE00080BD00BF1064024080B500AF0248FFF72C
:100EF00049FF00BF80BD00BF2864024080B500AF3D
:100F00000248FFF73FFF00BF80BD00BF40640240C2
:100F100080B500AF0248FFF735FF00BF80BD00BFBE
:100F20005864024080B500AF0248FFF72BFF00BFB6
:100F300080BD00BF7064024080B500AF0248FFF77B
:100F400021FF00BF80BD00BF8864024080B500AFB4
:100F50000248FFF717FF00BF80BD00BFA06402403A
:100F600080B500AF0248FFF70DFF00BF80BD00BF96
:100F7000B864024080B483B000AF78607B68002220
:100F80001A707B68F0225A807B684FF4A0729A80B6
:100F90007B68083300221A605A609A607B680722D7
:100FA0001A727B680A225A727B681C4ADA607B6874
:100FB000143300221A605A609A607B680B221A75FB
:100FC0007B6812225A757B68154A9A617B682033C8
:100FD00000221A605A609A607B68102283F82020F1
:100FE0007B681A2283F821207B680E4A5A627B684C
:100FF00003F12C027B681A617B6803F1B8027B68FD
:10100000DA617B6803F511727B689A627B68184627
:101010000C37BD465DF8047B704700BFDC660008F6
:10102000486E0008A47B000880B5FCB000AF3B1DF3
:101030001860E54AE44B5B8B9BB243F480539BB250
:1010400053833B1D44F62061186800F0BBFBDE4A69
:10105000DD4B1B8B9BB243F480539BB213833B1D30
:1010600044F62061186800F0ADFB07F10F03012280
:101070001A7007F10F023B1D1146186800F0BAFB09
:101080003B1D4CF25031186800F09CFB07F11C032B
:10109000CE4A92E8030083E8030007F124031846D0
:1010A00000F02AFF07F1240307F11C0207F11000EA
:1010B00006CA00F062FF07F110023B1D11461868D6
:1010C00000F032FB07F11003184600F077FF07F13C
:1010D0002403184600F01CFF07F13403BC4A92E8D1
:1010E000030083E8030007F13C03184600F004FF07
:1010F00007F13C0307F1340207F1280006CA00F0AB
:101100003CFF07F128023B1D1146186800F00CFB5C
:1011100007F12803184600F051FF07F13C03184679
:1011200000F0F6FE07F14C03AA4A92E8030083E8B8
:10113000030007F15403184600F0DEFE07F15403E4
:1011400007F14C0207F1400006CA00F016FF07F154
:1011500040023B1D1146186800F0E6FA07F1400313
:10116000184600F02BFF07F15403184600F0D0FE9C
:1011700007F16403984A92E8030083E8030007F14B
:101180006C03184600F0B8FE07F16C0307F1640227
:1011900007F1580006CA00F0F0FE07F158023B1DA7
:1011A0001146186800F0C0FA07F15803184600F01D
:1011B00005FF07F16C03184600F0AAFE07F17C0357
:1011C000864A92E8030083E8030007F18403184687
:1011D00000F092FE07F1840307F17C0207F1700032
:1011E00006CA00F0CAFE07F170023B1D11461868DE
:1011F00000F09AFA07F17003184600F0DFFE07F1DD
:101200008403184600F084FE07F19403744A92E8C0
:10121000030083E8030007F19C03184600F06CFE0E
:1012200007F19C0307F1940207F1880006CA00F059
:10123000A4FE07F188023B1D1146186800F074FAFD
:1012400007F18803184600F0B9FE07F19C03184621
:1012500000F05EFE07F1AC03624A92E8030083E807
:10126000030007F1B403184600F046FE07F1B4038B
:1012700007F1AC0207F1A00006CA00F07EFE07F1FC
:10128000A0023B1D1146186800F04EFA07F1A003BA
:10129000184600F093FE07F1B403184600F038FE3C
:1012A00007F1C403504A92E8030083E8030007F102
:1012B000CC03184600F020FE07F1CC0307F1C4026E
:1012C00007F1B80006CA00F058FE07F1B8023B1D4E
:1012D0001146186800F028FA07F1B803184600F024
:1012E0006DFE07F1CC03184600F012FE07F1DC0397
:1012F0003E4A92E8030083E8030007F1E40318463E
:1013000000F0FAFD07F1E40307F1DC0207F1D00079
:1013100006CA00F032FE07F1D0023B1D11461868E4
:1013200000F002FA07F1D003184600F047FE07F17B
:10133000E403184600F0ECFD2D4A07F1F40392E8AF
:10134000030083E8030007F1FC03184600F0D4FD16
:1013500007F1FC0307F1E80007F1F40206CA00F008
:101360000CFE07F1E8023B1D1146186800F0DCF99D
:1013700007F1E803184600F021FE07F1FC031846C8
:1013800000F0C6FD1B4A07F5867392E8030083E868
:10139000030007F58A73184600F0AEFD07F58A735F
:1013A00007F5807007F5867206CA00F0E6FD07F5BE
:1013B00080723B1D1146186800F0B6F907F580737E
:1013C000184600F0FBFD17E0000C024038660008EC
:1013D0004066000848660008506600085866000825
:1013E0006066000868660008706600087866000895
:1013F000806600088866000807F58A73184600F0C2
:1014000087FDBF4A07F5927392E8030083E8030063
:1014100007F59673184600F06FFD07F5967307F50C
:101420008C7007F5927206CA00F0A7FD07F58C7262
:101430003B1D1146186800F077F907F58C731846C4
:1014400000F0BCFD07F59673184600F061FDAD4A4B
:1014500007F59E7392E8030083E8030007F5A27383
:10146000184600F049FD07F5A27307F5987007F5D7
:101470009E7206CA00F081FD07F598723B1D114669
:10148000186800F051F907F59873184600F096FDBA
:1014900007F5A273184600F03BFD9B4A07F5AA73B7
:1014A00092E8030083E8030007F5AE73184600F0E6
:1014B00023FD07F5AE7307F5A47007F5AA7206CAF7
:1014C00000F05BFD07F5A4723B1D1146186800F0A3
:1014D0002BF907F5A473184600F070FD07F5AE73FD
:1014E000184600F015FD894A07F5B67392E8030027
:1014F00083E8030007F5BA73184600F0FDFC07F512
:10150000BA7307F5B07007F5B67206CA00F035FD7C
:1015100007F5B0723B1D1146186800F005F907F594
:10152000B073184600F04AFD07F5BA73184600F08C
:10153000EFFC774A07F5C27392E8030083E80300E3
:1015400007F5C673184600F0D7FC07F5C67307F514
:10155000BC7007F5C27206CA00F00FFD07F5BC7239
:101560003B1D1146186800F0DFF807F5BC731846FC
:1015700000F024FD07F5C673184600F0C9FC654A63
:1015800007F5CE7392E8030083E8030007F5D273F2
:10159000184600F0B1FC07F5D27307F5C87007F5DF
:1015A000CE7206CA00F0E9FC07F5C8723B1D114671
:1015B000186800F0B9F807F5C873184600F0FEFC8B
:1015C00007F5D273184600F0A3FC534A07F5DA7307
:1015D00092E8030083E8030007F5DE73184600F085
:1015E0008BFC07F5DE7307F5D47007F5DA7206CACF
:1015F00000F0C3FC07F5D4723B1D1146186800F0DB
:1016000093F807F5D473184600F0D8FC07F5DE739D
:10161000184600F07DFC414A07F5E67392E80300A6
:1016200083E8030007F5EA73184600F065FC07F548
:10163000EA7307F5E07007F5E67206CA00F09DFC54
:1016400007F5E0723B1D1146186800F06DF807F5CC
:10165000E073184600F0B2FC07F5EA73184600F094
:1016600057FC2F4A07F5F27392E8030083E8030062
:1016700007F5F673184600F03FFC07F5F67307F51B
:10168000EC7007F5F27206CA00F077FC07F5EC7211
:101690003B1D1146186800F047F807F5EC73184633
:1016A00000F08CFC07F5F673184600F031FC1123AE
:1016B00087F8ED3107F2ED123B1D1146186800F076
:1016C00099F83B1D1749186800F07CF8292387F822
:1016D000EE3107F5F7723B1D1146186800F08AF8E5
:1016E0002C2387F8EF3107F2EF123B1D11461868E3
:1016F00000F080F800BF07F5F877BD4680BD00BF59
:101700009066000898660008A0660008A8660008B1
:10171000B0660008B8660008C0660008C866000821
:10172000D066000840420F0090B585B000AF7860E9
:101730003960214B5B68002B06D1204B1B899BB283
:1017400003F00203002B01D1012300E00023002B52
:1017500000D0EEE70021386800F04BFC0346194644
:10176000786800F047F8164A154B1B8B9BB243F480
:1017700000539BB213830123FB73FC7B386800F09A
:1017800047FC03469C4234BF01230023DBB2002BFD
:101790000ED0FB7B1946386800F02BFC03461B7803
:1017A0001946786800F018FBFB7B0133FB73E4E714
:1017B00000BF1437BD4690BDA064024000500140F8
:1017C000000C024080B483B000AF786039603B68A1
:1017D000002B14BF01230023DBB2002B03D03B6896
:1017E000013B3B60F3E700BF0C37BD465DF8047B6F
:1017F0007047000080B582B000AF78603960114B4F
:101800005B68002B06D1104B1B899BB203F00203CF
:10181000002B01D1012300E00023002B00D0EEE7D4
:101820000A4A0A4B5B8B9BB243F400539BB253832F
:101830003B681B781946786800F0CEFA00BF08377D
:10184000BD4680BDA064024000500140000C024033
:1018500080B582B000AF78603960094A084B1B8BB5
:101860009BB243F400539BB213833B681B78194629
:10187000786800F0B1FA00BF0837BD4680BD00BFF0
:10188000000C024080B582B000AF786039600D4A2C
:101890000C4B1B8B9BB243F400539BB213833B68EE
:1018A0001B881B12DBB21946786800F095FA3B687A
:1018B0001B88DBB21946786800F08EFA00BF083743
:1018C000BD4680BD000C024080B586B000AFF86018
:1018D000084611461A4603467B810B463B81134658
:1018E000FB802A23BB7507F116031946F868FFF73A
:1018F00081FF07F10A031946F868FFF7C3FFBB1D14
:101900001946F868FFF7BEFF2B23FB7507F1170395
:101910001946F868FFF76EFF07F108031946F868E3
:10192000FFF7B0FF07F12001F868FFF7ABFF00BF3A
:101930001837BD4680BD000080B584B000AF786028
:101940000B46FB703623FB7207F10B0319467868D0
:10195000FFF750FFFB78032B2AD801A252F823F09F
:10196000711900088119000891190008A1190008CF
:1019700058233B7307F10C0319467868FFF768FF9B
:1019800088237B7307F10D0319467868FFF760FF22
:101990002823BB7307F10E0319467868FFF758FF39
:1019A000E823FB7307F10F0319467868FFF750FF30
:1019B0007B68FA781A70FB78002B02D0FB78012B39
:1019C00007D17B68F0225A807B684FF4A0729A801E
:1019D00006E07B684FF4A0725A807B68F0229A8000
:1019E00000BF1037BD4680BD80B584B002AF7860BF
:1019F00039607B685B88013B99B27B689B88013BBF
:101A00009BB23A68019200930B460022002178684D
:101A100000F004F800BF0837BD4680BD80B58AB02D
:101A200002AFF860084611461A4603467B810B4612
:101A30003B811346FB80FA887B89D31A0133398DA9
:101A40003A898A1A013202FB03F3FB61F8883A896A
:101A500079893B8D00930346F868FFF735FF2C2307
:101A6000BB7507F116031946F868FFF7C3FE224A53
:101A7000214B1B8B9BB243F400539BB21383012376
:101A8000FB7507F117031946F86800F073F9FB6955
:101A90004FF6FF72934228BF13469BB23B8307F178
:101AA00018031A46F96AF86800F0DEF9FB69B3F525
:101AB000803F1CD3114B5B68002B06D1104B1B8958
:101AC0009BB203F00203002B01D1012300E00023AD
:101AD000002B00D0EEE7FB699BB201339BB27B8306
:101AE00007F11A031A46F96AF86800F0BDF900BF59
:101AF0002037BD4680BD00BF000C0240A0640240FC
:101B00000050014080B588B002AFF8600846114629
:101B10001A4603467B810B463B811346FB80FA88BD
:101B20007B89D31A0133398C3A898A1A013202FB34
:101B300003F37B61F8883A8979893B8C00930346EB
:101B4000F868FFF7C1FE2C23BB7407F11203194696
:101B5000F868FFF74FFE194A184B1B8B9BB243F4F2
:101B600000539BB213830123FB7407F1130319463F
:101B7000F86800F0FFF8124B4FF47412DA60114A63
:101B8000104B1B6843F4806313600E4A7B695360FB
:101B90000C4A7B6AD3600B4A0A4B1B6843F0010373
:101BA0001360094A084B9B889BB243F002039BB227
:101BB000938000BF1837BD4680BD00BF000C0240B7
:101BC00000640240A06402400050014080B588B02B
:101BD00002AFF8607B600B467B8113463B817889BE
:101BE0003A8979893B8900930346F868FFF76CFED0
:101BF0002C23FB7507F117031946F868FFF7FAFD68
:101C00007968F868FFF73EFE00BF1837BD4680BD13
:101C100080B58AB002AFF860084611461A460346FE
:101C20007B810B463B811346FB807B89FA68528897
:101C3000934203DBFB685B88013B7B81FB88FA688E
:101C40005288934203DBFB685B88013BFB803B8946
:101C5000FA689288934203DBFB689B88013B3B81D7
:101C60003B8DFA689288934203DBFB689B88013BBB
:101C70003B857A89FB889A4205DD7B89BB83FB889B
:101C80007B81BB8BFB803A893B8D9A4205DD3B898A
:101C9000BB833B8D3B81BB8B3B85FA887B89D31A09
:101CA0009BB27B833A8D3B89D31A9BB23B83B7F9B6
:101CB0001A30002B03D0B7F91830002B10D1FB6A73
:101CC0001B689BB2BB82F8883A89798907F11403B3
:101CD00001933B8D00930346F868FFF79FFE46E0B3
:101CE000B7F91A20B7F918309A4206DDB7F91A3059
:101CF000DA0F13445B101BB206E0B7F918305B42F1
:101D0000DA0F13445B101BB2FB83FB6A1B689BB2A8
:101D1000FB8207F116033A897989F868FFF756FFC5
:101D20007A89FB889A4203D13A893B8D9A421DD029
:101D3000B7F91E20B7F91A305B429A4207DDFA8BD9
:101D40003B8BD31A9BB2FB837B8901337B81B7F931
:101D50001E20B7F918309A42D7DAFA8B7B8B1344DE
:101D60009BB2FB833B8901333B81CEE700BF203729
:101D7000BD4680BD80B483B000AF78603960154A3D
:101D8000144B1B889BB223F040039BB213803B682B
:101D90001B78012B08D10F4A0E4B1B889BB243F4D2
:101DA00000639BB2138007E00A4A0A4B1B889BB270
:101DB00023F400639BB21380064A064B1B889BB238
:101DC00043F040039BB2138000BF0C37BD465DF863
:101DD000047B70470050014080B584B000AF78604C
:101DE0000B46FB701E4B5B68002B06D11D4B1B89FD
:101DF0009BB203F00203002B01D1012300E000237A
:101E0000002B00D0EEE7174B1B889BB203F4006356
:101E1000002B14BF01230023DBB2002B07D00023CB
:101E2000FB7307F10F0319467868FFF7A3FF0D4B0B
:101E3000FA7892B29A810A4B5B68002B06D1094B63
:101E40001B899BB203F00203002B01D1012300E0A8
:101E50000023002B00D0EEE700BF1037BD4680BD49
:101E6000A06402400050014080B485B000AFF8602B
:101E7000B9607A601D4B5B68002B06D11C4B1B8937
:101E80009BB203F00203002B01D1012300E00023E9
:101E9000002B00D0EEE7BB681A88FB68DA80154B90
:101EA0004FF47412DA60114A104B1B6823F48063FC
:101EB00013600E4A7B681B8853600C4AFB6806332C
:101EC000D3600A4A094B1B6843F001031360084AB8
:101ED000074B9B889BB243F002039BB2938000BFE9
:101EE0001437BD465DF8047B704700BFA064024014
:101EF000005001400064024080B582B000AF7860BD
:101F0000786800F095F87B6818460837BD4680BDB4
:101F100080B582B000AF7860786800F094F87B6894
:101F200018460837BD4680BD80B483B000AF7860E6
:101F30007B681B6818460C37BD465DF8047B70470C
:101F400080B483B000AF78607B685B6818460C375C
:101F5000BD465DF8047B704790B583B000AF7860F4
:101F60007868FFF7E1FF04467868FFF7E9FF03466A
:101F7000234418460C37BD4690BDB0B586B000AFBF
:101F8000F860381D80E806003B60FB683968184639
:101F900000F070F83B1D1846FFF7C6FF04463B1DD6
:101FA0001846FFF7D9FF02462B462146F86800F095
:101FB00089F8FB6818461837BD46B0BDB0B582B089
:101FC00000AF78607B681C687B685D687B6818463A
:101FD00000F0A6F803461A462946204600F0ABF862
:101FE0007B68184600F055F87B6818460837BD46F0
:101FF000B0BD80B483B000AF786039607B681A6888
:102000003B68134418460C37BD465DF8047B7047A7
:1020100080B483B000AF78607B685B681A467B68E9
:102020001B68D31A18460C37BD465DF8047B704711
:1020300080B483B000AF78607B6818460C37BD462B
:102040005DF8047B704780B483B000AF78607B6834
:1020500018460C37BD465DF8047B704780B582B0EA
:1020600000AF78607868FFF753FF7B681846083741
:10207000BD4680BD80B582B000AF786039607B68B6
:102080003968184600F065F87B6818460837BD4681
:1020900080BD80B582B000AF78607B6819687B68CE
:1020A0009B681A467B681B68D31A1A46786800F04A
:1020B00067F87B681846FFF7D1FF7B68184608373A
:1020C000BD4680BD90B587B000AFF860B9607A605A
:1020D0003B707968B86800F066F803467B61FB687E
:1020E0007969184600F073F80246FB681A60FB68CD
:1020F0001A687B691A44FB689A60FB681C68FB6875
:10210000184600F00DF8034622467968B86800F0DA
:1021100072F80246FB685A6000BF1C37BD4690BD8E
:1021200080B483B000AF78607B6818460C37BD463A
:102130005DF8047B704780B584B000AFF860B9608B
:102140007A60B968F86800F067F800BF1037BD46DC
:1021500080BD80B582B000AF78603960396878683A
:1021600000F067F87B6800221A607B6800225A60E2
:102170007B6800229A607B6818460837BD4680BDA0
:1021800080B584B000AFF860B9607A60BB68002B9E
:1021900005D0FB687A68B968184600F058F800BFA7
:1021A0001037BD4680BDB0B584B000AF78603960EF
:1021B0007C683B1D184600F059F82A4639682046CD
:1021C00000F05EF8034618461037BD46B0BD80B536
:1021D00082B000AF786039603B68002B06D07B6826
:1021E0003968184600F05BF8034600E00023184603
:1021F0000837BD4680BD80B584B000AFF860B960D7
:102200007A603B607A68B968F86800F057F803466E
:1022100018461037BD4680BD80B582B000AF7860EB
:1022200039603968786800F05BF800BF0837BD4650
:1022300080BD80B582B000AF786039603968786859
:1022400000F059F87B6818460837BD4680BD80B558
:1022500084B000AFF860B9607A607A68B968F868ED
:1022600000F055F800BF1037BD4680BD80B483B084
:1022700000AF786018460C37BD465DF8047B7047A8
:1022800080B485B000AFF860B9603A71BA68FB6895
:10229000D31A18461437BD465DF8047B704780B5E5
:1022A00082B000AF7860396000223968786800F049
:1022B0003BF8034618460837BD4680BD80B586B05A
:1022C00000AFF860B9607A600123FB757A68B9687D
:1022D000F86800F045F8034618461837BD4680BD3B
:1022E00080B483B000AF7860396000BF0C37BD4662
:1022F0005DF8047B704780B483B000AF78603960CC
:102300007B6818460C37BD465DF8047B704780B586
:1023100084B000AFF860B9607A60B86801F0DCFDA5
:1023200000BF1037BD4680BD80B584B000AFF860F7
:10233000B9607A60F86800F023F80246BB689A42F8
:1023400034BF01230023DBB2002B01D001F0E0FDFC
:10235000B86801F0C3FD034618461037BD4680BD7E
:1023600080B584B000AFF860B9607A607A68B96807
:10237000F86800F011F8034618461037BD4680BDD6
:1023800080B483B000AF78604FF0FF3318460C374D
:10239000BD465DF8047B704790B585B000AFF8602E
:1023A000B9607A60F86800F00FF80446B86800F089
:1023B0000BF803467A681946204600F010F80346E9
:1023C00018461437BD4690BD80B483B000AF786026
:1023D0007B6818460C37BD465DF8047B7047B0B586
:1023E00084B000AFF860B9607A60F86800F013F864
:1023F0000446B86800F00FF80546786800F016F853
:1024000003461A462946204600F01BF803461846A4
:102410001037BD46B0BD80B483B000AF78607B6834
:1024200018460C37BD465DF8047B704780B483B016
:1024300000AF78607B6818460C37BD465DF8047BBA
:10244000704780B586B000AFF860B9607A6001234C
:10245000FB757A68B968F86800F005F80346184615
:102460001837BD4680BD80B586B000AFF860B96052
:102470007A60BA68FB68D31A7B617B69002B05D050
:102480007B691A46F968786803F08EFF7B697A6881
:10249000134418461837BD4680BD000080B483B091
:1024A00000AF0346FB71094997F907305B0997F9BB
:1024B000072002F01F02012000FA02F241F8232057
:1024C00000BF0C37BD465DF8047B704700E100E0BB
:1024D00080B483B000AF03463960FB7197F90730D1
:1024E000002B0BDA0D49FB7903F00F03043B3A682C
:1024F000D2B21201D2B20B441A7609E0084997F918
:1025000007303A68D2B21201D2B20B4483F80023EA
:1025100000BF0C37BD465DF8047B704700ED00E05E
:1025200000E100E080B400AF5F4A5F4B1B6B43F0FB
:10253000040313635C4A5C4B1B6B43F00803136397
:10254000594A594B1B6B43F020031363564A564BB1
:102550005B6C43F480135364544A544B1B6843F040
:1025600080631360514A514B9B6843F080639360D2
:102570004F4A4F4B1B6843F0100313604C4A4C4BBF
:102580009B6843F010039360484A484B1B6843F034
:1025900080731360454A454BDB6843F08073D3601A
:1025A000444A444B1B6843F400431360414A414B87
:1025B0009B6843F4404393603E4A3E4B1B6A43F0A2
:1025C000A04313623B4A3B4B1B6843F40033136048
:1025D000384A384B9B6843F440339360354A354B57
:1025E0005B6A43F005035362324A324B1B6843F483
:1025F000002313602F4A2F4B9B6843F440239360C2
:102600002C4A2C4B5B6A43F0500353622A4A2A4BF4
:102610001B889BB243F400739BB21380264A264B5F
:102620001B889BB243F480739BB21380224A224BD7
:102630001B889BB243F008039BB213801E4A1E4BBB
:102640001B889BB243F004039BB213801A4A1A4BB7
:102650001B889BB243F040039BB21380124A124B7B
:102660001B6B43F480031363144A144B1B6843F041
:1026700060631360114A114B1B6843F400531360ED
:102680000E4A0E4B1B6843F4006313600B4A0B4B5E
:102690001B6843F040031360084B094A9A6000BF6F
:1026A000BD465DF8047B704700380240000C0240D4
:1026B000000802400014024000500140A0640240A3
:1026C0000C50014080B400AF784A784B1B6C43F04B
:1026D000010313644FF080424FF080439B889BB20C
:1026E00043F040039BB293804FF0804313221A853E
:1026F0004FF080436322DA624FF0804331225A6305
:102700004FF080424FF080431B8C9BB243F001039B
:102710009BB213844FF080424FF080431B8B9BB2DF
:1027200043F060039BB213834FF080424FF080432D
:102730001B889BB243F001039BB213805B4A5B4B47
:102740001B6B43F001031363584A584B1B6B43F058
:1027500004031363554A554B5B6C43F48073536415
:10276000534A534B1B6843F0C0031360514A514B0B
:102770001B6843F4406313604F4A4F4B5B6843F45C
:10278000807353604C4B4FF48012DA624A4A4A4BD2
:102790005B6B43F00D035363474A474B5B6B43F05E
:1027A000A0035363444A444BDB6843F44063D36063
:1027B000414A414B1B6943F4403313613E4A3E4B4F
:1027C0009B6843F4806393603B4A3B4B9B6843F0B8
:1027D00080539360384A384B9B6843F0C0639360E2
:1027E000354A354B9B6843F480739360324A324BD1
:1027F0009B6843F4007393602C4A2C4B1B6B43F48F
:10280000800313632D4A2D4B1B6823F0C003136014
:102810002A4A2A4B1B6843F400331360274A274B8C
:102820001B6843F400631360244A244B1B6843F481
:1028300000531360214A214B1B6823F4007313607B
:102840001E4A1E4B1B6843F4806313601B4A1B4BDC
:102850001B6843F480731360184A184B1B6823F0FD
:10286000C0031360154A154B5B6843F008035360BF
:10287000124B134A9A60114B124ADA600F4A0F4BFF
:102880001B6823F0606313600C4A0C4B1B6843F019
:1028900001031360084A084B9B6843F001039360EF
:1028A00000BFBD465DF8047B704700BF00380240A2
:1028B0000008024000000240002001401064024075
:1028C0004C200140A000002080B500AF164A164BF6
:1028D0001B6C43F002031364144B4FF47A721A8595
:1028E000124B1E22DA62114A104B9B899BB243F0B5
:1028F00001039BB293811D20FFF7D0FD00211D2015
:10290000FFF7E6FD094A094B1B889BB243F0010320
:102910009BB21380054A054B9B8A9BB243F001038F
:102920009BB2938200BF80BD00380240000400408B
:1029300080B500AF0E4A0E4B1B6C43F004031364CA
:102940000C4B0A221A850B4B4FF6FF72DA62094ACA
:10295000084B9B899BB243F001039BB293811E20DD
:10296000FFF79CFD00211E20FFF7B2FD00BF80BDD8
:10297000003802400008004080B500AF184A184BEC
:102980001B6B43F001031363154A154B5B6C43F457
:1029900080435364134A134B1B6823F44043136072
:1029A000104A104BDB6843F48043D3600E4A0E4B51
:1029B0001B6913610D4A0D4BDB6843F08003D36044
:1029C0000A4A0A4B1B6843F0800313600321172057
:1029D000FFF77EFD1720FFF761FD00BF80BD00BF40
:1029E000003802400000024000380140003C014035
:1029F00090B482B000AF8A4A894B1B8A9BB223F005
:102A000001039BB21382874B1B78DBB2002B4DD0A6
:102A1000854B1B889BB2B3F5806F0CBF012300234D
:102A2000DBB2002B09D0814B1B78DBB21A46804BFE
:102A3000012199547F4B00221A707E4B1B78DBB228
:102A4000002B00F0D781794B1B78DBB21846764B10
:102A50001B889BB21946784B1B889BB21A46764B53
:102A60009B889BB21344744A128992B21344724AEF
:102A7000928992B2134407EE903AB8EEE77AF1EEFB
:102A8000006AC7EE267A9FED6D7A77EE677A6C4A18
:102A900083020B449B001344C3ED007A624B1B88F6
:102AA0009BB201339AB2604B1A80A3E1624B1B8840
:102AB0009BB21A46604B9B889BB213445E4A1289B4
:102AC00092B213445C4A928992B2134407EE903A50
:102AD000F8EEE77AF1EE006A87EEA67ADFED596A42
:102AE000C7EE267A9FED587A27EE877A574B1B78E8
:102AF000DBB207EE903AF8EEE77A77EE677AFCEE13
:102B0000E77AC7ED017ABB889AB2514B1A804A4BDB
:102B10005B889BB21A46484BDB889BB21344464AFB
:102B2000528992B21344444AD28992B2134407EEB6
:102B3000903AF8EEE77AF1EE006A87EEA67ADFEDDA
:102B4000416AC7EE267A9FED407A27EE877A414B9D
:102B50001B78DBB207EE903AF8EEE77A77EE677A09
:102B6000FCEEE77AC7ED017ABB889AB23A4B1A803D
:102B7000304B1B78DBB283F00103DBB2002B2ED08D
:102B8000364B1B78DBB283F00103DBB2002B07D19D
:102B9000264B1B78DAB2324B1B78DBB29A421ED03E
:102BA000304B1B78DBB2002B17D12F4B1B889BB20D
:102BB0001A462E4B1B889A4211DD2D4B1B889BB267
:102BC0001A462A4B5B889A4209DA214B1B889BB232
:102BD0001A46264B5B889A4201DB012300E0002362
:102BE000002B00F08380134B01221A701D4B1B78C1
:102BF000DBB2002B42D00C4B00221A800B4B1B780F
:102C0000DBB21A461B4B002123F81210074B1B782E
:102C1000DBB21A46184B4FF6FF7123F8121065E02D
:102C20000004004002000020BA1A0020C21A00204E
:102C3000C81A0020C01A0020A000002000E0FF44B5
:102C4000D41A0020000080450000704300000020DE
:102C5000B41A002001000020B81A0020C11A002078
:102C6000C31A0020D11A0020BE1A00200400002040
:102C7000B61A0020C41A0020CC1A0020604B1B7822
:102C8000DBB219465F4B1B889AB25F4B1B88D31A85
:102C90009BB21AB25D4B23F81120594B1B78DBB263
:102CA0001A465A4B33F812301BB29BB2DB0BDBB225
:102CB000002B10D0524B1B78DBB21A461946534BEF
:102CC00033F811301BB29BB203F5A0739BB219B25B
:102CD0004E4B23F812104A4B1B78DBB21A464A4B74
:102CE0001B88013B99B24A4B23F81210494B1B78C1
:102CF000DBB2002B0DD0424B1B78DBB21A46444BA3
:102D000033F812309BB240F23F12934201D10123BB
:102D100000E00023002B10D0394B1B78DBB2012BD5
:102D200014BF01230023DBB21A46354B1A703A4B0D
:102D300000221A80374B00221A70314B1B78DBB20D
:102D40001946304B1B889BB21C46344B1B8898B2EB
:102D5000334A0B469B000B449B012344014622F857
:102D60001310274B1B78DBB21946264B1B889BB2EE
:102D70001C462C4B1B8898B22B4A0B469B000B44DD
:102D80009B012344014622F813101E4B1B889BB263
:102D900040F23F1293420CBF01230023DBB2002B11
:102DA00003D0184B00221A8006E0164B1B889BB2FA
:102DB00001339AB2134B1A80164B1B78DBB2002BEF
:102DC0000CD00F4B1B78DBB2114A32F8132092B2B1
:102DD000013291B20E4A22F8131006E00E4B1B8806
:102DE0009BB201339AB20C4B1A800C4B1B889AB2DF
:102DF0000E4B1A8000BF0837BD4690BC704700BF1D
:102E0000C21A0020BA1A002004000020C41A0020B0
:102E1000CC1A0020C01A0020BE1A0020B41A0020CC
:102E2000B0100020B81A0020B0150020B61A0020FB
:102E300080B400AF0C4B1B6903F08003002B0CBF68
:102E400001230023DBB2002B02D0084B01221A70B1
:102E5000074A074B5B6943F08003536100BFBD46DF
:102E60005DF8047B704700BF00000240D01A0020CC
:102E7000003C014080B400AF084A084B1B8A9BB25B
:102E800023F001039BB21382054B1B680133044AF4
:102E9000136000BFBD465DF8047B7047000800402A
:102EA000D88600200000000090B583B000AF00235A
:102EB0007B607B68B3F5806F32DA7B6807EE903A0F
:102EC000F8EEE77A77EEA77A17EE900AFDF7F4FAB4
:102ED00017A3D3E90023FDF743FB03460C4618462E
:102EE00021464FF00002104BFDF764FC03460C46F0
:102EF00044EC173BB0EE470AF0EE670A01F09CF98C
:102F000054EC103B18462146FDF722FE0146074AC5
:102F10007B689B00134419607B6801337B60C8E7C2
:102F200000BF0C37BD4690BD00009040B0000020AF
:102F3000182D4454FB21094080B582B000AF154ADA
:102F4000144B1B889BB223F001039BB21380002318
:102F5000FB80BB1D19461048FEF746FD0F4B0022B3
:102F60001A700F4B00221A700E4B00221A8000219B
:102F70000D4B0A461A800D4B0A461A80054A054B2E
:102F80001B889BB243F001039BB2138000BF08373C
:102F9000BD4680BD00040040E0860020C11A00202C
:102FA000C01A0020B61A0020BA1A0020BE1A00204B
:102FB00090B583B000AF78607868FDF76BFA034690
:102FC0000C4644EC103B01F0EFF8B0EE407AF0EE26
:102FD000607AB0EE470AF0EE670A0C37BD4690BD46
:102FE000B0B582B000AF87ED010A38607868FDF7B0
:102FF00063FA04460D463868FDF74CFA02460B4664
:1030000043EC112B45EC104B01F05EF9B0EE407A29
:10301000F0EE607AB0EE470AF0EE670A0837BD4678
:10302000B0BD0000B0B5ACB002AF7860A04AA04B14
:103030009B8A9BB243F001039BB293829C4A9C4BB8
:103040001B889BB243F001039BB21380994B002273
:103050001A600023C7F888300023C7F8A430D7F8D7
:10306000A430B3F5806F30DAD7F8A430162293FA83
:10307000A3F363FA02F3C7F88830D7F88820D7F8AB
:10308000A4309A421BDDD7F8A4309B007A68134421
:103090001B68C7F88430D7F8A4309B007A681344C3
:1030A000D7F88820920079680A4412681A60D7F825
:1030B00088309B007A681344D7F884201A60D7F8C8
:1030C000A4300133C7F8A430C9E70123FB60FB68D3
:1030D000B3F5806F80F2A981FB68012B4FD10023EB
:1030E000C7F8A030D7F8A030B3F5806F80F299818F
:1030F000FB68D7F8A0201344C7F88030D7F8803099
:103100009B007A6813441B68FB67D7F880309B00EC
:103110007A681344D7F8A020920079680A4492EDA7
:10312000007AD7ED1F7A77EE677AC3ED007A624AAC
:10313000D7F880309B0013444FF000021A60D7F894
:10314000A0309B007A681344D7F8A02092007968D9
:103150000A4492ED007AD7ED1F7A77EE277AC3ED15
:10316000007A554AD7F8A0309B0013444FF0000274
:103170001A60D7F8A0300233C7F8A030B2E7FB6876
:10318000B3F5007F40F09C800123A7F89E30B7F88C
:103190009E404FF4A0733B6107F1100207F10C034E
:1031A0001146184600F0B2FC03461B689C42B4BFAF
:1031B00001230023DBB2002B00F03381B7F89E30EF
:1031C0009A02FB685B0092FBF3F31846FFF7F0FEF0
:1031D00054EC103B18462146FDF79AFC0346A7F82D
:1031E0007A30B7F87A30354A9B0013441B687B6706
:1031F000B7F87A3003F58073304A9B0013441B689C
:103200003B67B7F89E20FB681344FB66FB6E9B0090
:103210007A68134493ED007AD7ED1C7A27EE277A6B
:10322000254AFB6E9B001344D3ED006AD7ED1D7A4F
:1032300066EEA77A77EE677AB7F89E309B007A68D9
:103240001344B7F89E20920079680A4492ED007A00
:1032500077EE277AC3ED007A174AFB6E9B00134482
:1032600093ED007AD7ED1C7A27EE277AFB6E9B0050
:103270007A681344D3ED006AD7ED1D7A66EEA77A1B
:1032800077EE277AB7F89E30B7F89E200A49920069
:103290000A4492ED007A77EE277A074A9B0013449E
:1032A000C3ED007AB7F89E300133A7F89E306EE781
:1032B00000080040D8860020D43A0020B00000204A
:1032C0000023C7F89830FB68D7F898209A4280F21C
:1032D000A880D7F898309A02FB685B0092FBF3F362
:1032E0001846FFF765FE54EC103B18462146FDF7E3
:1032F000E7FB0346BB66C84ABB6E9B0013441B68D2
:103300007B66BB6E03F58073C34A9B0013441B6846
:103310003B66D7F89830C7F89430D7F89430B3F5B7
:10332000806F78DAFB68D7F894201344FB65D7F8F0
:1033300094309B007A6813441B68BB65B74AD7F882
:1033400094309B0013441B687B65FB6D9B007A687F
:1033500013441B683B65B14AFB6D9B0013441B681B
:10336000FB6497ED187AD7ED147A27EE277AD7ED1C
:10337000196AD7ED137A66EEA77A77EE677AC7ED0A
:10338000127A97ED187AD7ED137A27EE277AD7EDD0
:10339000196AD7ED147A66EEA77A77EE277AC7ED29
:1033A000117AFB6D9B007A68134497ED167AD7ED7E
:1033B000127A77EE677AC3ED007A97ED157AD7ED3A
:1033C000117A77EE677A954AFB6D9B001344C3ED43
:1033D000007AD7F894309B007A68134497ED167AF8
:1033E000D7ED127A77EE277AC3ED007A97ED157A4A
:1033F000D7ED117A77EE277A884AD7F894309B0078
:103400001344C3ED007AFB685B00D7F894201344A3
:10341000C7F8943081E7D7F898300133C7F898306F
:1034200051E7FB685B00FB6051E60123A7F892308F
:10343000B7F892404FF40073FB614FF4A0733B6206
:1034400007F1200207F11C031146184600F05EFB4D
:1034500003461B689C42D4BF01230023DBB2002B30
:1034600000F0EC80B7F892309B007A681344D3EDFB
:10347000007A0220B0EE670AFFF7B2FD55EC104B60
:10348000B7F89230654A9B001344D3ED007A0220CE
:10349000B0EE670AFFF7A4FD53EC102B2046294637
:1034A000FCF7ACFE03460C4644EC173BB0EE470A73
:1034B000F0EE670A01F080F854EC103B1846214604
:1034C000FDF746FB03463B6497ED107ADFED546A47
:1034D000C7EE267AB7EE007A77EE677A9FED517ADB
:1034E00067EE877AC7ED097A4F4BBB6207F1280276
:1034F00007F124031146184600F01CFB0346D3EDE8
:10350000007AFCEEE77AC7ED007A3B88FB87402320
:10351000BB6310237B63B7F892305A1E7B6B92FB20
:10352000F3F303F00103002B14BF01230023DBB2EC
:1035300087F8333000233B860023C7F88C30D7F858
:103540008C30EF2B39DCD7F88C309AB27B6B9BB286
:1035500012FB03F33B86B7F89230013B7A6B93FB87
:10356000F2F2796B01FB02F29B1A9AB23B8E134482
:103570003B86FA8FD7F88C309A420CDD97F83320CF
:10358000398E2A4813461B019B1A1B020B4400224A
:1035900020F813200BE097F83320398E2348134688
:1035A0001B019B1A1B020B441F2220F81320D7F883
:1035B0008C300133C7F88C30C1E7B7F892307A6BA2
:1035C00093FBF2F2796B01FB02F29B1A002B1DD1E7
:1035D000174B5B68174A13607B6B9BB2B7F892205E
:1035E000D31A99B2B7F89230013B98B297F83320CA
:1035F00013461B019B1A5B020C4A13440193EF23F1
:103600000093034600220C48FEF77CFAB7F892308C
:103610000133A7F892300BE7B0000020D43A002025
:103620000000004900006F4300006F43D44A0020AF
:10363000A0640240D4860020E0860020094A094B9D
:103640001B889BB223F001039BB21380064B1B68BF
:103650001A04044B5B6A1344044A136000BFA83782
:10366000BD46B0BD00080040D8860020DC860020A2
:1036700090B58DB002AF00F001FB00F035FBFFF715
:1036800057F9FEF74FFFFFF71DF8FFF775F9FFF742
:103690000BFC5948FDF7C8FC03215748FEF74CF9CD
:1036A0000023BB803B1D19465348FEF79DF9FFF7E9
:1036B0000BF9524B1B78DBB2002B0CD04F4B002286
:1036C0001A704F4B1B78DBB283F00103DAB24C4B1C
:1036D0001A70FFF731FC4A4B1B78DBB2002B50D03D
:1036E000484B1B78DBB283F00103DBB2002B11D017
:1036F000454B1B78DBB283F00103DBB2002B07D113
:10370000414B5B78DBB283F00103DBB2002B01D0CD
:10371000012300E00023002B10D03A4B01221A7045
:103720003A4B00221A80384B1B78DBB2002B01D0B9
:10373000012200E00022364B1A70BAE7324B1B78A8
:10374000DBB2002B03D0334B00221A7008E02E4B63
:103750005B78DBB2002B00F0D3812E4B01221A7074
:103760002C4B1B78DBB21B032B4A13441846FFF784
:1037700059FC284B1B78DBB21A46234B0021995485
:1037800097E7264B1B78DBB283F00103DBB2002BFB
:1037900006D01C4B1B78DBB2002B01D0012300E0CC
:1037A0000023002B0AD01A4B1B78DAB2194B1A707F
:1037B0001A4B01221A701A4B00221A80174B1B78E1
:1037C000DBB2002B30D0134B1B78DAB2104B1B78D6
:1037D000DBB29A420DD10E4B1B78DBB21A46114B6D
:1037E00033F812309BB21A460D4B1B889BB29A429B
:1037F0001ADB012319E000BFE0860020D01A002068
:1038000002000020C01A0020C81A0020BA1A0020A6
:10381000C21A0020C31A0020D41A0020C11A0020A6
:10382000BC1A0020CC1A00200023002B3FF441AF2B
:10383000A34AA34B9B8A9BB243F001039BB29382A2
:103840009F4A9F4B1B889BB243F001039BB213809E
:103850009C4B00221A609C4B1B8899B29A4B1B8888
:103860009AB20023FB80BB1D0193EF230093134604
:1038700000229648FEF7D2F8954B1B78DBB21A4629
:10388000944B33F812301BB21A468F4B1B889BB2F5
:103890001A44914B83FB0213D911D317C91A0B4653
:1038A0009B000B449B01D11A0B46FB84864B1B8863
:1038B0009BB2002B0CBF01230023DBB2002B1FD0D7
:1038C000834B1B78DBB21846FA8C844903469B0075
:1038D00003449B01134431F813309AB2804B1A8091
:1038E0007B4B1B78DBB21846FA8C7E4903469B0063
:1038F00003449B01134431F813309AB27A4B1A8077
:10390000714B1B889CB2724B1B78DBB21846FA8C49
:10391000724903469B0003449B01134431F8133062
:1039200099B2694B1B8898B26D4B1B889BB24FF4C0
:10393000FC62BA6007F108020192009303460A464E
:1039400021466248FEF764F95F4B1B889CB2604BCE
:103950001B78DBB21846FA8C624903469B0003448D
:103960009B01134431F8133099B2574B1B8898B21E
:103970005D4B1B889BB240F21D52FA6007F10C02AE
:103980000192009303460A4621465048FEF740F94B
:103990004F4B1B78DBB21846FA8C504903469B000C
:1039A00003449B01134431F813309AB24C4B1A80F4
:1039B000474B1B78DBB21846FA8C4A4903469B00FA
:1039C00003449B01134431F813309AB2464B1A80DA
:1039D000434B1B889BB2EF2BCCBF01230023DBB2F0
:1039E000002B01D001233B62374B1B889BB2013374
:1039F0009AB2354B1A80344B1B889BB2B3F5A07F2B
:103A00000CBF01230023DBB2002B02D0374B002276
:103A10001A702D4B1B889BB21A46354B1B880433FA
:103A20009A420CBF01230023DBB2002B3CD0304B69
:103A300019882F4B5B88043B98B22D4B1C882C4B6C
:103A40005B8804339BB24FF6E0723A6107F11002D3
:103A500001920093234602461C48FEF7D9F8244BF6
:103A60001B88043B7B610023BB6107F1180207F14F
:103A700014031146184600F076F803461B6899B205
:103A80001B4B58881A4B1B8804339CB2184B5B881D
:103A90004FF6E072FA6107F11C020192009323468F
:103AA00002460A48FEF7B4F8054A054B1B889BB24C
:103AB00023F001039BB21380024B1B681A0419E028
:103AC00000080040D8860020BC1A0020E0860020B4
:103AD000C31A0020C41A002067666666B010002072
:103AE000B01A0020B0150020B21A0020C11A002020
:103AF00004000020034B5B6A1344034A1360D8E5BB
:103B000000BFD6E500080040DC86002080B483B00A
:103B100000AF786039603B681A687B681B689A421E
:103B200001DA3B6800E07B6818460C37BD465DF85B
:103B3000047B704780B483B000AF786039603B6825
:103B400093ED007A7B68D3ED007AB4EEE77AF1EE7C
:103B500010FA01D53B6800E07B6818460C37BD467B
:103B60005DF8047B704780B483B000AF7860396043
:103B70007B681A683B681B689A4201DA3B6800E080
:103B80007B6818460C37BD465DF8047B7047000023
:103B900080B582B000AF786039607B68012B07D1B7
:103BA0003B684FF6FF72934202D10348FDF7E2F9FA
:103BB00000BF0837BD4680BDE086002080B500AF5D
:103BC0004FF6FF710120FFF7E3FF80BDDFF834D02F
:103BD000002103E00C4B5B58435004310B480C4B65
:103BE00042189A42F6D30B4A02E0002342F8043B03
:103BF000094B9A42F9D300F041F802F0A1FBFFF71C
:103C000037FD7047000003200C92000800000020E0
:103C10008400002084000020188D0020FEE780B47E
:103C200000AF00BFBD465DF8047B704780B400AFB5
:103C3000FEE780B400AFFEE780B400AFFEE780B4DB
:103C400000AFFEE780B400AF00BFBD465DF8047B67
:103C5000704780B400AF00BFBD465DF8047B70477D
:103C600080B400AF00BFBD465DF8047B704780B4F0
:103C700000AF00BFBD465DF8047B704780B500AF64
:103C8000164A164BD3F8883043F47003C2F88830D4
:103C9000134A134B1B6843F001031360104B0022BF
:103CA0009A600F4A0E4B1B6823F0847323F4803311
:103CB00013600B4B0B4A5A60094A094B1B6823F4EB
:103CC00080231360064B0022DA6000F089F8034B72
:103CD0004FF000629A6000BF80BD00BF00ED00E0C1
:103CE000003802401030002480B487B000AF0023B9
:103CF0003B6100237B610223FB600023BB60022346
:103D00007B60324B9B6803F00C033B613B69042BE7
:103D100007D0082B09D0002B3DD12D4B2D4A1A601E
:103D20003DE02B4B2C4A1A6039E0284B5B689B0D19
:103D300003F00103BB60254B5B6803F03F037B602E
:103D4000BB68002B0CD0244A7B68B2FBF3F31F4AFC
:103D500052689209C2F3080202FB03F37B610BE095
:103D60001C4A7B68B2FBF3F3184A52689209C2F30B
:103D7000080202FB03F37B61144B5B681B0C03F02E
:103D8000030301335B00FB607A69FB68B2FBF3F36A
:103D90000F4A136003E00E4B0E4A1A6000BF0B4B34
:103DA0009B681B0903F00F030C4AD35CDBB23B6139
:103DB000074B1A683B6922FA03F3054A136000BFF8
:103DC0001C37BD465DF8047B704700BF00380240D9
:103DD000080000200024F40000127A000C000020EB
:103DE00080B483B000AF00237B6000233B60364A81
:103DF000354B1B6843F480331360334B1B6803F46B
:103E000000333B607B6801337B603B68002B03D150
:103E10007B68B3F5A06FF0D12B4B1B6803F4003324
:103E2000002B02D001233B6001E000233B603B6894
:103E3000012B02D1244B254A5A60234A224B1B6C8A
:103E400043F080531364224A214B1B6843F44043E0
:103E500013601D4A1C4B9B6893601B4A1A4B9B685E
:103E600043F400439360184A174B9B6843F4A053F4
:103E70009360154A144B1B6843F08073136000BFB6
:103E8000114B1B6803F00073002BF9D0114B40F26B
:103E900005721A600C4A0C4B9B6823F00303936075
:103EA000094A094B9B6843F00203936000BF064B2D
:103EB0009B6803F00C03082BF9D100BF0C37BD46FB
:103EC0005DF8047B704700BF00380240085A400785
:103ED00000700040003C024002F05EBA10B50028BD
:103EE00014BF04460124204602F04EFA30B900F017
:103EF00007F808B902F017FA8047F4E710BD000090
:103F0000024B1868BFF35B8F704700BF648C0020C2
:103F100008B502F008FA0000244B1A68D0075CBF0D
:103F200001221A60224B1A68D1075CBF01221A6075
:103F3000204B1A68D2075CBF01221A601E4B1A6818
:103F4000D0075CBF01221A601C4B1A68D1075CBF06
:103F500001221A601A4B1A68D2075CBF01221A604C
:103F6000184B1A68D0075CBF01221A60164B1A68FA
:103F7000D1075CBF01221A60144B1A68D2075CBFDC
:103F800001221A60124B1A68D0075CBF01221A6026
:103F9000104B1A68D1075CBF01221A600E4B1A68D9
:103FA000D2075CBF01221A60704700BF948C0020CA
:103FB000908C00208C8C0020888C0020848C002029
:103FC000808C00207C8C0020788C0020748C002059
:103FD000708C00206C8C0020688C0020184B1A68B4
:103FE000D1075CBF01221A60164B1A68D2075CBF6A
:103FF00001221A60144B1A68D0075CBF01221A60B4
:10400000124B1A68D1075CBF01221A60104B1A6864
:10401000D2075CBF01221A600E4B1A68D0075CBF42
:1040200001221A600C4B1A68D1075CBF01221A608A
:104030000A4B1A68D2075CBF01221A60704700BFA2
:10404000B48C0020B08C0020AC8C0020A88C002008
:10405000A48C0020A08C00209C8C0020988C002038
:10406000244B1A68D0075CBF01221A60224B1A68E1
:10407000D1075CBF01221A60204B1A68D2075CBFCF
:1040800001221A601E4B1A68D0075CBF01221A6019
:104090001C4B1A68D1075CBF01221A601A4B1A68C0
:1040A000D2075CBF01221A60184B1A68D0075CBFA8
:1040B00001221A60164B1A68D1075CBF01221A60F0
:1040C000144B1A68D2075CBF01221A60124B1A689F
:1040D000D0075CBF01221A60104B1A68D1075CBF81
:1040E00001221A600E4B1A68D2075CBF01221A60C7
:1040F000704700BFE48C0020E08C0020DC8C0020A6
:10410000D88C0020D48C0020D08C0020CC8C0020B7
:10411000C88C0020C48C0020C08C0020BC8C0020E7
:10412000B88C0020184B1A68D1075CBF01221A60B6
:10413000164B1A68D2075CBF01221A60144B1A682A
:10414000D0075CBF01221A60124B1A68D1075CBF0E
:1041500001221A60104B1A68D2075CBF01221A6054
:104160000E4B1A68D0075CBF01221A600C4B1A680C
:10417000D1075CBF01221A600A4B1A68D2075CBFE4
:1041800001221A60704700BF048D0020008D0020BE
:10419000FC8C0020F88C0020F48C0020F08C002097
:1041A000EC8C0020E88C002051EC100BF8B5C1F32A
:1041B0000A55A5F2FF34132C0B460F4617DC002CD2
:1041C00009DA013401F0004303D143F07F5343F493
:1041D0004013002128E0164A2241114200D180B14B
:1041E0004FF4002323413B4423EA0203F1E7332C3D
:1041F0000ADDB4F5806F04D110EE102A0B46FBF7F0
:10420000FDFF41EC100BF8BDA5F213424FF0FF3556
:10421000D5402842F5D0C4F133040122A24012183F
:1042200028BF013322EA050108461946E9E700BF25
:10423000FFFF0F00000000001FB551EC100B204ADB
:1042400021F00043934207DC9FED1B1B002001F08F
:10425000FFFD51EC100B07E01A4A934209DD10EE06
:10426000102A0B46FBF7C8FF41EC100B05B05DF8B8
:1042700004FB684600F010FF00F0030001289DEDEC
:10428000021B9DED000B04D0022805D070B901205F
:10429000DDE701F0A5F9DCE7012001F0D9FD53ECE1
:1042A000102B10EE100A03F10041DDE701F098F940
:1042B000F5E700BFAFF30080000000000000000041
:1042C000FB21E93FFFFFEF7F2DE9F04F2DED048B40
:1042D0008DB057EC106B55EC114B00F0C9F9AE4B9B
:1042E000B0EE408AF0EE608A93F90090B9F1FF3F9A
:1042F00098465FD022462B4620462946FCF7CAFB4B
:104300008346002856D132463B4630463946FCF7B4
:10431000C1FB0190E8B10022002320462946FCF7AA
:1043200087FB002846D0012302939C4B03939C4BB0
:10433000CDF828B00022B9F1020FCDE90467CDE92C
:104340000645CDE9082333D002A801F0D1FE48BBD1
:104350005EE04FF0000A4FF0000B52465B463046DD
:104360003946FCF765FB4BEC19AB002855D052469B
:104370005B4620462946FCF75BFB804618B30123C9
:104380000293864B0393019B0A93CDE90467CDE921
:104390000645CDE908ABB9F1000FD5D0804B00221E
:1043A000CDE908230A9B1BB101F0C4FF0A9B0360FF
:1043B0009DED088BB0EE480AF0EE680A0DB0BDEC3A
:1043C000048BBDE8F08F45EC104B01F002FE002895
:1043D000F0D052465B4620462946FCF733FB0028C6
:1043E000E8D0012302936D4B03936B4BCDF82880EB
:1043F00093F90030CDE90467CDE9064513B9CDE95D
:1044000008ABA1E767490020CDE90801022B9BD149
:1044100001F090FF21230360C4E7B0EE480AF0EEFC
:10442000680A01F0D6FD0190002840F08A8047EC30
:10443000106B01F0CEFD002800F0838045EC104B9E
:1044400001F0C7FD00287CD053EC182B18EE100AA1
:104450001946FCF71FFB98F90090504BB0B10122B0
:104460000393019B02920A93CDE90467CDE90645C7
:10447000B9F1000FC3D052465B4650465946FCF78F
:1044800099F9B9F1020FCDE90801C0E703220292C0
:1044900003930A90CDE90467CDE90645B9F1000F11
:1044A0002CD1414B4FF06042CDE9082330465246B3
:1044B0005B463946FCF7C6FA002866D000223B4B23
:1044C00020462946FCF74CF804460D4645EC104BB7
:1044D00001F01AFE204653EC102B2946FCF7A8FAEF
:1044E00020B9334B4FF06042CDE9082398F90030F2
:1044F000022B4AD101F01EFF22238CE72D4B002214
:10450000CDE90823304652465B463946FCF79AFA15
:104510000028EBD00022254B20462946FCF720F846
:1045200004460D4645EC104B01F0EEFD204653ECE1
:10453000102B2946FCF77CFA0028D7D10022194B12
:10454000D2E70022002351EC180BFCF771FA002887
:104550003FF430AF47EC106B01F03BFD00283FF417
:1045600029AF45EC104B01F034FD00283FF422AF99
:1045700004230293094B039300230A93CDE90467B4
:10458000CDE906458DED089BB0E702A801F0B0FD2E
:1045900000287FF407AFADE71C000020688F0008FB
:1045A0000000F03F0000F0FFFFFFEF470000E03F9A
:1045B000FFFFEFC70000F07F2DE9F0432DED028BE8
:1045C0008BB055EC104B00F059FF264BB0EE408AF3
:1045D000F0EE608A93F90060731C2AD022462B46C5
:1045E00020462946FCF756FA074610BB4FF0000854
:1045F0004FF0000942464B4620462946FCF722FA76
:10460000B8B101230093184B01930897CDE90445F5
:10461000CDE90245B6B9CDE90689684601F068FDE5
:10462000D0B1089B1BB101F085FE089B03609DED96
:10463000068BB0EE480AF0EE680A0BB0BDEC028BB8
:10464000BDE8F08342464B4640464946FCF7B2F887
:10465000022ECDE90601E0D101F06CFE21230360BA
:10466000DFE700BF1C0000206C8F00080000000086
:104670002DE9F04F91B08DED001B9DE8040257EC41
:10468000106B29F0004858EA020310EE10AA3D46CC
:1046900000F0BD84784B27F000449C4209DC03D134
:1046A0003EB9A0450DDC01E0984502DC98450ED1ED
:1046B0006AB104F1404404F5801454EA0A0300F09E
:1046C000A6846E4811B0BDE8F04F01F015BD002D75
:1046D00053DA6B4B98454DDCA3F1547398454CDD90
:1046E0004FEA2853A3F2FF33142B26DDC3F1340322
:1046F00022FA03F101FA03F39A423ED101F00101DB
:10470000C1F1020B002A5BD15B4B984524D104F127
:10471000404303F5801353EA0A0300F07884594BB1
:104720009C422DDDB9F1000F80F27584002000213C
:1047300041EC100B11B0BDE8F08F002A3ED1C3F15F
:10474000140348FA03F101FA03F3984540F06B842F
:1047500001F00101C1F1020B4B4B984518D1B9F1A1
:10476000000F80F25C84484932463B460020FCF74B
:1047700021F8DDE74FF0020BC4E74FF0000BC1E773
:10478000B9F1000FD2DA9DE8090003F10041CFE74B
:10479000B9F1804F06D132463B4610461946FBF729
:1047A000DFFEC5E7394B99450AD1002D08DB47EC00
:1047B000106B11B0BDE8F04F00F060BE4FF0000B81
:1047C00047EC106B01F0FEFB51EC100BBAF1000F3F
:1047D00027D124B12C4B25F040429A4221D1B9F186
:1047E000000F05DA02460B4600202749FBF7E2FFDF
:1047F000002D9DDA04F1404404F5801454EA0B03C3
:1048000008D102460B4610461946FBF7F5FC024656
:104810000B46ACE7BBF1010F8AD101F10043194609
:1048200086E7ED0F6B1E0D935BEA030302D1324660
:104830003B46E8E7164B984540F3FE8003F10473CE
:1048400098450ADD0F4B9C420DDCB9F1000FBFF615
:104850006DAF07A3D3E900239FE70E4B9C42F4DD25
:10486000094B9C4218DDB9F1000FF2DC5EE700BF96
:104870009C7500883CE4377E0000F07F708F000854
:10488000FFFF3F43FFFFEF3F0000F03F0000E03F2E
:104890000000E041FEFFEF3F0022634BFBF7ACFC62
:1048A00055A3D3E9002304460D46FBF759FE54A354
:1048B000D3E9002306460F4620462946FBF750FE63
:1048C0000022CDE90201594B20462946FBF748FE5C
:1048D00002460B464CA1D1E90001FBF78DFC2246B4
:1048E0002B46FBF73DFE02460B4600205049FBF7E6
:1048F00083FC22462B468046894620462946FBF704
:104900002FFE02460B4640464946FBF729FE40A3D0
:10491000D3E90023FBF724FE02460B46DDE9020142
:10492000FBF76AFC02460B4604460D463046394604
:10493000FBF764FC0020CDE9040132463B46FBF75F
:104940005BFC02460B4620462946FBF755FC0D9AB8
:104950000BF1FF33134306460F4640F0EB819FED0A
:104960002E7BDDE90045002422462B46DDE90001CF
:104970008DED027BFBF740FCDDE90423FBF7F0FD46
:10498000DDE900238046894630463946FBF7E8FDDD
:1049900002460B4640464946FBF730FC22462B4672
:1049A00080468946DDE90401FBF7DAFD0B46044643
:1049B0000D46024649464046CDE90045FBF71EFC40
:1049C0001C4B994206460F468B4640F3F78201F195
:1049D0003F4303F5E003034300F0EA8110A3D3E96A
:1049E0000023DDE90201FBF7BBFD0DA3D3E90023A2
:1049F000D5E600BFAFF30080000000604715F73F29
:104A000044DF5DF80BAE543E555555555555D53FD1
:104A1000FE822B654715F73F000000000000F0BF45
:104A20009C7500883CE4377E0000F03F0000D03FDA
:104A30000000E03FFFFF8F40B4F5801F4FF0000201
:104A400005DAD34BFBF78CFD6FF034020C462315CF
:104A5000A3F2FF3313440793CE4BC4F3130444F083
:104A60007F559C4245F4401508DDCB4B9C4240F3FA
:104A70005E81079B01330793A5F580154FF0000A6F
:104A80004FEACA030C930C9AC44B134493ED007B7A
:104A9000294653EC172B8DED0A7BCDE90801FBF776
:104AA000ABFBDDE90A2306460F46DDE90801FBF70B
:104AB000A5FB02460B460020B949FBF77BFECDE97A
:104AC0000E0102460B4630463946FBF749FDCDE95B
:104AD0000401DDE90434CDE9023400230293DDE969
:104AE00002896D1045F0005505F50025002205EB03
:104AF0008A434046494614461D46FBF731FD0246AF
:104B00000B4630463946FBF777FBDDE90A230646BC
:104B10000F4620462946FBF76FFB02460B46DDE9B0
:104B20000801FBF769FB42464B46FBF719FD0246BD
:104B30000B4630463946FBF75FFBDDE90E23FBF7FA
:104B40000FFDDDE90423CDE9080110461946FBF706
:104B500007FD7BA3D3E9002304460D46FBF700FDC8
:104B600079A3D3E90023FBF749FB22462B46FBF749
:104B7000F7FC77A3D3E90023FBF740FB22462B4643
:104B8000FBF7EEFC74A3D3E90023FBF737FB2246C7
:104B90002B46FBF7E5FC72A3D3E90023FBF72EFBC2
:104BA00022462B46FBF7DCFC6FA3D3E90023FBF77F
:104BB00025FB224606460F462B4620462946FBF794
:104BC000CFFC02460B4630463946FBF7C9FC42464D
:104BD00004460D464B46DDE90401FBF70FFBDDE91A
:104BE0000823FBF7BDFC22462B46FBF707FB42469A
:104BF00006460F464B4640464946FBF7B1FC0022AD
:104C0000684BCDE90A01FBF7F9FA32463B46FBF760
:104C1000F5FA02980D46044602460B4640464946C0
:104C2000FBF79EFC0022804689465E4B20462946C3
:104C3000FBF7E2FADDE90A23FBF7DEFA02460B4650
:104C400030463946FBF7D8FADDE90423FBF788FC48
:104C5000224606460F462B46DDE90801FBF780FC9D
:104C600002460B4630463946FBF7C8FA06460F4661
:104C700002460B4640464946FBF7C0FA02983CA361
:104C8000D3E9002304460D46FBF76AFC4246CDE912
:104C900008014B4620462946FBF7AEFA02460B4672
:104CA00030463946FBF7A8FA33A3D3E90023FBF7D4
:104CB00057FC33A3D3E9002306460F462046294676
:104CC000FBF74EFC02460B4630463946FBF796FA98
:104CD0000C9A354B1344D3E90023FBF78FFA0446B3
:104CE00007980D46FBF7D6FB0C9A304B1344D3E9DB
:104CF000008906460F4622462B46DDE90801FBF7F0
:104D00007DFA42464B46FBF779FA32463B46FBF7C3
:104D100075FA029832463B46CDE90401FBF76CFA7E
:104D200042464B46FBF768FADDE9082307E64FF0F9
:104D3000010AA5E69FED147B13E600BFAFF30080E8
:104D4000EF4E454A287ECA3F65DBC9934A86CD3F70
:104D500001411DA96074D13F4D268F515555D53F56
:104D6000FFAB6FDBB66DDB3F033333333333E33FEE
:104D7000000000E009C7EE3FFD033ADC09C7EE3F43
:104D8000F5015B14E02F3EBE000000000000F03F84
:104D9000000040438E98030079B60B00788F00081E
:104DA0000000F03F00000840988F0008888F00083E
:104DB000B6A3D3E9002340464946FBF71FFA224633
:104DC000CDE904012B4630463946FBF715FA024679
:104DD0000B46DDE90401FBF753FE00287FF4FEAD2E
:104DE000A54A2BF00043934240F30C811B154FF46E
:104DF000801AA3F2FE334AFA03F35B44C3F30A5268
:104E00009E4EA2F2FF321641C3F3130A002023EA9A
:104E10000601C2F114024AF4801A4AFA02FABBF1FE
:104E2000000F02460B4620462946B8BFCAF1000AC9
:104E3000FBF7E2F9CDE9000142464B46DDE900010E
:104E4000FBF7DCF900207AA3D3E9002304460D46E2
:104E5000FBF786FBDDE9002306460F462046294680
:104E6000FBF7CAF902460B4640464946FBF7C4F930
:104E700071A3D3E90023FBF773FB71A3D3E90023EC
:104E80008046894620462946FBF76AFB02460B46C8
:104E900040464946FBF7B2F904460D4602460B462A
:104EA00030463946FBF7AAF932463B4680468946EA
:104EB000FBF7A2F902460B4620462946FBF79CF970
:104EC000424606460F464B4640464946FBF748FBDE
:104ED0005DA3D3E9002304460D46FBF741FB5CA329
:104EE000D3E90023FBF788F922462B46FBF738FB72
:104EF00059A3D3E90023FBF781F922462B46FBF7A0
:104F00002FFB57A3D3E90023FBF776F922462B4664
:104F1000FBF726FB54A3D3E90023FBF76FF92246E6
:104F20002B46FBF71DFB02460B4640464946FBF766
:104F300063F904460D4602460B4640464946FBF7D8
:104F40000FFB0022CDE900014FF0804320462946A7
:104F5000FBF752F902460B46DDE90001FBF72AFC9C
:104F6000324604460D463B4640464946FBF7F8FAB2
:104F700032463B46FBF742F902460B46204629469D
:104F8000FBF73AF942464B46FBF736F902460B4629
:104F900000203B49FBF730F901EB0A54B4F5801FC0
:104FA00002460B4631DA504643EC102B01F034F93F
:104FB00051EC100BDDE90223FFF7F1BB314B21F07F
:104FC00000469E427FF70CAF2F4B0B4403430BD0A0
:104FD00027A3D3E90023DDE90201FBF7C1FA24A3EB
:104FE000D3E90023FFF7DBBB22462B46FBF704F98E
:104FF00002460B4640464946FBF72EFD00283FF48B
:10500000EFAEE5E74FF0000A16E72146D2E70020B1
:105010001B49FFF78DBBDDE90001FFF789BB304677
:105020003946FFF785BB9346FFF796BBAFF3008089
:1050300000000000432EE63FEF39FAFE422EE63F25
:10504000396CA80C615C20BED0A4BE726937663E84
:10505000F16BD2C541BDBB3E2CDE25AF6A56113F78
:1050600093BDBE166CC1663F3E5555555555C53F5F
:1050700059F3F8C21F6EA5010000E03FFFFF0F00CB
:105080000000F03FFFCB904000346F3FFE822B6565
:105090004715973C000000002DE9F04F57EC106BCE
:1050A000C34B8DB027F0004898450446049707DCB1
:1050B0000022002384ED000BC0E90223002527E035
:1050C000BC4B984575DC049BBB4D002B10EE100AC1
:1050D000A9A3D3E90023394636DDFBF78DF8A845AF
:1050E00006460F4618D0A6A3D3E90023FBF784F8A1
:1050F00002460B46C4E9002330463946FBF77CF8EC
:105100009FA3D3E90023FBF777F8C4E90201012547
:1051100028460DB0BDE8F08F9BA3D3E90023FBF731
:105120006BF89BA3D3E9002306460F46FBF764F810
:1051300002460B46C4E9002330463946FBF75CF8CB
:1051400093A3D3E90023DEE7FBF758F8A84506460A
:105150000F4616D08AA3D3E90023FBF74FF8024687
:105160000B46C4E9002330463946FBF745F884A3D3
:10517000D3E90023FBF742F84FF0FF35C4E9020101
:10518000C6E781A3D3E90023FBF738F880A3D3E96E
:10519000002306460F46FBF731F802460B46C4E9EA
:1051A000002330463946FBF727F879A3D3E90023DB
:1051B000E0E7824B984500F3D08000F003FF57EC06
:1051C000106B10EE100A74A3D3E900233946FBF7E5
:1051D000C7F900227A4BFBF711F8FBF771FC054683
:1051E000FBF758F964A3D3E90023CDE90201FBF7EB
:1051F000B7F902460B4630463946FAF7FDFF60A381
:10520000D3E9002382468B46DDE90201FBF7A8F9CA
:105210001F2D06460F462ADC6A1E6A4B53F82230C1
:10522000984524D032463B4650465946FAF7E4FFAB
:10523000C4E90001D4E90089504642464B4659462C
:10524000FAF7DAFF3B463246FAF7D6FF049B002B0B
:10525000C4E90201BFF65CAF09F100436360C4F822
:105260000080A06001F10043E3606D4250E73246E8
:105270003B4650465946FAF7BFFF4FEA2852C1F362
:105280000A53D31A102BC4E900010592D2DD3EA3C4
:10529000D3E90023DDE90201FBF762F906460F4678
:1052A00002460B4650465946FAF7A6FF02460B4601
:1052B0008046894650465946FAF79EFF32463B469D
:1052C000FAF79AFF32A3D3E9002306460F46DDE939
:1052D0000201FBF745F932463B46FAF78DFF0246DD
:1052E0000B4606460F4640464946FAF785FF059AA3
:1052F000C1F30A53D31A312BC4E900012ADD28A3D4
:10530000D3E90023DDE90201FBF72AF906460F463F
:1053100002460B4640464946FAF76EFF02460B46E8
:1053200082468B4640464946FAF766FF32463B4680
:10533000FAF762FF1CA3D3E9002306460F46DDE916
:105340000201FBF70DF932463B46FAF755FF0646D8
:105350000F4667E7C246CB466CE71B4B984535DDE9
:1053600010EE102A3B4630463946FAF745FFC4E9AD
:105370000201C4E90001A1E600004054FB21F93F0D
:105380003163621A61B4D03D0000601A61B4D03D4F
:105390007370032E8A19A33B83C8C96D305FE43F45
:1053A0000000002E8A19A33BC14920259A837B392E
:1053B000FB21E93F7BD90240FB21F93FFB21394129
:1053C0000000E03FA88F0008FFFFEF7F4FEA28555D
:1053D000A5F21645A8EB055130460F46FBF770FBCA
:1053E000FBF758F802460B4630463946CDE906230E
:1053F000FAF702FF00221F4BFBF7B2F80F460646F2
:10540000FBF75EFBFBF746F802460B463046394693
:10541000CDE90823FAF7F0FE0022164BFBF7A0F8BF
:10542000CDE90A010DF130094FF0030800260027ED
:1054300032463B4679E9020108F1FF3AFBF7F8FAF8
:10544000B0B90D4B0193022300932A4643462146EF
:1054500006A800F0ADF9049B002B0546BFF658AE38
:10546000636803F100436360E36803F10043FBE614
:10547000D046DDE700007041289000082DE9F0419A
:1054800055EC104B544EAE4310EE100A2B462A46F4
:10549000214613D110EE102A2B4610EE100A294691
:1054A000FBF75EF802460B4620462946FAF7A6FEB1
:1054B00004460D4645EC104BBDE8F081002D10DC94
:1054C00025F000463043F5D05DB110EE102A2B4692
:1054D00020462946FAF790FE02460B46FBF76AF98A
:1054E000E6E71B150CD1002A6DD00020D6026ED540
:1054F000441E1B1BC0F1200421FA04F42243814006
:10550000A3F2FF33C2F31302DD0742F4801242BF5D
:10551000520002EBD17249005810002502EBD17302
:105520001A44490016232C464FF40016A719974237
:10553000DEBFD21BBC19AD195200013B02EBD17288
:105540004FEA56064FEA4101F0D14FF0200E9C463B
:105550004FF00046A24206EB0C0702DC12D18F424C
:1055600010D8002F07EB060C34DABCF1000F31DB4A
:1055700004F10108121B8F4288BF02F1FF32C91BE0
:105580003344444602EBD177BEF1010E3A444FEA70
:1055900041014FEA5606DDD10A4306D05C1C13BF19
:1055A00001330135734623F001036A105B08E907F4
:1055B00002F17F5202F5001248BF43F0004302EBB4
:1055C00000551C4676E7CA0A153B49058BE7520091
:1055D00001308BE7A046CDE70000F07F000000001F
:1055E0002DE9F04F59EC108B29F0004785B0B7F149
:1055F000795F8DED001B07DA10EE100A4946FBF7C4
:105600005FFA002800F0AA8042464B4640464946D1
:10561000FAF7A6FF59A3D3E9002304460D46FAF78B
:105620009FFF58A3D3E90023FAF7E8FD22462B4653
:10563000FAF796FF55A3D3E90023FAF7DDFD2246DA
:105640002B46FAF78DFF53A3D3E90023FAF7D6FDD3
:1056500022462B46FAF784FF50A3D3E90023FAF73A
:10566000CBFD22462B46FAF77BFF4EA3D3E900235E
:10567000FAF7C4FD2B462246FAF772FF3A4B9F42D7
:1056800082468B462CDC0022384B20462946FAF70E
:1056900067FF524606460F465B4620462946FAF704
:1056A0005FFFDDE9002304460D4640464946FAF710
:1056B00057FF02460B4620462946FAF79DFD024653
:1056C0000B4630463946FAF797FD0B462849024605
:1056D0000020FAF791FD41EC100B05B0BDE8F08F0A
:1056E000244B23499F42D7BFA7F50013224F002226
:1056F0001646D4BF1F46002632463B460020FAF726
:105700007BFD0022CDE90201184B20462946FAF71D
:1057100027FF32463B46FAF76FFD524606460F46D4
:105720005B4620462946FAF71BFFDDE900230446C5
:105730000D4640464946FAF713FF02460B462046FF
:105740002946FAF759FD02460B4630463946FAF724
:1057500053FD02460B46DDE90201BAE70020044989
:10576000B9E700BFAFF300803233D33F0000E03F22
:105770000000F03F0000E93F0000D23FD43888BE6F
:10578000E9FAA8BDC4B1B4BD9EEE213EAD529C80E5
:105790004F7E923E9015CB19A001FA3E7751C1166B
:1057A0006CC1563F4C5555555555A53F000000005E
:1057B0002DE9F04F2DED028BADF5197DD41E06932A
:1057C0000291C34BA499099053F821300093069B92
:1057D000013B0493182394FBF3F46FF0170324EABE
:1057E000E47404FB033303EB020A009B049A9FED6D
:1057F000B48B03EB0208A59BA71A20AE03EB870925
:105800000025454513DD9FEDAE8B0DF5E07B0026B1
:10581000009B9E4232DC099B0393069B9D1920ABA3
:1058200003EBC503089359EC188B00271FE0EF42E8
:1058300007D459F82500FAF72DFEE6E802010135F4
:10584000DFE751EC180BF8E70899039D71E9022393
:105850000891F5E802010395FAF782FE02460B462D
:1058600040464946FAF7CAFC013780468946049B00
:105870009F42E9DDEBE802890136C9E7009B009F02
:105880000CAA02EB83030B93A59B03EB84030A93FF
:1058900098AB07F1005B03EBC7030BF1FF3B53E948
:1058A00028894FEACB030893089A98AB1344A3F1D5
:1058B000980B0026BB1B002B77DC49EC108B504665
:1058C00000F0AAFC55EC104B00224FF07F5310EE75
:1058D000100A2946FAF744FE41EC100B00F084FB55
:1058E000002251EC100B7B4BFAF73AFE02460B46B6
:1058F00020462946FAF780FC0D460446FBF7E0F8FF
:105900000390FAF7C7FD02460B4620462946FAF7F0
:1059100073FCBAF1000F804689466BDD7A1E0CAB32
:10592000CAF1180153F82200039C40FA01F31C4409
:105930008B40C01A0CAB039443F82200CAF1170342
:1059400040FA03FBBBF1000F62DD039B0022013331
:10595000039314466FF07F41974200F38980BAF1B8
:10596000000F07DDBAF1010F00F09680BAF1020FC7
:1059700000F09C80BBF1020F4AD142464B4600200A
:105980005549FAF739FC80468946002C40D05046EC
:105990009FED4D0B00F040FC4046494653EC102B68
:1059A000FAF72AFC8046894632E000224B4B4046FB
:1059B0004946FAF7D5FDFBF783F8FAF76BFD0022AD
:1059C000474B04460D46FAF7CBFD02460B464046D0
:1059D0004946FAF711FCFBF773F80CAB294643F87C
:1059E00026007BE902232046FAF708FC01368046B0
:1059F00089465FE706D17B1E0CAA52F823004FEAC6
:105A0000E05B9FE70022374BFBF730F868BB83462B
:105A10000022002340464946FBF70AF8002800F020
:105A2000C1807C1E2346002200998B425CDA002A4A
:105A300040F08B8001246FF0030202FB04F30B990A
:105A4000CB58002B56D0089B98AA1344A3F1900B77
:105A5000069BDD1920AB03EBC505E3197E1C039300
:105A6000039B9E4248DD1F4612E74FF0020B6CE796
:105A70000CAB53F822304CB92BB10CA8C3F1807396
:105A800040F82230012301321C4665E70CA8CB1AEE
:105A900040F822302346F6E77A1E0CAB53F822304A
:105AA000C3F316030CA941F8223063E77A1E0CAB4E
:105AB00053F82230C3F31503F4E700BFAFF30080BF
:105AC0000000000000000000000000000000F03FA7
:105AD00070910008000020400000F03F0000703E80
