:020000040800F2
:1000000000000320351E0008871E0008951E00080A
:100010009B1E0008A11E0008A71E0008000000008B
:10002000000000000000000000000000AD1E0008FD
:10003000BB1E000800000000C91E0008D71E0008F3
:10004000851E0008851E0008851E0008851E000804
:10005000851E0008851E0008851E0008851E0008F4
:10006000851E0008851E0008851E00086D04000816
:100070008104000895040008A9040008BD040008D4
:10008000D1040008E5040008851E0008851E00084C
:10009000851E0008851E0008851E0008851E0008B4
:1000A000851E0008851E0008851E0008851E0008A4
:1000B000851E000885180008851E0008851E00089A
:1000C000851E0008851E0008851E0008851E000884
:1000D000851E0008851E0008851E0008851E000874
:1000E000851E0008851E0008851E0008851E000864
:1000F000851E0008851E0008851E0008F9040008FA
:10010000851E0008851E0008851E0008851E000843
:10011000851E0008851E0008851E0008851E000833
:100120000D050008210500083505000849050008EF
:100130005D050008851E0008851E0008851E000854
:10014000851E0008851E0008851E0008851E000803
:10015000710500088505000899050008851E00083E
:10016000851E0008851E0008851E0008851E0008E3
:10017000851E0008851E0008851E0008851E0008D3
:10018000851E0008851E0008851E0008851E0008C3
:10019000851E0008851E0008851E0008851E0008B3
:0C01A000851E0008851E0008851E000852
:1001AC0010B5054C237833B9044B13B10448AFF3A5
:1001BC0000800123237010BD7C0000200000000093
:1001CC00402D000808B5034B1BB103490348AFF39E
:1001DC00008008BD0000000080000020402D0008B9
:1001EC0080B483B000AF78600B467B807B687A88E4
:1001FC001A8300BF0C37BD465DF8047B704780B492
:10020C0083B000AF78600B467B807B687A885A831A
:10021C0000BF0C37BD465DF8047B704780B485B0D9
:10022C0000AF786039607B68184A93420AD8184B43
:10023C00FB607A68174B1344174AA2FB03231B0974
:10024C00BB6009E0154BFB607A68154B1344124AEE
:10025C00A2FB03231B09BB60BB68032B05D9FB68FE
:10026C000433FB60BB68043BBB60FB683A6802F07C
:10027C003D020C48B968014409788A401A6000BFF5
:10028C001437BD465DF8047B704700BF0F64024015
:10029C0008600240F09FFDBFABAAAAAA0864024006
:1002AC00F09BFDBF002E000880B487B000AF7860D3
:1002BC00396000237B6100233B610023FB607B687A
:1002CC001B4A93420AD81B4B3B617A681A4B134466
:1002DC001A4AA2FB03231B097B6109E0184B3B6103
:1002EC007A68184B1344154AA2FB03231B097B6144
:1002FC007B69032B05D93B6904333B617B69043B68
:10030C007B613B691B68FB600F4A7B6913441B785C
:10031C001A46FB68D340FB60FB6803F03D03FB60AF
:10032C00FB6818461C37BD465DF8047B704700BF60
:10033C000F64024000600240F09FFDBFABAAAAAA66
:10034C0000640240F09BFDBF002E000880B483B017
:10035C0000AF786000BF0C37BD465DF8047B70477A
:10036C0080B483B000AF786000BF0C37BD465DF839
:10037C00047B704780B483B000AF786000BF0C374B
:10038C00BD465DF8047B704780B483B000AF7860E5
:10039C0000BF0C37BD465DF8047B704780B483B05A
:1003AC0000AF786000BF0C37BD465DF8047B70472A
:1003BC0080B584B000AF78603D217868FFF774FF9A
:1003CC000346FB813D217868FFF728FFFB8903F08A
:1003DC002003002B08D07B681B6803F01003002B54
:1003EC0002D07868FFF7B2FFFB8903F01003002BF3
:1003FC0008D07B681B6803F00803002B02D07868D8
:10040C00FFF7AEFFFB8903F00803002B08D07B68D5
:10041C001B6803F00403002B02D07868FFF7AAFFD7
:10042C00FB8903F00403002B08D07B681B6803F0E6
:10043C000203002B02D07868FFF7A6FFFB8903F0BC
:10044C000103002B08D07B685B6903F08003002B51
:10045C0002D07868FFF7A2FF00BF1037BD4680BD01
:10046C0080B500AF0248FFF7A3FF00BF80BD00BFFF
:10047C001060024080B500AF0248FFF799FF00BF43
:10048C0080BD00BF2860024080B500AF0248FFF776
:10049C008FFF00BF80BD00BF4060024080B500AF41
:1004AC000248FFF785FF00BF80BD00BF58600240C7
:1004BC0080B500AF0248FFF77BFF00BF80BD00BFD7
:1004CC007060024080B500AF0248FFF771FF00BFBB
:1004DC0080BD00BF8860024080B500AF0248FFF7C6
:1004EC0067FF00BF80BD00BFA060024080B500AFB9
:1004FC000248FFF75DFF00BF80BD00BFB86002403F
:10050C0080B500AF0248FFF753FF00BF80BD00BFAE
:10051C001064024080B500AF0248FFF749FF00BFEE
:10052C0080BD00BF2864024080B500AF0248FFF7D1
:10053C003FFF00BF80BD00BF4064024080B500AFEC
:10054C000248FFF735FF00BF80BD00BF5864024072
:10055C0080B500AF0248FFF72BFF00BF80BD00BF86
:10056C007064024080B500AF0248FFF721FF00BF66
:10057C0080BD00BF8864024080B500AF0248FFF721
:10058C0017FF00BF80BD00BFA064024080B500AF64
:10059C000248FFF70DFF00BF80BD00BFB8640240EA
:1005AC0080B5ADF5007D00AF3B1D1860E44AE44B0F
:1005BC005B8B9BB243F480539BB253833B1D44F63D
:1005CC002061186800F0B0FBDD4ADD4B1B8B9BB241
:1005DC0043F480539BB213833B1D44F6206118688F
:1005EC0000F0A2FB3B1D0121186800F0B5FB3B1D80
:1005FC004CF25031186800F097FB07F11403D14A04
:10060C0092E8030083E8030007F11C03184600F08E
:10061C0035FC07F11C0307F1140207F1080006CAA8
:10062C0000F06DFC07F108023B1D1146186800F044
:10063C004BFB07F10803184600F082FC07F11C0382
:10064C00184600F027FC07F12C03BF4A92E8030080
:10065C0083E8030007F13403184600F00FFC07F1A0
:10066C00340307F12C0207F1200006CA00F047FC06
:10067C0007F120023B1D1146186800F025FB07F11D
:10068C002003184600F05CFC07F13403184600F018
:10069C0001FC07F14403AD4A92E8030083E8030030
:1006AC0007F14C03184600F0E9FB07F14C0307F186
:1006BC00440207F1380006CA00F021FC07F13802A9
:1006CC003B1D1146186800F0FFFA07F13803184675
:1006DC0000F036FC07F14C03184600F0DBFB07F189
:1006EC005C039B4A92E8030083E8030007F1640370
:1006FC00184600F0C3FB07F1640307F15C0207F135
:10070C00500006CA00F0FBFB07F150023B1D1146DE
:10071C00186800F0D9FA07F15003184600F010FCE5
:10072C0007F16403184600F0B5FB07F17403894A1E
:10073C0092E8030083E8030007F17C03184600F0FD
:10074C009DFB07F17C0307F1740207F1680006CAF0
:10075C0000F0D5FB07F168023B1D1146186800F04C
:10076C00B3FA07F16803184600F0EAFB07F17C03C3
:10077C00184600F08FFB07F18C03774A92E80300D0
:10078C0083E8030007F19403184600F077FB07F1A8
:10079C00940307F18C0207F1800006CA00F0AFFB4E
:1007AC0007F180023B1D1146186800F08DFA07F125
:1007BC008003184600F0C4FB07F19403184600F0C0
:1007CC0069FB07F1A403654A92E8030083E8030080
:1007DC0007F1AC03184600F051FB07F1AC0307F12D
:1007EC00A40207F1980006CA00F089FB07F19802F1
:1007FC003B1D1146186800F067FA07F1980318467C
:10080C0000F09EFB07F1AC03184600F043FB07F128
:10081C00BC03534A92E8030083E8030007F1C403C6
:10082C00184600F02BFB07F1C40307F1BC0207F1DB
:10083C00B00006CA00F063FB07F1B0023B1D114685
:10084C00186800F041FA07F1B003184600F078FB85
:10085C0007F1C403184600F01DFB07F1D403414A0D
:10086C0092E8030083E8030007F1DC03184600F06C
:10087C0005FB07F1DC0307F1D40207F1C80006CA37
:10088C0000F03DFB07F1C8023B1D1146186800F053
:10089C001BFA07F1C803184600F052FB07F1DC0302
:1008AC00184600F0F7FA07F1EC032F4A92E8030020
:1008BC0083E8030007F1F403184600F0DFFA07F1B0
:1008CC00F40307F1EC0207F1E00006CA00F017FB95
:1008DC0007F1E0023B1D1146186800F0F5F907F12D
:1008EC00E003184600F02CFB07F1F403184600F067
:1008FC00D1FA1E4A07F5827392E8030083E80300DD
:10090C0007F58673184600F0B9FA07F5867307F1F8
:10091C00F80007F5827206CA00F0F1FA07F1F80246
:10092C003B1D1146186800F0CFF907F1F803184683
:10093C0000F006FB07F58673184600F0ABFA17E0DB
:10094C00000C0240582D0008602D0008682D00088E
:10095C00702D0008782D0008802D0008882D0008C7
:10096C00902D0008982D0008A02D0008A82D000837
:10097C00CA4A07F58E7392E8030083E8030007F573
:10098C009273184600F07AFA07F5927307F588709F
:10099C0007F58E7206CA00F0B2FA07F588723B1D95
:1009AC001146186800F090F907F58873184600F0A6
:1009BC00C7FA07F59273184600F06CFAB84A07F5B7
:1009CC009A7392E8030083E8030007F59E731846B8
:1009DC0000F054FA07F59E7307F5947007F59A72B8
:1009EC0006CA00F08CFA07F594723B1D1146186884
:1009FC0000F06AF907F59473184600F0A1FA07F5B0
:100A0C009E73184600F046FAA64A07F5A67392E8BC
:100A1C00030083E8030007F5AA73184600F02EFACA
:100A2C0007F5AA7307F5A07007F5A67206CA00F0C1
:100A3C0066FA07F5A0723B1D1146186800F044F9E0
:100A4C0007F5A073184600F07BFA07F5AA73184651
:100A5C0000F020FA944A07F5B27392E8030083E899
:100A6C00030007F5B673184600F008FA07F5B673DD
:100A7C0007F5AC7007F5B27206CA00F040FA07F53C
:100A8C00AC723B1D1146186800F01EF907F5AC73EB
:100A9C00184600F055FA07F5B673184600F0FAF947
:100AAC00824A07F5BE7392E8030083E8030007F55A
:100ABC00C273184600F0E2F907F5C27307F5B87077
:100ACC0007F5BE7206CA00F01AFA07F5B8723B1D9C
:100ADC001146186800F0F8F807F5B873184600F0DE
:100AEC002FFA07F5C273184600F0D4F9704A07F5CF
:100AFC00CA7392E8030083E8030007F5CE73184627
:100B0C0000F0BCF907F5CE7307F5C47007F5CA728F
:100B1C0006CA00F0F4F907F5C4723B1D11461868BB
:100B2C0000F0D2F807F5C473184600F009FA07F57F
:100B3C00CE73184600F0AEF95E4A07F5D67392E80C
:100B4C00030083E8030007F5DA73184600F096F902
:100B5C0007F5DA7307F5D07007F5D67206CA00F000
:100B6C00CEF907F5D0723B1D1146186800F0ACF8B1
:100B7C0007F5D073184600F0E3F907F5DA73184659
:100B8C0000F088F94C4A07F5E27392E8030083E819
:100B9C00030007F5E673184600F070F907F5E673E5
:100BAC0007F5DC7007F5E27206CA00F0A8F907F544
:100BBC00DC723B1D1146186800F086F807F5DC73F3
:100BCC00184600F0BDF907F5E673184600F062F917
:100BDC003A4A07F5EE7392E8030083E8030007F541
:100BEC00F273184600F04AF907F5F27307F5E8704E
:100BFC0007F5EE7206CA00F082F907F5E8723B1DA4
:100C0C001146186800F060F807F5E873184600F014
:100C1C0097F907F5F273184600F03CF9284A07F5E6
:100C2C00FA7392E8030083E8030007F5FE73184695
:100C3C0000F024F907F5FE7307F5F47007F5FA7266
:100C4C0006CA00F05CF907F5F4723B1D11461868F2
:100C5C0000F03AF807F5F473184600F071F907F54F
:100C6C00FE73184600F016F93B1D1121186800F0B0
:100C7C0073F83B1D1349186800F056F83B1D2921E9
:100C8C00186800F069F83B1D2C21186800F064F816
:100C9C0000BF07F50077BD4680BD00BFB02D000832
:100CAC00B82D0008C02D0008C82D0008D02D000854
:100CBC00D82D0008E02D0008E82D0008F02D0008C4
:100CCC00F82D000840420F0090B585B000AF786059
:100CDC0039600021386800F04EF903461B7819463C
:100CEC00786800F039F80123FB73FC7B386800F05E
:100CFC0051F903469C4234BF01230023DBB2002B85
:100D0C000ED0FB7B1946386800F035F903461B788A
:100D1C001946786800F04CF8FB7B0133FB73E4E771
:100D2C0000BF1437BD4690BD80B483B000AF78606F
:100D3C0039603B68002B14BF01230023DBB2002B6E
:100D4C0003D03B68013B3B60F3E700BF0C37BD466B
:100D5C005DF8047B7047000080B582B000AF78600E
:100D6C000B46FB70104A104B5B8B9BB243F4005349
:100D7C009BB253830D4A0D4B5B8B9BB243F0040328
:100D8C009BB25383FB781946786800F03DF8074A0C
:100D9C00064B1B8B9BB243F004039BB2138300BF27
:100DAC000837BD4680BD00BF000C02400008024061
:100DBC0080B582B000AF78600B46FB70104A104BC8
:100DCC001B8B9BB243F400539BB213830D4A0D4B08
:100DDC005B8B9BB243F004039BB25383FB781946A5
:100DEC00786800F011F8074A064B1B8B9BB243F056
:100DFC0004039BB2138300BF0837BD4680BD00BF00
:100E0C00000C02400008024080B483B000AF786050
:100E1C000B46FB70184B1B899BB203F00303002B92
:100E2C0006D0154B1B899BB203F08003002B01D01D
:100E3C00012300E00023002B00D0EBE70E4BFA78E7
:100E4C0092B29A810C4B1B899BB203F00303002BCB
:100E5C0006D0094B1B899BB203F08003002B01D0F9
:100E6C00012300E00023002B00D0EBE700BF0C3780
:100E7C00BD465DF8047B70470050014080B582B0E0
:100E8C0000AF7860786800F095F87B6818460837F2
:100E9C00BD4680BD80B582B000AF7860786800F048
:100EAC0094F87B6818460837BD4680BD80B483B083
:100EBC0000AF78607B681B6818460C37BD465DF840
:100ECC00047B704780B483B000AF78607B685B684C
:100EDC0018460C37BD465DF8047B704790B583B05F
:100EEC0000AF78607868FFF7E1FF04467868FFF799
:100EFC00E9FF0346234418460C37BD4690BDB0B5F8
:100F0C0086B000AFF860381D80E806003B60FB68D7
:100F1C003968184600F070F83B1D1846FFF7C6FFFD
:100F2C0004463B1D1846FFF7D9FF02462B462146C7
:100F3C00F86800F089F8FB6818461837BD46B0BD54
:100F4C00B0B582B000AF78607B681C687B685D6868
:100F5C007B68184600F0A6F803461A462946204638
:100F6C0000F0ABF87B68184600F055F87B68184623
:100F7C000837BD46B0BD80B483B000AF786039602F
:100F8C007B681A683B68134418460C37BD465DF8FD
:100F9C00047B704780B483B000AF78607B685B687B
:100FAC001A467B681B68D31A18460C37BD465DF889
:100FBC00047B704780B483B000AF78607B681846C0
:100FCC000C37BD465DF8047B704780B483B000AF2E
:100FDC0078607B6818460C37BD465DF8047B70471B
:100FEC0080B582B000AF78607868FFF753FF7B68FC
:100FFC0018460837BD4680BD80B582B000AF78601A
:10100C0039607B683968184600F065F87B681846CB
:10101C000837BD4680BD80B582B000AF78607B6874
:10102C0019687B689B681A467B681B68D31A1A463A
:10103C00786800F067F87B681846FFF7D1FF7B688B
:10104C0018460837BD4680BD90B587B000AFF86034
:10105C00B9607A603B707968B86800F066F803464E
:10106C007B61FB687969184600F073F80246FB68EF
:10107C001A60FB681A687B691A44FB689A60FB6803
:10108C001C68FB68184600F00DF803462246796888
:10109C00B86800F072F80246FB685A6000BF1C3753
:1010AC00BD4690BD80B483B000AF78607B681846B5
:1010BC000C37BD465DF8047B704780B584B000AF3B
:1010CC00F860B9607A60B968F86800F067F800BF3A
:1010DC001037BD4680BD80B582B000AF78603960F6
:1010EC003968786800F067F87B6800221A607B68C2
:1010FC0000225A607B6800229A607B681846083789
:10110C00BD4680BD80B584B000AFF860B9607A6030
:10111C00BB68002B05D0FB687A68B968184600F0EC
:10112C0058F800BF1037BD4680BDB0B584B000AFD5
:10113C00786039607C683B1D184600F059F82A46E7
:10114C003968204600F05EF8034618461037BD4655
:10115C00B0BD80B582B000AF786039603B68002BC1
:10116C0006D07B683968184600F05BF8034600E04F
:10117C00002318460837BD4680BD80B584B000AF4B
:10118C00F860B9607A603B607A68B968F86800F01A
:10119C0057F8034618461037BD4680BD80B582B05F
:1011AC0000AF786039603968786800F05BF800BF90
:1011BC000837BD4680BD80B582B000AF786039601D
:1011CC003968786800F059F87B6818460837BD46CE
:1011DC0080BD80B584B000AFF860B9607A607A6881
:1011EC00B968F86800F055F800BF1037BD4680BDEF
:1011FC0080B483B000AF786018460C37BD465DF8FC
:10120C00047B704780B485B000AFF860B9603A7168
:10121C00BA68FB68D31A18461437BD465DF8047BD0
:10122C00704780B582B000AF7860396000223968B1
:10123C00786800F03BF8034618460837BD4680BD79
:10124C0080B586B000AFF860B9607A600123FB7599
:10125C007A68B968F86800F045F8034618461837FC
:10126C00BD4680BD80B483B000AF7860396000BFEC
:10127C000C37BD465DF8047B704780B483B000AF7B
:10128C00786039607B6818460C37BD465DF8047B86
:10129C00704780B584B000AFF860B9607A60B86808
:1012AC0001F068FA00BF1037BD4680BD80B584B030
:1012BC0000AFF860B9607A60F86800F023F8024675
:1012CC00BB689A4234BF01230023DBB2002B01D050
:1012DC0001F06CFAB86801F04FFA03461846103763
:1012EC00BD4680BD80B584B000AFF860B9607A604F
:1012FC007A68B968F86800F011F803461846103798
:10130C00BD4680BD80B483B000AF78604FF0FF3332
:10131C0018460C37BD465DF8047B704790B585B018
:10132C0000AFF860B9607A60F86800F00FF8044616
:10133C00B86800F00BF803467A681946204600F0AE
:10134C0010F8034618461437BD4690BD80B483B0E0
:10135C0000AF78607B6818460C37BD465DF8047B9F
:10136C007047B0B584B000AFF860B9607A60F868C7
:10137C0000F013F80446B86800F00FF805467868DA
:10138C0000F016F803461A462946204600F01BF8D2
:10139C00034618461037BD46B0BD80B483B000AFCD
:1013AC0078607B6818460C37BD465DF8047B704747
:1013BC0080B483B000AF78607B6818460C37BD46AC
:1013CC005DF8047B704780B586B000AFF860B960FB
:1013DC007A600123FB757A68B968F86800F005F843
:1013EC00034618461837BD4680BD80B586B000AFA1
:1013FC00F860B9607A60BA68FB68D31A7B617B6964
:10140C00002B05D07B691A46F968786801F056FB09
:10141C007B697A68134418461837BD4680BD0000B6
:10142C0080B483B000AF0346FB71094997F90730CC
:10143C005B0997F9072002F01F02012000FA02F263
:10144C0041F8232000BF0C37BD465DF8047B704784
:10145C0000E100E080B483B000AF03463960FB715B
:10146C0097F90730002B0BDA0D49FB7903F00F03CA
:10147C00043B3A68D2B21201D2B20B441A7609E09C
:10148C00084997F907303A68D2B21201D2B20B442C
:10149C0083F8002300BF0C37BD465DF8047B704712
:1014AC0000ED00E000E100E080B400AF524A524B86
:1014BC001B6B43F0040313634F4A4F4B1B6B43F0FE
:1014CC00080313634C4A4C4B1B6B43F02003136310
:1014DC00494A494B5B6C43F480135364474A474B6E
:1014EC001B6843F080631360444A444B9B6843F091
:1014FC0080639360424A424B1B6843F010031360B5
:10150C003F4A3F4B9B6843F0100393603B4A3B4B75
:10151C001B6843F080731360384A384BDB6843F028
:10152C008073D360374A374B1B6843F40043136016
:10153C00344A344B9B6843F440439360314A314BFB
:10154C001B6A43F0A04313622E4A2E4B1B6843F4D4
:10155C00003313602B4A2B4B9B6843F4403393604E
:10156C00284A284B5B6A43F005035362254A254BF6
:10157C001B6843F400231360224A224B9B6843F4FC
:10158C00402393601F4A1F4B5B6A43F05003536226
:10159C001D4A1D4B1B889BB243F400739BB21380F6
:1015AC00194A194B1B889BB243F480739BB213806E
:1015BC00154A154B1B889BB243F008039BB2138052
:1015CC00114A114B1B889BB243F004039BB213804E
:1015DC000D4A0D4B1B889BB243F040039BB213800A
:1015EC00054A054B1B6B43F48003136300BFBD46D8
:1015FC005DF8047B704700BF00380240000C0240CD
:10160C0000080240001402400050014080B400AFBA
:10161C00784A784B1B6C43F0010313644FF0804203
:10162C004FF080439B889BB243F040039BB2938066
:10163C004FF0804313221A854FF080436322DA6205
:10164C004FF0804331225A634FF080424FF0804379
:10165C001B8C9BB243F001039BB213844FF080426E
:10166C004FF080431B8B9BB243F060039BB2138300
:10167C004FF080424FF080431B889BB243F0010334
:10168C009BB213805B4A5B4B1B6B43F001031363F0
:10169C00584A584B1B6B43F004031363554A554B84
:1016AC005B6C43F480735364534A534B1B6843F095
:1016BC00C0031360514A514B1B6843F440631360E1
:1016CC004F4A4F4B5B6843F4807353604C4B4FF461
:1016DC008012DA624A4A4A4B5B6B43F00D03536348
:1016EC00474A474B5B6B43F0A0035363444A444B5C
:1016FC00DB6843F44063D360414A414B1B6943F4BC
:10170C00403313613E4A3E4B9B6843F480639360C5
:10171C003B4A3B4B9B6843F080539360384A384BB1
:10172C009B6843F0C0639360354A354B9B6843F428
:10173C0080739360324A324B9B6843F4007393601E
:10174C002C4A2C4B1B6B43F4800313632D4A2D4BFB
:10175C001B6823F0C00313602A4A2A4B1B6843F40E
:10176C0000331360274A274B1B6843F40063136054
:10177C00244A244B1B6843F400531360214A214B29
:10178C001B6823F4007313601E4A1E4B1B6843F442
:10179C00806313601B4A1B4B1B6843F480731360FC
:1017AC00184A184B1B6823F0C0031360154A154BDD
:1017BC005B6843F008035360124B134A9A60114B59
:1017CC00124ADA600F4A0F4B1B6823F060631360F8
:1017DC000C4A0C4B1B6843F001031360084A084B7E
:1017EC009B6843F00103936000BFBD465DF8047B2A
:1017FC00704700BF00380240000802400000024061
:10180C0000200140106402404C2001409800002050
:10181C0080B500AF164A164B1B6C43F002031364E1
:10182C00144B4FF47A721A85124B1E22DA62114A4B
:10183C00104B9B899BB243F001039BB293811D20FB
:10184C00FFF7EEFD00211D20FFF704FE094A094BAE
:10185C001B889BB243F001039BB21380054A054BD6
:10186C009B8A9BB243F001039BB2938200BF80BD65
:10187C00003802400004004080B483B000AF974BA6
:10188C001B8A9BB203F00103002B14BF012300231E
:10189C00DBB2002B00F06681904A904B1B8A9BB206
:1018AC0023F001039BB213828D4B1B889BB21A460B
:1018BC008B4B9B889BB21344894A128992B2134476
:1018CC00874A928992B2134407EE903AF8EEE77A7F
:1018DC00F1EE006A87EEA67ADFED826AC7EE267A11
:1018EC009FED817A67EE877AB3EE0E7A77EEC77A40
:1018FC00FCEEE77AC7ED017ABB889AB27B4B1A8073
:10190C00774B5B889BB21A46754BDB889BB21344B2
:10191C00734A528992B21344714AD28992B21344D7
:10192C0007EE903AF8EEE77AF1EE006A87EEA67AC7
:10193C00DFED6C6AC7EE267A9FED6B7A67EE877ADD
:10194C00B3EE0E7A77EEC77AFCEEE77AC7ED017A42
:10195C00BB889AB2664B1A80664B1B78DBB283F05D
:10196C000103DBB2002B07D1634B1B78DAB2634B5C
:10197C001B78DBB29A4219D0614B1B78DBB283F037
:10198C000103DBB2002B11D05E4B1B889BB21A46B5
:10199C005D4B5B889A4209DA544B1B889BB21A4602
:1019AC00594B5B889A4201DB012300E00023002B9A
:1019BC0034D0534B01221A704F4B1B78DBB21946B3
:1019CC00524B1B889AB2504B1B88D31A9BB21AB23B
:1019DC004F4B23F81120484B1B78DBB21A464C4B6B
:1019EC0033F912309BB2DB0BDBB2002B0FD0424B26
:1019FC001B78DBB21A461946454B33F911309BB2B2
:101A0C0003F5A0739BB219B2414B23F812103E4B55
:101A1C001B88013B9BB21AB23E4B1A80384B1B7889
:101A2C00DBB2002B0ED0394B1B889BB21A46324BC3
:101A3C001B78DBB21946364B33F911309A4201D17F
:101A4C00012300E00023002B21D02D4B00221A7023
:101A5C00294B1B78DBB2012B14BF01230023DBB213
:101A6C001A46254B1A70244B1B78DBB2002B01D184
:101A7C00294B00E0294B2A4A13601F4B1B78DBB221
:101A8C00002B01D1274B00E0274B284A1360244B35
:101A9C001A681E4B1B889BB25B001344134A1288B6
:101AAC0092B21A80214B1A68184B1B889BB25B00B0
:101ABC0013440F4A128892B21A80144B1B889BB2A3
:101ACC0040F23F1293420CBF01230023DBB2002BE8
:101ADC002ED00E4B00221A8031E000BF00040040D3
:101AEC00980000200000804500007043A8000020F2
:101AFC00AC000020CC0A0020CD0A0020CE0A002029
:101B0C00C80A0020AA00002000000020C00A002003
:101B1C00D00A0020CA0A0020B000002030030020A8
:101B2C00B00A0020B005002030080020B40A0020C4
:101B3C000F4B1B889BB201339AB20D4B1A800D4B85
:101B4C001B78DBB2002B08D00B4B1B881BB29BB253
:101B5C0001339BB21AB2084B1A80084B1B889AB2FD
:101B6C00074B1A8000BF0C37BD465DF8047B7047ED
:101B7C00C00A0020C80A0020CA0A0020A8000020C1
:101B8C00AA00002090B585B002AF00F0A5F900F0D6
:101B9C00D9F9FFF789FCFFF739FD9048FEF700FDF6
:101BAC00032000F0E1FC002000F058FC8C4B8D4A27
:101BBC001A608D4B8D4A1A60FFF72AFE8C4B1B78EE
:101BCC00DBB283F00103DBB2002B06D0894B1B7810
:101BDC00DBB2002B01D0012300E00023002B1ED030
:101BEC00834B01221A70844B00221A80834B1B7882
:101BFC00DAB2834B1A70824B1B78DBB2002B01D10B
:101C0C00784B00E07F4B804A13607D4B1B78DBB236
:101C1C00002B01D1754B00E07C4B7D4A1360744B5B
:101C2C001B78DBB2002BC9D0754B1B78DAB2734B27
:101C3C001B78DBB29A4208D1764B1B881BB21A4632
:101C4C006D4B1B889BB29A4201DB012300E0002301
:101C5C00002BB3D06A4B1B78DBB21A466E4B33F9B0
:101C6C0012309AB2644B1B889BB21344FB80FB88E6
:101C7C00B3F5A07F03DBFB88A3F5A073FB805E4B61
:101C8C001B889BB2002B0CBF01230023DBB2002B63
:101C9C0011D05D4B1A68FB885B0013441B889AB209
:101CAC005E4B1A805A4B1A68FB885B0013441B88E6
:101CBC009AB25B4B1A80504B1B8898B24E4B1B88C8
:101CCC009AB200230093EF23002100F091FC4A4BC1
:101CDC001B8898B24C4B1A68FB885B0013441B881A
:101CEC0099B2454B1B889AB24C4B1B889CB24FF453
:101CFC00FC630093234600F07BFC3F4B1B8898B29F
:101D0C00434B1A68FB885B0013441B8899B23A4B0F
:101D1C001B889AB2424B1B889CB240F21D53009315
:101D2C00234600F065FC384B1A68FB885B001344B3
:101D3C001B889AB2394B1A80354B1A68FB885B00AA
:101D4C0013441B889AB2364B1A802B4B1B889BB2C0
:101D5C0001339AB2284B1A80274B1B889BB2B3F5E0
:101D6C00A07F0CBF01230023DBB2002B02D0204B41
:101D7C0000221A70204B1B889BB21A46294B1B88D9
:101D8C0004339A420CBF01230023DBB2002B3FF437
:101D9C0015AF244B1888234B5B88043B99B2214B1D
:101DAC001A88204B5B8804339CB24FF6E073009387
:101DBC00234600F01DFC1B4B1B88043B98B2194BAF
:101DCC005988184B1B8804339AB2164B5C884FF613
:101DDC00E0730093234600F00BFCEFE6D40A0020DE
:101DEC00B00A0020B0000020B40A0020B00500208A
:101DFC00CC0A0020C80A0020C20A0020CD0A00200C
:101E0C00CE0A002030030020B80A00203008002041
:101E1C00BC0A0020CA0A0020D00A0020C40A0020F4
:101E2C00C60A002000000020DFF834D0002103E0B7
:101E3C000C4B5B58435004310B480C4B42189A42E4
:101E4C00F6D30B4A02E0002342F8043B094B9A42BA
:101E5C00F9D300F041F800F0FDFDFFF793FE704759
:101E6C0000000320F82E0008000000207C00002059
:101E7C007C000020940B0020FEE780B400AF00BF74
:101E8C00BD465DF8047B704780B400AFFEE780B4BC
:101E9C0000AFFEE780B400AFFEE780B400AFFEE712
:101EAC0080B400AF00BFBD465DF8047B704780B4C2
:101EBC0000AF00BFBD465DF8047B704780B400AF37
:101ECC0000BFBD465DF8047B704780B400AF00BF17
:101EDC00BD465DF8047B704780B500AF164A164BC3
:101EEC00D3F8883043F47003C2F88830134A134B8C
:101EFC001B6843F001031360104B00229A600F4AD9
:101F0C000E4B1B6823F0847323F4803313600B4B4C
:101F1C000B4A5A60094A094B1B6823F4802313604F
:101F2C00064B0022DA6000F089F8034B4FF0006298
:101F3C009A6000BF80BD00BF00ED00E00038024099
:101F4C001030002480B487B000AF00233B61002325
:101F5C007B610223FB600023BB6002237B60324B5E
:101F6C009B6803F00C033B613B69042B07D0082BE7
:101F7C0009D0002B3DD12D4B2D4A1A603DE02B4B47
:101F8C002C4A1A6039E0284B5B689B0D03F0010367
:101F9C00BB60254B5B6803F03F037B60BB68002B89
:101FAC000CD0244A7B68B2FBF3F31F4A52689209A7
:101FBC00C2F3080202FB03F37B610BE01C4A7B6853
:101FCC00B2FBF3F3184A52689209C2F3080202FBFF
:101FDC0003F37B61144B5B681B0C03F003030133AD
:101FEC005B00FB607A69FB68B2FBF3F30F4A13608A
:101FFC0003E00E4B0E4A1A6000BF0B4B9B681B098B
:10200C0003F00F030C4AD35CDBB23B61074B1A683D
:10201C003B6922FA03F3054A136000BF1C37BD4627
:10202C005DF8047B704700BF0038024004000020BC
:10203C000024F40000127A000800002080B483B061
:10204C0000AF00237B6000233B60364A354B1B6896
:10205C0043F480331360334B1B6803F400333B6051
:10206C007B6801337B603B68002B03D17B68B3F545
:10207C00A06FF0D12B4B1B6803F40033002B02D064
:10208C0001233B6001E000233B603B68012B02D144
:10209C00244B254A5A60234A224B1B6C43F0805335
:1020AC001364224A214B1B6843F4404313601D4ABE
:1020BC001C4B9B6893601B4A1A4B9B6843F4004370
:1020CC009360184A174B9B6843F4A0539360154ACE
:1020DC00144B1B6843F08073136000BF114B1B68DB
:1020EC0003F00073002BF9D0114B40F205721A600B
:1020FC000C4A0C4B9B6823F003039360094A094B71
:10210C009B6843F00203936000BF064B9B6803F08F
:10211C000C03082BF9D100BF0C37BD465DF8047BCE
:10212C00704700BF00380240085A4007007000405A
:10213C00003C024080B483B000AF0346FB71194BE6
:10214C001B899BB203F00303002B06D0154B1B8994
:10215C009BB203F08003002B01D0012300E000238D
:10216C00002B00D0EBE70F4BFA7992B29A810D4B12
:10217C001B899BB203F00303002B06D0094B1B8970
:10218C009BB203F08003002B01D0012300E000235D
:10219C00002B00D0EBE700BF0C37BD465DF8047B8D
:1021AC00704700BF0050014080B582B000AF0346BD
:1021BC00FB714FF400510948FEF721F8042108483F
:1021CC00FEF71DF8FB791846FFF7B4FF042104480D
:1021DC00FEF706F800BF0837BD4680BD000C024074
:1021EC000008024080B582B000AF0346FB714FF48B
:1021FC0000510948FDF7F4FF04210848FDF7FFFFE3
:10220C00FB791846FFF796FF04210448FDF7E8FF19
:10221C0000BF0837BD4680BD000C024000080240DC
:10222C0080B483B000AF03460A46FB801346BB80E4
:10223C00264B5B68002B14BF01230023DBB2002B61
:10224C0001D000233CE0224AFB881380214B4FF441
:10225C007412DA601D4A1D4B1B6843F060631360F7
:10226C001A4A1A4B1B6843F400531360174A174B56
:10227C001B6843F400631360144A144B1B6843F04F
:10228C0040031360114A114B1B6823F480631360E5
:10229C000E4ABB8853600D4B0F4A9A600B4B0C4A8D
:1022AC00DA600A4A094B1B6843F0010313600B4ABE
:1022BC000A4B9B889BB243F002039BB29380012391
:1022CC0018460C37BD465DF8047B7047A06402408D
:1022DC00DE0A0020006402400C5001400050014016
:1022EC0080B483B000AF0346FB71154A144B1B88B6
:1022FC009BB223F040039BB21380FB79012B08D1D6
:10230C000F4A0F4B1B889BB243F400639BB21380A4
:10231C0007E00B4A0A4B1B889BB223F400639BB269
:10232C001380074A064B1B889BB243F040039BB2B9
:10233C00138000BF0C37BD465DF8047B704700BFAF
:10234C000050014080B400AF0E4B5B68002B11D1E4
:10235C000D4B5B68002B0DD10C4B1B899BB203F012
:10236C000303002B06D0094B1B899BB203F080039F
:10237C00002B01D0012300E000231846BD465DF878
:10238C00047B704788640240A06402400050014006
:10239C0080B582B000AF03463A60FB800B46BB8031
:1023AC00BB88FA88B988F88800F012F82C20FFF75F
:1023BC00FBFE3B681B0ADBB21846FFF713FF3B68BA
:1023CC00DBB21846FFF70EFF00BF0837BD4680BDD5
:1023DC0090B583B000AF0446084611461A46234612
:1023EC00FB800346BB800B467B8013463B802A2038
:1023FC00FFF7DAFEFB881B12DBB21846FFF7F2FE82
:10240C00FB88DBB21846FFF7EDFE7B881B12DBB2B4
:10241C001846FFF7E7FE7B88DBB21846FFF7E2FEB3
:10242C002B20FFF7C1FEBB881B12DBB21846FFF74F
:10243C00D9FEBB88DBB21846FFF7D4FE3B881B12D3
:10244C00DBB21846FFF7CEFE3B88DBB21846FFF72F
:10245C00C9FE00BF0C37BD4690BD000080B584B0EE
:10246C0002AF7860084B1B88013B9AB2064B598827
:10247C007B689BB200930B460021002000F006F80D
:10248C0000BF0837BD4680BDD80A002090B585B086
:10249C0000AF0446084611461A462346FB80034605
:1024AC00BB800B467B8013463B803B887A88B9887F
:1024BC00F888FFF78DFF2C20FFF776FE7A88FB88D3
:1024CC00D31A01333988BA888A1A013202FB03F312
:1024DC00FB6004212248FDF792FE4FF40051214885
:1024EC00FDF77EFE0120FFF7FBFEFB684FF6FF7247
:1024FC00934228BF13469AB23B8C11461846FFF7FD
:10250C008FFEFFF71FFF0346002B14BF0123002390
:10251C00DBB2002B00D0F4E7FB68B3F5803F13D39C
:10252C00FB689BB201339AB23B8C11461846FFF7FD
:10253C0077FEFFF707FF0346002B14BF0123002390
:10254C00DBB2002B00D0F4E704210548FDF748FE70
:10255C000020FFF7C5FE00BF1437BD4690BD00BF7D
:10256C0000080240000C024080B582B000AF034668
:10257C00FB713620FFF718FEFB79002B03D1582096
:10258C00FFF730FE13E0FB79012B03D18820FFF716
:10259C0029FE0CE0FB79022B03D12820FFF722FE49
:1025AC0005E0FB79032B02D1E820FFF71BFEFB793A
:1025BC00002B02D0FB79012B0AD10C4BF0221A8094
:1025CC000A4B4FF4A0725A80084B01221A7109E091
:1025DC00064B4FF4A0721A80044BF0225A80034B26
:1025EC0000221A7100BF0837BD4680BDD80A0020F2
:1025FC0090B589B002AF0446084611461A462346E8
:10260C00FB800346BB800B467B8013463B80FB88DC
:10261C00574A1288934203DB554B1B88013BFB80C6
:10262C007B88534A1288934203DB514B1B88013B36
:10263C007B80BB884E4A5288934203DB4C4B5B88B1
:10264C00013BBB803B884A4A5288934203DB484B90
:10265C005B88013B3B80FA887B889A4205DDFB88CE
:10266C00BB827B88FB80BB8A7B80BA883B889A4282
:10267C0005DDBB88BB823B88BB80BB8A3B807A88EC
:10268C00FB88D31A9BB27B823A88BB88D31A9BB245
:10269C003B82B7F91230002B03D0B7F91030002B66
:1026AC000AD1BB6A9BB23C887A88B988F8880093B7
:1026BC002346FFF7EBFE57E0FA887B889A4201DA53
:1026CC00012301E04FF0FF33FB81BA883B889A422B
:1026DC0001DA012301E04FF0FF33BB81B7F912207F
:1026EC00B7F910309A4206DDB7F91230DA0F1344FD
:1026FC005B101BB206E0B7F910305B42DA0F1344E3
:10270C005B101BB2FB82B988FB88BA6A1846FFF7CC
:10271C003FFEFA887B889A4203D1BA883B889A425A
:10272C0021D0FB8A7B81B7F90A20B7F912305B42C2
:10273C009A4208DDFA8A3B8AD31A9BB2FB82FA8949
:10274C00FB881344FB80B7F90A20B7F910309A4282
:10275C00D9DAFA8A7B8A13449BB2FB82BA89BB888A
:10276C001344BB80CFE700BF1C37BD4690BD00BFF4
:10277C00D80A002000F09AB910B5002814BF0446FE
:10278C000124204600F08AF930B900F007F808B9A6
:10279C0000F058F98047F4E710BD0000024B1868B0
:1027AC00BFF35B8F704700BFE00A002008B500F054
:1027BC0049F90000244B1A68D0075CBF01221A604B
:1027CC00224B1A68D1075CBF01221A60204B1A6891
:1027DC00D2075CBF01221A601E4B1A68D0075CBF7F
:1027EC0001221A601C4B1A68D1075CBF01221A60C7
:1027FC001A4B1A68D2075CBF01221A60184B1A6870
:10280C00D0075CBF01221A60164B1A68D1075CBF57
:10281C0001221A60144B1A68D2075CBF01221A609D
:10282C00124B1A68D0075CBF01221A60104B1A6851
:10283C00D1075CBF01221A600E4B1A68D2075CBF2D
:10284C0001221A60704700BF100B00200C0B0020F7
:10285C00080B0020040B0020000B0020FC0A0020B9
:10286C00F80A0020F40A0020F00A0020EC0A0020EC
:10287C00E80A0020E40A0020184B1A68D1075CBF54
:10288C0001221A60164B1A68D2075CBF01221A602B
:10289C00144B1A68D0075CBF01221A60124B1A68DD
:1028AC00D1075CBF01221A60104B1A68D2075CBFBB
:1028BC0001221A600E4B1A68D0075CBF01221A6005
:1028CC000C4B1A68D1075CBF01221A600A4B1A68BC
:1028DC00D2075CBF01221A60704700BF300B00208A
:1028EC002C0B0020280B0020240B0020200B002098
:1028FC001C0B0020180B0020140B0020244B1A6812
:10290C00D0075CBF01221A60224B1A68D1075CBF4A
:10291C0001221A60204B1A68D2075CBF01221A6090
:10292C001E4B1A68D0075CBF01221A601C4B1A6838
:10293C00D1075CBF01221A601A4B1A68D2075CBF20
:10294C0001221A60184B1A68D0075CBF01221A606A
:10295C00164B1A68D1075CBF01221A60144B1A6817
:10296C00D2075CBF01221A60124B1A68D0075CBFF9
:10297C0001221A60104B1A68D1075CBF01221A6041
:10298C000E4B1A68D2075CBF01221A60704700BF59
:10299C00600B00205C0B0020580B0020540B002017
:1029AC00500B00204C0B0020480B0020440B002047
:1029BC00400B00203C0B0020380B0020340B002077
:1029CC00184B1A68D1075CBF01221A60164B1A68A3
:1029DC00D2075CBF01221A60144B1A68D0075CBF87
:1029EC0001221A60124B1A68D1075CBF01221A60CF
:1029FC00104B1A68D2075CBF01221A600E4B1A6882
:102A0C00D0075CBF01221A600C4B1A68D1075CBF5F
:102A1C0001221A600A4B1A68D2075CBF01221A60A5
:102A2C00704700BF800B00207C0B0020780B00202F
:102A3C00740B0020700B00206C0B0020680B002026
:102A4C00640B002008B5062000F036F9012000F0D8
:102A5C006FF9000070B50D4E0D4CA41BA410002591
:102A6C00A54209D10B4E0C4C00F064F9A41BA41028
:102A7C000025A54205D170BD56F825309847013583
:102A8C00EEE756F8253098470135F2E7E02E0008BE
:102A9C00E02E0008E02E0008F42E0008024B014640
:102AAC00186800F073B800BF18000020024B0146F4
:102ABC00186800F01DB800BF18000020884210B53F
:102ACC0001EB020303D8421E99420CD110BD98426F
:102ADC00F9D28118D21AD34200D110BD13F8014D8E
:102AEC0001F8014DF7E711F8014B02F8014FEBE744
:102AFC0038B50546002945D051F8043C0C1F002B75
:102B0C00B8BFE41800F0F4F81F4A1368104633B944
:102B1C00636014602846BDE8384000F0EAB8A34270
:102B2C000CD921686218934204BF1A685B68636011
:102B3C0004BF521822600460ECE713465A680AB1CD
:102B4C00A242FAD919685818A0420BD12068014446
:102B5C00581882421960DDD1106852685A600144DD
:102B6C001960D7E702D90C232B60D3E72068211812
:102B7C008A4204BF11685268626004BF0918216060
:102B8C005C60C7E738BD00BF840B002070B5CD1C5E
:102B9C0025F0030508350C2D38BF0C25002D0646F5
:102BAC0001DBA94203D90C233360002070BD00F077
:102BBC009FF8234A1468214691B9224C23681BB90B
:102BCC00304600F041F820602946304600F03CF8D1
:102BDC00431C26D10C233360304600F08AF8E4E71E
:102BEC000B685B1B1AD40B2B0FD90B60CD50CC1878
:102BFC00304600F07EF804F10B00231D20F0070096
:102C0C00C31A1BD05A42E25070BD8C420DBF636890
:102C1C004B686360136018BF0C46E9E70C464968C3
:102C2C00CAE7C41C24F00304A04205D0211A304684
:102C3C0000F00AF80130CDD02560D9E770BD00BF97
:102C4C00840B0020880B002038B5064C0023054669
:102C5C000846236000F05EF8431C02D1236803B1E0
:102C6C002B6038BD900B00201F2938B504460D464B
:102C7C0004D9162303604FF0FF3038BD426C12B1FB
:102C8C0052F821304BB9204600F030F82A46014664
:102C9C002046BDE8384000F017B8012B0AD0591C6B
:102CAC0003D116230360012038BD002442F82540CF
:102CBC0028469847002038BD024B01461868FFF79C
:102CCC00D3BF00BF1800002038B5074C00230546C1
:102CDC0008461146236000F015F8431C02D1236806
:102CEC0003B12B6038BD00BF900B002000F002B880
:102CFC0070477047024B58221A604FF0FF307047F4
:102D0C00900B0020024B58221A604FF0FF30704796
:102D1C00900B0020044B1968024609B9034919604D
:102D2C00186802441A6070478C0B0020940B00202A
:102D3C00FEE70000F8B500BFF8BC08BC9E46704723
:0C2D4C00F8B500BFF8BC08BC9E467047FC
:102D5800042E0008060000000C2E000804000000E5
:102D6800102E000804000000142E000803000000C4
:102D7800182E000805000000202E000802000000A0
:102D8800242E000802000000282E0008020000007F
:102D98002C2E000803000000302E0008020000005E
:102DA800342E000802000000382E0008020000003F
:102DB8003C2E000802000000402E0008030000001E
:102DC800442E000804000000482E000802000000FD
:102DD8004C2E000805000000542E000805000000D5
:102DE8005C2E000802000000602E000810000000A1
:102DF800702E00081000000000061016CB392C00B9
:102E080034020000CF00C130E8850078EA000000F5
:102E1800ED64031281000000F7200000C0230000C9
:102E2800C1100000C53E2800C786000036480000D3
:102E38003A5500003A550000B1001800B60882273C
:102E4800F20000002A000000EF0000002B00000143
:102E58003F00000026010000E00F312B0C0E084E49
:102E6800F1370710030E0900E1000E1403110731B2
:102E7800C148080F0C31360F0000000000000000A8
:102E8800000000000000000000000000000000003A
:102E9800000000000000000000000000000000002A
:102EA800000000000000000000000000000000001A
:102EB800000000000000000000000000000000000A
:102EC80000000000000000000000000000000000FA
:082ED8000000000000000000F2
:102EE000D1010008C1270008852800080929000829
:042EF000CD290008E0
:042EF400AD01000824
:102EF8000A007D000095BA0A0000000000000000EA
:102F080001020304060708091C0000200000000055
:102F1800A02E0008C02E0008802E00080000000027
:102F28000000000000000000000000000000000099
:102F38000000000000000000000000000000000089
:102F48000000000000000000000000000000000079
:102F58000000000000000000000000000000000069
:0C2F68000000000000000000000000005D
:0400000508001E359C
:00000001FF
