:020000040800F2
:100000000000032081700008D5700008D970000836
:10001000DD700008E1700008E570000800000000D5
:10002000000000000000000000000000E97000086F
:10003000ED70000800000000F1700008F570000885
:10004000D1700008D1700008D1700008D17000088C
:10005000D1700008D1700008D1700008D17000087C
:10006000D1700008D1700008D1700008D17000086C
:10007000D1700008D1700008D1700008D17000085C
:10008000D1700008D1700008D1700008D17000084C
:10009000D1700008D1700008D17000083D4B0008F5
:1000A000D1700008D1700008D1700008D17000082C
:1000B000D17000087D460008F54B0008D17000089B
:1000C000D1700008D1700008D1700008D17000080C
:1000D000D1700008D1700008D1700008D1700008FC
:1000E000A54B0008D1700008D1700008D17000083D
:1000F000D1700008D1700008D1700008D1700008DC
:10010000D1700008D1700008D1700008D1700008CB
:10011000154C0008D1700008D1700008D17000089B
:10012000D1700008D1700008D1700008D1700008AB
:10013000D1700008D1700008D1700008D17000089B
:10014000D1700008D1700008D1700008D17000088B
:10015000D1700008D1700008D1700008D17000087B
:10016000D1700008D1700008D1700008D17000086B
:10017000D1700008D1700008D1700008D17000085B
:10018000D1700008D1700008D1700008D17000084B
:10019000D1700008D1700008D1700008D17000083B
:0C01A000D1700008D1700008D170000878
:1001B00010B5054C237833B9044B13B10448AFF3A1
:1001C00000800123237010BDD00200200000000039
:1001D0007093020808B5034B1BB103490348AFF302
:1001E000008008BD00000000D402002070930208C7
:1001F00001F0FF01102A2BDB10F0070F08D010F8D8
:10020000013B013A8B422DD010F0070F42B3F6D1DB
:10021000F0B441EA012141EA014122F007047FF0F4
:1002200000070023F0E80256083C85EA010586EA4B
:10023000010685FA47F5A3FA87F586FA47F6A5FA87
:1002400087F68EB9EED1F0BC01F0FF0102F0070293
:1002500032B110F8013B013A83EA010313B1F8D13E
:100260000020704701387047002D06BF354603381F
:10027000073815F0010F07D1013015F4807F02BF58
:10028000013015F4C03F0130F0BC0138704700BFA9
:1002900010F8012B11F8013B012A28BF9A42F7D030
:1002A000D01A7047034613F8012B002AFBD1181A05
:1002B0000138704781F0004102E000BF83F0004345
:1002C00030B54FEA41044FEA430594EA050F08BFF1
:1002D00090EA020F1FBF54EA000C55EA020C7FEAB5
:1002E000645C7FEA655C00F0E2804FEA5454D4EB32
:1002F0005555B8BF6D420CDD2C4480EA020281EAFC
:10030000030382EA000083EA010180EA020281EA33
:100310000303362D88BF30BD11F0004F4FEA013185
:100320004FF4801C4CEA113102D0404261EB410194
:1003300013F0004F4FEA03334CEA133302D052421A
:1003400063EB430394EA050F00F0A780A4F10104D6
:10035000D5F1200E0DDB02FA0EFC22FA05F2801810
:1003600041F1000103FA0EF2801843FA05F35941F6
:100370000EE0A5F120050EF1200E012A03FA0EFC75
:1003800028BF4CF0020C43FA05F3C01851EBE3719F
:1003900001F0004507D54FF0000EDCF1000C7EEBBC
:1003A00000006EEB0101B1F5801F1BD3B1F5001FFA
:1003B0000CD349085FEA30004FEA3C0C04F1010419
:1003C0004FEA445212F5800F80F09A80BCF1004F42
:1003D00008BF5FEA500C50F1000041EB045141EAC4
:1003E000050130BD5FEA4C0C404141EB010111F4C5
:1003F000801FA4F10104E9D191F0000F04BF014670
:100400000020B1FA81F308BF2033A3F10B03B3F14D
:1004100020020CDA0C3208DD02F1140CC2F10C02DD
:1004200001FA0CF021FA02F10CE002F11402D8BF3B
:10043000C2F1200C01FA02F120FA0CFCDCBF41EA07
:100440000C019040E41AA2BF01EB0451294330BDD6
:100450006FEA04041F3C1CDA0C340EDC04F11404B3
:10046000C4F1200220FA04F001FA02F340EA03008A
:1004700021FA04F345EA030130BDC4F10C04C4F1D0
:10048000200220FA02F001FA04F340EA03002946B0
:1004900030BD21FA04F0294630BD94F0000F83F4FA
:1004A000801306BF81F480110134013D4EE77FEADD
:1004B000645C18BF7FEA655C29D094EA050F08BF29
:1004C00090EA020F05D054EA000C04BF194610460A
:1004D00030BD91EA030F1EBF0021002030BD5FEA4E
:1004E000545C05D14000494128BF41F0004130BD76
:1004F00014F580043CBF01F5801130BD01F00045CA
:1005000045F0FE4141F470014FF0000030BD7FEA3C
:10051000645C1ABF194610467FEA655C1CBF0B4637
:10052000024650EA013406BF52EA033591EA030F4E
:1005300041F4002130BD00BF90F0000F04BF002146
:10054000704730B54FF4806404F132044FF0000579
:100550004FF0000150E700BF90F0000F04BF0021F2
:10056000704730B54FF4806404F1320410F0004558
:1005700048BF40424FF000013EE700BF42004FEA53
:10058000E2014FEA31014FEA02701FBF12F07F43D0
:1005900093F07F4F81F06051704792F0000F14BFCD
:1005A00093F07F4F704730B54FF4607401F0004511
:1005B00021F0004120E700BF50EA010208BF704768
:1005C00030B54FF000050AE050EA010208BF70475D
:1005D00030B511F0004502D5404261EB41014FF4C6
:1005E000806404F132045FEA915C3FF4DCAE4FF0CA
:1005F00003025FEADC0C18BF03325FEADC0C18BFB1
:10060000033202EBDC02C2F1200300FA03FC20FA01
:1006100002F001FA03FE40EA0E0021FA02F114444E
:10062000C1E600BF70B54FF0FF0C4CF4E06C1CEA63
:1006300011541DBF1CEA135594EA0C0F95EA0C0FD8
:1006400000F0DEF82C4481EA030621EA4C5123EA4B
:100650004C5350EA013518BF52EA033541F480117A
:1006600043F4801338D0A0FB02CE4FF00005E1FB2D
:1006700002E506F00042E0FB03E54FF00006E1FB77
:1006800003569CF0000F18BF4EF0010EA4F1FF04BA
:10069000B6F5007F64F5407404D25FEA4E0E6D41FA
:1006A00046EB060642EAC62141EA55514FEAC5200B
:1006B00040EA5E504FEACE2EB4F1FD0C88BFBCF587
:1006C000E06F1ED8BEF1004F08BF5FEA500E50F138
:1006D000000041EB045170BD06F0004646EA0101FE
:1006E00040EA020081EA0301B4EB5C04C2BFD4EB30
:1006F0000C0541EA045170BD41F480114FF0000E29
:10070000013C00F3AB8014F1360FDEBF002001F096
:10071000004170BDC4F10004203C35DA0C341BDC10
:1007200004F11404C4F1200500FA05F320FA04F0E2
:1007300001FA05F240EA020001F0004221F0004116
:1007400010EBD37021FA04F642EB06015EEA430E89
:1007500008BF20EAD37070BDC4F10C04C4F12005B9
:1007600000FA04F320FA05F001FA04F240EA02006C
:1007700001F0004110EBD37041F100015EEA430E3D
:1007800008BF20EAD37070BDC4F1200500FA05F25D
:100790004EEA020E20FA04F301FA05F243EA0203DC
:1007A00021FA04F001F0004121FA04F220EA0200EB
:1007B00000EBD3705EEA430E08BF20EAD37070BD31
:1007C00094F0000F0FD101F00046400041EB010111
:1007D00011F4801F08BF013CF7D041EA060195F0F3
:1007E000000F18BF704703F00046520043EB0303AD
:1007F00013F4801F08BF013DF7D043EA060370479A
:1008000094EA0C0F0CEA135518BF95EA0C0F0CD0A4
:1008100050EA410618BF52EA4306D1D181EA0301EA
:1008200001F000414FF0000070BD50EA410606BFE4
:100830001046194652EA430619D094EA0C0F02D129
:1008400050EA013613D195EA0C0F05D152EA03366E
:100850001CBF104619460AD181EA030101F000418C
:1008600041F0FE4141F470014FF0000070BD41F0D5
:10087000FE4141F4780170BD70B54FF0FF0C4CF4AF
:10088000E06C1CEA11541DBF1CEA135594EA0C0FCE
:1008900095EA0C0F00F0A7F8A4EB050481EA030E1B
:1008A00052EA03354FEA013100F088804FEA033302
:1008B0004FF0805545EA131343EA12634FEA0222D0
:1008C00045EA111545EA10654FEA00260EF0004191
:1008D0009D4208BF964244F1FD0404F5407402D2E3
:1008E0005B084FEA3202B61A65EB03055B084FEA74
:1008F00032024FF480104FF4002CB6EB020E75EB71
:10090000030E22BFB61A754640EA0C005B084FEA98
:100910003202B6EB020E75EB030E22BFB61A754615
:1009200040EA5C005B084FEA3202B6EB020E75EB60
:10093000030E22BFB61A754640EA9C005B084FEAD8
:100940003202B6EB020E75EB030E22BFB61A7546E5
:1009500040EADC0055EA060E18D04FEA051545EAD4
:1009600016754FEA06164FEAC30343EA52734FEA7D
:10097000C2025FEA1C1CC0D111F4801F0BD141EAF6
:1009800000014FF000004FF0004CB6E711F4801F5B
:1009900004BF01430020B4F1FD0C88BFBCF5E06F3B
:1009A0003FF6AFAEB5EB030C04BFB6EB020C5FEA4B
:1009B000500C50F1000041EB045170BD0EF0004EA0
:1009C0004EEA113114EB5C04C2BFD4EB0C0541EAD2
:1009D000045170BD41F480114FF0000E013C90E6CF
:1009E00045EA060E8DE60CEA135594EA0C0F08BF93
:1009F00095EA0C0F3FF43BAF94EA0C0F0AD150EA92
:100A000001347FF434AF95EA0C0F7FF425AF104624
:100A100019462CE795EA0C0F06D152EA03353FF44C
:100A2000FDAE1046194622E750EA410618BF52EAC9
:100A300043067FF4C5AE50EA41047FF40DAF52EA9D
:100A400043057FF4EBAE12E74FF0FF3C06E000BF3A
:100A50004FF0010C02E000BF4FF0010C4DF804CD47
:100A60004FEA410C7FEA6C5C4FEA430C18BF7FEA07
:100A70006C5C1BD001B050EA410C0CBF52EA430C35
:100A800091EA030F02BF90EA020F0020704710F1B5
:100A9000000F91EA030F58BF994208BF90422CBF44
:100AA000D8176FEAE37040F0010070474FEA410C3D
:100AB0007FEA6C5C02D150EA013C07D14FEA430C5B
:100AC0007FEA6C5CD6D152EA033CD3D05DF8040BCC
:100AD000704700BF8446104662468C4619466346FE
:100AE00000E000BF01B5FFF7B7FF002848BF10F1D5
:100AF000000F01BD4DF808EDFFF7F4FF0CBF01201A
:100B000000205DF808FB00BF4DF808EDFFF7EAFF95
:100B100034BF012000205DF808FB00BF4DF808ED50
:100B2000FFF7E0FF94BF012000205DF808FB00BF45
:100B30004DF808EDFFF7CEFF94BF012000205DF8CF
:100B400008FB00BF4DF808EDFFF7C4FF34BF0120DC
:100B500000205DF808FB00BF4FEA410C7FEA6C5CA7
:100B600002D150EA013C0AD14FEA430C7FEA6C5CA7
:100B700002D152EA033C02D14FF0000070474FF01F
:100B8000010070474FEA410212F5001215D211D54B
:100B90006FF47873B3EB625212D94FEAC12343F07A
:100BA000004343EA505311F0004F23FA02F018BFFC
:100BB000404270474FF00000704750EA013005D1C5
:100BC00011F0004008BF6FF0004070474FF0000088
:100BD000704700BF4A0011D212F5001211D20DD594
:100BE0006FF47873B3EB62520ED44FEAC12343F033
:100BF000004343EA505323FA02F070474FF00000DD
:100C0000704750EA013002D14FF0FF3070474FF08B
:100C1000000070474FEA4102B2F1E04324BFB3F550
:100C2000001CDCF1FE5C0DD901F0004C4FEAC00263
:100C30004CEA5070B2F1004F40EB830008BF20F047
:100C40000100704711F0804F21D113F13872BCBF01
:100C500001F00040704741F480114FEA5252C2F156
:100C60001802C2F1200C10FA0CF320FA02F018BF9F
:100C700040F001004FEAC1234FEAD32303FA0CFCF2
:100C800040EA0C0023FA02F34FEA4303CCE77FEA81
:100C9000625307D150EA01331EBF4FF0FE4040F4CB
:100CA0004000704701F0004040F0FE4040F400007A
:100CB000704700BF53B94AB9002908BF00281CBFBC
:100CC0004FF0FF314FF0FF3000F07AB9ADF1080C72
:100CD0006DE904CE00F006F8DDF804E0DDE902235A
:100CE00004B070472DE9F0478C460D460446089E37
:100CF000002B51D18A4217466DD9B2FA82FEBEF15D
:100D0000000F0BD0CEF1200C01FA0EF520FA0CFCEE
:100D100002FA0EF74CEA050C00FA0EF44FEA174AF5
:100D2000250CBCFBFAF81FFA87F90AFB18CC45EA38
:100D30000C4508FB09F3AB420AD9ED1908F1FF3263
:100D400080F02381AB4240F22081A8F102083D44AB
:100D5000ED1AA4B2B5FBFAF00AFB105544EA0544BB
:100D600000FB09F9A14509D9E41900F1FF3380F02E
:100D70000A81A14540F2078102383C44A4EB0904F2
:100D800040EA08400021002E61D024FA0EF400232E
:100D900034607360BDE8F0878B4207D9002E54D0D1
:100DA000002186E821000846BDE8F087B3FA83F108
:100DB000002940F08E80AB4202D3824200F2FA80DA
:100DC000841A65EB03050120AC46002E3FD086E86F
:100DD0001010BDE8F08712B90127B7FBF2F7B7FA98
:100DE00087FEBEF1000F34D1EB1B3A0C1FFA87FCD3
:100DF0000121B3FBF2F8250C02FB183345EA034549
:100E00000CFB08F3AB4207D9ED1908F1FF3002D211
:100E1000AB4200F2D1808046ED1AA3B2B5FBF2F0EE
:100E200002FB105543EA05440CFB00FCA44507D91E
:100E3000E41900F1FF3302D2A44500F2B88018464D
:100E4000A4EB0C0440EA08409DE731463046BDE87B
:100E5000F087CEF1200405FA0EF307FA0EF720FA18
:100E600004F83A0C25FA04F448EA0308B4FBF2F15A
:100E70004FEA184502FB11441FFA87FC45EA044576
:100E800001FB0CF3AB4200FA0EF409D9ED1901F1A4
:100E9000FF3080F08A80AB4240F2878002393D44C7
:100EA000EB1A1FFA88F5B3FBF2F002FB103345EAA8
:100EB000034500FB0CF3AB4207D9ED1900F1FF38F5
:100EC0006FD2AB426DD902383D44EB1A40EA014182
:100ED0008FE7C1F1200722FA07F88B4005FA01F4E9
:100EE00048EA030320FA07FE4FEA134CFD404EEA9E
:100EF000040EB5FBFCF94FEA1E440CFB19551FFA12
:100F000083F844EA054509FB08F4AC4202FA01F211
:100F100000FA01FA08D9ED1809F1FF3043D2AC42CA
:100F200041D9A9F102091D442D1B1FFA8EFEB5FB04
:100F3000FCF00CFB10554EEA054400FB08F8A045F8
:100F400007D9E41800F1FF3529D2A04527D9023886
:100F50001C4440EA0940A4EB0804A0FB02894C456C
:100F6000C6464D4615D312D056B1BAEB0E0364EB0C
:100F7000050404FA07F7CB401F43CC403760746088
:100F80000021BDE8F0871846F8E69046E0E6C24545
:100F9000EAD2B8EB020E69EB03050138E4E7284614
:100FA000D7E7404691E78146BEE7014678E7023839
:100FB0003C4445E7084608E7A8F102083D442BE712
:100FC000704700BF000000003F4A2DE9F041804615
:100FD00003CA08F5005542F202044FF480672F80DF
:100FE000168842F20E05012208F80420002408F8B1
:100FF000054042F20F0242F2100508F8024044F2A6
:101000003A0308F8054008F5804244F21C052432F2
:1010100048F8030048F8052008EB030044F22405D3
:1010200044F2200344F2340248F8034008F8054033
:1010300044F2380345F6442548F8024028F80340B6
:101040000681416008F8054008F50055002200239C
:101050001BA7D7E9006714350BE0FFF78FFA32467C
:101060003B46FFF7DFFA41EC100B1FF055FF53EC46
:10107000102B013410461946FFF7CCFD07EE904ABD
:10108000F8EEE77AB4F5806F77EEA77A45F8040BAF
:1010900017EE900AE1D108F5804208F5B4404432D9
:1010A00044304FF05031134602F5807243F8041B70
:1010B0009342FBD18342F6D14046BDE8F08100BFA8
:1010C000182D4454FB21693F889302082DE9F04F05
:1010D0002DED048B8BB0002300F5B44505939E469F
:1010E00098469FEDC79ADFEDC78A6FF002038346EB
:1010F000443504930126B7EE008A0F46F31C9E4543
:10110000F2464BDCBEF1FF0F48DC069644F2440485
:101110005E469946C346F04606E0CA453BDCBAF156
:10112000FF0F38DC1FFA81F807EB880393ED000A04
:101130000AF6044306EB8303D3ED010A07F051FCE2
:10114000F0EE487AE0EE497A08F101010BF1010E68
:1011500067EEA87AFCEEE77ACDED037ABDF80C30A5
:101160001D2BD8B205D81FFA8EFBBBF1C80F00F2B9
:10117000F2802B7806EB032303EB0A0EB8F1010F84
:101180001FFA81FA0EF80400D646C6D14FF0020AC3
:1011900051461855C6E7D846B346069E049C06F14C
:1011A000040900224C4521B22346104625DC4FF0AD
:1011B000010A1FFA81FC0CF10101BCF1FF0FA6EB43
:1011C000030409B216D895F800C0002C0BEB0C2CC8
:1011D0009C44B8BF644244F24403C4F104040AFAD4
:1011E00004F41CF803C0A3B21CFB03F42044134412
:1011F0009AB280B249450B46DBDD059CB0FBF2F2AA
:1012000023460AA9013301EB440103F0030398B21A
:10121000032E059021F8082C0CDD2A780AA901EB91
:101220004303049933F8083C0BEB02220A4444F2CE
:1012300044015354049B01360133B6F5807F049377
:101240007FF45CAF704B714A1B7810785B4442F2BC
:101250000E0100245C54002800F0FB8045F6442079
:101260006B4A1BF800300492013382FB0314D91738
:10127000C1EBE4011A2404FB1131C9B200230BF8BD
:101280000010059399464FF0010A1A46614880FB09
:1012900002031046D217C2EB631303F00107069353
:1012A00003EB8303A0EB03139BB207F580570437CE
:1012B0004FF0000C03931FFA8AF307930BEB870799
:1012C0006446A0F102084FF0030ED723F24554DD27
:1012D0000EF1FF02924550DC049A614482FB01202A
:1012E000CA17C2EBE0021A2000FB12120BEB02221B
:1012F000424444F2440144F24305C4EB8430C4EB5D
:101300008000515C525D763080B20144104409B2D5
:1013100000B293B3039DC4EB8426B60103EB8302B2
:1013200005EB021206F5FC66B6B292B2254608E05D
:1013300098420DDA24F81290013B503A9BB292B2D7
:10134000D3B18B4201DA984216DC8B427C68EFDC29
:1013500024F81260F0E7304A2B49138801339BB21E
:1013600013800B7842F20E023344002199540BB0E3
:10137000BDEC048BBDE8F08F2C460134A4B21A2CCE
:101380000CF1010C0EF1020EA8F1020804D045F692
:1013900044221BF8021099E7BBB1069A02F0010241
:1013A00002F5805204320BEB820103EB83024868A2
:1013B000039901EB021292B2013BA2F150019BB2E0
:1013C00020F812908AB2002BF6D10799134B0A46E7
:1013D000A3FB02239B0903EB8303A1EB031292B24D
:1013E000F2B1059B0133B3F5A07F05930AF1010A21
:1013F000BDD045F64423059A1BF8031046E700BF0D
:10140000000080370000A042380D00201C0D002095
:101410004FECC44E67666666FE020020CDCCCCCC95
:10142000069B174CBDF814101648646803F00103BE
:1014300003F5805304330BEB83035B680193046073
:101440000B46D7204F39009089B20F4801F05CFF5E
:10145000C7E71BF801306BB142F20F031BF8031012
:1014600000297FF4FBAE0948012301801370084A6C
:101470001370F3E60548012103801170F7E700BF00
:10148000A0640240340D00209C670020140D002051
:10149000080D00202DE9F04F2DED048B42F20402DF
:1014A000B9B0834683181C46139344F234000023DA
:1014B0004BF802300BF54052636023819A464BF89B
:1014C00000300F939846994602F118030B930B4690
:1014D00004330D93012308939FED529ADFED528A56
:1014E0009FED528A16914FF0FF330E93CDF818B04E
:1014F0000D9B93ED000A0B9BF3EC010A0B9307F095
:1015000070FA089A93B211930E9B032B05DCB4EE8C
:10151000C90AF1EE10FA00F3BE8100231F260F93D3
:10152000F7EE007AE0EE687A414A4FEAEA7367EE36
:10153000887A82FB0A12F4EEC87AF1EE10FAC3EB55
:10154000621388BFF0EE487A03F00102FCEEE77AFE
:1015500002F58050109203EB8303069ACDED0C7ACE
:10156000AAEB0313043002EB8000BDF830409BB2BD
:10157000002242F2107511E008F101081FFA88F10B
:10158000A9420FFA81F800F273814168013221F813
:101590001360D82A03F150039BB20AD09442EBDDCA
:1015A0004168013221F81390D82A03F150039BB20D
:1015B000F4D111981F4B0246A3FB02239B0903EBB6
:1015C0008303A0EB03139BB2002B40F0B281089A77
:1015D000F02A40F2A1811848069D184A0078147834
:1015E000284442F20E054355002C00F0D782139E8A
:1015F0003388002B00F090810699CDF8608001F5CA
:101600008042104601F50052114602463A321292CB
:101610000A460E321492142207EE103A0C92CDF8BC
:1016200064A0BAE000504347000000360000574372
:1016300067666666CDCCCCCC380D00201C0D002032
:101640002EADA94214BF2E9D0F25A84200F20B819A
:10165000002200941146384611F0E4FC0446A646E8
:1016600034AD32955EF8083B734500F078823293D2
:10167000A368349363683393C4F8049084F80890A3
:10168000339AC4F800E06FF000439B1A012B40F23C
:10169000AF820DF1C80840460222914911F046FD83
:1016A0000DF1700A8646CDF868A05EF8083B7345D8
:1016B000044600F0678282681A931C9263681B9349
:1016C00084F80890C4F800E03298C4F80490A84266
:1016D00001D006F0B3FE2C982EAB984201D006F054
:1016E000ADFE2698584501D006F0A8FE209822AB02
:1016F000984201D006F0A2FE069B109ADDF868B071
:10170000329503EB820244F21403D1181591D35899
:101710001B9CBBF1000F00F01C820F2C2C9400F2DC
:10172000FF81012C00F00F822A46002C40F04682F7
:10173000339402F804908DE808016A49129B0291E3
:10174000049733F8024B129326AA039266480C9A28
:10175000CDF8B09050230021269402F07DFE3298FF
:10176000A84201D006F06AFE1A98604A604B52689F
:101770001A60504501D006F061FE149BB34200F0A0
:10178000C5800C9A3388143292B20C92002B00F070
:10179000BD80139A128807EE102A07EE903AB8EE31
:1017A000C77AF8EE677AC7EE876A16EE900AFEF7F8
:1017B000E5FE41EC100B1FF067FB51EC100BFFF73F
:1017C00009FA4C4982B220A806F0A2FC219A6FF0D7
:1017D00000439A4200F00C820122474920A811F0F0
:1017E000A5FC0DF1A00B0546CDF898B055F8083BC7
:1017F000AB42044600F0BF81269383682893626859
:101800003E4B27923E4984F808901A8DDB6A91ED91
:10181000000A36F8021B2560013307EE101A92B257
:10182000DB0202FB033307EE903AB8EEC77AB8EE5C
:10183000400AF8EE677A20EE070A2CAF2D49C4F86B
:1018400004903846002280EE270A05F0D3FD269B3F
:10185000279C2D9A5B4514BF28990F21A018884218
:101860002C993FF6EDAE26A811F060FC0446F6E692
:10187000244A25491388DDF818B001339BB2138040
:101880000B7842F20E025B440021995439B0BDEC52
:10189000048BBDE8F08F013303D00F9B01339342DB
:1018A00003DA0E9B01331BB20E930E9A069C42F292
:1018B000040104EB420344F23A005A5A1E5ABDF99D
:1018C00020000F90002A40F01B8104F58042343242
:1018D000FCEEC07ABDF844005852C2ED007A1FE613
:1018E000E8930208A46700209C670020A0640240DF
:1018F000340D00200C000020A8A9020800040040BC
:1019000028000020FE020020380D0020159BDDF885
:101910006080DDF864A01968119B0191A3F150016A
:10192000D723009389B21FFA8AF30022B24801F04C
:10193000EBFC089B0D9901331A46089340F24113C2
:1019400004319A420AF1010A0D917FF4D1ADDDF81C
:1019500018B042F202031BF80330002B96D042F27B
:1019600004033BF803A0BAF1000F8FD0A34CA44AA4
:10197000218DE36A92ED007AA24E9FEDA36A5A1C74
:1019800089B2D30206EE90AA01FB033307EE903A28
:10199000F8EEE66AB8EE477AF8EE677A27EE267A2E
:1019A000C7EE276AC6ED006A96ED000A20EE060A29
:1019B0001FF0FAFAF2EE007AB4EEE70AF1EE10FA4E
:1019C000B8BFB0EE670AFCEEC07ACDED067ABDF87E
:1019D0001850A5EB0A03002BB8BF5B42012B40F364
:1019E0000481E46A04FB05F4B4FBFAF4A4B20AF13E
:1019F0008043013B4FEA8308169B44F23807434477
:101A00000BEB8A0A18682BF80740FEF7B7FD0AF5BA
:101A10004053CDE906011869FEF7B0FD02460B46BA
:101A2000FEF700FEDDE90623CDE908011046194660
:101A3000FEF7F8FD02460B46DDE90801FEF740FC23
:101A400041EC100B1FF056FB169AB0EE409AF0EEE8
:101A5000609A08F1080313440AF5405A1868FEF723
:101A60008DFDCDE90601DAF81800FEF787FD024684
:101A70000B46FEF7D7FDDDE9062380468946104672
:101A80001946FEF7CFFD02460B4640464946FEF793
:101A900017FC41EC100B1FF02DFB51EC100BFFF766
:101AA00071F807EE900A51EC190BB8EEE78AFFF7D0
:101AB00069F807EE100AD6ED007A06EE905AB8EEF5
:101AC000C77A77EEA77AF8EEE66AB0EE476AA6EE36
:101AD000A76AB4EEC68AF1EE10FA76DD013CA4B234
:101AE0002BF80740631E9BB241F26E7293423FF6A1
:101AF000CDAE424BDA6AA2423FF4C8AEDC62C5E624
:101B000044F2340022460244205807EE900AF8EED0
:101B1000677AF4EEC07AF1EE10FA3FF5D9AEFFE441
:101B2000002239464046179311F060F82C9A179B13
:101B30003290349222465946179321F00CF82C9C8F
:101B4000329A179BF4E59BF800208DF8D0202A46A6
:101B5000EEE5002C3FF4E1AD2C481CF0B4FDDEF8BE
:101B60000000DEF80410DEF80820DEF80C30AC4689
:101B7000ACE80F007EE528686968AA68EB685F46F4
:101B80000FC73CE6DEF80000DEF80410DEF808209F
:101B9000DEF80C30D446ACE80F008FE50698435DC4
:101BA00073B142F20F03C05C00287FF420AD184CE3
:101BB000012320801370174A137018E52846B9E7EF
:101BC000134C012023801070F5E7D6ED007A77EEF4
:101BD000A77AA7EEA68AB4EEC87AF1EE10FA81DDF4
:101BE0000134A4B22BF807407CE7E46AA4B2FEE615
:101BF00009481CF06BFD00BF9C67002000040040FA
:101C00002800002094670020CDCCCC3DEC93020846
:101C1000140D0020080D0020D093020831B1114BA3
:101C20001B7842F20E020344002199540E4A1378A5
:101C300053B942F20E03C35C3BB9012111700B484A
:101C40000B4A038013707047704742F20F03C15C68
:101C500031B9012313700548054A0180137070479C
:101C6000704700BF380D00201C0D0020140D00200F
:101C7000080D0020A04BA1491A8DDB6A013392B2F6
:101C8000DB0202FB03332DE9F04307EE903A9C4C54
:101C9000B8EE677AD4ED007AF8EE677AA3B0012245
:101CA000064687EE870A0AA805F0A4FB0B9A6FF098
:101CB00000439B1A022B40F21B810AA80322914980
:101CC00011F034FA12AD864610955EF8083B734564
:101CD000074600F0FF801093836812937A68864B62
:101CE0001192002139721A8DDB6A94ED000A9FED82
:101CF000867A7960013392B2DB0202FB033307EE8E
:101D0000903AB8EE400AF8EE677A20EE077A7B49FF
:101D1000C7F800E016A8012287EE270A05F06AFB43
:101D2000109B119C179AAB4214BF12990F21A01857
:101D30008842169900F2878010A811F0F7F904463E
:101D400027460DF17808CDF8708057F8083BBB4264
:101D500000F0B8801C93A3681E9363681D93002352
:101D6000636023721D9A27606FF000439B1A032B58
:101D700040F2BE801CA80422644911F0D7F90DF18D
:101D800018090746CDF8109057F8083BBB420446A7
:101D900000F09080826804930692636805930023A4
:101DA000276023721C986360404501D006F046FB13
:101DB000169818AB984201D006F040FB1098A84244
:101DC00001D006F03BFB0A980CAB984201D006F01C
:101DD00035FB44F22003059CF358049D9C4242D0FD
:101DE000CDF87080002D60D00F2C16944ED8012CA9
:101DF00047D04246002C79D145481D940025155501
:101E000016A910AA02910090019208381CAB4FF657
:101E1000FF74DF2278211695109401F005FF1C98BD
:101E2000404501D006F00AFB06F580401C3004A9AD
:101E300010F06EFF049D4D4502D0284606F0FEFAD4
:101E400023B0BDE8F08318AFB94214BF189F0F2725
:101E5000B8423FF671AF00220094114616A811F067
:101E6000E1F804466CE7002CE5D044F21C0322465E
:101E7000F158284620F060FE0028DCD0CDF87080B4
:101E8000B2E72B788DF878304246B5E7002216A9E4
:101E90001CA810F0ABFE169B1C901E9322462946F0
:101EA00020F059FE169C1C9AA6E7002C9CD01948DD
:101EB0001CF009FC38687968BA68FB68CE46AEE861
:101EC0000F006AE738687968BA68FB68C646AEE80A
:101ED0000F0042E7DEF80000DEF80410DEF808200C
:101EE000DEF80C30AC46ACE80F00F7E64046D5E72C
:101EF00009481CF0EBFB00BF000400400C00002070
:101F0000280000201894020800809F431C940208B7
:101F1000A4670020EC930208D09302082DE9F04F4B
:101F200000F5005387B01F88019038460291FEF7F4
:101F300003FB41EC100B1EF093FF51EC100BFEF76E
:101F400049FE002F00F09380029C80B2C0F1200077
:101F50002146002292FAA2F363FA00F39BB2934265
:101F600002F1010204EB830303DD0D681E680E60BD
:101F70001D60BA4201F10401ECD1012F77DD019B14
:101F8000DFED753A07F1FF384FEA580803EBC80850
:101F90007B0808F5405804935B0008F11C08059382
:101FA0004FF0010BBBF1010F67D0049B5B4500F0C4
:101FB0008980019ADDF808A0CDF80C8002F540591F
:101FC0004FEA4B0E09F114094FEACB064FEA8B0595
:101FD0004FF0000C90464FEA8C2393FBFEF308EB86
:101FE000830303F5005203F510531432143367458D
:101FF000D2ED004A93ED004A2CDD05EB09014A467B
:1020000053466446E81893ED006AD1ED005A90ED0E
:10201000005A92ED007A65EEE46A64EE857AE4EEA9
:10202000056A7444BC42E4EE257A76EE665A76EE92
:10203000266A37EE676A77EE277AC0ED005A81ED9F
:10204000006AC3ED006A3144C2ED007A05EB00037B
:102050003244D7DB0CF1010CDC450AF1040A09F12A
:102060000409B8D1DDF80C807745F3469ADC019875
:1020700007B0BDE8F04FFFF7FDBD019A029B02F5E6
:10208000405204331432D3ED007A13ED017A37EE67
:10209000677A13EE901A83ED007AC2ED013A13EDE0
:1020A000017A77EE877A083343ED037A42F8081B0A
:1020B0009045E8D1022FDADD049B4FF0020B5B451F
:1020C0007FF477AF059E019C029D01221046B64623
:1020D00002EB0B019302890093FBF6F39BB204EB36
:1020E000830304EB010C03F500590CF5405C09F186
:1020F00014090CF1140CD9ED007A9CED007A03F56B
:1021000010531433294493ED006AD1ED006A27EE91
:10211000677A05EB8009A6EE267A04EB820202F5C7
:102120004053D9ED006A37EE267A143389ED007AF0
:10213000D1ED006ADCED005A93ED007A67EEA67AE5
:102140000130E6EE257A80B25845024677EE877A6E
:10215000C3ED007ABCDB87E700000000124B1A8851
:1021600022F00102120470B5120C104C1A8026687D
:102170005A6A0F4D02EB06422A609A8A92B242F0E6
:1021800001029A821A8892B242F001021A80054630
:102190000E4600232360FFF7C1FE31462846BDE806
:1021A0007040FFF777B900BF000800402C0D0020F9
:1021B000300D0020124B1A8822F00102120470B573
:1021C000120C104C1A8026685A6A0F4D02EB064218
:1021D0002A609A8A92B242F001029A821A8892B2D6
:1021E00042F001021A8005460E4600232360FFF7E5
:1021F00095FE31462846BDE87040FEF767BF00BF38
:10220000000800402C0D0020300D002010B444F2D6
:10221000180344F214040151C2505DF8044B704796
:10222000414A424B42494348F0B4176B424C434E3B
:10223000434D47F004071763176B47F00807176310
:10224000176B47F020071763576C47F480175764E4
:10225000276847F080672760A76847F08067A76016
:10226000376847F010073760B76847F01007B76066
:10227000266846F080762660E66846F08076E6605E
:102280001C6844F400441C609C6844F440449C6016
:102290001C6A44F0A0441C621C6844F400341C60B6
:1022A0009C6844F440349C605C6A44F005045C62C1
:1022B0001C6844F400241C609C6844F440249C6026
:1022C0005C6A44F050045C620B889BB243F4007378
:1022D0000B800B889BB243F480730B800B889BB2FE
:1022E00043F008030B800B889BB243F004030B8080
:1022F0000B889BB243F040030B80136B43F48003C5
:102300001363036843F060630360036843F400539E
:102310000360036843F400630360036843F0400311
:1023200003608560F0BC7047003802400014024032
:1023300000500140A0640240000C0240000802402E
:102340000C5001404E484F4A4F4BF0B4046C4F4E76
:102350004F4D504F4FF0804144F0010404648C888D
:10236000A4B244F040048C8013240C853124CC6248
:102370004C630C8CA4B244F001040C840C8BA4B20A
:1023800044F060040C830C88A4B244F001040C8077
:10239000016B414C41F001010163016B41F004010B
:1023A0000163416C41F480714164316841F0C001C6
:1023B0003160296841F44061296051684FF480150B
:1023C00041F480715160D562516B41F00D01516350
:1023D000516B41F0A0015163D16841F44061D1607B
:1023E000116941F440311161916841F4806191605B
:1023F000916841F080519160916841F0C0619160B5
:10240000916841F480719160916841F4007191602C
:10241000016B41F480010163196821F0C00119606A
:10242000196841F400311960196841F400611960BC
:10243000196841F400511960196821F4007119609C
:10244000196841F480611960196841F4807119605C
:10245000196821F0C0011960596841F008015960FC
:102460009F60DC60196821F060611960196841F0B3
:1024700001011960936843F001039360F0BC704759
:102480000038024000200140106402400008024071
:10249000000002404C200140EC0200201148124B89
:1024A000026C124930B442F0020232254FF49674A5
:1024B00002641D85DC629A8992B242F001024FF0FB
:1024C000005400209A810C6081F81D031A8892B292
:1024D00042F001021A809A8A92B242F001029A8274
:1024E00030BC7047003802400004004000E100E0CA
:1024F0000C480D4A036C0D4930B443F004030A251F
:102500004FF6FF7403641585D46293899BB24FF034
:10251000804443F00103002093810C6081F81E0386
:1025200030BC7047003802400008004000E100E085
:1025300036483749374A384B70B4056B374E384CFC
:1025400045F001050563056B45F010050563456C15
:1025500045F480454564F06840F48040F060C86808
:1025600040F48030C860C86840F48020C860C86803
:1025700040F48010C860C86840F48000C860D1682A
:10258000D160D96841F08001D960196841F08001BB
:102590001960116941F004011161D96841F4807139
:1025A000D960196841F480711960116941F04001E6
:1025B0001161D96841F40071D960196841F4007162
:1025C0001960116941F480611161D96841F4806139
:1025D000D960196841F480611960116941F4804142
:1025E0001161DA6842F40062DA601A6830214FF44F
:1025F000000542F400621A604FF4807084F81713EB
:10260000256084F82813606070BC70470038024071
:102610000010024000380140003C01400000024030
:1026200000E100E010B4194C194A206C194B1A490A
:1026300040F400202064106840F400001060506AEC
:1026400040F4004050621A8992B242F4B4621A8196
:102650009A8922F480521204120C9A819A8992B2B9
:1026600042F004029A819A8992B242F02002302408
:102670004FF480109A8181F8344348609A895DF85C
:10268000044B92B242F400529A81704700380240E3
:1026900000080240004C004000E100E00C4A034604
:1026A00092E8030070B4083200240A4EC3F80260B6
:1026B00003F108051C7085E8030092E8030003F1AC
:1026C000100282E8030083F89846184670BC7047F1
:1026D00094930208F000400130B4264A2648274C63
:1026E0005368002BFCD14368002BF9D123899B0749
:1026F000F6D023891D06F3D4214D1E4A6B8B1E4C48
:102700001E489BB243F400536B830D785368002B33
:10271000FCD16368002BF9D103899B07F6D00389AC
:102720001906F3D403881B0510D5038823F0400352
:102730001B041B0C0380038823F400631B041B0C85
:10274000038003889BB243F0400303800B4C094A8B
:102750000949ABB2A38120465368002BFCD14B68DA
:10276000002BF9D103899D07F6D023891B06F3D4EA
:1027700030BC704788640240A064024000500140B1
:10278000000C0240F8B52C4A2C4C2D4D0F465368D6
:10279000002BFCD16368002BF9D12B899E07F6D062
:1027A0002B891906F3D43968FFF796FF254A3E684E
:1027B000138B7D689BB2AD1B43F40053012D138333
:1027C00038D901271C4B1D491D483C465A68002A30
:1027D000FCD14A68002AF9D102899207F6D0028911
:1027E0001206F3D40288F75D120510D5028822F094
:1027F00040021204120C0280028822F400621204C9
:10280000120C0280028892B242F040020280BAB2F8
:1028100082815A68002AFCD14A68002AF9D10289CB
:102820009707F6D002891206F3D40134E4B2AC4221
:102830002746CBD3F8BD00BF88640240A0640240A5
:1028400000500140000C02402DE9F04383B002AE7D
:102850002A2406F8014D8946314615469846074612
:10286000BDF82840FFF738FFDFF870E2984ABEF85D
:102870001830984898499BB243F40053AEF818308A
:102880004FEA292E5368002BFCD14368002BF9D165
:102890000B899B07F6D00B891B06F3D40B881A050E
:1028A00010D50B8823F040031B041B0C0B800B88F6
:1028B00023F400631B041B0C0B800B889BB243F0BA
:1028C00040030B808448824A82491FFA8EFEA0F89A
:1028D0000CE086465368002BFCD14B68002BF9D1E5
:1028E000BEF808309B07F5D003891B06F2D4784B5D
:1028F000784879495A68002AFCD14268002AF9D1FF
:102900000A899207F6D00A891206F3D40B881805B3
:1029100010D50B8823F040031B041B0C0B800B8885
:1029200023F400631B041B0C0B800B889BB243F049
:1029300040030B80DFF8A0E1654B66495FFA89F937
:10294000AEF80C9070465A68002AFCD14A68002AFA
:10295000F9D102899207F6D0BEF808201206F2D407
:102960005E495B4B0A8BDFF86CE15B4892B242F444
:1029700000520A834FEA282C59680029FCD1DEF85E
:102980000420002AF8D102899107F5D002891206A5
:10299000F2D40388190510D5038823F040031B04E3
:1029A0001B0C0380038823F400631B041B0C0380AF
:1029B00003889BB243F040030380DFF81C91444B33
:1029C00044481FFA8CFCA9F80CC0CE46596800296F
:1029D000FCD14268002AF9D1BEF808209207F5D050
:1029E000B9F808201106F1D4394BDFF8E8E03A488D
:1029F00059680029FCD1DEF80420002AF8D10289A8
:102A00009207F5D002891106F2D403881A0510D571
:102A1000038823F040031B041B0C0380038823F46A
:102A200000631B041B0C038003889BB243F040032C
:102A30000380DFF8A4E0264A26495FFA88F8AEF85A
:102A40000C8070465368002BFCD14B68002BF9D1E9
:102A500003899B07F6D0BEF808301B06F2D4314636
:102A60001E4E2B2338468DF80730FFF735FE338B8B
:102A7000174A184818499BB243F4005333832E1267
:102A80005368002BFCD14368002BF9D10B899F07B9
:102A9000F6D00B891B06F3D40B881F0510D50B88C5
:102AA00023F040031B041B0C0B800B8823F40063F2
:102AB0001B041B0C0B800B889BB243F040030B8064
:102AC000054F034A0349B6B2BE81384608E000BF4D
:102AD00088640240A064024000500140000C0240A3
:102AE0005368002BFCD14B68002BF9D103899E075A
:102AF000F6D03B891B06F3D4544A554855495368D0
:102B0000002BFCD14368002BF9D10B899F07F6D02D
:102B10000B891E06F3D40B881B0510D50B8823F0F8
:102B200040031B041B0C0B800B8823F400631B0465
:102B30001B0C0B800B889BB243F040030B80454E6F
:102B400042494348EDB2B58132464B68002BFCD177
:102B50004368002BF9D113899F07F6D033891D06EE
:102B6000F3D43D4D394A2B8B39483A499BB243F453
:102B700000532B8325125368002BFCD14368002B94
:102B8000F9D10B899B07F6D00B891F06F3D40B886C
:102B90001E0510D50B8823F040031B041B0C0B8073
:102BA0000B8823F400631B041B0C0B800B889BB267
:102BB00043F040030B80274E244A2549ADB2B5812E
:102BC00030465368002BFCD14B68002BF9D10389A8
:102BD0009D07F6D033891B06F3D41C4A1C481D49B7
:102BE0005368002BFCD14368002BF9D10B899F0758
:102BF000F6D00B891E06F3D40B881D0510D50B8863
:102C000023F040031B041B0C0B800B8823F4006390
:102C10001B041B0C0B800B889BB243F040030B8002
:102C20000C4D0A4A0A49E4B2AC8128465368002B8D
:102C3000FCD14B68002BF9D103899C07F6D02B8976
:102C40001B06F3D403B0BDE8F08300BF88640240E4
:102C5000A064024000500140000C02402DE9F04108
:102C600084B09046BDF82840009405460F461E46A5
:102C7000FFF7EAFD04A92C2301F8013D2846FFF7E0
:102C80002BFDDFF824E14449BEF81830434A44489C
:102C90009BB243F40053AEF818300B8823F0400386
:102CA0001B041B0C0B800B889BB243F400630B804E
:102CB0000B889BB243F040030B808E465368002B79
:102CC000FCD14368002BF9D1BEF808309B07F5D042
:102CD0000B891B06F2D40B9A324B1288AE46A4EB3A
:102CE00008042EF8062F4FF47412DA600134F61B34
:102CF00002684FF6FF7306FB0444A34228BF234635
:102D000022F4806202604360C0F80CE0036843F084
:102D1000010303608B889BB243F00203B4F5803F4C
:102D20008B8036D31D4A1E491B485368002BFCD1AB
:102D30004B68002BF9D103899B07F6D003891F0646
:102D4000F3D40134154A16491348A4B25368002B32
:102D5000FCD14B68002BF9D103899E07F6D003897B
:102D60001B06F3D40B9A0F4B1288EA804FF47412AF
:102D7000DA600B6823F480630B604C60C1F80CE0F0
:102D80000B6843F001030B6083889BB243F002039E
:102D9000838004B0BDE8F0810050014088640240A7
:102DA000A064024000640240000C024010B5848818
:102DB000438882B0013C0022A4B2013B01910094FF
:102DC0009BB21146FFF74AFF02B010BDA74AF0B50B
:102DD000538B9BB243F48053538387B0054644F62C
:102DE0002063013BFDD1A14A138B9BB243F4805376
:102DF000138344F62063013BFDD106AC012304F8A4
:102E00000C3D28462146FFF767FC4CF25033013B4E
:102E1000FDD1062003930493059305F016FB944A15
:102E2000039003461068928818609A8028460633FB
:102E3000214605930493FFF7A5FC039808B105F01C
:102E4000FDFA0023042003930493059305F0FDFA93
:102E5000884B03901B6803602146031D2846059399
:102E60000493FFF78FFC039808B105F0E7FA0023FD
:102E7000042003930493059305F0E7FA7E4B039037
:102E80001B6803602146031D284605930493FFF742
:102E900079FC039808B105F0D1FA002303200393CD
:102EA0000493059305F0D1FA744A03900346118800
:102EB00096780180C21C214628469E700592049295
:102EC000FFF760FC039808B105F0B8FA002305206D
:102ED00003930493059305F0B8FA694A03900346F7
:102EE0001068127918601A71284605332146059337
:102EF0000493FFF747FC039808B105F09FFA0023FD
:102F0000022003930493059305F09FFA5D4B039011
:102F10001B8803802146831C284605930493FFF7F2
:102F200031FC039808B105F089FA002302200393CD
:102F30000493059305F089FA534B03901B88038093
:102F40002146831C284605930493FFF71BFC039836
:102F500008B105F073FA002302200393049305934C
:102F600005F073FA494B03901B8803802146831CAC
:102F7000284605930493FFF705FC039808B105F074
:102F80005DFA0023032003930493059305F05DFA93
:102F90003F4A03900346118896780180C21C21465F
:102FA00028469E7005920492FFF7ECFB039808B147
:102FB00005F044FA0023022003930493059305F0DF
:102FC00044FA344B03901B8803802146831C284617
:102FD00005930493FFF7D6FB039808B105F02EFA8A
:102FE0000023022003930493059305F02EFA2A4B45
:102FF00003901B8803802146831C28460593049375
:10300000FFF7C0FB039808B105F018FA002302206F
:1030100003930493059305F018FA204B03901B8843
:1030200003802146831C284605930493FFF7AAFBDF
:10303000039808B105F002FA0023032003930493D8
:10304000059305F002FA164A039003461188967814
:103050000180C21C214628469E7005920492FFF70B
:1030600091FB0398F0B105F0E9F91BE0000C024078
:10307000249402082C940208309402083494020824
:1030800038940208409402084494020848940208C4
:103090004C94020850940208549402085894020870
:1030A0005C9402080023042003930493059305F025
:1030B000CCF9884B03901B6803602146031D28460A
:1030C00005930493FFF75EFB039808B105F0B6F98A
:1030D0000023022003930493059305F0B6F97E4B79
:1030E00003901B8803802146831C28460593049384
:1030F000FFF748FB039808B105F0A0F9002305206D
:1031000003930493059305F0A0F9744A03900346D2
:103110001068127918601A71284605332146059304
:103120000493FFF72FFB039808B105F087F90023FC
:10313000052003930493059305F087F9684A0390EB
:1031400003461068127918601A7128460533214623
:1031500005930493FFF716FB039808B105F06EF989
:103160000023022003930493059305F06EF95D4B51
:1031700003901B8803802146831C284605930493F3
:10318000FFF700FB039808B105F058F90023102061
:1031900003930493059305F058F9534F03900646A3
:1031A0000FCF06F110073060716028462146B260EB
:1031B000F36005970497FFF7E5FA039808B105F067
:1031C0003DF90023102003930493059305F03DF986
:1031D000464F039006460FCF06F11007306071602E
:1031E00028462146B260F36005970497FFF7CAFAB4
:1031F000039808B105F022F91123214628468DF8DD
:103200000C30FFF769FA3A4B013BFDD129232146E7
:1032100028468DF80C30374EFFF75EFA2C232146F6
:1032200028468DF80C30FFF757FA362321462846FA
:103230008DF80C30FFF750FA338B2F4A2F48304966
:103240009BB243F4005333835368002BFCD1436893
:10325000002BF9D10B899F07F6D00B891E06F3D4FA
:103260000B881A0510D50B8823F040031B041B0C98
:103270000B800B8823F400631B041B0C0B800B8852
:103280009BB243F040030B801D4E1B4A1B49E823B1
:10329000B38130465368002BFCD14B68002BF9D129
:1032A00003899B07F6D0338913F08007F2D10321FD
:1032B000144A0194EF232970C5F802202846009390
:1032C0003A4640F23F133946ADF80C70FFF7C6FCA2
:1032D00007B0F0BD60940208649402086894020884
:1032E00070940208789402087C9402088C94020876
:1032F00040420F00000C024088640240A06402407B
:10330000005001404001F00070B584B05D1ABDF876
:1033100020400094A41A013405FB04440646099D8C
:10332000FFF792FA04A92C233046184E01F8013D0C
:10333000FFF7D2F9328B164B1648174992B242F476
:10334000005232831A8822F040021204120C1A80B2
:103350001A8892B242F400621A801A8892B242F03D
:1033600040024FF474161A80C6600A6842F4806204
:103370000A604C60CD600A6842F001020A609A88D7
:1033800092B242F002029A8004B070BD000C02407A
:103390000050014000640240A064024070B584B057
:1033A0001C4600920B460546FFF74EFA04A92C2353
:1033B00028463C4D01F8013DFFF78EF92B8B3A4A28
:1033C0003A483B499BB243F400532B8323881D1298
:1033D0005368002BFCD14368002BF9D10B899B0764
:1033E000F6D00B891E06F3D40B881A0510D50B886E
:1033F00023F040031B041B0C0B800B8823F4006399
:103400001B041B0C0B800B889BB243F040030B800A
:10341000274E254A2549ABB2B38130465368002B6D
:10342000FCD14B68002BF9D103899B07F6D0338977
:103430001D06F3D425881C4A1C481D495368002BDF
:10344000FCD14368002BF9D10B899C07F6D00B897E
:103450001B06F3D40B881E0510D50B8823F0400300
:103460001B041B0C0B800B8823F400631B041B0C38
:103470000B800B889BB243F040030B800C4C0A4A34
:103480000A49EBB2A38120465368002BFCD14B685C
:10349000002BF9D103899D07F6D023891B06F3D4AD
:1034A00004B070BD000C024088640240A064024079
:1034B000005001402DE9F04F45888DB00F46AF42D6
:1034C0000991BDF85860179C0892194602DB6B1EE3
:1034D0009BB209938D428388089ADCBF05F1FF31C6
:1034E00089B29A4202DB5A1E92B20892B342099AFA
:1034F000DCBF03F1FF339EB2914202DB0B4609931E
:103500001146089AB24202DC334608931646099BDC
:103510005B1A9BB21A460693089B9B1B9BB212B286
:1035200007931BB203920293002A00F00283002B40
:1035300000F0FF821846824200F3098300EBD07549
:103540006D106D422DB224688E4B8F4A8F48DFF884
:1035500040C2E7B2C4F30724059704944FEA212B35
:103560005FFA81FA4FEA26295FFA86F85C68002C38
:10357000FCD15468002CF9D10489A707F6D004893E
:103580002406F3D4BCF81A40A4B244F40054ACF8B6
:103590001A405C68002CFCD15468002CF9D10489D5
:1035A000A707F6D004892406F3D40488270510D58C
:1035B000048824F040042404240C0480048824F4A7
:1035C00000642404240C04800488A4B244F0400461
:1035D00004804FF02A0484815C68002CFCD154687C
:1035E000002CF9D10489A407F6D004892706F3D466
:1035F000BCF81840A4B244F40054ACF818405C681D
:10360000002CFCD15468002CF9D10489A407F6D011
:1036100004892706F3D40488240510D5048824F0EF
:1036200040042404240C0480048824F4006424044A
:10363000240C04800488A4B244F0400404801FFADF
:103640008BFEA0F80CE05C68002CFCD15468002CC8
:10365000F9D10489A707F6D004892406F3D45C685D
:10366000002CFCD15468002CF9D10489A707F6D0AE
:1036700004892406F3D40488270510D5048824F08F
:1036800040042404240C0480048824F400642404EA
:10369000240C04800488A4B244F0400404801FFA7F
:1036A0008AF787815C68002CFCD15468002CF9D122
:1036B0000489A407F6D004892406F3D4BCF8184082
:1036C000A4B244F40054ACF818405C68002CFCD15F
:1036D0005468002CF9D10489A407F6D00489240683
:1036E000F3D40488240510D5048824F0400424046D
:1036F000240C0480048824F400642404240C048032
:103700000488A4B244F040040480A0F80CE05C6893
:10371000002CFCD15468002CF9D10489A407F6D000
:1037200004892406F3D45C68002CFCD15468002C76
:10373000F9D10489A407F6D004892406F3D40488B7
:10374000240510D5048824F040042404240C0480AB
:10375000048824F400642404240C04800488A4B2A3
:1037600044F04004048087815C68002CFCD15468DC
:10377000002CF9D10489A707F6D004892406F3D4D4
:1037800008E000BF88640240A0640240005001408D
:10379000000C02405C68002CFCD15468002CF9D16C
:1037A0000489A707F6D004892406F3D4BCF81A408C
:1037B000A4B244F40054ACF81A405C68002CFCD16C
:1037C0005468002CF9D10489A707F6D0048924068F
:1037D000F3D40488270510D5048824F04004240479
:1037E000240C0480048824F400642404240C048041
:1037F0000488A4B244F0400404804FF02B04848178
:103800005C68002CFCD15468002CF9D10489A40711
:10381000F6D004892706F3D4BCF81840A4B244F4C7
:103820000054ACF818405C68002CFCD15468002CA3
:10383000F9D10489A407F6D004892706F3D40488B3
:10384000240510D5048824F040042404240C0480AA
:10385000048824F400642404240C04800488A4B2A2
:1038600044F0400404801FFA89FEA0F80CE05C6874
:10387000002CFCD15468002CF9D10489A707F6D09C
:1038800004892406F3D45C68002CFCD15468002C15
:10389000F9D10489A707F6D004892406F3D4048853
:1038A000270510D5048824F040042404240C048047
:1038B000048824F400642404240C04800488A4B242
:1038C00044F0400404801FFA88F787815C68002C6C
:1038D000FCD15468002CF9D10489A407F6D00489DE
:1038E0002406F3D4BCF81840A4B244F40054ACF855
:1038F00018405C68002CFCD15468002CF9D1048974
:10390000A407F6D004892406F3D40488240510D52E
:10391000048824F040042404240C0480048824F443
:1039200000642404240C04800488A4B244F04004FD
:103930000480A0F80CE05C68002CFCD15468002CDA
:10394000F9D10489A407F6D004892406F3D45C686D
:10395000002CFCD15468002CF9D10489A407F6D0BE
:1039600004892406F3D40488240510D5048824F09F
:1039700040042404240C0480048824F400642404F7
:10398000240C04800488A4B244F04004048087819D
:103990005C68002CFCD15468002CF9D10489A40780
:1039A000F6D004892706F3D45C68002CFCD1546857
:1039B000002CF9D10489A407F6D004892706F3D492
:1039C000BCF81A40A4B244F40054ACF81A405C6845
:1039D000002CFCD15468002CF9D10489A407F6D03E
:1039E00004892706F3D40488240510D5048824F01C
:1039F00040042404240C0480048824F40064240477
:103A0000240C04800488A4B244F0400404804FF0E5
:103A10002C0484815C68002CFCD15468002CF9D102
:103A20000489A707F6D004892406F3D4BCF818400B
:103A3000A4B244F40054ACF818405C68002CFCD1EB
:103A40005468002CF9D10489A707F6D0048924060C
:103A5000F3D40488270510D5048824F040042404F6
:103A6000240C0480048824F400642404240C0480BE
:103A70000488A4B244F040040480BDF8104084815E
:103A80005C68002CFCD15468002CF9D10489A4078F
:103A9000F6D004892706F3D45C68002CFCD1546866
:103AA000002CF9D10489A407F6D004892706F3D4A1
:103AB0000488240510D5048824F040042404240C30
:103AC0000480048824F400642404240C0480048802
:103AD000A4B244F040040480BDF8144084815C68C2
:103AE000002CFCD15468002CF9D10489A707F6D02A
:103AF00004892406F3D4099CA1422CD0039C64427F
:103B0000A54208DD079C013189B22D1B2DB24FEA79
:103B1000212B5FFA81FA029CA542BFF627AD069CD5
:103B20000136B6B225442DB24FEA26295FFA86F84F
:103B30001CE50CAD236825F8023D089B0093324636
:103B4000099B0195FFF78AF80DB0BDE8F08F02EBF5
:103B5000D2756D10F7E4089CA642CFD10DB0BDE838
:103B6000F08F00BF2DE9F0470D4641888D42A8BF78
:103B700001F1FF351E4684B0A8BFADB299428388DB
:103B8000BDF83070DDF834A0DCBF01F1FF36B6B20D
:103B90009A421446A4BF03F1FF34A4B2BB42DCBF77
:103BA00003F1FF37BFB2AE42804602DB33462E46FA
:103BB0001D46BC4202DC3B4627461C460DF110095F
:103BC000DAF8003029F8023D3A462B4631464046A5
:103BD0008DE88002FFF742F88DE81002DAF8003035
:103BE000ADF80E303A46334631464046FFF736F8D8
:103BF0008DE81002DAF80030ADF80E3031462B4671
:103C000022464046FFF72AF8CDF80490DAF8006023
:103C100000943A4640462B462946ADF80E60FFF721
:103C20001DF804B0BDE8F0872DE9F04F804609CBC0
:103C30008FB003448342DDF860C0DDF864E0059195
:103C40000D9200F0EE83B8F802200B9298F89826B7
:103C50000392013B421E9CF80010DFF8E093DFF86E
:103C6000E0B3DFF8E0A304920C93059C12F8010F77
:103C700004920B9A09940B1993429CF8012000F3CB
:103C8000E0832346240A0794DCB208940D9C069432
:103C90000A93002A34D0DCF804300193A0F1200309
:103CA0000398029300264FF4D0743346009604FB29
:103CB00000F4029800FB0233019830F81370C9B188
:103CC0003346002207FA02F2E018120400F10C0059
:103CD00003F1010540F1A883DEF8003028F8103028
:103CE000ABB29A1B9CF8001092B29142EADC9CF8AD
:103CF00001201E46009B01339BB293420093D8DB08
:103D0000D9F80430002BFBD1DBF80430002BF7D1BD
:103D1000BAF808309C07F3D0BAF808301806EFD488
:103D2000069D0A986B1E1344013801449CB288B268
:103D3000631B0999039D4FF45072411A013302FB32
:103D4000058201FB033102F11805D9F80430002B7C
:103D5000FBD1DBF80430002BF7D1BAF808309A0712
:103D6000F3D0BAF808301B06EFD4B34BB24A5B8BE2
:103D70009BB243F400535383D9F80430002BFBD19A
:103D8000DBF80430002BF7D1BAF808309F07F3D0E6
:103D9000BAF808301E06EFD4BAF800301A0516D566
:103DA000BAF8003023F040031B041B0CAAF80030C3
:103DB000BAF8003023F400631B041B0CAAF800308F
:103DC000BAF800309BB243F04003AAF800302A232F
:103DD000AAF80C30D9F80430002BFBD1DBF8043002
:103DE000002BF7D1BAF808309B07F3D0BAF80830A7
:103DF0001F06EFD4904B904A1B8B9BB243F40053A9
:103E00001383D9F80430002BFBD1DBF80430002BEE
:103E1000F7D1BAF808309E07F3D0BAF808301A067E
:103E2000EFD4BAF800301B0516D5BAF8003023F0ED
:103E300040031B041B0CAAF80030BAF8003023F42E
:103E400000631B041B0CAAF80030BAF800309BB2C8
:103E500043F04003AAF80030BDF81C30AAF80C303B
:103E6000D9F80430002BFBD1DBF80430002BF7D15C
:103E7000BAF808309F07F3D0BAF808301E06EFD41E
:103E8000D9F80430002BFBD1DBF80430002BF7D13C
:103E9000BAF808309A07F3D0BAF808301B06EFD406
:103EA000BAF800301F0516D5BAF8003023F04003E9
:103EB0001B041B0CAAF80030BAF8003023F400638E
:103EC0001B041B0CAAF80030BAF800309BB243F078
:103ED0004003AAF80030BDF82030AAF80C30D9F819
:103EE0000430002BFBD1DBF80430002BF7D1BAF8FB
:103EF00008309E07F3D0BAF808301A06EFD44E4BBC
:103F00004D4A1B8B9BB243F4005313830212D9F822
:103F10000430002BFBD1DBF80430002BF7D1BAF8CA
:103F200008309B07F3D0BAF808301F06EFD4BAF870
:103F300000301E0516D5BAF8003023F040031B04EC
:103F40001B0CAAF80030BAF8003023F400631B04FD
:103F50001B0CAAF80030BAF800309BB243F04003C3
:103F6000AAF8003092B2AAF80C20D9F80430002B3D
:103F7000FBD1DBF80430002BF7D1BAF808309B07EF
:103F8000F3D0BAF808301F06EFD4D9F80430002B6C
:103F9000FBD1DBF80430002BF7D1BAF808309E07CC
:103FA000F3D0BAF808301A06EFD4BAF800301B057F
:103FB00016D5BAF8003023F040031B041B0CAAF8F6
:103FC0000030BAF8003023F400631B041B0CAAF87D
:103FD0000030BAF800309BB243F04003AAF800303A
:103FE000C0B2AAF80C00D9F80430002BFBD1DBF8E2
:103FF0000430002BF7D1BAF808309F07F3D0BAF895
:1040000008301E06EFD4D9F80430002BFBD1DBF8C2
:104010000430002BF7D1BAF808309807F3D0BAF87B
:1040200008301A06EFD4044B034A5B8B9BB243F46F
:104030000053538308E000BF000C02408864024034
:10404000A064024000500140D9F80430002BFBD19D
:10405000DBF80430002BF7D1BAF808309B07F3D017
:10406000BAF808301F06EFD4BAF800301E0516D58E
:10407000BAF8003023F040031B041B0CAAF80030F0
:10408000BAF8003023F400631B041B0CAAF80030BC
:10409000BAF800309BB243F04003AAF800302B235B
:1040A000AAF80C30D9F80430002BFBD1DBF804302F
:1040B000002BF7D1BAF808309807F3D0BAF80830D7
:1040C0001A06EFD4BC4BBC4A1B8B9BB243F4005383
:1040D0001383069B1A12D9F80430002BFBD1DBF8AE
:1040E0000430002BF7D1BAF808309B07F3D0BAF8A8
:1040F00008301F06EFD4BAF800301E0516D5BAF8FE
:10410000003023F040031B041B0CAAF80030BAF85F
:10411000003023F400631B041B0CAAF80030BAF82B
:1041200000309BB243F04003AAF8003092B2AAF8E4
:104130000C20D9F80430002BFBD1DBF80430002B25
:10414000F7D1BAF808309807F3D0BAF808301A0651
:10415000EFD4D9F80430002BFBD1DBF80430002B6E
:10416000F7D1BAF808309B07F3D0BAF808301F0629
:10417000EFD4BAF800301E0516D5BAF8003023F097
:1041800040031B041B0CAAF80030BAF8003023F4DB
:1041900000631B041B0CAAF80030BAF800309BB275
:1041A00043F04003AAF800309DF81830AAF80C300C
:1041B000D9F80430002BFBD1DBF80430002BF7D109
:1041C000BAF808309807F3D0BAF808301A06EFD4D6
:1041D000794B794A1B8B9BB243F400531383221211
:1041E000D9F80430002BFBD1DBF80430002BF7D1D9
:1041F000BAF808309B07F3D0BAF808301F06EFD49E
:10420000BAF800301E0516D5BAF8003023F0400386
:104210001B041B0CAAF80030BAF8003023F400632A
:104220001B041B0CAAF80030BAF800309BB243F014
:104230004003AAF8003092B2AAF80C20D9F8043052
:10424000002BFBD1DBF80430002BF7D1BAF8083093
:104250009807F3D0BAF808301A06EFD4D9F804302A
:10426000002BFBD1DBF80430002BF7D1BAF8083073
:104270009B07F3D0BAF808301F06EFD4BAF8003025
:104280001E0516D5BAF8003023F040031B041B0CA2
:10429000AAF80030BAF8003023F400631B041B0CAA
:1042A000AAF80030BAF800309BB243F04003AAF8F5
:1042B0000030E3B2AAF80C30D9F80430002BFBD15F
:1042C000DBF80430002BF7D1BAF808309807F3D0A8
:1042D000BAF808301A06EFD4D9F80430002BFBD115
:1042E000DBF80430002BF7D1BAF808309B07F3D085
:1042F000BAF808301F06EFD42F4B2F4A5B8B9BB2C6
:1043000043F400535383D9F80430002BFBD1DBF87E
:104310000430002BF7D1BAF808309E07F3D0BAF872
:1043200008301C06EFD4BAF80030180516D5BAF8D4
:10433000003023F040031B041B0CAAF80030BAF82D
:10434000003023F400631B041B0CAAF80030BAF8F9
:1043500000309BB243F04003AAF800302C23AAF8A7
:104360000C30D9F80430002BFBD1DBF80430002BE3
:10437000F7D1BAF808309A07F3D0BAF808301B061C
:10438000EFD40D4B0C481B8B0C4A9BB243F40053EB
:104390000383BAF8003023F040031B041B0CAAF877
:1043A0000030BAF800309BB243F40063AAF8003042
:1043B000BAF800309BB203E0000C024000640240F7
:1043C00043F040034FF47410AAF80030D060DBF8DB
:1043D0000030039A43F48063CBF80030CBF804102C
:1043E000CBF80C50DBF8003043F00103CBF8003081
:1043F000BAF8043012F1FF329BB218BF012243F029
:1044000002030392AAF8043088F89826059B9CF8CA
:104410000010049A0B449BB205930C9B93427FF4CB
:1044200024AC0FB0BDE8F08F1A9A126828F810205B
:10443000ABB29A1B9CF8001092B28A42FFF642ACD3
:1044400055E400231C4608930D9B079413449BB22C
:10445000069309940A941CE42DE9F04F87B0119853
:10446000DDF840E004684068129DDDF84CC0DDF8DE
:10447000508001932044A04245D02F7895F801B098
:10448000BEB20496BBF1000F3DD012FB03126B6865
:10449000009393B20293631E0393431E0593039B01
:1044A00013F801AF0393AAF1200A0BFB0AFA0FB32A
:1044B0000023029D99465344009A002132F813606C
:1044C0000B465C1C06FA01F12B449AB20B041DD575
:1044D000A3B2DCF800102EF81210BB421946F0DB34
:1044E000019B09F101091FFA89F91D44D945ADB2B3
:1044F0004B46E0DB029B049A13449BB20293039A5F
:10450000059B9342CBD107B0BDE8F08FA3B2D8F89A
:1045100000102EF81210BB421946D2DBE0E700BFB4
:1045200044F21C0200F5804310B504468058243341
:10453000984201D003F082FF204610BD70B50646B8
:10454000C06A68B1356D346C0435AC4206D254F89B
:10455000040B03F073FFA542F9D8F06A03F06EFF75
:10456000306868B1756A74690435AC4206D254F893
:10457000040B03F063FFA542F9D8306803F05EFF37
:10458000304670BD2DE9F0470446202003F05DFF62
:1045900007464FF4007003F058FF4FF0080800235F
:1045A00005462360A360E36023616361A361E36167
:1045B00023626362C4F804802020FD6003F045FF9D
:1045C00063682060013B81464FF400705E0803F091
:1045D0003CFFD4F800A049F8260005F5007207F169
:1045E0000C03A560E560A561E5612261226284E8B3
:1045F000800163616362BAF1000F04D003F01EFF13
:10460000504603F01BFF0023082284F82830E362A1
:104610006363A363E36323646364A364E364236564
:104620002263202003F011FF8046E0624FF4007007
:10463000276B114E03F009FF013F8646A0630FCEA2
:104640007F0808EB8705256425650EF50075E56391
:10465000E56404F16005C4F848E0C4F834E0C4F847
:1046600044E00FC596E80F0048F827E085E80F0002
:104670002046BDE8F08700BFA4930208504A514984
:10468000138A23F001031B041B0CF0B513820B7873
:104690005A1E012A7AD9032B00F0B280002B40F079
:1046A0008E80494A49491688978815899089484CCF
:1046B000484BBFB217FA86F616FA85F515FA80F060
:1046C00080B208805588D6885089D289B6B216FA49
:1046D00085F515FA80F010FA82F292B222801A78EB
:1046E000002A00F06B813C481A78A2B102783B4E58
:1046F000D2B240F23F1536F8122092B2AA420AD145
:104700000278374E12F1FF324FF0000518BF012238
:10471000027035801D701A7842B9324A12782AB177
:10472000314A05781278954200F0EC8102782F4DDD
:10473000DFF8C4E02E880F8802EB8202920112FAA1
:1047400086F2BEB22EF8126002782E882488DFF836
:10475000ACE0274F02EB8202920112FA86F2A4B279
:104760002EF812400A8892B23A802A8840F23F110D
:1047700092B28A4200F0C3812A88013292B22A8022
:104780001B78002B40F0B181154A12E11949174AF4
:1047900001F50050138800889BB298420D4B0AD156
:1047A000187840B10C48007842F20E050844012602
:1047B000002446551C701B78002B40F0D380F0BDC0
:1047C0000004004006000020EC020020020D002042
:1047D000040D00201C0D0020080D0020180D0020E5
:1047E000060D0020420D0020380D0020140D002081
:1047F000B86E0020480D00200003002000080020B3
:10480000964A974942F21003D35C964A002B00F077
:104810000B815488D5885089D389AAB212FA84F2C0
:1048200012FA80F212FA83F39BB20B808E4B8F4CFC
:104830001A78FAB98E4D20882A8880B292B29042B6
:1048400018DA08882A8880B292B2904212DB89482E
:1048500002780AB142786AB901221A700278864D4C
:10486000864F874ED2B200202A7038802A78D2B282
:1048700026F812001A78002A70D07F4E7F4A3078CE
:1048800015880F88DFF828E200EB8000800110FA1D
:1048900085F0BDB22EF81050108880B2002800F0CC
:1048A000C880734F25883888ADB280B2854280F2C7
:1048B000C0800D883888ADB280B28542C0F2B98020
:1048C00030781588DFF8B8E16A4FC0B2ADB22EF883
:1048D000105030786B4DC0B24FF0010E07F800E079
:1048E00096F800C017882E8DE86ADFF8C8E101301D
:1048F000BFB207EE900A07EE107AB0B2B8EEC77AF0
:10490000F8EE677A013067EE877A5F4E07EE100A9D
:1049100077EEA77A3068B8EEC77A002667EE877A16
:1049200007EE100AB8EE477A0EEB8C00C7EE276A46
:10493000C0ED006A1E7013889BB2B3F58C7F0DDA50
:104940001288EE6A514893B206FB0333DB08A0FBE2
:10495000032343F34F03002B00DDEB620B889BB274
:104960002380F0BD42F21003CB5C002B6CD13D4C98
:10497000414B1D7813882788B4F804E02689A08964
:104980009FED437A1FFA8EF414FA87F414FA86F432
:1049900014FA80F007EE900AF8EEE77AF5EE006A76
:1049A000A7EEE67AA80210FA83F301EB830181ED0A
:1049B000007A138801339BB21380F0BD354A2E482C
:1049C00012782AB1344A0578127895423FF48CAEB9
:1049D000324A15789DB9324D324E2D883788ADB2A6
:1049E000BD427FF781AE214D76882D88ADB2B542AC
:1049F000BFF67AAE0D88ADB2AE423FF775AE012577
:104A00001D701278002A57D01C4A274F274E0025C8
:104A100015800278D2B227F812500278D2B24FF63F
:104A2000FF7526F812505FE61488958810899389DF
:104A3000F3E6108840F23F1580B2A8426DD013888B
:104A400001339BB2138089E7064C0B4B1D7813880A
:104A50006788B4F806E06689E08991E7480D002090
:104A6000020D0020EC0200201C0D0020B86E00207A
:104A700004000020200D0020080D0020140D00204F
:104A8000C46E002000040040280000200FEAA00EA1
:104A900000E0FF44420D0020380D0020BA6E0020D7
:104AA000060D0020080000203C0D0020180D0020FD
:104AB000000300200C0D00201B4D1C4A06781288B4
:104AC0002D881B4FF6B2AD1A2DB227F81650057877
:104AD000EDB237F815502D0415D40578154E013A6E
:104AE000EDB292B226F81520FEE502781149D2B255
:104AF00031F8123001339BB221F81230F0BD0022A0
:104B00002A803DE6F0BD0678F6B237F8165005F576
:104B1000A0752DB227F81650DFE7074A002018705D
:104B2000D36A1E33D36219E7140D00200800002059
:104B30003C0D0020180D002000040040154B1B699F
:104B4000180602D4144B01221A70144B1A7832B989
:104B500002F1804202F504321169C90513D51A78B1
:104B60005AB902F1804202F504321169890504D470
:104B70001269D20501D5FF221A70094A536943F41C
:104B800060735361704712699005E8D501221A706D
:104B9000E5E700BF00000240FC020020440D0020B9
:104BA000003C0140114B1A7832B902F1804202F503
:104BB00004321169490513D51A785AB902F18042B5
:104BC00002F504321169090504D41269520501D5B0
:104BD000FF221A70064A536943F4406353617047D9
:104BE00012691005E8D501221A70E5E7430D00208F
:104BF000003C01400549064A0B8A23F001031B04CF
:104C00001B0C0B82136801331360704700080040CF
:104C10002C0D00202DE9F843434C4449226A0B88AF
:104C2000A3698988013A9342CDB206D00BB11D70B9
:104C3000A3690133A361BDE8F88394E80500666ABF
:104C4000331AA2EBA303012B12D94FF4007003F027
:104C5000FCFB7060A36903B11D70636A5A68E2616E
:104C600002F500710433A26121626362BDE8F8833A
:104C70006169771ABF10013707F10108B2EB480FDD
:104C800023D9A2EB08035B0800EB8308321D4145E2
:104C9000A2EB01023BD9930802D040461DF066FF0B
:104CA000D8F80030E36007F18046013E03F5007359
:104CB000236158F82630E36103F5007208EB86069D
:104CC000C4F8148022626662BFE7D2B15200961C1B
:104CD000B6F1804F25D2B00003F0B7FB626A61697C
:104CE000A6EB080304325B08521A00EB8308930812
:104CF000814608D1206803F0A1FBC4F800906660EB
:104D0000CEE70326E7E740461DF030FFF2E79008C4
:104D10004FEA8703C4D09B1A08EB03001DF026FF5F
:104D2000BEE719F0CAFC00BF386E0020004C0040FE
:104D3000F0B52B4A2B4C13882B4883B023F001038A
:104D400002A91B041B0C0025138021F8025DFEF74D
:104D50002DF82378032B08D8DFE803F03C36300227
:104D6000224B0621042219705A702048204F214EF0
:104D7000214D02F095FFDFF88CE0204A18482049C9
:104D8000247800238EF800303B7033802B80138012
:104D9000028842F20F0642F20E05012C92B201F592
:104DA00000548B554B550CBF4FF480614FF400718C
:104DB00042F001032180038003B0F0BD0B4B0021C2
:104DC000062219705A70D0E7084B0021052219708D
:104DD0005A70CAE7054B0021042219705A70C4E7C3
:104DE00000040040060000209C6700200C0000200A
:104DF0001C0D0020B86E0020140D0020060D0020B0
:104E0000480D0020420D00202DE9F04F2DED048BC0
:104E1000ADF5873DB9B002F06FF902F0EDF9FDF79D
:104E200067FBFDF7FDF9FDF78DFAFDF781FBFDF757
:104E3000F9FBC1489FEDC18ADFEDC19ADFF868B385
:104E4000FDF7C4FFFDF72AFBFFF772FFBD4802F034
:104E500027FF0DF50742E03238A9BB48FDF7D6F928
:104E6000BA4BBB4A1B88D2ED006ABA4A1BB2C3F5E3
:104E7000005307EE903AF8EEE77A87EEA67AFCEE5A
:104E8000C77ACDED057ABDF814301380B24BB34A22
:104E90001B88AC48138003F0D9F8B14B1B78042B66
:104EA00000F04B845A1E012A40F26C84032B00F060
:104EB0001E82002BEAD1DFF8F4A29AF8003003F04A
:104EC000FF0263B9A74B1B784BB1A74BA74C1B78CC
:104ED000DBB28BF8003001238AF8003022809AF888
:104EE0000030002BD2D0A04B9BF800101A789142D2
:104EF00000F091849D4C228823889BB21A2B91B29A
:104F000000F374840B22238825888B48984E0B96D7
:104F1000ADB21A2DCCBFD727CD2732AD9BB20097AB
:104F200001950027ADF8C870FDF798FE9BF800309A
:104F30009049914A914EDFF878829FED917A9FEDEA
:104F4000915ADBB2F2EE006A31F8130023888DED3E
:104F50002C5A9BB203FA80F382FB0321DA17C2EBCF
:104F6000E11202EB82029BF800108148A3EB82124F
:104F700001EB810192B202EB8113007836F8131035
:104F8000734B93ED004A714B1B8898F8000040B2B8
:104F900007EE900AF8EEE77A89B2C6EEA74A1BB28E
:104FA00026A8079007EE901AB8EEE76A07EE903A47
:104FB000F8EEE76AFEEE005AE6EE046A2CAB0993BF
:104FC000F6EE007AE6EE885AE5EEA47A67EE877A86
:104FD000F4EEC57AF1EE10FACDED267A00F30384F3
:104FE000B7EE007AF4EEC77AF1EE10FA8DED327A70
:104FF00000F12684FCEEE77ACDED057ABDF8143099
:1050000005939BF8003060499FED5D7A09785F4910
:10501000DFED5C5A099F03EB830302EB8313F2EE8F
:10502000006A31F813104A4BC7ED005AD3ED004A1D
:10503000464B1B8898F8000040B207EE900AF8EE45
:10504000E77A1BB286EEA75A89B206EE903A07EECF
:10505000901AF8EEE66AF8EEE77ABEEE006AE7EE3E
:10506000A46A079BF6EE007AA6EE886AE6EE057A59
:1050700067EE877AF4EEE57AF1EE10FAC3ED007A86
:1050800000F3AE83B7EE007AF4EEC77AF1EE10FAD1
:1050900085ED007A00F1D183FCEEE77ACDED067A5A
:1050A000BDF8183008932188394B89B2002900F0E7
:1050B00085830A93374B0693374B197879B99BF858
:1050C000001001EB810102EB811136F8110021493A
:1050D000098880B289B2884201DA012119701978F1
:1050E000002900F08D809BF8001001EB810102EB9C
:1050F000811236F81210174A128889B292B2914280
:105100007EDB2648028892B2002A74D0244F254EB6
:10511000D7ED005A2188B0F800E0328DF66A0136EA
:1051200007EE906AA1EB0E01F8EE677A89B277EE8E
:10513000A76A92B23EE000BF9C6700200000803862
:1051400000008C420C000020480D00200E000020C2
:1051500010000020040000204C2D00209867002043
:10516000060000201C0D0020080D0020400D00202E
:10517000000D00203C0D00206766666600030020DD
:105180000000574300005643010D00200008002096
:10519000C06E0020C26E0020906700209267002041
:1051A000BC6E002000040040380D0020420D00209D
:1051B0001400002007EE901A0132B8EEE77A924907
:1051C00007EE902A26EE877AF8EEE77A0A6867EE0D
:1051D000277A07EE102AB8EE477AB0EE086AC7EED3
:1051E000276AB5EE007AF0EE667AE5EE867A67EE2B
:1051F000877AC7ED007A2288002192B20280197066
:1052000023889B0700F0FC8223889BB2042B20DCC0
:1052100098F800305BB2002B1BDD0026374645F2C4
:105220008A29218898F800207848A5F8009052B281
:105230002B4689B2520096FBF2F292B2FEF7AEF81C
:1052400098F8003001375BB2B7EB430F06F1D70691
:10525000E7DB0A9F218823883A886C48019592B23F
:105260004FF4FC66009289B29BB2059A2E60FEF75D
:1052700021F9069A218823881288DDF8209001956B
:1052800092B240F21D56009289B29BB24A465F48E4
:105290002E60FEF70FF9069ABDF814103980A2F8B7
:1052A0000090238801339BB2238023889BB2B3F5FF
:1052B000A07F00F0BE82564E2288338892B2191D1C
:1052C0008A4200F0FF832488A4B2012C00F0D2822D
:1052D000504A51481388514923F001031B041B0C09
:1052E00013800068536A03EB00430B60CEE54C4B20
:1052F0001B78002B40F000824A490B78002B00F00D
:10530000FB814948494C4288638892B29BB29A42D9
:1053100004DA434B5B78002B40F0EE81404B1A7867
:1053200002F0FF03002A40F006820A78002A00F00B
:1053300002824188628889B292B2914202D0384B8F
:105340005B78DBB28BF800309BF80010344C384BA4
:10535000C9B2012262549BF80010C9B2002420F89F
:1053600011409BF80000334903EB800393ED000AE2
:105370000EA802F03FF80F9A6FF000439B1A032B20
:1053800040F25A8404222C490EA80DF0CFFE34AF0F
:105390000646329756F8083BB342044632AD00F059
:1053A000178432938368AB60636824486B60002184
:1053B00026AB2CAA61602172266000900193083808
:1053C00002922B462C914FF6FF74DF228C212694FB
:1053D000FEF72AFC286834AB984201D003F02EF87F
:1053E0000E9810AB984201D003F028F800238BF8F8
:1053F00000309BF80030012B3FF748AD9FED109A2D
:10540000DFED108A2BE000BF280000209C67002001
:1054100008000020000800402C0D0020300D002066
:10542000280D0020200D0020240D0020C46E002037
:105430000C0D00200C0000201C940208A467002022
:1054400000002043000057439BF800300133DBB2DB
:105450008BF800309BF80030012B3FF717AD9BF81D
:105460000030B84ADBB2D35C002BEDD09BF80030A3
:10547000B54EDBB236F813509BF80030DBB2ADB25C
:1054800036F81330A03D25EAE5759BB2AB4225DA2C
:10549000DFF8E4929BF80020D2B236F812300133E4
:1054A0009BB226F812309BF80030DBB236F813209E
:1054B0009BF80030DBB292B239F813309BB2A033C4
:1054C0009A42C1D19BF800309E48A049DBB200222D
:1054D000C2549BF80030DBB2CA54B5E79BF80030E9
:1054E000DFF89492DBB239F813309BB2AB42D1DBD8
:1054F00005EB85039B01964A0593AB020D9206933B
:10550000944A0C9226AB944A0A93DFF874A20B9249
:105510002CAB0DF1C80809939BF800300D99DFED15
:105520008F5A0B98DBB2B2EE007A39F813309BF841
:1055300000200978099902EB820205EB8212C1ED85
:10554000005A0C9931F81210854AD2ED004A854A6A
:105550001288007840B207EE900AF8EEE77A89B236
:1055600087EE275A12B206989BB290FBF3F303F52D
:105570008073C3F309037C4803F6040300EB830341
:1055800007EE901AF8EEE76A07EE902AB8EEE77A8F
:10559000BEEE006AA6EEA47AF6EE007AA7EE086ADE
:1055A000D3ED016A0A9BB0EE467AE7EE057AB0EEDB
:1055B000496AA6EEA96A67EEA87ABDEEC67AF4EE4D
:1055C000E57AF1EE10FA8DED077AC3ED007A40F33B
:1055D0008480F0EE657AFCEEE77ACDED087ABDF8CE
:1055E00020409BF80030DBB236F813309BB2A03B72
:1055F00023EAE3739D4208BFAAF800409BF80030FD
:10560000DBB236F813E09BF80030DBB21FFA8EFEF7
:1056100036F813709BF80030DBB2BFB236F81330A7
:105620009BB29E3B9D4264DB504BAEEB050183FB7E
:10563000013E4F4B7A1BCEEBE17E83FB02370EF12E
:105640003F0EC7EBE2774FEA4E1E1F371FFA8EFE62
:10565000BFB2BAF80020BDF81C30CDF8048092B279
:105660000092194622464348C8F800E0FDF722FFA1
:105670009BF80030CDF80480DBB2059939F813307F
:10568000BAF80000C8F8007080B29BB291FBF3F347
:105690009BB21946009022463648FDF70BFFAAF848
:1056A00000409BF80030DBB2013536F813309BB276
:1056B000AB42FFF6EFAE9BF80030069ADBB202F584
:1056C000806239F813300692059A9BB202F5A072F7
:1056D000AB420592BFF620AFDCE6B7EE007AF4EEFF
:1056E000C77AF1EE10FA88ED007A7FF574AF0124E5
:1056F00077E70027BE46ACE7124B5B78002B7FF4C0
:1057000075AE12494B78002B3FF470AE0E481A4C20
:105710000288238892B29BB29A42BFF6FFAD094B32
:105720001B78002B7FF462AE064B1A7802F0FF0361
:10573000002A3FF4FAAD012304E6104801F014F901
:10574000FFF7A4BB280D0020240D0020200D002011
:10575000000D00200003002014000020000056432C
:10576000100000200E000020480D00205655555511
:10577000ABAAAA2A9C670020C46E0020386E0020C5
:10578000C06E002000213248FCF748FA314B1A78ED
:10579000002A33D15B78002B3FF478AB01222E4BEB
:1057A0008BF800201B789BF800102948012B00EB98
:1057B000013149D0FCF7FEFCFFF768BB1F46BDF87E
:1057C00014E00A93254BA7F800E006932448254BE4
:1057D000224FBDF820E0A7F800E0197001806CE4CA
:1057E000F0EE657A58E4F0EE457A03E423889BB244
:1057F000FB2BB4BF00220B22FFF785BB0022CEE7B4
:105800002188194845F28A2689B22B466B222E80C0
:10581000FDF7C4FDF8E41B78144A154CDBB232F8EE
:105820001320238892B29BB29A42BFF664ABFFF773
:105830002DBB00238AF800303DE50123089332E4B4
:1058400001230593FFF7DDBBFCF788FCFFF71EBBC8
:10585000480D0020562D002006000020C26E0020BA
:1058600092670020906700209C670020180D0020A0
:10587000400D002098F80020C34952B292B214A8FB
:1058800002F046FC00220094C04B14A811460DF013
:10589000C9FB1CAE07461A9657F8083BBB42864622
:1058A0001AAC00F09C811A938368A360DEF8043080
:1058B00063600023CEF804308EF808306268CEF8BA
:1058C00000706FF000439B1A012B40F2B581022259
:1058D000AF4920460DF02AFC34AE07462E6057F83B
:1058E000083BBB42864600F0A1812B608368AB6019
:1058F000DEF80430099E6B600022079BDFF8B4924B
:10590000CEF80070CEF804208EF80820029601939D
:10591000CDF800903260079E45F28A271146A9F122
:1059200008002B4601223760FEF77EF9286834AB69
:10593000984201D002F082FD20681CAB984201D051
:1059400002F07CFD149816AB984201D002F076FD6F
:1059500098F800208C4920AF52B292B2384602F03B
:10596000D7FB01230022009338468A4B11460DF0E5
:1059700059FB079B84460DF1A00EC3F800E05CF8CC
:10598000083B6345804600F0458107990B608368BA
:105990008B600846D8F8043043600023C8F8043010
:1059A00088F808304268C8F800C06FF000439B1ABE
:1059B000012B40F24181022275490DF0B7FB0DF138
:1059C000D00E8446C5F800E05CF8083B634580468D
:1059D00000F015812B608368AB60099ED8F8043015
:1059E0006B60002245F28A20C8F8042088F808205D
:1059F000C8F800C0114602960194CDF800902B46DD
:105A000032602060CD226448FEF70EF9286834AB7E
:105A1000984201D002F012FD079B186828AB98420B
:105A200001D002F00BFD386822AB984201D002F0A1
:105A300005FD5A4B099C93ED000A5349002220466C
:105A400001F0D8FC62686FF000439B1A052B40F20E
:105A5000F3802046062252490DF068FB34AC86469E
:105A60002C605EF8083B7345844600F0BE802B60D6
:105A70008368AB60079EDCF804306B6000204FF653
:105A8000FF74CCF804008CF80800CCF800E02B463A
:105A900002960197CDF8009001223060FA213E482D
:105AA0003C60FEF7C1F8286834AB984201D002F0A0
:105AB000C5FC099B18682EAB98423FF409AC02F074
:105AC000BDFC05E40B9ADFED377A1278364A71880F
:105AD000D2ED004A354A9FED366A128898F80000E8
