:020000040800F2
:10000000000003208D570008DF570008E157000863
:10001000E3570008E5570008E75700080000000014
:10002000000000000000000000000000E957000888
:10003000EB57000800000000ED570008EF570008DC
:10004000DD570008DD570008DD570008DD570008C0
:10005000DD570008DD570008DD570008DD570008B0
:10006000DD570008DD570008DD570008DD570008A0
:10007000DD570008DD570008DD570008DD57000890
:10008000DD570008DD570008DD570008DD57000880
:10009000DD570008DD570008DD570008413900082A
:1000A000DD570008DD570008DD570008DD57000860
:1000B000DD570008E5330008293A0008DD5700083D
:1000C000DD570008DD570008DD570008DD57000840
:1000D000DD570008DD570008DD570008DD57000830
:1000E000C1390008DD570008DD570008DD5700085A
:1000F000DD570008DD570008DD570008DD57000810
:10010000DD570008DD570008DD570008DD570008FF
:10011000DD4D0008DD570008DD570008DD570008F9
:10012000DD570008DD570008DD570008DD570008DF
:10013000DD570008DD570008DD570008DD570008CF
:10014000DD570008DD570008DD570008DD570008BF
:10015000DD570008DD570008DD570008DD570008AF
:10016000DD570008DD570008DD570008DD5700089F
:10017000DD570008DD570008DD570008DD5700088F
:10018000DD570008DD570008DD570008DD5700087F
:10019000DD570008DD570008DD570008DD5700086F
:0C01A000DD570008DD570008DD5700089F
:1001B00010B5054C237833B9044B13B10448AFF3A1
:1001C00000800123237010BDCC020020000000003D
:1001D0001077020808B5034B1BB103490348AFF37E
:1001E000008008BD00000000D00200201077020847
:1001F00001F0FF01102A2BDB10F0070F08D010F8D8
:10020000013B013A8B422DD010F0070F42B3F6D1DB
:10021000F0B441EA012141EA014122F007047FF0F4
:1002200000070023F0E80256083C85EA010586EA4B
:10023000010685FA47F5A3FA87F586FA47F6A5FA87
:1002400087F68EB9EED1F0BC01F0FF0102F0070293
:1002500032B110F8013B013A83EA010313B1F8D13E
:100260000020704701387047002D06BF354603381F
:10027000073815F0010F07D1013015F4807F02BF58
:10028000013015F4C03F0130F0BC0138704700BFA9
:1002900010F8012B11F8013B012A28BF9A42F7D030
:1002A000D01A7047034613F8012B002AFBD1181A05
:1002B0000138704781F0004102E000BF83F0004345
:1002C00030B54FEA41044FEA430594EA050F08BFF1
:1002D00090EA020F1FBF54EA000C55EA020C7FEAB5
:1002E000645C7FEA655C00F0E2804FEA5454D4EB32
:1002F0005555B8BF6D420CDD2C4480EA020281EAFC
:10030000030382EA000083EA010180EA020281EA33
:100310000303362D88BF30BD11F0004F4FEA013185
:100320004FF4801C4CEA113102D0404261EB410194
:1003300013F0004F4FEA03334CEA133302D052421A
:1003400063EB430394EA050F00F0A780A4F10104D6
:10035000D5F1200E0DDB02FA0EFC22FA05F2801810
:1003600041F1000103FA0EF2801843FA05F35941F6
:100370000EE0A5F120050EF1200E012A03FA0EFC75
:1003800028BF4CF0020C43FA05F3C01851EBE3719F
:1003900001F0004507D54FF0000EDCF1000C7EEBBC
:1003A00000006EEB0101B1F5801F1BD3B1F5001FFA
:1003B0000CD349085FEA30004FEA3C0C04F1010419
:1003C0004FEA445212F5800F80F09A80BCF1004F42
:1003D00008BF5FEA500C50F1000041EB045141EAC4
:1003E000050130BD5FEA4C0C404141EB010111F4C5
:1003F000801FA4F10104E9D191F0000F04BF014670
:100400000020B1FA81F308BF2033A3F10B03B3F14D
:1004100020020CDA0C3208DD02F1140CC2F10C02DD
:1004200001FA0CF021FA02F10CE002F11402D8BF3B
:10043000C2F1200C01FA02F120FA0CFCDCBF41EA07
:100440000C019040E41AA2BF01EB0451294330BDD6
:100450006FEA04041F3C1CDA0C340EDC04F11404B3
:10046000C4F1200220FA04F001FA02F340EA03008A
:1004700021FA04F345EA030130BDC4F10C04C4F1D0
:10048000200220FA02F001FA04F340EA03002946B0
:1004900030BD21FA04F0294630BD94F0000F83F4FA
:1004A000801306BF81F480110134013D4EE77FEADD
:1004B000645C18BF7FEA655C29D094EA050F08BF29
:1004C00090EA020F05D054EA000C04BF194610460A
:1004D00030BD91EA030F1EBF0021002030BD5FEA4E
:1004E000545C05D14000494128BF41F0004130BD76
:1004F00014F580043CBF01F5801130BD01F00045CA
:1005000045F0FE4141F470014FF0000030BD7FEA3C
:10051000645C1ABF194610467FEA655C1CBF0B4637
:10052000024650EA013406BF52EA033591EA030F4E
:1005300041F4002130BD00BF90F0000F04BF002146
:10054000704730B54FF4806404F132044FF0000579
:100550004FF0000150E700BF90F0000F04BF0021F2
:10056000704730B54FF4806404F1320410F0004558
:1005700048BF40424FF000013EE700BF42004FEA53
:10058000E2014FEA31014FEA02701FBF12F07F43D0
:1005900093F07F4F81F06051704792F0000F14BFCD
:1005A00093F07F4F704730B54FF4607401F0004511
:1005B00021F0004120E700BF50EA010208BF704768
:1005C00030B54FF000050AE050EA010208BF70475D
:1005D00030B511F0004502D5404261EB41014FF4C6
:1005E000806404F132045FEA915C3FF4DCAE4FF0CA
:1005F00003025FEADC0C18BF03325FEADC0C18BFB1
:10060000033202EBDC02C2F1200300FA03FC20FA01
:1006100002F001FA03FE40EA0E0021FA02F114444E
:10062000C1E600BF70B54FF0FF0C4CF4E06C1CEA63
:1006300011541DBF1CEA135594EA0C0F95EA0C0FD8
:1006400000F0DEF82C4481EA030621EA4C5123EA4B
:100650004C5350EA013518BF52EA033541F480117A
:1006600043F4801338D0A0FB02CE4FF00005E1FB2D
:1006700002E506F00042E0FB03E54FF00006E1FB77
:1006800003569CF0000F18BF4EF0010EA4F1FF04BA
:10069000B6F5007F64F5407404D25FEA4E0E6D41FA
:1006A00046EB060642EAC62141EA55514FEAC5200B
:1006B00040EA5E504FEACE2EB4F1FD0C88BFBCF587
:1006C000E06F1ED8BEF1004F08BF5FEA500E50F138
:1006D000000041EB045170BD06F0004646EA0101FE
:1006E00040EA020081EA0301B4EB5C04C2BFD4EB30
:1006F0000C0541EA045170BD41F480114FF0000E29
:10070000013C00F3AB8014F1360FDEBF002001F096
:10071000004170BDC4F10004203C35DA0C341BDC10
:1007200004F11404C4F1200500FA05F320FA04F0E2
:1007300001FA05F240EA020001F0004221F0004116
:1007400010EBD37021FA04F642EB06015EEA430E89
:1007500008BF20EAD37070BDC4F10C04C4F12005B9
:1007600000FA04F320FA05F001FA04F240EA02006C
:1007700001F0004110EBD37041F100015EEA430E3D
:1007800008BF20EAD37070BDC4F1200500FA05F25D
:100790004EEA020E20FA04F301FA05F243EA0203DC
:1007A00021FA04F001F0004121FA04F220EA0200EB
:1007B00000EBD3705EEA430E08BF20EAD37070BD31
:1007C00094F0000F0FD101F00046400041EB010111
:1007D00011F4801F08BF013CF7D041EA060195F0F3
:1007E000000F18BF704703F00046520043EB0303AD
:1007F00013F4801F08BF013DF7D043EA060370479A
:1008000094EA0C0F0CEA135518BF95EA0C0F0CD0A4
:1008100050EA410618BF52EA4306D1D181EA0301EA
:1008200001F000414FF0000070BD50EA410606BFE4
:100830001046194652EA430619D094EA0C0F02D129
:1008400050EA013613D195EA0C0F05D152EA03366E
:100850001CBF104619460AD181EA030101F000418C
:1008600041F0FE4141F470014FF0000070BD41F0D5
:10087000FE4141F4780170BD70B54FF0FF0C4CF4AF
:10088000E06C1CEA11541DBF1CEA135594EA0C0FCE
:1008900095EA0C0F00F0A7F8A4EB050481EA030E1B
:1008A00052EA03354FEA013100F088804FEA033302
:1008B0004FF0805545EA131343EA12634FEA0222D0
:1008C00045EA111545EA10654FEA00260EF0004191
:1008D0009D4208BF964244F1FD0404F5407402D2E3
:1008E0005B084FEA3202B61A65EB03055B084FEA74
:1008F00032024FF480104FF4002CB6EB020E75EB71
:10090000030E22BFB61A754640EA0C005B084FEA98
:100910003202B6EB020E75EB030E22BFB61A754615
:1009200040EA5C005B084FEA3202B6EB020E75EB60
:10093000030E22BFB61A754640EA9C005B084FEAD8
:100940003202B6EB020E75EB030E22BFB61A7546E5
:1009500040EADC0055EA060E18D04FEA051545EAD4
:1009600016754FEA06164FEAC30343EA52734FEA7D
:10097000C2025FEA1C1CC0D111F4801F0BD141EAF6
:1009800000014FF000004FF0004CB6E711F4801F5B
:1009900004BF01430020B4F1FD0C88BFBCF5E06F3B
:1009A0003FF6AFAEB5EB030C04BFB6EB020C5FEA4B
:1009B000500C50F1000041EB045170BD0EF0004EA0
:1009C0004EEA113114EB5C04C2BFD4EB0C0541EAD2
:1009D000045170BD41F480114FF0000E013C90E6CF
:1009E00045EA060E8DE60CEA135594EA0C0F08BF93
:1009F00095EA0C0F3FF43BAF94EA0C0F0AD150EA92
:100A000001347FF434AF95EA0C0F7FF425AF104624
:100A100019462CE795EA0C0F06D152EA03353FF44C
:100A2000FDAE1046194622E750EA410618BF52EAC9
:100A300043067FF4C5AE50EA41047FF40DAF52EA9D
:100A400043057FF4EBAE12E74FF0FF3C06E000BF3A
:100A50004FF0010C02E000BF4FF0010C4DF804CD47
:100A60004FEA410C7FEA6C5C4FEA430C18BF7FEA07
:100A70006C5C1BD001B050EA410C0CBF52EA430C35
:100A800091EA030F02BF90EA020F0020704710F1B5
:100A9000000F91EA030F58BF994208BF90422CBF44
:100AA000D8176FEAE37040F0010070474FEA410C3D
:100AB0007FEA6C5C02D150EA013C07D14FEA430C5B
:100AC0007FEA6C5CD6D152EA033CD3D05DF8040BCC
:100AD000704700BF8446104662468C4619466346FE
:100AE00000E000BF01B5FFF7B7FF002848BF10F1D5
:100AF000000F01BD4DF808EDFFF7F4FF0CBF01201A
:100B000000205DF808FB00BF4DF808EDFFF7EAFF95
:100B100034BF012000205DF808FB00BF4DF808ED50
:100B2000FFF7E0FF94BF012000205DF808FB00BF45
:100B30004DF808EDFFF7CEFF94BF012000205DF8CF
:100B400008FB00BF4DF808EDFFF7C4FF34BF0120DC
:100B500000205DF808FB00BF4FEA410C7FEA6C5CA7
:100B600002D150EA013C0AD14FEA430C7FEA6C5CA7
:100B700002D152EA033C02D14FF0000070474FF01F
:100B8000010070474FEA410212F5001215D211D54B
:100B90006FF47873B3EB625212D94FEAC12343F07A
:100BA000004343EA505311F0004F23FA02F018BFFC
:100BB000404270474FF00000704750EA013005D1C5
:100BC00011F0004008BF6FF0004070474FF0000088
:100BD000704700BF4A0011D212F5001211D20DD594
:100BE0006FF47873B3EB62520ED44FEAC12343F033
:100BF000004343EA505323FA02F070474FF00000DD
:100C0000704750EA013002D14FF0FF3070474FF08B
:100C1000000070474FEA4102B2F1E04324BFB3F550
:100C2000001CDCF1FE5C0DD901F0004C4FEAC00263
:100C30004CEA5070B2F1004F40EB830008BF20F047
:100C40000100704711F0804F21D113F13872BCBF01
:100C500001F00040704741F480114FEA5252C2F156
:100C60001802C2F1200C10FA0CF320FA02F018BF9F
:100C700040F001004FEAC1234FEAD32303FA0CFCF2
:100C800040EA0C0023FA02F34FEA4303CCE77FEA81
:100C9000625307D150EA01331EBF4FF0FE4040F4CB
:100CA0004000704701F0004040F0FE4040F400007A
:100CB000704700BF53B94AB9002908BF00281CBFBC
:100CC0004FF0FF314FF0FF3000F07AB9ADF1080C72
:100CD0006DE904CE00F006F8DDF804E0DDE902235A
:100CE00004B070472DE9F0478C460D460446089E37
:100CF000002B51D18A4217466DD9B2FA82FEBEF15D
:100D0000000F0BD0CEF1200C01FA0EF520FA0CFCEE
:100D100002FA0EF74CEA050C00FA0EF44FEA174AF5
:100D2000250CBCFBFAF81FFA87F90AFB18CC45EA38
:100D30000C4508FB09F3AB420AD9ED1908F1FF3263
:100D400080F02381AB4240F22081A8F102083D44AB
:100D5000ED1AA4B2B5FBFAF00AFB105544EA0544BB
:100D600000FB09F9A14509D9E41900F1FF3380F02E
:100D70000A81A14540F2078102383C44A4EB0904F2
:100D800040EA08400021002E61D024FA0EF400232E
:100D900034607360BDE8F0878B4207D9002E54D0D1
:100DA000002186E821000846BDE8F087B3FA83F108
:100DB000002940F08E80AB4202D3824200F2FA80DA
:100DC000841A65EB03050120AC46002E3FD086E86F
:100DD0001010BDE8F08712B90127B7FBF2F7B7FA98
:100DE00087FEBEF1000F34D1EB1B3A0C1FFA87FCD3
:100DF0000121B3FBF2F8250C02FB183345EA034549
:100E00000CFB08F3AB4207D9ED1908F1FF3002D211
:100E1000AB4200F2D1808046ED1AA3B2B5FBF2F0EE
:100E200002FB105543EA05440CFB00FCA44507D91E
:100E3000E41900F1FF3302D2A44500F2B88018464D
:100E4000A4EB0C0440EA08409DE731463046BDE87B
:100E5000F087CEF1200405FA0EF307FA0EF720FA18
:100E600004F83A0C25FA04F448EA0308B4FBF2F15A
:100E70004FEA184502FB11441FFA87FC45EA044576
:100E800001FB0CF3AB4200FA0EF409D9ED1901F1A4
:100E9000FF3080F08A80AB4240F2878002393D44C7
:100EA000EB1A1FFA88F5B3FBF2F002FB103345EAA8
:100EB000034500FB0CF3AB4207D9ED1900F1FF38F5
:100EC0006FD2AB426DD902383D44EB1A40EA014182
:100ED0008FE7C1F1200722FA07F88B4005FA01F4E9
:100EE00048EA030320FA07FE4FEA134CFD404EEA9E
:100EF000040EB5FBFCF94FEA1E440CFB19551FFA12
:100F000083F844EA054509FB08F4AC4202FA01F211
:100F100000FA01FA08D9ED1809F1FF3043D2AC42CA
:100F200041D9A9F102091D442D1B1FFA8EFEB5FB04
:100F3000FCF00CFB10554EEA054400FB08F8A045F8
:100F400007D9E41800F1FF3529D2A04527D9023886
:100F50001C4440EA0940A4EB0804A0FB02894C456C
:100F6000C6464D4615D312D056B1BAEB0E0364EB0C
:100F7000050404FA07F7CB401F43CC403760746088
:100F80000021BDE8F0871846F8E69046E0E6C24545
:100F9000EAD2B8EB020E69EB03050138E4E7284614
:100FA000D7E7404691E78146BEE7014678E7023839
:100FB0003C4445E7084608E7A8F102083D442BE712
:100FC000704700BF000000002DE9F047054600F51E
:100FD00000534FF480621A80012242F20203C2548D
:100FE000002442F20E03C45442F20F03C45442F2EE
:100FF0001003C45444F21C02831803F10801815009
:101000005C6044F22403C45444F23403C45044F2F8
:101010003803C45244F23A068219254B03CBA85137
:1010200051601B88138145F64423EC5405F5005AA2
:101030000AF1140A0FF27009D9E9008900261D4F40
:1010400007EE904AF8EEE77A77EEA77A17EE900A65
:10105000FFF794FA42464B46FFF7E4FA32463B4626
:10106000FFF7E0FA41EC100B1EF026F951EC100BE3
:10107000FFF7D0FD4AF8040B0134B4F5806FDFD1DF
:1010800005F58043433305F5B4404330502103F563
:10109000807203F8011F9342FBD113469042F6D1B0
:1010A0002846BDE8F08700BF182D4454FB210940B5
:1010B000287702080000503F31B10D4B1B780344E4
:1010C000002142F20E0299540A4B1B787BB942F27E
:1010D0000E03C35C1BB142F20F02825C3AB90121DC
:1010E000044A11700021044A1180044A13707047A9
:1010F000340D0020180D0020100D0020040D0020DC
:101100002DE9F04F2DED048B89B082460F464FF04C
:10111000010BCDF80CB0002304931C461D469FED37
:10112000C39AF7EE008A9FEDC28AB5E045F64422E5
:101130001AF80210DBB20AEB0122904444F2440296
:1011400008F80230012C37D0631C9BB29846B3429A
:101150003ADAFF2B3ADC0134A4B207EB840393EDB7
:10116000000A08F604430AEB8303D3ED010A05F0F5
:101170001CFE20EE090A38EEC00A20EE080AFCEE3A
:10118000C07ACDED027ABDF808301D2BCEDC0135DA
:10119000ADB2C82DCADDA74A138801339BB21380B4
:1011A000A54B1B785344002142F20E02995409B01A
:1011B000BDEC048BBDE8F08F0AEB01218B54022EAD
:1011C00015DD4FF00208C6E71C4600E01C46039BF5
:1011D0001A1F12B21046B2422EDC4FF0000C6146CC
:1011E0004FF001090AF5B44808F1440806E002246A
:1011F000EDE7013212B21046B24220DC92B2FF2A71
:10120000F7D8ABEB0003002BB8BF5B42C3F104037C
:1012100009FA03F39BB29C441FFA8CFC98F800E097
:101220000AEB0E2E704444F2440E10F80E0010FB30
:1012300003F3194489B2DCE74FF0000C614608A8BB
:10124000049A00EB4203B1FBFCF123F8081C13469F
:1012500001335A4203F0030302F0030258BF534222
:101260009AB20492BBF1030F0FDD45F644221AF83F
:1012700002200AEB022293449BB200EB430333F8B3
:10128000082C44F240030BF80320039B01339BB26C
:1012900003939B46FF2B08DCA0460BF10406B442E7
:1012A00095DAFF2C7FF759AF91E701215046FFF700
:1012B00003FF45F644201AF800305A1C5F4981FBB1
:1012C0000231D317C3EBE1031A2101FB13230AF800
:1012D0000030002303934FF0010B2EE0ABB103EB82
:1012E0008302029901EB021292B2059901F5805036
:1012F00004300AEB80000024416821F81240013BD1
:101300009BB2503A92B2002BF6D14D4B04990A464B
:10131000A3FB02239B0903EB8303A1EB03139BB203
:10132000002B00F091800BF1010B039B0133039321
:1013300040F241139B453FF43AAF1FFA8BF30493FD
:10134000404A03990B4682FB0332CB17C3EB62136F
:1013500003F001021446059203EB8303A1EB031390
:101360009BB202934FF4FC60762603274FF0000CEB
:10137000D7230AF5B44909F1440904F5805E0EF15A
:10138000040E0AEB8E0E20E0DEF8044024F8120072
:10139000013B9BB21C46503A92B263B1A14201DDBF
:1013A000A54208DCA142EFDAA542EDDADEF80440FE
:1013B00024F81280ECE70CF1010C0237053EB6B2BE
:1013C000403880B2BCF11A0F88D05F45F3DA07F5D8
:1013D00080725A45EFDD99F8002002EB0C01174AA4
:1013E00082FB0124CA17C2EBE4021A2404FB121286
:1013F00012B2ABEB07010AEB0222114444F244049F
:10140000095D314409B20BF1FF35ED1B2A44155D2E
:1014100035442DB21C46002BCDD003EB8308029A35
:1014200002EB081292B24FF00008B7E700008037D5
:101430000000A042FA020020340D00204FECC44E00
:10144000CDCCCCCC676666660B4B5A680B4B1A60EA
:101450005039059B03F5805304330AEB83035B6823
:101460000193D7230093BDF80C30002289B20448C1
:1014700001F04EFB57E700BFA0640240300D002092
:101480009867002044F21403C15044F21803C2507C
:101490007047000070B582B005460E4671B1541A0F
:1014A00001940F2C0ED82868012C14D0B4B9019BDC
:1014B0006B602A680021D15402B070BD9AB10B480C
:1014C0001BF0D1FA002201A928460FF073FD286015
:1014D000019BAB60E7E733780370E8E722463146CB
:1014E0001FF009FDE3E7541A0194DCE7787702085E
:1014F0002DE9F04F2DED048BB5B083460A9100F530
:1015000000520E3200F500530433002123F8021B71
:101510009342FBD1002344F234024BF80230012500
:10152000AA4609934FF0FF320792984699469FEDDD
:10153000549ADFED548A9FED548A0A9B03EB8A0389
:1015400093ED000A05F604430BEB8303D3ED010A88
:1015500005F02BFC079B032B37DCB4EEC90AF1EE38
:1015600010FA62DDB3F1FF3F03D0099B0133AB42B8
:1015700003DA079B01331BB207930FFA8AF309932F
:10158000079B0BEB430344F23A0233F802E042F2CA
:1015900004029A5A62B144F234025BF8022007EE68
:1015A000902AF8EE677AF4EEC07AF1EE10FA10D5D0
:1015B00042F2040223F802A044F23402FCEEC07AA4
:1015C00017EE903A4BF8023003E04FF01F0ECDF8C3
:1015D000249020EE280AF7EE007A77EEC07A67EEC4
:1015E000887AF4EE487AF1EE10FAC8BFF0EE487A45
:1015F000FCEEE77ACDED087ABDF820606B1E23493A
:1016000081FB0321DA17C2EB611202F0010402EB45
:101610008202A3EB02139BB2002204F58051043135
:101620000BEB810142F210771DE04FF01F0ECDF859
:101630002490CEE7164A138801339BB21380154BD2
:101640001B785B44002142F20E02995435B0BDEC88
:10165000048BBDE8F08F486820F8139001325033B6
:101660009BB2D82A18D09642F5DC08F101080FFA8F
:1016700088F8B845DEDC486820F813E0EEE700BFE4
:101680000050434700000036000057436766666617
:10169000FA020020340D00209E4BA3FB0A239B0975
:1016A00003EB8303AAEB03139BB2ABB9F02D00F35A
:1016B00006810AF1FF33AAF1500104F58054043485
:1016C0000BEB840462680192D72200929BB24A46D7
:1016D00089B2914801F01CFA0AF1010A1FFA8AFA4C
:1016E0005546BAF5A07F7FF728AF42F202031BF8F8
:1016F0000330002BAAD042F204033BF80350002D24
:10170000A4D0864A138D99B2D26A854B93ED007AA4
:10171000B8EE477A07EE905AF8EEE77A27EE277A86
:101720000132D30201FB033307EE903AF8EE677AF9
:10173000C7EE276A7B4BC3ED006A93ED000AF2EE19
:10174000047A80EE270A1DF0FFFDF2EE007AB4EE77
:10175000670AF1EE10FA48BFB0EE670AFCEEC07AF5
:10176000CDED077ABDF81C40631B002BB8BF5B4270
:10177000012B40F31982694BDB6A03FB04F3B3FBD3
:10178000F5F344F238022BF8023005F18043013BB7
:101790000A9A02EB83031868FEF7F0FE804689463A
:1017A00005F603430BEB83035868FEF7E7FE064696
:1017B0000F4642464B4640464946FEF733FF8046B9
:1017C000894632463B4630463946FEF72BFF0246F5
:1017D0000B4640464946FEF773FD41EC100B1DF0E9
:1017E00059FEB0EE409AF0EE609A42F204033BF8E4
:1017F00003506B1C0A9A02EB83031868FEF7BEFEC7
:101800008046894605F605430BEB83035868FEF7CF
:10181000B5FE06460F4642464B4640464946FEF751
:1018200001FF8046894632463B4630463946FEF740
:10183000F9FE02460B4640464946FEF741FD41ECA3
:10184000100B1DF027FE51EC100BFFF79BF907EE74
:10185000900AB8EEE78A51EC190BFFF793F907EEFF
:10186000900AF8EEE76A2F4B93ED007A07EE904A64
:10187000F8EEE77A37EE077AB0EE666A07EE276A87
:10188000B4EEC86AF1EE10FA40F1958144F23802E4
:101890003BF80230013B2BF8023044F238033BF8AE
:1018A00003305A1E92B241F26E718A423FF6CEAEBA
:1018B0001A4AD26A9A421CBF184AD362C6E601216C
:1018C0005846FFF7F9FB42F204033BF80330002BC4
:1018D0003FF4EFAE4F464D4604F58052043292007D
:1018E0000D4908310891CDF82C800C943C46CDF878
:1018F00034A09246B5E00C481BF0B8F80DF1700C1E
:10190000034653F8080F59689A68DB68ACE80F0083
:10191000DDE000BFCDCCCCCC9867002000040040B7
:1019200028000020906700205077020826991AA806
:101930000FF0DCFD064616AB1493374657F8083B0C
:10194000BB4200F00C811493B3681693736815932F
:101950003760C6F8049086F80890159BC3F1FF43E2
:1019600003F5FF0303F5FF437F33012B40F20281B0
:1019700002229B4914A80FF0B9FD064610AB0E9346
:10198000074657F8083BBB4200F0F7800E93836888
:10199000109373680F933760C6F8049086F8089028
:1019A000149816AB984201D004F02CFF269828AB6F
:1019B000984201D004F026FF1A981CAB984201D03F
:1019C00004F020FF209822AB984201D004F01AFFC7
:1019D0000BEB0A03D3F804802CAF2EAE2C960E9995
:1019E0004FF000030F9A0A443846FFF753FD04F501
:1019F00000531C330BEB43035B88329334AB43F847
:101A0000049D013404EB8404A20092B2049332AB2F
:101A10000393089B02930197CDF800805023494619
:101A2000704800F032FE2C98B04201D004F0EAFE7B
:101A30006D4B5A686D4B1A600E9810AB984201D0EE
:101A400004F0E0FE0135EDB22C46042D00F3A08039
:101A50002F460BF50053043333F81530002B00F0FC
:101A60009D8007EE903AF8EE677A42F204033BF865
:101A7000033007EE103AB8EEC77AC7EE876A16EE63
:101A8000900AFEF77BFD41EC100B1DF0CDFB51ECF5
:101A9000100BFFF79FF882B2554920A803F07AFF98
:101AA0006FF00043219A9A423FF425AF0122514939
:101AB00020A80FF01BFD06461CAB1A9386465EF865
:101AC000083B73453FF41AAF1A9383681C937368FD
:101AD0001B93C6F800E0C6F8049086F808904649C3
:101AE0000B8D9AB2CB6A454991ED007AB8EE477AF0
:101AF0000BF50051043131F8171007EE901AF8EE8B
:101B0000E77A27EE270A0133DB0202FB033307EEF5
:101B1000903AF8EE677A4A4680EE270A344926A8BA
:101B200004F046F81B99279A8E181A9B1CA883422A
:101B300014BF1C980F2086427FF6F8AE269828AF77
:101B4000B84214BF28980F2086423FF6EFAE0091AE
:101B50004A46494626A80FF045FC0646EBE60DF13D
:101B6000580E334653F8080F59689A68DB68AEE898
:101B70000F00EBE622481AF079FF0DF1400E034604
:101B800053F8080F59689A68DB68AEE80F0000E761
:101B9000DDF82C800C9CDDF834A08AE5DDF82C8083
:101BA0000C9CDDF834A084E5134BDA6A44F2380368
:101BB0002BF80320E9E5134B93ED007A37EE077A13
:101BC00007EE278AB4EEE68AF1EE10FA7FF565AEED
:101BD00044F238023BF8023001332BF802305CE665
:101BE0006877020898670020A0640240300D00204A
:101BF0000C000020508D0208000400402800002046
:101C00005077020890670020F0B5ABB004468F49CA
:101C10000B8D9AB2CB6A8E4991ED000AB8EE400A5C
:101C20000133DB0202FB033307EE903AF8EE677AEA
:101C3000012280EE270A874916A803F0B9FF179BF7
:101C4000C3F1FF4303F5FF0303F5FF437F33022B8B
:101C50004CD90322804916A80FF048FC054612AB68
:101C60001093064656F8083BB34242D0109383685F
:101C700012936B6811932E6000236B602B72734973
:101C80000B8D9AB2CB6A7249D1ED007AF8EE677A81
:101C90009FED720A67EE807A0133DB0202FB0333A9
:101CA00007EE103AB8EE470A012287EE800A69492A
:101CB0001CA803F07DFF11981D9A8118109B12AD8E
:101CC000AB4214BF129D0F25A9421BD91C9E1EAD0D
:101CD000AE4214BF1E9D0F25A94213D800900022CA
:101CE00011461CA80FF07EFB054610E05C481AF078
:101CF000BDFE12AF034653F8080F59689A68DB68B7
:101D00000FC7B6E71C9910A80FF0F0FB05460CAB07
:101D10000A932E4656F8083BB34276D00A93AB6836
:101D20000C936B680B932E6000236B602B720B9BE4
:101D3000C3F1FF4303F5FF0303F5FF437F33032B99
:101D40006CD9042247490AA80FF0D0FB054606AB20
:101D50000493064656F8083BB34262D00493836866
:101D600006936B6805932E6000236B602B720A98B4
:101D70000CAB984201D004F045FD1C981EAB984274
:101D800001D004F03FFD109812AB984201D004F04E
:101D900039FD169818AB984201D004F033FD059D2B
:101DA00004F580431C335B689D4243D024AE2296E9
:101DB00004994FF000034A1922A8FFF76BFB4FF676
:101DC000FF7328932AAB002243F8042D2648029380
:101DD00028AB019300F10803009322ABDF227821A6
:101DE00000F056FF2298B04201D004F00BFD04A988
:101DF00004F580401C300FF06AF9049806AB984255
:101E000001D004F0FFFC2BB0F0BD0CAF2B4653F813
:101E1000080F59689A68DB680FC782E710481AF004
:101E200025FE06AF034653F8080F59689A68DB6829
:101E30000FC796E7002DE0D02A4644F21C03E15874
:101E400004981FF049F80028D7D0AFE700040040FD
:101E5000280000200C0000206C77020800809F43BF
:101E60005077020870770208986700202DE9F04F3C
:101E700083B00746009100F500542088FEF75CFB14
:101E800041EC100B1DF0BCF951EC100BFEF7A2FE5B
:101E900023884BB180B2DDF800E071460022C0F12A
:101EA000200007F5005413E007F500531B88012BB1
:101EB00040F3FD804FF0010B07F5005ECDF804B054
:101EC000DFED7E3A3CE00132043123889342EBDDC2
:101ED00092FAA2F363FA00F39BB29342F3DD0D682A
:101EE0000EEB83031E680E601D60ECE7BEF8003049
:101EF000FBB1009B043307F5405114310022D3EDB0
:101F0000007A13ED017A37EE677A83ED007AC1ED3E
:101F1000013A13ED017A77EE877A43ED017A13EEF9
:101F2000900A41F8080B02320833BEF800009042D4
:101F3000E5DC4FEA4B0BBEF800305B4540F3B78061
:101F4000BBF1010FD2D0BBEB530F5FD0BBF1000F41
:101F5000EFDD4FEA4B0CDDF800A007F5405909F121
:101F600014094FEACB064FEA8B054FF000084FEA01
:101F7000882393FBFCF307EB830303F50052143231
:101F8000D2ED004A03F51053143393ED004ABEF826
:101F90000030434531DD09EB05014A4653464446CE
:101FA000D3ED005A92ED007A5819D0ED006AD1EDC8
:101FB000007A24EE265A24EEA76A35EE466A64EECD
:101FC000277A64EEA66A77EEA67A75EEC66AC0ED49
:101FD000006A77EE676AC1ED006A35EE866A83EDC6
:101FE000006A77EE277AC2ED007A644443193244DE
:101FF0003144BEF80000A042D2DC08F101080AF129
:10200000040A09F10409D845B1D192E7BEF80030BD
:10201000032B8ED94FEA4B0001220199009C9302B9
:1020200093FBF0F39BB207EB830303F500551435E4
:10203000D5ED007A03F51053143393ED007A0BEBD2
:1020400002039B00E518D5ED006A3B4404EB8106D2
:1020500096ED006A67EE265A03F540531433D3ED2C
:10206000006A67EEA66A75EEE66A76EE866AC6EDE7
:10207000006AD5ED006A07EB820202F54052143285
:1020800093ED006A27EE067A67EEA67A77EE277A56
:10209000D2ED006A77EEA67AC2ED007A013189B2FC
:1020A0000A46BEF80030B1EB530FB8DB41E73846C3
:1020B000FFF7AAFD03B0BDE8F08F00BF00000000ED
:1020C000F8B504460D46104B1A8822F0010212049E
:1020D000120C1A800D4E37685A6A02EB07420C4FF9
:1020E0003A609A8A92B242F001029A821A8892B2B7
:1020F00042F001021A8000233360FFF7B7FE294641
:102100002046FFF7F5F9F8BD00080040280D002033
:102110002C0D0020F8B504460D46104B1A8822F00D
:1021200001021204120C1A800D4E37685A6A02EB33
:1021300007420C4F3A609A8A92B242F001029A82A8
:102140001A8892B242F001021A8000233360FFF72E
:102150008DFE29462046FEF7D3FFF8BD000800405B
:10216000280D00202C0D0020414A136B43F004037E
:102170001363136B43F008031363136B43F02003E3
:102180001363536C43F4801353643A4B196841F062
:1021900080611960996841F08061996036490868EA
:1021A00040F010000860886840F0100088601968EE
:1021B00041F080711960D96841F08071D96003F5F0
:1021C0000063196841F400411960996841F4404185
:1021D0009960196A41F0A0411962196841F400310F
:1021E0001960996841F440319960596A41F00501DC
:1021F0005962196841F400211960996841F440213D
:102200009960596A41F050015962A3F54443198815
:1022100089B241F400711980198889B241F4807142
:102220001980198889B241F008011980198889B28A
:1022300041F004011980198889B241F040011980E8
:10224000136B43F4800313630C4B1A6842F0606213
:102250001A601A6842F400521A601A6842F4006266
:102260001A601A6842F040021A60054A9A60704784
:1022700000380240000C024000080240A064024006
:102280000C5001404E490B6C43F001030B644FF0BE
:1022900080439A8892B242F040029A8013221A85B3
:1022A0003122DA625A631A8C92B242F001021A8425
:1022B0001A8B92B242F060021A831A8892B242F0EC
:1022C00001021A800B6B43F001030B630B6B43F0AD
:1022D00004030B634B6C43F480734B64394A1368FB
:1022E00043F0C0031360A2F50062136843F4406337
:1022F0001360A2F56042536843F4807353604FF457
:102300008013D362536B43F00D035363536B43F05D
:10231000A0035363D36843F44063D360136943F469
:1023200040331361936843F480639360936843F090
:1023300080539360936843F0C0639360936843F461
:1023400080739360936843F4007393600B6B43F462
:1023500080030B631C4B196821F0C00119601968D8
:1023600041F400311960196841F40061196019687D
:1023700041F400511960196821F40071196019685D
:1023800041F480611960196841F48071196019681D
:1023900021F0C0011960596841F0080159600B49EA
:1023A00099600B49D960196821F06061196019685A
:1023B00041F001011960936843F001039360704795
:1023C0000038024000080240106402404C200140E6
:1023D000E8020020104A136C43F0020313640F4B11
:1023E00032221A854FF49672DA629A8992B242F0DA
:1023F00001029A810A4A4FF000511160002182F8CF
:102400001D131A8892B242F001021A809A8A92B27F
:1024100042F001029A8270470038024000040040F6
:1024200000E100E00C4A136C43F004031364A2F5CE
:102430000C320A2313854FF6FF73D36293899BB244
:1024400043F001039381054B4FF080421A60002254
:1024500083F81E23704700BF0038024000E100E00F
:10246000354B1A6B42F001021A631A6B42F01002EC
:102470001A635A6C42F480425A64304AD36843F477
:102480008043D3602E4BDA6842F48032DA60DA6837
:1024900042F48022DA60DA6842F48012DA60DA68A4
:1024A00042F48002DA60274AD368D360264BD968A9
:1024B00041F08001D960196841F08001196011690B
:1024C00041F004011161D96841F48071D960196843
:1024D00041F480711960116941F040011161D968BE
:1024E00041F40071D960196841F4007119601169F3
:1024F00041F480611161D96841F48061D960196843
:1025000041F480611960116941F480411161DA6818
:1025100042F40062DA601A6842F400621A600B4BFF
:10252000302283F817234FF40001196083F8282321
:102530004FF480725A607047003802400000024039
:102540000010024000380140003C014000E100E082
:10255000184A136C43F400231364174B1A6842F4AF
:1025600000021A605A6A42F400425A62A3F5DE334E
:102570001A8992B242F4B4621A819A8922F4805282
:102580001204120C9A819A8992B242F004029A8142
:102590009A8992B242F020029A81084A302182F848
:1025A00034134FF4801151609A8992B242F4005270
:1025B0009A817047003802400008024000E100E0C4
:1025C00030B4034600240470F02242804FF4A0721D
:1025D0008280094A00F1080592E8030085E80300BB
:1025E00003F11005083292E8030085E8030083F840
:1025F0009846184630BC70473477020882B0019183
:10260000019B2BB1019B013B0193019B002BF9D155
:1026100002B070472DE9F04F099D0B9CDDF830E0CA
:10262000DDF834C0667876B312FB031290B2002254
:1026300017469DF82880A8F120089146924606FB8F
:102640000821626832F811B02278A2B14E46524693
:10265000811889B20BFA06F616F4004F14BFDEF8A3
:102660000060DCF8006025F81160013292B2164675
:1026700021788A42ECDB0137BFB23A4666781844CB
:1026800080B2B742DBDBBDE8F08F2DE9F04F89B0B7
:1026900083460C4606920793DDF848A0139B149ED0
:1026A000DDF85490DDF858801D685F682F44AF4214
:1026B00014D0CDF81080CDF80C90029615F8013B9F
:1026C0000193CDF800A0079B069A21465846FFF7D4
:1026D000A1FF33781C44A4B2AF42EAD109B0BDE8EF
:1026E000F08F00000E4A138823F040031B041B0CDC
:1026F00013800B78012B0DD0094A138823F4006353
:102700001B041B0C1380064A13889BB243F0400342
:102710001380704713889BB243F400631380F2E781
:102720000050014030B583B0264A274C274D5368EE
:10273000002BFCD16368002BF9D12B8913F0030F18
:10274000F5D02B8913F0800FF1D1214A538B9BB226
:1027500043F4005353830D7802F5B14208321A490D
:102760001A4C5368002BFCD14B68002BF9D12389FC
:1027700013F0030FF5D0238913F0800FF1D1134B21
:102780001B8813F4006F15D1ADB2104B9D810D4A1B
:102790000D4918465368002BFCD14B68002BF9D12A
:1027A000038913F0030FF5D0038913F0800FF1D1E3
:1027B00003B030BD02A9002301F8013DFFF792FFED
:1027C000E2E700BF88640240A0640240005001407C
:1027D000000C02402DE9F04F83B081468846334A11
:1027E000334934485368002BFCD14B68002BF9D196
:1027F000038913F0030FF5D0038913F0800FF1D193
:10280000D8F800104846FFF78DFF2B4A138B9BB278
:1028100043F400531383D8F80020D8F804309B1AEF
:10282000012B40D901210F46204C214D214E4FF064
:10283000000A11E08DF807A00DF107014846FFF7E7
:1028400051FF1DE00137FFB23946D8F80020D8F813
:1028500004309B1A9F4226D212F801B06368002B05
:10286000FCD16B68002BF9D1338913F0030FF5D03D
:10287000338913F0800FF1D1338813F4006FD9D16D
:102880001FFA8BFBA6F80CB06368002BFCD16B68B9
:10289000002BF9D1338913F0030FF5D0338913F0EE
:1028A000800FCFD0F0E703B0BDE8F08F886402401E
:1028B000A064024000500140000C024030B583B0DB
:1028C0001D4A138B9BB243F4005313830D7802F51A
:1028D000B142083219491A4C5368002BFCD14B689D
:1028E000002BF9D1238913F0030FF5D0238913F0BE
:1028F000800FF1D1124B1B8813F4006F15D1ADB2CC
:102900000F4B9D810F4A0D4918465368002BFCD18F
:102910004B68002BF9D1038913F0030FF5D003891D
:1029200013F0800FF1D103B030BD02A9002301F8EC
:10293000013DFFF7D7FEE2E7000C0240A064024031
:10294000005001408864024030B583B004460D4613
:1029500002A9362301F8053DFFF7E4FE032D1FD839
:10296000DFE805F00209101702A9582301F8043D19
:102970002046FFF7A3FF02A9882301F8033D204664
:10298000FFF79CFF02A9282301F8023D2046FFF72C
:1029900095FF02A9E82301F8013D2046FFF78EFFCD
:1029A0002570012D06D94FF4A0736380F023A38016
:1029B00003B030BDF02363804FF4A073A380F7E72A
:1029C00070B582B004460D46384A138B9BB243F46F
:1029D000005313830E88360A02F5B1420832344997
:1029E00034485368002BFCD14B68002BF9D1038984
:1029F00013F0030FF5D0038913F0800FF1D12D4BA5
:102A00001B8813F4006F40D1B6B22A4B9E812A4A2C
:102A1000274918465368002BFCD14B68002BF9D18D
:102A2000038913F0030FF5D0038913F0800FF1D160
:102A30002D88214A1E491F485368002BFCD14B6842
:102A4000002BF9D1038913F0030FF5D0038913F09C
:102A5000800FF1D1174B1B8813F4006F1DD1EDB21D
:102A6000144B9D81144A124918465368002BFCD11F
:102A70004B68002BF9D1038913F0030FF5D00389BC
:102A800013F0800FF1D102B070BD02A9002301F84C
:102A9000013D2046FFF726FEB6E702A9002301F814
:102AA000023D2046FFF71EFED9E700BF000C0240A2
:102AB000A0640240005001408864024010B584B018
:102AC0000446ADF80610ADF80420ADF8023004A9B4
:102AD0002A2301F8023DFFF725FE0DF106012046ED
:102AE000FFF76EFF0DF102012046FFF769FF04A911
:102AF0002B2301F8013D2046FFF714FE01A92046D3
:102B0000FFF75EFF06A92046FFF75AFF04B010BD8D
:102B1000F0B585B00546BDF828605F1AB41A0134D7
:102B200007FB04440096FFF7C9FF04A92C2301F812
:102B3000023D2846FFF7F6FD124A138B9BB243F481
:102B40000053138304A9012301F8013D2846FFF730
:102B5000C9FD4FF474120C4BDA60A0331A6842F4CA
:102B600080621A605C600B9ADA601A6842F00102B7
:102B70001A60064A93889BB243F00203938005B023
:102B8000F0BD00BF000C0240006402400050014054
:102B90002DE9F04F83B004460C9EDDF83480DDF85B
:102BA0003890307808446588A84203DD71780A447B
:102BB00092B200217578AB4695B300200746844653
:102BC000A3F1200A4FF4D07E0BFB0A0B736833F895
:102BD0001B503378DBB13B46002005FA00F010F4BF
:102BE000004F94F898B60EFB0B3B0BF10C0B14BF87
:102BF000D8F80000D9F8000024F81B0001339BB27C
:102C0000D81B80B296F800B05845E6DB1F460CF1A1
:102C1000010C1FFA8CFC60467578AB46AC45D3DBE3
:102C20001848194FDFF864E04368002BFCD17B683B
:102C3000002BF9D1BEF8083013F0030FF4D0BEF822
:102C4000083013F0800FEFD13378013B0B4494F838
:102C500098064FF4507606FB004018300190501E45
:102C6000284480B200909BB22046FFF751FF94F8B1
:102C7000983613F1FF3318BF012384F8983603B058
:102C8000BDE8F08F88640240A0640240005001401B
:102C90002DE9F04F85B082468B4691460E9DDDF8BA
:102CA0003C80109F1C685E682644A64210D014F831
:102CB000013B0297CDF8048000954A46594650469C
:102CC000FFF766FF297859441FFA81FBA642EED12F
:102CD00005B0BDE8F08F30B585B004461D460092C2
:102CE0000B46FFF7EBFE04A92C2301F8013D20461B
:102CF000FFF718FD29462046FFF762FE05B030BDFC
:102D000070B4164C164D174E6368002BFCD16B68DF
:102D1000002BF9D1338913F0030FF5D0338913F069
:102D2000800FF1D10B8820F8063F4FF474110E4B41
:102D3000D960A033196821F48061196012885A6043
:102D4000D8601A6842F001021A60064A93889BB262
:102D500043F00203938070BC704700BF8864024058
:102D6000A06402400050014000640240F0B585B00C
:102D70000546BDF828605F1AB41A013407FB044405
:102D80000096FFF79BFE04A92C2301F8063D284678
:102D9000FFF7C8FC1B4A138B9BB243F40053138309
:102DA00004A9012301F8053D2846FFF79BFC4FF6D7
:102DB000FF73A34228BF234604AA22F8043D0B99BF
:102DC0002846FFF79DFFB4F5803F18D30E4A0F4900
:102DD0000F485368002BFCD14B68002BF9D10389B5
:102DE00013F0030FF5D0038913F0800FF1D10134F4
:102DF00004AA22F8024D0B992846FFF781FF05B07F
:102E0000F0BD00BF000C024088640240A064024094
:102E10000050014000B583B04388013B0191828896
:102E2000013A92B200929BB200221146FFF79EFF38
:102E300003B05DF804FB0000F0B5C1B00446A54D39
:102E40006B8B9BB243F480536B8344F62061FFF796
:102E5000D5FB2B8B9BB243F480532B8344F620612C
:102E60002046FFF7CBFB40A9012301F8F93D20469E
:102E7000FFF758FC4CF250312046FFF7BFFB002310
:102E8000029303930493062003F0C3FC03460290CD
:102E9000821D04929049086818608988998003927D
:102EA00002A92046FFF796FC029808B103F0AAFC9D
:102EB0000023059306930793042003F0AAFC0590D2
:102EC000031D0793854A12680260069305A92046F0
:102ED000FFF780FC059808B103F094FC00230893E9
:102EE00009930A93042003F094FC0890031D0A93AD
:102EF0007B4A12680260099308A92046FFF76AFC22
:102F0000089808B103F07EFC00230B930C930D93FB
:102F1000032003F07EFC0B90C31C0D93714A1188B3
:102F20009278018082700C930BA92046FFF752FC27
:102F30000B9808B103F066FC00230E930F931093D7
:102F4000052003F066FC03460E90421D1092664970
:102F500008681860097919710F920EA92046FFF7C9
:102F600039FC0E9808B103F04DFC00231193129325
:102F70001393022003F04DFC1190831C13935B4AC2
:102F800012880280129311A92046FFF723FC1198A2
:102F900008B103F037FC0023149315931693022015
:102FA00003F037FC1490831C1693514A1288028058
:102FB000159314A92046FFF70DFC149808B103F0EF
:102FC00021FC0023179318931993022003F021FC8E
:102FD0001790831C1993474A12880280189317A9E7
:102FE0002046FFF7F7FB179808B103F00BFC00230E
:102FF0001A931B931C93032003F00BFC1A90C31C21
:103000001C933D4A11889278018082701B931AA903
:103010002046FFF7DFFB1A9808B103F0F3FB00230B
:103020001D931E931F93022003F0F3FB1D90831C3E
:103030001F93324A128802801E931DA92046FFF773
:10304000C9FB1D9808B103F0DDFB002320932193F9
:103050002293022003F0DDFB2090831C2293284A58
:1030600012880280219320A92046FFF7B3FB209805
:1030700008B103F0C7FB0023239324932593022078
:1030800003F0C7FB2390831C25931E4A12880280FD
:10309000249323A92046FFF79DFB239808B103F052
:1030A000B1FB0023269327932893032003F0B1FB61
:1030B0002690C31C2893144A11889278018082704C
:1030C000279326A92046FFF785FB2698F0B103F049
:1030D00099FB1BE0000C0240A4770208AC770208C1
:1030E000B0770208B4770208B8770208C077020800
:1030F000C4770208C8770208CC770208D0770208A4
:10310000D4770208D8770208DC77020800232993D5
:103110002A932B93042003F07CFB2990031D2B930F
:10312000624A126802602A9329A92046FFF752FBDF
:10313000299808B103F066FB00232C932D932E935E
:10314000022003F066FB2C90831C2E93584A1288B1
:1031500002802D932CA92046FFF73CFB2C9808B148
:1031600003F050FB00232F9330933193052003F09D
:1031700050FB03462F90421D31924E49086818605B
:103180000979197130922FA92046FFF723FB2F9858
:1031900008B103F037FB00233293339334930520B7
:1031A00003F037FB03463290421D349242490868CF
:1031B000186009791971339232A92046FFF70AFB8A
:1031C000329808B103F01EFB0023359336933793F2
:1031D000022003F01EFB3590831C3793374A128878
:1031E0000280369335A92046FFF7F4FA359808B1E6
:1031F00003F008FB0023389339933A93102003F02F
:1032000008FB0546389000F110073A972C4E0FCE78
:1032100028606960AA60EB60399738A92046FFF7FB
:10322000D9FA389808B103F0EDFA00233B933C93A8
:103230003D93102003F0EDFA05463B9000F1100796
:103240003D97204E0FCE28606960AA60EB603C97E6
:103250003BA92046FFF7BEFA3B9808B103F0D2FA2B
:1032600040A9112301F8053D2046FFF75BFA1649F6
:103270002046FFF7C3F940A9292301F8043D204661
:10328000FFF750FA40A92C2301F8033D2046FFF731
:1032900049FA03212046FFF757FB40A9002321F8F4
:1032A000023D2046FFF7B6FD41B0F0BDE0770208D1
:1032B000E4770208E8770208F0770208F877020856
:1032C000FC7702080C78020840420F002DE9F04F0D
:1032D00089B003900D4616461F46BDF8483004934A
:1032E000DDF84CA043889942A4BF03F1FF35ADB28D
:1032F000BB42DCBF03F1FF37BFB2039B9B889A42FE
:10330000A4BF03F1FF36B6B2049A934204DC03F182
:10331000FF3B1FFA8BF30493BD4202DD2B463D4673
:103320001F46049A964202DD3346164604937B1BE1
:103330001FFA83FB0FFA8BF3049A921B92B2059249
:103340000FFA82F923B3B9F1000F21D04B4530DDDC
:1033500003EBD3746410C3F10008DAF80030ADF861
:103360001E300DF11E03324629460398FFF7B3FCC9
:10337000BD4225D0444504DD059BE41A24B2013545
:10338000ADB24C45E9DA5C4424B20136B6B2E4E7AA
:10339000DAF8002008AB23F8042D0193049B009376
:1033A0003B46324629460398FFF7E0FC09B0BDE8EA
:1033B000F08FC9F1000404EBD47444F34F04CAE75E
:1033C000049B9E42D6D1F1E710B5044644F21C039B
:1033D000C05804F580432433984201D003F012FA18
:1033E000204610BD70B4734A138A23F001031B04F6
:1033F0001B0C1382704B1A78531EDBB2012B70D951
:10340000032A00F0FD80002A40F070816B4B188881
:103410009C88A4B219899A8914FA80F010FA81F173
:1034200011FA82F292B266490A805988D88880B22D
:103430005A89DB8910FA81F111FA82F212FA83F3C8
:103440009BB2604A1380604B1B78002B40F0788160
:103450005E4B1B783BB15E4B1B785E4A1278DBB249
:10346000934200F06D815C4B1B78ABB95B4B1B88C2
:103470009BB25B4A1288934240F36281594B1B888E
:103480009BB2574A5288934280F25A814C4B1B8818
:103490009BB29A4200F3548101224B4B1A704E4B5F
:1034A0001B78002B40F03C81494C2178C9B24E4B2F
:1034B0001A884B4B1B88D21A12B24C4820F81120A4
:1034C0002278D2B230F8122012F4004F40F09481EA
:1034D0003F4A1278D2B2013B9BB2454921F81230E3
:1034E0002EE1414B1B889BB2424A12889A4230D04F
:1034F000354B1B78002B00F0F98042F210033E4A56
:10350000D35C002B35D1324B1E78374B1D882B4AAC
:1035100010889488A4B211899389B20212FA85F5B1
:10352000354A02EB850214FA80F010FA81F111FAA3
:1035300083F307EE903AFAEECF7A9FED307A77EE8A
:10354000677AC2ED007A284A138801339BB2138050
:10355000CCE01D4B1B78002BCAD01D4B1A78264B94
:103560001344012142F20E0299540022164B1A70A4
:10357000BEE7174B1E781C4B1D88104A5088D48814
:10358000A4B25189D389B20212FA85F51A4A02EB24
:10359000850214FA80F010FA81F111FA83F307EE34
:1035A000903AFAEECF7A9FED157A77EE677AC2ED10
:1035B000007AC8E70004004006000020E80200206E
:1035C000FE0C0020000D0020180D00203E0D0020F4
:1035D000040D0020340D0020626E0020020D00203A
:1035E00008000020606E0020100D0020380D002023
:1035F000140D0020442D0020440D002000E0FF4465
:1036000042F21003894AD35C002B71D1884A10889A
:103610009488A4B21189938914FA80F212FA81F283
:1036200012FA83F39BB2834A1380834B1B782BBB24
:10363000824B1A8892B2824B1B889BB29A421DDA47
:103640007C4B1A8892B27E4B1B889BB29A4215DB48
:103650007C4B1B7813B17B4B5B787BB90122764B9B
:103660001A70784B1B78DBB277490B700022774BCE
:103670001A800B78DBB2764921F813206E4B1B7849
:10368000002B2ED0704B1B7870480288694909883E
:1036900089B203EB83039B0113FA82F36D4A22F88C
:1036A000131003889BB283B1644B1A8892B2644BA7
:1036B0001B889BB29A4208DA5E4B1A8892B2604B22
:1036C0001B889BB29A4280F2D780604B1B889BB2CA
:1036D00040F23F1293421BD05C4A138801339BB2E5
:1036E0001380544B1B889BB2544A138070BC7047A4
:1036F0004F4A5088D488A4B25189D38914FA80F2F1
:1037000012FA81F212FA83F39BB24A4A13808CE7D1
:103710000022494B1A70504AD36A1E33D362E0E745
:1037200000214A4B1980484A1378DBB24B4820F8F5
:1037300013101378DBB24FF6FF71494A22F81310C9
:103740003D4B1B78BBB1404B1B78DBB2444A32F88F
:1037500013309BB240F23F1293420CD13A4A137895
:10376000DBB213F1FF3318BF0123137000233D4A6E
:103770001380314A1370304B1B784BB93A4B1B788E
:1037800033B1314B1B78394A1278DBB29342ADD05A
:103790002D4D2B782D4A1188264C208880B203EBC2
:1037A00083039B0113FA81F32A4921F813002B7834
:1037B00011882F48008880B203EB83039B0113FA22
:1037C00081F32C4921F8130023889BB21B490B80FD
:1037D00013889BB240F23F12934217D01B4A1388C2
:1037E00001339BB21380144B1B789BB91D4A13887D
:1037F00001339BB2138079E72178C9B230F81120E8
:1038000002F5A07212B220F8112061E600220F4BDF
:103810001A80E8E70C4B1A78D2B2114931F812300D
:1038200001339BB221F8123060E700BF440D002045
:10383000E8020020FE0C0020180D0020606E002021
:10384000040000201C0D0020040D0020100D00209D
:103850006C6E0020FC02002000040040380D0020A7
:10386000140D0020020D00203E0D0020340D00201C
:10387000000D0020FC070020284B1A78D2B22848FF
:10388000018889B2274C24F812101A78D2B2012488
:1038900025498C541C7803889BB224490A8D92B226
:1038A000C96A234DD5ED006AF8EE666A07EE903AD4
:1038B000F8EEE77A77EEA77A531C07EE103AB8EEE7
:1038C000C77A27EE877A4B1C07EE903AF8EE677AB4
:1038D00067EE277A86EEA77A164B03EB840383ED17
:1038E000007A0022144B1A7003889BB2B3F58C7FC8
:1038F000BFF6F7AE0A4B1B889BB20C4AD26A02FB9A
:103900000333DB080D4AA2FB032343F34F03002BD1
:103910007FF7E7AE054AD362E3E600BF040D00205F
:10392000100D00206C6E00201C0D002000040040D3
:1039300028000020080D0020180D00200FEAA00E1E
:103940001A4B1B6913F0800F02D10122184B1A7019
:10395000184B1B785BB27BB903F1804303F504334A
:103960001B6913F4807F07D1134B1B6913F4007F8D
:1039700002D001220F4B1A700E4B1B785BB27BB941
:1039800003F1804303F504331B6913F4007F07D16F
:10399000094B1B6913F4807F02D0FF22054B1A707C
:1039A000064A536943F46073536170470000024054
:1039B000F8020020400D002000100240003C0140B1
:1039C000164B1B785BB27BB903F1804303F50433DC
:1039D0001B6913F4806F07D1114B1B6913F4006F3F
:1039E00002D001220D4B1A700C4B1B785BB27BB9D5
:1039F00003F1804303F504331B6913F4006F07D10F
:103A0000074B1B6913F4806F02D0FF22034B1A701F
:103A1000044A536943F44063536170473F0D0020EB
:103A200000100240003C0140054A138A23F00103C4
:103A30001B041B0C1382034A136801331360704785
:103A400000080040280D002000B583B02A4A1388E2
:103A500023F001031B041B0C138002A9002321F88F
:103A6000023D2648FFF7D6F9254B1B78032B08D8D3
:103A7000DFE803F0022F353B224B00221A700422AC
:103A80005A70204802F0A6FC00231F4A13701F4AF8
:103A900013701F4A13801F4A13801F4A13801F4A46
:103AA00042F20F01535442F20E015354144B1B784F
:103AB000012B0CBF4FF480624FF40072184B1A8038
:103AC0000D4A13889BB243F00103138003B05DF8E5
:103AD00004FB0C4B00221A7005225A70D1E7094BE7
:103AE00000221A7006225A70CBE7064B06221A7083
:103AF00004225A70C5E700BF000400409867002008
:103B0000060000200C0000203E0D0020180D0020B3
:103B1000606E0020100D0020020D0020440D0020DA
:103B2000442D00202DE9F04F2DED068BADF5873D9E
:103B3000E1B001F05DFE01F0DDFEFEF773FCFEF783
:103B400013FBFEF79FFBFEF78BFCFEF701FD184809
:103B5000FFF772F9FEF73EFCFFF776FF154802F01B
:103B600039FC08AA0DF5074120311348FDF78AFCFE
:103B7000124B1B881BB2124AD2ED006AC3F50053E8
:103B800007EE903AF8EEE77A87EEA67AFCEEC77A6F
:103B9000CDED057ABDF814300A4A1380DFF818B06D
:103BA0000BF50053043307939FED07AA11E000BF04
:103BB000986700200C000020440D00200E0000201B
:103BC000100000200400002000008C42BB4801F0DF
:103BD000BBF9079B1A88BA4B1A80BA4802F0B2FDAB
:103BE000B94B1B78042BF1D05A1ED2B2012A40F2F5
:103BF0006082032B00F08482002BEAD1B34B1B7848
:103C00006BB9B34B1B7853B1B24B1B78DBB2B24AE2
:103C100013700122AD4B1A700022B04B1A80AB4BCF
:103C20001B78002BD5D0AC4B1B78AA4A1278DBB29C
:103C3000934200F06E83A94B198889B21B889BB20E
:103C40001A2B40F37483A54B1B889BB2FA2BCCBF75
:103C50000B220022A1480388008880B21B28B4BF31
:103C6000CD24D7240DF587306230002505800190E2
:103C700000949BB29A48FFF779F8974A1378DBB221
:103C8000984931F813309549098889B2127801FAB8
:103C900083F3954880FB0310D917C1EBE01101EBCA
:103CA0008101A3EB81139BB29049097802EB820258
:103CB00003EB82128E4931F8122092B206EE902A5E
:103CC0008C4A92ED006A8C4A128812B207EE902A52
:103CD0008A4A127852B2F8EEE66A66EE866AF8EE22
:103CE000E77A36EEA77ADFED867A27EE277AF6EEC8
:103CF000007A77EE676A07EE102AB8EEC76AF2EE2E
:103D0000005A85EE867A26EE877A77EE277A9FED3F
:103D10007D7A67EE877A0DF5873202F5B872C2EDCB
:103D2000007A9FED797A0DF5873202F5B67282ED51
:103D3000007AF4EEC77AF1EE10FA0DF58732D4BFAF
:103D400002F5B87202F5B672F7EE007A0DF587311A
:103D500001F5B471C1ED007A92ED007AB4EEE77A24
:103D6000F1EE10FA48BF0A46D2ED007AFCEEE77A8F
:103D7000CDED057ABDF814A0574A12786349097849
:103D800002EB820203EB8212614931F8122092B2F7
:103D900006EE902A574A92ED006A574A128812B2EC
:103DA00007EE902A554A127852B2F8EEE66A66EEAD
:103DB000866AF8EEE77A36EEA77ADFED517A27EEDB
:103DC000277AF6EE007A77EE676A07EE102AB8EEE9
:103DD000C76AF2EE005A85EE867A26EE877A77EE8B
:103DE000277A9FED487A67EE877A0DF5873202F5DC
:103DF000B272C2ED007A9FED447A0DF5873202F57A
:103E0000B07282ED007AF4EEC77AF1EE10FA0DF599
:103E10008732D4BF02F5B27202F5B072F7EE007AC3
:103E20000DF5873101F5AE71C1ED007A92ED007AA2
:103E3000B4EEE77AF1EE10FA48BF0A46D2ED007A06
:103E4000FCEEE77ACDED057ABDF81490234A12888E
:103E500092B252B92F4AA2F800A02F4AA2F80090BD
:103E600000222E490A702E490A802C4A12788AB9FB
:103E7000194A127802EB820203EB82121C4931F8D4
:103E8000121089B2274A128892B2914202DA0121B5
:103E9000224A1170214A1278002A00F086800E4AC8
:103EA000127802EB820203EB8213114A32F81320DC
:103EB00092B21C4B1B889BB29A4235E0346E0020B4
:103EC000946700200C000020060000203E0D00201A
:103ED000180D0020040D0020340D00203C0D0020A2
:103EE00098670020380D002067666666FC0C00208D
:103EF000FC020020100000200E0000201400002012
:103F0000000080380000574300005643FD0C00209D
:103F1000FC070020686E00206A6E00208C6700207D
:103F20008E670020040000203FDB974B1B889BB26C
:103F30009BB3964890ED006A954B1A88924B1C886B
:103F400094490B8D9BB2C96A934DD5ED005AF8EE9A
:103F5000655A121B92B207EE902AF8EEE77A77EED6
:103F6000A77A013307EE103AB8EEC77A27EE877AC0
:103F70004B1C07EE903AF8EE677A67EE277AC5EEAB
:103F8000A76AF0EE087A66EE277A36EEA77AF5EEA3
:103F9000007A67EE277AC0ED007A7D4B1B889BB2D2
:103FA000794A138000227D4B1A70794B1B8813F0DD
:103FB000030F00F0BE81764B1B889BB2042B23DCE1
:103FC000774B1B781B06002B1EDD00242546DFF8EF
:103FD000C081734E734FB8F80010327852B20DF5AD
:103FE0008733663345F28A201880520094FBF2F240
:103FF00092B289B23846FEF76EFE013533785BB275
:10400000D734B5EB430FE6DB614C21882388664E3D
:10401000328892B20DF5873068304FF4FC65056048
:10402000604F019000929BB2524689B23846FFF72A
:104030004DF9218823885D4D2A8892B20DF587308D
:104040006C3040F21D5EC0F800E0019000929BB21F
:104050004A4689B23846FFF739F9A6F800A0A5F814
:104060000090238801339BB2238023889BB2B3F551
:10407000A07F00F06C81464B1B889BB24C4A118894
:104080000A1D934200F06781414B1B889BB2012BB4
:1040900000F01A82474A138823F001031B041B0C0B
:1040A0001380454B1968536A03EB0143434A13607D
:1040B0008FE500215846FCF7FFFF42F20E031BF884
:1040C000033033B942F20F021BF80220002A3FF4FA
:1040D00080AD83F001033A4A13703A4B1B78012BF1
:1040E00007D0374B19780BEB01315846FEF712F821
:1040F0006FE511780BEB01315846FDF7E1FF68E5FC
:10410000314B1B780BB9314B1B782F4B1B786BB99C
:104110002E4B1B7853B12E4B5A8892B22D4B5B8895
:104120009BB29A4219DA284B5B78B3B1264B5B7885
:10413000002B40F0C180254B5B78002B00F0BC8049
:10414000234B1A8892B2234B1B889BB29A4204DA03
:104150001D4B1B78002B40F0AF801B4B1B7803F0EE
:10416000FF02002B39D1194B1B78002B34D0184B90
:10417000598889B2174B5B889BB299422DD0124B5C
:104180005A78D2B229E000BF8E670020646E00200A
:104190003C0D002000040040280000208C67002017
:1041A0001400002098670020686E00206A6E0020CE
:1041B0000800002000080040280D00202C0D0020E1
:1041C000340D002006000020240D00201C0D0020CE
:1041D000200D00206C6E00200122A54B1A7019786A
:1041E000C9B20122A34842541978C9B20024A24896
:1041F00020F811401978A14B03EB810393ED000ADD
:104200000DF5873438349E49204601F0D1FC6368AF
:10421000C3F1FF4303F5FF0303F5FF437F33032B94
:1042200057D9042297490DF5873038300DF05EF9E3
:1042300004460DF5873228320DF5873320331A6096
:10424000054655F8082BAA4246D00DF58733203392
:104250001A6082689A6063680DF58736203673604D
:1042600025600023636023720DF5873250324FF6CC
:10427000FF7111600DF5873154310B608248029156
:10428000019200F1080300933346DF228C21FEF7F0
:10429000FFFC30680DF587332833984201D002F0D7
:1042A000B1FA0DF58733383318680DF5873340338D
:1042B000984201D002F0A6FA6D4B00221A701B78CA
:1042C000DBB2012B3FF785AC694CDFED709A00F053
:1042D00016BC6F4818F0CAFB0DF587362836034622
:1042E00053F8080F59689A68DB680FC6B3E70DF5F5
:1042F000873303F5AA7356E300273B469DE32378F3
:10430000DBB200225B49CA542378DBB26149CA544C
:10431000ECE3614B1B78DBB2604A32F8132092B2B7
:104320005F4B1B889BB29A42BFF685AC51E40B22CF
:1043300090E45B4B19880DF58733643345F28A228C
:104340001A806B2289B25048FEF7C5FC33E6002282
:10435000544B1A708FE6544B1B78544B5B889BB2BE
:1043600006EE903A524B93ED006A524B1B881BB2FB
:1043700007EE903A504B1B785BB2F8EEE66A66EEB9
:10438000866AF8EEE77A36EEA77ADFED4C7A27EE0A
:10439000277AF6EE007A77EE676A07EE103AB8EE03
:1043A000C76AF2EE005A85EE867A26EE877A77EEB5
:1043B000277A9FED437A67EE877A0DF5873303F509
:1043C000BE73C3ED007A9FED3F7A0DF5873303F599
:1043D000BC7383ED007AF4EEC77AF1EE10FA0DF5B6
:1043E0008733D4BF03F5BE7303F5BC73F7EE007AD1
:1043F0000DF5873202F5BA72C2ED007A93ED007ABC
:10440000B4EEE77AF1EE10FA48BF1346D3ED007A26
:10441000FCEEE77ACDED057ABDF81440631F9BB240
:10442000CD2B3FF631AE0DF5873370334FF6E07686
:104430001E60221F144D0193231D9BB200930B4657
:1044400092B22846FEF742FF184B19880DF58732C5
:10445000743216600B1D043921EAE1710192009457
:104460009BB2224689B22846FEF730FF0CE600BF19
:10447000340D0020240D0020200D0020080D002008
:104480000C0000207077020898670020000020438D
:10449000507702081C0D0020040D0020140D002090
:1044A0003C0D00203E0D0020FC0C002008000020E8
:1044B000100000200E0000201400002000008038B2
:1044C0000000574300005643CF4B1A7852B292B2C5
:1044D000CE490DF58730A83001F05CFA0123009336
:1044E000CB4B002211460DF58730A8300CF07AFF37
:1044F00004460DF5873398330DF5873290321360FB
:10450000064656F8083BB34200F0A3810DF587320A
:104510009032136083680DF58732983213606368B8
:104520000DF5873294321360266000236360237296
:104530001368C3F1FF4303F5FF0303F5FF437F3324
:10454000012B40F291810222B2490DF58730903063
:104550000CF0CCFF04460DF5873280320DF5873321
:1045600078331A60064656F8082BB24200F07F8175
:104570000DF5873378331A6082689A6063680DF5A9
:10458000873578356B60266000216160217245F2C5
:104590008A230DF58732C03213600DF5873303F59A
:1045A000C07343F8BC1D9C480293019200F10803BC
:1045B00000932B460122FEF76BFB28680DF587332D
:1045C0008033984201D002F01DF90DF58733903306
:1045D00018680DF587339833984201D002F012F92C
:1045E0000DF58733A83318680DF58733B03398423B
:1045F00001D002F007F9844B1A7852B292B2834983
:104600000DF58730F83001F0C5F901230093834B95
:10461000002211460DF58730F8300CF0E3FE044619
:104620000DF58733E8330DF58732E0321360064627
:1046300056F8083BB34200F025810DF58732E03291
:10464000136083680DF58732E832136063680DF5F7
:104650008732E4321360266000236360237213689C
:10466000C3F1FF4303F5FF0303F5FF437F33012B42
:1046700040F21381022267490DF58730E0300CF0DB
:1046800035FF04460DF58733D0330DF58732C83238
:104690001360064656F8083BB34200F001810DF561
:1046A0008732C832136083680DF58732D0321360C9
:1046B00063680DF58732CC3213602660002161609B
:1046C000217245F28A230DF5873202F58872136054
:1046D0000DF5873303F58A7319604F4802930192F1
:1046E00000F1080300930DF58733C833CD22FEF7A0
:1046F000CFFA0DF58733C83318680DF58733D033FB
:10470000984201D002F07EF80DF58733E033186847
:104710000DF58733E833984201D002F073F80DF5B8
:104720008733F83318680DF5873303F580739842A3
:1047300001D002F067F83A4B93ED000A00223349AA
:104740000DF5873000F5987001F032FA0DF58733DA
:1047500003F59A731B68C3F1FF4303F5FF0303F5E9
:10476000FF437F33052B40F2A68006222D490DF52D
:10477000873000F598700CF0B9FE04460DF58733CC
:1047800003F590730DF5873202F58C7213600646BF
:1047900056F8083BB34200F091800DF5873202F5E0
:1047A0008C72136083680DF5873202F59072136086
:1047B00063680DF5873202F58E7213602660002360
:1047C000636023724FF6FF720DF5873101F5A47116
:1047D0000A600DF5873202F5A67213600E48029248
:1047E000019100F1080300930DF5873303F58C73F5
:1047F0000122FA21FEF74CFA0DF5873303F58C738D
:1048000018680DF587330FE0140000200C0000201D
:10481000508D0208E48C020898670020E88C02089A
:10482000646E0020EC8C020803F59073984201D06E
:1048300001F0E8FF0DF5873303F5987318680DF55F
:10484000873303F59C7398423FF424AC01F0DAFF00
:1048500020E40DF587359835034653F8080F59685D
:104860009A68DB680FC55AE6B34818F0FFF80DF5F3
:1048700087358035034653F8080F59689A68DB6816
:104880000FC57BE60DF58735E835034653F8080F6D
:1048900059689A68DB680FC5D8E6A74818F0E6F8AB
:1048A0000DF58735D035034653F8080F59689A68D7
:1048B000DB680FC5FCE6A04818F0D8F80DF5873581
:1048C00005F59075034653F8080F59689A68DB6838
:1048D0000FC56DE72378DBB2984A32F813309BB2EC
:1048E0009AFBF3F303F580735A42C3F30903C2F34F
:1048F000090258BF534203F604030BEB8303D3EDC5
:10490000017A67EE8A7A77EEA97AFDEEE77ACDED45
:10491000057A23788A4A127803EB830306EB831324
:10492000884A32F813309BB207EE103A864BD3ED2B
:10493000006A864B1B881BB207EE903A844B1B78AB
:104940005BB2B8EEC77A27EE267AF8EEE77A77EE12
:10495000277A67EE897AB6EE007A77EEC77A06EEA6
:10496000903AB8EEE66AF2EE005AC5EE866A67EE55
:10497000A67A77EE877A67EEA87A0DF5873303F586
:10498000AC73C3ED007A0DF5873303F5AA7383ED9D
:10499000008AF4EEC87AF1EE10FA3FF7A8AC0DF5F4
:1049A000873303F5AC73F7EE007A0DF5873202F525
:1049B000A872C2ED007A93ED007AB4EEE77AF1EED8
:1049C00010FA48BF1346D3ED007AFCEEE77ACDED3E
:1049D000067ABDF818502378DBB25E4A32F81330FD
:1049E0009BB2A03B23EAE3739E4204BF5A4B1D8057
:1049F0002378DBB2574931F8132092B22378DBB227
:104A000031F81370BFB22378DBB231F813309BB2A8
:104A10009E3B9E42FFF670AC921B504B83FB0213F1
:104A2000C3EBE2733F335B019BB2BA1B4C4981FB82
:104A30000217C7EBE2771F37BFB2BDF81410DFF8DB
:104A40001881B8F8002092B20DF587305830036015
:104A5000019000920B462A464248FEF737FC237825
:104A6000DBB2364A32F8131089B299FBF1F189B200
:104A7000B8F800309BB20DF587325C3217600192B6
:104A800000930B462A463748FEF720FCA8F8005052
:104A9000013609F5A0790AF5806A2378DBB22D4A40
:104AA00032F813309BB29E4208DC2378DBB2234AF3
:104AB00032F813309BB29E427FF70CAF2278D2B20D
:104AC000244931F8123001339BB221F81230237897
:104AD000DBB231F8132092B22378DBB2174931F8F8
:104AE00013309BB2A0339A423FF409AC23780133D0
:104AF000DBB223702378DBB2012B3FF76AA823785F
:104B0000DBB2194AD35C002BF0D02378DBB2114A18
:104B100032F81360B6B2A03E26EAE67606EB8609C6
:104B20004FEA89194FEA862A9FED109ADFED108A25
:104B30009FED108AB1E700BF507702086C6E00202D
:104B4000FC0C0020FC020020100000200E000020C1
:104B500014000020200D0020686E00205655555589
:104B6000ABAAAA2A98670020240D002000008038F4
:104B7000000057430000564370B5064603686BB10A
:104B80004469456A0435AC4205D254F8040B01F07F
:104B900039FEA542F9D8306801F034FE304670BDC8
:104BA00010B50446FFF7E8FF204610BD2DE9F84F89
:104BB0000646480A451C0330082838BF08207060A4
:104BC000B0F1804F30D28946800001F022FE83464A
:104BD000306073685B1B4FEA530800EB880A0AEBEE
:104BE0008505AA4509D254464FF40077384601F0AE
:104BF00010FE44F8040BA542F8D8C6F814A05BF8E0
:104C00002820F26002F5007333612B1F736255F8A0
:104C1000043CF36103F500713162B260C9F3080925
:104C20004B44B361BDE8F88F17F017FF2DE9F04151
:104C30008AB00446002500950195029503950495D8
:104C40000595069507950895099529466846FFF745
:104C5000ADFF25606560A560E56025616561A561C2
:104C6000E5612562656229462046FFF79FFF009EA9
:104C70007EB3D4F80880D4F80CC0D4F810E067698B
:104C800004F1080502AB0FCB85E80F00CDF80880D2
:104C9000CDF80CC0CDF810E00597D4F81880D4F802
:104CA0001CC0D4F820E0676A04F118050AAB13E9C8
:104CB0000F0085E80F00CDF81880CDF81CC0CDF8A6
:104CC00020E009972368266000936368019A626078
:104CD00001936846FFF750FF002384F828302046F0
:104CE0000AB0BDE8F0812DE9F04704460E4642685F
:104CF000406A2568431BA2EBA303012B14D9656A04
:104D00004FF4007001F085FD6860A369327803B14B
:104D10001A70636A1A1D62625B68E36103F50072D0
:104D20002262A361BDE8F0876169471ABF100137AD
:104D300007F10109B2EB490F19D9A2EB0902520898
:104D400005EB8208414507D9021D521A93082CD061
:104D500040461CF0DBF828E0BB00021D521A900808
:104D600023D09B1A08EB03001CF0D0F81DE032B1F1
:104D70005200951CB5F1804F02D317F06EFE03254B
:104D8000A80001F046FD8246A5EB0902520800EB9F
:104D900082086169626A0432521A93081AD1206843
:104DA00001F030FDC4F800A06560C4F81480D8F8A4
:104DB0000030E36003F50073236107F18047013F92
:104DC00008EB8703636258F82730E36103F500734B
:104DD000236294E740461CF099F8E0E700B583B001
:104DE0000D4B1A889B88DBB28DF807300B4A91690E
:104DF000126A013A914208D001B10B70074A9369D7
:104E00000133936103B05DF804FB0DF10701034822
:104E1000FFF769FFF6E700BF004C0040346E00204A
:104E200038B50B48FDF7CCFB0A4C2046FCF7CCF814
:104E3000094D2A460949204601F0E6FC084C204667
:104E4000FFF7F4FE2A460749204601F0DDFC38BD95
:104E500098670020440D002000000020C93300089E
:104E6000346E0020A14B000838B5094BA3F59075AE
:104E700002E02346AC4209D0A3F1180453F8180C01
:104E8000103B9842F5D001F0BDFCF2E738BD00BF01
:104E9000906F0020F0B589B005461478204AA2FB37
:104EA0000432D20802EB4203A4EB8304E4B204AB65
:104EB00002933032012102A80CF0EAF8194A61008D
:104EC0000B1952F833300C4402EBC40252680092C2
:104ED0000022114602A80CF085FA05F108012960AC
:104EE000034653F8082B9A4211D02A608268AA60C0
:104EF00042686A600360002343600372029804AB57
:104F0000984201D001F07EFC284609B0F0BD1F6830
:104F10005E689C68DA68AF60EE602C616A61E7E702
:104F2000ABAAAAAA706E002010B50446C06801F0B2
:104F300069FC63691A1D62615B68E36003F50072D6
:104F40002261A36010BD00002DE9F047EAB0D0F85F
:104F500010E08768436A41695B1A9B10591E826999
:104F6000C369D31A03EB4123AEEB07029B1800F091
:104F7000F482044697F800804FEA181608F00F08EC
:104F8000A6F10805EDB2012D40F292800E2E40F000
:104F9000C582022B40F2C2820EF1FF3E774500F03F
:104FA000EA8201378760A36893F800902269013A8A
:104FB000934200F0E3820133A360A3681A7809EBFF
:104FC000C2192269013A934200F0E6820133A360DC
:104FD00094F82870C7EB0717BFB208F10102944993
:104FE0005BA800F0D7FC0F230093924B00221146E0
:104FF0005BA80CF0F7F9864657AB559384465CF8EE
:10500000083B634500F0CC82559383685793DEF8E4
:1050100004305693CEF800C00023CEF804308EF84A
:1050200008306FF00043569A9A4200F0C482012281
:10503000814955A80CF05AFA864651AB4F938446E5
:105040005CF8083B634500F0B9824F938368519345
:10505000DEF804305093CEF800C00023CEF80430C0
:105060008EF808304A46724961A800F093FCDDF8DA
:1050700040E1629A0EEB02014F9B51A8834214BF9C
:1050800051980F20814240F2A48261980DF5C67CB0
:10509000604514BF63980F20814200F29A82CDF8D8
:1050A00000E00022114661A80CF09CF9864695E2CA
:1050B000022B40F233820EF1FF3E774500F09380E1
:1050C00001378760A3681A788DF813202269013AA6
:1050D000934200F08B800133A360A36893F80090A3
:1050E0002269013A934200F085800133A36094F86D
:1050F0002870C7EB0717BFB2504A514B092E18BF93
:10510000134631AA2F921B68ADF8C4301B0C8DF8E2
:10511000C6300323309300218DF8C7100523009378
:10512000484B0A462FA80CF05DF986462BAB299315
:1051300084465CF8083B634560D0299383682B93D1
:10514000DEF804302A93CEF800C00023CEF80430F5
:105150008EF808302A9BC3F1FF4303F5FF0303F5E4
:10516000FF437F33032B54D90422374929A80CF07D
:10517000BDF9864625AB239384465CF8083B63451E
:105180004AD0239383682593DEF804302493CEF825
:1051900000C00023CEF804308EF8083008F1010278
:1051A000234935A800F0F6FBDDF890E0369A0EEBC7
:1051B0000201239B25A8834214BF25980F2081421A
:1051C00046D935980DF1DC0C604514BF37980F2097
:1051D00081423DD8CDF800E00022114635A80CF000
:1051E00001F9864639E0FFF79FFE6BE72046FFF79F
:1051F0009BFE72E72046FFF797FE78E70DF1AC0AB9
:10520000034653F8080F59689A68DB68AAE80F004C
:1052100096E70E4817F02AFC0DF1940A034653F85E
:10522000080F59689A68DB68AAE80F00ACE700BF6E
:105230000C0000203C8D0208508D0208248D0208CD
:10524000288D02084C8D02082C8D02085077020828
:10525000359923A80CF04AF986461FAB1D93F446F6
:105260005CF8083B634551D01D93DEF808301F936E
:10527000DEF804301E93CEF800C00023CEF80430D0
:105280008EF808301E9A6FF000439A4249D00122EE
:10529000BC491DA80CF02AF9864619AB1793844621
:1052A0005CF8083B63453FD0179383681993DEF899
:1052B00004301893CEF800C00023CEF804308EF8E6
:1052C00008300DF1130221463BA8FFF7E3FDDDF89E
:1052D00060E03C9A0EEB0201179B19A8834214BFB1
:1052E00019980F2081422AD93B980DF1F40C6045A2
:1052F00014BF3D980F20814221D8CDF800E0002254
:1053000011463BA80CF06EF886461DE00DF17C08B6
:10531000734653F8080F59689A68DB68A8E80F00CD
:10532000A6E7994817F0A2FB0DF16408034653F86D
:10533000080F59689A68DB68A8E80F00B7E73B993F
:1053400017A80CF0D3F8864613AB1193F4465CF81B
:10535000083B634555D01193DEF808301393DEF80F
:1053600004301293CEF800C00023CEF804308EF83B
:105370000830129BC3F1FF4303F5FF0303F5FF431E
:105380007F33042B48D90522804911A80CF0AEF8D0
:1053900086460DAB0B9384465CF8083B63453ED0D4
:1053A0000B9383680D93DEF804300C93CEF800C0A5
:1053B0000023CEF804308EF808304A46744941A8DC
:1053C00000F0E8FADDF830E0429A0EEB02010B9BA8
:1053D0000DA8834214BF0D980F2081422AD941980D
:1053E0000DF5867C604514BF43980F20814221D87B
:1053F000CDF800E00022114641A80BF0F3FF8646ED
:105400001DE00DF14C08734653F8080F59689A686F
:10541000DB68A8E80F00A2E75B4817F027FB0DF157
:105420003408034653F8080F59689A68DB68A8E8FF
:105430000F00B8E741990BA80CF058F8864607AB67
:105440000593F4465CF8083B634500F089800593BA
:10545000DEF808300793DEF804300693CEF800C07B
:105460000022CEF804208EF808204FF6FF734793F1
:105470006AAB43F8882D4748029347AB019300F18C
:105480001003009305AB3A460A21FDF701FC05988D
:1054900007AB984201D001F0B5F9419843AB98426F
:1054A00001D001F0AFF90B980DAB984201D001F09B
:1054B000A9F9119813AB984201D001F0A3F93B98D8
:1054C0003DAB984201D001F09DF9179819AB984275
:1054D00001D001F097F91D981FAB984201D001F05F
:1054E00091F9359837AB984201D001F08BF92398A8
:1054F00025AB984201D001F085F929982BAB984251
:1055000001D001F07FF92F9831AB984201D001F022
:1055100079F994F82830013384F828302069A1689B
:10552000636A62699B1A9B105A1EA369E769DB1BB9
:1055300003EB4223421A1344022B09D9012D07D948
:105540000E2E05D00138814200F09D800131A1600E
:1055500094F828300C2B00F39A806AB0BDE8F087ED
:105560000DF11C08734653F8080F59689A68DB68F8
:10557000A8E80F006FE7FFF7D7FC14E52046FFF718
:10558000D3FC1AE5508D020850770208348D0208CA
:105590000C000020986700202046FFF7C5FC17E5A7
:1055A0000DF5AE78034653F8080F59689A68DB6822
:1055B000A8E80F002BE53B4817F058FA0DF5A27844
:1055C000034653F8080F59689A68DB68A8E80F008B
:1055D0003EE561994FA80BF089FF86464BAB499396
:1055E000F4465CF8083B634542D04993DEF8083046
:1055F0004B93DEF804304A93CEF800C00023CEF877
:1056000004308EF808304FF6FF7267926893264890
:1056100068AB029367AB019300F11003009349ABB1
:105620003A460A21FDF734FB49984BAB984201D02A
:1056300001F0E8F8619863AB984201D001F0E2F81C
:105640004F9851AB984201D001F0DCF8559857AB18
:10565000984201D001F0D6F85B985DAB984201D03A
:1056600001F0D0F894F82830013384F8283055E759
:105670000DF59678734653F8080F59689A68DB68F9
:10568000A8E80F00B5E72046FFF74EFC60E70025CD
:105690006AA921F8025D0448FDF7BCFB84F8285094
:1056A0005BE700BF507702089867002010B58CB008
:1056B000274C0BAA274920460BF0FCFF0AAA2649D3
:1056C00004F118000BF0F6FF09AA244904F1300098
:1056D0000BF0F0FF08AA224904F148000BF0EAFFA2
:1056E00007AA204904F160000BF0E4FF06AA1E4956
:1056F00004F178000BF0DEFF05AA1C4904F19000CC
:105700000BF0D8FF04AA1A4904F1A8000BF0D2FF4D
:1057100003AA184904F1C0000BF0CCFF02AA1649F5
:1057200004F1D8000BF0C6FF01AA144904F1F000FF
:105730000BF0C0FF6A46124904F584700BF0BAFF03
:10574000104A1149002001F05FF80CB010BD00BFF5
:10575000706E0020F48C0208F88C0208FC8C0208A1
:10576000008D0208048D0208088D02080C8D0208C5
:10577000108D0208148D0208188D02081C8D020875
:10578000208D020800000020694E0008DFF834D0A8
:10579000002103E00C4B5B58435004310B480C4B89
:1057A00042189A42F6D30B4A02E0002342F8043B27
:1057B000094B9A42F9D300F01BF81BF04BFAFEF7A5
:1057C000B1F9704700000320ECCB02080000002074
:1057D000CC020020CC02002070800020FEE7704741
:1057E000FEE7FEE7FEE7FEE7704770477047704749
:1057F00082B03A4AD2F8883043F47003C2F8883055
:10580000374B1A6842F001021A60002199601A6849
:1058100022F0847222F480321A60324A5A601A6886
:1058200022F480221A60D960009101911A6842F432
:1058300080321A601A46136803F400330193009B08
:1058400001330093019B1BB9009BB3F5A06FF2D10C
:10585000234B1B6813F4003F14BF01230023019363
:10586000019B012B36D01E4B1A6C42F080521A64F9
:105870001D490A6842F440420A609A689A609A6830
:1058800042F400429A609A6842F4A0529A601A6800
:1058900042F080721A601A46136813F0007FFBD042
:1058A00040F20572114B1A60A3F580639A6822F0EA
:1058B00003029A609A6842F002029A601A4693685C
:1058C00003F00C03082BFAD14FF00062034B9A60EF
:1058D00002B07047064A024B5A60C4E700ED00E090
:1058E000003802401030002400700040003C0240AC
:1058F000085A4007224B9B6803F00C03042B15D079
:10590000082B17D01BB11F4A1F4B1A6002E01D4A1B
:105910001D4B1A601A4B9B68C3F303131B4AD35CDD
:10592000DAB219490B68D3400B607047184A164B1E
:105930001A60EFE7124B59685A6802F03F0211F4FF
:10594000800F12D05968C1F38811114BB3FBF2F3E9
:1059500003FB01F30A4A5268C2F3014201325200CA
:10596000B3FBF2F3084A1360D4E7054B5968C1F35F
:105970008811044BB3FBF2F303FB01F3EAE700BF2A
:10598000003802400024F400280000201800002005
:1059900000127A00F0B5C1B00546174612A816F0FD
:1059A000F7FF7E4B129300242E948DF8BC408DF8A7
:1059B000BD403094319432943394794EB36800935F
:1059C00053F80C3CF2684DF803200194009B53F807
:1059D0000C0C214668440BF0D2FA3369029353F859
:1059E0000C3C40AA1344726943F8F82C029B53F80C
:1059F0000C0C214602AB18440BF0C1FA73680093FB
:105A000053F80C3CB2694DF80320664B009303F148
:105A10002802129214330293634B03930494059467
:105A200006940794089409940AA801F095FD5F4B29
:105A3000039318230B930EAB0C930D948DF8384001
:105A400003A912A80BF09BFA394602A804F004FA45
:105A500005F108062E606C602C72089A002A00F08E
:105A6000888006998A425CD93CAC3A944FF0000396
:105A700007993AA8FBF70EFD2B683A9AA2424BD041
:105A80009E427BD0A9682A603B9A6A603C9AAA60D1
:105A9000002B78D03A933C9100233B933A9A1370B1
:105AA0003A983CAB984201D000F0ACFE3D4B0093DD
:105AB00003F128021292143302933C4B03930C9887
:105AC0000EAB984201D000F09DFE374B03930AA81D
:105AD00000F028FF324B5A68009252F80C2C99695A
