:020000040800F2
:1000000000000220C9690008196A0008196A00087E
:10001000196A0008196A0008196A0008000000003F
:10002000000000000000000000000000196A000845
:10003000196A000800000000196A0008A5410008BC
:10004000196A0008196A0008196A0008196A000884
:10005000196A0008196A0008196A0008196A000874
:10006000196A0008196A0008196A0008196A000864
:10007000196A0008196A0008196A0008196A000854
:10008000196A0008196A0008196A0008196A000844
:10009000196A0008196A0008196A0008196A000834
:1000A00051410008196A0008196A0008196A000815
:1000B000196A0008513A0008196A0008196A00080C
:1000C000196A0008196A0008196A0008196A000804
:1000D000196A0008196A0008196A0008196A0008F4
:1000E00095400008196A0008196A0008196A000892
:1000F000196A0008196A0008196A0008196A0008D4
:10010000196A0008196A0008196A0008196A0008C3
:100110006D410008196A0008196A0008196A000888
:10012000196A0008196A0008196A0008196A0008A3
:10013000196A00080000000000000000196A0008A9
:10014000196A0008196A0008196A0008196A000883
:10015000196A0008196A0008196A0008196A000873
:10016000196A0008196A0008196A0008196A000863
:10017000196A0008196A0008196A000800000000DE
:1001800000000000196A00080000000000000000E4
:10019000196A00080000000000000000196A000849
:1001A000000000000000000000000000196A0008C4
:1001B000196A0008196A0008196A0008196A000813
:0401C000196A0008B0
:1001D00010B5054C237833B9044B13B10448AFF381
:1001E00000800123237010BDC00200200000000029
:1001F0007896020808B5034B1BB103490348AFF3D7
:10020000008008BD00000000C402002078960208AB
:1002100001F0FF01102A2BDB10F0070F08D010F8B7
:10022000013B013A8B422DD010F0070F42B3F6D1BB
:10023000F0B441EA012141EA014122F007047FF0D4
:1002400000070023F0E80256083C85EA010586EA2B
:10025000010685FA47F5A3FA87F586FA47F6A5FA67
:1002600087F68EB9EED1F0BC01F0FF0102F0070273
:1002700032B110F8013B013A83EA010313B1F8D11E
:100280000020704701387047002D06BF35460338FF
:10029000073815F0010F07D1013015F4807F02BF38
:1002A000013015F4C03F0130F0BC0138704700BF89
:1002B00010F8012B11F8013B012A28BF9A42F7D010
:1002C000D01A7047034613F8012B002AFBD1181AE5
:1002D0000138704781F0004102E000BF83F0004325
:1002E00030B54FEA41044FEA430594EA050F08BFD1
:1002F00090EA020F1FBF54EA000C55EA020C7FEA95
:10030000645C7FEA655C00F0E2804FEA5454D4EB11
:100310005555B8BF6D420CDD2C4480EA020281EADB
:10032000030382EA000083EA010180EA020281EA13
:100330000303362D88BF30BD11F0004F4FEA013165
:100340004FF4801C4CEA113102D0404261EB410174
:1003500013F0004F4FEA03334CEA133302D05242FA
:1003600063EB430394EA050F00F0A780A4F10104B6
:10037000D5F1200E0DDB02FA0EFC22FA05F28018F0
:1003800041F1000103FA0EF2801843FA05F35941D6
:100390000EE0A5F120050EF1200E012A03FA0EFC55
:1003A00028BF4CF0020C43FA05F3C01851EBE3717F
:1003B00001F0004507D54FF0000EDCF1000C7EEB9C
:1003C00000006EEB0101B1F5801F1BD3B1F5001FDA
:1003D0000CD349085FEA30004FEA3C0C04F10104F9
:1003E0004FEA445212F5800F80F09A80BCF1004F22
:1003F00008BF5FEA500C50F1000041EB045141EAA4
:10040000050130BD5FEA4C0C404141EB010111F4A4
:10041000801FA4F10104E9D191F0000F04BF01464F
:100420000020B1FA81F308BF2033A3F10B03B3F12D
:1004300020020CDA0C3208DD02F1140CC2F10C02BD
:1004400001FA0CF021FA02F10CE002F11402D8BF1B
:10045000C2F1200C01FA02F120FA0CFCDCBF41EAE7
:100460000C019040E41AA2BF01EB0451294330BDB6
:100470006FEA04041F3C1CDA0C340EDC04F1140493
:10048000C4F1200220FA04F001FA02F340EA03006A
:1004900021FA04F345EA030130BDC4F10C04C4F1B0
:1004A000200220FA02F001FA04F340EA0300294690
:1004B00030BD21FA04F0294630BD94F0000F83F4DA
:1004C000801306BF81F480110134013D4EE77FEABD
:1004D000645C18BF7FEA655C29D094EA050F08BF09
:1004E00090EA020F05D054EA000C04BF19461046EA
:1004F00030BD91EA030F1EBF0021002030BD5FEA2E
:10050000545C05D14000494128BF41F0004130BD55
:1005100014F580043CBF01F5801130BD01F00045A9
:1005200045F0FE4141F470014FF0000030BD7FEA1C
:10053000645C1ABF194610467FEA655C1CBF0B4617
:10054000024650EA013406BF52EA033591EA030F2E
:1005500041F4002130BD00BF90F0000F04BF002126
:10056000704730B54FF4806404F132044FF0000559
:100570004FF0000150E700BF90F0000F04BF0021D2
:10058000704730B54FF4806404F1320410F0004538
:1005900048BF40424FF000013EE700BF42004FEA33
:1005A000E2014FEA31014FEA02701FBF12F07F43B0
:1005B00093F07F4F81F06051704792F0000F14BFAD
:1005C00093F07F4F704730B54FF4607401F00045F1
:1005D00021F0004120E700BF50EA010208BF704748
:1005E00030B54FF000050AE050EA010208BF70473D
:1005F00030B511F0004502D5404261EB41014FF4A6
:10060000806404F132045FEA915C3FF4DCAE4FF0A9
:1006100003025FEADC0C18BF03325FEADC0C18BF90
:10062000033202EBDC02C2F1200300FA03FC20FAE1
:1006300002F001FA03FE40EA0E0021FA02F114442E
:10064000C1E600BF70B54FF0FF0C4CF4E06C1CEA43
:1006500011541DBF1CEA135594EA0C0F95EA0C0FB8
:1006600000F0DEF82C4481EA030621EA4C5123EA2B
:100670004C5350EA013518BF52EA033541F480115A
:1006800043F4801338D0A0FB02CE4FF00005E1FB0D
:1006900002E506F00042E0FB03E54FF00006E1FB57
:1006A00003569CF0000F18BF4EF0010EA4F1FF049A
:1006B000B6F5007F64F5407404D25FEA4E0E6D41DA
:1006C00046EB060642EAC62141EA55514FEAC520EB
:1006D00040EA5E504FEACE2EB4F1FD0C88BFBCF567
:1006E000E06F1ED8BEF1004F08BF5FEA500E50F118
:1006F000000041EB045170BD06F0004646EA0101DE
:1007000040EA020081EA0301B4EB5C04C2BFD4EB0F
:100710000C0541EA045170BD41F480114FF0000E08
:10072000013C00F3AB8014F1360FDEBF002001F076
:10073000004170BDC4F10004203C35DA0C341BDCF0
:1007400004F11404C4F1200500FA05F320FA04F0C2
:1007500001FA05F240EA020001F0004221F00041F6
:1007600010EBD37021FA04F642EB06015EEA430E69
:1007700008BF20EAD37070BDC4F10C04C4F1200599
:1007800000FA04F320FA05F001FA04F240EA02004C
:1007900001F0004110EBD37041F100015EEA430E1D
:1007A00008BF20EAD37070BDC4F1200500FA05F23D
:1007B0004EEA020E20FA04F301FA05F243EA0203BC
:1007C00021FA04F001F0004121FA04F220EA0200CB
:1007D00000EBD3705EEA430E08BF20EAD37070BD11
:1007E00094F0000F0FD101F00046400041EB0101F1
:1007F00011F4801F08BF013CF7D041EA060195F0D3
:10080000000F18BF704703F00046520043EB03038C
:1008100013F4801F08BF013DF7D043EA0603704779
:1008200094EA0C0F0CEA135518BF95EA0C0F0CD084
:1008300050EA410618BF52EA4306D1D181EA0301CA
:1008400001F000414FF0000070BD50EA410606BFC4
:100850001046194652EA430619D094EA0C0F02D109
:1008600050EA013613D195EA0C0F05D152EA03364E
:100870001CBF104619460AD181EA030101F000416C
:1008800041F0FE4141F470014FF0000070BD41F0B5
:10089000FE4141F4780170BD70B54FF0FF0C4CF48F
:1008A000E06C1CEA11541DBF1CEA135594EA0C0FAE
:1008B00095EA0C0F00F0A7F8A4EB050481EA030EFB
:1008C00052EA03354FEA013100F088804FEA0333E2
:1008D0004FF0805545EA131343EA12634FEA0222B0
:1008E00045EA111545EA10654FEA00260EF0004171
:1008F0009D4208BF964244F1FD0404F5407402D2C3
:100900005B084FEA3202B61A65EB03055B084FEA53
:1009100032024FF480104FF4002CB6EB020E75EB50
:10092000030E22BFB61A754640EA0C005B084FEA78
:100930003202B6EB020E75EB030E22BFB61A7546F5
:1009400040EA5C005B084FEA3202B6EB020E75EB40
:10095000030E22BFB61A754640EA9C005B084FEAB8
:100960003202B6EB020E75EB030E22BFB61A7546C5
:1009700040EADC0055EA060E18D04FEA051545EAB4
:1009800016754FEA06164FEAC30343EA52734FEA5D
:10099000C2025FEA1C1CC0D111F4801F0BD141EAD6
:1009A00000014FF000004FF0004CB6E711F4801F3B
:1009B00004BF01430020B4F1FD0C88BFBCF5E06F1B
:1009C0003FF6AFAEB5EB030C04BFB6EB020C5FEA2B
:1009D000500C50F1000041EB045170BD0EF0004E80
:1009E0004EEA113114EB5C04C2BFD4EB0C0541EAB2
:1009F000045170BD41F480114FF0000E013C90E6AF
:100A000045EA060E8DE60CEA135594EA0C0F08BF72
:100A100095EA0C0F3FF43BAF94EA0C0F0AD150EA71
:100A200001347FF434AF95EA0C0F7FF425AF104604
:100A300019462CE795EA0C0F06D152EA03353FF42C
:100A4000FDAE1046194622E750EA410618BF52EAA9
:100A500043067FF4C5AE50EA41047FF40DAF52EA7D
:100A600043057FF4EBAE12E74FF0FF3C06E000BF1A
:100A70004FF0010C02E000BF4FF0010C4DF804CD27
:100A80004FEA410C7FEA6C5C4FEA430C18BF7FEAE7
:100A90006C5C1BD001B050EA410C0CBF52EA430C15
:100AA00091EA030F02BF90EA020F0020704710F195
:100AB000000F91EA030F58BF994208BF90422CBF24
:100AC000D8176FEAE37040F0010070474FEA410C1D
:100AD0007FEA6C5C02D150EA013C07D14FEA430C3B
:100AE0007FEA6C5CD6D152EA033CD3D05DF8040BAC
:100AF000704700BF8446104662468C4619466346DE
:100B000000E000BF01B5FFF7B7FF002848BF10F1B4
:100B1000000F01BD4DF808EDFFF7F4FF0CBF0120F9
:100B200000205DF808FB00BF4DF808EDFFF7EAFF75
:100B300034BF012000205DF808FB00BF4DF808ED30
:100B4000FFF7E0FF94BF012000205DF808FB00BF25
:100B50004DF808EDFFF7CEFF94BF012000205DF8AF
:100B600008FB00BF4DF808EDFFF7C4FF34BF0120BC
:100B700000205DF808FB00BF4FEA410C7FEA6C5C87
:100B800002D150EA013C0AD14FEA430C7FEA6C5C87
:100B900002D152EA033C02D14FF0000070474FF0FF
:100BA000010070474FEA410212F5001215D211D52B
:100BB0006FF47873B3EB625212D94FEAC12343F05A
:100BC000004343EA505311F0004F23FA02F018BFDC
:100BD000404270474FF00000704750EA013005D1A5
:100BE00011F0004008BF6FF0004070474FF0000068
:100BF000704700BF4A0011D212F5001211D20DD574
:100C00006FF47873B3EB62520ED44FEAC12343F012
:100C1000004343EA505323FA02F070474FF00000BC
:100C2000704750EA013002D14FF0FF3070474FF06B
:100C3000000070474FEA4102B2F1E04324BFB3F530
:100C4000001CDCF1FE5C0DD901F0004C4FEAC00243
:100C50004CEA5070B2F1004F40EB830008BF20F027
:100C60000100704711F0804F21D113F13872BCBFE1
:100C700001F00040704741F480114FEA5252C2F136
:100C80001802C2F1200C10FA0CF320FA02F018BF7F
:100C900040F001004FEAC1234FEAD32303FA0CFCD2
:100CA00040EA0C0023FA02F34FEA4303CCE77FEA61
:100CB000625307D150EA01331EBF4FF0FE4040F4AB
:100CC0004000704701F0004040F0FE4040F400005A
:100CD000704700BF53B94AB9002908BF00281CBF9C
:100CE0004FF0FF314FF0FF3000F07AB9ADF1080C52
:100CF0006DE904CE00F006F8DDF804E0DDE902233A
:100D000004B070472DE9F0478C460D460446089E16
:100D1000002B51D18A4217466DD9B2FA82FEBEF13C
:100D2000000F0BD0CEF1200C01FA0EF520FA0CFCCE
:100D300002FA0EF74CEA050C00FA0EF44FEA174AD5
:100D4000250CBCFBFAF81FFA87F90AFB18CC45EA18
:100D50000C4508FB09F3AB420AD9ED1908F1FF3243
:100D600080F02381AB4240F22081A8F102083D448B
:100D7000ED1AA4B2B5FBFAF00AFB105544EA05449B
:100D800000FB09F9A14509D9E41900F1FF3380F00E
:100D90000A81A14540F2078102383C44A4EB0904D2
:100DA00040EA08400021002E61D024FA0EF400230E
:100DB00034607360BDE8F0878B4207D9002E54D0B1
:100DC000002186E821000846BDE8F087B3FA83F1E8
:100DD000002940F08E80AB4202D3824200F2FA80BA
:100DE000841A65EB03050120AC46002E3FD086E84F
:100DF0001010BDE8F08712B90127B7FBF2F7B7FA78
:100E000087FEBEF1000F34D1EB1B3A0C1FFA87FCB2
:100E10000121B3FBF2F8250C02FB183345EA034528
:100E20000CFB08F3AB4207D9ED1908F1FF3002D2F1
:100E3000AB4200F2D1808046ED1AA3B2B5FBF2F0CE
:100E400002FB105543EA05440CFB00FCA44507D9FE
:100E5000E41900F1FF3302D2A44500F2B88018462D
:100E6000A4EB0C0440EA08409DE731463046BDE85B
:100E7000F087CEF1200405FA0EF307FA0EF720FAF8
:100E800004F83A0C25FA04F448EA0308B4FBF2F13A
:100E90004FEA184502FB11441FFA87FC45EA044556
:100EA00001FB0CF3AB4200FA0EF409D9ED1901F184
:100EB000FF3080F08A80AB4240F2878002393D44A7
:100EC000EB1A1FFA88F5B3FBF2F002FB103345EA88
:100ED000034500FB0CF3AB4207D9ED1900F1FF38D5
:100EE0006FD2AB426DD902383D44EB1A40EA014162
:100EF0008FE7C1F1200722FA07F88B4005FA01F4C9
:100F000048EA030320FA07FE4FEA134CFD404EEA7D
:100F1000040EB5FBFCF94FEA1E440CFB19551FFAF1
:100F200083F844EA054509FB08F4AC4202FA01F2F1
:100F300000FA01FA08D9ED1809F1FF3043D2AC42AA
:100F400041D9A9F102091D442D1B1FFA8EFEB5FBE4
:100F5000FCF00CFB10554EEA054400FB08F8A045D8
:100F600007D9E41800F1FF3529D2A04527D9023866
:100F70001C4440EA0940A4EB0804A0FB02894C454C
:100F8000C6464D4615D312D056B1BAEB0E0364EBEC
:100F9000050404FA07F7CB401F43CC403760746068
:100FA0000021BDE8F0871846F8E69046E0E6C24525
:100FB000EAD2B8EB020E69EB03050138E4E72846F4
:100FC000D7E7404691E78146BEE7014678E7023819
:100FD0003C4445E7084608E7A8F102083D442BE7F2
:100FE000704700BF054B1B69002B00DB7047034BAC
:100FF000034A5A6002F188325A60F7E7003C024027
:1010000023016745024A136943F0004313617047A7
:10101000003C0240014BD860704700BF003C0240DA
:10102000124BDB6813F4803F1DD1104BDB6813F0CB
:10103000100F01D0062070470C4BDB6813F4807F43
:1010400001D002207047094BDB6813F0E00F01D09C
:1010500007207047054BDB6803F00203002B14BF29
:101060000820092070470120704700BF003C024063
:1010700000B583B009238DF80730FFF7D1FF8DF855
:1010800007009DF80730DBB2012B08D1FFF7C8FF3E
:101090008DF807009DF80730DBB2012BF6D09DF8E4
:1010A000070003B05DF804FB70B5064641B10129A5
:1010B0000CD002290CBF4FF400754FF4407500E0CE
:1010C0000025FFF7D5FF092803D070BD4FF48075C8
:1010D000F7E7104C236923F44073236123691D4310
:1010E0002561236923F0F8032361236943F0020398
:1010F0001E432661236943F480332361FFF7B8FF61
:10110000236923F002032361236923F0F803236199
:10111000DBE700BF003C024070B505460E46FFF716
:10112000A7FF092800D070BD094C236923F4407340
:10113000236123692361236943F0010323612E7036
:10114000FFF796FF236923F001032361EBE700BF5C
:10115000003C024001230370014B1B684360704751
:10116000381201201C4B1B784B711C4B1B88CB8009
:101170001B4B1B688B601B4B1A888A815A880A613B
:101180005B68194A934223D0184A934222D0184AE6
:1011900093420CBF032300230B75124B1A7A4A7536
:1011A0005A7A8A755A890A831A7B8A765A7BCA7652
:1011B0009B7B0B770F4B1A784A775A788A779A7805
:1011C000CA77DA7881F820201B7981F821307047BE
:1011D0000123E1E70223DFE7581201200600002087
:1011E00008000020B47301203C1201203E120120AF
:1011F000401201205C120120F0B58BB003460022A2
:1012000002701849009101218DF804108DF8052015
:10121000154A1068CDF8220069461846FFF7A2FF6C
:1012200072B6FFF7DFFEF320FFF7F4FE022138204D
:10123000FFF73AFF092804D0FFF7E4FE62B60BB0CF
:10124000F0BD0DF1FF330DF12707084E6D465C1C14
:1012500098195978401BFFF75FFF2346BC42F6D12F
:10126000EAE700BF43464700D89602080100060897
:1012700030B58BB0314B1868CDF822006C46304D3C
:101280000FCD0FC40FCD0FC495E8030084E8030011
:101290002C496846FFF70CF848B928490DF122009F
:1012A000FFF706F818B99DF80430012B01D00BB0F8
:1012B00030BD9DF80520244B1A70BDF90620234B44
:1012C0001A80234B029A1A60224BBDF80C201A8018
:1012D000049A5A809DF81430012B2AD0022B2AD070
:1012E000032B1D4A18BF00221A4B5A609DF8152087
:1012F0001A729DF816205A72BDF818205A819DF86E
:101300001A201A739DF81B205A739DF81C209A739B
:10131000124B9DF81D201A709DF81E205A709DF8E2
:101320001F209A709DF82020DA709DF821201A71F4
:10133000BDE70B4AD8E70B4AD6E700BFD8960208AC
:1013400000000608DC960208581201200600002062
:1013500008000020B4730120401201205C1201201B
:101360003C1201203E1201202DE9F04705460123E1
:1013700003704370002484700823C3700923037131
:10138000447183714FF4806242F20803C25242F208
:101390001403C45442F21503C45400F580430022E0
:1013A000DA6144F22003C45044F22403C45244F2EC
:1013B0002603C452264A00F58043283307CA03C3D4
:1013C0001A8045F63223EC5405F5005A0AF1180A42
:1013D0000FF27409D9E9008900261E4F07EE904AE2
:1013E000F8EEE77A77EEA77A17EE900AFFF7D6F8CD
:1013F00042464B46FFF726F932463B46FFF722F9B5
:1014000041EC100B1FF00CFF51EC100BFFF712FC1E
:101410004AF8040B0134B4F5806FDFD105F5804341
:10142000313305F5B4403130502103F5807203F8B3
:10143000011F9342FBD113469042F6D12846BDE8E6
:10144000F08700BFAFF30080182D4454FB21094002
:10145000909602080000503F2DE9F04F2DED028BD1
:10146000A9B082460C46069142F20803C05A80B2E7
:10147000FFF772F841EC100B1FF076FE51EC100BE9
:10148000FFF7B8FB1FFA80F89AF80130002B00F044
:10149000908202229E4B83F8162F94ED007ADFEDA6
:1014A0009D7A77EEC77AB1EE007A67EE877AFCEE26
:1014B000E77ACDED057ABDF8142042F208033AF838
:1014C00003309BB2A3F5A073002B08DD904B598825
:1014D0000025DFED906A0AF5005008302BE2002568
:1014E0003CE242F208033AF803309BB2012B40F38E
:1014F00015814FF0010B0AF5005E0EF1080ECDF8D4
:101500001CB0DFED853A40E0013203889BB2043124
:101510009342E6DD92FAA2F363FA08F39BB2934298
:10152000F2DD0C6806EB83031D680D601C60EBE7C1
:10153000BEF800309BB203B3069B04330AF540505B
:101540001C300021D3ED007A13ED017A37EE677A73
:1015500083ED007AC0ED013A13ED017A77EE877AD8
:1015600043ED017A13EE902A40F8082B0231BEF8C1
:10157000002092B208338A42E4DC4FEA4B0BBEF8FB
:1015800000309BB25B4540F3C980BBF1010FCFD067
:10159000BEF80030C3F34E035B4565D0BBF1000FCE
:1015A000EBDD4FEA4B0C069B0AF5405909F11C098B
:1015B0004FEACB074FEA8B064FF00008CDF814B086
:1015C0009B464FEA882393FBFCF30AEB830303F566
:1015D00000521832D2ED004A03F51053183393ED40
:1015E000004ABEF800309BB2434532DD09EB0601EC
:1015F0004A465B464546D3ED005A92ED007A9C1967
:10160000D4ED006AD1ED007A24EE265A24EEA76AC2
:1016100035EE466A64EE277A64EEA66A77EEA67A1D
:1016200075EEC66AC4ED006A77EE676AC1ED006ABE
:1016300035EE866A83ED006A77EE277AC2ED007A8E
:101640006544BEF8000080B2A3193A443944A84268
:10165000D1DC08F101080BF1040B09F10409059B29
:101660009845AED19B4688E7BEF80030C3F34E03E1
:10167000012B82DD4FEA4B0001220799069C930261
:1016800093FBF0F39BB20AEB830303F50055183587
:10169000D5ED007A03F51053183393ED007A0BEB78
:1016A00002039B00E518D5ED006A534404EB810664
:1016B00096ED006A67EE265A03F540531C33D3EDCE
:1016C000006A67EEA66A75EEE66A76EE866AC6ED91
:1016D000006AD5ED006A0AEB820202F540521C3224
:1016E00093ED006A27EE067A67EEA67A77EE277A00
:1016F000D2ED006A77EEA67AC2ED007A013189B2A6
:101700000A46BEF80030C3F34E039942B7DB34E714
:10171000B473012000E0FF4400000000AE4B9A6A61
:10172000DB6AAE4991ED000AB8EE400A013302FBD4
:101730000333DB0207EE903AF8EE677A012280EE7F
:10174000270AA7491AA806F0F9F81B9BC3F1FF4323
:1017500003F5FF0303F5FF437F33022B4BD903222D
:10176000A0491AA811F076FE044616AB149306465B
:1017700056F8083BB34241D01493836816936368CC
:1017800015932660002363602372934B9A6ADB6A89
:10179000924991ED000AB8EE400ADFED937A20EE0F
:1017A000270A013302FB0333DB0207EE903AF8EE1F
:1017B000677A012280EE270A894920A806F0BEF840
:1017C0001599219A8C18149B16A8834214BF169859
:1017D0000F2084421BD9209D22A8854214BF229845
:1017E0000F20844213D800910022114620A811F046
:1017F000ADFD044610E07D481DF0ECF816AD034643
:1018000053F8080F59689A68DB680FC5B7E7209945
:1018100014A811F01FFE044610AB0E93264656F88E
:10182000083BB3425CD00E93A368109363680F9398
:1018300026600023636023720F9BC3F1FF4303F50F
:10184000FF0303F5FF437F33032B52D9042268497A
:101850000EA811F0FFFD04460AAB0893064656F8A1
:10186000083BB34248D0089383680A93636809939E
:1018700026600023636023724FF6FF72269227933F
:101880005C4827AB029326AB019300F10803009359
:1018900008ABE022732102F026F808980AAB9842C0
:1018A00001D006F063FF0E9810AB984201D006F00D
:1018B0005DFF209822AB984201D006F057FF1498A4
:1018C00016AB984201D006F051FF1A981CAB984213
:1018D00001D006F04BFF29B0BDEC028BBDE8F08FC4
:1018E00010AD234653F8080F59689A68DB680FC596
:1018F0009CE73E481DF06EF80AAD034653F8080F0A
:1019000059689A68DB680FC5B0E704EB8503D3ED2F
:10191000007A76EEE77A67EE877AFCEEE77ACDED2D
:10192000057ABDF814200135ADB203889BB2A3F54A
:10193000A0739D424EDA8A42E7DD04EB8503D3EDC6
:10194000007A76EEE77A67EE877A06EE101AB8EE3E
:10195000C66AF4EEC67AF1EE10FAD6D5069B03EB12
:10196000850500249FED248A244F254EF5EC017A4D
:1019700038EE677AF1EE007A67EE277AFCEEE77AC6
:10198000CDED057ABDF814303B803946304604F081
:1019900031F9363080B204F1080306EB4303588076
:1019A000013440F241139C42E0D1154B5A8AA3F80E
:1019B0002A2F42F208033AF803309BB2002B3FF47F
:1019C00090AD069E31460022C8F120080AF500506D
:1019D00008309FE50025C1E7000400401C000020FE
:1019E000008301202897020800809F431097020877
:1019F0002C970208906C012000E0FF443C1201206B
:101A0000B473012031B1104B1B780344002142F222
:101A10001402995443F21803C35CA3B942F21403AD
:101A2000C35C1BB142F21503C35C63B9012243F2EC
:101A30001803C2540022054B1A8042F21403C35CFF
:101A4000DBB2034A1370704759120120441201207F
:101A500042120120000000002DE9F04F2DED048B13
:101A60008DB0074689464FF0010BCDF810B000232A
:101A700005931C461D469FEDA89AF7EE008A9FED40
:101A8000A78AB3E045F63222B95CDBB207EB01224C
:101A9000904444F2320208F80230012C37D0631C23
:101AA0009BB29846B3423ADAFF2B3ADC0134A4B237
:101AB00009EB840393ED000A08F6064307EB830362
:101AC000D3ED010A07F025F920EE090A38EEC00A25
:101AD00020EE080AFCEEC07ACDED037ABDF80C309A
:101AE0001D2BCFDC0135ADB2C82DCBDD44F2260273
:101AF000BB5A0133BB528A4B1B783B44002142F254
:101B0000140299540DB0BDEC048BBDE8F08F07EBC7
:101B100001218B54022E15DD4FF00208C6E71C464A
:101B200000E01C46049B1A1F12B21046B2422EDC83
:101B30004FF0000C61464FF0010A07F5B44808F178
:101B4000320806E00224EDE7013212B21046B2423A
:101B500020DC92B2FF2AF7D8ABEB0003002BB8BF12
:101B60005B42C3F104030AFA03F39BB29C441FFADD
:101B70008CFC98F800E007EB0E2E704444F2320E15
:101B800010F80E0010FB03F3194489B2DCE74FF0A4
:101B9000000C61460CA8059A00EB4203B1FBFCF176
:101BA00023F80C1C134601335A4203F0030302F0DE
:101BB000030258BF53429AB20592BBF1030F0EDDE8
:101BC00045F63222BA5C07EB022293449BB200EB4B
:101BD000430333F80C2C44F22E030BF80320049B30
:101BE00001339BB204939B46FF2B08DCA0460BF10C
:101BF0000406B44296DAFF2C7FF75AAF92E7012130
:101C00003846FFF7FFFE45F632203B5C5A1C45493B
:101C100081FB0231D317C3EBE1031A2101FB13232C
:101C20003B5401230593002304939FED379B9FEDC5
:101C3000388BDFF8FCA02FE0002C15DB04EB8403CD
:101C4000039A02EB03139BB244F2D031069A01FBD4
:101C500002F10020CA182AF81200013C24B2503BBD
:101C60009BB2B4F1FF3FF5D12F4B07990A46A3FB76
:101C700002239B0903EB8303A1EB03139BB2002B0D
:101C800000F0B580049B01330493059A013205925C
:101C9000B3F5A07F3FF436AF059B99469BB20793FF
:101CA000049A224981FB02131146D217C2EB631337
:101CB00003F001021046069203EB8303A1EB03132A
:101CC0009BB20393A1F1020876254FF0000BD824B4
:101CD00044F2D03606FB00F636E0F1182AF811007F
:101CE000013C24B2503B9BB224B3A24201DDA64585
:101CF00020DCA242F1DAA645EFDAF1182AF811B099
:101D0000EEE700BFAFF30080000000000000F03FEE
:101D10009A9999999999E93F000080370000A0426B
:101D2000591201204FECC44ECDCCCCCC6766666610
:101D3000F40200200CF1010BA8F10208053DADB240
:101D4000BBF11A0F3FF478AF384B9B78002B60D073
:101D50004FF6E43140F21D52012B0CBF13460B46E7
:101D6000ADF82E304FEA4B00FEF706FC02460B465C
:101D700051EC180BFEF766FCFEF73CFF82B20DF14A
:101D80002E012B4804F0C0FEDC464FEA4B03DA1C60
:101D90009145CFDD03F203139945CBDA45F63223A3
:101DA000FB5C9B44234B83FB0B324FEAEB73C3EB8F
:101DB000E2031A2202FB13B31BB207EB03234344D3
:101DC00044F232029A5C2A4412B244F2310113F80E
:101DD00001E0AE440FFA8EFE002CABDD04EB840371
:101DE000039901EB03139BB24FF0000B7DE7BDF8A5
:101DF0001030A3F14F0148F2A072069802FB00A236
:101E00000192D8220092002289B20B4801F088FB8F
:101E100038E74FF4FC63ADF82E304FEA4B00FEF785
:101E2000ABFB02460B4651EC190BA3E75C120120F9
:101E3000008301204FECC44E906C01202DE9F04F3F
:101E40002DED048BB9B083460E9100F5005214328B
:101E500000F500530A33002123F8021B9A42FBD1FC
:101E6000002244F220034BF80320AE4B9B78D3B101
:101E70004AF6601240F29321012B18BF11460991D6
:101E800001230A93089300230D934FF0FF320C9225
:101E90009A469FEDA59ADFEDA58A9FEDA58AA54BF1
:101EA00008330F93C7E04FF438730993E8E74FF016
:101EB0001F0900230D9320EE280AF7EE007A77EE33
:101EC000C07A67EE887AF4EE487AF1EE10FAC8BF6D
:101ED000F0EE487AFCEEE77ACDED067ABDF81860B0
:101EE0000A99481E944A82FB0032C317C3EB62135F
:101EF00003F001030B93002310931093109BD82B36
:101F000066DC8D4A82FB0042C317C3EB621303EB0E
:101F10008303A0EB031080B2884BB3F82A3F9C46A2
:101F200001F10807854A02EB47070793844D44F205
:101F3000D0340B9B04FB03F44FF0000E42F21078F8
:101F40002BE04FF01F0900230D93B4E744F2260263
:101F50003BF8023001332BF802307A4B1B785B449C
:101F6000002142F21402995439B0BDEC048BBDE853
:101F7000F08F9BF8011039B110998A4204DC109A55
:101F80000699914280F23883234425F813E0109B90
:101F900001331093109BD82B1ADC109B03EB8303A7
:101FA00000EB03139BB27A8892B29445B9BF0692B4
:101FB000079A0799069110998E42DADC0AF1010A14
:101FC0000FFA8AFAC245C1DC234425F81390DEE7F4
:101FD0005A4A0A980346083302EB43035B88A2F887
:101FE0002A3F594B08990A46A3FB02239B0903EB9E
:101FF0008303A1EB03139BB2A3B9F02869DC089A11
:10200000531EA2F150014E4A48F2A0700B9C00FBF7
:1020100004220192D82200929BB2002289B2454844
:1020200001F07EFA089B01339BB208930A93B3F543
:10203000A07F00F3E1810E9B089A03EB820393EDEE
:10204000000A0A9C04F606430BEB8303D3ED010A56
:1020500006F05FFE0C9B032B3FF729AFB4EEC90AD5
:10206000F1EE10FA7FF76DAFB3F1FF3F03D00D9B98
:102070000133A34203DA0C9B01331BB20C93BDF96D
:1020800020300D930C9B0BEB430344F2280233F8F2
:10209000029042F20A029A5A6AB144F220025BF8B4
:1020A000022007EE902AF8EE677AF4EEC07AF1EE9D
:1020B00010FA7FF500AF42F20A02BDF820109952E3
:1020C00044F22002FCEEC07A17EE903A4BF8023050
:1020D000F1E601215846FFF795FC42F20A033BF86E
:1020E0000330002B8BD0164A48F2A0710B9801FBED
:1020F00000220025A9462F460BF5005808F10A08D2
:10210000CDF818A09246C0E010481CF063FC0DF119
:10211000800E034653F8080F59689A68DB68AEE8EA
:102120000F00E6E05C12012000504347000000363B
:1021300000005843906C012067666666B473012006
:10214000F402002059120120CDCCCCCC109702080B
:102150002A991EA811F07EF904461AAB1893254659
:1021600055F8083BAB4200F005811893A3681A9319
:10217000636819932560002363602372199BC3F180
:10218000FF4303F5FF0303F5FF437F33012B40F2C9
:10219000FA800222904918A811F05CF9044614ABA9
:1021A0001293054655F8083BAB4200F0EF801293BE
:1021B000836814936368139325600023636023721C
:1021C00018981AAB984201D006F0D0FA2A982CAB96
:1021D000984201D006F0CAFA1E9820AB984201D06E
:1021E00006F0C4FA249826AB984201D006F0BEFA55
:1021F00009F1010303EB83039C00A4B232AB3093DB
:10220000129E139D002E00F0CA8011950F2D00F232
:10221000CC803098012D00F0D180002D40F0D1808D
:10222000119B31930021309AD15409F5005909F1DD
:1022300014093BF81930369338AB43F8041D049366
:1022400036AB03930F9B029330AB0193CDF800A004
:1022500050232246614801F069FB309832AB984226
:1022600001D006F083FA129814AB984201D006F020
:102270007DFA0137FFB2B946042F00F3A7803D462F
:1022800038F81730002B00F0A48007EE903AF8EEF3
:10229000677AB8F8003007EE103AB8EEC77AC7EEA2
:1022A000876A16EE900AFEF779F941EC100B1EF0E2
:1022B0006FFF51EC100BFEF79DFC82B2484924A839
:1022C00004F050FF6FF00043259A9A423FF41CAF90
:1022D0000122444924A811F0BDF8044620AB1E9306
:1022E000064656F8083BB3423FF411AF1E9383688D
:1022F000209363681F9326600022626022723A492D
:10230000886ACB6A3949D1ED007AF8EE677A38F8F5
:10231000151000EE101AB8EEC00A27EE800A01333D
:1023200000FB0333DB0207EE903AF8EE677A80EEAB
:10233000270A2B492AA805F001FB1F9C2B9AA118FC
:102340001E9B20A8834214BF20980F2081427FF655
:10235000FFAE2A982CADA84214BF2C980F208142C2
:102360003FF6F6AE0094002211462AA810F0EEFFC8
:102370000446F2E61AAE234653F8080F59689A68E5
:10238000DB680FC6F4E61A481CF024FB14AE0346C3
:1023900053F8080F59689A68DB680FC60AE7002DE2
:1023A0003FF433AF13481CF012FB002211A930A8F0
:1023B00010F0B4FD3090119B32932AE7337803700C
:1023C0002EE72A46314620F04AFD29E7DDF818A01D
:1023D00015E6DDF818A012E6E0960208906C0120E0
:1023E0000083012048AD0208000400401C000020CA
:1023F00010970208E49602089BF80030002B3FF487
:10240000B3AD42F20A033BF80340002C3FF4ACADFD
:102410007C4B9A6ADB6A7C4991ED007AB8EE477A88
:1024200007EE904AF8EEE77A27EE277A013302FBAF
:102430000333DB0207EE903AF8EE677AC7EE276ABD
:102440000BF58043C3ED076AB2EE040A86EE800AFC
:102450001EF02EFFF2EE007AB4EE670AF1EE10FAEB
:1024600048BFB0EE670AFCEEC07ACDED067ABDF843
:102470001880A8EB0403002BB8BF5B42012B40F38C
:10248000A580604BDB6A03FB08F3B3FBF4F344F273
:1024900024022BF8023004F18043013B0E9A02EB38
:1024A00083031868FEF77AF806460F4604F60543DC
:1024B0000BEB83035868FEF771F804460D4632466D
:1024C0003B4630463946FEF7BDF806460F462246E3
:1024D0002B4620462946FEF7B5F802460B46304605
:1024E0003946FDF7FDFE41EC100B1EF087FFB0EE04
:1024F000409AF0EE609A42F20A033BF80360731CC4
:102500000E9A02EB83031868FEF748F804460D465E
:1025100006F607430BEB83035868FEF73FF80646C1
:102520000F4622462B4620462946FEF78BF80446E6
:102530000D4632463B4630463946FEF783F80246A2
:102540000B4620462946FDF7CBFE41EC100B1EF052
:1025500055FF51EC100BFEF725FB07EE900AB8EE85
:10256000E78A51EC190BFEF71DFB07EE900AF8EE17
:10257000E76A0BF58043D3ED077A77EEA77A07EE8B
:10258000108AB8EEC77A67EE877A36EEA77AB4EE8D
:10259000C78AF1EE10FA20DD44F224023BF8023043
:1025A000013B2BF8023044F224033BF803305A1E5F
:1025B00092B241F26E718A423FF6D6AC114AD26AAB
:1025C0009A423FF4D1AC0F4AD362CDE40D4BDA6AA4
:1025D00044F224032BF803205DE778EE277AF4EE2B
:1025E000E76AF1EE10FADEDD44F224023BF8023035
:1025F00001332BF80230D6E72344BDF8242025F818
:102600001320C4E4000400401C00002038B5044638
:102610000021FFF7F7F942F21403E35C23B942F219
:102620001503E35C002B2FD042F21403E35C83F02C
:1026300001031A490B701A4B1A6822F001021A6042
:10264000184805685A6A02EB0542174D2A605A6914
:1026500042F001025A611A6842F001021A60002336
:102660000360097804EB013108312046FEF7F4FEDF
:102670000E4B1B78012B08D0084B197804EB013165
:1026800008312046FFF7E8F938BD044B197804EB10
:10269000013108312046FFF7D1FB38BD5912012026
:1026A0000040014050120120541201205812012014
:1026B000224B1A6C42F080521A6421490A6842F493
:1026C00080420A601F49D1F8882042F47002C1F8A4
:1026D00088201A6842F480321A601A46136813F48C
:1026E000003FFBD0154B184A5A609A689A609A6866
:1026F00042F400429A609A6842F4A0529A601A68C2
:1027000042F080721A601A46136813F0007FFBD003
:1027100040F205720D4B1A60A3F580639A6822F0AF
:1027200003029A609A6842F002029A601A4693681D
:1027300003F00C03082BFAD1704700BF00380240A9
:102740000070004000ED00E0085A4007003C0240E5
:102750000B4B00221A604FF6FE715960F0200949B8
:1027600081F823009A601A6842F004021A601A681D
:1027700042F002021A601A6842F001021A607047C1
:1027800010E000E000ED00E0324A136B43F002037A
:102790001363136B43F004031363136C43F400439C
:1027A00013642D4B196841F080611960996841F0FC
:1027B00080619960196841F080511960A3F58063C8
:1027C000196841F400611960996841F440619960A9
:1027D000196A41F4C0011962196841F08001196059
:1027E000996841F0C0019960196A41F4C0411962C9
:1027F000A3F5E433196841F400711960196841F4D4
:1028000080711960196841F008011960196841F078
:1028100004011960196841F040011960136B43F419
:10282000001313630D4B1A6822F060621A601A6875
:1028300042F400521A601A6842F400621A601A6880
:1028400042F040021A601A6842F400321A60044AE8
:102850009A607047003802400008024088600240D9
:102860000C3C0040524A136C43F0010313644FF0D8
:102870008043596841F04001596013219962312128
:10288000D9625963196A41F001011962996941F0ED
:1028900060019961196841F001011960136B43F0FF
:1028A00001031363136B43F004031363536C43F48A
:1028B000807353643F490B6843F0C0030B603E4B89
:1028C000196841F440611960196841F00301196009
:1028D000A3F56043596841F4807159604FF40011C9
:1028E000D962596B41F00D015963596B41F0A00158
:1028F0005963596B5963D96841F42061D9601969EA
:1029000041F420311961196941F005011961996893
:1029100041F480619960996841F0805199609968AB
:1029200041F0C0619960996841F48071996099683B
:1029300041F400719960116B41F48001116302F55B
:1029400031523032116821F0C0011160116841F438
:1029500000311160116841F400611160116841F4A7
:1029600000511160116821F400711160116841F487
:1029700080611160116841F480711160116821F06B
:10298000C0011160516841F00C0151600B49916028
:102990000B49D160116821F060611160116841F04C
:1029A000010111609A6842F001029A60704700BF0D
:1029B0000038024000080240000002404C20014064
:1029C000DC0200200E4A136C43F0020313640D4B2B
:1029D00032229A628C22DA62DA6842F00102DA600C
:1029E000094A4FF000511160002182F81D131A6846
:1029F00042F001021A605A6942F001025A617047BE
:102A0000003802400004004000E100E00B4A536C33
:102A100043F4803353640A4B64229A624FF6FF7288
:102A2000DA62DA6842F00102DA60064B4FF0807237
:102A30001A60202283F81823704700BF0038024034
:102A40000040014000E100E0064A136C43F0080337
:102A50001364054B42F210729A624FF6FF72DA620B
:102A6000704700BF00380240000C004030B4524AAA
:102A7000136B43F001031363136B43F002031363FF
:102A8000136B43F004031363536C43F480435364A8
:102A90004A49CB6843F48013CB604948036903611A
:102AA000A1F544418B6843F480638B60CB6843F4A9
:102AB0008063CB600B6843F480630B60414BDC6840
:102AC00044F08064DC60446944F010044461886828
:102AD00040F400508860C86840F40050C86008683E
:102AE00040F400500860D96841F48051D9601968F9
:102AF00041F400511960196A41F000711962D968F6
:102B000041F48041D960196841F400411960196AA3
:102B100041F000511962136C43F0040313642A4B13
:102B200000259D624FF6FF74DC62996841F0030155
:102B30009960996841F4706199604FF4FA40586265
:102B4000196841F00101196003F50033D96841F4B7
:102B50008051D960196841F400511960196A41F037
:102B600040711962D96841F48041D960196841F413
:102B700000411960196A41F040511962536C43F0E9
:102B800002035364114B9D62DC629A6842F00302B7
:102B90009A609A6842F470629A6058621A6842F0C9
:102BA00001021A600A4B402283F828234FF48072F6
:102BB0005A6030BC704700BF00380240000002403D
:102BC00000380140000402400008004000040140B9
:102BD00000E100E0184A136C43F400231364174B20
:102BE0001A6842F400021A605A6A42F400425A62B9
:102BF000A3F5DE339968124A12681248A0FB02025C
:102C0000D20C41EA02129A60DA6822F48052DA6049
:102C1000DA6842F00402DA60DA6842F02002DA6030
:102C2000094A302182F834134FF480115160DA6878
:102C300042F40052DA607047003802400008024057
:102C40001C00002083DE1B4300E100E082B0019104
:102C5000019B2BB1019B013B0193019B002BF9D1FF
:102C600002B070471E4A1F485368002BFCD183688E
:102C700013F0030FF8D0836813F0800FF4D11A4AD1
:102C8000936943F000539361087802F5B14208322A
:102C900014495368002BFCD18B6813F0030FF8D054
:102CA0008B6813F0800FF4D10E4B1B6813F4006F88
:102CB0000FD10E4B18700A4A0A495368002BFCD1F9
:102CC0008B6813F0030FF8D08B6813F0800FF4D1EA
:102CD0007047044A136823F400631360E9E700BFF8
:102CE00088600240003C0040000802400C3C00406C
:102CF000F8B50C460968FFF7B5FF1D4A936943F420
:102D000000539361256863685B1B012B2FD9012653
:102D10003046184B1849194F0CE00A6822F400623B
:102D20000A6017E00130C0B2064625686268521B8F
:102D300090421CD2AD5D5A68002AFCD18A6812F01C
:102D4000030FF8D08A6812F0800FF4D10A6812F4E9
:102D5000006FE2D13D705A68002AFCD18A6812F0F7
:102D6000030FF8D08A6812F0800FDBD0F3E7F8BDCC
:102D70000008024088600240003C00400C3C0040DB
:102D8000174A936943F400539361087802F5B142FE
:102D9000083214495368002BFCD18B6813F0030FE1
:102DA000F8D08B6813F0800FF4D10E4B1B6813F42E
:102DB000006F0FD10C4B18700C4A0A495368002B56
:102DC000FCD18B6813F0030FF8D08B6813F0800FE1
:102DD000F4D17047034A136823F400631360E9E7F2
:102DE00000080240003C00400C3C0040886002406B
:102DF00010B42D4A936943F4005393610C88240A5C
:102E000002F5B142083229485368002BFCD183688F
:102E100013F0030FF8D0836813F0800FF4D1234B25
:102E20001B6813F4006F33D1214B1C70214A1F48DB
:102E30005368002BFCD1836813F0030FF8D083682C
:102E400013F0800FF4D108781A4A18495368002B00
:102E5000FCD18B6813F0030FF8D08B6813F0800F50
:102E6000F4D1124B1B6813F4006F17D1104B18707C
:102E7000104A0E495368002BFCD18B6813F0030FE6
:102E8000F8D08B6813F0800FF4D15DF8044B7047D5
:102E9000064A136823F400631360C5E7034A136806
:102EA00023F400631360E1E700080240003C0040A7
:102EB0000C3C00408860024010B584B00446ADF878
:102EC0000610ADF80420ADF8023004A92A2301F859
:102ED000023DFFF7C7FE0DF106012046FFF788FF10
:102EE0000DF102012046FFF783FF04A92B2301F80F
:102EF000013D2046FFF7B6FE01A92046FFF778FF07
:102F000006A92046FFF774FF04B010BD30B583B0AA
:102F100004460D4602A9362301F8053DFFF7A2FE3F
:102F2000032D30D8DFE805F00210182702A9582336
:102F300001F8043D2046FFF723FF2570F02363804E
:102F40004FF4A073A38014E002A9882301F8033D85
:102F50002046FFF715FFF0E702A9282301F8023DFC
:102F60002046FFF70DFF25704FF4A0736380F02318
:102F7000A38003B030BD02A9E82301F8013D20463B
:102F8000FFF7FEFEEFE72570012DEDD8D6E7000034
:102F9000F0B585B00546BDF828605F1AB41A013453
:102FA00007FB04440096FFF787FF0B9B1B88EB8011
:102FB00004A92C2301F8013D2846FFF753FE274AB8
:102FC000936943F400539361A2F5E632136843F426
:102FD000006313604FF46062214BDA60214A13688A
:102FE00023F480631360B4F5803F28D3640813464C
:102FF00054600635D560126842F001021A601A4A20
:10300000536843F00203536002F5093288321649CF
:103010005368002BFCD18B6813F0030FF8D08B683A
:1030200013F0800FF4D14FF460620D4BDA608833F7
:103030005C601A6842F001021A6005B0F0BD094BED
:103040005C600635DD601A6842F001021A60064ACB
:10305000536843F002035360EFE700BF00080240EB
:103060000060024088600240003C004000B583B030
:103070004388013B01918288013A92B200929BB24F
:1030800000221146FFF784FF03B05DF804FB000047
:10309000F0B5C1B00446A44DAB6943F08043AB61C9
:1030A00044F62061FFF7D2FDAB6943F48043AB6186
:1030B00044F620612046FFF7C9FD40A9012301F82D
:1030C000F93D2046FFF7CEFD4CF250312046FFF788
:1030D000BDFD0023029303930493062005F04DFBEE
:1030E00003460290821D04929049086818608988FE
:1030F0009980039202A92046FFF7FAFD029808B1D1
:1031000005F034FB0023059306930793042005F094
:1031100034FB0590031D0793854A126802600693ED
:1031200005A92046FFF7E4FD059808B105F01EFB50
:103130000023089309930A93042005F01EFB0890CE
:10314000031D0A937B4A12680260099308A920466E
:10315000FFF7CEFD089808B105F008FB00230B939C
:103160000C930D93032005F008FB0B90C31C0D93EB
:10317000714A11889278018082700C930BA92046C5
:10318000FFF7B6FD0B9808B105F0F0FA00230E9397
:103190000F931093052005F0F0FA03460E90421DA0
:1031A0001092664908681860097919710F920EA982
:1031B0002046FFF79DFD0E9808B105F0D7FA0023D1
:1031C000119312931393022005F0D7FA1190831CE8
:1031D00013935B4A12880280129311A92046FFF7CD
:1031E00087FD119808B105F0C1FA002314931593D7
:1031F0001693022005F0C1FA1490831C1693514ACD
:1032000012880280159314A92046FFF771FD1498C7
:1032100008B105F0ABFA0023179318931993022015
:1032200005F0ABFA1790831C1993474A1288028065
:10323000189317A92046FFF75BFD179808B105F012
:1032400095FA00231A931B931C93032005F095FA1B
:103250001A90C31C1C933D4A118892780180827099
:103260001B931AA92046FFF743FD1A9808B105F0F1
:103270007DFA00231D931E931F93022005F07DFA13
:103280001D90831C1F93324A128802801E931DA931
:103290002046FFF72DFD1D9808B105F067FA0023C1
:1032A000209321932293022005F067FA2090831C3B
:1032B0002293284A12880280219320A92046FFF7F2
:1032C00017FD209808B105F051FA002323932493A9
:1032D0002593022005F051FA2390831C25931E4A62
:1032E00012880280249323A92046FFF701FD23982A
:1032F00008B105F03BFA0023269327932893032077
:1033000005F03BFA2690C31C2893144A1188927842
:1033100001808270279326A92046FFF7E9FC2698B2
:10332000F0B105F023FA1BE00008024034970208D0
:103330003C97020840970208449702084897020801
:103340005097020854970208589702085C970208A1
:103350006097020864970208689702086C97020851
:10336000002329932A932B93042005F006FA299031
:10337000031D2B93624A126802602A9329A92046F2
:10338000FFF7B6FC299808B105F0F0F900232C935B
:103390002D932E93022005F0F0F92C90831C2E9390
:1033A000584A128802802D932CA92046FFF7A0FCD2
:1033B0002C9808B105F0DAF900232F93309331935C
:1033C000052005F0DAF903462F90421D31924E494F
:1033D000086818600979197130922FA92046FFF703
:1033E00087FC2F9808B105F0C1F90023329333937D
:1033F0003493052005F0C1F903463290421D349202
:1034000042490868186009791971339232A9204637
:10341000FFF76EFC329808B105F0A8F90023359348
:1034200036933793022005F0A8F93590831C379323
:10343000374A12880280369335A92046FFF758FC98
:10344000359808B105F092F90023389339933A93EF
:10345000102005F092F90546389000F110073A97D0
:103460002C4E0FCE28606960AA60EB60399738A9AE
:103470002046FFF73DFC389808B105F077F90023A6
:103480003B933C933D93102005F077F905463B9024
:1034900000F110073D97204E0FCE28606960AA60AA
:1034A000EB603C973BA92046FFF722FC3B9808B114
:1034B00005F05CF940A9112301F8053D2046FFF70E
:1034C000D1FB16492046FFF7C1FB40A9292301F88B
:1034D000043D2046FFF7C6FB40A92C2301F8033D1D
:1034E0002046FFF7BFFB03212046FFF70FFD40A951
:1034F000002321F8023D2046FFF7B8FD41B0F0BDA2
:10350000709702087497020878970208809702085B
:10351000889702088C9702089C97020840420F0087
:10352000F0B585B00646BDF828505F1AAC1A0134D4
:1035300007FB04440095FFF7BFFC04A92C2301F806
:10354000013D3046FFF78EFB104A936943F4005368
:103550009361A2F5E632136843F4006313604FF4FD
:1035600060610B4BD9608833196841F48061196040
:103570005C600B99D960196841F0010119605368CA
:1035800043F00203536005B0F0BD00BF00080240E5
:103590000060024030B585B004461D4600920B46DF
:1035A000FFF78AFC04A92C2301F8013D2046FFF710
:1035B00059FB29462046FFF71BFC05B030BD2DE91D
:1035C000F04F89B003900D4616461F46BDF84830AF
:1035D0000493DDF84CA043889942A4BF03F1FF3562
:1035E000ADB2BB42DCBF03F1FF37BFB2039B9B8888
:1035F0009A42A4BF03F1FF36B6B2049A934204DCA8
:1036000003F1FF3B1FFA8BF30493BD4202DD2B460F
:103610003D461F46049A964202DD33461646049301
:103620007B1B1FFA83FB0FFA8BF3049A921B92B257
:1036300005920FFA82F923B3B9F1000F21D04B455F
:1036400030DD03EBD3746410C3F10008DAF8003006
:10365000ADF81E300DF11E03324629460398FFF7E0
:1036600099FFBD4225D0444504DD059BE41A24B2F0
:103670000135ADB24C45E9DA5C4424B20136B6B24C
:10368000E4E7DAF8002008AB23F8042D0193049B4B
:1036900000933B46324629460398FFF779FC09B070
:1036A000BDE8F08FC9F1000404EBD47444F34F0477
:1036B000CAE7049B9E42D6D1F1E72DE9F04385B0DD
:1036C00080460D4614461F46BDF83060DDF8349044
:1036D00043889942A4BF03F1FF35ADB2BB42DCBFC2
:1036E00003F1FF37BFB283889A42A4BF03F1FF34CE
:1036F000A4B2B342DCBF03F1FF36B6B2BD4202DD75
:103700002B463D461F46B44202DD234634461E4644
:10371000D9F8002004AB23F8082D019300943B4610
:10372000224629464046FFF733FCD9F8002004AB77
:1037300023F8062D019300962B4622462946404643
:10374000FFF726FCD9F8002004AB23F8042D0193E1
:1037500000963B46324629464046FFF719FCD9F809
:10376000002004AB23F8022D019300963B4622462D
:1037700039464046FFF70CFC05B0BDE8F083000079
:103780002DE9F04F83B004460C9EDDF83480DDF85F
:103790003890307808446588A84203DD71780A447F
:1037A00092B200217578AB4695B300200746844657
:1037B000A3F1200A4FF4D07E0BFB0A0B736833F899
:1037C0001B503378DBB13B46002005FA00F010F4C3
:1037D000004F94F898B60EFB0B3B0BF10C0B14BF8B
:1037E000D8F80000D9F8000024F81B0001339BB280
:1037F000D81B80B296F800B05845E6DB1F460CF1A6
:10380000010C1FFA8CFC60467578AB46AC45D3DBE7
:103810001548164F4368002BFCD1BB6813F0030F0B
:10382000F8D0BB6813F0800FF4D13378013B0B4420
:1038300094F898064FF4507606FB0040183001903B
:10384000501E284480B200909BB22046FFF768FECD
:1038500094F8983613F1FF3318BF012384F8983693
:1038600003B0BDE8F08F00BF88600240003C00401C
:103870002DE9F04F099D0B9CDDF830E0DDF834C0F8
:10388000667876B312FB031290B2002217469DF8B9
:103890002880A8F120089146924606FB082162681C
:1038A00032F811B02278A2B14E465246811889B240
:1038B0000BFA06F616F4004F14BFDEF80060DCF8D1
:1038C000006025F81160013292B2164621788A42D2
:1038D000ECDB0137BFB23A466678184480B2B74293
:1038E000DBDBBDE8F08F2DE9F04F85B082468B46DB
:1038F00091460E9DDDF83C80109F1C685E68264452
:10390000A64210D014F8013B0297CDF80480009530
:103910004A4659465046FFF733FF297859441FFA63
:1039200081FBA642EED105B0BDE8F08F2DE9F04F46
:1039300089B083460C4606920793DDF848A0139B96
:10394000149EDDF85490DDF858801D685F682F44A0
:10395000AF4214D0CDF81080CDF80C90029615F837
:10396000013B0193CDF800A0079B069A21465846DB
:10397000FFF77EFF33781C44A4B2AF42EAD109B00E
:10398000BDE8F08F70B50646836B6BB1C46CC56D36
:103990000435AC4205D254F8040B04F0E7FEA5420E
:1039A000F9D8B06B04F0E2FE304670BD70B5054644
:1039B000046A466AB4421FD1286A08B104F0D6FEF0
:1039C0006C69AE69B44229D1686908B104F0CEFED1
:1039D000AC68EE68B44233D1A86808B104F0C6FE02
:1039E000284670BD606804F10C03984201D004F0D1
:1039F000BDFE3834A642DFD0206A04F12803984285
:103A0000F0D004F0B3FEEDE7606804F10C039842D7
:103A100001D004F0ABFE3834A642D5D0206A04F1C0
:103A200028039842F0D004F0A1FEEDE7606804F1AD
:103A30000C03984201D004F099FE3834A642CBD052
:103A4000206A04F128039842F0D004F08FFEEDE7DD
:103A500070B5A14A136923F0010313619F4B1A78D3
:103A6000531EDBB2012B40F2F580002A40F0A78103
:103A70009B4B1888DC88A4B299895A8A14FA80F082
:103A800010FA81F111FA82F292B296490A805B88AB
:103A90009BB2B3F57A5F924BCCBF1A895A8892B227
:103AA0008F4B1889DC89A4B2998A14FA80F010FA35
:103AB00081F10A4492B28C490A809988588980B26F
:103AC0001A8ADB8A10FA81F111FA82F212FA83F370
:103AD0009BB2864A1380864B93F81D3F002B44D13E
:103AE000844B1B7833B1844B1B78844A1278DBB249
:103AF000934247D07E4B5968002900F0A7821A46AE
:103B0000B3F8243F9BB2B2F9002093423ADD7C4BDC
:103B10001B889BB2764A5288934233DA0B889BB259
:103B20009A422FDC724A012382F81D3F724C2178A1
:103B3000744B18881388C01A00B201F5F26102EBC9
:103B40004101C880217801F5F26102EB4102D2887F
:103B500012F4004F40F02281674A1278013B9BB279
:103B600002F5F262624921F81230634B1B7803F5CB
:103B7000F2635F4A32F813309BB240F23F12934235
:103B800000F01E825A4B93F81D0F002800F0268289
:103B9000594D2C785B4A138852490E88B6B2544965
:103BA00004EB8404A40114FA83F3083301EB430308
:103BB0005E802C7813884C4E3688B6B204EB8404B1
:103BC000A40114FA83F303F5227301EB43035E802F
:103BD0002C781388454D2D88ADB204EB8404A401E4
:103BE00014FA83F303F5A16301EB43035D804B6893
:103BF0001B889BB242490B8013889BB240F23F1254
:103C0000934200F0D8803F4A138801339BB213805F
:103C1000394B1A78364902F5F26231F81230013325
:103C20009BB221F81230002840F0CB80B1F8243F3D
:103C300001339BB2A1F8243FB1F8243F9BB2B3F506
:103C40007A7F40F3BE802F4B1B889BB2002B00F085
:103C5000D68170BD42F208032B4AD25A92B2294B48
:103C60001B889BB29A422FD043F21803264AD35C9A
:103C7000002B00F0A6809378002B49D11E4B1E78B4
:103C8000204B1D88164A1088D488A4B29189538A83
:103C9000B20212FA85F51C4A02EB850214FA80F092
:103CA00010FA81F111FA83F307EE903AFAEECF7A27
:103CB0009FED167A77EE677AC2ED027A114A138881
:103CC00001339BB2138070BD43F218030E4AD35CDC
:103CD000002B40F0528170BD0004004058120120BA
:103CE000DC0200203C1201203E1201204012012083
:103CF000B47301205A1201204212012059120120EE
:103D0000B0730120441201205C12012000E0FF4446
:103D1000012B22D0022BD1D19E4B1E789E4B1D88A9
:103D20009E4A90885489A4B2118AD38AB20212FAA8
:103D300085F59B4A02EB850214FA80F010FA81F1B6
:103D400011FA83F307EE903AFAEECF7A9FED957A67
:103D500077EE677AC2ED027AB0E78E4B1E788E4B13
:103D60001D888E4A50881489A4B2D189938AB202E0
:103D700012FA85F58A4A02EB850214FA80F010FAED
:103D800081F111FA83F307EE903AFAEECF7A9FEDC4
:103D9000857A77EE677AC2ED027A8FE77D4A1178ED
:103DA00001F5F262804901EB4201CA8802F5A07276
:103DB00012B2CA80D0E60022774B1A8028E7032A85
:103DC00000D070BD764B9B78002B75D1734A10885C
:103DD000D488A4B29189538A14FA80F212FA81F23B
:103DE00012FA83F39BB2714A13806F4B93F81D3F15
:103DF000002B2FD16E4B1A8892B26E4B1B889BB250
:103E00009A4280F21D81694B1A8892B2694B1B88D5
:103E10009BB29A42C0F21481634B93F8423F2BB19C
:103E2000614B93F8433F002B40F00A815E4B012227
:103E300083F81D2F93F8422FD2B256490A70002200
:103E40005548028083F83A2F097801F5F36103EBB6
:103E50004103DA804F4B1B784F4802885349098849
:103E600089B203EB83039B0113FA82F308334E4AB2
:103E700002EB4303598003889BB283B14C4B1A88F1
:103E800092B24C4B1B889BB29A4208DA474B1A8875
:103E900092B2484B1B889BB29A4280F2C6803E4B3E
:103EA0001B889BB240F23F1293425DD03A4A13887E
:103EB00001339BB21380C3E0012B0FD0374A9088A7
:103EC0005489A4B2118AD38A14FA80F212FA81F2C8
:103ED00012FA83F39BB2354A138086E72F4A508843
:103EE0001489A4B2D189938A14FA80F212FA81F269
:103EF00012FA83F39BB22D4A138076E7254A137892
:103F0000254E318889B2284D03F5F36305EB430351
:103F1000D98013782B44012183F8421F1478E4B22E
:103F2000318889B2284602F0CDF804F5747305EBA8
:103F3000830383ED010A002385F81D3F33889BB27C
:103F4000B3F58C7F7CDA33889BB21B4AD26A02FBC2
:103F50000333DB08194AA2FB032343F34F03002B6F
:103F60006EDD154AD3626BE000220F4B83F81D2FE4
:103F7000114AD36A1E33D36262E0064B1B78084AAB
:103F80001344012042F214015854002143F2180353
:103F9000D15470BD4212012044120120DC020020E5
:103FA0005C12012000E0FF44B47301203C120120A8
:103FB000B073012004000020000400400FEAA00EAE
:103FC0002D4A1378DBB213F1FF3318BF01231370AE
:103FD0002A4B0022A3F8242F83F81D2F284B1B788F
:103FE00003F0FF00002B3FF4D3AD234B1B78254A91
:103FF0001278DBB293423FF4E4AE0020C8E51E49DC
:104000000B78DBB213F1FF3318BF01230B701B4A8F
:104010000020A2F8240F0B7803F5F26302EB4303B0
:10402000D8800123A2F8143F70BD144A92F83A3F99
:104030000133DBB282F83A3F527C9A423FF45EAFE2
:10404000114B1B889BB2114A138070BD0B4A012390
:1040500082F81D3F00200E4B188007490B7803F5AE
:10406000F26302EB4303D8800B7803F5F2634FF65B
:10407000FF7122F8131078E542120120B473012079
:104080005A120120591201203C120120B073012064
:1040900044120120294B5B6913F4806F23D0284B15
:1040A0001B6913F4806F04D1264A536943F001035E
:1040B0005361244A136843F001031360204B1B69CA
:1040C00013F4806F0AD0536A642B07D901221E4B68
:1040D000DA701C4A136823F001031360174A53690E
:1040E00043F480635361154B5B6913F4005F24D084
:1040F000164B1B6913F4005F04D1124A536943F055
:10410000010353610F4A136843F0010313600F4B1F
:104110001B6913F4005F0AD0536A642B07D901228C
:10412000094B1A71074A136823F001031360034A0D
:10413000536943F40053536170477047003C01409A
:1041400000000240000C00400083012000040240F7
:10415000044A136923F001031361034A136801330E
:104160001360704700400140501201200A4A136852
:104170000A494B7D5268CA548A7D01328A750133DF
:10418000074880FB0320DA17C2EBE00202EB820251
:10419000A3EB82034B757047004C00403073012045
:1041A00067666666024A136801331360704700BF92
:1041B0003812012000B583B002F030FCFEF778FA27
:1041C00002F052FCFEF722FCFEF73EFCFEF7DCFAA2
:1041D000FEF748FBFEF74AFCFEF7FCFCFEF7B8FAD8
:1041E0002B48FEF755FF2B4B1B6913F4806F1ED134
:1041F000FEF7E8FB284804F05BF9284B1B881BB24C
:10420000274AD2ED006AC3F5005307EE903AF8EE64
:10421000E77A87EEA67AFCEEC77ACDED017ABDF893
:104220000430204A13801C4C1F4D204E06E01E48CF
:10423000FDF71EF8DCE71E4801F068FF204604F099
:10424000BFF92B784BB132686B6803F52633103316
:10425000934202D22846FCF7CFFFA378002BEDD182
:10426000144B1B78002BE6D05A1ED2B2012A07D974
:10427000032B09D0042BE1D10F4801F083F9DDE7CE
:104280000E48FEF7C3F9D9E7094801F01BFDD5E751
:10429000906C0120000002400083012006000020F5
:1042A00008000020040000204812012038120120DC
:1042B000B473012058120120307301205C120120D8
:1042C00070B582B005460E4671B1541A01940F2C98
:1042D0000ED82868012C14D0B4B9019B6B602A68F1
:1042E0000021D15402B070BD9AB10B481AF06FFB97
:1042F000002201A928460EF011FE2860019BAB6048
:10430000E7E733780370E8E7224631461EF0A7FD61
:10431000E3E7541A0194DCE7E496020870B582B032
:1043200005460E4671B1541A01940F2C0ED8286818
:10433000012C14D0B4B9019B6B602A680021D154C0
:1043400002B070BD9AB10B481AF041FB002201A9DE
:1043500028460EF0E3FD2860019BAB60E7E7337869
:104360000370E8E7224631461EF079FDE3E7541A70
:104370000194DCE7E49602082DE9F043FFB007461C
:1043800000248470C47004718DF8004003AB019365
:104390007D494FF000030A460B3901A8FFF790FF53
:1043A0008DF81C400AAB089309948DF8284001232E
:1043B0008DF8383011AB0F9374494FF000030A4663
:1043C0000A390FA8FFF77CFF4FF004088DF85480DE
:1043D00018AB169317948DF8604002268DF8706024
:1043E0001FAB1D936A494FF000030A460B391DA805
:1043F000FFF766FF0A238DF88C3026AB24932594B3
:104400008DF8984003258DF8A8502DAB2B9361496A
:104410004FF000030A460A392BA8FFF751FF0C237F
:104420008DF8C43034AB329333948DF8D0408DF88E
:10443000E0803BAB399358494FF000030A460939F5
:1044400039A8FFF73DFF4FF007088DF8FC8042AB1D
:10445000409341948DF808414FF005098DF818916B
:1044600049AB47934D494FF000030A46093947A825
:10447000FFF726FF06238DF8343150AA4E924F9451
:104480008DF840418DF8503157AB559344494FF06A
:1044900000030A460A3955A8FFF712FF8DF86C9100
:1044A0005EAB5C935D948DF878418DF8888165AB47
:1044B00063933C494FF000030A460B3963A8FFF7AA
:1044C000FFFE8DF8A4616CAB6A936B948DF8B041DC
:1044D00008238DF8C03173AB719333494FF000035B
:1044E0000A460C3971A8FFF7EBFE8DF8DC517AAB68
:1044F000789379948DF8E841BC60FC603C614FF49E
:10450000FC7004F03AF90646B86000F5FC733B61B4
:1045100000F10C056C46D6B1237805F80C3C45F843
:10452000085C6168A2684FF000030A44301DFFF781
:10453000F5FE237F2B7406F128036B61216A626A02
:104540004FF000030A4406F12000FFF7E7FE38347D
:10455000383638357EAB9C42DDD1FE601C466E4657
:1045600008E068682C3CA04201D004F0FFF82C461B
:10457000B5421BD0A4F13805286AA4F11003984273
:10458000EFD004F0F3F8ECE77FAC02088AAC020845
:1045900097AC0208A2AC0208ADAC0208B9AC0208A4
:1045A000C6AC0208D3AC0208E0AC020800248DF8C7
:1045B000004003AB019390494FF000030A460B39CA
:1045C00001A8FFF77DFE8DF81C400AAB0893099403
:1045D0008DF8284001238DF8383011AB0F938749AF
:1045E0004FF000030A4608390FA8FFF769FE0823B9
:1045F0008DF8543018AB169317948DF86040022351
:104600008DF870301FAB1D937D494FF000030A46B3
:104610000D391DA8FFF754FE0D238DF88C3026AB05
:10462000249325948DF8984003238DF8A8302DAB62
:104630002B9374494FF000030A460A392BA8FFF761
:104640003FFE0C238DF8C43034AB329333948DF895
:10465000D0407C61BC61FC61E02004F08EF806462D
:10466000786100F1E003FB6100F10C056C460DF18F
:10467000E008D6B1237805F80C3C45F8085C616881
:10468000A2684FF000030A44301DFFF747FE237F66
:104690002B7406F128036B61216A626A4FF00003F4
:1046A0000A4406F12000FFF739FE38343836383531
:1046B0004445DED1BE6138AC6E4608E068682C3CEB
:1046C000A04201D004F052F82C46B54209D0A4F122
:1046D0003805286AA4F110039842EFD004F046F898
:1046E000ECE700248DF8004003AB019346494FF0FE
:1046F00000030A460A3901A8FFF7E2FD04238DF8FA
:104700001C300AAB089309948DF8284001238DF8DA
:10471000383011AB0F933D494FF000030A4607397B
:104720000FA8FFF7CDFD09238DF8543018AB169371
:1047300017948DF8604002238DF870301FAB1D93E5
:1047400033494FF000030A460A391DA8FFF7B8FDA8
:104750000B238DF88C3026AB249325948DF898404C
:104760003C627C62BC62A82004F007F8064638620E
:1047700000F1A803BB6200F10C056C460DF1A8081E
:10478000D6B1237805F80C3C45F8085C6168A2684E
:104790004FF000030A44301DFFF7C0FD237F2B7448
:1047A00006F128036B61216A626A4FF000030A4434
:1047B00006F12000FFF7B2FD38343836383544456D
:1047C000DED17E622AAC6E4608E068682C3CA042CE
:1047D00001D003F0CBFF2C46B54209D0A4F1380537
:1047E000286AA4F110039842EFD003F0BFFFECE772
:1047F00038467FB0BDE8F0837FAC0208ECAC02081D
:10480000FDAC0208A2AC02088AAC020807AD02089F
:1048100012AD0208F8B5594B00261E70F0225A80DE
:104820004FF4A0729A80564D03F1080295E80300F8
:1048300082E8030003F1100205F1080103C982E8D0
:10484000030083F898664F48FCF78EFD4E4C2046D7
:10485000FFF792FD4D4A4E49204603F089FF4D4C2B
:1048600026756675A67504F1180710350FCD0FC7AC
:1048700095E80F0087E80F00A66326646664A664C7
:10488000E66426656665A665E6650823E363202081
:1048900003F073FF0646A063E46B013C640800EB81
:1048A00084052B1D9D4205D24FF4007003F065FF77
:1048B00046F824003748C56456F82430436403F5AD
:1048C00000728264C56543658265036403650024E4
:1048D00080F8604080F878402C4A2F4903F048FF68
:1048E0002E4B0A221A8041F6583159802C495960C2
:1048F0001C725A725A8107221A7301225A730821B4
:1049000099730B21D973092119740221597483F801
:10491000124FA3F8144F83F8162FA3F8204FA3F8D3
:10492000224FA3F8264FA3F8284FA3F82A4FA3F845
:104930002C4FA3F82E4FA3F8304FA3F8324FA3F813
:10494000344FA3F8364FA3F8384F83F83A4F83F823
:104950003B4F83F83C4FA3F83E4FA3F8404F83F8FA
:10496000424F83F8434F03F6447100220A6003F676
:1049700048731A600B4B1C70F8BD00BF906C01208F
:104980009C9602085C120120008301200000002098
:10499000AD3900083073012085390008B473012057
:1049A0003C1201204812012038B5094BA3F590753F
:1049B00002E02346AC4209D0A3F1180453F8180CC6
:1049C000103B9842F5D003F0D1FEF2E738BD00BFAE
:1049D0004C840120F0B589B005461478204AA2FB2A
:1049E0000432D20802EB4203A4EB8304E4B204AB2A
:1049F00002933032012102A80EF0FEFA194A61003A
:104A00000B1952F833300C4402EBC4025268009286
:104A10000022114602A80EF099FC05F10801296058
:104A2000034653F8082B9A4211D02A608268AA6084
:104A300042686A600360002343600372029804AB1B
:104A4000984201D003F092FE284609B0F0BD1F68DD
:104A50005E689C68DA68AF60EE602C616A61E7E7C7
:104A6000ABAAAAAA2C8301202DE9F04F89B00790A8
:104A700004911468D2F804A093680093D2F80CB0A3
:104A800004F110069E422FD0CDF814B0009B039382
:104A9000CDF804A0049DAF686B692969C91B091191
:104AA000ABEB03029210501EA4EB0A02121102EBB0
:104AB00040120A440692686A2A46AD69D269AA1A67
:104AC0001211C31A9B10013B02EB43131944069BBE
:104AD000B3EB510F80F09D80A74274D0002B72DDA4
:104AE0009946DDF8148045E00BF104030593DBF8EB
:104AF000046006F5007303930196CBE7009D214601
:104B000045E03A46334649E05042014418441EF01D
:104B1000B1F94BE0002B14DD1C46B8BF03F11F04B4
:104B200064110BEB840BDBF800A0A3EB44140AEB3D
:104B300004147F1B1F2F08D8C5EB057306EB031663
:104B400013E0DC436FEA5414EBE7002F37DD3E46F9
:104B5000B8BF07F11F06761108EB8608D8F80030B9
:104B60000193A7EB461703EB0716A9EB0509B9F16B
:104B7000000F28DDA4EB0A03019AB71A3F111B119D
:104B80000093BBD15BF8041C01F500712025002FB8
:104B9000B7D158F8043C03F5007320224D45A8BF57
:104BA0004D469542A8BF15462A01ADD1009B5B1B1F
:104BB0001F2BAFD8C5EB057304EB0314B9E7FE4315
:104BC0006FEA5616C8E704998B680A69103A93424F
:104BD00011D010338B60049A13469068D2681C6918
:104BE0005969831A069E06EB23131F2B00F29B8044
:104BF00000EB0613A7E0049CE06803F0B7FD6369CF
:104C00001A1D62615B68E36003F500722261A360B4
:104C1000E1E7B5426FD0059BA0EB03094FEAA90974
:104C200009F1FF3902EB4919039B9B1B09EB23197F
:104C3000B9F1000F5FDDDDF804803EE01A46314631
:104C400020461EF017F949E0002F1BDD3E46B8BF95
:104C500007F11F067611059B03EB86030593D3F836
:104C6000008008F500730393A7EB461708EB0716BF
:104C7000029BA3EB0A0305EB23131F2B06D8019B12
:104C80001C4415E0FE436FEA5616E4E7002B2EDDC8
:104C90001C46B8BF03F11F0464110BEB840BDBF857
:104CA00000A00AF500720092A3EB44140AEB04146E
:104CB000A9EB0509B9F1000F1DDD37460294039BEE
:104CC0009D1B2D11009B1B1B1B119D42A8BF1D4648
:104CD0004D45A8BF4D462B010193AFD1A7EB080767
:104CE00005EB27171F2FAFD8019B1E44C0E7DC43FD
:104CF0006FEA5414D1E704998869CB69984202D0CD
:104D00001038886167E703F031FD0498436A1A1F81
:104D1000426253F8043CC36103F50072026203F57A
:104D2000F873836157E7002B16DD1846B8BF03F10F
:104D30001F00401101EB80010A6802F50074A3EB2B
:104D4000401302EB0313079D28462B606A60AC609A
:104D5000E96009B0BDE8F08FD8436FEA5010E9E789
:104D60002DE9F04704460D46416906688B1B9B08F8
:104D70001AD066694FF4007003F0FFFC46F8040C8B
:104D800063691A1F626153F8043CE36003F5007223
:104D9000226103F5F872A26022B1144695E80F0073
:104DA00084E80F00BDE8F087426A531A9B1003F1B4
:104DB000010808F101074368B3EB470F19D9DF1B5E
:104DC0007F0806EB87060436B14207D90432521A2F
:104DD000930832D030461EF04DF82EE04FEA88039B
:104DE0000432521A900828D09B1AF0181EF042F88C
:104DF00023E043B14FEA430909F10209B9F1804FB9
:104E000003D319F0DEFD4FF003094FEA890003F0E8
:104E1000B4FC8246A9EB0706760800EB860604364A
:104E20006169626A0432521A930819D1206803F04A
:104E30009DFCC4F800A0C4F8049066613368E36088
:104E400003F50073236108F18043013B06EB830205
:104E5000626256F82330E36103F50073236288E74A
:104E600030461EF007F8E1E72DE9F041ADF50E7D83
:104E700005460C46D0E91A23D1E90001121A617ADD
:104E80000C31B24EC2F38F1205EB4101304601F0F6
:104E90003BFEADF8160095F8603003EB0313DBB270
:104EA0008DF815309DF81580627A013231460CA8D4
:104EB00002F058F90D9A6FF000439A4245D0012252
:104EC000A3490CA80EF0C6FA064608AB069307469F
:104ED00057F8083BBB423BD006938368089373683E
:104EE0000793376000237360337212AABDF816105F
:104EF000129113A9139397480291019200F11003A4
:104F0000009306AB42460A21FEF7EDFC069808AB7B
:104F1000984201D003F02AFC0C980EAB984201D0C5
:104F200003F024FC237AA3F10802D2B2012A1AD991
:104F30000D2B00F04C810E2B00F0C0810B2B00F0EC
:104F400045820DF50E7DBDE8F081834819F042FDE4
:104F50000DF1200E034653F8080F59689A68DB6874
:104F6000AEE80F00BBE7092B00F0FC809DF8152090
:104F70009DF815300DF152010020ADF85200754E2C
:104F800001910E3300934523023229213046FDF76B
:104F9000FFFF9DF815209DF8153015A9BDF81600E6
:104FA000159001910F33009346230132282130469A
:104FB000FEF783FB9DF8157004F10A02294622A82A
:104FC000FFF708FD01230093614B0022114622A840
:104FD0000EF0BCF905461EAB1C93064656F8083B7E
:104FE000B34200F0CF801C9383681E936B681D93BF
:104FF0002E6000236B602B721D9A6FF000439A4263
:1050000000F0CB80012252491CA80EF023FA05467D
:1050100018AB1693064656F8083BB34200F0C08022
:105020001693836818936B6817932E6000236B6048
:105030002B7228AABDF81610289129A92993454852
:105040000291019200F11003009316AB3A464721FA
:10505000FEF749FC169818AB984201D003F086FB86
:105060001C981EAB984201D003F080FB229824AB21
:10507000984201D003F07AFB9DF81550EDB22CAEAA
:105080002A9636494FF000030A4605392AA8FFF749
:1050900017F930ABBDF81620309231AA00213191BA
:1050A0002C480292019300F1100300932AAB2A4688
:1050B0007321FEF718FC2A98B04201D003F056FB8A
:1050C0009DF81560E27A214938A802F04BF8399B27
:1050D000C3F1FF4303F5FF0303F5FF437F33022BC7
:1050E00069D903221E4938A80EF0B4F9044634AB3E
:1050F0003293054655F8083BAB425FD03293836844
:1051000034936368339325600023636023723EAA5F
:10511000BDF816103E913FA93F930E4802910192AF
:1051200000F11003009332AB3246AA21FEF7DBFBFD
:10513000329834AB984201D003F018FB38983AAB60
:1051400098423FF4FEAE03F011FBFAE60083012023
:1051500048AD0208906C01201097020849AD020882
:105160004CAD02089DF815209DF815300DF1160183
:1051700001910F3300934623013228218C48FDF71B
:1051800007FF17E70DF1780E034653F8080F59682B
:105190009A68DB68AEE80F0028E7864819F01AFC29
:1051A0000DF1600E034653F8080F59689A68DB68E2
:1051B000AEE80F0037E77F4819F00CFC34AF034628
:1051C00053F8080F59689A68DB680FC799E79DF88C
:1051D0001550EDB242AE409677494FF000030A46B3
:1051E0000B3940A8FFF76CF846ABBDF81620469285
:1051F00047AA002147916E480292019300F11003E3
:10520000009340AB2A462821FEF76DFB4098B04240
:1052100001D003F0ABFA9DF81560A27A67494EA859
:1052200001F0A0FF4F9BC3F1FF4303F5FF0303F51C
:10523000FF437F33012B35D9022261494EA80EF07E
:1052400009F904464AAB4893054655F8083BAB427A
:105250002BD0489383684A93636849932560002262
:1052600062602272BDF8163054938EAB43F8E42D81
:105270004F48029354AB019300F11003009348ABE5
:105280003246AA21FEF72FFB48984AAB984201D03C
:1052900003F06CFA4E9850AB98423FF452AE03F0D4
:1052A00065FA4EE6434819F095FB4AAF034653F8BA
:1052B000080F59689A68DB680FC7CDE79DF815504D
:1052C000EDB258AE56963F494FF000030A460B39EF
:1052D00056A8FEF7F5FFBDF816305C938EAB0022A2
:1052E00043F8C42D324802935CAB019300F11003E4
:1052F000009356AB2A462821FEF7F5FA5698B0429D
:1053000001D003F033FA9DF81560E27AA37A03EB3B
:10531000C2122A4964A801F025FF659BC3F1FF432F
:1053200003F5FF0303F5FF437F33022B34D9032238
:10533000254964A80EF08EF8044660AB5E930546DE
:1053400055F8083BAB422AD05E938368609363684C
:105350005F932560002363602372BDF816206A9274
:105360006B9313486BAB02936AAB019300F110038C
:1053700000935EAB3246AA21FEF7B5FA5E9860ABA9
:10538000984201D003F0F2F9649866AB98423FF47A
:10539000D8AD03F0EBF9D4E5064819F01BFB60AF7C
:1053A000034653F8080F59689A68DB680FC7CEE7C1
:1053B000906C0120109702085BAD02080083012069
:1053C000A0AD020867AD02084CAD02089DF815704B
:1053D000A27A664978A801F0C5FE08230093644BC1
:1053E0000022114678A80DF0B1FF054674AB729308
:1053F000064656F8083BB34200F0938072938368E8
:1054000074936B6873932E6000236B602B72739B95
:10541000C3F1FF4303F5FF0303F5FF437F33012B84
:1054200040F28A800222534972A80EF013F8054612
:105430006EAB6C93064656F8083BB3427FD06C9334
:1054400083686E936B686D932E6000236B602B7284
:10545000BDF816207E927F9347487FAB02937EABC8
:10546000019300F1100300936CAB3A462821FEF73C
:105470003AFA6C986EAB984201D003F077F97298C3
:1054800074AB984201D003F071F978987AAB9842E6
:1054900001D003F06BF99DF81560E27A334986A8D4
:1054A00001F060FE879BC3F1FF4303F5FF0303F5A3
:1054B000FF437F33032B4DD90422304986A80DF0DA
:1054C000C9FF044682AB8093054655F8083BAB42C2
:1054D00043D080938368829363688193256000231F
:1054E00063602372BDF816208C928D9322488DAB99
:1054F00002938CAB019300F11003009380AB324612
:10550000AA21FEF7F0F9809882AB984201D003F00F
:105510002DF9869888AB98423FF413AD03F026F935
:105520000FE50DF5E87E034653F8080F59689A68B1
:10553000DB68AEE80F0064E7114819F04BFA0DF58F
:10554000DC7E034653F8080F59689A68DB68AEE8BA
:105550000F0077E70A4819F03DFA82AF034653F887
:10556000080F59689A68DB680FC7B5E70083012008
:1055700068AD0208A0AD0208906C012074AD02086D
:10558000109702082DE9F04F93B00446D0E91A2392
:10559000013243F10003C0E91A23837D002B00F0A0
:1055A000D0819A4A1360037DC05C050900F00F00AA
:1055B0000027974E5BE1227D013286FB023ED31726
:1055C000C3EBEE0303EB8303A2EB8302D2B2A35C33
:1055D0008DF80E308B1EA375013286FB023ED31769
:1055E000C3EBEE0303EB8303A2EB83032375A5F167
:1055F0000C02D2B2012A40F26A81DBB2E25C8DF881
:105600000F200339A175013386FB0321DA17C2EBA2
:10561000E10202EB8202A3EB82032375D4F85080EF
:10562000236C984505D0082D25D05A7A824200F087
:10563000DD80002F40F00481D4E91A23CDE9042352
:105640008DF818508DF819009DF80E308DF81A302D
:105650009DF80F308DF81B30256C636C9D4200F077
:105660003B81102D03D004AB0FCB05E90F00236C59
:10567000103B2364E4E01A7A092A29D0A26CD4F8FA
:105680004CC0D4F85C90616DA8EB01014FEA211A7F
:10569000A9EB0C01891001390AEB4111A2EB030EB1
:1056A00001EB2E118910002900F3EC81A9EB0C010C
:1056B000891001390AEB4111A2EB030A01EB2A110F
:1056C00002295BD0032953D001295DD04346ACE7C2
:1056D0009DF80E20D2B2997A9142CFD1A5E79DF8DC
:1056E0000EE05FFA8EFE93F80AB0F34540F0D081E9
:1056F00093F809E0864540F0CB8196E7DCF804306A
:1057000003F500720CF1040CC6E19DF80EE05FFA9F
:105710008EFE93F80AB0F34540F0C48193F809E097
:10572000864540F0BF8180E7DCF8043003F5007265
:105730000CF1040CBAE19DF80EE05FFA8EFE93F8CE
:105740000AB0F34540F0B88193F809E0864540F08F
:10575000B3816AE7DCF8043003F500720CF1040C45
:10576000AEE1DCF8043003F500720CF1040C86E1C4
:10577000197A09290DD01033934215D0197A0929C5
:1057800019D01033934221D01A7A092A21D04346E6
:105790004BE79DF80E10C9B293F80AE08E45EAD1A6
:1057A000597A8142E7D140E7DCF8043003F5007212
:1057B0000CF1040CE2E79DF80E10C9B293F80AE070
:1057C0008E45DED1597A8142DBD12EE7DCF80430F8
:1057D000DAE79DF80E20D2B2997A914201D0434681
:1057E00023E75A7A824218BF43461EE71A7A954247
:1057F00010D0082D7FF41DAF092A7FF41AAF9DF851
:105800000E20D2B2997A91420ED012E734120120C2
:1058100067666666082DF2D00B2DF0D0A5F10D025B
:10582000D2B2012A3FF605AF1D72D4E91A01C3E9CD
:1058300000019DF80E209A729DF80F20DA72012760
:10584000E16D206DE36CCB1A9B105A1E636DC31A79
:105850001B1103EB4213A26C256C521B03EB2213AA
:105860000C2B3FD8237DE05C050900F00F00A17DE3
:105870000A46022908DDA5F10803DBB2032B7FF6F7
:105880009AAE0E2D00F0DD80012939DDA5F10C0363
:10589000DBB2012B34D8237D013386FB032EDA17CC
:1058A000C2EBEE0202EB8202A3EB8203DBB2E25C0C
:1058B0008DF80E200239A175013386FB0321DA171A
:1058C000C2EBE10202EB8202A3EB820323754FF0ED
:1058D00000038DF80F30A1E604A904F13800FFF7AA
:1058E0003FFAADE70E900B680F9303F5007310932A
:1058F00011910EAA04F1380109A8FFF7B5F8B1E734
:105900001AB1237DE25CF82A60D0A27D022A18DD5C
:10591000A5F10803DBB2012B13D9A5F10D03DBB20E
:10592000012B0ED9013AA275237D0133764981FB03
:105930000321DA17C2EBE10202EB8202A3EB82033E
:105940002375D4E91C0150EA01030AD06F4B1A6891
:105950000023121A63EB0103002B08BFC82AC0F012
:10596000C18012AB002223F8122D0193EB23009388
:1059700040F23113E6224FF496716548FDF708FBBB
:10598000A37D092B56DCE56C206CE36D5B1B9B1043
:10599000591E226D636DD31A1B1103EB4113A26CC8
:1059A000121A13EB221345D094F860209A4224BFB8
:1059B000002384F8603094F86010636CC31A01EB24
:1059C00023131F2B21D800EB01112BE094F8782032
:1059D0000132D2B284F87820062A0ED00139A1759E
:1059E0000133494981FB0321DA17C2EBE10202EBE3
:1059F0008202A3EB8203237587E7444A10680022E2
:105A00002067626784F87820E8E7002B15DD1A46E6
:105A1000B8BF03F11F025211A3EB421355F8221035
:105A200001EB03112046FFF71FFA94F860300133B1
:105A300084F8603013B0BDE8F08FDA436FEA521299
:105A4000EAE7237D013386FB032EDA17C2EBEE0271
:105A500002EB8202A3EB8202D2B2A35C8DF80E307D
:105A6000013286FB023ED317C3EBEE0303EB830345
:105A7000A2EB8303C1E510339A423FF472AE0139C1
:105A80003FF414AE93F808E0BEF1090F3FF427AEDF
:105A900010339A423FF432AE93F808E0BEF1090F9A
:105AA0003FF433AE10339A423FF43EAE93F808E031
:105AB000BEF1090F3FF43FAE10339A423FF44AAEB5
:105AC00093F808E0BEF1090FD5D19DF80EE05FFA1A
:105AD0008EFE93F80AB0F345CDD193F809E08645E0
